:100000000C94F70C0C941F0D0C941F0D0C944C0DBC
:100010000C941F0D0C941F0D0C941F0D0C941F0DB0
:100020000C941F0D0C941F0D0C941F0D0C941F0DA0
:100030000C941F0D0C941F0D0C941F0D0C941F0D90
:100040000C94D01F0C941F0D0C941F0D0C941F0DBD
:100050000C941F0D0C94290E0C941F0D0C941F0D65
:100060000C941F0D0C941F0DDA24D524C324E6270D
:10007000F427FE270C2853656C656374205469705F
:1000800000506C6561736520776169742E2E2E00B7
:100090004144433A20200074656D703A2000536556
:1000A00074206D6561737572656400537465703A90
:1000B000200043616C6962726174696F6E00205642
:1000C000005663633A20200020560056696E3A209D
:1000D00000204300546D703A20004669726D7761CC
:1000E00072653A2000303030003030300056002049
:1000F000484F4C4400204845415400574F524B59FB
:1001000000424F4F535400534C4545500020204F60
:100110004646004552524F520000574DFBF12A000F
:100120000000002A3A002BF82A001717452507146B
:100130000082000383800F83E01FC7E00FC7E00742
:10014000C7C003EF8001EF0000FE00F8FE3EFFFF96
:10015000FEFFFFFEFFFFFEFE7CFE80FE0201EF00C1
:1001600003EF8007EFC007C7C00FC7E01F83F0078A
:1001700083C00183002323AF3B0C000001E000009B
:100180000001E000000001E000000001E0000000CC
:1001900001E000000001E000000001E000000001BB
:1001A000E000000001E000000001E000000001E0CC
:1001B00000000001E000000001E000000001E0009C
:1001C000000001E000000001E00000FFFFFFFFE091
:1001D000FFFFFFFFE0FFFFFFFFE0FFFFFFFFE0008B
:1001E00001E000000001E000000001E0000000016B
:1001F000E000000001E000000001E000000001E07C
:1002000000000001E000000001E000000001E0004B
:10021000000001E000000001E000000001E000003B
:100220000001E000000001E000000C0F1E1203F8C6
:100230000FF00FF00FE01FE01FC01FC03F803F8096
:100240003F007F007E007E007C00FC00FC000F0869
:100250001013020BFFFEFFFEFFFEFFFEFFFEFFFE80
:10026000FFFEFFFE080808120600FFFFFFFFFFFF6A
:10027000FFFF132E8A1903FD0007E00007E00007C7
:10028000C0000FC0000FC0000F80001F80001F8043
:10029000001F80001F00003F00003F00003E0000E4
:1002A0007E00007E00007C0000FC0000FC0000FCE2
:1002B0000000F80001F80001F80001F00003F00070
:1002C00003F00003F00007E00007E00007E000078C
:1002D000C0000FC0000FC0000F80001F80001F80F3
:1002E000001F80003F00003F00003F00003E000074
:1002F0007E00007E00007C0000FC0000FC0000FC92
:1003000000001D2CB02102FF001FC00000FFF800FC
:1003100003FFFC0007FFFF000FFFFF800FFFFF80C0
:100320001FF0FFC03FC03FC03FC03FE03F801FE025
:100330007F801FF07F001FF07F000FF07F000FF025
:10034000FF000FF0FF000FF8FF000FF8FF000FF89D
:10035000FF000FF8FF000FF8FF000FF8FF000FF885
:10036000FF000FF8FF000FF8FF000FF8FF000FF875
:10037000FF000FF8FF000FF8FF000FF87F000FF0ED
:100380007F000FF07F000FF07F001FF07F801FF0D5
:100390003F801FE03FC03FE03FC03FC01FF0FFC0B5
:1003A0000FFFFF800FFFFF0007FFFF0003FFFE00AE
:1003B00000FFF800001FC000122A7E210600003F47
:1003C000C0007FC000FFC003FFC00FFFC03FFFC0E1
:1003D000FFFFC0FFFFC0FFFFC0FF3FC0FE3FC0F8F0
:1003E0003FC0E03FC0003FC0003FC0003FC0003FF3
:1003F000C0003FC0003FC0003FC0003FC0003FC042
:10040000003FC0003FC0003FC0003FC0003FC000F1
:100410003FC0003FC0003FC0003FC0003FC0003FA2
:10042000C0003FC0003FC0003FC0003FC0003FC011
:10043000003FC0003FC0003FC0003FC01D2BAC21AB
:100440000200000FF000007FFE0001FFFF0003FF2D
:10045000FF8007FFFFC00FFFFFE01FF83FF01FF016
:100460001FF01FE00FF03FC007F83FC007F83FC084
:1004700007F8000007F8000007F800000FF8000078
:100480000FF000001FF000001FF000003FE0000030
:100490007FE00000FFC00001FF800003FF80000735
:1004A000FF00000FFE00001FFC00003FF800007F6F
:1004B000F00000FFE00001FF800003FF00000FFEDE
:1004C00000001FFC00003FF000007FE00000FFC0C4
:1004D0000000FFFFFFF8FFFFFFF8FFFFFFF8FFFF3F
:1004E000FFF8FFFFFFF8FFFFFFF8FFFFFFF81C2CEE
:1004F000B02103FF007FC00003FFF80007FFFC00EE
:100500001FFFFF003FFFFF003FFFFF807FE0FFC0B6
:100510007FC07FC0FF803FC0FF001FE0FF001FE0E3
:10052000FF001FE000001FE000001FE000001FE0D0
:1005300000003FC000007FC00003FF80007FFF007D
:10054000007FFC00007FF000007FF800007FFE00CD
:10055000007FFF800000FFC000003FE000001FE0C0
:1005600000001FE000000FF000000FF000000FF08F
:10057000FF000FF0FF000FF0FF000FF0FF001FE083
:10058000FF801FE07FC03FE07FE0FFC03FFFFF80B4
:100590003FFFFF001FFFFE000FFFFC0003FFF800FE
:1005A000007FC0001F2AA82101000001FFC0000138
:1005B000FFC00003FFC00007FFC00007FFC0000F1F
:1005C000FFC0000FFFC0001FFFC0003FFFC0003F83
:1005D000BFC0007F3FC000FF3FC000FE3FC001FE24
:1005E0003FC001FC3FC003F83FC007F83FC007F021
:1005F0003FC00FF03FC01FE03FC01FC03FC03FC023
:100600003FC03F803FC07F803FC0FF003FC0FF0032
:100610003FC0FFFFFFFEFFFFFFFEFFFFFFFEFFFFEC
:10062000FFFEFFFFFFFEFFFFFFFEFFFFFFFE0000DC
:100630003FC000003FC000003FC000003FC00000BE
:100640003FC000003FC000003FC000003FC00000AE
:100650003FC01D2BAC2102FF7FFFFFE07FFFFFE0CB
:100660007FFFFFE07FFFFFE07FFFFFE07FFFFFE016
:100670007FFFFFE07F8000007F8000007F80000020
:100680007F8000007F8000007F8000007F8000006E
:100690007F8000007F87F8007F9FFE007FFFFF8044
:1006A0007FFFFFC07FFFFFC07FFFFFE07FF03FF0D5
:1006B0007FC01FF07F800FF07F800FF87F0007F86A
:1006C000000007F8000007F8000007F8000007F82E
:1006D000000007F8000007F0FF000FF0FF000FF028
:1006E000FF001FF0FF803FE07FE0FFC07FFFFFC003
:1006F0003FFFFF801FFFFF000FFFFC0003FFF8001C
:10070000007FC0001D2CB02102FF000FF000007F11
:10071000FC0000FFFF0003FFFF8007FFFFC007FF93
:10072000FFE00FFC3FE01FF00FF01FE00FF03FC0B5
:1007300007F83FC007F83F8000007F8000007F80FF
:1007400000007F8000007F000000FF03F800FF1F13
:10075000FE00FF3FFF00FF7FFF80FFFFFFC0FFFFA6
:10076000FFE0FFF83FF0FFE01FF0FFC00FF0FFC019
:100770000FF8FF8007F8FF8007F8FF8007F8FF8079
:1007800007F8FF8007F87F8007F87F8007F87F80F1
:1007900007F07FC00FF03FC00FF03FE01FE01FF8F1
:1007A0003FE01FFFFFC00FFFFF8007FFFF0003FFB9
:1007B000FE0000FFF800003FC0001C2AA821030033
:1007C000FFFFFFF0FFFFFFF0FFFFFFF0FFFFFFF075
:1007D000FFFFFFF0FFFFFFF0FFFFFFF000000FF053
:1007E00000000FF000001FF000001FE000003FE0DD
:1007F00000003FC000007FC000007FC00000FF80FD
:100800000000FF800001FF000001FF000001FE006A
:100810000003FE000003FE000007FC000007FC00D0
:10082000000FF800000FF800001FF800001FF00094
:10083000001FF000003FE000003FE000007FC0002C
:10084000007FC00000FFC00000FF800001FF8000AB
:1008500001FF000003FF000003FF000003FE000093
:1008600007FE000007FC00001D2CB02102FF003F26
:10087000F00001FFFE0007FFFF800FFFFFC01FFF1A
:10088000FFE03FFFFFF03FF87FF07FE01FF07FE0E9
:100890001FF87FC00FF87FC00FF87FC00FF87FC030
:1008A0000FF87FC00FF83FE01FF03FE01FF01FF888
:1008B0007FE00FFFFFC007FFFF0001FFFC0000FF0C
:1008C000F80003FFFE000FFFFF801FFFFFC03FF097
:1008D0003FE07FE01FE07FC00FF07FC00FF0FF80A0
:1008E00007F8FF8007F8FF8007F8FF8007F8FF8010
:1008F00007F8FF8007F8FFC00FF8FFC00FF87FE090
:100900001FF07FF03FF07FFFFFE03FFFFFE01FFFA2
:10091000FFC00FFFFF8003FFFE00007FF0001D2CD3
:10092000B02102FF001FC00000FFF80003FFFE001F
:1009300007FFFF000FFFFF801FFFFF803FE0FFC0AA
:100940003FC03FE07F801FE07F801FE07F000FF00F
:10095000FF000FF0FF000FF0FF000FF0FF000FF897
:10096000FF000FF8FF000FF8FF000FF8FF801FF8DF
:100970007F801FF87FC03FF87FE0FFF83FFFFFF860
:100980001FFFFFF81FFFF7F80FFFE7F803FFC7F897
:1009900000FE07F0000007F000000FF000000FF06D
:1009A00000000FF000000FE07F801FE07F801FE05D
:1009B0003F803FC03FC07FC03FE0FF801FFFFF8000
:1009C0000FFFFF0007FFFE0003FFFC0001FFF00028
:1009D000003FC000081D1D130800FFFFFFFFFFFFC1
:1009E000FFFF00000000000000000000000000FF0A
:1009F000FFFFFFFFFFFFFF00121A00001803700344
:100A000090207F001A0018000000000B0000FFFF7C
:100A1000FFFFFFFFFFFFFFFF11103013010601C0B2
:100A20000001C00001C00001C00001C00001C00001
:100A300001C000FFFF80FFFF8001C00001C0000176
:100A4000C00001C00001C00001C00001C0000708D3
:100A5000080B03023E3E3E3E3EF0F0F00902040B5E
:100A6000010DFF80FF800505050B0502F8F8F8F879
:100A7000F8FF111848130102FFFF80FFFF80C00339
:100A800080C00380C00380C00380C00380C0038097
:100A9000C00380C00380C00380C00380C00380C047
:100AA0000380C00380C00380C00380C00380C003F4
:100AB00080C00380C00380FFFF80FFFF80FFFF80B6
:100AC000061818130702FCFC1C1C1C1C1C1C1C1CFC
:100AD0001C1C1C1C1C1C1C1C1C1C1C1C1C1C111865
:100AE00048130102FFFF80FFFF80000380000380A6
:100AF0000003800003800003800003800003800067
:100B00000380000380FFFF80FFFF80C00000C00063
:100B100000C00000C00000C00000C00000C0000015
:100B2000C00000FFFF80FFFF80FFFF801118481307
:100B30000102FFFF80FFFF800003800003800003AD
:100B40008000038000038000038000038000038096
:100B50000003801FFF801FFF8000038000038000D0
:100B600003800003800003800003800003800003F3
:100B700080FFFF80FFFF80FFFF80111848130102F4
:100B8000C00380C00380C00380C00380C00380C056
:100B90000380C00380C00380C00380C00380C00303
:100BA00080FFFF80FFFF8000038000038000038040
:100BB00000038000038000038000038000038000A6
:100BC0000380000380000380111848130102FFFF17
:100BD00080FFFF80C00000C00000C00000C0000017
:100BE000C00000C00000C00000C00000C00000FF46
:100BF000FF80FFFF8000038000038000038000036C
:100C000080000380000380000380000380FFFF80DA
:100C1000FFFF80FFFF80111848130102FFFF80FFD4
:100C2000FF80C00000C00000C00000C00000C00085
:100C300000C00000C00000C00000C00000FFFF8036
:100C4000FFFF80C00380C00380C00380C00380C05A
:100C50000380C00380C00380C00380FFFF80FFFFCC
:100C600080FFFF80101830130202FFFFFFFF000714
:100C7000000700070007000700070007000700073C
:100C8000000700070007000700070007000700072C
:100C900000070007000700070007111848130102AA
:100CA000FFFF80FFFF80C00380C00380C00380C0BF
:100CB0000380C00380C00380C00380C00380C003E2
:100CC00080FFFF80FFFF80C00380C00380C00380DF
:100CD000C00380C00380C00380C00380C00380FFC6
:100CE000FF80FFFF80FFFF80111848130102FFFF04
:100CF00080FFFF80C00380C00380C00380C00380EA
:100D0000C00380C00380C00380C00380C00380FF95
:100D1000FF80FFFF8000038000038000038000034A
:100D200080000380000380000380000380FFFF80B9
:100D3000FFFF80FFFF800510100B0502F8F8F8F8A0
:100D4000F8000000000000F8F8F8F8F80710100BA1
:100D500003023E3E3E3E3E0000003E3E3E3E3EF032
:100D6000F0F0FFFFFFFFFFFFFFFFFFFFFFFFFFFFB1
:100D7000FFFFFFFFFFFFFFFFFFFFFFFFFFFFFFFF83
:100D8000FFFFFFFFFFFFFFFFFFFFFFFFFFFFFFFF73
:100D9000FFFFFFFFFFFFFFFFFFFFFFFFFFFFFFFF63
:100DA000FFFFFFFFFFFF446561637469766174654F
:100DB0006400456E74657220546970204E616D65E3
:100DC00000FFE0FFD1AFFF32FFD0FFFEFFE0FFD119
:100DD000AEFFD0FFFEFFE0FFD11000FFFEFFD0FF0F
:100DE000E0FFC1FFD1AED580A83FD300408D1420D5
:100DF00000A1C8DA1281CFD9F1DB402EA4A6AFFF43
:100E0000D0FFFE00000000240027002A00000000A0
:100E100000250028002B00000000002300260029E8
:100E20000004040404040404040202020202020393
:100E3000030303030301020408102040800102049D
:100E40000810200102040810200000000800020120
:100E50000000030407000000000000000000090F6C
:100E600000FD0A01E803D820FFFD0CFD0BFD00008A
:100E70000009000C010B0B09040080808080808039
:100E80008000008080040303090307909090060807
:100E9000080901014848FC4848FC4848070B0B0971
:100EA00001FF107C929050381412927C10070A0AAD
:100EB00009010042A4A4481010244A4A84070A0ADF
:100EC000090100609090906062948894620103032D
:100ED000090407808080030C0C0903FF2040408038
:100EE0008080808080404020030C0C0903FF8040FC
:100EF00040202020202020404080070707090103D0
:100F0000109254385492100707070901011010106D
:100F1000FE1010100205050904FDC0C04040800706
:100F20000101090104FE020202090400C0C0070A0F
:100F30000A09010002040408101020404080070A3A
:100F40000A09010038448282828282824438070A78
:100F50000A090100103050901010101010FE070AFE
:100F60000A0901007C8282040810204080FE070AE2
:100F70000A090100FE0204081C020202827C070A20
:100F80000A090100040C14244484FE040404070A22
:100F90000A090100FE8080BCC2020202827C070AAC
:100FA0000A0901003C408080BCC28282827C070A20
:100FB0000A090100FE020404080810102020070A94
:100FC0000A09010038448244384482824438070ABE
:100FD0000A0901007C828282867A02020478020772
:100FE00007090400C0C0000000C0C0020A0A0904CA
:100FF000FDC0C0000000C0C0404080050A0A0902D0
:1010000000081020408080402010080704040901D7
:1010100002FE0000FE050A0A0902008040201008B6
:101020000810204080070A0A0901007C828202041D
:101030000810100010070A0A0901007C82829EA293
:10104000A69A80807C070A0A09010010284482823F
:1010500082FE828282070A0A090100F8848284F8EB
:1010600084828284F8070A0A0901007C82808080D9
:10107000808080827C070A0A090100F884828282CB
:1010800082828284F8070A0A090100FE808080F8C3
:1010900080808080FE070A0A090100FE808080F8B7
:1010A0008080808080070A0A0901007C828080801D
:1010B0008E8282827C070A0A09010082828282FE75
:1010C0008282828282050A0A090200F820202020FA
:1010D00020202020F8080A0A0901001F0404040443
:1010E0000404048478070A0A09010082848890E0D5
:1010F000A090888482070A0A09010080808080808D
:1011000080808080FE070A0A0901008282C6AAAA9E
:101110009292828282070A0A0901008282C2A29206
:101120008A86828282070A0A0901007C8282828280
:10113000828282827C070A0A090100FC828282FC88
:101140008080808080070C0C0901FE7C8282828274
:101150008282A2927C0806070A0A090100FC8282A8
:1011600082FC9088848282070A0A0901007C8282BC
:1011700080700C0282827C070A0A090100FE1010AE
:1011800010101010101010070A0A09010082828244
:101190008282828282827C070A0A0901008282821C
:1011A00044444428282810070A0A09010082828240
:1011B0008292929292AA44070A0A0901008282440A
:1011C00028101028448282070A0A090100828244FA
:1011D00028101010101010070A0A090100FE02045E
:1011E000081020408080FE040C0C0903FFF0808072
:1011F0008080808080808080F0070A0A090100805A
:10120000404020101008040402040C0C0902FFF0F6
:1012100010101010101010101010F0070404090125
:1012200006102844820801010900FFFF0303030997
:1012300003088040200707070901007C02027E8224
:10124000867A070A0A090100808080BCC2828282F5
:10125000C2BC0707070901007C82808080827C076E
:101260000A0A0901000202027A86828282867A07CD
:1012700007070901007C8282FE80807C070A0A0938
:1012800001001C22222020F820202020070A0A0921
:1012900001FD7A84848478807C82827C070A0A0932
:1012A0000100808080BCC28282828282050A0A0993
:1012B0000200600000E02020202020F8060D0D092B
:1012C00001FD0C00001C04040404048484847807D9
:1012D0000A0A090100808080828CB0C0B08C82052F
:1012E0000A0A090200E02020202020202020F80700
:1012F0000707090100EC9292929292820707070970
:101300000100BCC282828282820707070901007C39
:1013100082828282827C070A0A0901FDBCC2828223
:1013200082C2BC808080070A0A0901FD7A86828217
:1013300082867A0202020707070901009C62424086
:101340004040400707070901007C82807C02827CC4
:101350000709090901002020FC20202020221C0769
:1013600007070901008484848484847A07070709B5
:1013700001008282444428281007070709010082DF
:1013800082929292AA44070707090100824428101A
:10139000284482060A0A0901FD84848484848C74AA
:1013A000048478070707090100FE0408102040FEA6
:1013B000050C0C0903FF3840404020C0C0204040CD
:1013C0004038010C0C0904FF808080808080808080
:1013D00080808080050C0C0901FFE010101020189F
:1013E0001820101010E007030309010762928CFF18
:1013F000FFFFFFFFFFFFFFFFFFFFFFFFFFFFFFFFFD
:10140000FFFFFFFFFFFFFFFFFFFFFFFFFFFFFFFFEC
:1014100000000009000C010B0B0904008080000093
:101420008080808080808006080809010008789408
:1014300090A0A47840070A0A0901001C222020F885
:10144000202060A25C070606090103827C44447CDC
:1014500082070A0A090100828244287C107C10104D
:1014600010010B0B0904FF80808080800080808049
:101470008080040B0B0902FF609080609090906068
:10148000109060050202090209888808090909000C
:10149000013C4299A5A1A599423C05070709010312
:1014A000609070907800F80708080901011224483C
:1014B0009090482412060404090102FC0404040567
:1014C0000101090204F80809090900013C42B9A513
:1014D000B9A9A5423C060101090109FC040404095B
:1014E000030660909060070909090101101010FEC1
:1014F00010101000FE0406060901046090106080C0
:10150000F0040606090104609020109060030303B4
:101510000903082040800709090901FE82828282AE
:1015200082C6BA8080070A0A0901007E8A8A8A7AFE
:101530000A0A0A0A0A020202090404C0C0040303D8
:101540000902FD30906003060609010440C04040D6
:1015500040E00506060901047088887000F8070855
:10156000080901019048241212244890070A0A0928
:10157000010040C0404042E60A121A06070A0A0962
:10158000010040C040404CF2020C101E070A0A093C
:1015900001006090201092660A121A06070A0A09D2
:1015A00001001000101020408082827C070C0C0982
:1015B00001004020100038448282FE828282070CA3
:1015C0000C0901000408100038448282FE828282E5
:1015D000070C0C0901001028440038448282FE8266
:1015E0008282070B0B090100629C0038448282FE54
:1015F000828282070B0B0901004444003844828236
:10160000FE828282070B0B0901003844382844828D
:1016100082FE828282070A0A0901006E90909090F1
:10162000FC9090909E070D0D0901FD7C82808080CA
:10163000808080827C184830070C0C090100402013
:101640001000FE404078404040FE070C0C090100AD
:1016500004081000FE404078404040FE070C0C0992
:10166000010010284400FE404078404040FE070B37
:101670000B090100444400FE404078404040FE0514
:101680000C0C09020080402000F82020202020209F
:10169000F8050C0C09020008102000F8202020207A
:1016A0002020F8050C0C09020020508800F82020AA
:1016B00020202020F8050B0B090200888800F82064
:1016C0002020202020F8080A0A0900007C4241411D
:1016D000E1414141427C070B0B090100629C008201
:1016E000C2A292928A8682070C0C09010040201047
:1016F000007C8282828282827C070C0C09010004B9
:101700000810007C8282828282827C070C0C090194
:1017100000102844007C8282828282827C070B0B2C
:10172000090100629C007C8282828282827C070B9B
:101730000B0901004444007C8282828282827C0701
:10174000070709010182442810284482070C0C096C
:1017500001FF027C868A8A9292A2A2C27C80070C38
:101760000C09010040201000828282828282827CE9
:10177000070C0C0901000408100082828282828218
:10178000827C070C0C0901001028440082828282AE
:101790008282827C070B0B09010044440082828212
:1017A000828282827C070C0C0901000408100082EE
:1017B00082442810101010070A0A0901008080FCDA
:1017C000828282FC808080060A0A09010038444433
:1017D00048D04844444458070B0B09010020100826
:1017E000007C02027E82867A070B0B090100040846
:1017F00010007C02027E82867A070B0B0901001022
:101800002844007C02027E82867A070A0A090100C7
:10181000324C007C02027E82867A070A0A090100A5
:101820004444007C02027E82867A070B0B09010089
:10183000182418007C02027E82867A0707070901B5
:10184000006C92127C90926E070A0A0901FD7C825C
:10185000808080827C184830070B0B0901004020F3
:1018600010007C8282FE80807C070B0B0901000443
:101870000810007C8282FE80807C070B0B0901002F
:10188000102844007C8282FE80807C070A0A0901BD
:10189000004444007C8282FE80807C050B0B0902A0
:1018A0000080402000E02020202020F8050B0B09BC
:1018B000020010204000E02020202020F8060B0B22
:1018C000090100205088007010101010107C050ACB
:1018D0000A090200909000E02020202020F8070B49
:1018E0000B090100483050087C82828282827C078A
:1018F0000A0A090100629C00BCC2828282828207BD
:101900000B0B090100402010007C82828282827CC5
:10191000070B0B090100040810007C82828282827E
:101920007C070B0B090100102844007C8282828214
:10193000827C070A0A090100629C007C8282828202
:10194000827C070A0A0901004444007C8282828268
:10195000827C07090909010010381000FE001038C8
:10196000100709090901FF027C8A8A92A2A27C80E1
:10197000070B0B09010040201000848484848484B8
:101980007A070B0B09010004081000848484848406
:10199000847A070B0B090100102844008484848496
:1019A00084847A070A0A09010048480084848484F0
:1019B00084847A060E0E0901FD08102000848484B8
:1019C00084848C74048478070C0C0901FD80808069
:1019D000BCC28282C2BC808080060D0D0901FD4818
:1019E000480084848484848C740484780C291124B1
:1019F0001FBECFEFD8E0DEBFCDBF13E0A0E0B1E067
:101A0000E8EBF9E502C005900D92AA3DB107D9F7C0
:101A100025E0AAEDB3E001C01D92AB31B207E1F7BA
:101A20001CE0C7EFDCE004C02197FE010E94CF2C30
:101A3000C63FD107C9F70E941A200C94DA2C0C94E7
:101A40000000089580E090E00895DF92EF92FF9209
:101A50000F931F93CF93DF93EC01D62E1CAD0BADEC
:101A60007C0184E0E80EF11CE98DFA8DC70109952F
:101A7000412F480F2D2D602FC7010E9447189BADA5
:101A8000890F8BAF81E090E0DF91CF911F910F9193
:101A9000FF90EF90DF9008951F920F920FB60F9274
:101AA00011242F933F934F935F936F937F938F9363
:101AB0009F93EF93FF9393B1917089B1881F88270B
:101AC000881F2091DC03921709F4B4C09093DC03C3
:101AD0002091DB03821709F4ADC08093DB032091D2
:101AE000E3033091E403981719F0319521953109FA
:101AF0004091E9035091EA036091E7037091E80394
:101B0000240F351F261737078CF12091E3033091FE
:101B1000E403981719F03195219531094091E903B3
:101B20005091EA036091E5037091E603240F351F9D
:101B300062177307B4F0981749F02091E3033091CE
:101B4000E40344275527421B530B04C04091E30391
:101B50005091E4032091E9033091EA03240F351FEB
:101B600009C02091E5033091E60304C02091E7030A
:101B70003091E8033093EA032093E90341E098139E
:101B800040E02091DA03421709F44FC02091E303AB
:101B90003091E403981719F031952195310960913E
:101BA000E9037091EA03E091E703F091E803260F5F
:101BB000371F2E173F078CF12091E3033091E40388
:101BC000981719F03195219531096091E9037091C9
:101BD000EA03E091E503F091E603260F371FE217D1
:101BE000F307B4F0981749F08091E3039091E40370
:101BF00022273327281B390B04C02091E30330919F
:101C0000E4038091E9039091EA03820F931F09C0D6
:101C10008091E5039091E60304C08091E7039091E1
:101C2000E8039093EA038093E9034093DA0381E0A9
:101C30008093F103FF91EF919F918F917F916F912D
:101C40005F914F913F912F910F900FBE0F901F907A
:101C50001895189580917A00806980937A008EE4B7
:101C600080937C0061E070E080E090E00E94391F8A
:101C700083B7817F826083BF80E120E030E093B74B
:101C8000916093BF889593B79E7F93BF90917A00A0
:101C900096FDFCCF4091780050917900240F351FBC
:101CA000815069F780917A008F7780937A0084E081
:101CB000369527958A95E1F740E050E064EB7BE2AA
:101CC00081E190E00E94212AC901089580917A0063
:101CD000806980937A0088EC80937C0064E170E0F6
:101CE00080E090E00E94391F83B7817F826083BFCC
:101CF00080E260E070E093B7916093BF889593B7FE
:101D00009E7F93BF90917A0096FDFCCF2091780042
:101D100030917900620F731F815069F780917A00CA
:101D20008F7780937A00769567957695679562525E
:101D30007A4080E090E00E94962B26EF38E24CE15A
:101D400051E40E94EE2A089590917A009069909350
:101D50007A008E3008F08E508F70806480937C0003
:101D600083B7817F826083BF20E280E090E033B759
:101D7000316033BF889533B73E7F33BF30917A00EF
:101D800036FDFCCF4091780050917900840F951F6B
:101D9000215069F720917A002F7720937A0025E06F
:101DA000969587952A95E1F708958FE00E94A40EF5
:101DB000A091E103B091E2039C010E946D2A0E9470
:101DC000982B28E539E743E353E40E94EE2A0E946A
:101DD000672BCB0108958F929F92AF92BF92CF92C3
:101DE000DF92EF92FF921F93CF93DF9360917B017D
:101DF00082E090E00E94231A60917A0183E090E0F3
:101E00000E94231A6091750184E090E00E94231AD9
:101E10006091740185E090E00E94231A60916F0147
:101E200086E090E00E94231A6091C40187E090E070
:101E30000E94231A6091C30188E090E00E94231A57
:101E40006091C20189E090E00E94231A6091F5033D
:101E50008AE090E00E94231A6091AF018BE090E04D
:101E60000E94231A6091A2018CE090E00E94231A44
:101E70006091F2038DE090E00E94231A60915C0172
:101E80008EE090E00E94231A8FE0E82EF12C10E003
:101E900080915C011817B0F586E0189F600111244D
:101EA000C0E0D0E0F601EC0FFD1FEA53FE4F608169
:101EB000C7018C0F9D1F0E94231A2196C630D105A1
:101EC00089F7670186E0C80ED11C88E0189FE00101
:101ED0001124C45EDE4F8EE0E80EF11C6981C6015C
:101EE0000E94231A460182E0880E911C6881229686
:101EF000C60101960E94231A64018E149F0471F793
:101F00001F5FC6CFDF91CF911F91FF90EF90DF90C1
:101F1000CF90BF90AF909F908F9008950F931F9395
:101F2000CF938091A201882399F0CFEF0FEE11E0BB
:101F300061E085E00E94741EC8010197F1F760E03E
:101F400085E00E94741EC8010197F1F7C15081F726
:101F5000CF911F910F9108952F923F924F925F92D0
:101F60006F927F928F929F92AF92BF92CF92DF92A9
:101F7000EF92FF920F931F93CF93DF9300D01F92A6
:101F8000CDB7DEB7412C1B821A820EE310E070E25F
:101F9000272E8A81898386E00E944B1E3324339446
:101FA000892B09F0312C1093E8030093E70380ECB0
:101FB00090E09093E6038093E50381E090E09093B6
:101FC000E4038093E30382E890E09093EA03809334
:101FD000E90330ECE32EF12CCC24C394D12C50E453
:101FE000852E912C6EEBA62EB12C8091E903909159
:101FF000EA0395958795582E9FE1591213C01093C7
:10200000E8030093E703F092E603E092E503D09241
:10201000E403C092E303B092EA03A092E9039FE5D0
:10202000592E15C080E6581212C01093E803009391
:10203000E703F092E603E092E503D092E403C09256
:10204000E3039092EA038092E90380E2582E0E9413
:10205000EE1A8DE59EE00E94F41C83E396E19093D6
:10206000F6048093F50482EB9DE00E944A1B4092A7
:10207000170590E3909318058EE50E94411D10927C
:10208000170520921805612C712C8981681688F437
:102090008091F203F30196E0989FE00DF11D112469
:1020A000EA53FE4F80810E94411D8FEF681A780A23
:1020B000ECCF4092170520921805852D0E94411DF6
:1020C0000E944C1C8111C5CF332029F086E00E946C
:1020D0004B1E892B49F486E00E944B1E892B09F088
:1020E00084CF311082CF08C06AE070E080E090E0D9
:1020F0000E94391F312CEFCF8091F203EA81FB81DE
:1021000096E0989FE00DF11D1124EA53FE4F508296
:102110000E948E0F6AE070E080E090E00E94391F1C
:102120008A819B8101969B838A8399E0490E8DE287
:1021300048122FCFE091F20396E0E99FF0011124BD
:10214000EA53FE4F15820F900F900F90DF91CF91C1
:102150001F910F91FF90EF90DF90CF90BF90AF90C5
:102160009F908F907F906F905F904F903F902F90B7
:1021700008954F925F926F927F92BF92CF92DF92BB
:10218000EF92FF920F931F93CF93DF937C0186E032
:102190000E944B1E11E0892B09F010E093E3C92E39
:1021A00096E1D92E00E22AE0B22EC091E903D09147
:1021B000EA03D595C7950E94EE1A2E01612C712C69
:1021C0008DE59EE00E94F41CD092F604C092F504C6
:1021D000F7014081518160E080E00E94211B109254
:1021E00017050093180582E192E00E94861CB092C8
:1021F000170500931805209729F486EA9DE00E94B0
:10220000D91C0EC04AE0C301B2010E94981C8CEC9C
:1022100093E00E94861CF701828193810E94861CB4
:102220000E944C1C8111CCCF112329F086E00E9422
:102230004B1E892BC9F486E00E944B1E892B09F0A6
:10224000B4CF1111B2CF0E948E0FCE01DF91CF918A
:102250001F910F91FF90EF90DF90CF90BF907F90F4
:102260006F905F904F9008956AE070E080E090E09A
:102270000E94391F10E0DFCF2F923F924F925F9262
:102280006F927F928F929F92AF92BF92CF92DF9286
:10229000EF92FF920F931F93CF93DF9300D000D064
:1022A000CDB7DEB77C01D42EFC01A080B1807724AD
:1022B0007394411101C0712C70E075956795362EAD
:1022C0001092E8031092E70362507109660F771FBE
:1022D0007093E6036093E50381E090E09093E4035C
:1022E0008093E3038D2D90E0880F991F9093EA036C
:1022F0008093E90386E00E944B1E66246394892B39
:1023000009F46CC0612C6AC08330910514F082E03E
:1023100090E0782E0E94EE1AC72C072C000CDD08E6
:10232000C6010196E82FE295E07FEA830F5F1F4F19
:10233000242C27188DE59EE00E94F41C83E396E18F
:102340009093F6048093F504F7014081518160E099
:1023500080E00E94211BF8E9AF16F2E0BF0661F4AD
:102360004091F20326E0249FA00111244A535E4FBE
:1023700060E086E30E94211B42E152E06A8180E036
:102380000E94211B48018C189D0880E189835524F7
:102390005394822D850D831558F4F401EE0FFF1F21
:1023A000EE0DFF1D4081518169818CE00E94211B4F
:1023B00053949FEF891A990AE981E05FE983F4E079
:1023C0005F12E7CF0E944C1C8111B4CF61101CC07A
:1023D00086E00E944B1E892BE9F0DB808091E903A7
:1023E0009091EA03959587959C838B834B808C0114
:1023F0001127C801870D911D77FC9A958D199109B8
:1024000097FF82CF712C86CF86E00E944B1E892BCE
:10241000E9F4DECF6110E1CF0E948E0F842D0F9082
:102420000F900F900F90DF91CF911F910F91FF9020
:10243000EF90DF90CF90BF90AF909F908F907F9064
:102440006F905F904F903F902F9008956AE070E0FA
:1024500080E090E00E94391F612CBACF3F924F92EA
:102460005F926F927F928F929F92AF92BF92CF9224
:10247000DF92EF92FF920F931F93CF93DF93CDB72D
:10248000DEB72E970FB6F894DEBF0FBECDBF80919A
:10249000FC03882349F01092FF031092000410926D
:1024A00001041092020421C08091FB03882329F0CB
:1024B00060917401709175010CC08091FA03609174
:1024C000EB037091EC03882321F080916F01680F7A
:1024D000711D80E090E00E94962B6093FF03709343
:1024E000000480930104909302048090FF03909075
:1024F0000004A0900104B0900204C090ED03D090BD
:10250000EE03E090EF03F090F003A7019601C50100
:10251000B4010E947C2A2B013C0120E030E0A9019B
:102520000E94482C18161CF4C301B20103C0C30159
:10253000B20190580E94672B8091AF01882309F463
:102540006DC1C0929204D0929304E0929404F092F0
:1025500095046E31710548F4E12CF12C00EA10E489
:1025600020E030E040E450E408C0E12CF12C00E829
:102570001FE320E030E040E05FE360E070E080E3F4
:1025800091E40E94701B8091DA04882309F46BC1E6
:102590000E94C41F6D837E838F8398878091C204BD
:1025A0009091C304A091C404B091C5044D815E8193
:1025B0006F817885481B590B6A0B7B0B8091CE0489
:1025C0009091CF04A091D004B091D104481759073D
:1025D0006A077B0708F447C1E091BC04F091BD0491
:1025E00080819181A281B38189839A83AB83BC83EB
:1025F000E091C004F091C1049C01AD016081718142
:10260000828193810E947C2A4B015C012091CA0443
:102610003091CB044091CC045091CD0469817A81F2
:102620008B819C810E947C2A6B017C012091B004EB
:102630003091B1044091B2045091B304C501B4018A
:102640000E944D2C2091C6043091C7044091C804CB
:102650005091C9040E947D2A2B013C016093C6045D
:102660007093C7048093C8049093C9043090DB042E
:1026700031101AC02091AC043091AD044091AE04E9
:102680005091AF04C701B6010E944D2C9B01AC01D3
:10269000C301B2010E947C2A6093C6047093C704F0
:1026A0008093C8049093C9044090C6045090C70416
:1026B0006090C8047090C9041091D6049091D7041A
:1026C0009E87A091D804AD870091D904212F392F7E
:1026D0004A2F502FC301B2010E94482C18162CF427
:1026E000812F9E85AD85B02F18C08091D204909126
:1026F000D304A091D404B091D50489879A87AB877D
:10270000BC879C01AD01C301B2010E94E92A87FF89
:102710000CC089859A85AB85BC858093C60490934F
:10272000C704A093C804B093C904332079F0209162
:10273000AC043091AD044091AE045091AF04C5019A
:10274000B4010E944D2C4B015C0103C0812C912CE3
:1027500054012091B4043091B5044091B6045091D5
:10276000B704C701B6010E944D2C9B01AC016091DA
:10277000C6047091C7048091C8049091C9040E9456
:102780007C2AA50194010E947D2A6B017C019B019A
:10279000AC01612F7E858D85902F0E94E92A87FDEF
:1027A00018C01091D2049091D3049E87A091D404B4
:1027B000AD870091D504212F392F4A2F502FB60114
:1027C000C7010E94E92A87FD04C01C2DDE86ED8624
:1027D0000F2DE091BE04F091BF04812F9E85AD8541
:1027E000B02F80839183A283B38389819A81AB8147
:1027F000BC818093CA049093CB04A093CC04B09383
:10280000CD048D819E81AF81B8858093C204909361
:10281000C304A093C404B093C50425C020E030E0F5
:1028200040E05FE3C701B6010E947D2A9B01AC0135
:10283000C501B4010E94482C18164CF41092F603FE
:102840001092F7031092F8031092F9030CC080E085
:1028500090E0AFE7B3E48093F6039093F703A0937F
:10286000F803B093F9036091F6037091F703809138
:10287000F8039091F9030E94602BCB012E960FB6BE
:10288000F894DEBF0FBECDBFDF91CF911F910F91A6
:10289000FF90EF90DF90CF90BF90AF909F908F9080
:1028A0007F906F905F904F903F900C94DF1E8F92BF
:1028B0009F92AF92BF92CF92DF92EF92FF92CF930F
:1028C000DF93C090DD03D090DE03E090DF03F09053
:1028D000E00320E030E04CE853E4C701B6010E9479
:1028E000E92AC091F20387FF17C088E0C89FE00182
:1028F0001124C45EDE4F88809980A12CB12CC701C1
:10290000B6010E94602B9B01AC01285C3109410992
:1029100051098A819B8116C088E0C89FE00111247B
:10292000C45EDE4F8A809B80A12CB12CC701B6010A
:102930000E94602B9B01AC01285131404109510993
:102940008C819D81A0E0B0E0BC01CD0168197909BE
:102950008A099B090E94BF2C20E530E040E050E04E
:102960000E94212ACA01B901680D791D8A1D9B1D8B
:102970000E94982B6093ED037093EE038093EF0316
:102980009093F003DF91CF91FF90EF90DF90CF9085
:10299000BF90AF909F908F9008958F929F92AF922B
:1029A000BF92CF92DF92EF92FF928FEF90E00E9462
:1029B000DF1E8BEA94E00197F1F78EE00E94A40EEF
:1029C0007C018AE00E944B1E90919104891729F0A6
:1029D00091E09093F103809391048091FF019FEF28
:1029E000980F9093FF01811106C00E94D50E90931D
:1029F000F4038093F3036091F6037091F7038091E1
:102A0000F8039091F9030E94602BCB010E94DF1E16
:102A10008090DD039090DE03A090DF03B090E00390
:102A2000B70180E090E00E94962BA50194010E94DE
:102A30007C2A2DEC3CEC4CE45DE30E944D2CA5017E
:102A400094010E947D2A6093DD037093DE038093DE
:102A5000DF039093E0030E9457146091FD0370918F
:102A6000FE0380E090E00E94962B6B017C01209198
:102A7000FF033091000440910104509102040E9430
:102A8000E92A81112AC02091ED033091EE03409193
:102A9000EF035091F003C701B6010E947C2A6B013D
:102AA0007C0120E030E0A9010E94482C18165CF45B
:102AB00020E030E040E450E4C701B6010E94482C19
:102AC00018165CF018C020E030E040E450ECC7017C
:102AD000B6010E94E92A87FF0EC06091ED03709154
:102AE000EE038091EF039091F0030E94672B7093A7
:102AF000FE036093FD036091EB037091EC0380E0B3
:102B000090E00E94962B2091ED033091EE034091CE
:102B1000EF035091F0030E947C2A6B017C0120E0BE
:102B200030E0A9010E94482C18161CF4C701B60118
:102B300003C0C701B60190580E94672B653071052C
:102B400078F48091F601811105C08091C501811151
:102B50000E948E0F81E08093F6011092C50102C0A1
:102B60001092F601FF90EF90DF90CF90BF90AF9062
:102B70009F908F900895CF92DF92EF92FF920F93E4
:102B80001F93CF93DF936C017A018B01C0E0D0E0FB
:102B9000CE15DF0581F0D8016D918D01D601ED9143
:102BA000FC910190F081E02DC6010995892B11F06F
:102BB0002196EECF7E01C701DF91CF911F910F913A
:102BC000FF90EF90DF90CF9008950895DC01169666
:102BD000ED91FC91179712968C91481B477081E0FC
:102BE00090E001C0880F4A95EAF7E60FF11D3081A9
:102BF000222311F0832B02C08095832380830895C4
:102C0000FB014181DC0112962C911297421768F06A
:102C100013962C911397241740F0608115962C91F0
:102C2000621718F424810C94E6150895FC01308194
:102C30009281930F92832181921760F494819F5F18
:102C400094838381830F821710F08FEF820F838329
:102C500081E0089580E00895FC0112828081815016
:102C6000838314820895FC01808D8F5F089580E036
:102C700008950B96FC01849108950A96FC018491B5
:102C80000895FC01849108950E944116882321F043
:102C9000823011F083E0089586E00895FC01E60F8C
:102CA000F11D849190E0982F88273196E4918E0F42
:102CB000911D089568E00C944E1666E00C944E1633
:102CC0002EE93FE0009729F0F9013197F1F70197DC
:102CD000F9CF089510929604089580939F0410925E
:102CE000B90084FF02C08CE001C088E48093B80082
:102CF0000C946A16DB011496ED91FC91159720E077
:102D000030E065E00994DB011496ED91FC91159794
:102D100020E030E062E00994DB011496ED91FC9133
:102D2000159720E030E063E00994CF92DF92EF92B4
:102D3000FF920F931F93CF93DF938C017B016A0166
:102D400080E0F601C49181110BC0CF3F09F44CC063
:102D50004C2FB701C8010E947A16811143C049C0A7
:102D6000CF3F11F44FEFF5CFCE3F09F444C0C03F41
:102D7000C8F5C03E38F04C2F4F70B701C8010E9413
:102D8000831630C0C03D38F04C2F4F70B701C801DA
:102D90000E948C1627C0C03CF8F0D7011496ED9124
:102DA000FC91159720E030E040E064E0C80109950F
:102DB000C295C07FCE5FD0E0CE010E946016D701E1
:102DC0001496ED91FC91159720E030E041E064E02D
:102DD000C8010995CE0104C0C7FD04C08C2F90E046
:102DE0000E94601680E001C081E0BFEFCB1ADB0AD1
:102DF000A8CF80E001C081E0DF91CF911F910F91BA
:102E0000FF90EF90DF90CF900895AF92BF92CF9256
:102E1000DF92FF920F931F93CF93DF936C018B018F
:102E2000F42EE90120E1421709F466C02417F8F0F6
:102E30003AE0431721F18FE0481368C041E0C60132
:102E40000E948C1640E0B801C6010E94831641E83A
:102E5000B801C6010E947A164881B801C6010E94D5
:102E60007A1640E0B801C6010E948C16FFC0A1E1AD
:102E70004A1709F444C0B5E14B1791F047C0DB0194
:102E80001496ED91FC91159720E030E042E061E06E
:102E900009954DED5DE0B801C6010E94951636C05A
:102EA000FB01A280B38045ED5DE00E949516D5013F
:102EB00014964C91406BB801C6010E947A1641E00D
:102EC000B801C6010E948316F50126813781D80119
:102ED0001496ED91FC911597D50115964C9166E0ED
:102EE000C6010995811102C080E0C1C040E0B8016F
:102EF000C6010E948C160AC04CEC5DE002C041EC99
:102F00005DE0B801C6010E949516B0C0F8010281CB
:102F10001381F2E3FF1609F470C0FF15B8F025E144
:102F2000F21609F477C037E1F31609F489C084E199
:102F3000F8129CC0D8011696ED91FC911797159642
:102F40008C919F01280F311DC9015CC0A6E4FA16BF
:102F500009F485C0B7E4FB1609F484C0EBE3FE1264
:102F600085C089819B81913029F0933031F4482FBD
:102F7000885004C048E0480F01C0482F51E0D801F4
:102F800013962C91281708F450E031E0F8012281C3
:102F9000421708F430E021E0481708F020E0822FC3
:102FA000852B382319F4252309F460C0CA80913099
:102FB00061F038F0923061F0933071F4FF24FA94AC
:102FC0000CC0F12CDD24D39409C0FF24F39405C078
:102FD000F12CDD24DA9402C0F12CD12CC7FE04C000
:102FE000BE01C8010E94001688818D0D88838981E9
:102FF0008F0D8983CC0C91F739C0BE01C8010E94A6
:10300000001634C011928E179F07E1F7C8010E9485
:103010002C162CC0C8010E941616882309F464CF10
:10302000D8011696ED91FC91179715968C919F01FA
:10303000280F311DC90111928E179F07E1F716C0A5
:103040001882D80112968C911297898315968C91CB
:10305000159781508A8313968C918B8307C0F80152
:10306000858103C0D80111968C91888381E0DF911E
:10307000CF911F910F91FF90DF90CF90BF90AF90B5
:1030800008950E94D52CDB01ED91FC9109945F928B
:103090006F927F928F929F92AF92BF92CF92DF9268
:1030A000EF92FF920F931F93CF93DF93EC01E62EE5
:1030B000F42EC22E0C811D81C8010E944116D82E0B
:1030C0008C819D810E944416982E21E0D21203C06B
:1030D0002FE0A22E02C0AA24AA948C819D810E9476
:1030E0003D16D82E8C819D810E943916B82E8C8178
:1030F0009D810E945A16E0E6EC1538F4009729F0FD
:10310000080F191F91E6D92E10C08C819D810E9455
:103110005D16F0E4FC1538F4009729F0080F191F2C
:1031200081E4D82E02C00F5E1F4FBC1430F4188A01
:103130001B8A1C8A198A1A8A77C0BD14C0F3892D8C
:1031400090E0F80124912F3F19F40F5F1F4F40C00A
:10315000CD1035C08C819D810E94411698012F5F52
:103160003F4FF801882311F0823091F484918B8BCA
:10317000F90124912C8BF8013396E491E88BF80146
:103180003496E491E98BF8013596E491EA8B25C0F9
:103190008491982F9F7092509A8B82958F70898B13
:1031A000F9012491822F8F708C8B22952F702B8B9D
:1031B000F8013296E491E295EF70E88B0EC0F801C9
:1031C0003296E491EA219C012E0F311D020F131F4C
:1031D000BD1409F4ACCFD394B4CF0115110521F17E
:1031E0008C819D810E9444162C899A89920FF91A2C
:1031F0009FEF920F9F0D3CA94EA94F1518F0931702
:1032000028F402C0931770F09F1560F43B899989E8
:10321000E90E9FEF930F9E0D4BA95DA95E1530F44B
:10322000941730F4888934C080E032C0941710F4C9
:103230009E15C0F7080F111D395F732E7694769492
:103240007694622E6F0C5E01FCE1AF0EB11C872CF0
:10325000912C6F1439F35E2C68018C2D801B87151F
:1032600098F4F60184916A817B815C8EFD8E1F8EBD
:103270008E8F95014BE3CE010E944318FFEFCF1ACA
:10328000DF0A28E0520EE9CF080D191DF394E1CFB3
:10329000DF91CF911F910F91FF90EF90DF90CF9032
:1032A000BF90AF909F908F907F906F905F900895A8
:1032B00090919604911102C08093960408951F93F3
:1032C000CF93DF9300D0CDB7DEB720ED37E03A8360
:1032D00029839091BC00982399F429813A81232B6A
:1032E00051F480919F04182F127081FD09C081E074
:1032F0000E94581906C029813A8121503109E7CF2F
:1033000011E0812F0F900F90DF91CF911F910895C1
:1033100084E98093BC0064E080E10C945F19CF9352
:103320008093BB0084E88093BC0063E080E80E9447
:103330005F19C82F882389F080919F04C82FC2701D
:1033400081FD0AC08091B900887F883229F063E04E
:1033500082E00E94581901C0C1E08C2FCF910895DE
:10336000CF93DF93FC0123A5222379F0EC010E9487
:10337000141E811102C080E009C08EA1811180E479
:103380000E948F198823B9F31BA681E0DF91CF91AA
:1033900008950F931F93CF93C42F89016330C1F019
:1033A00050F4613081F0623009F048C0FC0146A35E
:1033B00021E023A743C0663011F1673079F1653011
:1033C00009F03CC00EC0FC0186A50E946D1636C0F7
:1033D000FC0116A221E023A7411130C00E948819E8
:1033E0002DC00E94B019811104C00E94881980E08C
:1033F00026C08C2F0E948F19811120C0F6CF0E9409
:10340000B019882391F3CC23C9F0F80181918F0181
:103410000E948F19882349F3C150F5CF0E94B0193B
:10342000882319F3CC2351F0F80184910E948F195D
:10343000882329F00F5F1F4FC150F4CF81E0CF9157
:103440001F910F9108951F93CF93DF93EC01162FD7
:103450000E940B2A181739F0612FCE01DF91CF910E
:103460001F910C94132ADF91CF911F9108950C9412
:103470000B2A833081F028F4813099F08230A1F05A
:1034800008958730A9F08830B9F08430D1F4809164
:1034900080008F7D03C0809180008F7780938000B3
:1034A000089584B58F7702C084B58F7D84BD08955B
:1034B0008091B0008F7703C08091B0008F7D8093A2
:1034C000B00008953FB7F89480919B0490919C04BC
:1034D000A0919D04B0919E0426B5A89B05C02F3FE6
:1034E00019F00196A11DB11D3FBFBA2FA92F982F2A
:1034F0008827820F911DA11DB11DBC01CD0142E0A5
:10350000660F771F881F991F4A95D1F708950F936B
:103510001F93CF93DF931F92CDB7DEB70091E204E4
:103520001091E304E0911105F091120582E00995F4
:1035300020E030E04AE0B80180EE94E00E944318B9
:10354000182FE0911105F091120583E00995E091A3
:103550001105F091120580E009951123C1F16091E8
:10356000E2047091E3049E012F5F3F4F46E480EE3A
:1035700094E00E94431889818093E0046091E20402
:103580007091E3049E012F5F3F4F47E480EE94E08B
:103590000E94431889818093E1046091E204709154
:1035A000E30420E030E048E480EE94E00E94431819
:1035B0008093EB046091E2047091E30423E135E031
:1035C00047E180EE94E00E94431881E001C080E072
:1035D0000F90DF91CF911F910F910895CF93DF93BB
:1035E00080911905811105C081E0809319050E9421
:1035F000871AC091E204D091E304E0911105F091A3
:10360000120582E00995E0911105F091120581E023
:10361000099520E030E044E1BE0180EE94E00E9494
:10362000431823E135E047E1BE0180EE94E00E94BB
:103630004318E0911105F091120580E0DF91CF91E0
:103640000994EF92FF920F931F93CF93DF93F82E7D
:10365000062FE42E152FE091F504F091F60480EE8C
:1036600094E00995080FCE2DD12F10E02991222347
:1036700049F0402F6F2D80EE94E00E944718F80E1D
:10368000180FF4CF812FDF91CF911F910F91FF90F1
:10369000EF900895FF920F931F93CF93DF938C01C8
:1036A000E091F504F091F60480EE94E00995F82E8F
:1036B000C0E0D0E0F8012491222359F04F2D6D2F66
:1036C00080EE94E00E944718D80FC80F0F5F1F4F7D
:1036D000F1CF8C2FDF91CF911F910F91FF90089523
:1036E0004F925F926F927F928F929F92AF92BF9212
:1036F000CF92DF92EF92FF920F931F93CF93DF93BE
:1037000000D000D0CDB7DEB74B015C0129013A01F2
:103710006701780120E030E0A9010E94E92A87FDD5
:10372000A6C020E030E0A901C301B2010E94E92A4D
:1037300087FD9DC020E030E0A901C701B6010E94CD
:10374000E92A87FD94C081E02091BA043091BB043E
:103750002130310509F080E08093DB048092A004E1
:103760009092A104A092A204B092A3044092A40457
:103770005092A5046092A6047092A704C092A80477
:10378000D092A904E092AA04F092AB046091CE0416
:103790007091CF048091D0049091D1040E94962B17
:1037A00020E030E04AE754E40E94EE2A69837A83FD
:1037B0008B839C838092AC049092AD04A092AE0463
:1037C000B092AF049B01AC01C301B2010E944D2C29
:1037D0002B013C016093B0047093B1048093B20458
:1037E0009093B30429813A814B815C81C701B60172
:1037F0000E94EE2A6B017C016093B4047093B504BF
:103800008093B6049093B7048091B8049091B90462
:10381000019769F5A501940160E070E0CB010E9479
:103820007C2A6093AC047093AD048093AE049093B3
:10383000AF04A301920160E070E0CB010E947C2AFA
:103840006093B0047093B1048093B2049093B30476
:10385000A701960160E070E0CB010E947C2A609392
:10386000B4047093B5048093B6049093B7040F909A
:103870000F900F900F90DF91CF911F910F91FF90BC
:10388000EF90DF90CF90BF90AF909F908F907F9000
:103890006F905F904F9008950F931F93CF93E09197
:1038A000EE04F091EF04309719F080EE94E0099562
:1038B0000091E2041091E304E0911105F0911205EA
:1038C00082E00995E0911105F091120581E00995DA
:1038D00020E030E045E1B80180EE94E00E9443181A
:1038E000C82F882341F023E135E047E1B80180EE9D
:1038F00094E00E944318E0911105F091120580E0D8
:1039000009958C2FCF911F910F910895009769F021
:10391000FC0101900020E9F73197AF01481B590BDA
:10392000BC018CED94E00C94BB1580E090E0089510
:103930008F929F92AF92BF920F931F93CF93DF937B
:10394000CDB7DEB7A1970FB6F894DEBF0FBECDBFDF
:1039500019A2423008F44AE08E010F5D1F4F842EF9
:10396000912CA12CB12CA50194010E944B2AE62F89
:10397000B901CA0101501109EA3014F4E05D01C037
:10398000E95CD801EC93232B242B252B61F7C8018C
:103990000E94861CA1960FB6F894DEBF0FBECDBF65
:1039A000DF91CF911F910F91BF90AF909F908F901B
:1039B00008950F931F93CF93DF938C01C0E0D0E065
:1039C000F801EC0FFD1F6491662341F08CED94E04B
:1039D0000E94250D892B11F02196F2CFCE01DF91A7
:1039E000CF911F910F9108952091E4043091E50447
:1039F0002817390709F444C09093E5048093E40440
:103A0000009709F437C02091F704FC01211107C089
:103A10003596E491E093F804FC013C960FC0213008
:103A200039F43F96E491E093F804FC01709606C0E7
:103A30003D96E491E093F804FC013E9684918093D6
:103A4000F9048091F804082E000C990B2091F904D8
:103A5000821B910927FD93952091FA04203441F0AF
:103A6000829FC001112426E0969587952A95E1F75B
:103A70008093FB0487E396E19093F6048093F5042A
:103A80000895682F8CED94E00C94250D8F929F92F1
:103A9000AF92BF92CF92DF92EF92FF920F931F935C
:103AA000CF93DF936B017C01142F9B01AC010E942B
:103AB000BA2C882319F08EEC93E027C046015701F9
:103AC000E894B7F82FEF3FEF4FE75FE7C501B40188
:103AD0000E94BA2C81110DC02FEF3FEF4FE75FE737
:103AE000C501B4010E94E92A18161CF482ED93E086
:103AF0000CC02FEF3FEF4FE75FE4C701B6010E9414
:103B0000482C181684F486ED93E0DF91CF911F9135
:103B10000F91FF90EF90DF90CF90BF90AF909F906C
:103B20008F900C94861C2FEF3FEF4FE75FECC7019F
:103B3000B6010E94E92A87FDE6CF20E030E0A90126
:103B4000C701B6010E94E92A87FF09C08DE20E94E1
:103B5000411DEC01F7FAF094F7F8F09402C0C0E0D0
:103B6000D0E000E060E070E080E09FE3101741F0FB
:103B700020E030E040E251E40E94EE2A0F5FF6CFF1
:103B8000A70196010E947D2A6B017C010E94672B90
:103B90004B015C014AE00E94981CC80FD91F1123F9
:103BA000A9F1C501B4010E94962B9B01AC01C7018C
:103BB000B6010E947C2A6B017C018EE20E94411DAD
:103BC000C80FD91F20E030E040E251E4C701B60140
:103BD0000E944D2C4B015C010E94672B6B01E12C74
:103BE000F12C4AE0C701B6010E94981CC80FD91FEA
:103BF000C701B6010E94962B9B01AC01C501B4011F
:103C00000E947C2A6B017C011150E1F6CE01DF910C
:103C1000CF911F910F91FF90EF90DF90CF90BF90C9
:103C2000AF909F908F900895CF9384EA8093BC00CB
:103C300061E080E80E945F19882359F08091B90003
:103C4000887F883041F0803131F061E082E00E946D
:103C50005819C0E01DC088E78093BB0084E88093BA
:103C6000BC0062E080E80E945F19882391F3809194
:103C70009F04C82FC27081FD0AC08091B900887F5F
:103C8000883129F062E082E00E94581901C0C1E049
:103C90008C2FCF910895CF93DF93282F30E0F90137
:103CA000E75BF14F8491F901EB5CF14FD491F9019D
:103CB000EF5DF14FC491CC2391F081110E94391A2C
:103CC000EC2FF0E0EE0FFF1FE95EF14FA591B491EC
:103CD000EC91ED2381E090E021F480E002C080E0EF
:103CE00090E0DF91CF9108951F93CF93DF93282F1A
:103CF00030E0F901E75BF14F8491F901EB5CF14FA2
:103D0000D491F901EF5DF14FC491CC23C1F0162F8E
:103D100081110E94391AEC2FF0E0EE0FFF1FE35FD4
:103D2000F14FA591B4919FB7F894111104C08C91F3
:103D3000D095D82302C0EC91DE2BDC939FBFDF919E
:103D4000CF911F910895CF93DF9390E0FC01EB5C3E
:103D5000F14F2491FC01EF5DF14F8491882361F1D3
:103D600090E0880F991FFC01ED5FF14FC591D49150
:103D7000FC01E35FF14FA591B491611109C09FB7B8
:103D8000F8948881209582238883EC912E230BC0A0
:103D9000623061F49FB7F8948881322F3095832385
:103DA0008883EC912E2B2C939FBF06C08FB7F8947D
:103DB000E8812E2B28838FBFDF91CF910895CF9379
:103DC000DF93EC0161E089E00E94A31E209711F4CB
:103DD00060E004C0CF3FD10531F461E089E0DF91BC
:103DE000CF910C94741EE2E5FEE0E491E330F9F02B
:103DF00048F4E130B9F0E230A1F584B5806284BDC9
:103E0000C8BD34C0E730E9F0E83019F1E43049F5D5
:103E100080918000806280938000D0938B00C0935B
:103E20008A0024C084B5806884BDC7BD1FC080914E
:103E30008000806880938000D0938900C0938800C0
:103E400015C08091B00080688093B000C093B3002B
:103E50000DC08091B00080628093B000C093B40028
:103E600005C0C038D1050CF0B8CFB2CFDF91CF91EB
:103E700008958F929F92AF92BF92CF92DF92EF926E
:103E8000FF926B017C010E94621A4B015C01C1141C
:103E9000D104E104F104F1F00E94621ADC01CB01CB
:103EA00088199909AA09BB09883E9340A105B10563
:103EB00070F321E0C21AD108E108F10888EE880EFB
:103EC00083E0981EA11CB11CC114D104E104F104CB
:103ED00019F7DDCFFF90EF90DF90CF90BF90AF90BC
:103EE0009F908F900895CF92DF92EF92FF920F9361
:103EF0001F93CF93DF93D82EC92E86E00E944B1ECE
:103F0000C1E0892B09F0C0E00E94EE1A83E3E82E9D
:103F100086E1F82E8DE59EE00E94F41CF092F604F6
:103F2000E092F5040D2D1C2DD0E0F8014191519146
:103F30008F016D2F80E00E94211BD05FD038A9F740
:103F40000E944C1C8111E6CFCC2329F086E00E9410
:103F50004B1E892B89F486E00E944B1E892BA1F70A
:103F6000C111F2CFDF91CF911F910F91FF90EF9090
:103F7000DF90CF900C948E0F6AE070E080E090E0CC
:103F80000E94391FC0E0E7CF2FB7F89460919704E3
:103F9000709198048091990490919A042FBF08958C
:103FA0001F920F920FB60F9211242F933F938F936E
:103FB0009F93AF93BF938091970490919804A091A1
:103FC0009904B0919A0430911A0523E0230F2D37FC
:103FD00020F40196A11DB11D05C026E8230F02960D
:103FE000A11DB11D20931A05809397049093980406
:103FF000A0939904B0939A0480919B0490919C049F
:10400000A0919D04B0919E040196A11DB11D8093C5
:104010009B0490939C04A0939D04B0939E04BF9135
:10402000AF919F918F913F912F910F900FBE0F9065
:104030001F901895CF93DF93CDB7DEB72B970FB6B0
:10404000F894DEBF0FBECDBF789484B5826084BD86
:1040500084B5816084BD85B5826085BD85B581608C
:1040600085BD80916E00816080936E00109281000A
:1040700080918100826080938100809181008160C5
:104080008093810080918000816080938000809186
:10409000B10084608093B1008091B0008160809312
:1040A000B00080917A00846080937A0080917A00D9
:1040B000826080937A0080917A00816080937A0098
:1040C00080917A00806880937A001092C10060E04D
:1040D0008EE00E94A31E60E08FE00E94A31E61E0BC
:1040E00085E00E94A31E61E089E00E94A31E62E0B9
:1040F00087E00E94A31E62E088E00E94A31E62E0A7
:1041000086E00E94A31E62E08AE00E94A31E8FEF59
:1041100090E00E94DF1E60E085E00E94741E8091A6
:104120007A00876080937A0080917A00886080931B
:104130007A00789481E080936B00809368008BBB59
:104140008091EB04883211F48FEF03C0823021F4A8
:1041500083E08093000509C08130D9F3803329F4CE
:104160008FEF809300058093010580E090E00E942E
:10417000371A182F81E090E00E94371A212F30E083
:10418000322F2227282B2C36374E09F0ADC082E083
:1041900090E00E94371A182F83E090E00E94371AAF
:1041A000212F30E0322F2227282B30937B012093C0
:1041B0007A0184E090E00E94371A182F85E090E0A1
:1041C0000E94371A212F30E0322F2227282B3093DC
:1041D00075012093740186E090E00E94371A809365
:1041E0006F0187E090E00E94371A8093C40188E055
:1041F00090E00E94371A8093C30189E090E00E940A
:10420000371A8093C2018AE090E00E94371A8093A7
:10421000F5038BE090E00E94371A91E0811101C014
:1042200090E09093AF018CE090E00E94371A91E00B
:10423000811101C090E09093A2018DE090E00E9476
:10424000371A8093F2038EE090E00E94371A282EEE
:1042500080935C01ECE18E2EE1E09E2EF6ECAF2E19
:10426000F1E0BF2EAFE0EA2EF12C312C231409F43B
:1042700047C000E010E0C701800F911F0E94371A6D
:10428000F501E00FF11F80830F5F1F4F063011050E
:1042900091F7670196E0C90ED11CEEE0EE0EF11C1D
:1042A0003401C6010E94371A082F10E0102F002792
:1042B000F301118300832601F2E04F0E511CC60169
:1042C00001960E94371A082BF301019311933F01C5
:1042D0006201E414F50429F73394F8E08F0E911C81
:1042E00026E0A20EB11CC2CF67EE80E090E00E94F3
:1042F000231A6CE681E090E00E94231A0E94EB0EE4
:104300000E942A0E9093E2038093E1030E94D50E4F
:104310009093F4038093F30300917A0110917B0151
:104320001093EC030093EB038EE00E94A40EBC01FB
:1043300080E090E00E94962B6093DD037093DE0393
:104340008093DF039093E0030E94660E0E9457144F
:1043500020E030E040EA51E46091ED037091EE031B
:104360008091EF039091F0030E947D2A6B017C0104
:10437000B80180E090E00E94962B9B01AC01C70140
:10438000B6010E94E92A87FF04C080E090E00E9405
:10439000DF1E1092D2041092D3041092D404109213
:1043A000D504812C912C6FE7A62E63E4B62E809263
:1043B000D6049092D704A092D804B092D9048091E8
:1043C000DA04E090BE04F090BF04F701882309F4FA
:1043D00051C04080518062807380A5019401C30167
:1043E000B2010E94482C181634F4F70180829182A1
:1043F000A282B3820EC020E030E0A901C301B20165
:104400000E94E92A87FF05C0F701108211821282FB
:1044100013828090C6049090C704A090C804B09006
:10442000C904C090D604D090D704E090D804F0908E
:10443000D904A7019601C501B4010E94482C1816A1
:1044400084F0C090D204D090D304E090D404F090D3
:10445000D504A7019601C501B4010E94E92A87FF8E
:1044600038C0C092C604D092C704E092C804F0924B
:10447000C9042FC0C080D180E280F380C092C604FE
:10448000D092C704E092C804F092C904E091BC0441
:10449000F091BD0480819181A281B3818093CA048F
:1044A0009093CB04A093CC04B093CD0420E030E0F3
:1044B0004FE753E4C701B6010E94482C18160CF0D0
:1044C0003CC28092C6049092C704A092C804B092E5
:1044D000C90481E08093DA0483B181708093DC03A6
:1044E00089B1881F8827881F8093DB032091DC0314
:1044F0009091DB0381E0291380E08093DA038CE262
:1045000091E09093E8038093E70380E293E0909337
:10451000E6038093E5038AE090E09093E4038093C0
:10452000E303000F111F1093EA030093E9030E94B5
:10453000C41F60930D0470930E0480930F04909336
:1045400010040E948E0F0E948E0F8091E9039091BB
:10455000EA039C01359527953A8729873093EC0328
:104560002093EB0386E00E944B1E8B8781115FC076
:1045700080910B048111F3C15AC00E94C41FDC0159
:10458000CB018C199D09AE09BF09843F9140A1055B
:10459000B10528F486E00E944B1E892B71F30E941E
:1045A000C41FDC01CB018C199D09AE09BF09843FF2
:1045B0009140A105B10508F4C5C58FEF90E00E94B8
:1045C000DF1E0E948E0F00E02AE0222E312C402FA9
:1045D00062E180EB91E00E943C11082F90E087306F
:1045E000910508F4CBC10E94EB0E81E08093F103AA
:1045F000E985FA85F093EC03E093EB038CE291E01C
:104600009093E8038093E70380E293E09093E603BE
:104610008093E5038AE090E09093E4038093E303C2
:10462000CF01880F991F9093EA038093E903FB85DC
:10463000F0930B048091FA03882309F11091C201D1
:104640001123E9F00E94C41FC0900304D090040419
:10465000E0900504F09006046C197D098E099F090D
:1046600028EE33E040E050E00E944B2A211738F05A
:104670001092FA030E948E0F81E08093C501809111
:10468000F1038823E9F18091FB03882349F120E0BD
:1046900030E040EA51E46091ED037091EE038091C7
:1046A000EF039091F0030E947D2A6B017C016091E1
:1046B000EB037091EC0380E090E00E94962B9B014D
:1046C000AC01C701B6010E94E92A87FF04C080E05F
:1046D00090E00E94DF1E0E948E0F81E08093C50152
:1046E0001092F1031092FB031092FC030E94C41F6E
:1046F00060930D0470930E0480930F049093100444
:104700000E94C41F00910D0410910E0420910F040B
:1047100030911004601B710B820B930B20E63AEE74
:1047200040E050E00E944B2A122F20930C0480910D
:10473000FB0381110BC08091C401882339F0281735
:1047400028F081E08093FB030E948E0F8091FC0390
:1047500081110BC08091C301882339F0181728F00C
:1047600081E08093FC030E948E0F0E94CD140E9472
:104770002E120E94EE1A38E2F32E13E54FE0E42EDB
:1047800054E1D52E04E366E0C62E75E2772EE6E10D
:104790006E2E8DE59EE00E94F41C23E336E13093FB
:1047A000F6042093F5044FE152E060E080E00E94BF
:1047B000211BF0921705109218056091FF0370916C
:1047C0000004809101049091020440E00E94461D83
:1047D00010931705109218058091FD039091FE0328
:1047E000853F914018F083E191E031C08091FC0356
:1047F000882319F08DE091E02AC08091FB03882383
:1048000019F087E091E023C08091FA03882319F022
:1048100081E091E01CC08091F601882319F08BEFB4
:1048200090E015C020E030E044E353E46091F603EB
:104830007091F7038091F8039091F9030E94E92A9F
:1048400087FF03C085EF90E002C08FEE90E00E94EA
:10485000D91C8091F503882309F443C06091F303C8
:104860007091F40380E090E00E94962B20E030E00D
:104870004AE754E40E94EE2A4B015C0110921705AE
:10488000009318058091F203C89EC00111248A5339
:104890009E4F0E94861C109317050093180541E057
:1048A000C501B4010E94461D8DEE90E00E94D91C06
:1048B00087EF99E00E94F41C83E396E19093F6045D
:1048C0008093F50470921705609218056091FD03BE
:1048D0007091FE03653F91E07907F0F089EE90E07A
:1048E00018C089E191E00E94F41CE3E3F6E1F09343
:1048F000F604E093F504E0921705D0921805609154
:10490000FD037091FE03653FF1E07F0728F085EE1F
:1049100090E00E94D91C05C080E090E04AE00E942F
:10492000981C0E944C1C811134CF80E090E0892BB0
:1049300009F40BCE0E94000008CE20E030E0A9016F
:10494000C701B6010E94E92A87FFC3CD1092C604B1
:104950001092C7041092C8041092C904BACD0E94E4
:104960008E0F0E94C41F6B017C016093070470933B
:1049700008048093090490930A040CCEFC01EC5CBB
:10498000FF4F0C94CF2C10E0F8E76F2E712CA5E0B0
:104990008A2E912CBCE3CB2ED12CAA24A394B12C2B
:1049A00098E6E92EFF24F394CCC210E0E4E1EE2E69
:1049B000F12C5CC200E0402F6EE08DE591E00E949A
:1049C0003C11082F823009F498C190F48823B9F083
:1049D000813009F008CE9E012F5F3F4F7901812C75
:1049E000912C5401839480E2D82E90E3C92E27C1E4
:1049F000833009F485C1843009F4EAC1F4CDD09044
:104A0000F20311E0D11001C010E080915C0190E050
:104A100001971092E8031092E703880F991F909373
:104A2000E6038093E50381E090E09093E4038093B4
:104A3000E3038D2D90E0880F991F9093EA038093F4
:104A4000E90386E00E944B1E77247394892B09F0BA
:104A5000712C56E0252EE090E903F090EA03F594DE
:104A6000E7943E2C5701BB24C501810F911D17FD12
:104A70009A958D19910997FD07C08330910514F01F
:104A800082E090E0182F01C010E00E94EE1A812E03
:104A9000012E000C9908C4010196582E529430EF53
:104AA00053228DE59EE00E94F41C83E396E19093EF
:104AB000F6048093F50486E790E00E944A1B42E1E9
:104AC00052E0652D80E00E94211B432C411A6501B4
:104AD000C818D90820E1622E80915C01481658F46C
:104AE0002C9CA0012D9C500D11244A535E4F662D25
:104AF0008CE00E94211B43949FEFC91AD90AE0E180
:104B00006E0EF0E46F12E8CF0E944C1C8111C9CFE9
:104B1000772031F086E00E944B1E892B09F028C3D4
:104B200086E00E944B1E892B11F0DE2C94CF711071
:104B3000FCCF0E948E0F3092F2033DCF0E94CD1425
:104B40000E942E120E94EE1A8DE59EE00E94F41C37
:104B500023E336E13093F6042093F50482EB90E0F2
:104B60000E944A1B1092170530E1309318058BEA1A
:104B700090E00E94D91C4AE0C501B4010E94981C33
:104B800084E192E00E94861C8091F6011092170544
:104B9000D0921805882309F48DC08EE990E00E9418
:104BA000D91C10921705C092180587E990E00E9461
:104BB000D91C8091E9039091EA03959587952C0182
:104BC000092E000C6608770897FF70C08DE20E94DE
:104BD000411D66277727CB01641975098609970956
:104BE0004AE00E94981C0E944C1C8111ADCF11110B
:104BF0007DC086E00E944B1E892B09F09FCF1111CA
:104C00009DCF8091E9039091EA0395958795F701EF
:104C1000819391937F010E948E0F6AE070E080E0A3
:104C200090E00E94391FFFEF8F1A9F0AAF0ABF0A58
:104C300024E082169104A104B10409F4A9C2809170
:104C4000F203F401319734E0839FE00DF11D11244C
:104C5000EE0FFF1FE45EFE4F808191819093EC0385
:104C60008093EB03E8ECF0E0F093E803E093E703D4
:104C700028EE33E03093E6032093E50321E030E0B3
:104C80003093E4032093E303880F991F9093EA0382
:104C90008093E90381E08093C50186E00E944B1E6A
:104CA00011E0892B09F44ACF10E048CF4AE0C30154
:104CB000B20197CF80E990E00E94D91C6091DD039A
:104CC0007091DE038091DF039091E0030E94672BD7
:104CD00080E090E04AE00E94981C10921705C09274
:104CE000180581E890E00E94D91C7DCF86E00E94E3
:104CF0004B1E892B09F044C27CCF0E94AC0F5BCEC7
:104D000080915C01813019F486E091E088C040E038
:104D100066E08EE091E00E943C11882309F44BCEBE
:104D20001091F203F0905C014F2D50E04150510979
:104D3000812F90E084179507C1F511501093F2036D
:104D400043C0FD01E60FF71FEA53FE4FE680E08205
:104D50006F5F7F4F66307105A1F763E0220F331F4D
:104D60006A95E1F7F901E45EFE4F2081318173E03D
:104D7000880F991F7A95E1F7DC01A45EBE4F11966A
:104D80003C932E938281938113969C938E931297DA
:104D90008481958115969C938E9314978681978133
:104DA00017969C938E9316971F5F812F90E0841720
:104DB000950754F4E6E01E9FD001112460E070E0F6
:104DC0009C012F5F3F4FBDCFFA94F0925C01F3CD71
:104DD00080915C01883008F591E0980F90935C0118
:104DE0008093F2030E94AC0FE091F20328E0E29F6F
:104DF000F0011124E45EFE4F88ED90E09183808302
:104E000084E391E09383828386E891E095838483B1
:104E10008EE190E097838683CECD84E191E00E947D
:104E2000731FC9CD813060F580917A0190917B012B
:104E3000ECE2F1E0F093E803E093E70320E233E0F3
:104E40003093E6032093E5033092E4032092E303DA
:104E5000880F991F9093EA038093E90386E791E016
:104E60000E94B91090937B0180937A01412F6AE0F0
:104E70008CE791E00E943C11182F813099F621C0F7
:104E8000823009F0A4CB80916F0190E0F092E803AA
:104E9000E092E703E8ECF0E0F093E603E093E5034B
:104EA0003092E4032092E303880F991F9093EA0362
:104EB0008093E9038BE691E00E94B91080936F0123
:104EC000D5CF8091740190917501E8E2F0E0F09304
:104ED000E803E093E70320E931E03093E603209311
:104EE000E5033092E4032092E303880F991F909327
:104EF000EA038093E90380E791E00E94B910909360
:104F0000750180937401B2CF813028F58091C4017E
:104F100090E01092E8031092E703D092E603C0926B
:104F2000E503B092E403A092E303880F991F9093E6
:104F3000EA038093E9038EE891E00E94B910809320
:104F4000C401412F6AE082E991E00E943C11182FD0
:104F50008130D1F61FC0823009F039CB8091C20177
:104F600090E01092E8031092E703F092E603E092DB
:104F7000E5033092E4032092E303880F991F909396
:104F8000EA038093E90386E891E00E94B9108093D8
:104F9000C201D7CF8091C30190E01092E803109234
:104FA000E7037092E6036092E5039092E403809237
:104FB000E303880F991F9093EA038093E9038AE83B
:104FC00091E00E94B9108093C301BBCF4091AF0123
:104FD00066E089EA91E00E943C1191E0811101C0F4
:104FE00090E09093AF01F3CA4091F50366E083EA45
:104FF00091E00E943C118093F503E9CA4091A2011F
:1050000066E08CE991E00E943C1191E0811101C0C1
:1050100090E09093A201DBCA86E00E944B1E11E053
:10502000892B09F010E00E942A0E9093E2038093EE
:10503000E103BC0180E090E00E94962B20E030E08C
:105040004AE754E40E94EE2A6B017C010E94D50ECF
:105050009093F4038093F303BC0180E090E00E94FE
:10506000962B20E030E04AE754E40E94EE2A4B0100
:105070005C010E94660E2B013C010E94EE1A8DE538
:105080009EE00E94F41C23E336E13093F604209363
:10509000F50410921705109218058AED90E00E9411
:1050A000D91C8AE192E00E94861C1092170530E11B
:1050B0003093180584ED90E00E94D91C41E0C301B3
:1050C000B2010E94461D81ED90E00E94D91C109211
:1050D000170580E2809318058BEC90E00E94D91CA4
:1050E00041E0C501B4010E94461D88EC90E00E9499
:1050F000D91C1092170590E39093180581EC90E06D
:105100000E94D91C41E0C701B6010E94461D8EEBEA
:1051100090E00E94D91C0E944C1C8111B0CF112339
:1051200031F086E00E944B1E892B09F06DC086E0AD
:105130000E944B1E892B09F076CF111174CF0E946B
:105140008E0F45CA9091FA0381E089278093FA0374
:10515000882351F00E94C41F6093030470930404D9
:10516000809305049093060481E08093F1035FCA65
:105170006AE070E080E090E00E94391F712CD0CC92
:105180006AE070E080E090E00E94391F10E031CDCD
:105190008FEF90E00E94DF1E8BEA94E00197F1F719
:1051A0000E94660E0E94672B2B013C0178876F835B
:1051B000A980BA80EB80FC80C5014E968E159F05B4
:1051C00008F0F9CBCD80DE80C7014E968C159D0589
:1051D00008F0F1CB40E066E080E091E00E943C11F5
:1051E000882309F4E8CBE091F20388E0E89FF0011E
:1051F0001124E45EFE4FB182A082F382E282D58266
:10520000C48257824682D7CB6AE070E080E090E0AB
:105210000E94391F10E08BCF0F931F93CF9386EF1F
:1052200093E09093BF048093BE0482E994E090934E
:10523000BD048093BC048FEF93E09093C1048093EE
:10524000C0041092DA041092D2041092D304109287
:10525000D4041092D50480E090E0AFE7B3E48093EB
:10526000D6049093D704A093D804B093D90484E6CD
:1052700090E0A0E0B0E08093CE049093CF04A093A0
:10528000D004B093D10481E090E09093B90480936E
:10529000B8049093BB048093BA04C1E0C093DB04CC
:1052A00080E090E0A0E3B1E48093A0049093A10497
:1052B000A093A204B093A30480E090E0A0E0BFE339
:1052C0008093A4049093A504A093A604B093A7048C
:1052D00080E090E0A0E8BFE38093A8049093A90445
:1052E000A093AA04B093AB0480E090E0A0E3B1ECFB
:1052F0008093AC049093AD04A093AE04B093AF043C
:105300008DEC9CECACE4BDEB8093B0049093B104C5
:10531000A093B204B093B30480E090E0A0E2B1ECBB
:105320008093B4049093B504A093B604B093B704EB
:105330000E94C41F0091CE041091CF042091D0048C
:105340003091D104DC01CB01801B910BA20BB30B7C
:105350008093C2049093C304A093C404B093C50483
:105360001092DF041092DE048AE092E09093DD0454
:105370008093DC04109217051092180510921905FD
:105380001092E5041092E4041092E7041092E604EF
:105390001092E904C093E80482E28093EA04109238
:1053A000EF041092EE04E3E0F5E081E195E02FEFE9
:1053B00021938E179F07E1F781E08093000527E393
:1053C00036E13093F6042093F5048093F7041092AD
:1053D000F8041092F90480E48093FA041092FB041C
:1053E00085EE95E1909312058093110580E092E09F
:1053F0009093E3048093E20482E180930E050E947F
:10540000871A8AE092E09093DD048093DC04CF91C8
:105410001F910F910895F999FECF92BD81BDF89A21
:10542000992780B50895262FF999FECF1FBA92BD0E
:1054300081BD20BD0FB6F894FA9AF99A0FBE019675
:105440000895052E97FB1EF400940E94382A57FDFC
:1054500007D00E944B2A07FC03D04EF40C94382A44
:1054600050954095309521953F4F4F4F5F4F089590
:1054700090958095709561957F4F8F4F9F4F0895C0
:105480000E946D2AA59F900DB49F900DA49F800D42
:10549000911D11240895A1E21A2EAA1BBB1BFD0128
:1054A0000DC0AA1FBB1FEE1FFF1FA217B307E40703
:1054B000F50720F0A21BB30BE40BF50B661F771F5B
:1054C000881F991F1A9469F760957095809590953B
:1054D0009B01AC01BD01CF010895A29FB001B39F14
:1054E000C001A39F700D811D1124911DB29F700DED
:1054F000811D1124911D08955058BB27AA270E9491
:10550000942A0C940E2C0E94002C38F00E94072C38
:1055100020F039F49F3F19F426F40C94FD2B0EF47F
:10552000E095E7FB0C94F72BE92F0E941F2C58F312
:10553000BA17620773078407950720F079F4A6F578
:105540000C94412C0EF4E0950B2EBA2FA02D0B01DC
:10555000B90190010C01CA01A0011124FF27591BB8
:1055600099F0593F50F4503E68F11A16F040A22FBE
:10557000232F342F4427585FF3CF4695379527952F
:10558000A795F0405395C9F77EF41F16BA0B620B2E
:10559000730B840BBAF09150A1F0FF0FBB1F661F75
:1055A000771F881FC2F70EC0BA0F621F731F841FB8
:1055B00048F4879577956795B795F7959E3F08F0DE
:1055C000B0CF9395880F08F09927EE0F97958795A0
:1055D00008950E94D32B08F481E008950E94022BC5
:1055E0000C940E2C0E94072C58F00E94002C40F0C6
:1055F00029F45F3F29F00C94F72B51110C94422CA5
:105600000C94FD2B0E941F2C68F39923B1F35523B2
:1056100091F3951B550BBB27AA27621773078407C5
:1056200038F09F5F5F4F220F331F441FAA1FA9F35B
:1056300035D00E2E3AF0E0E832D091505040E69549
:10564000001CCAF72BD0FE2F29D0660F771F881FAA
:10565000BB1F261737074807AB07B0E809F0BB0B9D
:10566000802DBF01FF2793585F4F3AF09E3F5105B1
:1056700078F00C94F72B0C94422C5F3FE4F3983EA7
:10568000D4F3869577956795B795F7959F5FC9F79A
:10569000880F911D9695879597F90895E1E0660F1B
:1056A000771F881FBB1F621773078407BA0720F094
:1056B000621B730B840BBA0BEE1F88F7E0950895FD
:1056C0000E94672B6894B1110C94422C08950E949B
:1056D000272C88F09F5798F0B92F9927B751B0F031
:1056E000E1F0660F771F881F991F1AF0BA95C9F766
:1056F00014C0B13091F00E94412CB1E008950C9497
:10570000412C672F782F8827B85F39F0B93FCCF349
:10571000869577956795B395D9F73EF490958095E2
:10572000709561957F4F8F4F9F4F0895E89409C002
:1057300097FB3EF490958095709561957F4F8F4FC4
:105740009F4F9923A9F0F92F96E9BB279395F695DA
:10575000879577956795B795F111F8CFFAF4BB0F58
:1057600011F460FF1BC06F5F7F4F8F4F9F4F16C0BC
:10577000882311F096E911C0772321F09EE8872F46
:10578000762F05C0662371F096E8862F70E060E002
:105790002AF09A95660F771F881FDAF7880F96957B
:1057A000879597F90895990F0008550FAA0BE0E81F
:1057B000FEEF16161706E807F907C0F012161306D3
:1057C000E407F50798F0621B730B840B950B39F413
:1057D0000A2661F0232B242B252B21F408950A2679
:1057E00009F4A140A6958FEF811D811D089597F9B9
:1057F0009F6780E870E060E008959FEF80EC089577
:1058000000240A941616170618060906089500249F
:105810000A9412161306140605060895092E039419
:10582000000C11F4882352F0BB0F40F4BF2B11F48D
:1058300060FF04C06F5F7F4F8F4F9F4F089557FDEC
:105840009058440F551F59F05F3F71F04795880FEE
:1058500097FB991F61F09F3F79F087950895121685
:1058600013061406551FF2CF4695F1DF08C0161631
:1058700017061806991FF1CF8695710561050894E2
:105880000895E894BB2766277727CB0197F90895F9
:105890000E94D32B08F48FEF08950E94602C0C9483
:1058A0000E2C0E94002C38F00E94072C20F095232B
:1058B00011F00C94F72B0C94FD2B11240C94422C1A
:1058C0000E941F2C70F3959FC1F3950F50E0551F58
:1058D000629FF001729FBB27F00DB11D639FAA2745
:1058E000F00DB11DAA1F649F6627B00DA11D661F94
:1058F000829F2227B00DA11D621F739FB00DA11DB5
:10590000621F839FA00D611D221F749F3327A00D6E
:10591000611D231F849F600D211D822F762F6A2F0A
:1059200011249F5750409AF0F1F088234AF0EE0F6F
:10593000FF1FBB1F661F771F881F91505040A9F79C
:105940009E3F510580F00C94F72B0C94422C5F3F46
:10595000E4F3983ED4F3869577956795B795F795D8
:10596000E7959F5FC1F7FE2B880F911D9695879550
:1059700097F908950E94D32B880B990B0895DB01AA
:105980008F939F930E94402ABF91AF91A29F800D59
:10599000911DA39F900DB29F900D11240895EE0FBD
:1059A000FF1F0590F491E02D099481E090E0F894B8
:0859B0000C94DA2CF894FFCFEF
:1059B8002402350238023C0244024F025B026502AF
:1059C800350238023C02740280028F02D80034018A
:1059D80086011E000000000000000000000000001A
:1059E80000000000000000000000000000000000AF
:1059F800000000000000000000000000000000009F
:105A08000000000000000000000000000198029D56
:105A180002A802B602C102CC02D802DF02EA0232B0
:105A2800F002EA029600FB02EA0240010803FB02C8
:105A3800F002DF02D802160322032A0334033C03D0
:105A4800340348033C032A031603D80257035E03B2
:105A58006603016D037903850390039D03A4030185
:105A6800A803B3030803480390036D035703C00357
:105A7800D802280F05014243312E350000000000EE
:105A8800000000000000000000000000000000000E
:105A980000000000000000000000000000000000FE
:105AA800000000000000010840000000801104FF11
:105AB8000517F701C91900000000250DBB15220DB7
:105AC800210D3E00206F6620330076312E330053BF
