:100000000C94F00C0C94180D0C94180D0C946020AA
:100010000C94180D0C94180D0C94180D0C94180DCC
:100020000C94180D0C94180D0C94180D0C94180DBC
:100030000C94180D0C94180D0C94180D0C94180DAC
:100040000C9416200C94180D0C94180D0C94180D8B
:100050000C94180D0C9437210C94180D0C94180D59
:100060000C94180D0C94180D4465616374697661E5
:100070007465640053656C65637420546970004551
:100080006E74657220546970204E616D6500FFE0EA
:10009000FFD1AFFF32FFD0FFFEFFE0FFD1AEFFD0B8
:1000A000FFFEFFE0FFD11000FFFEFFD0FFE0FFC129
:1000B000FFD1AED580A83FD300408D142000A1C849
:1000C000DA1281CFD9F1DB402EA4A6AFFFD0FFFE1C
:1000D000506C6561736520776169742E2E2E004126
:1000E00044433A20200074656D703A2000536574D3
:1000F000206D6561737572656400537465703A2094
:100100000043616C6962726174696F6E0020560011
:100110005663633A20200020560056696E3A20004C
:10012000204300546D703A20004669726D77617209
:10013000653A200030303000303030005600204822
:100140004F4C4400204845415400574F524B5900F2
:10015000424F4F535400534C4545500020204F46CA
:1001600046004552524F5200000000002400270074
:100170002A0000000000250028002B0000000000DD
:1001800023002600290004040404040404040202D9
:100190000202020203030303030301020408102006
:1001A0004080010204081020010204081020000011
:1001B0000008000201000003040700000000000026
:1001C000000000574DFBF12A000000002A3A002BE6
:1001D000F82A001717452507140082000383800FB3
:1001E00083E01FC7E00FC7E007C7C003EF8001EF40
:1001F0000000FE00F8FE3EFFFFFEFFFFFEFFFFFED9
:10020000FE7CFE80FE0201EF0003EF8007EFC007D7
:10021000C7C00FC7E01F83F00783C00183002323FB
:10022000AF3B0C000001E000000001E00000000115
:10023000E000000001E000000001E000000001E03B
:1002400000000001E000000001E000000001E0000B
:10025000000001E000000001E000000001E00000FB
:100260000001E000000001E000000001E0000000EB
:1002700001E00000FFFFFFFFE0FFFFFFFFE0FFFFE7
:10028000FFFFE0FFFFFFFFE00001E000000001E0F2
:1002900000000001E000000001E000000001E000BB
:1002A000000001E000000001E000000001E00000AB
:1002B0000001E000000001E000000001E00000009B
:1002C00001E000000001E000000001E0000000018A
:1002D000E000000C0F1E1203F80FF00FF00FE01FEC
:1002E000E01FC01FC03F803F803F007F007E007E38
:1002F000007C00FC00FC000F081013020BFFFEFF47
:10030000FEFFFEFFFEFFFEFFFEFFFEFFFE080808E9
:10031000120600FFFFFFFFFFFFFFFF132E8A1903E6
:10032000FD0007E00007E00007C0000FC0000FC09D
:10033000000F80001F80001F80001F80001F000032
:100340003F00003F00003E00007E00007E00007C79
:100350000000FC0000FC0000FC0000F80001F800B8
:1003600001F80001F00003F00003F00003F00007C3
:10037000E00007E00007E00007C0000FC0000FC06A
:10038000000F80001F80001F80001F80003F0000C2
:100390003F00003F00003E00007E00007E00007C29
:1003A0000000FC0000FC0000FC00001D2CB021023D
:1003B000FF001FC00000FFF80003FFFC0007FFFF65
:1003C000000FFFFF800FFFFF801FF0FFC03FC03F07
:1003D000C03FC03FE03F801FE07F801FF07F001FD5
:1003E000F07F000FF07F000FF0FF000FF0FF000F15
:1003F000F8FF000FF8FF000FF8FF000FF8FF000FE5
:10040000F8FF000FF8FF000FF8FF000FF8FF000FD4
:10041000F8FF000FF8FF000FF8FF000FF8FF000FC4
:10042000F8FF000FF87F000FF07F000FF07F000F44
:10043000F07F001FF07F801FF03F801FE03FC03F34
:10044000E03FC03FC01FF0FFC00FFFFF800FFFFF66
:100450000007FFFF0003FFFE0000FFF800001FC0C1
:1004600000122A7E210600003FC0007FC000FFC0AE
:1004700003FFC00FFFC03FFFC0FFFFC0FFFFC0FF73
:10048000FFC0FF3FC0FE3FC0F83FC0E03FC0003F9D
:10049000C0003FC0003FC0003FC0003FC0003FC0A1
:1004A000003FC0003FC0003FC0003FC0003FC00051
:1004B0003FC0003FC0003FC0003FC0003FC0003F02
:1004C000C0003FC0003FC0003FC0003FC0003FC071
:1004D000003FC0003FC0003FC0003FC0003FC00021
:1004E0003FC0003FC01D2BAC210200000FF00000F8
:1004F0007FFE0001FFFF0003FFFF8007FFFFC00F2B
:10050000FFFFE01FF83FF01FF01FF01FE00FF03F6C
:10051000C007F83FC007F83FC007F8000007F80021
:100520000007F800000FF800000FF000001FF000B7
:10053000001FF000003FE000007FE00000FFC0006F
:1005400001FF800003FF800007FF00000FFE000096
:100550001FFC00003FF800007FF00000FFE00001FA
:10056000FF800003FF00000FFE00001FFC00003FA3
:10057000F000007FE00000FFC00000FFFFFFF8FF79
:10058000FFFFF8FFFFFFF8FFFFFFF8FFFFFFF8FF97
:10059000FFFFF8FFFFFFF81C2CB02103FF007FC016
:1005A0000003FFF80007FFFC001FFFFF003FFFFFF5
:1005B000003FFFFF807FE0FFC07FC07FC0FF803F24
:1005C000C0FF001FE0FF001FE0FF001FE000001F52
:1005D000E000001FE000001FE000003FC000007FBF
:1005E000C00003FF80007FFF00007FFC00007FF061
:1005F00000007FF800007FFE00007FFF800000FF0A
:10060000C000003FE000001FE000001FE000000FFE
:10061000F000000FF000000FF0FF000FF0FF000FE0
:10062000F0FF000FF0FF001FE0FF801FE07FC03FE2
:10063000E07FE0FFC03FFFFF803FFFFF001FFFFEA6
:10064000000FFFFC0003FFF800007FC0001F2AA876
:100650002101000001FFC00001FFC00003FFC00036
:1006600007FFC00007FFC0000FFFC0000FFFC00062
:100670001FFFC0003FFFC0003FBFC0007F3FC00062
:10068000FF3FC000FE3FC001FE3FC001FC3FC00372
:10069000F83FC007F83FC007F03FC00FF03FC01F52
:1006A000E03FC01FC03FC03FC03FC03F803FC07F52
:1006B000803FC0FF003FC0FF003FC0FFFFFFFEFFC5
:1006C000FFFFFEFFFFFFFEFFFFFFFEFFFFFFFEFF3E
:1006D000FFFFFEFFFFFFFE00003FC000003FC00025
:1006E000003FC000003FC000003FC000003FC0000E
:1006F000003FC000003FC000003FC01D2BAC2102E6
:10070000FF7FFFFFE07FFFFFE07FFFFFE07FFFFF56
:10071000E07FFFFFE07FFFFFE07FFFFFE07F8000E3
:10072000007F8000007F8000007F8000007F8000CD
:10073000007F8000007F8000007F8000007F87F8BE
:10074000007F9FFE007FFFFF807FFFFFC07FFFFFD6
:10075000C07FFFFFE07FF03FF07FC01FF07F800F82
:10076000F07F800FF87F0007F8000007F80000070F
:10077000F8000007F8000007F8000007F80000077D
:10078000F0FF000FF0FF000FF0FF001FF0FF803FB1
:10079000E07FE0FFC07FFFFFC03FFFFF801FFFFF44
:1007A000000FFFFC0003FFF800007FC0001D2CB00D
:1007B0002102FF000FF000007FFC0000FFFF00039C
:1007C000FFFF8007FFFFC007FFFFE00FFC3FE01FB8
:1007D000F00FF01FE00FF03FC007F83FC007F83FF1
:1007E0008000007F8000007F8000007F8000007F0D
:1007F000000000FF03F800FF1FFE00FF3FFF00FFA7
:100800007FFF80FFFFFFC0FFFFFFE0FFF83FF0FF2B
:10081000E01FF0FFC00FF0FFC00FF8FF8007F8FFE8
:100820008007F8FF8007F8FF8007F8FF8007F87F50
:100830008007F87F8007F87F8007F07FC00FF03FC8
:10084000C00FF03FE01FE01FF83FE01FFFFFC00FA9
:10085000FFFF8007FFFF0003FFFE0000FFF800001E
:100860003FC0001C2AA8210300FFFFFFF0FFFFFF8D
:10087000F0FFFFFFF0FFFFFFF0FFFFFFF0FFFFFFC4
:10088000F0FFFFFFF000000FF000000FF000001F6E
:10089000F000001FE000003FE000003FC000007FCC
:1008A000C000007FC00000FF800000FF800001FF4B
:1008B000000001FF000001FE000003FE000003FE37
:1008C000000007FC000007FC00000FF800000FF814
:1008D00000001FF800001FF000001FF000003FE0C4
:1008E00000003FE000007FC000007FC00000FFC0AC
:1008F0000000FF800001FF800001FF000003FF00F7
:100900000003FF000003FE000007FE000007FC00DC
:10091000001D2CB02102FF003FF00001FFFE000788
:10092000FFFF800FFFFFC01FFFFFE03FFFFFF03F13
:10093000F87FF07FE01FF07FE01FF87FC00FF87FA7
:10094000C00FF87FC00FF87FC00FF87FC00FF83FCF
:10095000E01FF03FE01FF01FF87FE00FFFFFC00730
:10096000FFFF0001FFFC0000FFF80003FFFE000F87
:10097000FFFF801FFFFFC03FF03FE07FE01FE07FF1
:10098000C00FF07FC00FF0FF8007F8FF8007F8FF6F
:100990008007F8FF8007F8FF8007F8FF8007F8FF5F
:1009A000C00FF8FFC00FF87FE01FF07FF03FF07F2F
:1009B000FFFFE03FFFFFE01FFFFFC00FFFFF8003CF
:1009C000FFFE00007FF0001D2CB02102FF001FC0C1
:1009D0000000FFF80003FFFE0007FFFF000FFFFF0E
:1009E000801FFFFF803FE0FFC03FC03FE07F801FD0
:1009F000E07F801FE07F000FF0FF000FF0FF000F8F
:100A0000F0FF000FF0FF000FF8FF000FF8FF000FDE
:100A1000F8FF000FF8FF801FF87F801FF87FC03FAE
:100A2000F87FE0FFF83FFFFFF81FFFFFF81FFFF719
:100A3000F80FFFE7F803FFC7F800FE07F000000714
:100A4000F000000FF000000FF000000FF000000FAA
:100A5000E07F801FE07F801FE03F803FC03FC07F7E
:100A6000C03FE0FF801FFFFF800FFFFF0007FFFE7A
:100A70000003FFFC0001FFF000003FC000081D1D47
:100A8000130800FFFFFFFFFFFFFFFF000000000053
:100A90000000000000000000FFFFFFFFFFFFFFFF5E
:100AA00000121A00001803700390207F001A00182B
:100AB000000000000B0000FFFFFFFFFFFFFFFFFF34
:100AC000FF11103013010601C00001C00001C00079
:100AD00001C00001C00001C00001C000FFFF80FF95
:100AE000FF8001C00001C00001C00001C00001C0C2
:100AF0000001C00001C0000708080B03023E3E3E93
:100B00003E3EF0F0F00902040B010DFF80FF80056E
:100B100005050B0502F8F8F8F8F8FF11184813015D
:100B200002FFFF80FFFF80C00380C00380C00380FE
:100B3000C00380C00380C00380C00380C00380C0A6
:100B40000380C00380C00380C00380C00380C00353
:100B500080C00380C00380C00380C00380C00380C6
:100B6000FFFF80FFFF80FFFF80061818130702FCBD
:100B7000FC1C1C1C1C1C1C1C1C1C1C1C1C1C1C1CD5
:100B80001C1C1C1C1C1C1C111848130102FFFF809C
:100B9000FFFF8000038000038000038000038000CB
:100BA0000380000380000380000380000380FFFFB8
:100BB00080FFFF80C00000C00000C00000C0000037
:100BC000C00000C00000C00000C00000FFFF80FFA8
:100BD000FF80FFFF80111848130102FFFF80FFFF15
:100BE00080000380000380000380000380000380F6
:100BF0000003800003800003800003801FFF801F2C
:100C0000FF80000380000380000380000380000356
:100C100080000380000380000380FFFF80FFFF80CF
:100C2000FFFF80111848130102C00380C00380C079
:100C30000380C00380C00380C00380C00380C00362
:100C400080C00380C00380C00380FFFF80FFFF805F
:100C50000003800003800003800003800003800005
:100C600003800003800003800003800003800003F2
:100C700080111848130102FFFF80FFFF80C00000B1
:100C8000C00000C00000C00000C00000C00000C0E4
:100C90000000C00000C00000FFFF80FFFF800003D5
:100CA0008000038000038000038000038000038035
:100CB000000380000380FFFF80FFFF80FFFF8011A3
:100CC0001848130102FFFF80FFFF80C00000C00032
:100CD00000C00000C00000C00000C00000C0000054
:100CE000C00000C00000FFFF80FFFF80C00380C085
:100CF0000380C00380C00380C00380C00380C003A2
:100D000080C00380FFFF80FFFF80FFFF801018304E
:100D1000130202FFFFFFFF000700070007000700A4
:100D2000070007000700070007000700070007008B
:100D3000070007000700070007000700070007007B
:100D4000070007111848130102FFFF80FFFF80C052
:100D50000380C00380C00380C00380C00380C00341
:100D600080C00380C00380C00380FFFF80FFFF803E
:100D7000C00380C00380C00380C00380C00380C064
:100D80000380C00380C00380FFFF80FFFF80FFFF60
:100D900080111848130102FFFF80FFFF80C003800D
:100DA000C00380C00380C00380C00380C00380C034
:100DB0000380C00380C00380FFFF80FFFF8000032B
:100DC0008000038000038000038000038000038014
:100DD000000380000380FFFF80FFFF80FFFF80058E
:100DE00010100B0502F8F8F8F8F8000000000000F9
:100DF000F8F8F8F8F80710100B03023E3E3E3E3EAE
:100E00000000003E3E3E3E3EF0F0F0FFFFFFFFFFE1
:100E1000FFFFFFFFFFFFFFFFFFFFFFFFFFFFFFFFE2
:100E2000FFFFFFFFFFFFFFFFFFFFFFFFFFFFFFFFD2
:100E3000FFFFFFFFFFFFFFFFFFFFFFFFFFFFFFFFC2
:100E4000FFFFFFFFFFFFFFFFFFFFFFFFFFFFFF00B1
:100E5000090F00FD0A01E803D820FFFD0CFD0BFD82
:100E600000000009000C010B0B0904008080808049
:100E70008080800000808004030309030790909025
:100E80000608080901014848FC4848FC4848070B87
:100E90000B0901FF107C929050381412927C1007BD
:100EA0000A0A09010042A4A4481010244A4A8407EF
:100EB0000A0A09010060909090606294889462012F
:100EC0000303090407808080030C0C0903FF204002
:100ED00040808080808080404020030C0C0903FF0C
:100EE0008040402020202020204040800707070924
:100EF000010310925438549210070707090101109A
:100F00001010FE1010100205050904FDC0C040407D
:100F100080070101090104FE020202090400C0C0A9
:100F2000070A0A090100020404081010204040804A
:100F3000070A0A0901003844828282828282443888
:100F4000070A0A090100103050901010101010FE0E
:100F5000070A0A0901007C8282040810204080FEF2
:100F6000070A0A090100FE0204081C020202827C30
:100F7000070A0A090100040C14244484FE04040432
:100F8000070A0A090100FE8080BCC2020202827CBC
:100F9000070A0A0901003C408080BCC28282827C30
:100FA000070A0A090100FE020404080810102020A4
:100FB000070A0A09010038448244384482824438CE
:100FC000070A0A0901007C828282867A020204787A
:100FD000020707090400C0C0000000C0C0020A0ADE
:100FE0000904FDC0C0000000C0C0404080050A0ADE
:100FF00009020008102040808040201008070404E7
:10100000090102FE0000FE050A0A090200804020D4
:1010100010080810204080070A0A0901007C82821B
:1010200002040810100010070A0A0901007C8282DD
:101030009EA2A69A80807C070A0A09010010284413
:10104000828282FE828282070A0A090100F8848273
:1010500084F884828284F8070A0A0901007C82806D
:101060008080808080827C070A0A090100F88482DF
:10107000828282828284F8070A0A090100FE808047
:1010800080F880808080FE070A0A090100FE8080C7
:1010900080F88080808080070A0A0901007C8280B5
:1010A00080808E8282827C070A0A09010082828205
:1010B00082FE8282828282050A0A090200F82020CA
:1010C000202020202020F8080A0A0901001F04041B
:1010D00004040404048478070A0A0901008284884D
:1010E00090E0A090888482070A0A0901008080802D
:1010F000808080808080FE070A0A0901008282C603
:10110000AAAA9292828282070A0A0901008282C2F6
:10111000A2928A86828282070A0A0901007C828260
:101120008282828282827C070A0A090100FC828212
:1011300082FC8080808080070C0C0901FE7C82820A
:1011400082828282A2927C0806070A0A090100FCB8
:10115000828282FC9088848282070A0A0901007CCC
:10116000828280700C0282827C070A0A090100FEDA
:10117000101010101010101010070A0A0901008238
:1011800082828282828282827C070A0A090100822C
:10119000828244444428282810070A0A0901008250
:1011A00082828292929292AA44070A0A09010082DC
:1011B000824428101028448282070A0A090100820A
:1011C000824428101010101010070A0A090100FEAE
:1011D0000204081020408080FE040C0C0903FFF07C
:1011E00080808080808080808080F0070A0A0901EA
:1011F0000080404020101008040402040C0C090276
:10120000FFF010101010101010101010F007040450
:10121000090106102844820801010900FFFF0303A9
:10122000030903088040200707070901007C020228
:101230007E82867A070A0A090100808080BCC28209
:101240008282C2BC0707070901007C8280808082FD
:101250007C070A0A0901000202027A8682828286DB
:101260007A0707070901007C8282FE80807C070ADA
:101270000A0901001C22222020F820202020070A31
:101280000A0901FD7A84848478807C82827C070A42
:101290000A090100808080BCC28282828282050AA3
:1012A0000A090200600000E02020202020F8060D3E
:1012B0000D0901FD0C00001C040404040484848452
:1012C00078070A0A090100808080828CB0C0B08C47
:1012D00082050A0A090200E0202020202020202088
:1012E000F8070707090100EC929292929282070791
:1012F00007090100BCC282828282820707070901B6
:10130000007C82828282827C070A0A0901FDBCC2BB
:10131000828282C2BC808080070A0A0901FD7A8627
:10132000828282867A0202020707070901009C6214
:1013300042404040400707070901007C82807C0250
:10134000827C0709090901002020FC20202020229E
:101350001C0707070901008484848484847A0707B2
:101360000709010082824444282810070707090161
:10137000008282929292AA440707070901008244E0
:101380002810284482060A0A0901FD848484848482
:101390008C74048478070707090100FE04081020F4
:1013A00040FE050C0C0903FF3840404020C0C0201F
:1013B00040404038010C0C0904FF80808080808010
:1013C000808080808080050C0C0901FFE0101010E7
:1013D00020181820101010E007030309010762927B
:1013E0008CFFFFFFFFFFFFFFFFFFFFFFFFFFFFFF80
:1013F000FFFFFFFFFFFFFFFFFFFFFFFFFFFFFFFFFD
:10140000FFFF00000009000C010B0B0904008080A5
:101410000000808080808080800608080901000824
:10142000789490A0A47840070A0A0901001C2220A1
:1014300020F8202060A25C070606090103827C4494
:10144000447C82070A0A090100828244287C107CBD
:10145000101010010B0B0904FF8080808080008039
:1014600080808080040B0B0902FF60908060909068
:101470009060109060050202090209888808090935
:101480000900013C4299A5A1A599423C050707091D
:101490000103609070907800F807080809010112B4
:1014A00024489090482412060404090102FC040414
:1014B00004050101090204F80809090900013C4278
:1014C000B9A5B9A9A5423C060101090109FC04041A
:1014D00004090306609090600709090901011010D2
:1014E00010FE10101000FE040606090104609010A2
:1014F0006080F004060609010460902010906003EB
:1015000003030903082040800709090901FE8282BC
:10151000828282C6BA8080070A0A0901007E8A8A0E
:101520008A7A0A0A0A0A0A020202090404C0C004EA
:1015300003030902FD30906003060609010440C060
:10154000404040E00506060901047088887000F8F4
:101550000708080901019048241212244890070A3C
:101560000A09010040C0404042E60A121A06070A72
:101570000A09010040C040404CF2020C101E070A4C
:101580000A0901006090201092660A121A06070AE2
:101590000A0901001000101020408082827C070C94
:1015A0000C0901004020100038448282FE828282B1
:1015B000070C0C0901000408100038448282FE82E6
:1015C0008282070C0C0901001028440038448282F2
:1015D000FE828282070B0B090100629C0038448264
:1015E00082FE828282070B0B0901004444003844CA
:1015F0008282FE828282070B0B0901003844382860
:10160000448282FE828282070A0A0901006E90905B
:101610009090FC9090909E070D0D0901FD7C8280BA
:101620008080808080827C184830070C0C09010083
:1016300040201000FE404078404040FE070C0C095E
:10164000010004081000FE404078404040FE070CB6
:101650000C09010010284400FE404078404040FE44
:10166000070B0B090100444400FE40407840404015
:10167000FE050C0C09020080402000F820202020EC
:101680002020F8050C0C09020008102000F820208A
:1016900020202020F8050C0C09020020508800F8BA
:1016A000202020202020F8050B0B0902008888004C
:1016B000F8202020202020F8080A0A0900007C4297
:1016C0004141E1414141427C070B0B090100629C11
:1016D0000082C2A292928A8682070C0C0901004005
:1016E0002010007C8282828282827C070C0C09019D
:1016F00000040810007C8282828282827C070C0CAB
:10170000090100102844007C8282828282827C0748
:101710000B0B090100629C007C8282828282827CA7
:10172000070B0B0901004444007C82828282828282
:101730007C07070709010182442810284482070C0E
:101740000C0901FF027C868A8A9292A2A2C27C8046
:10175000070C0C09010040201000828282828282E4
:10176000827C070C0C09010004081000828282822E
:101770008282827C070C0C090100102844008282BE
:1017800082828282827C070B0B0901004444008222
:101790008282828282827C070C0C0901000408107C
:1017A000008282442810101010070A0A09010080E4
:1017B00080FC828282FC808080060A0A090100384F
:1017C000444448D04844444458070B0B09010020C6
:1017D0001008007C02027E82867A070B0B0901004A
:1017E000040810007C02027E82867A070B0B090136
:1017F00000102844007C02027E82867A070A0A09C9
:101800000100324C007C02027E82867A070A0A09B5
:1018100001004444007C02027E82867A070B0B0999
:101820000100182418007C02027E82867A070707CE
:101830000901006C92127C90926E070A0A0901FD60
:101840007C82808080827C184830070B0B09010065
:10185000402010007C8282FE80807C070B0B0901F7
:1018600000040810007C8282FE80807C070B0B093C
:101870000100102844007C8282FE80807C070A0AD6
:101880000901004444007C8282FE80807C050B0BB1
:1018900009020080402000E02020202020F8050BD5
:1018A0000B09020010204000E02020202020F80634
:1018B0000B0B090100205088007010101010107CD4
:1018C000050A0A090200909000E02020202020F85C
:1018D000070B0B090100483050087C82828282820B
:1018E0007C070A0A090100629C00BCC282828282D3
:1018F00082070B0B090100402010007C828282824B
:10190000827C070B0B090100040810007C82828294
:1019100082827C070B0B090100102844007C828224
:101920008282827C070A0A090100629C007C828212
:101930008282827C070A0A0901004444007C828278
:101940008282827C07090909010010381000FE001C
:101950001038100709090901FF027C8A8A92A2A2A5
:101960007C80070B0B0901004020100084848484D4
:1019700084847A070B0B0901000408100084848416
:101980008484847A070B0B090100102844008484A6
:10199000848484847A070A0A090100484800848400
:1019A000848484847A060E0E0901FD0810200084C8
:1019B000848484848C74048478070C0C0901FD8071
:1019C0008080BCC28282C2BC808080060D0D09016D
:1019D000FD48480084848484848C74048478772946
:1019E00011241FBECFEFD8E0DEBFCDBF13E0A0E0D3
:1019F000B1E0E0E8FAE502C005900D92A23EB10721
:101A0000D9F725E0A2EEB3E001C01D92A432B207DF
:101A1000E1F71CE0C0EFDCE004C02197FE010E946A
:101A2000382DCF3ED107C9F70E9438210C943E2DA6
:101A30000C9400004F925F926F927F928F929F92D0
:101A4000AF92BF92CF92DF92EF92FF920F931F93CC
:101A5000CF93DF9300D000D0CDB7DEB74B015C0150
:101A600029013A016701780120E030E0A9010E94D4
:101A7000522B87FDA6C020E030E0A901C301B201CE
:101A80000E94522B87FD9DC020E030E0A901C801D3
:101A9000B6010E94522B87FD94C081E02091C404BE
:101AA0003091C5042130310509F080E08093E504D0
:101AB0008092AA049092AB04A092AC04B092AD04C0
:101AC0004092AE045092AF046092B0047092B104A0
:101AD000C092B204D092B304E092B404F092B50480
:101AE0006091D8047091D9048091DA049091DB045C
:101AF0000E94FF2B20E030E04AE754E40E94572B7D
:101B000069837A838B839C838092B6049092B70416
:101B1000A092B804B092B9049B01AC01C301B20118
:101B20000E94B62C2B013C014092BA045092BB0497
:101B30006092BC047092BD0429813A814B815C8122
:101B4000C701B6010E94572B6B017C01C092BE04F5
:101B5000D092BF04E092C004F092C1048091C2040C
:101B60009091C304019769F5A501940160E070E0CC
:101B7000CB010E94E52A6093B6047093B70480936A
:101B8000B8049093B904A301920160E070E0CB0126
:101B90000E94E52A6093BA047093BB048093BC044E
:101BA0009093BD04A701960160E070E0CB010E9414
:101BB000E52A6093BE047093BF048093C0049093A1
:101BC000C1040F900F900F900F90DF91CF911F9154
:101BD0000F91FF90EF90DF90CF90BF90AF909F90CC
:101BE0008F907F906F905F904F90089580E0089560
:101BF0002091EE043091EF042817390799F1909362
:101C0000EF048093EE04009739F120910105FC0167
:101C1000211129C03596E491E09302050C96FC0150
:101C200084918093030580910205082E000C990B86
:101C300020910305821B910927FD939520910405AE
:101C4000203441F0829FC001112426E096958795AB
:101C50002A95E1F78093050586EF9DE090930005B6
:101C60008093FF040895213031F43F96E491E0938E
:101C700002054096D4CF3D96E491E09302050E967E
:101C8000CECFFC01808D8F5F0895833081F028F4E2
:101C9000813099F08230A9F008958730A9F088301A
:101CA000C9F08430B1F4809180008F7D03C08091B1
:101CB00080008F7780938000089584B58F7784BDEE
:101CC000089584B58F7DFBCF8091B0008F7780938E
:101CD000B00008958091B0008F7DF9CFCF93DF934E
:101CE000282F30E0F901E255FE4F8491F901E656C4
:101CF000FE4FD491F901EA57FE4FC491CC23A1F0D5
:101D000081110E94450EEC2FF0E0EE0FFF1FE4580A
:101D1000FE4FA591B491EC91ED2381E090E009F4A0
:101D200080E0DF91CF91089580E090E0FACF1F939B
:101D3000CF93DF93282F30E0F901E255FE4F8491D5
:101D4000F901E656FE4FD491F901EA57FE4FC491CE
:101D5000CC23A9F0162F81110E94450EEC2FF0E044
:101D6000EE0FFF1FEE58FE4FA591B4918FB7F89478
:101D7000EC91111108C0D095DE23DC938FBFDF9169
:101D8000CF911F910895DE2BF8CFCF93DF9390E092
:101D9000FC01E656FE4F24918A579E4FFC01849128
:101DA0008823C9F090E0880F991FFC01E859FE4F85
:101DB000A591B491FC01EE58FE4FC591D4916111EB
:101DC0000DC09FB7F8948C91209582238C938881C5
:101DD000282328839FBFDF91CF910895623051F46B
:101DE0009FB7F8943C91822F809583238C93E88150
:101DF0002E2BEFCF8FB7F894EC912E2B2C938FBF17
:101E0000EACFCF93DF93EC0161E089E00E94C50E39
:101E1000209731F460E089E0DF91CF910C94970E28
:101E2000CF3FD10511F461E0F6CFE7EBF1E0E491AB
:101E3000E33029F140F4E130B1F0E230D9F0C038BC
:101E4000D1058CF7E7CFE73021F1E83051F1E430EC
:101E5000B1F780918000806280938000D0938B00E6
:101E6000C0938A0004C084B5806884BDC7BDDF917B
:101E7000CF91089584B5806284BDC8BDF8CF8091AC
:101E80008000806880938000D0938900C093880090
:101E9000EECF8091B00080688093B000C093B30013
:101EA000E6CF8091B00080628093B000C093B40010
:101EB000DECF3FB7F8948091A4049091A504A0913F
:101EC000A604B091A70426B5A89B05C02F3F19F022
:101ED0000196A11DB11D3FBFBA2FA92F982F8827AA
:101EE000BC01CD01620F711D811D911D42E0660F85
:101EF000771F881F991F4A95D1F708958F929F9257
:101F0000AF92BF92CF92DF92EF92FF924B015C01B2
:101F10000E94590F6B017C010E94590F6C197D09B9
:101F20008E099F09683E734081059105A8F321E061
:101F3000821A9108A108B10888EEC80E83E0D81E65
:101F4000E11CF11C81149104A104B10429F7FF9054
:101F5000EF90DF90CF90BF90AF909F908F900895BB
:101F60002FB7F8946091A0047091A1048091A2040D
:101F70009091A3042FBF0895AF92BF92CF92DF92AA
:101F8000EF92FF920F931F93CF93DF936C017B012E
:101F90008B01040F151FEB015E01AE18BF08C017BF
:101FA000D10759F06991D601ED91FC910190F08132
:101FB000E02DC6010995892B79F7C501DF91CF91F5
:101FC0001F910F91FF90EF90DF90CF90BF90AF9057
:101FD00008950895DC011696ED91FC9117971296DD
:101FE0008C91481B477081E090E001C0880F4A95B2
:101FF000EAF7E60FF11D3081222319F0832B80834D
:10200000089580958323FBCFFB014181DC0112966B
:102010002C911297421768F013962C91139724175E
:1020200040F0608115962C91621718F424810C946D
:10203000EA0F0895FC0180819281980F928321819B
:10204000921760F494819F5F94839381890F821724
:1020500010F08FEF820F838381E0089580E0089570
:10206000FC01128280818150838314820895DB01F8
:10207000ED91FC9109940F931F93CF93DF931F92DF
:10208000CDB7DEB70091EC041091ED04E0911B0593
:10209000F0911C0582E0099530E020E04AE0B801AB
:1020A0008AEE94E00E943710182FE0911B05F09102
:1020B0001C0583E00995E0911B05F0911C0580E06B
:1020C00009951123B9F16091EC047091ED049E0122
:1020D0002F5F3F4F46E48AEE94E00E9437108981DB
:1020E0008093EA046091EC047091ED049E012F5FEF
:1020F0003F4F47E48AEE94E00E9437108981809335
:10210000EB046091EC047091ED0430E020E048E4D1
:102110008AEE94E00E9437108093F5046091EC04FD
:102120007091ED042DE135E047E18AEE94E00E94E4
:10213000371011E0812F0F90DF91CF911F910F91F8
:102140000895CF93DF9380912305811105C081E02D
:10215000809323050E943B10C091EC04D091ED04C4
:10216000E0911B05F0911C0582E00995E0911B05AB
:10217000F0911C0581E0099530E020E044E1BE01CA
:102180008AEE94E00E9437102DE135E047E1BE0170
:102190008AEE94E00E943710E0911B05F0911C0537
:1021A00080E0DF91CF9109940F931F93CF93E0913B
:1021B000F804F091F904309719F08AEE94E009954B
:1021C0000091EC041091ED04E0911B05F0911C05C9
:1021D00082E00995E0911B05F0911C0581E00995CD
:1021E00030E020E045E1B8018AEE94E00E9437102B
:1021F000C82F882341F02DE135E047E1B8018AEE90
:1022000094E00E943710E0911B05F0911C0580E0DE
:1022100009958C2FCF911F910F9108950B96FC017A
:10222000849108950A96FC0184910895FC0184919B
:1022300008950E941611882321F0823011F083E066
:10224000089586E00895FC01E60FF11D849190E069
:10225000982F88273196E4918E0F911D089568E09C
:102260000C94231166E00C9423115F926F927F927D
:102270008F929F92AF92BF92CF92DF92EF92FF9296
:102280000F931F93CF93DF93EC01E62EF42EC22E13
:102290000C811D81C8010E941611D82E8C819D8150
:1022A0000E941911982E21E0AA24AA94D21202C0E9
:1022B0002FE0A22E8C819D810E941211D82E8C813C
:1022C0009D810E940E11B82E8C819D810E942F113C
:1022D000E0E6EC1578F4009769F0080F191F91E615
:1022E000D92EBC14C0F4188A1B8A1C8A198A1A8A2F
:1022F00080E0A0C08C819D810E943211F0E4FC1529
:1023000038F4009729F0080F191F81E4D82EE9CF7F
:102310000F5E1F4FE6CFBD1430F3892D90E0F8011A
:1023200024912F3F31F40F5F1F4FBD14E1F2D3947E
:10233000F6CFCD1072C08C819D810E94161198013C
:102340002F5F3F4FF801882319F0823009F04EC00B
:1023500084918B8BF90124912C8BF8013396E491B5
:10236000E88BF8013496E491E98BF8013596E49115
:10237000EA8B0115110509F4BBCF8C819D810E9468
:1023800019113C89F31A9A89F91A9FEF930F9F0D3F
:102390002CA94EA94F1508F449C0921718F49F159F
:1023A00008F047C02B899989E90E9FEF920F9E0D87
:1023B0004BA95DA95E1508F44DC0941718F49E153D
:1023C00008F037C0080F111D295F722E769476949D
:1023D00076946F2C630E5E01FCE1AF0EB11C872C6E
:1023E000912CF61431F15E2C68014AC08491982F2B
:1023F0009F7092509A8B82958F70898BF9012491EE
:10240000822F8F708C8B22952F702B8BF801329638
:10241000E491E295EF70E88BACCF3296E491EA213B
:10242000E80FF92FF11D0E0F1F1F7FCF921708F035
:10243000B6CF8889DF91CF911F910F91FF90EF90D8
:10244000DF90CF90BF90AF909F908F907F906F90D4
:102450005F900895941708F0B2CFEBCFF601849106
:102460006A817B815C8EFD8E1F8E8E8F95014BE382
:10247000CE010E943710FFEFCF1ADF0A28E0520E7C
:102480008C2D801B871550F3080D191DF394A9CFCF
:10249000EF92FF920F931F93CF93DF93F82E062FA7
:1024A000E42E152FE091FF04F09100058AEE94E0F0
:1024B0000995080FCE2DD12F10E02991211108C0C8
:1024C000812FDF91CF911F910F91FF90EF90089591
:1024D000402F6F2D8AEE94E00E943511F80E180FF0
:1024E000ECCF0F931F93CF93DF938C01E091FF0408
:1024F000F09100058AEE94E00995D82FC0E0F8012C
:102500002491222351F04D2F6C2F8AEE94E00E94EB
:102510003511C80F0F5F1F4FF2CF8C2FDF91CF9176
:102520001F910F9108952EE93FE0009709F4089557
:10253000F9013197F1F70197F8CFCF93DF9300D0EE
:10254000CDB7DEB720ED37E03A8329839091BC0008
:10255000982311F081E00FC029813A81232B81F467
:102560008091A90481FDF6CF8091A80481110DC04E
:1025700091E09093A8040F900F90DF91CF91089570
:1025800029813A8121503109DFCF80E0F4CF84EAFC
:102590008093BC0061E080E80E949D12811102C01E
:1025A00080E008958091B900887F883051F08031B3
:1025B00041F08091A8048111F3CF82E08093A804B8
:1025C000EFCF88E78093BB0084E88093BC0062E093
:1025D00080E80E949D12882319F38091A90481FD4F
:1025E00005C08091B900887F883119F781E008958E
:1025F00084E98093BC0064E080E10C949D12809398
:10260000BB0084E88093BC0063E080E80E949D12D8
:102610008823A1F08091A90481FD0DC08091B900AB
:10262000887F883241F08091A804811106C092E031
:102630009093A804089581E0089580E00895109291
:10264000A80408958093A9041092B90084FF05C0DE
:102650008CE08093B8000C941F1388E4FACFCF93DA
:10266000DF93FC0123A5222389F0EC010E94C7120D
:10267000811104C080E0DF91CF9108958EA1811176
:1026800007C00E94FF128823A9F31BA681E0F3CFA5
:1026900080E4F7CF0F931F93CF93DF93C62FD42FF0
:1026A0008901633001F138F4613099F0623009F446
:1026B00049C0C1E012C0663029F1673091F1653040
:1026C000C1F70E942F13811117C00E94F812C0E0B9
:1026D00004C0FC0186A50E9422138C2FDF91CF91AC
:1026E0001F910F910895FC0116A221E023A741112B
:1026F000E0CF0E94F812DDCF8D2F0E94FF128111D2
:10270000D8CFE3CF0E942F138823F9F2DD2389F27B
:10271000F80181918F010E94FF128823B1F2D150FC
:10272000F5CF0E942F13882381F2DD2311F2F801E7
:1027300084910E94FF12C82F882379F20F5F1F4FE8
:10274000D150F3CFFC0146A321E023A7B2CFDB0198
:102750001496ED91FC9130E020E065E00994DB01F6
:102760001496ED91FC9130E020E062E00994DB01E9
:102770001496ED91FC9130E020E063E00994CF9253
:10278000DF92EF92FF920F931F93CF93DF938C0111
:102790007B016A0180E0F601C491811110C081E0E3
:1027A000CF3F49F04C2FB701C8010E94A7138823DF
:1027B00009F444C080E0BFEFCB1ADB0AECCF4FEF47
:1027C000CF3F89F3CE3FD9F1C03FA0F7C03E38F0EC
:1027D0004C2F4F70B701C8010E94AF13EBCFC03D23
:1027E00038F04C2F4F70B701C8010E94B713E2CFE9
:1027F000C03CF8F0D7011496ED91FC9130E020E058
:1028000040E064E0C8010995C295C07FCE5FD0E08A
:10281000CE010E949312D7011496ED91FC9130E005
:1028200020E041E064E0C8010995CE010E949312C6
:10283000C1CFC7FDBFCF8C2F90E0F8CF80E0DF91F4
:10284000CF911F910F91FF90EF90DF90CF9008955F
:10285000AF92BF92CF92DF92FF920F931F93CF93CD
:10286000DF936C018B01F42EE90180E1481709F434
:102870007EC0841778F1AAE04A1709F461C0BFE06E
:102880004B1709F47FC0F80102811381F2E3FF16B0
:1028900009F4DDC0FF1508F48EC085E1F81609F4CF
:1028A000DBC0A7E1FA1609F4ECC0B4E1FB1265C085
:1028B000D8011696ED91FC91179715968C918E0F75
:1028C0009F2F911D11928E179F07E1F7C8010E945B
:1028D000301053C0E1E14E1709F451C0F5E14F1338
:1028E000D2CFFB01A280B38042EA50E0C6010E9431
:1028F000BF13D50114964C91406BB801C6010E94DC
:10290000A71341E0B801C6010E94AF13F50126816B
:102910003781D8011496ED91FC91D50115964C9113
:1029200066E0C601099581111CC080E0DF91CF915E
:102930001F910F91FF90DF90CF90BF90AF900895BF
:10294000DB011496ED91FC9130E020E042E061E083
:10295000C60109954AEA50E0B801C6010E94BF13BA
:1029600092CF40E0B801C6010E94B7138CCF49E96D
:1029700050E0B801C6010E94BF1381E0D7CF4EE8F6
:1029800050E0F7CF41E0C6010E94B71340E0B80124
:10299000C6010E94AF1341E8B801C6010E94A71307
:1029A0004881B801C6010E94A71340E0B801C601E2
:1029B0000E94B713E2CFE6E4FE1609F46CC0F7E418
:1029C000FF1609F46DC08BE3F812D7CF99818B8184
:1029D00038E0390F813031F0833011F0392F02C0E7
:1029E000392F985021E0D80113964C91491708F4DB
:1029F00020E041E0391708F040E091E0F801528111
:102A0000351708F490E0322F342B932319F4242344
:102A100009F4B3CFFA80D12CC12C843048F490E073
:102A2000FC01EA5EFD4FC0808E5E9D4FDC01DC90B4
:102A3000F7FE04C0BE01C8010E94041088818C0DFD
:102A4000888389818D0D8983FF0C91F796CFBE0114
:102A5000C8010E94041091CFC8010E941A10882357
:102A600009F463CFD8011696ED91FC91179715964E
:102A70008C918E0F9F2F911D11928E179F07E1F75A
:102A80007CCF1882F80182818983858181508A8375
:102A900083818B8372CFD80115968C9188836DCFFB
:102AA000F8018181FBCF80917A00806980937A0060
:102AB0008EE480937C0061E070E080E090E00E9412
:102AC0007E0F83B7817F826083BF80E130E020E0AA
:102AD00093B7916093BF889593B79E7F93BF909172
:102AE0007A0096FDFCCF4091780050917900240F38
:102AF000351F815069F780917A008F7780937A0033
:102B000084E0369527958A95E1F750E040E064EB44
:102B10007BE281E190E00E948A2AC90108958091B8
:102B20007A00806980937A0088EC80937C0064E16D
:102B300070E080E090E00E947E0F83B7817F82602A
:102B400083BF80E270E060E093B7916093BF8895A7
:102B500093B79E7F93BF90917A0096FDFCCF209112
:102B6000780030917900620F731F815069F780916E
:102B70007A008F7780937A0076956795769567953A
:102B800062527A4090E080E00E94FF2B26EF38E20C
:102B90004CE151E40E94572B089590917A0090697E
:102BA00090937A008E50806480937C0083B7817FFD
:102BB000826083BF20E290E080E033B7316033BFB2
:102BC000889533B73E7F33BF30917A0036FDFCCF16
:102BD0004091780050917900840F951F215069F73A
:102BE00020917A002F7720937A0025E0969587959B
:102BF0002A95E1F708958FE00E94CD15A0916E040B
:102C0000B0916F049C010E94D62A0E94012C28E5F5
:102C100039E743E353E40E94572B0E94D02BCB01AA
:102C200008950F931F93CF938091B201882399F059
:102C3000CFEF0FEE11E061E085E00E94970EC80132
:102C40000197F1F760E085E00E94970EC8010197B7
:102C5000F1F7C15081F7CF911F910F910895CF9255
:102C6000DF92EF92FF920F931F93CF93DF93D82EB3
:102C7000C92E86E00E946E0EC1E0892B09F0C0E0EB
:102C80000E94A11081E4E82E8EE0F82E8FE49EE0F1
:102C90000E94F80DF0920005E092FF040D2D1C2D0E
:102CA000D0E0F801419151918F016D2F80E00E9499
:102CB0004812D05FD038A9F70E94D4108111E6CF16
:102CC000CC2369F086E00E946E0EC1E0892B39F0BA
:102CD0006AE070E080E090E00E947E0FC0E086E055
:102CE0000E946E0E892B61F7C111ECCFDF91CF915D
:102CF0001F910F91FF90EF90DF90CF900C941116E1
:102D00005F926F927F928F929F92AF92BF92CF927B
:102D1000DF92EF92FF920F931F93CF93DF939090E8
:102D20008E04AA24A394911001C0A12C80916C015F
:102D30008150990B1092750410927404880F991F9A
:102D4000909373048093720481E090E090937104F7
:102D500080937004892D90E0880F991F90938104CF
:102D60008093800486E00E946E0EDD24D394892B2C
:102D700009F0D12C01E41EE046E0B42EC09180049D
:102D8000D0918104D595C795CC2E7E01FF24C70133
:102D90008A0D911DA7FC9A9589199109A12C97FD7F
:102DA00006C08330910514F082E090E0A82E0E94C6
:102DB000A1108A2D0A2C000C990B3C012FEF621AEE
:102DC000720A629420EF62225C2C5A18E81AF90AFF
:102DD0008FE49EE00E94F80D109300050093FF041D
:102DE00084E790E00E9471124AE152E0662D80E093
:102DF0000E944812912C812C712C852D870D739483
:102E000090916C01891780F4C701880D991DB89EB7
:102E1000A001B99E500D11244B525E4F672D629553
:102E2000607F8CE00E9448128FEF881A980A23E096
:102E30007212E3CF0E94D4108111CACFDD2061F05D
:102E400086E00E946E0E892B39F06AE070E080E027
:102E500090E00E947E0FD12C86E00E946E0E892B9E
:102E6000B1F4D11014C00E941116C0928E04DF91EB
:102E7000CF911F910F91FF90EF90DF90CF90BF9077
:102E8000AF909F908F907F906F905F9008959C2E51
:102E900075CF2F923F924F925F926F927F928F9257
:102EA0009F92AF92BF92CF92DF92EF92FF920F93D9
:102EB0001F93CF93DF9300D000D0CDB7DEB77C0156
:102EC000942EFC012080318077247394411101C03D
:102ED000712C70E0759567956A8310927504109255
:102EE000740462507109660F771F709373046093C6
:102EF000720481E090E09093710480937004892DB6
:102F000090E0880F991F909381048093800486E05D
:102F10000E946E0E66246394892B09F0612CCC24E8
:102F2000CA944FE7D42E51E4A52E5EE0B52E8091D1
:102F3000800490918104959587959C838B835B8019
:102F40008C011127C801870D911D77FC9A9589196D
:102F50009109712C97FD06C08330910514F082E031
:102F600090E0782E0E94A110272D072C000C330B27
:102F7000C9010196E82FE295E07FE9832C9DC0010D
:102F80002D9D900D3C9D900D1124080F191F000FD1
:102F9000111F8FE49EE00E94F80DB0920005A092F0
:102FA000FF04F7014081518160E080E00E944812F7
:102FB000FCE12F16F2E03F0661F440918E0486E0BA
:102FC000489FA00111244B525E4F60E086E30E94AF
:102FD00048124AE152E0698180E00E944812882448
:102FE0008394912C412C4394852D840D87199A81CB
:102FF000891778F4F401EE0FFF1FE00FF11FEE0DBB
:10300000FF1D40815181642D6295607F8CE00E949C
:103010004812EFEF8E1A9E0AF3E04F12E4CF0E949F
:10302000D4108111B6CF662061F086E00E946E0E4A
:10303000892B39F06AE070E080E090E00E947E0F1A
:10304000612C86E00E946E0E892BE1F461101AC09B
:103050000E941116852D0F900F900F900F90DF9109
:10306000CF911F910F91FF90EF90DF90CF90BF9085
:10307000AF909F908F907F906F905F904F903F9018
:103080002F9008959B8053CF3F924F925F926F9203
:103090007F928F929F92AF92BF92CF92DF92EF92E8
:1030A000FF920F931F93CF93DF93CDB7DEB72E9789
:1030B0000FB6F894DEBF0FBECDBF80919804882371
:1030C00009F4A5C110929B0410929C0410929D04D7
:1030D00010929E0480909B0490909C04A0909D046C
:1030E000B0909E04C0908904D0908A04E0908B0434
:1030F000F0908C04A7019601C501B4010E94E52A55
:103100002B013C0120E030E0A9010E94B12C1816EF
:103110000CF0A0C1C301B2010E94D02B80917604B3
:10312000882309F4B8C1C0926304D0926404E09289
:103130006504F0926604E12CF12C00EA10E420E032
:1031400030E040E450E46E31710540F0E12CF12CA8
:1031500000E81FE320E030E040E05FE360E070E083
:1031600080E391E40E941A0D8091E404882309F41D
:103170002AC10E94B00F6D837E838F8398878091D0
:10318000CC049091CD04A091CE04B091CF044D8198
:103190005E816F817885481B590B6A0B7B0B809190
:1031A000D8049091D904A091DA04B091DB044817B7
:1031B00059076A077B0708F406C1E091C604F0913D
:1031C000C70480819181A281B38189839A83AB8373
:1031D000BC83E091CA04F091CB049C01AD016081F5
:1031E0007181828193810E94E52A4B015C012091CB
:1031F000D4043091D5044091D6045091D70469810C
:103200007A818B819C810E94E52A6B017C0120914F
:10321000BA043091BB044091BC045091BD04C50177
:10322000B4010E94B62C2091D0043091D104409179
:10323000D2045091D3040E94E62A2B013C01409213
:10324000D0045092D1046092D2047092D304309092
:10325000E50431101AC02091B6043091B7044091B2
:10326000B8045091B904C701B6010E94B62C9B0165
:10327000AC01C301B2010E94E52A6093D0047093AF
:10328000D1048093D2049093D3044090D004509002
:10329000D1046090D2047090D3041091E004909116
:1032A000E1049E87A091E204AD870091E304212F01
:1032B000392F4A2F502FC301B2010E94B12C18168A
:1032C0000CF0CCC0812F9E85AD85B02F8093D004AB
:1032D0009093D104A093D204B093D304332009F483
:1032E000D6C02091B6043091B7044091B8045091F3
:1032F000B904C501B4010E94B62C4B015C012091B8
:10330000BE043091BF044091C0045091C104C70174
:10331000B6010E94B62C9B01AC016091D004709163
:10332000D1048091D2049091D3040E94E52AA50192
:1033300094010E94E62A6B017C019B01AC01612F84
:103340007E858D85902F0E94522B87FD18C010918D
:10335000DC049091DD049E87A091DE04AD8700918E
:10336000DF04212F392F4A2F502FB601C7010E94A9
:10337000522B87FD04C01C2DDE86ED860F2DE091BB
:10338000C804F091C904812F9E85AD85B02F80833C
:103390009183A283B38389819A81AB81BC8180931D
:1033A000D4049093D504A093D604B093D7048D8110
:1033B0009E81AF81B8858093CC049093CD04A09377
:1033C000CE04B093CF0460919204709193048091E5
:1033D0009404909195040E94C92BCB012E960FB6B0
:1033E000F894DEBF0FBECDBFDF91CF911F910F913B
:1033F000FF90EF90DF90CF90BF90AF909F908F9015
:103400007F906F905F904F903F900C94010F809150
:103410009704609184017091850181110EC08091A3
:1034200087049091880420919604BC01222329F0FE
:1034300060917F01680F792F711D90E080E00E94FC
:10344000FF2B60939B0470939C0480939D04909346
:103450009E0440CEC301B20190585ECE8091DC0440
:103460009091DD04A091DE04B091DF0489879A87F2
:10347000AB87BC879C01AD01C301B2010E94522BF6
:1034800087FF2CCF89859A85AB85BC851FCF812C82
:10349000912C540134CF20E030E040E05FE3C701DD
:1034A000B6010E94E62A9B01AC01C501B4010E944D
:1034B000B12C18164CF410929204109293041092AE
:1034C0009404109295047FCF80E090E0AFE7B3E4DE
:1034D0008093920490939304A0939404B0939504E2
:1034E00072CF4F925F926F927F928F929F92AF9224
:1034F000BF92CF92DF92EF92FF92CF93DF938090B3
:103500006A0490906B04A0906C04B0906D04C0911C
:103510008E04D0E0C501B4010E94C92B6B017C016F
:1035200020E030E048E453E4C501B4010E94522B8E
:1035300093E0CC0FDD1F9A95E1F7C45DDE4F87FF66
:1035400031C02881398150E040E0255131094109DD
:103550005109C701B6010E94282D28EC30E040E057
:1035600050E00E948A2ACA01B9016B5E7F4F8F4FDB
:103570009F4F0E94012C6093890470938A0480936A
:103580008B0490938C04DF91CF91FF90EF90DF90AC
:10359000CF90BF90AF909F908F907F906F905F90F3
:1035A0004F9008954A805B80712C612C20E030E0C0
:1035B0004CE853E4C501B4010E94522B87FF1FC0A1
:1035C00088809980B12CA12CA7019601285C310933
:1035D00041095109C301B201681979098A099B0996
:1035E0000E94282D20E530E040E050E00E948A2A29
:1035F000CA01B901680D791D8A1D9B1DBACF2C81A6
:103600003D8150E040E02419350946095709C701BA
:10361000B60168517140810991090E94282D20E569
:1036200030E040E050E00E948A2ACA01B901640DEE
:10363000751D861D971D9DCFDF92EF92FF920F9310
:103640001F93CF93DF93EC01D62E1CAD0BAD7C0105
:1036500084E0E80EF11CE98DFA8DC7010995412F30
:10366000480F2D2D602FC7010E9435119BAD890F8A
:103670008BAF81E090E0DF91CF911F910F91FF9090
:10368000EF90DF9008950F931F93CF93DF938C01FA
:10369000D0E0C0E0F801EC0FFD1F6491662341F01B
:1036A00086EE94E00E941C1B892B11F02196F2CF2C
:1036B000CE01DF91CF911F910F910895682F86EE73
:1036C00094E00C941C1B2F923F924F925F926F924A
:1036D0007F928F929F92AF92BF92CF92DF92EF92A2
:1036E000FF920F931F93CF93DF9300D01F92CDB71C
:1036F000DEB7412C1B821A820EE310E040ECE42E70
:10370000F12CCC24C394D12C60E2262E7EEB872EA4
:10371000912C8A81898386E00E946E0E3324339433
:10372000892B09F0312C1093750400937404F092E6
:103730007304E0927204D0927104C0927004E2E8C3
:10374000F0E0F0938104E093800431E4A32E3EE0A6
:10375000B32E809180049091810495958795582E81
:10376000FFE18F1342C01093750400937404F0922C
:103770007304E0927204D0927104C092700490922B
:103780008104809280049FE5592E0E94A1108FE44D
:103790009EE00E94F80DB0920005A092FF048FE712
:1037A00090E00E94711240922105F0E3F09322050F
:1037B0008EE50E945E1B1092210520922205712C3D
:1037C000612C8981681648F580918E04F30196E09A
:1037D000989FE00DF11D1124EB52FE4F80810E9455
:1037E0005E1BEFEF6E1A7E0AECCF80E65812CDCF4B
:1037F0001093750400937404F0927304E0927204C1
:10380000D0927104C0927004E0E4F0E0F09381047F
:10381000E093800480E2582EB8CF40922105209298
:103820002205852D0E945E1B0E94D4108111AFCF0E
:10383000332061F086E00E946E0E892B39F06AE039
:1038400070E080E090E00E947E0F312C86E00E94C4
:103850006E0E892B09F07DCF31107BCFA0908E04A6
:10386000F6E0FA9D50011124C5018B529E4F5C0178
:10387000EA81FB81E80FF91F50820E9411166AE06D
:1038800070E080E090E00E947E0FEA81FB8131963B
:10389000FB83EA83F9E04F0E8DE248123ACFF5013F
:1038A00015820F900F900F90DF91CF911F910F9184
:1038B000FF90EF90DF90CF90BF90AF909F908F9050
:1038C0007F906F905F904F903F902F900895089554
:1038D00090E080E00895FC0101900020E9F7319725
:1038E000AF01481B590BBC0186EE94E00C94BC0F51
:1038F0008F929F92AF92BF920F931F93CF93DF93BC
:10390000CDB7DEB7A1970FB6F894DEBF0FBECDBF1F
:1039100019A2423008F44AE08E010F5D1F4F842E39
:10392000912CB12CA12CA50194010E94B42AE62F60
:10393000B901CA01EA30F4F4E05DD801EE938D01DB
:10394000232B242B252B79F790E080E0109719F09A
:10395000CD010E946B1CA1960FB6F894DEBF0FBE7E
:10396000CDBFDF91CF911F910F91BF90AF909F90EE
:103970008F900895E95CE1CF4F925F926F927F92B2
:103980008F929F92AF92BF92CF92DF92EF92FF926F
:103990000F931F93CF936B017C01742EAC019B019D
:1039A0000E94232D882399F081E292E0CF911F910C
:1039B0000F91FF90EF90DF90CF90BF90AF909F90CE
:1039C0008F907F906F905F904F900C946B1C46018E
:1039D0005701E894B7F82FEF3FEF4FE75FE7C501D6
:1039E000B4010E94232D81110DC02FEF3FEF4FE74F
:1039F0005FE7C501B4010E94522B18161CF485E242
:103A000092E0D4CF2FEF3FEF4FE75FE4C701B6015D
:103A10000E94B12C18161CF489E292E0C7CF2FEF58
:103A20003FEF4FE75FECC701B6010E94522B87FDC5
:103A3000F3CF20E030E0A901C701B6010E94522B6C
:103A400010E000E087FF08C08DE20E945E1B8C0141
:103A5000F7FAF094F7F8F094C0E060E070E080E0EE
:103A60009FE37C1641F020E030E040E251E40E9408
:103A7000572BCF5FF6CFA70196010E94E62A2B01B4
:103A80003C010E94D02B4B015C014AE00E94781C53
:103A90007C01E00EF11ECC23B1F1C501B4010E94FE
:103AA000FF2B9B01AC01C301B2010E94E52A4B012F
:103AB0005C018EE20E945E1BE80EF91EC15018F1F7
:103AC00020E030E040E251E4C501B4010E94B62C90
:103AD0002B013C010E94D02B4B01B12CA12C4AE0C0
:103AE000C501B4010E94781CE80EF91EC501B4019D
:103AF0000E94FF2B9B01AC01C301B2010E94E52A89
:103B00004B015C01DBCFC701CF911F910F91FF905B
:103B1000EF90DF90CF90BF90AF909F908F907F906D
:103B20006F905F904F9008957F928F929F92AF9287
:103B3000BF92CF92DF92EF92FF920F931F93CF939A
:103B4000DF937C0186E00E946E0E11E0892B09F064
:103B500010E091E4C92E9EE0D92E00E22AE0722EF8
:103B6000C0918004D0918104D595C7950E94A11081
:103B70004E01B12CA12C8FE49EE00E94F80DD09252
:103B80000005C092FF04F7014081518160E080E0B0
:103B90000E94481210922105009322058AE192E0CA
:103BA0000E946B1C7092210500932205209779F5E5
:103BB00088E690E00E94431B0E94D4108111DBCF65
:103BC000112361F086E00E946E0E892B39F06AE0C5
:103BD00070E080E090E00E947E0F10E086E00E949E
:103BE0006E0E892B09F0BCCF1111BACF0E941116AD
:103BF000CE01DF91CF911F910F91FF90EF90DF9059
:103C0000CF90BF90AF909F908F907F9008954AE0A3
:103C1000C501B4010E94781C8DE292E00E946B1CE9
:103C2000F70182819381009739F20E946B1CC4CF07
:103C30001F93CF93DF93EC01162F0E94742A18175D
:103C400039F0612FCE01DF91CF911F910C947C2A26
:103C5000DF91CF911F910895AF92BF92CF92DF92E3
:103C6000EF92FF920F931F93CF93DF9360918B019D
:103C700082E090E00E94181E60918A0183E090E04B
:103C80000E94181E6091850184E090E00E94181E39
:103C90006091840185E090E00E94181E60917F0190
:103CA00086E090E00E94181E6091D30187E090E0CA
:103CB0000E94181E6091D20188E090E00E94181EB8
:103CC0006091D10189E090E00E94181E60919104FA
:103CD0008AE090E00E94181E609176048BE090E0EC
:103CE0000E94181E6091B2018CE090E00E94181EA4
:103CF00060918E048DE090E00E94181E60916C012E
:103D00008EE090E00E94181E8FE0E82EF12C10E06B
:103D100006E080916C011817B8F5109F600111241E
:103D2000D0E0C0E0FE01EC0DFD1DEB52FE4F6081C6
:103D3000C7018C0F9D1F0E94181E2196C630D10509
:103D400089F7670186E0C80ED11C88E0189FE00162
:103D50001124C45DDE4F8EE0E80EF11C69812296CD
:103D6000C6010E94181E560182E0A80EB11CFE0179
:103D700032976081C60101960E94181E6501AE143B
:103D8000BF0461F71F5FC5CFDF91CF911F910F91E6
:103D9000FF90EF90DF90CF90BF90AF9008958F92FB
:103DA0009F92AF92BF92CF92DF92EF92FF92CF930A
:103DB0008FEF90E00E94010F83ED9EE00197F1F7F5
:103DC0008EE00E94CD15BC0190E080E00E94FF2BA8
:103DD0004B015C018AE00E946E0E9091620498177C
:103DE00029F091E090938D04809362048091090101
:103DF0009FEF980F90930901811106C00E94FB1557
:103E00009093900480938F04609192047091930436
:103E100080919404909195040E94C92BCB010E943B
:103E2000010FC0906A04D0906B04E0906C04F09095
:103E30006D04A7019601C501B4010E94E52A2DEC8D
:103E40003CEC4CE45DE30E94B62CA70196010E9475
:103E5000E62A60936A0470936B0480936C049093D9
:103E60006D040E94711A6091990470919A0490E017
:103E700080E00E94FF2B6B017C0120919B0430911C
:103E80009C0440919D0450919E040E94522B8111EC
:103E9000B5C02091890430918A0440918B045091DF
:103EA0008C04C701B6010E94E52A6B017C0120E069
:103EB00030E0A9010E94B12C18160CF095C020E04A
:103EC00030E040EA50E4C701B6010E94B12C181658
:103ED0000CF494C0609187047091880490E080E0B5
:103EE0000E94FF2B2091890430918A0440918B0419
:103EF00050918C040E94E52A6B017C0120E030E0A7
:103F0000A9010E94B12C18160CF087C0C701B60198
:103F10000E94D02B6530710508F083C080910502A6
:103F2000811105C08091D40181110E94111681E098
:103F3000809305021092D4018091990490919A0483
:103F4000853F21E0920710F01092080120910801AE
:103F5000211140C0843F9140E8F58FEF90E00E942E
:103F6000010F0E941116C1E0C09308010E94801643
:103F70000E942C1EC0938D048EE00E94CD15BC01C2
:103F800090E080E00E94FF2B60936A0470936B04C2
:103F900080936C0490936D0410927F048091870449
:103FA000909188042CE231E03093750420937404DE
:103FB00020E233E030937304209372042AE030E06F
:103FC0003093710420937004880F991F909381049B
:103FD00080938004CF91FF90EF90DF90CF90BF90BF
:103FE000AF909F908F90089520E030E040EA50EC31
:103FF000C701B6010E94522B87FF6CCF60918904E4
:1040000070918A0480918B0490918C040E94D02B33
:1040100070939A04609399045DCFC701B6019058DC
:1040200077CF1092050288CF0C94742A1F920F92BA
:104030000FB60F9211242F933F938F939F93AF93BB
:10404000BF938091A0049091A104A091A204B0918B
:10405000A30430919F0423E0230F2D3758F50196D8
:10406000A11DB11D20939F048093A0049093A104EF
:10407000A093A204B093A3048091A4049091A504FA
:10408000A091A604B091A7040196A11DB11D809333
:10409000A4049093A504A093A604B093A704BF9191
:1040A000AF919F918F913F912F910F900FBE0F90E5
:1040B0001F90189526E8230F0296A11DB11DD2CF9F
:1040C0001F920F920FB60F9211242F933F934F938D
:1040D0005F936F937F938F939F93EF93FF9383B13E
:1040E000817029B190916904981709F49DC030E05E
:1040F000220F232F221F330B922F809369044091AC
:104100006804241709F490C0209368042091700477
:1041100030917104981719F031952195310940912A
:104120008004509181046091740470917504240F8F
:10413000351F261737070CF48BC02091700430917F
:104140007104981719F03195219531094091800437
:10415000509181046091720470917304240F351F93
:10416000621773070CF46FC0409170045091710492
:10417000981719F05195419551092091800430917B
:104180008104240F351F309381042093800441E083
:10419000981340E020916704421709F440C0209131
:1041A000700430917104981719F0319521953109F7
:1041B0006091800470918104E0917404F091750421
:1041C000260F371F2E173F070CF44CC020917004A8
:1041D00030917104981719F031952195310960914A
:1041E000800470918104E0917204F0917304260FB1
:1041F000371FE217F3078CF120917004309171049E
:10420000981719F03195219531098091800490918A
:104210008104820F931F90938104809380044093C4
:10422000670481E080938D04FF91EF919F918F91BE
:104230007F916F915F914F913F912F910F900FBEA2
:104240000F901F90189520917204309173049BCFAA
:10425000209174043091750496CF809172049091EE
:104260007304D9CF8091740490917504D4CF1895BC
:10427000CF93DF93CDB7DEB72D970FB6F894DEBF9F
:104280000FBECDBF789484B5826084BD84B5816053
:1042900084BD85B5826085BD85B5816085BD809111
:1042A0006E00816080936E00109281008091810089
:1042B0008260809381008091810081608093810081
:1042C000809180008160809380008091B100846043
:1042D0008093B1008091B00081608093B0008091A4
:1042E0007A00846080937A0080917A008260809363
:1042F0007A0080917A00816080937A0080917A00C0
:10430000806880937A001092C10060E08EE00E9485
:10431000C50E60E08FE00E94C50E61E085E00E945E
:10432000C50E61E089E00E94C50E62E087E00E9450
:10433000C50E62E088E00E94C50E62E086E00E9441
:10434000C50E62E08AE00E94C50E8FEF90E00E94E9
:10435000010F60E085E00E94970E80917A008760EF
:1043600080937A0080917A00886080937A007894B4
:1043700081E080936B00809368008BBB8091F50493
:10438000883209F0B6C08FEF80930A0590E080E094
:104390000E941420182F81E090E00E941420912F99
:1043A0008C36974E09F0B5C082E090E00E94142050
:1043B000182F83E090E00E941420912F90938B019E
:1043C00080938A0184E090E00E941420182F85E0F9
:1043D00090E00E941420912F909385018093840196
:1043E00086E090E00E94142080937F0187E090E0B7
:1043F0000E9414208093D30188E090E00E94142052
:104400008093D20189E090E00E9414208093D10132
:104410008AE090E00E941420809391048BE090E069
:104420000E94142091E0811101C090E090937604E5
:104430008CE090E00E94142091E0811101C090E096
:104440009093B2018DE090E00E94142080938E043E
:104450008EE090E00E941420282E80936C01FCE2F4
:104460008F2EF1E09F2EA5EDAA2EA1E0BA2EBFE07F
:10447000EB2EF12C312C231409F457C010E000E08E
:10448000C701800F911F0E941420F501E00FF11F5A
:1044900080830F5F1F4F0630110591F7670136E0EB
:1044A000C30ED11C6EE0E60EF11C3401C6010E9461
:1044B0001420082F10E0102F0027D3010D931C9318
:1044C0002601B2E04B0E511CC60101960E94142039
:1044D000082BF301019311933F0162014E145F0415
:1044E00029F73394F8E08F0E911C26E0A20EB11C40
:1044F000C2CF823011F483E047CF813009F444CF3A
:10450000803309F043CF8FEF80930A0580930B052A
:104510003DCF67EE90E080E00E94181E6CE681E0DF
:1045200090E00E94181E0E942C1E0E94531590932A
:104530006F0480936E040E94FB1590939004809307
:104540008F0400918A0110918B01109388040093CD
:1045500087048EE00E94CD15BC0190E080E00E94AF
:10456000FF2B60936A0470936B0480936C049093A8
:104570006D040E948F150E94711A20E030E040EA1D
:1045800051E46091890470918A0480918B04909128
:104590008C040E94E62A6B017C01B80190E080E067
:1045A0000E94FF2B9B01AC01C701B6010E94522B58
:1045B00087FF04C090E080E00E94010F1092DC04AD
:1045C0001092DD041092DE041092DF04412C512C75
:1045D0007FE7672E73E4772E4092E0045092E10467
:1045E0006092E2047092E304A090C804B090C90401
:1045F0008091E404D501CD90DD90ED90FC9088236E
:1046000009F449C6A3019201C701B6010E94B12C69
:10461000181634F5F50140825182628273828090CF
:10462000D0049090D104A090D204B090D304C09054
:10463000E004D090E104E090E204F090E304A701EC
:104640009601C501B4010E94B12C1816CCF4C09299
:10465000D004D092D104E092D204F092D30420C0CE
:1046600020E030E0A901C701B6010E94522B87FF6C
:10467000D6CFD5011D921D921D921C921397CFCFBC
:10468000C090DC04D090DD04E090DE04F090DF0404
:10469000A7019601C501B4010E94522B87FDD7CF17
:1046A00081E08093E40483B181708093690489B1CF
:1046B00090E0880F892F881F990B809368042091C0
:1046C00069049091680481E0291380E08093670475
:1046D0008CE291E0909375048093740480E293E0FF
:1046E00090937304809372048AE090E09093710435
:1046F00080937004000F111F1093810400938004B5
:104700000E94B00F609383047093840480938504A7
:10471000909386040E9411160E941116E091800465
:10472000F0918104FA87E987F595E795FC87EB8797
:10473000F0938804E093870486E00E946E0E8D87D4
:1047400081119BC080917F04882309F496C00E9448
:1047500011160E94B00F6B017C01C0927B04D092B5
:104760007C04E0927D04F0927E0486E00E946E0E4E
:10477000892B59F40E94B00F6C197D098E099F098D
:10478000643F71408105910580F30E94B00F6C1960
:104790007D098E099F09643F71408105910508F4E8
:1047A0000DC58FEF90E00E94010F0E94111610E0DE
:1047B0003AE0232E312C412F62E18FEB91E00E94F1
:1047C0004917182F8730A8F5E82FF0E0E651FC4D87
:1047D0000C94382D03243127AF271C282A2834288D
:1047E000422820E030E0A901C701B6010E94522B07
:1047F00087FF56CF1092D0041092D1041092D204A9
:104800001092D3044DCF90E2792E20E3622E412FF7
:104810006EE08DE691E00E944917182F823009F46E
:10482000B1C208F059C1882309F482C1813009F46A
:1048300082C10E942C1E81E080938D04AB85BC85D3
:10484000B0938804A09387048CE291E09093750460
:104850008093740480E293E09093730480937204D5
:104860008AE090E0909371048093700489859A8522
:104870008E7F9093810480938004BD85B0937F04E4
:1048800080919604882309F11091D1011123E9F058
:104890000E94B00FC0907704D0907804E090790423
:1048A000F0907A046C197D098E099F0928EE33E097
:1048B00040E050E00E94B42A211738F0109296048C
:1048C0000E94111681E08093D40180918D04882389
:1048D000E9F180919704882349F120E030E040EA33
:1048E00051E46091890470918A0480918B049091C5
:1048F0008C040E94E62A6B017C0160918704709110
:10490000880490E080E00E94FF2B9B01AC01C7016E
:10491000B6010E94522B87FF04C090E080E00E9405
:10492000010F0E94111681E08093D40110928D0432
:1049300010929704109298040E94B00F6093830421
:104940007093840480938504909386040E94B00F32
:104950000091830410918404209185043091860491
:10496000601B710B820B930B20E63AEE40E050E0A7
:104970000E94B42A122F20938204809197048111FF
:104980000BC08091D301882339F0281728F081E0EB
:10499000809397040E9411168091980481110BC096
:1049A0008091D201882339F0181728F081E0809394
:1049B00098040E9411160E94CF1E0E9444180E9463
:1049C000A11001E41EE088E2D82E93E5F92E2FE035
:1049D000C22E34E1B32E44E3E42E56E0A52E65E268
:1049E000962E76E1872E8FE49EE00E94F80D1093BC
:1049F00000050093FF044AE352E060E080E00E947B
:104A00004812D09221051092220560919B0470916A
:104A10009C0480919D0490919E0440E00E94BC1CE7
:104A2000F0922105109222058091990490919A04A8
:104A3000853F914008F4D8C382E691E00E94431B71
:104A400080919104882309F401C460918F047091CE
:104A5000900490E080E00E94FF2B20E030E04AE7E5
:104A600054E40E94572B2B013C0110922105E09247
:104A7000220580918E048A9DC00111248B529E4F85
:104A80000E946B1CF0922105E092220541E0C301D7
:104A9000B2010E94BC1C8CE391E00E94431B80EA9F
:104AA0009AE00E94F80D109300050093FF04909285
:104AB0002105809222056091990470919A0488E3FF
:104AC00091E0653FF1E07F0708F0D7C390E080E018
:104AD0004AE00E94781CD3C3833009F456C1843065
:104AE00009F0A7CE80916C01883008F0B7C191E041
:104AF000980F90936C0180938E040E94631BE09149
:104B00008E04B8E0EB9FF0011124E45DFE4F28ED28
:104B100030E03183208384E391E093838283A6E8AD
:104B2000B1E0B583A4832EE130E0378326836FCED6
:104B30000E9480166CCECE0101962C01C12CD12C86
:104B40007601C39481E4282E8EE0382EE0918E0405
:104B500094E0E99FF0011124C6010197E80FF91FC5
:104B6000EE0FFF1FE45DFE4F8081918190938804DA
:104B700080938704A8ECB0E0B0937504A09374040C
:104B8000E8EEF3E0F0937304E093720421E030E088
:104B90003093710420937004880F991F90938104BF
:104BA0008093800431E03093D40186E00E946E0E41
:104BB00001E0892B09F000E00E94CF1E0E944418FA
:104BC0000E94A1108FE49EE00E94F80D3092000533
:104BD0002092FF0481E091E00E9471121092210561
:104BE00060E1609322058AEF90E00E94431B4AE057
:104BF000C701B6010E94781C8FE292E00E946B1CF4
:104C0000809105021092210570922205882309F4F3
:104C10009DC08DEE90E00E94431B10922105609292
:104C2000220586EE90E00E94431B809180049091C3
:104C30008104959587954C01092E000CAA08BB08A4
:104C400097FF80C08DE20E945E1B66277727CB010D
:104C5000681979098A099B094AE00E94781C0E9418
:104C6000D4108111AFCF002361F086E00E946E0E58
:104C7000892B39F06AE070E080E090E00E947E0FBE
:104C800000E086E00E946E0E892B09F095CF01119D
:104C900093CF809180049091810495958795D2015E
:104CA0008D939D932D010E9411166AE070E080E0C3
:104CB00090E00E947E0FBFEFCB1ADB0AEB0AFB0AE3
:104CC000E4E0CE16D104E104F10409F03FCF8FEF08
:104CD00090E00E94010F83ED9EE00197F1F70E94A2
:104CE0008F150E94D02B1B0178876F83A980BA8013
:104CF000EB80FC80C5010A968E159F0508F087CDD4
:104D0000CD80DE80C7010A968C159D0508F07FCD09
:104D100040E066E080E191E00E944917882309F4B1
:104D200076CDE0918E0428E0E29FF0011124E45D4D
:104D3000FE4FB182A082F382E282D582C4823782A2
:104D4000268265CD4AE0C501B40187CF8FED90E0A2
:104D50000E94431B60916A0470916B0480916C0403
:104D600090916D040E94D02B90E080E04AE00E9478
:104D7000781C109221056092220580ED90E00E943F
:104D8000431B6DCF0E94631B42CD80916C0181302B
:104D900029F486E191E00E942F1639CD40E066E0CB
:104DA0008EE191E00E944917882309F430CD80916B
:104DB0008E0490916C01A92FA150BB0BAD0106E0B0
:104DC0008A171B0639F4815080938E04915090937A
:104DD0006C011DCDE82FF0E0E417F507BCF7809FCC
:104DE0007001112430E020E05F01BFEFAB1ABB0A75
:104DF000B9016E0D7F1D6B527E4FDB011696DC9064
:104E00001697DC922F5F3F4F2630310589F7D50189
:104E100023E0AA0FBB1F2A95E1F7A45DBE4F2D9199
:104E20003C91119763E0EE0FFF1F6A95E1F7E45D97
:104E3000FE4F3183208312962D913C91139733833B
:104E4000228314962D913C911597358324831696D1
:104E50002D913C91378326838F5FBCCF84E291E014
:104E60009ACF00E048E2442E512C50E9652E772479
:104E700073946CE2862E9924939470E2A72E73E0CB
:104E8000B72EE4E1CE2ED12CF8ECEF2EF12C402FF2
:104E90006AE08CE891E00E944917082F813009F4FC
:104EA0003FC0F8F0823009F086CC80917F0190E01D
:104EB000D0927504C0927404F0927304E09272046C
:104EC0003092710420927004880F991F909381048E
:104ED000809380048BE791E00E94941D80937F0172
:104EE000D6CF80918A0190918B0190927504809227
:104EF0007404B0927304A0927204309271042092F0
:104F00007004880F991F909381048093800486E831
:104F100091E00E94941D90938B0180938A01B7CFFA
:104F2000809184019091850150927504409274049F
:104F30007092730460927204309271042092700433
:104F4000880F991F909381048093800480E891E0FA
:104F50000E94941D909385018093840198CF00E076
:104F6000402F6AE082EA91E00E944917082F8130C1
:104F700009F442C008F1823009F01DCC8091D101C2
:104F800090E01092750410927404E8E6F1E0F0935A
:104F90007304E09372043092710420927004880FBD
:104FA000991F909381048093800486E991E00E9488
:104FB000941D8093D101D4CF8091D30190E01092C1
:104FC000750410927404ACE3B0E0B0937304A09342
:104FD0007204E1E0F0E0F0937104E0937004880F54
:104FE000991F90938104809380048EE991E00E9440
:104FF000941D8093D301B4CF8091D20190E01092A0
:1050000075041092740428E730E030937304209301
:105010007204A5E0B0E0B0937104A0937004880F0F
:10502000991F90938104809380048AE991E00E9403
:10503000941D8093D20194CF4091760466E089EB71
:1050400091E00E94491791E0811101C090E0909396
:105050007604B1CB4091910466E083EB91E00E942D
:10506000491780939104A7CB4091B20166E08CEA86
:1050700091E00E94491791E0811101C090E0909366
:10508000B20199CB86E00E946E0E01E0892B09F0F7
:1050900000E00E94531590936F0480936E04BC014E
:1050A00090E080E00E94FF2B20E030E04AE754E4EB
:1050B0000E94572B6B017C010E94FB15909390047A
:1050C00080938F04BC0190E080E00E94FF2B20E0E1
:1050D00030E04AE754E40E94572B4B015C010E94E8
:1050E0008F152B013C010E94A1108FE49EE00E94CD
:1050F000F80D21E43EE0309300052093FF04109268
:1051000021051092220589E291E00E94431B85E36C
:1051100092E00E946B1C1092210530E13093220531
:1051200083E291E00E94431B41E0C301B2010E946F
:10513000BC1C80E291E00E94431B1092210560E2BA
:10514000609322058AE191E00E94431B41E0C50182
:10515000B4010E94BC1C87E191E00E94431B1092A5
:10516000210580E38093220580E191E00E94431BAA
:1051700041E0C701B6010E94BC1C8DE091E00E9495
:10518000431B0E94D4108111B0CF002361F086E050
:105190000E946E0E892B39F06AE070E080E090E0AA
:1051A0000E947E0F00E086E00E946E0E892B09F0BF
:1051B00070CF01116ECF0E941116FDCA8091960426
:1051C00091E0892780939604882351F00E94B00FC4
:1051D00060937704709378048093790490937A04B1
:1051E00081E080938D0449CB80919804882319F045
:1051F0008CE591E023CC80919704882319F086E513
:1052000091E01CCC80919604882319F080E591E010
:1052100015CC80910502882319F08AE491E00ECC28
:1052200020E030E044E353E46091920470919304F1
:1052300080919404909195040E94522B87FF03C0A3
:1052400084E491E0FBCB8EE391E0F8CB82EC91E03B
:105250000E94F80D109300050093FF04C0922105F1
:10526000B09222056091990470919A04653F21E003
:10527000720708F42BCC84E391E00E94431B0E9448
:10528000D4108111B0CB80E090E0892B09F446CA9C
:105290000E94000043CAC092D004D092D104E09290
:1052A000D204F092D304E091C604F091C704808147
:1052B0009181A281B3818093D4049093D504A0936B
:1052C000D604B093D70420E030E04FE753E4C701A1
:1052D000B6010E94B12C18160CF083CA4092D0047B
:1052E0005092D1046092D2047092D304D9C90F9322
:1052F0001F93CF9382E994E09093C9048093C804EC
:1053000083E694E09093C7048093C6048BE994E00D
:105310009093CB048093CA041092E4041092DC04AE
:105320001092DD041092DE041092DF0480E090E021
:10533000AFE7B3E48093E0049093E104A093E20428
:10534000B093E30484E690E0A0E0B0E08093D8045A
:105350009093D904A093DA04B093DB0481E090E049
:105360009093C3048093C2049093C5048093C404B3
:10537000C1E0C093E50480E090E0A0E3B1E4809355
:10538000AA049093AB04A093AC04B093AD0480E066
:1053900090E0A0E0BFE38093AE049093AF04A093AD
:1053A000B004B093B10480E090E0A0E8BFE3809344
:1053B000B2049093B304A093B404B093B50480E016
:1053C00090E0A0E3B1EC8093B6049093B704A0936F
:1053D000B804B093B9048DEC9CECACE4BDEB8093C5
:1053E000BA049093BB04A093BC04B093BD0480E0C6
:1053F00090E0A0E2B1EC8093BE049093BF04A09330
:10540000C004B093C1040E94B00F0091D804109161
:10541000D9042091DA043091DB04601B710B820BFC
:10542000930B6093CC047093CD048093CE0490933F
:10543000CF041092E9041092E8048AE092E090937D
:10544000E7048093E6041092210510922205109241
:1054500023051092EF041092EE041092F1041092C2
:10546000F0041092F304C093F20482E28093F404F7
:105470001092F9041092F804EDE0F5E08BE195E06C
:105480002FEF21938E179F07E1F781E080930A05A4
:1054900026EF3DE0309300052093FF048093010543
:1054A000109202051092030580E480930405109287
:1054B000050589EE9FE090931C0580931B058AE00B
:1054C00091E09093ED048093EC0482E180931805C1
:1054D0000E943B108AE092E09093E7048093E604F8
:1054E000CF911F910F910895F999FECF92BD81BD83
:1054F000F89A992780B50895262FF999FECF1FBAFB
:1055000092BD81BD20BD0FB6F894FA9AF99A0FBEEC
:1055100001960895052E97FB1EF400940E94A12A7F
:1055200057FD07D00E94B42A07FC03D04EF40C9418
:10553000A12A50954095309521953F4F4F4F5F4F91
:10554000089590958095709561957F4F8F4F9F4FEF
:1055500008950E94D62AA59F900DB49F900DA49FF8
:10556000800D911D11240895A1E21A2EAA1BBB1BC8
:10557000FD010DC0AA1FBB1FEE1FFF1FA217B3071F
:10558000E407F50720F0A21BB30BE40BF50B661F35
:10559000771F881F991F1A9469F7609570958095F9
:1055A00090959B01AC01BD01CF010895A29FB00170
:1055B000B39FC001A39F700D811D1124911DB29F47
:1055C000700D811D1124911D08955058BB27AA27E5
:1055D0000E94FD2A0C94772C0E94692C38F00E94BE
:1055E000702C20F039F49F3F19F426F40C94662CAB
:1055F0000EF4E095E7FB0C94602CE92F0E94882CB8
:1056000058F3BA17620773078407950720F079F4F7
:10561000A6F50C94AA2C0EF4E0950B2EBA2FA02D13
:105620000B01B90190010C01CA01A0011124FF274F
:10563000591B99F0593F50F4503E68F11A16F0404A
:10564000A22F232F342F4427585FF3CF4695379549
:105650002795A795F0405395C9F77EF41F16BA0B0E
:10566000620B730B840BBAF09150A1F0FF0FBB1FBC
:10567000661F771F881FC2F70EC0BA0F621F731F05
:10568000841F48F4879577956795B795F7959E3F62
:1056900008F0B0CF9395880F08F09927EE0F9795F3
:1056A000879508950E943C2C08F481E008950E949B
:1056B0006B2B0C94772C0E94702C58F00E94692C54
:1056C00040F029F45F3F29F00C94602C51110C94A8
:1056D000AB2C0C94662C0E94882C68F39923B1F3B0
:1056E000552391F3951B550BBB27AA276217730708
:1056F000840738F09F5F5F4F220F331F441FAA1F9C
:10570000A9F335D00E2E3AF0E0E832D09150504057
:10571000E695001CCAF72BD0FE2F29D0660F771F05
:10572000881FBB1F261737074807AB07B0E809F0EB
:10573000BB0B802DBF01FF2793585F4F3AF09E3F70
:10574000510578F00C94602C0C94AB2C5F3FE4F383
:10575000983ED4F3869577956795B795F7959F5FB3
:10576000C9F7880F911D9695879597F90895E1E0FF
:10577000660F771F881FBB1F621773078407BA075E
:1057800020F0621B730B840BBA0BEE1F88F7E095B9
:1057900008950E94D02B6894B1110C94AB2C0895FD
:1057A0000E94902C88F09F5798F0B92F9927B751F5
:1057B000B0F0E1F0660F771F881F991F1AF0BA95B5
:1057C000C9F714C0B13091F00E94AA2CB1E008953D
:1057D0000C94AA2C672F782F8827B85F39F0B93F2F
:1057E000CCF3869577956795B395D9F73EF4909568
:1057F0008095709561957F4F8F4F9F4F0895E894E6
:1058000009C097FB3EF490958095709561957F4F08
:105810008F4F9F4F9923A9F0F92F96E9BB279395B6
:10582000F695879577956795B795F111F8CFFAF4C6
:10583000BB0F11F460FF1BC06F5F7F4F8F4F9F4FF7
:1058400016C0882311F096E911C0772321F09EE855
:10585000872F762F05C0662371F096E8862F70E0BB
:1058600060E02AF09A95660F771F881FDAF7880F95
:105870009695879597F90895990F0008550FAA0BEB
:10588000E0E8FEEF16161706E807F907C0F0121653
:105890001306E407F50798F0621B730B840B950B56
:1058A00039F40A2661F0232B242B252B21F40895AB
:1058B0000A2609F4A140A6958FEF811D811D089548
:1058C00097F99F6780E870E060E008959FEF80ECB3
:1058D000089500240A941616170618060906089556
:1058E00000240A9412161306140605060895092EBC
:1058F0000394000C11F4882352F0BB0F40F4BF2B2B
:1059000011F460FF04C06F5F7F4F8F4F9F4F08956A
:1059100057FD9058440F551F59F05F3F71F0479560
:10592000880F97FB991F61F09F3F79F08795089545
:10593000121613061406551FF2CF4695F1DF08C064
:10594000161617061806991FF1CF86957105610581
:1059500008940895E894BB2766277727CB0197F929
:1059600008950E943C2C08F48FEF08950E94C92CE2
:105970000C94772C0E94692C38F00E94702C20F037
:10598000952311F00C94602C0C94662C11240C942B
:10599000AB2C0E94882C70F3959FC1F3950F50E0BB
:1059A000551F629FF001729FBB27F00DB11D639FD1
:1059B000AA27F00DB11DAA1F649F6627B00DA11D77
:1059C000661F829F2227B00DA11D621F739FB00D1D
:1059D000A11D621F839FA00D611D221F749F33278D
:1059E000A00D611D231F849F600D211D822F762F26
:1059F0006A2F11249F5750409AF0F1F088234AF003
:105A0000EE0FFF1FBB1F661F771F881F915050406E
:105A1000A9F79E3F510580F00C94602C0C94AB2CA0
:105A20005F3FE4F3983ED4F3869577956795B795F5
:105A3000F795E7959F5FC1F7FE2B880F911D96950F
:105A4000879597F908950E943C2C880B990B08952F
:105A5000DB018F939F930E94A92ABF91AF91A29FD0
:105A6000800D911DA39F900DB29F900D112408955C
:105A7000EE0FFF1F0590F491E02D0994F894FFCFED
:105A8000084000000080E20301FF281400014A13CF
:105A90003F025002530257025F026A0276028002FE
:105AA0005002530257028F029B02AA02D80034010F
:105AB00086011E0000000000000000000000000041
:105AC00000000000000000000000000000000000D6
:105AD00000000000000000000000000000000000C6
