:100000000C94F70C0C941F0D0C941F0D0C944C0DBC
:100010000C941F0D0C941F0D0C941F0D0C941F0DB0
:100020000C941F0D0C941F0D0C941F0D0C941F0DA0
:100030000C941F0D0C941F0D0C941F0D0C941F0D90
:100040000C94721F0C941F0D0C941F0D0C941F0D1B
:100050000C941F0D0C94D10D0C941F0D0C941F0DBE
:100060000C941F0D0C941F0D622460244F245627FE
:1000700064276E277C2753656C6563742054697010
:1000800000506C6561736520776169742E2E2E00B7
:100090004144433A20200074656D703A2000536556
:1000A00074206D6561737572656400537465703A90
:1000B000200043616C6962726174696F6E00205642
:1000C000005663633A20200020560056696E3A209D
:1000D00000204300546D703A20004669726D7761CC
:1000E00072653A2000303030003030300056002049
:1000F000484F4C4400204845415400574F524B59FB
:1001000000424F4F535400534C4545500020204F60
:100110004646004552524F520000574DFBF12A000F
:100120000000002A3A002BF82A001717452507146B
:100130000082000383800F83E01FC7E00FC7E00742
:10014000C7C003EF8001EF0000FE00F8FE3EFFFF96
:10015000FEFFFFFEFFFFFEFE7CFE80FE0201EF00C1
:1001600003EF8007EFC007C7C00FC7E01F83F0078A
:1001700083C00183002323AF3B0C000001E000009B
:100180000001E000000001E000000001E0000000CC
:1001900001E000000001E000000001E000000001BB
:1001A000E000000001E000000001E000000001E0CC
:1001B00000000001E000000001E000000001E0009C
:1001C000000001E000000001E00000FFFFFFFFE091
:1001D000FFFFFFFFE0FFFFFFFFE0FFFFFFFFE0008B
:1001E00001E000000001E000000001E0000000016B
:1001F000E000000001E000000001E000000001E07C
:1002000000000001E000000001E000000001E0004B
:10021000000001E000000001E000000001E000003B
:100220000001E000000001E000000C0F1E1203F8C6
:100230000FF00FF00FE01FE01FC01FC03F803F8096
:100240003F007F007E007E007C00FC00FC000F0869
:100250001013020BFFFEFFFEFFFEFFFEFFFEFFFE80
:10026000FFFEFFFE080808120600FFFFFFFFFFFF6A
:10027000FFFF132E8A1903FD0007E00007E00007C7
:10028000C0000FC0000FC0000F80001F80001F8043
:10029000001F80001F00003F00003F00003E0000E4
:1002A0007E00007E00007C0000FC0000FC0000FCE2
:1002B0000000F80001F80001F80001F00003F00070
:1002C00003F00003F00007E00007E00007E000078C
:1002D000C0000FC0000FC0000F80001F80001F80F3
:1002E000001F80003F00003F00003F00003E000074
:1002F0007E00007E00007C0000FC0000FC0000FC92
:1003000000001D2CB02102FF001FC00000FFF800FC
:1003100003FFFC0007FFFF000FFFFF800FFFFF80C0
:100320001FF0FFC03FC03FC03FC03FE03F801FE025
:100330007F801FF07F001FF07F000FF07F000FF025
:10034000FF000FF0FF000FF8FF000FF8FF000FF89D
:10035000FF000FF8FF000FF8FF000FF8FF000FF885
:10036000FF000FF8FF000FF8FF000FF8FF000FF875
:10037000FF000FF8FF000FF8FF000FF87F000FF0ED
:100380007F000FF07F000FF07F001FF07F801FF0D5
:100390003F801FE03FC03FE03FC03FC01FF0FFC0B5
:1003A0000FFFFF800FFFFF0007FFFF0003FFFE00AE
:1003B00000FFF800001FC000122A7E210600003F47
:1003C000C0007FC000FFC003FFC00FFFC03FFFC0E1
:1003D000FFFFC0FFFFC0FFFFC0FF3FC0FE3FC0F8F0
:1003E0003FC0E03FC0003FC0003FC0003FC0003FF3
:1003F000C0003FC0003FC0003FC0003FC0003FC042
:10040000003FC0003FC0003FC0003FC0003FC000F1
:100410003FC0003FC0003FC0003FC0003FC0003FA2
:10042000C0003FC0003FC0003FC0003FC0003FC011
:10043000003FC0003FC0003FC0003FC01D2BAC21AB
:100440000200000FF000007FFE0001FFFF0003FF2D
:10045000FF8007FFFFC00FFFFFE01FF83FF01FF016
:100460001FF01FE00FF03FC007F83FC007F83FC084
:1004700007F8000007F8000007F800000FF8000078
:100480000FF000001FF000001FF000003FE0000030
:100490007FE00000FFC00001FF800003FF80000735
:1004A000FF00000FFE00001FFC00003FF800007F6F
:1004B000F00000FFE00001FF800003FF00000FFEDE
:1004C00000001FFC00003FF000007FE00000FFC0C4
:1004D0000000FFFFFFF8FFFFFFF8FFFFFFF8FFFF3F
:1004E000FFF8FFFFFFF8FFFFFFF8FFFFFFF81C2CEE
:1004F000B02103FF007FC00003FFF80007FFFC00EE
:100500001FFFFF003FFFFF003FFFFF807FE0FFC0B6
:100510007FC07FC0FF803FC0FF001FE0FF001FE0E3
:10052000FF001FE000001FE000001FE000001FE0D0
:1005300000003FC000007FC00003FF80007FFF007D
:10054000007FFC00007FF000007FF800007FFE00CD
:10055000007FFF800000FFC000003FE000001FE0C0
:1005600000001FE000000FF000000FF000000FF08F
:10057000FF000FF0FF000FF0FF000FF0FF001FE083
:10058000FF801FE07FC03FE07FE0FFC03FFFFF80B4
:100590003FFFFF001FFFFE000FFFFC0003FFF800FE
:1005A000007FC0001F2AA82101000001FFC0000138
:1005B000FFC00003FFC00007FFC00007FFC0000F1F
:1005C000FFC0000FFFC0001FFFC0003FFFC0003F83
:1005D000BFC0007F3FC000FF3FC000FE3FC001FE24
:1005E0003FC001FC3FC003F83FC007F83FC007F021
:1005F0003FC00FF03FC01FE03FC01FC03FC03FC023
:100600003FC03F803FC07F803FC0FF003FC0FF0032
:100610003FC0FFFFFFFEFFFFFFFEFFFFFFFEFFFFEC
:10062000FFFEFFFFFFFEFFFFFFFEFFFFFFFE0000DC
:100630003FC000003FC000003FC000003FC00000BE
:100640003FC000003FC000003FC000003FC00000AE
:100650003FC01D2BAC2102FF7FFFFFE07FFFFFE0CB
:100660007FFFFFE07FFFFFE07FFFFFE07FFFFFE016
:100670007FFFFFE07F8000007F8000007F80000020
:100680007F8000007F8000007F8000007F8000006E
:100690007F8000007F87F8007F9FFE007FFFFF8044
:1006A0007FFFFFC07FFFFFC07FFFFFE07FF03FF0D5
:1006B0007FC01FF07F800FF07F800FF87F0007F86A
:1006C000000007F8000007F8000007F8000007F82E
:1006D000000007F8000007F0FF000FF0FF000FF028
:1006E000FF001FF0FF803FE07FE0FFC07FFFFFC003
:1006F0003FFFFF801FFFFF000FFFFC0003FFF8001C
:10070000007FC0001D2CB02102FF000FF000007F11
:10071000FC0000FFFF0003FFFF8007FFFFC007FF93
:10072000FFE00FFC3FE01FF00FF01FE00FF03FC0B5
:1007300007F83FC007F83F8000007F8000007F80FF
:1007400000007F8000007F000000FF03F800FF1F13
:10075000FE00FF3FFF00FF7FFF80FFFFFFC0FFFFA6
:10076000FFE0FFF83FF0FFE01FF0FFC00FF0FFC019
:100770000FF8FF8007F8FF8007F8FF8007F8FF8079
:1007800007F8FF8007F87F8007F87F8007F87F80F1
:1007900007F07FC00FF03FC00FF03FE01FE01FF8F1
:1007A0003FE01FFFFFC00FFFFF8007FFFF0003FFB9
:1007B000FE0000FFF800003FC0001C2AA821030033
:1007C000FFFFFFF0FFFFFFF0FFFFFFF0FFFFFFF075
:1007D000FFFFFFF0FFFFFFF0FFFFFFF000000FF053
:1007E00000000FF000001FF000001FE000003FE0DD
:1007F00000003FC000007FC000007FC00000FF80FD
:100800000000FF800001FF000001FF000001FE006A
:100810000003FE000003FE000007FC000007FC00D0
:10082000000FF800000FF800001FF800001FF00094
:10083000001FF000003FE000003FE000007FC0002C
:10084000007FC00000FFC00000FF800001FF8000AB
:1008500001FF000003FF000003FF000003FE000093
:1008600007FE000007FC00001D2CB02102FF003F26
:10087000F00001FFFE0007FFFF800FFFFFC01FFF1A
:10088000FFE03FFFFFF03FF87FF07FE01FF07FE0E9
:100890001FF87FC00FF87FC00FF87FC00FF87FC030
:1008A0000FF87FC00FF83FE01FF03FE01FF01FF888
:1008B0007FE00FFFFFC007FFFF0001FFFC0000FF0C
:1008C000F80003FFFE000FFFFF801FFFFFC03FF097
:1008D0003FE07FE01FE07FC00FF07FC00FF0FF80A0
:1008E00007F8FF8007F8FF8007F8FF8007F8FF8010
:1008F00007F8FF8007F8FFC00FF8FFC00FF87FE090
:100900001FF07FF03FF07FFFFFE03FFFFFE01FFFA2
:10091000FFC00FFFFF8003FFFE00007FF0001D2CD3
:10092000B02102FF001FC00000FFF80003FFFE001F
:1009300007FFFF000FFFFF801FFFFF803FE0FFC0AA
:100940003FC03FE07F801FE07F801FE07F000FF00F
:10095000FF000FF0FF000FF0FF000FF0FF000FF897
:10096000FF000FF8FF000FF8FF000FF8FF801FF8DF
:100970007F801FF87FC03FF87FE0FFF83FFFFFF860
:100980001FFFFFF81FFFF7F80FFFE7F803FFC7F897
:1009900000FE07F0000007F000000FF000000FF06D
:1009A00000000FF000000FE07F801FE07F801FE05D
:1009B0003F803FC03FC07FC03FE0FF801FFFFF8000
:1009C0000FFFFF0007FFFE0003FFFC0001FFF00028
:1009D000003FC000081D1D130800FFFFFFFFFFFFC1
:1009E000FFFF00000000000000000000000000FF0A
:1009F000FFFFFFFFFFFFFF00121A00001803700344
:100A000090207F001A0018000000000B0000FFFF7C
:100A1000FFFFFFFFFFFFFFFF11103013010601C0B2
:100A20000001C00001C00001C00001C00001C00001
:100A300001C000FFFF80FFFF8001C00001C0000176
:100A4000C00001C00001C00001C00001C0000708D3
:100A5000080B03023E3E3E3E3EF0F0F00902040B5E
:100A6000010DFF80FF800505050B0502F8F8F8F879
:100A7000F8FF111848130102FFFF80FFFF80C00339
:100A800080C00380C00380C00380C00380C0038097
:100A9000C00380C00380C00380C00380C00380C047
:100AA0000380C00380C00380C00380C00380C003F4
:100AB00080C00380C00380FFFF80FFFF80FFFF80B6
:100AC000061818130702FCFC1C1C1C1C1C1C1C1CFC
:100AD0001C1C1C1C1C1C1C1C1C1C1C1C1C1C111865
:100AE00048130102FFFF80FFFF80000380000380A6
:100AF0000003800003800003800003800003800067
:100B00000380000380FFFF80FFFF80C00000C00063
:100B100000C00000C00000C00000C00000C0000015
:100B2000C00000FFFF80FFFF80FFFF801118481307
:100B30000102FFFF80FFFF800003800003800003AD
:100B40008000038000038000038000038000038096
:100B50000003801FFF801FFF8000038000038000D0
:100B600003800003800003800003800003800003F3
:100B700080FFFF80FFFF80FFFF80111848130102F4
:100B8000C00380C00380C00380C00380C00380C056
:100B90000380C00380C00380C00380C00380C00303
:100BA00080FFFF80FFFF8000038000038000038040
:100BB00000038000038000038000038000038000A6
:100BC0000380000380000380111848130102FFFF17
:100BD00080FFFF80C00000C00000C00000C0000017
:100BE000C00000C00000C00000C00000C00000FF46
:100BF000FF80FFFF8000038000038000038000036C
:100C000080000380000380000380000380FFFF80DA
:100C1000FFFF80FFFF80111848130102FFFF80FFD4
:100C2000FF80C00000C00000C00000C00000C00085
:100C300000C00000C00000C00000C00000FFFF8036
:100C4000FFFF80C00380C00380C00380C00380C05A
:100C50000380C00380C00380C00380FFFF80FFFFCC
:100C600080FFFF80101830130202FFFFFFFF000714
:100C7000000700070007000700070007000700073C
:100C8000000700070007000700070007000700072C
:100C900000070007000700070007111848130102AA
:100CA000FFFF80FFFF80C00380C00380C00380C0BF
:100CB0000380C00380C00380C00380C00380C003E2
:100CC00080FFFF80FFFF80C00380C00380C00380DF
:100CD000C00380C00380C00380C00380C00380FFC6
:100CE000FF80FFFF80FFFF80111848130102FFFF04
:100CF00080FFFF80C00380C00380C00380C00380EA
:100D0000C00380C00380C00380C00380C00380FF95
:100D1000FF80FFFF8000038000038000038000034A
:100D200080000380000380000380000380FFFF80B9
:100D3000FFFF80FFFF800510100B0502F8F8F8F8A0
:100D4000F8000000000000F8F8F8F8F80710100BA1
:100D500003023E3E3E3E3E0000003E3E3E3E3EF032
:100D6000F0F0FFFFFFFFFFFFFFFFFFFFFFFFFFFFB1
:100D7000FFFFFFFFFFFFFFFFFFFFFFFFFFFFFFFF83
:100D8000FFFFFFFFFFFFFFFFFFFFFFFFFFFFFFFF73
:100D9000FFFFFFFFFFFFFFFFFFFFFFFFFFFFFFFF63
:100DA000FFFFFFFFFFFF446561637469766174654F
:100DB0006400456E74657220546970204E616D65E3
:100DC00000FFE0FFD1AFFF32FFD0FFFEFFE0FFD119
:100DD000AEFFD0FFFEFFE0FFD11000FFFEFFD0FF0F
:100DE000E0FFC1FFD1AED580A83FD300408D1420D5
:100DF00000A1C8DA1281CFD9F1DB402EA4A6AFFF43
:100E0000D0FFFE00000000240027002A00000000A0
:100E100000250028002B00000000002300260029E8
:100E20000004040404040404040202020202020393
:100E3000030303030301020408102040800102049D
:100E40000810200102040810200000000800020120
:100E50000000030407000000000000000000090F6C
:100E600000FD0A01E803D820FFFD0CFD0BFD00008A
:100E70000009000C010B0B09040080808080808039
:100E80008000008080040303090307909090060807
:100E9000080901014848FC4848FC4848070B0B0971
:100EA00001FF107C929050381412927C10070A0AAD
:100EB00009010042A4A4481010244A4A84070A0ADF
:100EC000090100609090906062948894620103032D
:100ED000090407808080030C0C0903FF2040408038
:100EE0008080808080404020030C0C0903FF8040FC
:100EF00040202020202020404080070707090103D0
:100F0000109254385492100707070901011010106D
:100F1000FE1010100205050904FDC0C04040800706
:100F20000101090104FE020202090400C0C0070A0F
:100F30000A09010002040408101020404080070A3A
:100F40000A09010038448282828282824438070A78
:100F50000A090100103050901010101010FE070AFE
:100F60000A0901007C8282040810204080FE070AE2
:100F70000A090100FE0204081C020202827C070A20
:100F80000A090100040C14244484FE040404070A22
:100F90000A090100FE8080BCC2020202827C070AAC
:100FA0000A0901003C408080BCC28282827C070A20
:100FB0000A090100FE020404080810102020070A94
:100FC0000A09010038448244384482824438070ABE
:100FD0000A0901007C828282867A02020478020772
:100FE00007090400C0C0000000C0C0020A0A0904CA
:100FF000FDC0C0000000C0C0404080050A0A0902D0
:1010000000081020408080402010080704040901D7
:1010100002FE0000FE050A0A0902008040201008B6
:101020000810204080070A0A0901007C828202041D
:101030000810100010070A0A0901007C82829EA293
:10104000A69A80807C070A0A09010010284482823F
:1010500082FE828282070A0A090100F8848284F8EB
:1010600084828284F8070A0A0901007C82808080D9
:10107000808080827C070A0A090100F884828282CB
:1010800082828284F8070A0A090100FE808080F8C3
:1010900080808080FE070A0A090100FE808080F8B7
:1010A0008080808080070A0A0901007C828080801D
:1010B0008E8282827C070A0A09010082828282FE75
:1010C0008282828282050A0A090200F820202020FA
:1010D00020202020F8080A0A0901001F0404040443
:1010E0000404048478070A0A09010082848890E0D5
:1010F000A090888482070A0A09010080808080808D
:1011000080808080FE070A0A0901008282C6AAAA9E
:101110009292828282070A0A0901008282C2A29206
:101120008A86828282070A0A0901007C8282828280
:10113000828282827C070A0A090100FC828282FC88
:101140008080808080070C0C0901FE7C8282828274
:101150008282A2927C0806070A0A090100FC8282A8
:1011600082FC9088848282070A0A0901007C8282BC
:1011700080700C0282827C070A0A090100FE1010AE
:1011800010101010101010070A0A09010082828244
:101190008282828282827C070A0A0901008282821C
:1011A00044444428282810070A0A09010082828240
:1011B0008292929292AA44070A0A0901008282440A
:1011C00028101028448282070A0A090100828244FA
:1011D00028101010101010070A0A090100FE02045E
:1011E000081020408080FE040C0C0903FFF0808072
:1011F0008080808080808080F0070A0A090100805A
:10120000404020101008040402040C0C0902FFF0F6
:1012100010101010101010101010F0070404090125
:1012200006102844820801010900FFFF0303030997
:1012300003088040200707070901007C02027E8224
:10124000867A070A0A090100808080BCC2828282F5
:10125000C2BC0707070901007C82808080827C076E
:101260000A0A0901000202027A86828282867A07CD
:1012700007070901007C8282FE80807C070A0A0938
:1012800001001C22222020F820202020070A0A0921
:1012900001FD7A84848478807C82827C070A0A0932
:1012A0000100808080BCC28282828282050A0A0993
:1012B0000200600000E02020202020F8060D0D092B
:1012C00001FD0C00001C04040404048484847807D9
:1012D0000A0A090100808080828CB0C0B08C82052F
:1012E0000A0A090200E02020202020202020F80700
:1012F0000707090100EC9292929292820707070970
:101300000100BCC282828282820707070901007C39
:1013100082828282827C070A0A0901FDBCC2828223
:1013200082C2BC808080070A0A0901FD7A86828217
:1013300082867A0202020707070901009C62424086
:101340004040400707070901007C82807C02827CC4
:101350000709090901002020FC20202020221C0769
:1013600007070901008484848484847A07070709B5
:1013700001008282444428281007070709010082DF
:1013800082929292AA44070707090100824428101A
:10139000284482060A0A0901FD84848484848C74AA
:1013A000048478070707090100FE0408102040FEA6
:1013B000050C0C0903FF3840404020C0C0204040CD
:1013C0004038010C0C0904FF808080808080808080
:1013D00080808080050C0C0901FFE010101020189F
:1013E0001820101010E007030309010762928CFF18
:1013F000FFFFFFFFFFFFFFFFFFFFFFFFFFFFFFFFFD
:10140000FFFFFFFFFFFFFFFFFFFFFFFFFFFFFFFFEC
:1014100000000009000C010B0B0904008080000093
:101420008080808080808006080809010008789408
:1014300090A0A47840070A0A0901001C222020F885
:10144000202060A25C070606090103827C44447CDC
:1014500082070A0A090100828244287C107C10104D
:1014600010010B0B0904FF80808080800080808049
:101470008080040B0B0902FF609080609090906068
:10148000109060050202090209888808090909000C
:10149000013C4299A5A1A599423C05070709010312
:1014A000609070907800F80708080901011224483C
:1014B0009090482412060404090102FC0404040567
:1014C0000101090204F80809090900013C42B9A513
:1014D000B9A9A5423C060101090109FC040404095B
:1014E000030660909060070909090101101010FEC1
:1014F00010101000FE0406060901046090106080C0
:10150000F0040606090104609020109060030303B4
:101510000903082040800709090901FE82828282AE
:1015200082C6BA8080070A0A0901007E8A8A8A7AFE
:101530000A0A0A0A0A020202090404C0C0040303D8
:101540000902FD30906003060609010440C04040D6
:1015500040E00506060901047088887000F8070855
:10156000080901019048241212244890070A0A0928
:10157000010040C0404042E60A121A06070A0A0962
:10158000010040C040404CF2020C101E070A0A093C
:1015900001006090201092660A121A06070A0A09D2
:1015A00001001000101020408082827C070C0C0982
:1015B00001004020100038448282FE828282070CA3
:1015C0000C0901000408100038448282FE828282E5
:1015D000070C0C0901001028440038448282FE8266
:1015E0008282070B0B090100629C0038448282FE54
:1015F000828282070B0B0901004444003844828236
:10160000FE828282070B0B0901003844382844828D
:1016100082FE828282070A0A0901006E90909090F1
:10162000FC9090909E070D0D0901FD7C82808080CA
:10163000808080827C184830070C0C090100402013
:101640001000FE404078404040FE070C0C090100AD
:1016500004081000FE404078404040FE070C0C0992
:10166000010010284400FE404078404040FE070B37
:101670000B090100444400FE404078404040FE0514
:101680000C0C09020080402000F82020202020209F
:10169000F8050C0C09020008102000F8202020207A
:1016A0002020F8050C0C09020020508800F82020AA
:1016B00020202020F8050B0B090200888800F82064
:1016C0002020202020F8080A0A0900007C4241411D
:1016D000E1414141427C070B0B090100629C008201
:1016E000C2A292928A8682070C0C09010040201047
:1016F000007C8282828282827C070C0C09010004B9
:101700000810007C8282828282827C070C0C090194
:1017100000102844007C8282828282827C070B0B2C
:10172000090100629C007C8282828282827C070B9B
:101730000B0901004444007C8282828282827C0701
:10174000070709010182442810284482070C0C096C
:1017500001FF027C868A8A9292A2A2C27C80070C38
:101760000C09010040201000828282828282827CE9
:10177000070C0C0901000408100082828282828218
:10178000827C070C0C0901001028440082828282AE
:101790008282827C070B0B09010044440082828212
:1017A000828282827C070C0C0901000408100082EE
:1017B00082442810101010070A0A0901008080FCDA
:1017C000828282FC808080060A0A09010038444433
:1017D00048D04844444458070B0B09010020100826
:1017E000007C02027E82867A070B0B090100040846
:1017F00010007C02027E82867A070B0B0901001022
:101800002844007C02027E82867A070A0A090100C7
:10181000324C007C02027E82867A070A0A090100A5
:101820004444007C02027E82867A070B0B09010089
:10183000182418007C02027E82867A0707070901B5
:10184000006C92127C90926E070A0A0901FD7C825C
:10185000808080827C184830070B0B0901004020F3
:1018600010007C8282FE80807C070B0B0901000443
:101870000810007C8282FE80807C070B0B0901002F
:10188000102844007C8282FE80807C070A0A0901BD
:10189000004444007C8282FE80807C050B0B0902A0
:1018A0000080402000E02020202020F8050B0B09BC
:1018B000020010204000E02020202020F8060B0B22
:1018C000090100205088007010101010107C050ACB
:1018D0000A090200909000E02020202020F8070B49
:1018E0000B090100483050087C82828282827C078A
:1018F0000A0A090100629C00BCC2828282828207BD
:101900000B0B090100402010007C82828282827CC5
:10191000070B0B090100040810007C82828282827E
:101920007C070B0B090100102844007C8282828214
:10193000827C070A0A090100629C007C8282828202
:10194000827C070A0A0901004444007C8282828268
:10195000827C07090909010010381000FE001038C8
:10196000100709090901FF027C8A8A92A2A27C80E1
:10197000070B0B09010040201000848484848484B8
:101980007A070B0B09010004081000848484848406
:10199000847A070B0B090100102844008484848496
:1019A00084847A070A0A09010048480084848484F0
:1019B00084847A060E0E0901FD08102000848484B8
:1019C00084848C74048478070C0C0901FD80808069
:1019D000BCC28282C2BC808080060D0D0901FD4818
:1019E000480084848484848C740484787C28112442
:1019F0001FBECFEFD8E0DEBFCDBF13E0A0E0B1E067
:101A0000E8E9F8E502C005900D92AA3DB107D9F7C3
:101A100025E0AAEDB3E001C01D92AB31B207E1F7BA
:101A20001CE0C7EFDCE004C02197FE010E943F2CC0
:101A3000C63FD107C9F70E94BC1F0C944A2C0C94D6
:101A40000000089580E090E00895DF92EF92FF9209
:101A50000F931F93CF93DF93EC01D62E1CAD0BADEC
:101A60007C0184E0E80EF11CE98DFA8DC70109952F
:101A7000412F480F2D2D602FC7010E94E9179BAD04
:101A8000890F8BAF81E090E0DF91CF911F910F9193
:101A9000FF90EF90DF9008951F920F920FB60F9274
:101AA00011242F933F934F935F936F937F938F9363
:101AB0009F9393B1917089B1881F8827881F2091C7
:101AC000DC03921709F460C09093DC032091DB03E0
:101AD000821709F459C08093DB032091E30330910E
:101AE000E403981719F03195219531094091E903E4
:101AF0005091EA036091E7037091E803240F351FCA
:101B0000261737078CF12091E3033091E4039817EF
:101B100019F03195219531094091E9035091EA037B
:101B20006091E5037091E603240F351F6217730778
:101B3000B4F0981749F02091E3033091E40344276F
:101B40005527421B530B04C04091E3035091E4031B
:101B50002091E9033091EA03240F351F09C0209139
:101B6000E5033091E60304C02091E7033091E803D8
:101B70003093EA032093E90321E0981320E02093B7
:101B8000DA0381E08093F1039F918F917F916F91B0
:101B90005F914F913F912F910F900FBE0F901F902B
:101BA0001895189580917A00806980937A008EE468
:101BB00080937C0061E070E080E090E00E94DB1E9A
:101BC00083B7817F826083BF80E120E030E093B7FC
:101BD000916093BF889593B79E7F93BF90917A0051
:101BE00096FDFCCF4091780050917900240F351F6D
:101BF000815069F780917A008F7780937A0084E032
:101C0000369527958A95E1F740E050E064EB7BE25A
:101C100081E190E00E949129C901089580917A00A4
:101C2000806980937A0088EC80937C0064E170E0A6
:101C300080E090E00E94DB1E83B7817F826083BFDB
:101C400080E260E070E093B7916093BF889593B7AE
:101C50009E7F93BF90917A0096FDFCCF20917800F3
:101C600030917900620F731F815069F780917A007B
:101C70008F7780937A00769567957695679562520F
:101C80007A4080E090E00E94062B26EF38E24CE19B
:101C900051E40E945E2A089590917A009069909391
:101CA0007A008E3008F08E508F70806480937C00B4
:101CB00083B7817F826083BF20E280E090E033B70A
:101CC000316033BF889533B73E7F33BF30917A00A0
:101CD00036FDFCCF4091780050917900840F951F1C
:101CE000215069F720917A002F7720937A0025E020
:101CF000969587952A95E1F708958FE00E944C0EFE
:101D0000A091E103B091E2039C010E94DD290E94B1
:101D1000082B28E539E743E353E40E945E2A0E943A
:101D2000D72ACB0108958F929F92AF92BF92CF9204
:101D3000DF92EF92FF921F93CF93DF9360917B012D
:101D400082E090E00E94C51960917A0183E090E002
:101D50000E94C5196091750184E090E00E94C51948
:101D60006091740185E090E00E94C51960916F0157
:101D700086E090E00E94C5196091C40187E090E080
:101D80000E94C5196091C30188E090E00E94C519C6
:101D90006091C20189E090E00E94C5196091F5034D
:101DA0008AE090E00E94C5196091AF018BE090E05D
:101DB0000E94C5196091A2018CE090E00E94C519B3
:101DC0006091F2038DE090E00E94C51960915C0182
:101DD0008EE090E00E94C5198FE0E82EF12C10E013
:101DE00080915C011817B0F586E0189F60011124FE
:101DF000C0E0D0E0F601EC0FFD1FEA53FE4F60811A
:101E0000C7018C0F9D1F0E94C5192196C630D105B0
:101E100089F7670186E0C80ED11C88E0189FE001B1
:101E20001124C45EDE4F8EE0E80EF11C6981C6010C
:101E30000E94C519460182E0880E911C6881229695
:101E4000C60101960E94C51964018E149F0471F7A2
:101E50001F5FC6CFDF91CF911F91FF90EF90DF9072
:101E6000CF90BF90AF909F908F9008950F931F9346
:101E7000CF938091A201882399F0CFEF0FEE11E06C
:101E800061E085E00E94161EC8010197F1F760E04D
:101E900085E00E94161EC8010197F1F7C15081F735
:101EA000CF911F910F9108952F923F924F925F9281
:101EB0006F927F928F929F92AF92BF92CF92DF925A
:101EC000EF92FF920F931F93CF93DF9300D01F9257
:101ED000CDB7DEB7412C1B821A820FE110E060E221
:101EE000262E8A81898386E00E94ED1D3324339457
:101EF000892B09F0312C1093E8030093E70380E667
:101F000090E09093E6038093E50381E090E0909366
:101F1000E4038093E30381E490E09093EA038093E9
:101F2000E90320E6E22EF12CCC24C394D12C40E22C
:101F3000842E912C5FE5A52EB12C8091E903909120
:101F4000EA03582E9FE1591213C01093E80300933F
:101F5000E703F092E603E092E503D092E403C09237
:101F6000E303B092EA03A092E9039FE5592E15C05E
:101F700080E6581212C01093E8030093E703F09232
:101F8000E603E092E503D092E403C092E30390926B
:101F9000EA038092E90380E2582E0E94901A8DE5B0
:101FA0009EE00E94961C85ED95E19093F604809347
:101FB000F50482EB9DE00E94EC1A4092170590E335
:101FC000909318058EE50E94E31C1092170520924D
:101FD0001805612C712C8981681688F48091F203B0
:101FE000F30196E0989FE00DF11D1124EA53FE4F96
:101FF00080810E94E31C8FEF681A780AECCF409230
:10200000170520921805852D0E94E31C0E94EE1BE7
:102010008111C5CF332029F086E00E94ED1D892B68
:1020200049F486E00E94ED1D892B09F086CF31101E
:1020300084CF08C06AE070E080E090E00E94DB1E80
:10204000312CEFCF8091F203EA81FB8196E0989FDB
:10205000E00DF11D1124EA53FE4F50820E94360F0D
:102060006AE070E080E090E00E94DB1E8A819B8144
:1020700001969B838A8399E0490E8DE2481231CF05
:10208000E091F20396E0E99FF0011124EA53FE4F3C
:1020900015820F900F900F90DF91CF911F910F91AC
:1020A000FF90EF90DF90CF90BF90AF909F908F9078
:1020B0007F906F905F904F903F902F9008954F9238
:1020C0005F926F927F92BF92CF92DF92EF92FF92D8
:1020D0000F931F93CF93DF937C0186E00E94ED1D49
:1020E000C1E0892B09F0C0E085EDC82E85E1D82E2E
:1020F000D0E29AE0B92E0091E9031091EA030E9420
:10210000901A2801612C712C8DE59EE00E94961C8E
:10211000D092F604C092F504F7014081518160E04D
:1021200080E00E94C31A10921705D093180582E12F
:1021300092E00E94281CB0921705D0931805011553
:10214000110529F486EA9DE00E947B1C0EC04AE03E
:10215000C301B2010E943A1C8CEC93E00E94281C3F
:10216000F701828193810E94281C0E94EE1B81113D
:10217000CBCFCC2329F086E00E94ED1D892BC9F43A
:1021800086E00E94ED1D892B09F0B5CFC111B3CFB8
:102190000E94360FC801DF91CF911F910F91FF90E0
:1021A000EF90DF90CF90BF907F906F905F904F90B7
:1021B00008956AE070E080E090E00E94DB1EC0E0DD
:1021C000DFCF2F923F924F925F926F927F928F92CA
:1021D0009F92AF92BF92CF92DF92EF92FF920F93B6
:1021E0001F93CF93DF9300D000D0CDB7DEB77C0133
:1021F000D42EFC01A080B18077247394411101C0DA
:10220000712C70E075956795362E8D2D90E062509B
:1022100071091092E8031092E7037093E60360934C
:10222000E50321E030E03093E4032093E30390934F
:10223000EA038093E90386E00E94ED1D662463941F
:10224000892B09F470C0612C6EC08330910514F0A5
:1022500082E090E0782E0E94901AC72C072C000C88
:10226000DD08C6010196E82FE295E07FEA838B81C5
:102270009C8101969C838B83242C27188DE59EE0FE
:102280000E94961CE5EDF5E1F093F604E093F50469
:10229000F7014081518160E080E00E94C31AF8E9B3
:1022A000AF16F2E0BF0661F44091F20326E0249FEE
:1022B000A00111244A535E4F60E086E30E94C31AD6
:1022C00042E152E06A8180E00E94C31A8B809C80C8
:1022D0008C189D0880E1898355245394822D850DA7
:1022E000831558F4F401EE0FFF1FEE0DFF1D408122
:1022F000518169818CE00E94C31A53949FEF891A1F
:10230000990AE981E05FE983F4E05F12E7CF0E9478
:10231000EE1B8111B3CF611019C086E00E94ED1D44
:10232000892BD1F0D02E0091E9031091EA03402EC1
:10233000C80199279C838B83870D911D77FC9A9503
:102340008D19910997FF81CF712C85CF86E00E946E
:10235000ED1D892BE9F4E1CF6110E4CF0E94360F27
:10236000842D0F900F900F900F90DF91CF911F91C0
:102370000F91FF90EF90DF90CF90BF90AF909F9024
:102380008F907F906F905F904F903F902F90089527
:102390006AE070E080E090E00E94DB1E612CBDCF1F
:1023A0003F924F925F926F927F928F929F92AF92E5
:1023B000BF92CF92DF92EF92FF920F931F93CF9332
:1023C000DF93CDB7DEB72E970FB6F894DEBF0FBE02
:1023D000CDBF8091FC03882349F01092FF03109237
:1023E0000004109201041092020421C08091FB03AA
:1023F000882329F060917401709175010CC080915F
:10240000FA036091EB037091EC03882321F0809133
:102410006F01680F711D80E090E00E94062B6093B1
:10242000FF03709300048093010490930204809052
:10243000FF0390900004A0900104B0900204C090AB
:10244000ED03D090EE03E090EF03F090F003A701CE
:102450009601C501B4010E94EC292B013C0120E04A
:1024600030E0A9010E94B82B18161CF4C301B20178
:1024700003C0C301B20190580E94D72A8091AF01D6
:10248000882309F46DC1C0929204D0929304E09223
:102490009404F09295046E31710548F4E12CF12C0E
:1024A00000EA10E420E030E040E450E408C0E12C11
:1024B000F12C00E81FE320E030E040E05FE360E063
:1024C00070E080E391E40E94121B8091DA0488237B
:1024D00009F46BC10E94661F6D837E838F8398878A
:1024E0008091C2049091C304A091C404B091C5042A
:1024F0004D815E816F817885481B590B6A0B7B0B80
:102500008091CE049091CF04A091D004B091D104D9
:10251000481759076A077B0708F447C1E091BC04D4
:10252000F091BD0480819181A281B38189839A83D6
:10253000AB83BC83E091C004F091C1049C01AD0168
:1025400060817181828193810E94EC294B015C0141
:102550002091CA043091CB044091CC045091CD0419
:1025600069817A818B819C810E94EC296B017C01BD
:102570002091B0043091B1044091B2045091B30461
:10258000C501B4010E94BD2B2091C6043091C7043F
:102590004091C8045091C9040E94ED292B013C01CF
:1025A0006093C6047093C7048093C8049093C904D1
:1025B0003090DB0431101AC02091AC043091AD048E
:1025C0004091AE045091AF04C701B6010E94BD2BEB
:1025D0009B01AC01C301B2010E94EC296093C604C7
:1025E0007093C7048093C8049093C9044090C604B4
:1025F0005090C7046090C8047090C9041091D6042C
:102600009091D7049E87A091D804AD870091D904FA
:10261000212F392F4A2F502FC301B2010E94B82B0E
:1026200018162CF4812F9E85AD85B02F18C080918F
:10263000D2049091D304A091D404B091D504898799
:102640009A87AB87BC879C01AD01C301B2010E9490
:10265000592A87FF0CC089859A85AB85BC858093F4
:10266000C6049093C704A093C804B093C904332050
:1026700079F02091AC043091AD044091AE045091BA
:10268000AF04C501B4010E94BD2B4B015C0103C026
:10269000812C912C54012091B4043091B5044091C7
:1026A000B6045091B704C701B6010E94BD2B9B012F
:1026B000AC016091C6047091C7048091C8049091E8
:1026C000C9040E94EC29A50194010E94ED296B0127
:1026D0007C019B01AC01612F7E858D85902F0E942E
:1026E000592A87FD18C01091D2049091D3049E8777
:1026F000A091D404AD870091D504212F392F4A2F02
:10270000502FB601C7010E94592A87FD04C01C2D15
:10271000DE86ED860F2DE091BE04F091BF04812F7F
:102720009E85AD85B02F80839183A283B3838981F9
:102730009A81AB81BC818093CA049093CB04A0930F
:10274000CC04B093CD048D819E81AF81B8858093F8
:10275000C2049093C304A093C404B093C50425C0DD
:1027600020E030E040E05FE3C701B6010E94ED29C0
:102770009B01AC01C501B4010E94B82B18164CF4A2
:102780001092F6031092F7031092F8031092F903D7
:102790000CC080E090E0AFE7B3E48093F603909341
:1027A000F703A093F803B093F9036091F6037091D7
:1027B000F7038091F8039091F9030E94D02ACB018E
:1027C0002E960FB6F894DEBF0FBECDBFDF91CF912E
:1027D0001F910F91FF90EF90DF90CF90BF90AF903F
:1027E0009F908F907F906F905F904F903F900C9450
:1027F000811E8F929F92AF92BF92CF92DF92EF9203
:10280000FF92CF93DF93C090DD03D090DE03E09082
:10281000DF03F090E00320E030E04CE853E4C70130
:10282000B6010E94592AC091F20387FF17C088E0C1
:10283000C89FE0011124C45EDE4F88809980A12CDE
:10284000B12CC701B6010E94D02A9B01AC01285CC3
:102850003109410951098A819B8116C088E0C89FCE
:10286000E0011124C45EDE4F8A809B80A12CB12C34
:10287000C701B6010E94D02A9B01AC01285131400A
:10288000410951098C819D81A0E0B0E0BC01CD01DE
:10289000681979098A099B090E942F2C20E530E0EC
:1028A00040E050E00E949129CA01B901680D791DEC
:1028B0008A1D9B1D0E94082B6093ED037093EE030D
:1028C0008093EF039093F003DF91CF91FF90EF900F
:1028D000DF90CF90BF90AF909F908F9008958F9290
:1028E0009F92AF92BF92CF92DF92EF92FF928FEFC3
:1028F00090E00E94811E8BEA94E00197F1F78EE050
:102900000E944C0E7C018AE00E94ED1D9091910482
:10291000891729F091E09093F103809391048091BD
:10292000FF019FEF980F9093FF01811106C00E9455
:102930007D0E9093F4038093F3036091F6037091FE
:10294000F7038091F8039091F9030E94D02ACB01FC
:102950000E94811E8090DD039090DE03A090DF0333
:10296000B090E003B70180E090E00E94062BA50143
:1029700094010E94EC292DEC3CEC4CE45DE30E94B8
:10298000BD2BA50194010E94ED296093DD03709396
:10299000DE038093DF039093E0030E94F9136091BC
:1029A000FD037091FE0380E090E00E94062B6B0116
:1029B0007C012091FF03309100044091010450916B
:1029C00002040E94592A81112AC02091ED033091FE
:1029D000EE034091EF035091F003C701B6010E944E
:1029E000EC296B017C0120E030E0A9010E94B82BAA
:1029F00018165CF420E030E040E450E4C701B60172
:102A00000E94B82B18165CF018C020E030E040E4BB
:102A100050ECC701B6010E94592A87FF0EC0609191
:102A2000ED037091EE038091EF039091F0030E940B
:102A3000D72A7093FE036093FD036091EB037091BE
:102A4000EC0380E090E00E94062B2091ED03309192
:102A5000EE034091EF035091F0030E94EC296B01CB
:102A60007C0120E030E0A9010E94B82B18161CF46C
:102A7000C701B60103C0C701B60190580E94D72A0A
:102A80006530710578F48091F601811105C080915F
:102A9000C50181110E94360F81E08093F6011092EA
:102AA000C50102C01092F601FF90EF90DF90CF9029
:102AB000BF90AF909F908F900895CF92DF92EF924A
:102AC000FF920F931F93CF93DF936C017A018B01D9
:102AD000C0E0D0E0CE15DF0581F0D8016D918D0109
:102AE000D601ED91FC910190F081E02DC601099590
:102AF000892B11F02196EECF7E01C701DF91CF9196
:102B00001F910F91FF90EF90DF90CF90089508955F
:102B1000DC011696ED91FC91179712968C91481B4B
:102B2000477081E090E001C0880F4A95EAF7E60F10
:102B3000F11D3081222311F0832B02C08095832365
:102B400080830895FB014181DC0112962C9112973C
:102B5000421768F013962C911397241740F0608168
:102B600015962C91621718F424810C9488150895F9
:102B7000FC0130819281930F92832181921760F43E
:102B800094819F5F94838381830F821710F08FEF6E
:102B9000820F838381E0089580E00895FC01128212
:102BA00080818150838314820895FC01808D8F5F22
:102BB000089580E008950B96FC01849108950A968B
:102BC000FC0184910895FC01849108950E94E3150D
:102BD000882321F0823011F083E0089586E0089583
:102BE000FC01E60FF11D849190E0982F8827319623
:102BF000E4918E0F911D089568E00C94F01566E045
:102C00000C94F0152EE93FE0009729F0F901319777
:102C1000F1F70197F9CF08951092960408958093E3
:102C20009F041092B90084FF02C08CE001C088E4C8
:102C30008093B8000C940C16DB011496ED91FC9176
:102C4000159720E030E065E00994DB011496ED91E2
:102C5000FC91159720E030E062E00994DB011496C6
:102C6000ED91FC91159720E030E063E00994CF925C
:102C7000DF92EF92FF920F931F93CF93DF938C011C
:102C80007B016A0180E0F601C49181110BC0CF3F46
:102C900009F44CC04C2FB701C8010E941C168111C9
:102CA00043C049C0CF3F11F44FEFF5CFCE3F09F4F9
:102CB00044C0C03FC8F5C03E38F04C2F4F70B7013C
:102CC000C8010E94251630C0C03D38F04C2F4F700F
:102CD000B701C8010E942E1627C0C03CF8F0D701EA
:102CE0001496ED91FC91159720E030E040E064E00F
:102CF000C8010995C295C07FCE5FD0E0CE010E9489
:102D00000216D7011496ED91FC91159720E030E062
:102D100041E064E0C8010995CE0104C0C7FD04C0CC
:102D20008C2F90E00E94021680E001C081E0BFEF8E
:102D3000CB1ADB0AA8CF80E001C081E0DF91CF9100
:102D40001F910F91FF90EF90DF90CF900895AF9279
:102D5000BF92CF92DF92FF920F931F93CF93DF9397
:102D60006C018B01F42EE90120E1421709F466C0E1
:102D70002417F8F03AE0431721F18FE0481368C0B8
:102D800041E0C6010E942E1640E0B801C6010E9433
:102D9000251641E8B801C6010E941C164881B801F9
:102DA000C6010E941C1640E0B801C6010E942E1602
:102DB000FFC0A1E14A1709F444C0B5E14B1791F0F7
:102DC00047C0DB011496ED91FC91159720E030E0AF
:102DD00042E061E009954DED5DE0B801C6010E9459
:102DE000371636C0FB01A280B38045ED5DE00E943E
:102DF0003716D50114964C91406BB801C6010E945C
:102E00001C1641E0B801C6010E942516F501268175
:102E10003781D8011496ED91FC911597D50115963F
:102E20004C9166E0C6010995811102C080E0C1C0E5
:102E300040E0B801C6010E942E160AC04CEC5DE0CD
:102E400002C041EC5DE0B801C6010E943716B0C077
:102E5000F80102811381F2E3FF1609F470C0FF1537
:102E6000B8F025E1F21609F477C037E1F31609F45A
:102E700089C084E1F8129CC0D8011696ED91FC91AE
:102E8000179715968C919F01280F311DC9015CC0C1
:102E9000A6E4FA1609F485C0B7E4FB1609F484C069
:102EA000EBE3FE1285C089819B81913029F093303C
:102EB00031F4482F885004C048E0480F01C0482F23
:102EC00051E0D80113962C91281708F450E031E016
:102ED000F8012281421708F430E021E0481708F099
:102EE00020E0822F852B382319F4252309F460C0B4
:102EF000CA80913061F038F0923061F0933071F413
:102F0000FF24FA940CC0F12CDD24D39409C0FF24D3
:102F1000F39405C0F12CDD24DA9402C0F12CD12CFD
:102F2000C7FE04C0BE01C8010E94A21588818D0D94
:102F3000888389818F0D8983CC0C91F739C0BE01BC
:102F4000C8010E94A21534C011928E179F07E1F7A5
:102F5000C8010E94CE152CC0C8010E94B815882354
:102F600009F464CFD8011696ED91FC911797159648
:102F70008C919F01280F311DC90111928E179F0757
:102F8000E1F716C01882D80112968C9112978983A6
:102F900015968C91159781508A8313968C918B830B
:102FA00007C0F801858103C0D80111968C918883F0
:102FB00081E0DF91CF911F910F91FF90DF90CF9033
:102FC000BF90AF9008950E94452CDB01ED91FC91DC
:102FD00009945F926F927F928F929F92AF92BF926D
:102FE000CF92DF92EF92FF920F931F93CF93DF93D5
:102FF000EC01E62EF42EC22E0C811D81C8010E9428
:10300000E315D82E8C819D810E94E615982E21E033
:10301000D21203C02FE0A22E02C0AA24AA948C814F
:103020009D810E94DF15D82E8C819D810E94DB1529
:10303000B82E8C819D810E94FC15E0E6EC1538F4D9
:10304000009729F0080F191F91E6D92E10C08C8126
:103050009D810E94FF15F0E4FC1538F4009729F0DB
:10306000080F191F81E4D82E02C00F5E1F4FBC1439
:1030700030F4188A1B8A1C8A198A1A8A77C0BD14F0
:10308000C0F3892D90E0F80124912F3F19F40F5FD0
:103090001F4F40C0CD1035C08C819D810E94E3152B
:1030A00098012F5F3F4FF801882311F0823091F48F
:1030B00084918B8BF90124912C8BF8013396E49148
:1030C000E88BF8013496E491E98BF8013596E491A8
:1030D000EA8B25C08491982F9F7092509A8B82958D
:1030E0008F70898BF9012491822F8F708C8B2295A0
:1030F0002F702B8BF8013296E491E295EF70E88BFC
:103100000EC0F8013296E491EA219C012E0F311D88
:10311000020F131FBD1409F4ACCFD394B4CF011523
:10312000110521F18C819D810E94E6152C899A89D7
:10313000920FF91A9FEF920F9F0D3CA94EA94F15C0
:1031400018F0931728F402C0931770F09F1560F4DD
:103150003B899989E90E9FEF930F9E0D4BA95DA9BD
:103160005E1530F4941730F4888934C080E032C0A2
:10317000941710F49E15C0F7080F111D395F732EB8
:10318000769476947694622E6F0C5E01FCE1AF0E1D
:10319000B11C872C912C6F1439F35E2C68018C2D97
:1031A000801B871598F4F60184916A817B815C8E7F
:1031B000FD8E1F8E8E8F95014BE3CE010E94E51789
:1031C000FFEFCF1ADF0A28E0520EE9CF080D191DD4
:1031D000F394E1CFDF91CF911F910F91FF90EF908A
:1031E000DF90CF90BF90AF909F908F907F906F9027
:1031F0005F90089590919604911102C08093960477
:1032000008951F93CF93DF9300D0CDB7DEB720EDA5
:1032100037E03A8329839091BC00982399F429815F
:103220003A81232B51F480919F04182F127081FD55
:1032300009C081E00E94FA1806C029813A81215014
:103240003109E7CF11E0812F0F900F90DF91CF91DF
:103250001F91089584E98093BC0064E080E10C94A0
:103260000119CF938093BB0084E88093BC0063E096
:1032700080E80E940119C82F882389F080919F045B
:10328000C82FC27081FD0AC08091B900887F883242
:1032900029F063E082E00E94FA1801C0C1E08C2F9F
:1032A000CF910895CF93DF93FC0123A5222379F0DA
:1032B000EC010E94B61D811102C080E009C08EA100
:1032C000811180E40E9431198823B9F31BA681E0A3
:1032D000DF91CF9108950F931F93CF93C42F89014E
:1032E0006330C1F050F4613081F0623009F048C0C1
:1032F000FC0146A321E023A743C0663011F16730EB
:1033000079F1653009F03CC00EC0FC0186A50E9431
:103310000F1636C0FC0116A221E023A7411130C0D0
:103320000E942A192DC00E945219811104C00E94C6
:103330002A1980E026C08C2F0E943119811120C0EB
:10334000F6CF0E945219882391F3CC23C9F0F801DB
:1033500081918F010E943119882349F3C150F5CF23
:103360000E945219882319F3CC2351F0F80184915B
:103370000E943119882329F00F5F1F4FC150F4CFED
:1033800081E0CF911F910F9108951F93CF93DF9309
:10339000EC01162F0E947B29181739F0612FCE01FE
:1033A000DF91CF911F910C948329DF91CF911F91D1
:1033B00008950C947B29833081F028F4813099F0B2
:1033C0008230A1F008958730A9F08830B9F08430B8
:1033D000D1F4809180008F7D03C0809180008F7731
:1033E00080938000089584B58F7702C084B58F7D67
:1033F00084BD08958091B0008F7703C08091B000A4
:103400008F7D8093B00008953FB7F89480919B041E
:1034100090919C04A0919D04B0919E0426B5A89B18
:1034200005C02F3F19F00196A11DB11D3FBFBA2F56
:10343000A92F982F8827820F911DA11DB11DBC01B6
:10344000CD0142E0660F771F881F991F4A95D1F77B
:1034500008950F931F93CF93DF931F92CDB7DEB7DD
:103460000091E2041091E304E0911105F09112053E
:1034700082E0099520E030E04AE0B80180EE94E077
:103480000E94E517182FE0911105F091120583E0D5
:103490000995E0911105F091120580E0099511233D
:1034A000C1F16091E2047091E3049E012F5F3F4FF0
:1034B00046E480EE94E00E94E51789818093E00461
:1034C0006091E2047091E3049E012F5F3F4F47E457
:1034D00080EE94E00E94E51789818093E104609179
:1034E000E2047091E30420E030E048E480EE94E0F0
:1034F0000E94E5178093EB046091E2047091E3046D
:1035000023E135E047E180EE94E00E94E51781E099
:1035100001C080E00F90DF91CF911F910F9108952E
:10352000CF93DF9380911905811105C081E08093CD
:1035300019050E94291AC091E204D091E304E09198
:103540001105F091120582E00995E0911105F091C5
:10355000120581E0099520E030E044E1BE0180EEF3
:1035600094E00E94E51723E135E047E1BE0180EEDB
:1035700094E00E94E517E0911105F091120580E0BA
:10358000DF91CF910994EF92FF920F931F93CF9306
:10359000DF93F82E062FE42E152FE091F504F0911D
:1035A000F60480EE94E00995080FCE2DD12F10E09F
:1035B0002991222349F0402F6F2D80EE94E00E9444
:1035C000E917F80E180FF4CF812FDF91CF911F91DB
:1035D0000F91FF90EF900895FF920F931F93CF9359
:1035E000DF938C01E091F504F091F60480EE94E015
:1035F0000995F82EC0E0D0E0F8012491222359F07B
:103600004F2D6D2F80EE94E00E94E917D80FC80F60
:103610000F5F1F4FF1CF8C2FDF91CF911F910F9133
:10362000FF9008954F925F926F927F928F929F9238
:10363000AF92BF92CF92DF92EF92FF920F931F93C0
:10364000CF93DF9300D000D0CDB7DEB74B015C0144
:1036500029013A016701780120E030E0A9010E94C8
:10366000592A87FDA6C020E030E0A901C301B201BC
:103670000E94592A87FD9DC020E030E0A901C701C2
:10368000B6010E94592A87FD94C081E02091BA04B6
:103690003091BB042130310509F080E08093DB04D8
:1036A0008092A0049092A104A092A204B092A304DC
:1036B0004092A4045092A5046092A6047092A704BC
:1036C000C092A804D092A904E092AA04F092AB049C
:1036D0006091CE047091CF048091D0049091D10478
:1036E0000E94062B20E030E04AE754E40E945E2A64
:1036F00069837A838B839C838092AC049092AD041F
:10370000A092AE04B092AF049B01AC01C301B20120
:103710000E94BD2B2B013C016093B0047093B10457
:103720008093B2049093B30429813A814B815C81E8
:10373000C701B6010E945E2A6B017C016093B4044C
:103740007093B5048093B6049093B7048091B80445
:103750009091B904019769F5A501940160E070E0CA
:10376000CB010E94EC296093AC047093AD0480936C
:10377000AE049093AF04A301920160E070E0CB012E
:103780000E94EC296093B0047093B1048093B2045A
:103790009093B304A701960160E070E0CB010E9412
:1037A000EC296093B4047093B5048093B6049093AD
:1037B000B7040F900F900F900F90DF91CF911F9152
:1037C0000F91FF90EF90DF90CF90BF90AF909F90C0
:1037D0008F907F906F905F904F9008950F931F93FD
:1037E000CF93E091EE04F091EF04309719F080EE62
:1037F00094E009950091E2041091E304E091110531
:10380000F091120582E00995E0911105F091120501
:1038100081E0099520E030E045E1B80180EE94E0D8
:103820000E94E517C82F882341F023E135E047E1E6
:10383000B80180EE94E00E94E517E0911105F09147
:10384000120580E009958C2FCF911F910F9108955B
:10385000009769F0FC0101900020E9F73197AF0172
:10386000481B590BBC018CED94E00C945D1580E075
:1038700090E008958F929F92AF92BF920F931F9303
:10388000CF93DF93CDB7DEB7A1970FB6F894DEBF25
:103890000FBECDBF19A2423008F44AE08E010F5D81
:1038A0001F4F842E912CA12CB12CA50194010E94B4
:1038B000BB29E62FB901CA0101501109EA3014F4FD
:1038C000E05D01C0E95CD801EC93232B242B252B70
:1038D00061F7C8010E94281CA1960FB6F894DEBFBC
:1038E0000FBECDBFDF91CF911F910F91BF90AF90D1
:1038F0009F908F9008950F931F93CF93DF938C0128
:10390000C0E0D0E0F801EC0FFD1F6491662341F0A8
:103910008CED94E00E94250D892B11F02196F2CFB9
:10392000CE01DF91CF911F910F9108952091E40472
:103930003091E5042817390709F444C09093E50451
:103940008093E404009709F437C02091F704FC0148
:10395000211107C03596E491E093F804FC013C96F0
:103960000FC0213039F43F96E491E093F804FC0154
:10397000709606C03D96E491E093F804FC013E96F3
:1039800084918093F9048091F804082E000C990B1F
:103990002091F904821B910927FD93952091FA0447
:1039A000203441F0829FC001112426E0969587952E
:1039B0002A95E1F78093FB0489ED95E19093F60455
:1039C0008093F5040895682F8CED94E00C94250DF8
:1039D0008F929F92AF92BF92CF92DF92EF92FF921F
:1039E0000F931F93CF93DF936B017C01142F9B01E7
:1039F000AC010E942A2C882319F08EEC93E027C09A
:103A000046015701E894B7F82FEF3FEF4FE75FE724
:103A1000C501B4010E942A2C81110DC02FEF3FEF88
:103A20004FE75FE7C501B4010E94592A18161CF43C
:103A300082ED93E00CC02FEF3FEF4FE75FE4C7014B
:103A4000B6010E94B82B181684F486ED93E0DF913E
:103A5000CF911F910F91FF90EF90DF90CF90BF908B
:103A6000AF909F908F900C94281C2FEF3FEF4FE763
:103A70005FECC701B6010E94592A87FDE6CF20E01E
:103A800030E0A901C701B6010E94592A87FF09C089
:103A90008DE20E94E31CEC01F7FAF094F7F8F09441
:103AA00002C0C0E0D0E000E060E070E080E09FE3B2
:103AB000101741F020E030E040E251E40E945E2A1D
:103AC0000F5FF6CFA70196010E94ED296B017C01E3
:103AD0000E94D72A4B015C014AE00E943A1CC80FA1
:103AE000D91F1123A9F1C501B4010E94062B9B0126
:103AF000AC01C701B6010E94EC296B017C018EE28A
:103B00000E94E31CC80FD91F20E030E040E251E4DE
:103B1000C701B6010E94BD2B4B015C010E94D72A50
:103B20006B01E12CF12C4AE0C701B6010E943A1C5E
:103B3000C80FD91FC701B6010E94062B9B01AC011B
:103B4000C501B4010E94EC296B017C011150E1F622
:103B5000CE01DF91CF911F910F91FF90EF90DF90F9
:103B6000CF90BF90AF909F908F900895CF9384EAAD
:103B70008093BC0061E080E80E940119882359F01D
:103B80008091B900887F883041F0803131F061E068
:103B900082E00E94FA18C0E01DC088E78093BB0055
:103BA00084E88093BC0062E080E80E9401198823C9
:103BB00091F380919F04C82FC27081FD0AC080914B
:103BC000B900887F883129F062E082E00E94FA180B
:103BD00001C0C1E08C2FCF910895CF93DF93282FA0
:103BE00030E0F901E75BF14F8491F901EB5CF14FB3
:103BF000D491F901EF5DF14FC491CC2391F0811183
:103C00000E94DB19EC2FF0E0EE0FFF1FE95EF14F91
:103C1000A591B491EC91ED2381E090E021F480E056
:103C200002C080E090E0DF91CF9108951F93CF9381
:103C3000DF93282F30E0F901E75BF14F8491F90120
:103C4000EB5CF14FD491F901EF5DF14FC491CC23BE
:103C5000C1F0162F81110E94DB19EC2FF0E0EE0F5E
:103C6000FF1FE35FF14FA591B4919FB7F894111135
:103C700004C08C91D095D82302C0EC91DE2BDC934C
:103C80009FBFDF91CF911F910895CF93DF9390E075
:103C9000FC01EB5CF14F2491FC01EF5DF14F84914D
:103CA000882361F190E0880F991FFC01ED5FF14FCF
:103CB000C591D491FC01E35FF14FA591B4916111DD
:103CC00009C09FB7F8948881209582238883EC915E
:103CD0002E230BC0623061F49FB7F8948881322F95
:103CE000309583238883EC912E2B2C939FBF06C0A5
:103CF0008FB7F894E8812E2B28838FBFDF91CF9167
:103D00000895CF93DF93EC0161E089E00E94451EA6
:103D1000209711F460E004C0CF3FD10531F461E099
:103D200089E0DF91CF910C94161EE2E5FEE0E4916C
:103D3000E330F9F048F4E130B9F0E230A1F584B5B0
:103D4000806284BDC8BD34C0E730E9F0E83019F1C5
:103D5000E43049F580918000806280938000D093A8
:103D60008B00C0938A0024C084B5806884BDC7BD21
:103D70001FC080918000806880938000D09389006C
:103D8000C093880015C08091B00080688093B00017
:103D9000C093B3000DC08091B00080628093B000EA
:103DA000C093B40005C0C038D1050CF0B8CFB2CF75
:103DB000DF91CF9108958F929F92AF92BF92CF9251
:103DC000DF92EF92FF926B017C010E94041A4B017B
:103DD0005C01C114D104E104F104F1F00E94041A61
:103DE000DC01CB0188199909AA09BB09883E9340D7
:103DF000A105B10570F321E0C21AD108E108F1086C
:103E000088EE880E83E0981EA11CB11CC114D10459
:103E1000E104F10419F7DDCFFF90EF90DF90CF9030
:103E2000BF90AF909F908F900895CF92DF92EF92C6
:103E3000FF920F931F93CF93DF93D82EC92E86E066
:103E40000E94ED1DC1E0892B09F0C0E00E94901A8C
:103E500085EDE82E85E1F82E8DE59EE00E94961C0A
:103E6000F092F604E092F5040D2D1C2DD0E0F8013F
:103E7000419151918F016D2F80E00E94C31AD05F54
:103E8000D038A9F70E94EE1B8111E6CFCC2329F090
:103E900086E00E94ED1D892B89F486E00E94ED1DCD
:103EA000892BA1F7C111F2CFDF91CF911F910F9113
:103EB000FF90EF90DF90CF900C94360F6AE070E0A7
:103EC00080E090E00E94DB1EC0E0E7CF2FB7F894BF
:103ED00060919704709198048091990490919A044C
:103EE0002FBF08951F920F920FB60F9211242F9398
:103EF0003F938F939F93AF93BF938091970490913B
:103F00009804A0919904B0919A0430911A0523E085
:103F1000230F2D3720F40196A11DB11D05C026E801
:103F2000230F0296A11DB11D20931A0580939704BB
:103F300090939804A0939904B0939A0480919B0461
:103F400090919C04A0919D04B0919E040196A11DA6
:103F5000B11D80939B0490939C04A0939D04B09307
:103F60009E04BF91AF919F918F913F912F910F90A0
:103F70000FBE0F901F901895CF93DF93CDB7DEB78C
:103F80002B970FB6F894DEBF0FBECDBF789484B5E3
:103F9000826084BD84B5816084BD85B5826085BD45
:103FA00085B5816085BD80916E00816080936E00D3
:103FB00010928100809181008260809381008091C5
:103FC0008100816080938100809180008160809376
:103FD00080008091B10084608093B1008091B00036
:103FE00081608093B00080917A00846080937A0031
:103FF00080917A00826080937A0080917A0081605B
:1040000080937A0080917A00806880937A00109281
:10401000C10060E08EE00E94451E60E08FE00E94DB
:10402000451E61E085E00E94451E61E089E00E9436
:10403000451E62E087E00E94451E62E088E00E9423
:10404000451E62E086E00E94451E62E08AE00E9412
:10405000451E8FEF90E00E94811E60E085E00E9487
:10406000161E80917A00876080937A0080917A0092
:10407000886080937A00789481E080936B008093CD
:1040800068008BBB8091EB04883211F48FEF03C082
:10409000823021F483E08093000509C08130D9F398
:1040A000803329F48FEF809300058093010580E031
:1040B00090E00E94D919182F81E090E00E94D91950
:1040C000212F30E0322F2227282B2C36374E09F0B3
:1040D000ADC082E090E00E94D919182F83E090E0F3
:1040E0000E94D919212F30E0322F2227282B30931C
:1040F0007B0120937A0184E090E00E94D919182F67
:1041000085E090E00E94D919212F30E0322F22273C
:10411000282B309375012093740186E090E00E9473
:10412000D91980936F0187E090E00E94D91980939C
:10413000C40188E090E00E94D9198093C30189E00E
:1041400090E00E94D9198093C2018AE090E00E9419
:10415000D9198093F5038BE090E00E94D91991E082
:10416000811101C090E09093AF018CE090E00E943B
:10417000D91991E0811101C090E09093A2018DE0E6
:1041800090E00E94D9198093F2038EE090E00E94A3
:10419000D919282E80935C011CE1812E11E0912E0B
:1041A00006ECA02E01E0B02E8FE0E82EF12C312C91
:1041B000231409F447C000E010E0C701800F911FED
:1041C0000E94D919F501E00FF11F80830F5F1F4F87
:1041D0000630110591F7670196E0C90ED11CEEE09B
:1041E000EE0EF11C3401C6010E94D919082F10E00F
:1041F000102F0027F301118300832601F2E04F0EF8
:10420000511CC60101960E94D919082BF301019394
:1042100011933F016201E414F50429F73394F8E0A7
:104220008F0E911C26E0A20EB11CC2CF67EE80E07B
:1042300090E00E94C5196CE681E090E00E94C519EB
:104240000E94930E0E94D20D9093E2038093E103AB
:104250000E947D0E9093F4038093F303E0907A0123
:10426000F0907B01F092EC03E092EB038EE00E9471
:104270004C0EBC0180E090E00E94062B6093DD03B1
:104280007093DE038093DF039093E0030E940E0E91
:104290000E94F91320E030E040EA51E46091ED0320
:1042A0007091EE038091EF039091F0030E94ED294D
:1042B0004B015C01B70180E090E00E94062B9B015E
:1042C000AC01C501B4010E94592A87FF04C080E0F7
:1042D00090E00E94811E1092D2041092D30410929A
:1042E000D4041092D504812C912CAFE7AA2EA3E41C
:1042F000BA2E8092D6049092D704A092D804B0929D
:10430000D9048091DA040091BE041091BF04F80131
:104310004080518062807380882309F44DC0A501DC
:104320009401C301B2010E94B82B181634F4F801AD
:1043300080829182A282B3820EC020E030E0A90187
:10434000C301B2010E94592A87FF05C0F8011082FB
:104350001182128213824090C6045090C70460906C
:10436000C8047090C9048090D6049090D704A0909F
:10437000D804B090D904A5019401C301B2010E94F0
:10438000B82B181684F08090D2049090D304A0909B
:10439000D404B090D504A5019401C301B2010E94D8
:1043A000592A87FF3CC08092C6049092C704A0920D
:1043B000C804B092C90433C04092C6045092C704E6
:1043C0006092C8047092C904E091BC04F091BD04ED
:1043D00080819181A281B3818093CA049093CB04A0
:1043E000A093CC04B093CD0420E030E04FE753E439
:1043F000C301B2010E94B82B1816ACF220E030E0E5
:10440000A901C301B2010E94592A87FF08C0109276
:10441000C6041092C7041092C8041092C90481E027
:104420008093DA0483B181708093DC0389B1881FA3
:104430008827881F8093DB032091DC039091DB03A6
:1044400081E0291380E08093DA0386E990E090937D
:10445000E8038093E70380E991E09093E60380937B
:10446000E5038AE090E09093E4038093E303F09205
:10447000EA03E092E9030E94661F60930D047093C3
:104480000E0480930F04909310040E94360F0E9434
:10449000360F2091E9033091EA033A872987309358
:1044A000EC032093EB0386E00E94ED1D8B878111C6
:1044B0005CC080910B048111DEC157C00E94661F51
:1044C000DC01CB018C199D09AE09BF09843F9140E5
:1044D000A105B10528F486E00E94ED1D892B71F33A
:1044E0000E94661FDC01CB018C199D09AE09BF0932
:1044F000843F9140A105B10508F494C58FEF90E089
:104500000E94811E0E94360F00E0FAE02F2E312C0F
:10451000402F62E180EB91E00E94E110082F90E0D3
:104520008730910508F4B6C10E94930E81E0809314
:10453000F103E985FA85F093EC03E093EB0386E958
:1045400090E09093E8038093E70380E991E09093F3
:10455000E6038093E5038AE090E09093E403809380
:10456000E303F093EA03E093E903FB85F0930B0484
:104570008091FA03882309F11091C2011123E9F017
:104580000E94661FC0900304D0900404E0900504CC
:10459000F09006046C197D098E099F0928EE33E01E
:1045A00040E050E00E94BB29211738F01092FA0336
:1045B0000E94360F81E08093C5018091F10388232A
:1045C000E9F18091FB03882349F120E030E040EAE3
:1045D00051E46091ED037091EE038091EF039091AF
:1045E000F0030E94ED296B017C016091EB03709157
:1045F000EC0380E090E00E94062B9B01AC01C70118
:10460000B6010E94592A87FF04C080E090E00E9412
:10461000811E0E94360F81E08093C5011092F10344
:104620001092FB031092FC030E94661F60930D041E
:1046300070930E0480930F04909310040E94661FE1
:1046400000910D0410910E0420910F04309110047C
:10465000601B710B820B930B20E63AEE40E050E0BA
:104660000E94BB29122F20930C048091FB0381111F
:104670000BC08091C401882339F0281728F081E00D
:104680008093FB030E94360F8091FC0381110BC0C5
:104690008091C301882339F0181728F081E08093B6
:1046A000FC030E94360F0E946F140E94D0110E94DA
:1046B000901A88E2F82E13E59FE0E92E24E1D22E2D
:1046C00004E336E0C32E45E2742E56E1652E8DE5F7
:1046D0009EE00E94961C25ED35E13093F604209370
:1046E000F5044FE152E060E080E00E94C31AF092CE
:1046F0001705109218056091FF03709100048091D6
:1047000001049091020440E00E94E81C10931705F8
:10471000109218058091FD039091FE03853F914012
:1047200018F083E191E031C08091FC03882319F0F7
:104730008DE091E02AC08091FB03882319F087E087
:1047400091E023C08091FA03882319F081E091E081
:104750001CC08091F601882319F08BEF90E015C002
:1047600020E030E044E353E46091F6037091F703F6
:104770008091F8039091F9030E94592A87FF03C0A2
:1047800085EF90E002C08FEE90E00E947B1C80914C
:10479000F503882309F443C06091F3037091F40397
:1047A00080E090E00E94062B20E030E04AE754E4ED
:1047B0000E945E2A4B015C011092170500931805B8
:1047C0008091F203C89EC00111248A539E4F0E941B
:1047D000281C109317050093180541E0C501B4018A
:1047E0000E94E81C8DEE90E00E947B1C87EF99E010
:1047F0000E94961C85ED95E19093F6048093F50454
:1048000070921705609218056091FD037091FE0388
:10481000653F91E07907F0F089EE90E018C089E1FA
:1048200091E00E94961CE5EDF5E1F093F604E0932B
:10483000F504E0921705D09218056091FD03709180
:10484000FE03653FF1E07F0728F085EE90E00E94CF
:104850007B1C05C080E090E04AE00E943A1C0E9468
:10486000EE1B811134CF80E090E0892B09F411CE4A
:104870000E9400000ECE0E94360F0E94661F6B0140
:104880007C0160930704709308048093090490935B
:104890000A0421CEFC01EC5CFF4F0C943F2C10E08D
:1048A0004CE3642E712C55E0852E912C6EE1C62EC2
:1048B000D12CAA24A394B12CE4EBEE2EF12CB5C29A
:1048C00010E04EC200E0402F6EE08DE591E00E94C6
:1048D000E110082F823009F48CC190F48823B9F0DC
:1048E000813009F021CE9E012F5F3F4F7901412C8D
:1048F000512C3201439410E2D12E80E3C82E1DC109
:10490000833009F479C1843009F4DEC10DCED09032
:10491000F20311E0D11001C010E02D2D30E08091A4
:104920005C0190E001971092E8031092E7039093E6
:10493000E6038093E50381E090E09093E4038093A5
:10494000E303C9019093EA038093E90386E00E94A0
:10495000ED1D77247394892B09F0712C36E0232EFA
:10496000E090E903F090EA033E2C5701BB24C50117
:10497000810F911D17FD9A958D19910997FD07C01B
:104980008330910514F082E090E0182F01C010E010
:104990000E94901A812E012E000C9908C4010196E4
:1049A000582E529420EF52228DE59EE00E94961CD4
:1049B00085ED95E19093F6048093F50486E790E009
:1049C0000E94EC1A42E152E0652D80E00E94C31A79
:1049D000432C411A6501C818D90890E1692E8091CD
:1049E0005C01481658F42C9CA0012D9C500D1124FC
:1049F0004A535E4F662D8CE00E94C31A43949FEF8A
:104A0000C91AD90AE0E16E0EF0E46F12E8CF0E94F5
:104A1000EE1B8111C9CF772031F086E00E94ED1D99
:104A2000892B09F015C386E00E94ED1D892B11F03A
:104A3000DE2C96CF7110FCCF0E94360F3092F2031D
:104A400042CF0E946F140E94D0110E94901A8DE5EF
:104A50009EE00E94961C25ED35E13093F6042093EC
:104A6000F50482EB90E00E94EC1A1092170530E1F9
:104A7000309318058BEA90E00E947B1C4AE0C3014A
:104A8000B2010E943A1C84E192E00E94281C8091AD
:104A9000F60110921705D0921805882309F486C0F4
:104AA0008EE990E00E947B1C10921705C0921805B9
:104AB00087E990E00E947B1C8090E9039090EA03D4
:104AC000092C000CAA08BB08B7FE6CC08DE20E943E
:104AD000E31C66277727CB01681979098A099B09A6
:104AE0004AE00E943A1C0E94EE1B8111B0CF1111C6
:104AF00079C086E00E94ED1D892B09F0A2CF11112B
:104B0000A0CF8091E9039091EA03F70181939193FB
:104B10007F010E94360F6AE070E080E090E00E9422
:104B2000DB1EFFEF4F1A5F0A6F0A7F0A24E042166E
:104B300051046104710409F49BC28091F203F201F3
:104B4000319734E0839FE00DF11D1124EE0FFF1F1C
:104B5000E45EFE4F808191819093EC038093EB03A0
:104B6000E4E6F0E0F093E803E093E70324EF31E0BC
:104B70003093E6032093E50321E030E03093E40333
:104B80002093E3039093EA038093E90381E0809309
:104B9000C50186E00E94ED1D11E0892B09F451CF7B
:104BA00010E04FCF4AE0C501B4019BCF80E990E00F
:104BB0000E947B1C6091DD037091DE038091DF0316
:104BC0009091E0030E94D72A80E090E04AE00E94A2
:104BD0003A1C10921705C092180581E890E00E94D7
:104BE0007B1C81CF86E00E94ED1D892B09F038C225
:104BF00080CF0E94540F67CE80915C01813019F400
:104C000086E091E088C040E066E08EE091E00E949E
:104C1000E110882309F457CE1091F203F0905C0163
:104C20004F2D50E041505109812F90E08417950796
:104C3000C1F511501093F20343C0FD01E60FF71FB9
:104C4000EA53FE4FE680E0826F5F7F4F663071056A
:104C5000A1F763E0220F331F6A95E1F7F901E45EE3
:104C6000FE4F2081318173E0880F991F7A95E1F71B
:104C7000DC01A45EBE4F11963C932E9382819381FA
:104C800013969C938E9312978481958115969C938D
:104C90008E9314978681978117969C938E9316977F
:104CA0001F5F812F90E08417950754F4E6E01E9F64
:104CB000D001112460E070E09C012F5F3F4FBDCF19
:104CC000FA94F0925C01FFCD80915C01883008F588
:104CD00091E0980F90935C018093F2030E94540F2F
:104CE000E091F20328E0E29FF0011124E45EFE4F20
:104CF00088ED90E09183808384E391E093838283C5
:104D000086E891E0958384838EE190E097838683A3
:104D1000DACD84E191E00E94151FD5CD813050F5A8
:104D200080917A0190917B01E6E9F0E0F093E8034D
:104D3000E093E70320E931E03093E6032093E503B5
:104D40003092E4032092E3039093EA038093E90313
:104D500086E791E00E945F1090937B0180937A0137
:104D6000412F6AE08CE791E00E94E110182F81301A
:104D7000A9F61FC0823009F0CBCB80916F0190E083
:104D80003092E8032092E703E4E6F0E0F093E603D4
:104D9000E093E5033092E4032092E3039093EA0367
:104DA0008093E9038BE691E00E945F1080936F018E
:104DB000D7CF8091740190917501E4E1F0E0F09318
:104DC000E803E093E70328EC30E03093E603209318
:104DD000E5033092E4032092E3039093EA03809387
:104DE000E90380E791E00E945F1090937501809342
:104DF0007401B6CF813018F58091C40190E0109213
:104E0000E8031092E703D092E603C092E503B09264
:104E1000E403A092E3039093EA038093E9038EE80E
:104E200091E00E945F108093C401412F6AE082E903
:104E300091E00E94E110182F8130E1F61DC0823010
:104E400009F066CB8091C20190E01092E8031092C5
:104E5000E703F092E603E092E5033092E403209248
:104E6000E3039093EA038093E90386E891E00E94CC
:104E70005F108093C201D9CF8091C30190E010925E
:104E8000E8031092E7037092E6036092E5039092C4
:104E9000E4038092E3039093EA038093E9038AE8B2
:104EA00091E00E945F108093C301BFCF4091AF019A
:104EB00066E089EA91E00E94E11091E0811101C071
:104EC00090E09093AF0124CB4091F50366E083EA34
:104ED00091E00E94E1108093F5031ACB4091A2016A
:104EE00066E08CE991E00E94E11091E0811101C03F
:104EF00090E09093A2010CCB86E00E94ED1D11E0A2
:104F0000892B09F010E00E94D20D9093E203809368
:104F1000E103BC0180E090E00E94062B20E030E03D
:104F20004AE754E40E945E2A6B017C010E947D0ED8
:104F30009093F4038093F303BC0180E090E00E941F
:104F4000062B20E030E04AE754E40E945E2A4B0141
:104F50005C010E940E0E2B013C010E94901A8DE50F
:104F60009EE00E94961C25ED35E13093F6042093D7
:104F7000F50410921705109218058AED90E00E9432
:104F80007B1C8AE192E00E94281C1092170530E1F8
:104F90003093180584ED90E00E947B1C41E0C30132
:104FA000B2010E94E81C81ED90E00E947B1C1092EF
:104FB000170580E2809318058BEC90E00E947B1C23
:104FC00041E0C501B4010E94E81C88EC90E00E9419
:104FD0007B1C1092170590E39093180581EC90E0EC
:104FE0000E947B1C41E0C701B6010E94E81C8EEBC9
:104FF00090E00E947B1C0E94EE1B8111B0CF112318
:1050000031F086E00E94ED1D892B09F06DC086E02D
:105010000E94ED1D892B09F076CF111174CF0E94EB
:10502000360F76CA9091FA0381E089278093FA03BC
:10503000882351F00E94661F609303047093040458
:10504000809305049093060481E08093F1038DCA58
:105050006AE070E080E090E00E94DB1E712CE3CCFF
:105060006AE070E080E090E00E94DB1E10E041CD3D
:105070008FEF90E00E94811E8BEA94E00197F1F798
:105080000E940E0E0E94D72A2B013C0178876F8365
:10509000A980BA80EB80FC80C5014E968E159F05D5
:1050A00008F011CCCD80DE80C7014E968C159D0591
:1050B00008F009CC40E066E080E091E00E94E11059
:1050C000882309F400CCE091F20388E0E89FF00126
:1050D0001124E45EFE4FB182A082F382E282D58287
:1050E000C48257824682EFCB6AE070E080E090E0B5
:1050F0000E94DB1E10E08BCF0F931F93CF9386EFA0
:1051000093E09093BF048093BE0482E994E090936F
:10511000BD048093BC048FEF93E09093C10480930F
:10512000C0041092DA041092D2041092D3041092A8
:10513000D4041092D50480E090E0AFE7B3E480930C
:10514000D6049093D704A093D804B093D90484E6EE
:1051500090E0A0E0B0E08093CE049093CF04A093C1
:10516000D004B093D10481E090E09093B90480938F
:10517000B8049093BB048093BA04C1E0C093DB04ED
:1051800080E090E0A0E3B1E48093A0049093A104B8
:10519000A093A204B093A30480E090E0A0E0BFE35A
:1051A0008093A4049093A504A093A604B093A704AD
:1051B00080E090E0A0E8BFE38093A8049093A90466
:1051C000A093AA04B093AB0480E090E0A0E3B1EC1C
:1051D0008093AC049093AD04A093AE04B093AF045D
:1051E0008DEC9CECACE4BDEB8093B0049093B104E7
:1051F000A093B204B093B30480E090E0A0E2B1ECDD
:105200008093B4049093B504A093B604B093B7040C
:105210000E94661F0091CE041091CF042091D0040B
:105220003091D104DC01CB01801B910BA20BB30B9D
:105230008093C2049093C304A093C404B093C504A4
:105240001092DF041092DE048AE092E09093DD0475
:105250008093DC041092170510921805109219051E
:105260001092E5041092E4041092E7041092E60410
:105270001092E904C093E80482E28093EA04109259
:10528000EF041092EE04E3E0F5E081E195E02FEF0A
:1052900021938E179F07E1F781E08093000529EDA8
:1052A00035E13093F6042093F5048093F7041092CF
:1052B000F8041092F90480E48093FA041092FB043D
:1052C00087E895E1909312058093110580E092E0C4
:1052D0009093E3048093E20482E180930E050E94A0
:1052E000291A8AE092E09093DD048093DC04CF9148
:1052F0001F910F910895F999FECF92BD81BDF89A43
:10530000992780B50895262FF999FECF1FBA92BD2F
:1053100081BD20BD0FB6F894FA9AF99A0FBE019696
:105320000895052E97FB1EF400940E94A82957FDAE
:1053300007D00E94BB2907FC03D04EF40C94A82987
:1053400050954095309521953F4F4F4F5F4F0895B1
:1053500090958095709561957F4F8F4F9F4F0895E1
:105360000E94DD29A59F900DB49F900DA49F800DF4
:10537000911D11240895A1E21A2EAA1BBB1BFD0149
:105380000DC0AA1FBB1FEE1FFF1FA217B307E40724
:10539000F50720F0A21BB30BE40BF50B661F771F7C
:1053A000881F991F1A9469F760957095809590955C
:1053B0009B01AC01BD01CF010895A29FB001B39F35
:1053C000C001A39F700D811D1124911DB29F700D0E
:1053D000811D1124911D08955058BB27AA270E94B2
:1053E000042A0C947E2B0E94702B38F00E94772B9D
:1053F00020F039F49F3F19F426F40C946D2B0EF431
:10540000E095E7FB0C94672BE92F0E948F2B58F354
:10541000BA17620773078407950720F079F4A6F599
:105420000C94B12B0EF4E0950B2EBA2FA02D0B018E
:10543000B90190010C01CA01A0011124FF27591BD9
:1054400099F0593F50F4503E68F11A16F040A22FDF
:10545000232F342F4427585FF3CF46953795279550
:10546000A795F0405395C9F77EF41F16BA0B620B4F
:10547000730B840BBAF09150A1F0FF0FBB1F661F96
:10548000771F881FC2F70EC0BA0F621F731F841FD9
:1054900048F4879577956795B795F7959E3F08F0FF
:1054A000B0CF9395880F08F09927EE0F97958795C1
:1054B00008950E94432B08F481E008950E94722A07
:1054C0000C947E2B0E94772B58F00E94702B40F09A
:1054D00029F45F3F29F00C94672B51110C94B22BE7
:1054E0000C946D2B0E948F2B68F39923B1F35523F5
:1054F00091F3951B550BBB27AA27621773078407E7
:1055000038F09F5F5F4F220F331F441FAA1FA9F37C
:1055100035D00E2E3AF0E0E832D091505040E6956A
:10552000001CCAF72BD0FE2F29D0660F771F881FCB
:10553000BB1F261737074807AB07B0E809F0BB0BBE
:10554000802DBF01FF2793585F4F3AF09E3F5105D2
:1055500078F00C94672B0C94B22B5F3FE4F3983EE9
:10556000D4F3869577956795B795F7959F5FC9F7BB
:10557000880F911D9695879597F90895E1E0660F3C
:10558000771F881FBB1F621773078407BA0720F0B5
:10559000621B730B840BBA0BEE1F88F7E09508951E
:1055A0000E94D72A6894B1110C94B22B08950E94DE
:1055B000972B88F09F5798F0B92F9927B751B0F0E3
:1055C000E1F0660F771F881F991F1AF0BA95C9F787
:1055D00014C0B13091F00E94B12BB1E008950C9449
:1055E000B12B672F782F8827B85F39F0B93FCCF3FC
:1055F000869577956795B395D9F73EF49095809504
:10560000709561957F4F8F4F9F4F0895E89409C023
:1056100097FB3EF490958095709561957F4F8F4FE5
:105620009F4F9923A9F0F92F96E9BB279395F695FB
:10563000879577956795B795F111F8CFFAF4BB0F79
:1056400011F460FF1BC06F5F7F4F8F4F9F4F16C0DD
:10565000882311F096E911C0772321F09EE8872F67
:10566000762F05C0662371F096E8862F70E060E023
:105670002AF09A95660F771F881FDAF7880F96959C
:10568000879597F90895990F0008550FAA0BE0E840
:10569000FEEF16161706E807F907C0F012161306F4
:1056A000E407F50798F0621B730B840B950B39F434
:1056B0000A2661F0232B242B252B21F408950A269A
:1056C00009F4A140A6958FEF811D811D089597F9DA
:1056D0009F6780E870E060E008959FEF80EC089598
:1056E00000240A94161617061806090608950024C1
:1056F0000A9412161306140605060895092E03943B
:10570000000C11F4882352F0BB0F40F4BF2B11F4AE
:1057100060FF04C06F5F7F4F8F4F9F4F089557FD0D
:105720009058440F551F59F05F3F71F04795880F0F
:1057300097FB991F61F09F3F79F0879508951216A6
:1057400013061406551FF2CF4695F1DF08C0161652
:1057500017061806991FF1CF869571056105089403
:105760000895E894BB2766277727CB0197F908951A
:105770000E94432B08F48FEF08950E94D02B0C94C5
:105780007E2B0E94702B38F00E94772B20F09523FF
:1057900011F00C94672B0C946D2B11240C94B22BEC
:1057A0000E948F2B70F3959FC1F3950F50E0551F0A
:1057B000629FF001729FBB27F00DB11D639FAA2766
:1057C000F00DB11DAA1F649F6627B00DA11D661FB5
:1057D000829F2227B00DA11D621F739FB00DA11DD6
:1057E000621F839FA00D611D221F749F3327A00D90
:1057F000611D231F849F600D211D822F762F6A2F2C
:1058000011249F5750409AF0F1F088234AF0EE0F90
:10581000FF1FBB1F661F771F881F91505040A9F7BD
:105820009E3F510580F00C94672B0C94B22B5F3F88
:10583000E4F3983ED4F3869577956795B795F795F9
:10584000E7959F5FC1F7FE2B880F911D9695879571
:1058500097F908950E94432B880B990B0895DB015B
:105860008F939F930E94B029BF91AF91A29F800D0B
:10587000911DA39F900DB29F900D11240895EE0FDE
:10588000FF1F0590F491E02D099481E090E0F894D9
:085890000C944A2CF894FFCFA0
:105898002402350238023C0244024F025B026502D0
:1058A800350238023C02740280028F02D8003401AB
:1058B80086011E000000000000000000000000003B
:1058C80000000000000000000000000000000000D0
:1058D80000000000000000000000000000000000C0
:1058E8000000000000000000000000000198029D78
:1058F80002A802B602C102CC02D802DF02EA0232D2
:10590800F002EA029600FB02EA0240010803FB02E9
:10591800F002DF02D802160322032A0334033C03F1
:10592800340348033C032A031603D80257035E03D3
:105938006603016D037903850390039D03A40301A6
:10594800A803B3030803480390036D035703C00378
:10595800D802280F05014243312E3500000000000F
:10596800000000000000000000000000000000002F
:10597800000000000000000000000000000000001F
:10598800000000000000010840000000801104FF32
:10599800A716F7016B1900000000250D5D15220DF3
:1059A800210D3E00206F6620330076312E330053E0
:1059B80045543A0053746F72652053657474696E68
:1059C8006773203F004E6F00596573005761726E10
:1059D800696E6700596F752063616E6E6F7400643D
:1059E800656C65746520796F7572006C61737420DD
:1059F800746970210041726520796F752073757222
:105A080065203F00596F75207265616368656400A1
:105A18006D6178696D756D206E756D626572006F68
:105A280066207469707321005469703A0043686194
:105A38006E6765205469700043616C6962726174B5
:105A480065205469700052656E616D6520546970F7
:105A58000044656C65746520546970004164642075
:105A68006E6577205469700052657475726E0042D5
:105A78006F6F73742054656D700064656720430010
:105A8800536C6565702054656D700044656661757A
:105A98006C742054656D700054656D702053657486
:105AA80074696E677300426F6F73742054696D6513
:105AB80072005365636F6E6473004F6666205469A5
:105AC8006D6572004D696E7574657300536C65651C
