:100000000C94F00C0C94180D0C94180D0C945520B5
:100010000C94180D0C94180D0C94180D0C94180DCC
:100020000C94180D0C94180D0C94180D0C94180DBC
:100030000C94180D0C94180D0C94180D0C94180DAC
:100040000C940B200C94180D0C94180D0C94180D96
:100050000C94180D0C94D8200C94180D0C94180DB9
:100060000C94180D0C94180D4465616374697661E5
:100070007465640053656C65637420546970004551
:100080006E74657220546970204E616D6500FFE0EA
:10009000FFD1AFFF32FFD0FFFEFFE0FFD1AEFFD0B8
:1000A000FFFEFFE0FFD11000FFFEFFD0FFE0FFC129
:1000B000FFD1AED580A83FD300408D142000A1C849
:1000C000DA1281CFD9F1DB402EA4A6AFFFD0FFFE1C
:1000D000506C6561736520776169742E2E2E004126
:1000E00044433A20200074656D703A2000536574D3
:1000F000206D6561737572656400537465703A2094
:100100000043616C6962726174696F6E0020560011
:100110005663633A20200020560056696E3A20004C
:10012000204300546D703A20004669726D77617209
:10013000653A200030303000303030005600204822
:100140004F4C4400204845415400574F524B5900F2
:10015000424F4F535400534C4545500020204F46CA
:1001600046004552524F5200000000002400270074
:100170002A0000000000250028002B0000000000DD
:1001800023002600290004040404040404040202D9
:100190000202020203030303030301020408102006
:1001A0004080010204081020010204081020000011
:1001B0000008000201000003040700000000000026
:1001C000000000574DFBF12A000000002A3A002BE6
:1001D000F82A001717452507140082000383800FB3
:1001E00083E01FC7E00FC7E007C7C003EF8001EF40
:1001F0000000FE00F8FE3EFFFFFEFFFFFEFFFFFED9
:10020000FE7CFE80FE0201EF0003EF8007EFC007D7
:10021000C7C00FC7E01F83F00783C00183002323FB
:10022000AF3B0C000001E000000001E00000000115
:10023000E000000001E000000001E000000001E03B
:1002400000000001E000000001E000000001E0000B
:10025000000001E000000001E000000001E00000FB
:100260000001E000000001E000000001E0000000EB
:1002700001E00000FFFFFFFFE0FFFFFFFFE0FFFFE7
:10028000FFFFE0FFFFFFFFE00001E000000001E0F2
:1002900000000001E000000001E000000001E000BB
:1002A000000001E000000001E000000001E00000AB
:1002B0000001E000000001E000000001E00000009B
:1002C00001E000000001E000000001E0000000018A
:1002D000E000000C0F1E1203F80FF00FF00FE01FEC
:1002E000E01FC01FC03F803F803F007F007E007E38
:1002F000007C00FC00FC000F081013020BFFFEFF47
:10030000FEFFFEFFFEFFFEFFFEFFFEFFFE080808E9
:10031000120600FFFFFFFFFFFFFFFF132E8A1903E6
:10032000FD0007E00007E00007C0000FC0000FC09D
:10033000000F80001F80001F80001F80001F000032
:100340003F00003F00003E00007E00007E00007C79
:100350000000FC0000FC0000FC0000F80001F800B8
:1003600001F80001F00003F00003F00003F00007C3
:10037000E00007E00007E00007C0000FC0000FC06A
:10038000000F80001F80001F80001F80003F0000C2
:100390003F00003F00003E00007E00007E00007C29
:1003A0000000FC0000FC0000FC00001D2CB021023D
:1003B000FF001FC00000FFF80003FFFC0007FFFF65
:1003C000000FFFFF800FFFFF801FF0FFC03FC03F07
:1003D000C03FC03FE03F801FE07F801FF07F001FD5
:1003E000F07F000FF07F000FF0FF000FF0FF000F15
:1003F000F8FF000FF8FF000FF8FF000FF8FF000FE5
:10040000F8FF000FF8FF000FF8FF000FF8FF000FD4
:10041000F8FF000FF8FF000FF8FF000FF8FF000FC4
:10042000F8FF000FF87F000FF07F000FF07F000F44
:10043000F07F001FF07F801FF03F801FE03FC03F34
:10044000E03FC03FC01FF0FFC00FFFFF800FFFFF66
:100450000007FFFF0003FFFE0000FFF800001FC0C1
:1004600000122A7E210600003FC0007FC000FFC0AE
:1004700003FFC00FFFC03FFFC0FFFFC0FFFFC0FF73
:10048000FFC0FF3FC0FE3FC0F83FC0E03FC0003F9D
:10049000C0003FC0003FC0003FC0003FC0003FC0A1
:1004A000003FC0003FC0003FC0003FC0003FC00051
:1004B0003FC0003FC0003FC0003FC0003FC0003F02
:1004C000C0003FC0003FC0003FC0003FC0003FC071
:1004D000003FC0003FC0003FC0003FC0003FC00021
:1004E0003FC0003FC01D2BAC210200000FF00000F8
:1004F0007FFE0001FFFF0003FFFF8007FFFFC00F2B
:10050000FFFFE01FF83FF01FF01FF01FE00FF03F6C
:10051000C007F83FC007F83FC007F8000007F80021
:100520000007F800000FF800000FF000001FF000B7
:10053000001FF000003FE000007FE00000FFC0006F
:1005400001FF800003FF800007FF00000FFE000096
:100550001FFC00003FF800007FF00000FFE00001FA
:10056000FF800003FF00000FFE00001FFC00003FA3
:10057000F000007FE00000FFC00000FFFFFFF8FF79
:10058000FFFFF8FFFFFFF8FFFFFFF8FFFFFFF8FF97
:10059000FFFFF8FFFFFFF81C2CB02103FF007FC016
:1005A0000003FFF80007FFFC001FFFFF003FFFFFF5
:1005B000003FFFFF807FE0FFC07FC07FC0FF803F24
:1005C000C0FF001FE0FF001FE0FF001FE000001F52
:1005D000E000001FE000001FE000003FC000007FBF
:1005E000C00003FF80007FFF00007FFC00007FF061
:1005F00000007FF800007FFE00007FFF800000FF0A
:10060000C000003FE000001FE000001FE000000FFE
:10061000F000000FF000000FF0FF000FF0FF000FE0
:10062000F0FF000FF0FF001FE0FF801FE07FC03FE2
:10063000E07FE0FFC03FFFFF803FFFFF001FFFFEA6
:10064000000FFFFC0003FFF800007FC0001F2AA876
:100650002101000001FFC00001FFC00003FFC00036
:1006600007FFC00007FFC0000FFFC0000FFFC00062
:100670001FFFC0003FFFC0003FBFC0007F3FC00062
:10068000FF3FC000FE3FC001FE3FC001FC3FC00372
:10069000F83FC007F83FC007F03FC00FF03FC01F52
:1006A000E03FC01FC03FC03FC03FC03F803FC07F52
:1006B000803FC0FF003FC0FF003FC0FFFFFFFEFFC5
:1006C000FFFFFEFFFFFFFEFFFFFFFEFFFFFFFEFF3E
:1006D000FFFFFEFFFFFFFE00003FC000003FC00025
:1006E000003FC000003FC000003FC000003FC0000E
:1006F000003FC000003FC000003FC01D2BAC2102E6
:10070000FF7FFFFFE07FFFFFE07FFFFFE07FFFFF56
:10071000E07FFFFFE07FFFFFE07FFFFFE07F8000E3
:10072000007F8000007F8000007F8000007F8000CD
:10073000007F8000007F8000007F8000007F87F8BE
:10074000007F9FFE007FFFFF807FFFFFC07FFFFFD6
:10075000C07FFFFFE07FF03FF07FC01FF07F800F82
:10076000F07F800FF87F0007F8000007F80000070F
:10077000F8000007F8000007F8000007F80000077D
:10078000F0FF000FF0FF000FF0FF001FF0FF803FB1
:10079000E07FE0FFC07FFFFFC03FFFFF801FFFFF44
:1007A000000FFFFC0003FFF800007FC0001D2CB00D
:1007B0002102FF000FF000007FFC0000FFFF00039C
:1007C000FFFF8007FFFFC007FFFFE00FFC3FE01FB8
:1007D000F00FF01FE00FF03FC007F83FC007F83FF1
:1007E0008000007F8000007F8000007F8000007F0D
:1007F000000000FF03F800FF1FFE00FF3FFF00FFA7
:100800007FFF80FFFFFFC0FFFFFFE0FFF83FF0FF2B
:10081000E01FF0FFC00FF0FFC00FF8FF8007F8FFE8
:100820008007F8FF8007F8FF8007F8FF8007F87F50
:100830008007F87F8007F87F8007F07FC00FF03FC8
:10084000C00FF03FE01FE01FF83FE01FFFFFC00FA9
:10085000FFFF8007FFFF0003FFFE0000FFF800001E
:100860003FC0001C2AA8210300FFFFFFF0FFFFFF8D
:10087000F0FFFFFFF0FFFFFFF0FFFFFFF0FFFFFFC4
:10088000F0FFFFFFF000000FF000000FF000001F6E
:10089000F000001FE000003FE000003FC000007FCC
:1008A000C000007FC00000FF800000FF800001FF4B
:1008B000000001FF000001FE000003FE000003FE37
:1008C000000007FC000007FC00000FF800000FF814
:1008D00000001FF800001FF000001FF000003FE0C4
:1008E00000003FE000007FC000007FC00000FFC0AC
:1008F0000000FF800001FF800001FF000003FF00F7
:100900000003FF000003FE000007FE000007FC00DC
:10091000001D2CB02102FF003FF00001FFFE000788
:10092000FFFF800FFFFFC01FFFFFE03FFFFFF03F13
:10093000F87FF07FE01FF07FE01FF87FC00FF87FA7
:10094000C00FF87FC00FF87FC00FF87FC00FF83FCF
:10095000E01FF03FE01FF01FF87FE00FFFFFC00730
:10096000FFFF0001FFFC0000FFF80003FFFE000F87
:10097000FFFF801FFFFFC03FF03FE07FE01FE07FF1
:10098000C00FF07FC00FF0FF8007F8FF8007F8FF6F
:100990008007F8FF8007F8FF8007F8FF8007F8FF5F
:1009A000C00FF8FFC00FF87FE01FF07FF03FF07F2F
:1009B000FFFFE03FFFFFE01FFFFFC00FFFFF8003CF
:1009C000FFFE00007FF0001D2CB02102FF001FC0C1
:1009D0000000FFF80003FFFE0007FFFF000FFFFF0E
:1009E000801FFFFF803FE0FFC03FC03FE07F801FD0
:1009F000E07F801FE07F000FF0FF000FF0FF000F8F
:100A0000F0FF000FF0FF000FF8FF000FF8FF000FDE
:100A1000F8FF000FF8FF801FF87F801FF87FC03FAE
:100A2000F87FE0FFF83FFFFFF81FFFFFF81FFFF719
:100A3000F80FFFE7F803FFC7F800FE07F000000714
:100A4000F000000FF000000FF000000FF000000FAA
:100A5000E07F801FE07F801FE03F803FC03FC07F7E
:100A6000C03FE0FF801FFFFF800FFFFF0007FFFE7A
:100A70000003FFFC0001FFF000003FC000081D1D47
:100A8000130800FFFFFFFFFFFFFFFF000000000053
:100A90000000000000000000FFFFFFFFFFFFFFFF5E
:100AA00000121A00001803700390207F001A00182B
:100AB000000000000B0000FFFFFFFFFFFFFFFFFF34
:100AC000FF11103013010601C00001C00001C00079
:100AD00001C00001C00001C00001C000FFFF80FF95
:100AE000FF8001C00001C00001C00001C00001C0C2
:100AF0000001C00001C0000708080B03023E3E3E93
:100B00003E3EF0F0F00902040B010DFF80FF80056E
:100B100005050B0502F8F8F8F8F8FF11184813015D
:100B200002FFFF80FFFF80C00380C00380C00380FE
:100B3000C00380C00380C00380C00380C00380C0A6
:100B40000380C00380C00380C00380C00380C00353
:100B500080C00380C00380C00380C00380C00380C6
:100B6000FFFF80FFFF80FFFF80061818130702FCBD
:100B7000FC1C1C1C1C1C1C1C1C1C1C1C1C1C1C1CD5
:100B80001C1C1C1C1C1C1C111848130102FFFF809C
:100B9000FFFF8000038000038000038000038000CB
:100BA0000380000380000380000380000380FFFFB8
:100BB00080FFFF80C00000C00000C00000C0000037
:100BC000C00000C00000C00000C00000FFFF80FFA8
:100BD000FF80FFFF80111848130102FFFF80FFFF15
:100BE00080000380000380000380000380000380F6
:100BF0000003800003800003800003801FFF801F2C
:100C0000FF80000380000380000380000380000356
:100C100080000380000380000380FFFF80FFFF80CF
:100C2000FFFF80111848130102C00380C00380C079
:100C30000380C00380C00380C00380C00380C00362
:100C400080C00380C00380C00380FFFF80FFFF805F
:100C50000003800003800003800003800003800005
:100C600003800003800003800003800003800003F2
:100C700080111848130102FFFF80FFFF80C00000B1
:100C8000C00000C00000C00000C00000C00000C0E4
:100C90000000C00000C00000FFFF80FFFF800003D5
:100CA0008000038000038000038000038000038035
:100CB000000380000380FFFF80FFFF80FFFF8011A3
:100CC0001848130102FFFF80FFFF80C00000C00032
:100CD00000C00000C00000C00000C00000C0000054
:100CE000C00000C00000FFFF80FFFF80C00380C085
:100CF0000380C00380C00380C00380C00380C003A2
:100D000080C00380FFFF80FFFF80FFFF801018304E
:100D1000130202FFFFFFFF000700070007000700A4
:100D2000070007000700070007000700070007008B
:100D3000070007000700070007000700070007007B
:100D4000070007111848130102FFFF80FFFF80C052
:100D50000380C00380C00380C00380C00380C00341
:100D600080C00380C00380C00380FFFF80FFFF803E
:100D7000C00380C00380C00380C00380C00380C064
:100D80000380C00380C00380FFFF80FFFF80FFFF60
:100D900080111848130102FFFF80FFFF80C003800D
:100DA000C00380C00380C00380C00380C00380C034
:100DB0000380C00380C00380FFFF80FFFF8000032B
:100DC0008000038000038000038000038000038014
:100DD000000380000380FFFF80FFFF80FFFF80058E
:100DE00010100B0502F8F8F8F8F8000000000000F9
:100DF000F8F8F8F8F80710100B03023E3E3E3E3EAE
:100E00000000003E3E3E3E3EF0F0F0FFFFFFFFFFE1
:100E1000FFFFFFFFFFFFFFFFFFFFFFFFFFFFFFFFE2
:100E2000FFFFFFFFFFFFFFFFFFFFFFFFFFFFFFFFD2
:100E3000FFFFFFFFFFFFFFFFFFFFFFFFFFFFFFFFC2
:100E4000FFFFFFFFFFFFFFFFFFFFFFFFFFFFFF00B1
:100E5000090F00FD0A01E803D820FFFD0CFD0BFD82
:100E600000000009000C010B0B0904008080808049
:100E70008080800000808004030309030790909025
:100E80000608080901014848FC4848FC4848070B87
:100E90000B0901FF107C929050381412927C1007BD
:100EA0000A0A09010042A4A4481010244A4A8407EF
:100EB0000A0A09010060909090606294889462012F
:100EC0000303090407808080030C0C0903FF204002
:100ED00040808080808080404020030C0C0903FF0C
:100EE0008040402020202020204040800707070924
:100EF000010310925438549210070707090101109A
:100F00001010FE1010100205050904FDC0C040407D
:100F100080070101090104FE020202090400C0C0A9
:100F2000070A0A090100020404081010204040804A
:100F3000070A0A0901003844828282828282443888
:100F4000070A0A090100103050901010101010FE0E
:100F5000070A0A0901007C8282040810204080FEF2
:100F6000070A0A090100FE0204081C020202827C30
:100F7000070A0A090100040C14244484FE04040432
:100F8000070A0A090100FE8080BCC2020202827CBC
:100F9000070A0A0901003C408080BCC28282827C30
:100FA000070A0A090100FE020404080810102020A4
:100FB000070A0A09010038448244384482824438CE
:100FC000070A0A0901007C828282867A020204787A
:100FD000020707090400C0C0000000C0C0020A0ADE
:100FE0000904FDC0C0000000C0C0404080050A0ADE
:100FF00009020008102040808040201008070404E7
:10100000090102FE0000FE050A0A090200804020D4
:1010100010080810204080070A0A0901007C82821B
:1010200002040810100010070A0A0901007C8282DD
:101030009EA2A69A80807C070A0A09010010284413
:10104000828282FE828282070A0A090100F8848273
:1010500084F884828284F8070A0A0901007C82806D
:101060008080808080827C070A0A090100F88482DF
:10107000828282828284F8070A0A090100FE808047
:1010800080F880808080FE070A0A090100FE8080C7
:1010900080F88080808080070A0A0901007C8280B5
:1010A00080808E8282827C070A0A09010082828205
:1010B00082FE8282828282050A0A090200F82020CA
:1010C000202020202020F8080A0A0901001F04041B
:1010D00004040404048478070A0A0901008284884D
:1010E00090E0A090888482070A0A0901008080802D
:1010F000808080808080FE070A0A0901008282C603
:10110000AAAA9292828282070A0A0901008282C2F6
:10111000A2928A86828282070A0A0901007C828260
:101120008282828282827C070A0A090100FC828212
:1011300082FC8080808080070C0C0901FE7C82820A
:1011400082828282A2927C0806070A0A090100FCB8
:10115000828282FC9088848282070A0A0901007CCC
:10116000828280700C0282827C070A0A090100FEDA
:10117000101010101010101010070A0A0901008238
:1011800082828282828282827C070A0A090100822C
:10119000828244444428282810070A0A0901008250
:1011A00082828292929292AA44070A0A09010082DC
:1011B000824428101028448282070A0A090100820A
:1011C000824428101010101010070A0A090100FEAE
:1011D0000204081020408080FE040C0C0903FFF07C
:1011E00080808080808080808080F0070A0A0901EA
:1011F0000080404020101008040402040C0C090276
:10120000FFF010101010101010101010F007040450
:10121000090106102844820801010900FFFF0303A9
:10122000030903088040200707070901007C020228
:101230007E82867A070A0A090100808080BCC28209
:101240008282C2BC0707070901007C8280808082FD
:101250007C070A0A0901000202027A8682828286DB
:101260007A0707070901007C8282FE80807C070ADA
:101270000A0901001C22222020F820202020070A31
:101280000A0901FD7A84848478807C82827C070A42
:101290000A090100808080BCC28282828282050AA3
:1012A0000A090200600000E02020202020F8060D3E
:1012B0000D0901FD0C00001C040404040484848452
:1012C00078070A0A090100808080828CB0C0B08C47
:1012D00082050A0A090200E0202020202020202088
:1012E000F8070707090100EC929292929282070791
:1012F00007090100BCC282828282820707070901B6
:10130000007C82828282827C070A0A0901FDBCC2BB
:10131000828282C2BC808080070A0A0901FD7A8627
:10132000828282867A0202020707070901009C6214
:1013300042404040400707070901007C82807C0250
:10134000827C0709090901002020FC20202020229E
:101350001C0707070901008484848484847A0707B2
:101360000709010082824444282810070707090161
:10137000008282929292AA440707070901008244E0
:101380002810284482060A0A0901FD848484848482
:101390008C74048478070707090100FE04081020F4
:1013A00040FE050C0C0903FF3840404020C0C0201F
:1013B00040404038010C0C0904FF80808080808010
:1013C000808080808080050C0C0901FFE0101010E7
:1013D00020181820101010E007030309010762927B
:1013E0008CFFFFFFFFFFFFFFFFFFFFFFFFFFFFFF80
:1013F000FFFFFFFFFFFFFFFFFFFFFFFFFFFFFFFFFD
:10140000FFFF00000009000C010B0B0904008080A5
:101410000000808080808080800608080901000824
:10142000789490A0A47840070A0A0901001C2220A1
:1014300020F8202060A25C070606090103827C4494
:10144000447C82070A0A090100828244287C107CBD
:10145000101010010B0B0904FF8080808080008039
:1014600080808080040B0B0902FF60908060909068
:101470009060109060050202090209888808090935
:101480000900013C4299A5A1A599423C050707091D
:101490000103609070907800F807080809010112B4
:1014A00024489090482412060404090102FC040414
:1014B00004050101090204F80809090900013C4278
:1014C000B9A5B9A9A5423C060101090109FC04041A
:1014D00004090306609090600709090901011010D2
:1014E00010FE10101000FE040606090104609010A2
:1014F0006080F004060609010460902010906003EB
:1015000003030903082040800709090901FE8282BC
:10151000828282C6BA8080070A0A0901007E8A8A0E
:101520008A7A0A0A0A0A0A020202090404C0C004EA
:1015300003030902FD30906003060609010440C060
:10154000404040E00506060901047088887000F8F4
:101550000708080901019048241212244890070A3C
:101560000A09010040C0404042E60A121A06070A72
:101570000A09010040C040404CF2020C101E070A4C
:101580000A0901006090201092660A121A06070AE2
:101590000A0901001000101020408082827C070C94
:1015A0000C0901004020100038448282FE828282B1
:1015B000070C0C0901000408100038448282FE82E6
:1015C0008282070C0C0901001028440038448282F2
:1015D000FE828282070B0B090100629C0038448264
:1015E00082FE828282070B0B0901004444003844CA
:1015F0008282FE828282070B0B0901003844382860
:10160000448282FE828282070A0A0901006E90905B
:101610009090FC9090909E070D0D0901FD7C8280BA
:101620008080808080827C184830070C0C09010083
:1016300040201000FE404078404040FE070C0C095E
:10164000010004081000FE404078404040FE070CB6
:101650000C09010010284400FE404078404040FE44
:10166000070B0B090100444400FE40407840404015
:10167000FE050C0C09020080402000F820202020EC
:101680002020F8050C0C09020008102000F820208A
:1016900020202020F8050C0C09020020508800F8BA
:1016A000202020202020F8050B0B0902008888004C
:1016B000F8202020202020F8080A0A0900007C4297
:1016C0004141E1414141427C070B0B090100629C11
:1016D0000082C2A292928A8682070C0C0901004005
:1016E0002010007C8282828282827C070C0C09019D
:1016F00000040810007C8282828282827C070C0CAB
:10170000090100102844007C8282828282827C0748
:101710000B0B090100629C007C8282828282827CA7
:10172000070B0B0901004444007C82828282828282
:101730007C07070709010182442810284482070C0E
:101740000C0901FF027C868A8A9292A2A2C27C8046
:10175000070C0C09010040201000828282828282E4
:10176000827C070C0C09010004081000828282822E
:101770008282827C070C0C090100102844008282BE
:1017800082828282827C070B0B0901004444008222
:101790008282828282827C070C0C0901000408107C
:1017A000008282442810101010070A0A09010080E4
:1017B00080FC828282FC808080060A0A090100384F
:1017C000444448D04844444458070B0B09010020C6
:1017D0001008007C02027E82867A070B0B0901004A
:1017E000040810007C02027E82867A070B0B090136
:1017F00000102844007C02027E82867A070A0A09C9
:101800000100324C007C02027E82867A070A0A09B5
:1018100001004444007C02027E82867A070B0B0999
:101820000100182418007C02027E82867A070707CE
:101830000901006C92127C90926E070A0A0901FD60
:101840007C82808080827C184830070B0B09010065
:10185000402010007C8282FE80807C070B0B0901F7
:1018600000040810007C8282FE80807C070B0B093C
:101870000100102844007C8282FE80807C070A0AD6
:101880000901004444007C8282FE80807C050B0BB1
:1018900009020080402000E02020202020F8050BD5
:1018A0000B09020010204000E02020202020F80634
:1018B0000B0B090100205088007010101010107CD4
:1018C000050A0A090200909000E02020202020F85C
:1018D000070B0B090100483050087C82828282820B
:1018E0007C070A0A090100629C00BCC282828282D3
:1018F00082070B0B090100402010007C828282824B
:10190000827C070B0B090100040810007C82828294
:1019100082827C070B0B090100102844007C828224
:101920008282827C070A0A090100629C007C828212
:101930008282827C070A0A0901004444007C828278
:101940008282827C07090909010010381000FE001C
:101950001038100709090901FF027C8A8A92A2A2A5
:101960007C80070B0B0901004020100084848484D4
:1019700084847A070B0B0901000408100084848416
:101980008484847A070B0B090100102844008484A6
:10199000848484847A070A0A090100484800848400
:1019A000848484847A060E0E0901FD0810200084C8
:1019B000848484848C74048478070C0C0901FD8071
:1019C0008080BCC28282C2BC808080060D0D09016D
:1019D000FD48480084848484848C74048478F328CB
:1019E00011241FBECFEFD8E0DEBFCDBF13E0A0E0D3
:1019F000B1E0E8E7F9E502C005900D92A43EB10719
:101A0000D9F725E0A4EEB3E001C01D92A532B207DC
:101A1000E1F71CE0C0EFDCE004C02197FE010E946A
:101A2000B42CCF3ED107C9F70E94D9200C94BA2C10
:101A30000C9400004F925F926F927F928F929F92D0
:101A4000AF92BF92CF92DF92EF92FF920F931F93CC
:101A5000CF93DF9300D000D0CDB7DEB74B015C0150
:101A600029013A016701780120E030E0A9010E94D4
:101A7000CE2A87FDA6C020E030E0A901C301B20153
:101A80000E94CE2A87FD9DC020E030E0A901C80158
:101A9000B6010E94CE2A87FD94C081E02091C50442
:101AA0003091C6042130310509F080E08093E604CE
:101AB0008092AB049092AC04A092AD04B092AE04BC
:101AC0004092AF045092B0046092B1047092B2049C
:101AD000C092B304D092B404E092B504F092B6047C
:101AE0006091D9047091DA048091DB049091DC0458
:101AF0000E947B2B20E030E04AE754E40E94D32A86
:101B000069837A838B839C838092B7049092B80414
:101B1000A092B904B092BA049B01AC01C301B20116
:101B20000E94322C2B013C014092BB045092BC0419
:101B30006092BD047092BE0429813A814B815C8120
:101B4000C701B6010E94D32A6B017C01C092BF0479
:101B5000D092C004E092C104F092C2048091C30408
:101B60009091C404019769F5A501940160E070E0CB
:101B7000CB010E94612A6093B7047093B8048093EC
:101B8000B9049093BA04A301920160E070E0CB0124
:101B90000E94612A6093BB047093BC048093BD04CF
:101BA0009093BE04A701960160E070E0CB010E9413
:101BB000612A6093BF047093C0048093C104909322
:101BC000C2040F900F900F900F90DF91CF911F9153
:101BD0000F91FF90EF90DF90CF90BF90AF909F90CC
:101BE0008F907F906F905F904F90089580E0089560
:101BF0002091EF043091F0042817390799F1909360
:101C0000F0048093EF04009739F120910205FC0164
:101C1000211129C03596E491E09303050C96FC014F
:101C200084918093040580910305082E000C990B84
:101C300020910405821B910927FD939520910505AC
:101C4000203441F0829FC001112426E096958795AB
:101C50002A95E1F78093060586EF9DE090930105B4
:101C6000809300050895213031F43F96E491E0938C
:101C700003054096D4CF3D96E491E09303050E967C
:101C8000CECFFC01808D8F5F0895833081F028F4E2
:101C9000813099F08230A9F008958730A9F088301A
:101CA000C9F08430B1F4809180008F7D03C08091B1
:101CB00080008F7780938000089584B58F7784BDEE
:101CC000089584B58F7DFBCF8091B0008F7780938E
:101CD000B00008958091B0008F7DF9CFCF93DF934E
:101CE000282F30E0F901E255FE4F8491F901E656C4
:101CF000FE4FD491F901EA57FE4FC491CC23A1F0D5
:101D000081110E94450EEC2FF0E0EE0FFF1FE4580A
:101D1000FE4FA591B491EC91ED2381E090E009F4A0
:101D200080E0DF91CF91089580E090E0FACF1F939B
:101D3000CF93DF93282F30E0F901E255FE4F8491D5
:101D4000F901E656FE4FD491F901EA57FE4FC491CE
:101D5000CC23A9F0162F81110E94450EEC2FF0E044
:101D6000EE0FFF1FEE58FE4FA591B4918FB7F89478
:101D7000EC91111108C0D095DE23DC938FBFDF9169
:101D8000CF911F910895DE2BF8CFCF93DF9390E092
:101D9000FC01E656FE4F24918A579E4FFC01849128
:101DA0008823C9F090E0880F991FFC01E859FE4F85
:101DB000A591B491FC01EE58FE4FC591D4916111EB
:101DC0000DC09FB7F8948C91209582238C938881C5
:101DD000282328839FBFDF91CF910895623051F46B
:101DE0009FB7F8943C91822F809583238C93E88150
:101DF0002E2BEFCF8FB7F894EC912E2B2C938FBF17
:101E0000EACFCF93DF93EC0161E089E00E94C50E39
:101E1000209731F460E089E0DF91CF910C94970E28
:101E2000CF3FD10511F461E0F6CFE7EBF1E0E491AB
:101E3000E33029F140F4E130B1F0E230D9F0C038BC
:101E4000D1058CF7E7CFE73021F1E83051F1E430EC
:101E5000B1F780918000806280938000D0938B00E6
:101E6000C0938A0004C084B5806884BDC7BDDF917B
:101E7000CF91089584B5806284BDC8BDF8CF8091AC
:101E80008000806880938000D0938900C093880090
:101E9000EECF8091B00080688093B000C093B30013
:101EA000E6CF8091B00080628093B000C093B40010
:101EB000DECF3FB7F8948091A5049091A604A0913D
:101EC000A704B091A80426B5A89B05C02F3F19F020
:101ED0000196A11DB11D3FBFBA2FA92F982F8827AA
:101EE000BC01CD01620F711D811D911D42E0660F85
:101EF000771F881F991F4A95D1F708958F929F9257
:101F0000AF92BF92CF92DF92EF92FF924B015C01B2
:101F10000E94590F6B017C010E94590F6C197D09B9
:101F20008E099F09683E734081059105A8F321E061
:101F3000821A9108A108B10888EEC80E83E0D81E65
:101F4000E11CF11C81149104A104B10429F7FF9054
:101F5000EF90DF90CF90BF90AF909F908F900895BB
:101F60002FB7F8946091A1047091A2048091A3040A
:101F70009091A4042FBF0895AF92BF92CF92DF92A9
:101F8000EF92FF920F931F93CF93DF936C017B012E
:101F90008B01040F151FEB015E01AE18BF08C017BF
:101FA000D10759F06991D601ED91FC910190F08132
:101FB000E02DC6010995892B79F7C501DF91CF91F5
:101FC0001F910F91FF90EF90DF90CF90BF90AF9057
:101FD00008950895DC011696ED91FC9117971296DD
:101FE0008C91481B477081E090E001C0880F4A95B2
:101FF000EAF7E60FF11D3081222319F0832B80834D
:10200000089580958323FBCFFB014181DC0112966B
:102010002C911297421768F013962C91139724175E
:1020200040F0608115962C91621718F424810C946D
:10203000EA0F0895FC0180819281980F928321819B
:10204000921760F494819F5F94839381890F821724
:1020500010F08FEF820F838381E0089580E0089570
:10206000FC01128280818150838314820895DB01F8
:10207000ED91FC9109940F931F93CF93DF931F92DF
:10208000CDB7DEB70091ED041091EE04E0911C0590
:10209000F0911D0582E0099530E020E04AE0B801AA
:1020A0008BEE94E00E943710182FE0911C05F09100
:1020B0001D0583E00995E0911C05F0911D0580E068
:1020C00009951123B9F16091ED047091EE049E0120
:1020D0002F5F3F4F46E48BEE94E00E9437108981DA
:1020E0008093EB046091ED047091EE049E012F5FEC
:1020F0003F4F47E48BEE94E00E9437108981809334
:10210000EC046091ED047091EE0430E020E048E4CE
:102110008BEE94E00E9437108093F6046091ED04FA
:102120007091EE042EE135E047E18BEE94E00E94E1
:10213000371011E0812F0F90DF91CF911F910F91F8
:102140000895CF93DF9380912405811105C081E02C
:10215000809324050E943B10C091ED04D091EE04C1
:10216000E0911C05F0911D0582E00995E0911C05A8
:10217000F0911D0581E0099530E020E044E1BE01C9
:102180008BEE94E00E9437102EE135E047E1BE016E
:102190008BEE94E00E943710E0911C05F0911D0534
:1021A00080E0DF91CF9109940F931F93CF93E0913B
:1021B000F904F091FA04309719F08BEE94E0099548
:1021C0000091ED041091EE04E0911C05F0911D05C5
:1021D00082E00995E0911C05F0911D0581E00995CB
:1021E00030E020E045E1B8018BEE94E00E9437102A
:1021F000C82F882341F02EE135E047E1B8018BEE8E
:1022000094E00E943710E0911C05F0911D0580E0DC
:1022100009958C2FCF911F910F9108950B96FC017A
:10222000849108950A96FC0184910895FC0184919B
:1022300008950E941611882321F0823011F083E066
:10224000089586E00895FC01E60FF11D849190E069
:10225000982F88273196E4918E0F911D089568E09C
:102260000C94231166E00C9423115F926F927F927D
:102270008F929F92AF92BF92CF92DF92EF92FF9296
:102280000F931F93CF93DF93EC01E62EF42EC22E13
:102290000C811D81C8010E941611D82E8C819D8150
:1022A0000E941911982E21E0AA24AA94D21202C0E9
:1022B0002FE0A22E8C819D810E941211D82E8C813C
:1022C0009D810E940E11B82E8C819D810E942F113C
:1022D000E0E6EC1578F4009769F0080F191F91E615
:1022E000D92EBC14C0F4188A1B8A1C8A198A1A8A2F
:1022F00080E0A0C08C819D810E943211F0E4FC1529
:1023000038F4009729F0080F191F81E4D82EE9CF7F
:102310000F5E1F4FE6CFBD1430F3892D90E0F8011A
:1023200024912F3F31F40F5F1F4FBD14E1F2D3947E
:10233000F6CFCD1072C08C819D810E94161198013C
:102340002F5F3F4FF801882319F0823009F04EC00B
:1023500084918B8BF90124912C8BF8013396E491B5
:10236000E88BF8013496E491E98BF8013596E49115
:10237000EA8B0115110509F4BBCF8C819D810E9468
:1023800019113C89F31A9A89F91A9FEF930F9F0D3F
:102390002CA94EA94F1508F449C0921718F49F159F
:1023A00008F047C02B899989E90E9FEF920F9E0D87
:1023B0004BA95DA95E1508F44DC0941718F49E153D
:1023C00008F037C0080F111D295F722E769476949D
:1023D00076946F2C630E5E01FCE1AF0EB11C872C6E
:1023E000912CF61431F15E2C68014AC08491982F2B
:1023F0009F7092509A8B82958F70898BF9012491EE
:10240000822F8F708C8B22952F702B8BF801329638
:10241000E491E295EF70E88BACCF3296E491EA213B
:10242000E80FF92FF11D0E0F1F1F7FCF921708F035
:10243000B6CF8889DF91CF911F910F91FF90EF90D8
:10244000DF90CF90BF90AF909F908F907F906F90D4
:102450005F900895941708F0B2CFEBCFF601849106
:102460006A817B815C8EFD8E1F8E8E8F95014BE382
:10247000CE010E943710FFEFCF1ADF0A28E0520E7C
:102480008C2D801B871550F3080D191DF394A9CFCF
:10249000EF92FF920F931F93CF93DF93F82E062FA7
:1024A000E42E152FE0910005F09101058BEE94E0EC
:1024B0000995080FCE2DD12F10E02991211108C0C8
:1024C000812FDF91CF911F910F91FF90EF90089591
:1024D000402F6F2D8BEE94E00E943511F80E180FEF
:1024E000ECCF0F931F93CF93DF938C01E091000506
:1024F000F09101058BEE94E00995D82FC0E0F8012A
:102500002491222351F04D2F6C2F8BEE94E00E94EA
:102510003511C80F0F5F1F4FF2CF8C2FDF91CF9176
:102520001F910F9108952EE93FE0009709F4089557
:10253000F9013197F1F70197F8CFCF93DF9300D0EE
:10254000CDB7DEB720ED37E03A8329839091BC0008
:10255000982311F081E00FC029813A81232B81F467
:102560008091AA0481FDF6CF8091A90481110DC04C
:1025700091E09093A9040F900F90DF91CF9108956F
:1025800029813A8121503109DFCF80E0F4CF84EAFC
:102590008093BC0061E080E80E949D12811102C01E
:1025A00080E008958091B900887F883051F08031B3
:1025B00041F08091A9048111F3CF82E08093A904B6
:1025C000EFCF88E78093BB0084E88093BC0062E093
:1025D00080E80E949D12882319F38091AA0481FD4E
:1025E00005C08091B900887F883119F781E008958E
:1025F00084E98093BC0064E080E10C949D12809398
:10260000BB0084E88093BC0063E080E80E949D12D8
:102610008823A1F08091AA0481FD0DC08091B900AA
:10262000887F883241F08091A904811106C092E030
:102630009093A904089581E0089580E00895109290
:10264000A90408958093AA041092B90084FF05C0DC
:102650008CE08093B8000C941F1388E4FACFCF93DA
:10266000DF93FC0123A5222389F0EC010E94C7120D
:10267000811104C080E0DF91CF9108958EA1811176
:1026800007C00E94FF128823A9F31BA681E0F3CFA5
:1026900080E4F7CF0F931F93CF93DF93C62FD42FF0
:1026A0008901633001F138F4613099F0623009F446
:1026B00049C0C1E012C0663029F1673091F1653040
:1026C000C1F70E942F13811117C00E94F812C0E0B9
:1026D00004C0FC0186A50E9422138C2FDF91CF91AC
:1026E0001F910F910895FC0116A221E023A741112B
:1026F000E0CF0E94F812DDCF8D2F0E94FF128111D2
:10270000D8CFE3CF0E942F138823F9F2DD2389F27B
:10271000F80181918F010E94FF128823B1F2D150FC
:10272000F5CF0E942F13882381F2DD2311F2F801E7
:1027300084910E94FF12C82F882379F20F5F1F4FE8
:10274000D150F3CFFC0146A321E023A7B2CFDB0198
:102750001496ED91FC9130E020E065E00994DB01F6
:102760001496ED91FC9130E020E062E00994DB01E9
:102770001496ED91FC9130E020E063E00994CF9253
:10278000DF92EF92FF920F931F93CF93DF938C0111
:102790007B016A0180E0F601C491811110C081E0E3
:1027A000CF3F49F04C2FB701C8010E94A7138823DF
:1027B00009F444C080E0BFEFCB1ADB0AECCF4FEF47
:1027C000CF3F89F3CE3FD9F1C03FA0F7C03E38F0EC
:1027D0004C2F4F70B701C8010E94AF13EBCFC03D23
:1027E00038F04C2F4F70B701C8010E94B713E2CFE9
:1027F000C03CF8F0D7011496ED91FC9130E020E058
:1028000040E064E0C8010995C295C07FCE5FD0E08A
:10281000CE010E949312D7011496ED91FC9130E005
:1028200020E041E064E0C8010995CE010E949312C6
:10283000C1CFC7FDBFCF8C2F90E0F8CF80E0DF91F4
:10284000CF911F910F91FF90EF90DF90CF9008955F
:10285000AF92BF92CF92DF92FF920F931F93CF93CD
:10286000DF936C018B01F42EE90180E1481709F434
:102870007EC0841778F1AAE04A1709F461C0BFE06E
:102880004B1709F47FC0F80102811381F2E3FF16B0
:1028900009F4DDC0FF1508F48EC085E1F81609F4CF
:1028A000DBC0A7E1FA1609F4ECC0B4E1FB1265C085
:1028B000D8011696ED91FC91179715968C918E0F75
:1028C0009F2F911D11928E179F07E1F7C8010E945B
:1028D000301053C0E1E14E1709F451C0F5E14F1338
:1028E000D2CFFB01A280B38042EA50E0C6010E9431
:1028F000BF13D50114964C91406BB801C6010E94DC
:10290000A71341E0B801C6010E94AF13F50126816B
:102910003781D8011496ED91FC91D50115964C9113
:1029200066E0C601099581111CC080E0DF91CF915E
:102930001F910F91FF90DF90CF90BF90AF900895BF
:10294000DB011496ED91FC9130E020E042E061E083
:10295000C60109954AEA50E0B801C6010E94BF13BA
:1029600092CF40E0B801C6010E94B7138CCF49E96D
:1029700050E0B801C6010E94BF1381E0D7CF4EE8F6
:1029800050E0F7CF41E0C6010E94B71340E0B80124
:10299000C6010E94AF1341E8B801C6010E94A71307
:1029A0004881B801C6010E94A71340E0B801C601E2
:1029B0000E94B713E2CFE6E4FE1609F46CC0F7E418
:1029C000FF1609F46DC08BE3F812D7CF99818B8184
:1029D00038E0390F813031F0833011F0392F02C0E7
:1029E000392F985021E0D80113964C91491708F4DB
:1029F00020E041E0391708F040E091E0F801528111
:102A0000351708F490E0322F342B932319F4242344
:102A100009F4B3CFFA80D12CC12C843048F490E073
:102A2000FC01E95EFD4FC0808D5E9D4FDC01DC90B6
:102A3000F7FE04C0BE01C8010E94041088818C0DFD
:102A4000888389818D0D8983FF0C91F796CFBE0114
:102A5000C8010E94041091CFC8010E941A10882357
:102A600009F463CFD8011696ED91FC91179715964E
:102A70008C918E0F9F2F911D11928E179F07E1F75A
:102A80007CCF1882F80182818983858181508A8375
:102A900083818B8372CFD80115968C9188836DCFFB
:102AA000F8018181FBCF80917A00806980937A0060
:102AB0008EE480937C0061E070E080E090E00E9412
:102AC0007E0F83B7817F826083BF80E130E020E0AA
:102AD00093B7916093BF889593B79E7F93BF909172
:102AE0007A0096FDFCCF4091780050917900240F38
:102AF000351F815069F780917A008F7780937A0033
:102B000084E0369527958A95E1F750E040E064EB44
:102B10007BE281E190E00E94062AC901089580913C
:102B20007A00806980937A0088EC80937C0064E16D
:102B300070E080E090E00E947E0F83B7817F82602A
:102B400083BF80E270E060E093B7916093BF8895A7
:102B500093B79E7F93BF90917A0096FDFCCF209112
:102B6000780030917900620F731F815069F780916E
:102B70007A008F7780937A0076956795769567953A
:102B800062527A4090E080E00E947B2B26EF38E290
:102B90004CE151E40E94D32A089590917A00906903
:102BA00090937A008E50806480937C0083B7817FFD
:102BB000826083BF20E290E080E033B7316033BFB2
:102BC000889533B73E7F33BF30917A0036FDFCCF16
:102BD0004091780050917900840F951F215069F73A
:102BE00020917A002F7720937A0025E0969587959B
:102BF0002A95E1F708958FE00E94CD15A091700409
:102C0000B09171049C010E94522A0E947D2B28E5FC
:102C100039E743E353E40E94D32A0E944C2BCB01B3
:102C200008950F931F93CF938091B201882399F059
:102C3000CFEF0FEE11E061E085E00E94970EC80132
:102C40000197F1F760E085E00E94970EC8010197B7
:102C5000F1F7C15081F7CF911F910F910895CF9255
:102C6000DF92EF92FF920F931F93CF93DF93D82EB3
:102C7000C92E86E00E946E0EC1E0892B09F0C0E0EB
:102C80000E94A11081E4E82E8EE0F82E8FE49EE0F1
:102C90000E94F80DF0920105E09200050D2D1C2D0B
:102CA000D0E0F801419151918F016D2F80E00E9499
:102CB0004812D05FD038A9F70E94D4108111E6CF16
:102CC000CC2369F086E00E946E0EC1E0892B39F0BA
:102CD0006AE070E080E090E00E947E0FC0E086E055
:102CE0000E946E0E892B61F7C111ECCFDF91CF915D
:102CF0001F910F91FF90EF90DF90CF900C941116E1
:102D00005F926F927F928F929F92AF92BF92CF927B
:102D1000DF92EF92FF920F931F93CF93DF939090E8
:102D20008F04AA24A394911001C0A12C892D90E0B6
:102D300020916C012150330B10927704109276048D
:102D4000309375042093740421E030E030937304D1
:102D500020937204909382048093810486E00E9401
:102D60006E0EDD24D394892B09F0D12C01E41EE0F2
:102D700036E0B32EC0918104D0918204CC2E7E0126
:102D8000FF24C7018A0D911DA7FC9A958919910905
:102D9000A12C97FD06C08330910514F082E090E0ED
:102DA000A82E0E94A1108A2D0A2C000C990B3C0120
:102DB0002FEF621A720A629420EF62225C2C5A187A
:102DC000E81AF90A8FE49EE00E94F80D10930105BD
:102DD0000093000584E790E00E9471124BE152E0FD
:102DE000662D80E00E944812912C812C712C852D3B
:102DF000870D739490916C01891780F4C701880D39
:102E0000991DB89EA001B99E500D11244A525E4FE3
:102E1000672D6295607F8CE00E9448128FEF881AC0
:102E2000980A23E07212E3CF0E94D4108111CACF16
:102E3000DD2061F086E00E946E0E892B39F06AE099
:102E400070E080E090E00E947E0FD12C86E00E942E
:102E50006E0E892BB1F4D11014C00E941116C092CD
:102E60008F04DF91CF911F910F91FF90EF90DF9032
:102E7000CF90BF90AF909F908F907F906F905F901A
:102E800008959C2E77CF2F923F924F925F926F9230
:102E90007F928F929F92AF92BF92CF92DF92EF92EA
:102EA000FF920F931F93CF93DF9300D000D0CDB745
:102EB000DEB77C01942EFC0120803180772473944E
:102EC000411101C0712C70E0759567956A83892D59
:102ED00090E062507109109277041092760470931A
:102EE00075046093740421E030E030937304209300
:102EF0007204909382048093810486E00E946E0E97
:102F000066246394892B09F0612CCC24CA943FE792
:102F1000D32E41E4A42E4EE0B42E009181041091F2
:102F20008204502E980133273C832B83C901870DDF
:102F3000911D77FC9A9589199109712C97FD06C00E
:102F40008330910514F082E090E0782E0E94A11069
:102F5000272D072C000C330BC9010196482F4295F1
:102F6000407F49832C9DC0012D9D900D3C9D900D6F
:102F70001124EB81FC81E80FF91FEE0FFF1FFC838A
:102F8000EB838FE49EE00E94F80DB0920105A092C1
:102F90000005F7014081518160E080E00E94481205
:102FA000FDE12F16F2E03F0661F440918F0426E028
:102FB000429FA00111244A525E4F60E086E30E94C6
:102FC00048124BE152E0698180E00E944812882457
:102FD0008394912C412C4394852D840D87193A813B
:102FE000831788F4F401EE0FFF1F8B819C81E80F9B
:102FF000F91FEE0DFF1D40815181642D6295607FA8
:103000008CE00E9448129FEF891A990AE3E04E1261
:10301000E2CF0E94D4108111B4CF662061F086E027
:103020000E946E0E892B39F06AE070E080E090E03B
:103030000E947E0F612C86E00E946E0E892BE1F4C7
:1030400061101AC00E941116852D0F900F900F90DD
:103050000F90DF91CF911F910F91FF90EF90DF9034
:10306000CF90BF90AF909F908F907F906F905F9028
:103070004F903F902F900895902E4FCF3F924F92B8
:103080005F926F927F928F929F92AF92BF92CF92F8
:10309000DF92EF92FF920F931F93CF93DF93CDB701
:1030A000DEB72E970FB6F894DEBF0FBECDBF80916E
:1030B0009904882309F4A5C110929C0410929D04E0
:1030C00010929E0410929F0480909C0490909D0406
:1030D000A0909E04B0909F04C0908A04D0908B046E
:1030E000E0908C04F0908D04A7019601C501B40115
:1030F0000E94612A2B013C0120E030E0A9010E94DE
:103100002D2C18160CF0A0C1C301B2010E944C2B4B
:103110008091BF01882309F4B8C1C0926504D092A0
:103120006604E0926704F0926804E12CF12C00EA56
:1031300010E420E030E040E450E46E31710540F0EE
:10314000E12CF12C00E81FE320E030E040E05FE3F9
:1031500060E070E080E391E40E941A0D8091E50444
:10316000882309F42AC10E94B00F6D837E838F8368
:1031700098878091CD049091CE04A091CF04B09116
:10318000D0044D815E816F817885481B590B6A0B95
:103190007B0B8091D9049091DA04A091DB04B0916B
:1031A000DC04481759076A077B0708F406C1E09159
:1031B000C704F091C80480819181A281B381898381
:1031C0009A83AB83BC83E091CB04F091CC049C0147
:1031D000AD0160817181828193810E94612A4B01DE
:1031E0005C012091D5043091D6044091D7045091D0
:1031F000D80469817A818B819C810E94612A6B014C
:103200007C012091BB043091BC044091BD045091DD
:10321000BE04C501B4010E94322C2091D10430912A
:10322000D2044091D3045091D4040E94622A2B010D
:103230003C014092D1045092D2046092D304709227
:10324000D4043090E60431101AC02091B7043091B4
:10325000B8044091B9045091BA04C701B6010E9464
:10326000322C9B01AC01C301B2010E94612A609320
:10327000D1047093D2048093D3049093D4044090EB
:10328000D1045090D2046090D3047090D404109173
:10329000E1049091E2049E87A091E304AD87009140
:1032A000E404212F392F4A2F502FC301B2010E946D
:1032B0002D2C18160CF0CCC0812F9E85AD85B02F1B
:1032C0008093D1049093D204A093D304B093D404F8
:1032D000332009F4D6C02091B7043091B80440914E
:1032E000B9045091BA04C501B4010E94322C4B01BB
:1032F0005C012091BF043091C0044091C104509101
:10330000C204C701B6010E94322C9B01AC0160913E
:10331000D1047091D2048091D3049091D4040E947E
:10332000612AA50194010E94622A6B017C019B0124
:10333000AC01612F7E858D85902F0E94CE2A87FD5E
:1033400018C01091DD049091DE049E87A091DF04E7
:10335000AD870091E004212F392F4A2F502FB6015D
:10336000C7010E94CE2A87FD04C01C2DDE86ED8693
:103370000F2DE091C904F091CA04812F9E85AD857F
:10338000B02F80839183A283B38389819A81AB819B
:10339000BC818093D5049093D604A093D704B093B6
:1033A000D8048D819E81AF81B8858093CD049093A0
:1033B000CE04A093CF04B093D00460919304709195
:1033C000940480919504909196040E94452BCB0122
:1033D0002E960FB6F894DEBF0FBECDBFDF91CF9112
:1033E0001F910F91FF90EF90DF90CF90BF90AF9023
:1033F0009F908F907F906F905F904F903F900C9434
:10340000010F809198046091840170918501811170
:103410000EC0809188049091890420919704BC018A
:10342000222329F060917F01680F792F711D90E0B0
:1034300080E00E947B2B60939C0470939D0480939A
:103440009E0490939F0440CEC301B20190585ECE7B
:103450008091DD049091DE04A091DF04B091E0043E
:1034600089879A87AB87BC879C01AD01C301B201F4
:103470000E94CE2A87FF2CCF89859A85AB85BC8593
:103480001FCF812C912C540134CF20E030E040E05C
:103490005FE3C701B6010E94622A9B01AC01C5012E
:1034A000B4010E942D2C18164CF410929304109223
:1034B000940410929504109296047FCF80E090E0DF
:1034C000AFE7B3E48093930490939404A09395049E
:1034D000B093960472CF4F925F926F927F928F92C9
:1034E0009F92AF92BF92CF92DF92EF92FF92CF93D3
:1034F000DF9380906C0490906D04A0906E04B09067
:103500006F04C0918F04D0E0C501B4010E94452B27
:103510006B017C0120E030E048E453E4C501B401D4
:103520000E94CE2A93E0CC0FDD1F9A95E1F7C45D8F
:10353000DE4F87FF31C02881398150E040E02551BE
:10354000310941095109C701B6010E94A42C28EC98
:1035500030E040E050E00E94062ACA01B9016B5EEB
:103560007F4F8F4F9F4F0E947D2B60938A047093F3
:103570008B0480938C0490938D04DF91CF91FF9006
:10358000EF90DF90CF90BF90AF909F908F907F9003
:103590006F905F904F9008954A805B80712C612CF2
:1035A00020E030E04CE853E4C501B4010E94CE2A8B
:1035B00087FF1FC088809980B12CA12CA70196019C
:1035C000285C310941095109C301B201681979091F
:1035D0008A099B090E94A42C20E530E040E050E0DD
:1035E0000E94062ACA01B901680D791D8A1D9B1D1A
:1035F000BACF2C813D8150E040E0241935094609BD
:103600005709C701B60168517140810991090E94AB
:10361000A42C20E530E040E050E00E94062ACA01D8
:10362000B901640D751D861D971D9DCFDF92EF9228
:10363000FF920F931F93CF93DF93EC01D62E1CAD17
:103640000BAD7C0184E0E80EF11CE98DFA8DC70119
:103650000995412F480F2D2D602FC7010E9435116C
:103660009BAD890F8BAF81E090E0DF91CF911F91EF
:103670000F91FF90EF90DF9008950F931F93CF93DA
:10368000DF938C01D0E0C0E0F801EC0FFD1F6491E6
:10369000662341F087EE94E00E94161B892B11F0FF
:1036A0002196F2CFCE01DF91CF911F910F91089516
:1036B000682F87EE94E00C94161B2F923F924F9246
:1036C0005F926F927F928F929F92AF92BF92CF92B2
:1036D000DF92EF92FF920F931F93CF93DF9300D06F
:1036E0001F92CDB7DEB7412C1B821A820FE110E08A
:1036F00030E6E32EF12CCC24C394D12C50E2252EBD
:103700006FE5862E912C8A81898386E00E946E0E59
:1037100033243394892B09F0312C109377040093D0
:103720007604F0927504E0927404D0927304C0920F
:103730007204E1E4F0E0F0938204E093810421E478
:10374000A22E2EE0B22E8091810490918204582EF8
:10375000FFE18F1342C01093770400937604F09238
:103760007504E0927404D0927304C0927204909233
:103770008204809281049FE5592E0E94A1108FE45B
:103780009EE00E94F80DB0920105A09200058FE71F
:1037900090E00E94711240922205F0E3F09323051D
:1037A0008EE50E94581B1092220520922305712C51
:1037B000612C8981681648F580918F04F30196E0A9
:1037C000989FE00DF11D1124EA52FE4F80810E9466
:1037D000581BEFEF6E1A7E0AECCF80E65812CDCF61
:1037E0001093770400937604F0927504E0927404C9
:1037F000D0927304C0927204E0E2F0E0F09382048D
:10380000E093810480E2582EB8CF409222052092A6
:103810002305852D0E94581B0E94D4108111AFCF23
:10382000332061F086E00E946E0E892B39F06AE049
:1038300070E080E090E00E947E0F312C86E00E94D4
:103840006E0E892B09F07FCF31107DCFA0908F04B1
:10385000F6E0FA9D50011124C5018A529E4F5C0189
:10386000EA81FB81E80FF91F50820E9411166AE07D
:1038700070E080E090E00E947E0FEA81FB8131964B
:10388000FB83EA83F9E04F0E8DE248123CCFF5014D
:1038900015820F900F900F90DF91CF911F910F9194
:1038A000FF90EF90DF90CF90BF90AF909F908F9060
:1038B0007F906F905F904F903F902F900895089564
:1038C00090E080E00895FC0101900020E9F7319735
:1038D000AF01481B590BBC0187EE94E00C94BC0F60
:1038E0008F929F92AF92BF920F931F93CF93DF93CC
:1038F000CDB7DEB7A1970FB6F894DEBF0FBECDBF30
:1039000019A2423008F44AE08E010F5D1F4F842E49
:10391000912CB12CA12CA50194010E94302AE62FF4
:10392000B901CA01EA30F4F4E05DD801EE938D01EB
:10393000232B242B252B79F790E080E0109719F0AA
:10394000CD010E94631CA1960FB6F894DEBF0FBE96
:10395000CDBFDF91CF911F910F91BF90AF909F90FE
:103960008F900895E95CE1CF4F925F926F927F92C2
:103970008F929F92AF92BF92CF92DF92EF92FF927F
:103980000F931F93CF936B017C01742EAC019B01AD
:103990000E949F2C882399F082E292E0CF911F91A0
:1039A0000F91FF90EF90DF90CF90BF90AF909F90DE
:1039B0008F907F906F905F904F900C94631C4601A6
:1039C0005701E894B7F82FEF3FEF4FE75FE7C501E6
:1039D000B4010E949F2C81110DC02FEF3FEF4FE7E4
:1039E0005FE7C501B4010E94CE2A18161CF486E2D6
:1039F00092E0D4CF2FEF3FEF4FE75FE4C701B6016E
:103A00000E942D2C18161CF48AE292E0C7CF2FEFEB
:103A10003FEF4FE75FECC701B6010E94CE2A87FD5A
:103A2000F3CF20E030E0A901C701B6010E94CE2A01
:103A300010E000E087FF08C08DE20E94581B8C0157
:103A4000F7FAF094F7F8F094C0E060E070E080E0FE
:103A50009FE37C1641F020E030E040E251E40E9418
:103A6000D32ACF5FF6CFA70196010E94622A2B01CD
:103A70003C010E944C2B4B015C014AE00E94701CEF
:103A80007C01E00EF11ECC23B1F1C501B4010E940E
:103A90007B2B9B01AC01C301B2010E94612A4B0147
:103AA0005C018EE20E94581BE80EF91EC15018F10D
:103AB00020E030E040E251E4C501B4010E94322C24
:103AC0002B013C010E944C2B4B01B12CA12C4AE054
:103AD000C501B4010E94701CE80EF91EC501B401B5
:103AE0000E947B2B9B01AC01C301B2010E94612AA1
:103AF0004B015C01DBCFC701CF911F910F91FF906C
:103B0000EF90DF90CF90BF90AF909F908F907F907D
:103B10006F905F904F9008957F928F929F92AF9297
:103B2000BF92CF92DF92EF92FF920F931F93CF93AA
:103B3000DF937C0186E00E946E0EC1E0892B09F0C4
:103B4000C0E081E4C82E8EE0D82ED0E29AE0792E33
:103B500000918104109182040E94A1104801B12CAF
:103B6000A12C8FE49EE00E94F80DD0920105C09236
:103B70000005F7014081518160E080E00E94481219
:103B800010922205D09323058BE192E00E94631CE2
:103B900070922205D09323050115110579F588E669
:103BA00090E00E943D1B0E94D4108111DACFCC23FB
:103BB00061F086E00E946E0E892B39F06AE070E0B9
:103BC00080E090E00E947E0FC0E086E00E946E0ED2
:103BD000892B09F0BDCFC111BBCF0E941116C801BE
:103BE000DF91CF911F910F91FF90EF90DF90CF90D9
:103BF000BF90AF909F908F907F9008954AE0C5014D
:103C0000B4010E94701C8EE292E00E94631CF701D6
:103C100082819381009739F20E94631CC4CF1F9365
:103C2000CF93DF93EC01162F0E94F029181739F07B
:103C3000612FCE01DF91CF911F910C94F829DF9174
:103C4000CF911F910895AF92BF92CF92DF92EF92E2
:103C5000FF920F931F93CF93DF9360918B0182E0CC
:103C600090E00E940F1E60918A0183E090E00E9424
:103C70000F1E6091850184E090E00E940F1E60910C
:103C8000840185E090E00E940F1E60917F0186E034
:103C900090E00E940F1E6091D40187E090E00E94A6
:103CA0000F1E6091D30188E090E00E940F1E60918A
:103CB000D20189E090E00E940F1E609192048AE098
:103CC00090E00E940F1E6091BF018BE090E00E9487
:103CD0000F1E6091B2018CE090E00E940F1E609177
:103CE0008F048DE090E00E940F1E60916C018EE0C9
:103CF00090E00E940F1E8FE0E82EF12C10E006E00D
:103D000080916C011817B8F5109F60011124D0E064
:103D1000C0E0FE01EC0DFD1DEA52FE4F6081C701BF
:103D20008C0F9D1F0E940F1E2196C630D10589F76A
:103D3000670186E0C80ED11C88E0189FE0011124BD
:103D4000C45DDE4F8EE0E80EF11C69812296C6014B
:103D50000E940F1E560182E0A80EB11CFE01329790
:103D60006081C60101960E940F1E6501AE14BF045A
:103D700061F71F5FC5CFDF91CF911F910F91FF902A
:103D8000EF90DF90CF90BF90AF9008958F929F9269
:103D9000AF92BF92CF92DF92EF92FF92CF938FEFCD
:103DA00090E00E94010F83E29AE00197F1F78EE024
:103DB0000E94CD15BC0190E080E00E947B2B4B015E
:103DC0005C018AE00E946E0E90916404981729F0BD
:103DD00091E090938E0480936404809109019FEF99
:103DE000980F90930901811106C00E94FB159093D2
:103DF0009104809390046091930470919404809155
:103E00009504909196040E94452BCB010E94010FCE
:103E1000C0906C04D0906D04E0906E04F0906F043C
:103E2000A7019601C501B4010E94612A2DEC3CEC6A
:103E30004CE45DE30E94322CA70196010E94622AA5
:103E400060936C0470936D0480936E0490936F0480
:103E50000E946B1A60919A0470919B0490E080E03C
:103E60000E947B2B6B017C0120919C0430919D046E
:103E700040919E0450919F040E94CE2A8111B3C0AC
:103E800020918A0430918B0440918C0450918D04D0
:103E9000C701B6010E94612A6B017C0120E030E07D
:103EA000A9010E942D2C18160CF093C020E030E0E0
:103EB00040EA50E4C701B6010E942D2C18160CF4FC
:103EC00092C0609188047091890490E080E00E9423
:103ED0007B2B20918A0430918B0440918C0450916B
:103EE0008D040E94612A6B017C0120E030E0A90171
:103EF0000E942D2C18160CF085C0C701B6010E9437
:103F00004C2B6530710508F081C08091060281114B
:103F100005C08091D50181110E94111681E0809326
:103F200006021092D50180919A0490919B04853FDE
:103F300021E0920710F01092080120910801211150
:103F40003EC0843F9140D8F58FEF90E00E94010F72
:103F50000E941116C1E0C09308010E9480160E94C1
:103F6000231EC0938E048EE00E94CD15BC0190E00C
:103F700080E00E947B2B60936C0470936D048093AF
:103F80006E0490936F041092800480918804909145
:103F9000890426E930E0309377042093760420E901
:103FA00031E030937504209374042AE030E03093BC
:103FB0007304209372049093820480938104CF91C0
:103FC000FF90EF90DF90CF90BF90AF909F908F9039
:103FD000089520E030E040EA50ECC701B6010E94AD
:103FE000CE2A87FF6ECF60918A0470918B048091F6
:103FF0008C0490918D040E944C2B70939B046093D1
:104000009A045FCFC701B601905879CF109206028B
:104010008ACF0C94F0291F920F920FB60F921124A1
:104020002F933F938F939F93AF93BF938091A1045E
:104030009091A204A091A304B091A4043091A00493
:1040400023E0230F2D3758F50196A11DB11D2093B4
:10405000A0048093A1049093A204A093A304B0931E
:10406000A4048091A5049091A604A091A704B09106
:10407000A8040196A11DB11D8093A5049093A604E8
:10408000A093A704B093A804BF91AF919F918F9183
:104090003F912F910F900FBE0F901F90189526E81B
:1040A000230F0296A11DB11DD2CF1F920F920FB602
:1040B0000F9211242F933F934F935F936F937F93AE
:1040C0008F939F9383B1817029B190916B0498175E
:1040D00009F457C030E0220F232F221F330B922FF9
:1040E00080936B0440916A04241709F44AC020931A
:1040F0006A042091720430917304981719F0319575
:104100002195310940918104509182046091760497
:1041100070917704240F351F261737070CF443C01E
:104120002091720430917304981719F031952195FC
:10413000310940918104509182046091740470911E
:104140007504240F351F6217730744F14091720400
:1041500050917304981719F0519541955109209188
:10416000810430918204240F351F30938204209300
:10417000810421E0981320E02093690481E080937A
:104180008E049F918F917F916F915F914F913F919D
:104190002F910F900FBE0F901F90189520917404CF
:1041A00030917504E2CF2091760430917704DDCF11
:1041B0001895CF93DF93CDB7DEB72B970FB6F89452
:1041C000DEBF0FBECDBF789484B5826084BD84B558
:1041D000816084BD85B5826085BD85B5816085BD02
:1041E00080916E00816080936E00109281008091BA
:1041F0008100826080938100809181008160809342
:104200008100809180008160809380008091B10066
:1042100084608093B1008091B00081608093B00091
:1042200080917A00846080937A0080917A00826025
:1042300080937A0080917A00816080937A008091E7
:104240007A00806880937A001092C10060E08EE06E
:104250000E94C50E60E08FE00E94C50E61E085E01F
:104260000E94C50E61E089E00E94C50E62E087E011
:104270000E94C50E62E088E00E94C50E62E086E002
:104280000E94C50E62E08AE00E94C50E8FEF90E0AA
:104290000E94010F60E085E00E94970E80917A00F5
:1042A000876080937A0080917A00886080937A009A
:1042B000789481E080936B00809368008BBB809141
:1042C000F604883209F0B6C08FEF80930B0590E0BA
:1042D00080E00E940920182F81E090E00E940920D0
:1042E000912F8C36974E09F0B5C082E090E00E9485
:1042F0000920182F83E090E00E940920912F9093CD
:104300008B0180938A0184E090E00E940920182F9D
:1043100085E090E00E940920912F90938501809381
:10432000840186E090E00E94092080937F0187E06D
:1043300090E00E9409208093D40188E090E00E94E0
:1043400009208093D30189E090E00E9409208093A6
:10435000D2018AE090E00E940920809392048BE0D1
:1043600090E00E94092091E0811101C090E09093BB
:10437000BF018CE090E00E94092091E0811101C012
:1043800090E09093B2018DE090E00E94092080932C
:104390008F048EE090E00E940920282E80936C010B
:1043A0006CE2862E61E0962E76EDA72E71E0B72E98
:1043B000EFE0EE2EF12C312C231409F457C010E05D
:1043C00000E0C701800F911F0E940920F501E00F56
:1043D000F11F80830F5F1F4F0630110591F76701B2
:1043E00036E0C30ED11C8EE0E80EF11C3401C6018C
:1043F0000E940920082F10E0102F0027F3011183DD
:1044000000832601F2E04F0E511CC60101960E9466
:104410000920082BF301019311933F0162014E140F
:104420005F0429F73394F8E08F0E911C26E0A20E6A
:10443000B11CC2CF823011F483E047CF813009F440
:1044400044CF803309F043CF8FEF80930B058093E7
:104450000C053DCF67EE90E080E00E940F1E6CE6F9
:1044600081E090E00E940F1E0E94231E0E945315BF
:1044700090937104809370040E94FB1590939104B3
:104480008093900400918A0110918B01109389040C
:10449000009388048EE00E94CD15BC0190E080E07E
:1044A0000E947B2B60936C0470936D0480936E0468
:1044B00090936F040E948F150E946B1A20E030E0E9
:1044C00040EA51E460918A0470918B0480918C04DD
:1044D00090918D040E94622A6B017C01B80190E0EA
:1044E00080E00E947B2B9B01AC01C701B6010E94BA
:1044F000CE2A87FF04C090E080E00E94010F109256
:10450000DD041092DE041092DF041092E004412CCE
:10451000512C4FE7642E43E4742E4092E1045092F4
:10452000E2046092E3047092E404A090C904B090A5
:10453000CA048091E504F501C080D180E280F38057
:10454000882309F424C6A3019201C701B6010E9481
:104550002D2C181634F5F501408251826282738247
:104560008090D1049090D204A090D304B090D40451
:10457000C090E104D090E204E090E304F090E40401
:10458000A7019601C501B4010E942D2C1816C4F490
:10459000C092D104D092D204E092D304F092D40419
:1045A0001FC020E030E0A901C701B6010E94CE2A59
:1045B00087FFD6CFF5011082118212821382D0CFED
:1045C000C090DD04D090DE04E090DF04F090E004C1
:1045D000A7019601C501B4010E94CE2A87FDD8CF5C
:1045E00081E08093E50483B1817080936B0489B18D
:1045F00090E0880F892F881F990B80936A0420917F
:104600006B0490916A0481E0291380E0809369042F
:1046100086E990E0909377048093760480E991E0B6
:1046200090937504809374048AE090E090937304EF
:104630008093720410938204009381040E94B00F4F
:104640006093840470938504809386049093870418
:104650000E9411160E94111620918104309182044B
:104660003A872987309389042093880486E00E9442
:104670006E0E8B87811198C080918004882309F485
:1046800093C00E9411160E94B00F6B017C01C09272
:104690007C04D0927D04E0927E04F0927F0486E058
:1046A0000E946E0E892B59F40E94B00F6C197D097F
:1046B0008E099F09643F71408105910580F30E9436
:1046C000B00F6C197D098E099F09643F7140810507
:1046D000910508F4EFC48FEF90E00E94010F0E9453
:1046E000111610E02AE0222E312C412F62E180ECDD
:1046F00091E00E944317182F8730A8F5E82FF0E0CB
:10470000EC57FC4D0C94B42C9D23C02632279827DF
:10471000A627B027BE2720E030E0A901C701B601D7
:104720000E94CE2A87FF5CCF1092D1041092D2044F
:104730001092D3041092D40453CF80E2782E90E3E9
:10474000692E412F6EE08DE691E00E944317182FED
:10475000823009F4A7C208F056C1882309F47FC14A
:10476000813009F47FC10E94231E81E080938E0472
:10477000E985FA85F0938904E093880486E990E05E
:10478000909377048093760480E991E09093750488
:10479000809374048AE090E0909373048093720491
:1047A000F0938204E0938104FB85F0938004809170
:1047B0009704882309F11091D2011123E9F00E9496
:1047C000B00FC0907804D0907904E0907A04F09013
:1047D0007B046C197D098E099F0928EE33E040E0C7
:1047E00050E00E94302A211738F0109297040E945E
:1047F000111681E08093D50180918E048823E9F120
:1048000080919804882349F120E030E040EA51E4A7
:1048100060918A0470918B0480918C0490918D0436
:104820000E94622A6B017C01609188047091890466
:1048300090E080E00E947B2B9B01AC01C701B60198
:104840000E94CE2A87FF04C090E080E00E94010F02
:104850000E94111681E08093D50110928E0410926F
:104860009804109299040E94B00F6093840470938E
:10487000850480938604909387040E94B00F009172
:104880008404109185042091860430918704601B74
:10489000710B820B930B20E63AEE40E050E00E9451
:1048A000302A122F209383048091980481110BC029
:1048B0008091D401882339F0281728F081E0809373
:1048C00098040E9411168091990481110BC0809167
:1048D000D301882339F0181728F081E080939904D8
:1048E0000E9411160E94C61E0E943E180E94A1102E
:1048F00001E41EE088E2D82E93E5F92E2FE0C22EC7
:1049000034E1B32E44E3E42E56E0A52E65E2962E64
:1049100076E1872E8FE49EE00E94F80D109301054A
:10492000009300054BE352E060E080E00E944812F3
:10493000D09222051092230560919C0470919D04F1
:1049400080919E0490919F0440E00E94B41CF092DC
:1049500022051092230580919A0490919B04853F33
:10496000914008F4BDC382E691E00E943D1B809116
:104970009204882309F4E6C3609190047091910435
:1049800090E080E00E947B2B20E030E04AE754E496
:104990000E94D32A2B013C0110922205E0922305AC
:1049A00080918F048A9DC00111248A529E4F0E94DB
:1049B000631CF0922205E092230541E0C301B2019D
:1049C0000E94B41C8CE391E00E943D1B80EA9AE0B7
:1049D0000E94F80D109301050093000590922205A6
:1049E0008092230560919A0470919B0488E391E082
:1049F000653F31E0730708F0BCC390E080E04AE017
:104A00000E94701CB8C3833009F44FC1843009F090
:104A1000AACE80916C01883008F0AFC191E0980F68
:104A200090936C0180938F040E945D1BE0918F0432
:104A300098E0E99FF0011124E45DFE4F28ED30E09D
:104A40003183208384E391E09383828326E831E0FD
:104A5000358324838EE190E09783868372CE0E9413
:104A600080166FCE9E012F5F3F4F2901812C912C24
:104A70005401839401E4202E0EE0302EE0918F0447
:104A800034E0E39FF0011124C4010197E80FF91FFE
:104A9000EE0FFF1FE45DFE4F8081918190938904AA
:104AA00080938804E4E6F0E0F0937704E0937604E2
:104AB00024EF31E03093750420937404E1E0F0E0DA
:104AC000F0937304E09372049093820480938104C2
:104AD000F1E0F093D50186E00E946E0E01E0892B93
:104AE00009F000E00E94C61E0E943E180E94A1101C
:104AF0008FE49EE00E94F80D30920105209200059F
:104B000081E091E00E9471121092220520E1209331
:104B100023058AEF90E00E943D1B4AE0C501B401E5
:104B20000E94701C80E392E00E94631C8091060248
:104B30001092220570922305882309F497C08DEE08
:104B400090E00E943D1B109222056092230586EEA4
:104B500090E00E943D1BC0908104D09082040D2CF7
:104B6000000CEE08FF084AE0C701B601F7FE0BC0D3
:104B70008DE20E94581B66277727CB016C197D09AF
:104B80008E099F094AE00E94701C0E94D410811176
:104B9000AFCF002361F086E00E946E0E892B39F0C2
:104BA0006AE070E080E090E00E947E0F00E086E026
:104BB0000E946E0E892B09F095CF011193CF809141
:104BC000810490918204F201819391932F010E94BC
:104BD00011166AE070E080E090E00E947E0FFFEF27
:104BE0008F1A9F0AAF0ABF0A24E082169104A1041B
:104BF000B10409F043CF8FEF90E00E94010F83E2F0
:104C00009AE00197F1F70E948F150E944C2B1B012F
:104C100078876F83A980BA80EB80FC80C5010A96F3
:104C20008E159F0508F08DCDCD80DE80C7010A96D8
:104C30008C159D0508F085CD40E066E080E191E0AF
:104C40000E944317882309F47CCDE0918F0438E05B
:104C5000E39FF0011124E45DFE4FB182A082F38254
:104C6000E282D582C482378226826BCD8FED90E0BE
:104C70000E943D1B60916C0470916D0480916E04E4
:104C800090916F040E944C2B90E080E04AE00E94DB
:104C9000701C109222056092230580ED90E00E9426
:104CA0003D1B73CF0E945D1B4CCD80916C01813008
:104CB00029F486E191E00E942F1643CD40E066E0A2
:104CC0008EE191E00E944317882309F43ACD0091C8
:104CD0008F04F0906C018F2D8150990BBC01E6E0A0
:104CE000EE2E0817190639F4015000938F04FA9438
:104CF000F0926C0126CD802F90E086179707BCF7C5
:104D00000E9DD001112450E040E09C012F5F3F4FE9
:104D1000FA01EA0FFB1FEA52FE4FD680D0824F5FA6
:104D20005F4F46305105A1F743E0220F331F4A95EC
:104D3000E1F7F901E45DFE4F2081318153E0880FF6
:104D4000991F5A95E1F7DC01A45DBE4F11963C9383
:104D50002E938281938113969C938E9312978481D4
:104D6000958115969C938E931497868197811796BB
:104D70009C938E9316970F5FBECF84E291E09BCFFA
:104D800000E0E4E16E2E712CF8EC8F2E912CA6E958
:104D9000CA2ED12CB0E9AB2EBB24B39484E6E82E06
:104DA000F12C402F6AE08CE891E00E944317082F15
:104DB0008130D9F1E8F0823009F097CC80917F0101
:104DC00090E03092770420927604F0927504E0929D
:104DD000740430927304209272049093820480933E
:104DE00081048BE791E00E948C1D80937F01D9CFD5
:104DF00080918A0190918B01D0927704C0927604C1
:104E0000B0927504A09274043092730420927204DC
:104E1000909382048093810486E891E00E948C1D27
:104E200090938B0180938A01BCCF809184019091F3
:104E30008501709277046092760490927504809256
:104E400074043092730420927204909382048093CD
:104E5000810480E891E00E948C1D909385018093ED
:104E600084019FCF00E0402F6AE082EA91E00E9437
:104E70004317082F8130F1F1F8F0823009F035CC7A
:104E80008091D20190E01092770410927604E4EBC6
:104E9000F0E0F0937504E093740430927304209270
:104EA0007204909382048093810486E991E00E94C9
:104EB0008C1D8093D201D7CF8091D40190E01092C5
:104EC000770410927604EEE1F0E0F0937504E0933D
:104ED000740421E030E030937304209372049093C3
:104EE0008204809381048EE991E00E948C1D80935E
:104EF000D401B9CF8091D30190E010927704109241
:104F00007604ECE3F0E0F0937504E093740425E09C
:104F100030E0309373042093720490938204809362
:104F200081048AE991E00E948C1D8093D3019BCF7C
:104F30004091BF0166E089EB91E00E94431791E048
:104F4000811101C090E09093BF01CFCB40919204BA
:104F500066E083EB91E00E94431780939204C5CBF7
:104F60004091B20166E08CEA91E00E94431791E023
:104F7000811101C090E09093B201B7CB86E00E940E
:104F80006E0E01E0892B09F000E00E94531590930A
:104F9000710480937004BC0190E080E00E947B2B40
:104FA00020E030E04AE754E40E94D32A6B017C0100
:104FB0000E94FB159093910480939004BC0190E0B3
:104FC00080E00E947B2B20E030E04AE754E40E941E
:104FD000D32A4B015C010E948F152B013C010E94DA
:104FE000A1108FE49EE00E94F80D21E43EE0309392
:104FF000010520930005109222051092230589E2F5
:1050000091E00E943D1B86E392E00E94631C109297
:10501000220530E13093230583E291E00E943D1B9D
:1050200041E0C301B2010E94B41C80E291E00E9401
:105030003D1B1092220580E2809323058AE191E0D6
:105040000E943D1B41E0C501B4010E94B41C87E1F0
:1050500091E00E943D1B1092220590E3909323055E
:1050600080E191E00E943D1B41E0C701B6010E9432
:10507000B41C8DE091E00E943D1B0E94D410811170
:10508000B0CF002361F086E00E946E0E892B39F0CC
:105090006AE070E080E090E00E947E0F00E086E031
:1050A0000E946E0E892B09F070CF01116ECF0E9405
:1050B00011161BCB8091970491E089278093970468
:1050C000882351F00E94B00F6093780470937904A4
:1050D00080937A0490937B0481E080938E0464CB68
:1050E00080919904882319F08CE591E03ECC809161
:1050F0009804882319F086E591E037CC80919704D5
:10510000882319F080E591E030CC80910602882355
:1051100019F08AE491E029CC20E030E044E353E444
:1051200060919304709194048091950490919604F9
:105130000E94CE2A87FF03C084E491E016CC8EE360
:1051400091E013CC82EC91E00E94F80D10930105E0
:1051500000930005C0922205B092230560919A0445
:1051600070919B04653F81E0780708F446CC84E3A6
:1051700091E00E943D1B0E94D4108111CBCB80E0B6
:1051800090E0892B09F468CA0E94000065CAC092A9
:10519000D104D092D204E092D304F092D404E091EE
:1051A000C704F091C80480819181A281B38180936A
:1051B000D5049093D604A093D704B093D80420E0EC
:1051C00030E04FE753E4C701B6010E942D2C1816BA
:1051D0000CF0A1CA4092D1045092D2046092D30440
:1051E0007092D404FDC90F931F93CF9383E994E089
:1051F0009093CA048093C90485E694E09093C80410
:105200008093C7048CE994E09093CC048093CB0402
:105210001092E5041092DD041092DE041092DF0477
:105220001092E00480E090E0AFE7B3E48093E10403
:105230009093E204A093E304B093E40484E690E046
:10524000A0E0B0E08093D9049093DA04A093DB044B
:10525000B093DC0481E090E09093C4048093C30495
:105260009093C6048093C504C1E0C093E60480E037
:1052700090E0A0E3B1E48093AB049093AC04A093DE
:10528000AD04B093AE0480E090E0A0E0BFE3809373
:10529000AF049093B004A093B104B093B20480E043
:1052A00090E0A0E8BFE38093B3049093B404A0938C
:1052B000B504B093B60480E090E0A0E3B1EC809335
:1052C000B7049093B804A093B904B093BA048DECDA
:1052D0009CECACE4BDEB8093BB049093BC04A09326
:1052E000BD04B093BE0480E090E0A0E2B1EC8093F6
:1052F000BF049093C004A093C104B093C2040E9461
:10530000B00F0091D9041091DA042091DB043091A0
:10531000DC04601B710B820B930B6093CD047093C4
:10532000CE048093CF049093D0041092EA0410929C
:10533000E9048BE092E09093E8048093E7041092F4
:10534000220510922305109224051092F004109269
:10535000EF041092F2041092F1041092F404C0933E
:10536000F30482E28093F5041092FA041092F90497
:10537000EEE0F5E08CE195E02FEF21938E179F078B
:10538000E1F781E080930B0526EF3DE030930105C6
:1053900020930005809302051092030510920405E6
:1053A00080E4809305051092060589EE9FE09093B6
:1053B0001D0580931C058AE091E09093EE04809394
:1053C000ED0482E1809319050E943B108BE092E08E
:1053D0009093E8048093E704CF911F910F91089573
:1053E000F999FECF92BD81BDF89A992780B50895AD
:1053F000262FF999FECF1FBA92BD81BD20BD0FB6F1
:10540000F894FA9AF99A0FBE01960895052E97FB23
:105410001EF400940E941D2A57FD07D00E94302AD6
:1054200007FC03D04EF40C941D2A509540953095FE
:1054300021953F4F4F4F5F4F089590958095709500
:1054400061957F4F8F4F9F4F08950E94522AA59FCD
:10545000900DB49F900DA49F800D911D112408956F
:10546000A1E21A2EAA1BBB1BFD010DC0AA1FBB1F68
:10547000EE1FFF1FA217B307E407F50720F0A21BDA
:10548000B30BE40BF50B661F771F881F991F1A9447
:1054900069F760957095809590959B01AC01BD0171
:1054A000CF010895A29FB001B39FC001A39F700DCB
:1054B000811D1124911DB29F700D811D1124911D1C
:1054C00008955058BB27AA270E94792A0C94F32BE1
:1054D0000E94E52B38F00E94EC2B20F039F49F3F1E
:1054E00019F426F40C94E22B0EF4E095E7FB0C94EF
:1054F000DC2BE92F0E94042C58F3BA1762077307BC
:105500008407950720F079F4A6F50C94262C0EF468
:10551000E0950B2EBA2FA02D0B01B90190010C01C3
:10552000CA01A0011124FF27591B99F0593F50F4DB
:10553000503E68F11A16F040A22F232F342F442733
:10554000585FF3CF469537952795A795F04053952B
:10555000C9F77EF41F16BA0B620B730B840BBAF0FB
:105560009150A1F0FF0FBB1F661F771F881FC2F766
:105570000EC0BA0F621F731F841F48F4879577957A
:105580006795B795F7959E3F08F0B0CF9395880F34
:1055900008F09927EE0F9795879508950E94B82BEC
:1055A00008F481E008950E94E72A0C94F32B0E94EE
:1055B000EC2B58F00E94E52B40F029F45F3F29F0D6
:1055C0000C94DC2B51110C94272C0C94E22B0E9490
:1055D000042C68F39923B1F3552391F3951B550BD4
:1055E000BB27AA2762177307840738F09F5F5F4FB6
:1055F000220F331F441FAA1FA9F335D00E2E3AF0F5
:10560000E0E832D091505040E695001CCAF72BD00C
:10561000FE2F29D0660F771F881FBB1F261737075D
:105620004807AB07B0E809F0BB0B802DBF01FF278F
:1056300093585F4F3AF09E3F510578F00C94DC2B65
:105640000C94272C5F3FE4F3983ED4F3869577952E
:105650006795B795F7959F5FC9F7880F911D969548
:10566000879597F90895E1E0660F771F881FBB1FA4
:10567000621773078407BA0720F0621B730B840B51
:10568000BA0BEE1F88F7E09508950E944C2B6894A2
:10569000B1110C94272C08950E940C2C88F09F5770
:1056A00098F0B92F9927B751B0F0E1F0660F771F46
:1056B000881F991F1AF0BA95C9F714C0B13091F03C
:1056C0000E94262CB1E008950C94262C672F782F89
:1056D0008827B85F39F0B93FCCF386957795679501
:1056E000B395D9F73EF490958095709561957F4F6D
:1056F0008F4F9F4F0895E89409C097FB3EF4909513
:105700008095709561957F4F8F4F9F4F9923A9F09A
:10571000F92F96E9BB279395F69587957795679529
:10572000B795F111F8CFFAF4BB0F11F460FF1BC06D
:105730006F5F7F4F8F4F9F4F16C0882311F096E900
:1057400011C0772321F09EE8872F762F05C06623AE
:1057500071F096E8862F70E060E02AF09A95660F67
:10576000771F881FDAF7880F9695879597F9089520
:10577000990F0008550FAA0BE0E8FEEF1616170662
:10578000E807F907C0F012161306E407F50798F0CA
:10579000621B730B840B950B39F40A2661F0232BE3
:1057A000242B252B21F408950A2609F4A140A6955F
:1057B0008FEF811D811D089597F99F6780E870E044
:1057C00060E008959FEF80EC089500240A94161677
:1057D000170618060906089500240A9412161306DF
:1057E000140605060895092E0394000C11F488236D
:1057F00052F0BB0F40F4BF2B11F460FF04C06F5F89
:105800007F4F8F4F9F4F089557FD9058440F551F5E
:1058100059F05F3F71F04795880F97FB991F61F032
:105820009F3F79F087950895121613061406551FA9
:10583000F2CF4695F1DF08C0161617061806991F15
:10584000F1CF86957105610508940895E894BB270A
:1058500066277727CB0197F908950E94B82B08F4A3
:105860008FEF08950E94452C0C94F32B0E94E52B9A
:1058700038F00E94EC2B20F0952311F00C94DC2BD7
:105880000C94E22B11240C94272C0E94042C70F30E
:10589000959FC1F3950F50E0551F629FF001729FD5
:1058A000BB27F00DB11D639FAA27F00DB11DAA1FE4
:1058B000649F6627B00DA11D661F829F2227B00D31
:1058C000A11D621F739FB00DA11D621F839FA00DBC
:1058D000611D221F749F3327A00D611D231F849F0C
:1058E000600D211D822F762F6A2F11249F57504063
:1058F0009AF0F1F088234AF0EE0FFF1FBB1F661FDE
:10590000771F881F91505040A9F79E3F510580F0A6
:105910000C94DC2B0C94272C5F3FE4F3983ED4F3DB
:10592000869577956795B795F795E7959F5FC1F74A
:10593000FE2B880F911D9695879597F908950E94E3
:10594000B82B880B990B0895DB018F939F930E94CE
:10595000252ABF91AF91A29F800D911DA39F900D0D
:10596000B29F900D11240895EE0FFF1F0590F49142
:08597000E02D0994F894FFCF2B
:10597800084000000080E40301FF281400014A13D6
:10598800400251025402580260026B0277028102FF
:1059980051025402580290029C02AB02D800340112
:1059A80086011E000000000000000000000000004A
:1059B80000000000000000000000000000000000DF
:1059C80000000000000000000000000000000000CF
:1059D800000000000000000000000000011D02B4EB
:1059E80002BF02CD02D802E302EF02F6020103323F
:1059F8000703010396001203010340011F0312036A
:105A08000703F602EF022D03390341034B03530347
:105A18004B035F03530341032D03EF026E0375032A
:105A28007D0301840390039C03A703B403BB030114
:105A3800BF03CA031F035F03A70384036E03D703CF
:105A4800EF02280F05014243312E35000000000007
:105A5800000000000000000000000000000000003E
:105A6800000000000000000000000000000000002E
:105A78000000000000000100000000161BBC0F60C1
:105A88001C5F1C000100FF0100FF003E005469700C
:105A98003A006E616E00696E66006F7666002000DF
:105AA800206F6620330076312E35005345543A0076
:105AB80053746F72652053657474696E6773203F01
:105AC800004E6F00596573005761726E696E67000A
