:020000040000FA
:100000000C943F120C9467120C9467120C943F28C6
:100010000C9467120C9467120C9467120C9467127C
:100020000C9467120C9467120C9467120C9467126C
:100030000C9467120C9467120C9467120C9467125C
:100040000C94F5270C9467120C94C3270C949D27ED
:100050000C9467120C9416290C9467120C94671276
:100060000C9467120C94671207634236B79BD8A7AB
:100070001A39685618AEBAAB558C1D3CB7CC5763CD
:10008000BD6DEDFD753EF6177231BF000000803F7B
:1000900005A84CCDB2D44EB93836A9020C50B9914E
:1000A0008688083CA6AAAA2ABE000000803F080055
:1000B0000000BE922449123EABAAAA2ABECDCCCCE7
:1000C0004C3E00000080BEABAAAAAA3E0000000081
:1000D000BF000000803F0000000000084178D3BB53
:1000E0004387D1133D190E3CC3BD4282AD2B3E6800
:1000F000EC8276BED98FE1A93E4C80EFFFBE01C4F1
:10010000FF7F3F0000000000800400003FF0383017
:1001100033103F90381033902790261030903FF0E6
:1001200000008004800400003FF03DF020103BF010
:100130003B7030302B502AD031B03FF000008004AB
:10014000800400003FF038703030231027902010DA
:100150002010279027903FF00000800480040000CA
:100160003FF03CF03CF020102490249020103CF014
:100170003CF03FF000008004800400003FF037B006
:1001800023103030387038703030231037B03FF0E3
:1001900000008004FCF4F860E044C08CC11CC22C58
:1001A000C44CC88CD10CA204C4048FFC187CBCFCC9
:1001B0008000BFF81FF8B0281FF8B4081FF8B10876
:1001C0001FF8B048BFF8B288BFF880008000BFF8C1
:1001D0001FF8B0081808B9E819B8B8381838B9B80D
:1001E000B9F8B0F8BFF8800015543FF815503FF04B
:1001F0001550387010203104138C22A817FC2AA83F
:100200000000000015543FFC15543FFC15543C04FD
:1002100014043CFC14543CFC005400A800000000F2
:10022000800400003FF03CF034B0249024902790EC
:100230002310303038703FF000008004FF7CFE7CDB
:10024000FCECE8DCC84C984C882408200000000036
:10025000000000008004E01CF3FCE7FCCE0C8E1CC8
:100260009F9C1F3C1F0C0E0C0FFC87F881E4C00CF8
:10027000E01CF87C000458085808580840087FF82B
:1002800060185FE85B685FE85B681CE85FE8000097
:10029000800400003FF03CF03CF03CF020102010C7
:1002A0003CF03CF03CF03FF000008004F87CF7BCF0
:1002B00000007FF80000BFF4AB54AB54AB54AB5418
:1002C000AB54AB54BFF4C00CF03CCE0CBF04B30431
:1002D00073007F007E007C007C007C60BC64BE04F8
:1002E000CF0CF03C81DC559C29045500299055D059
:1002F00003FCFF002E00267002508270E600EE0420
:10030000800C001C3FF43FE03FC4378C2318303092
:1003100038703CF03FF03FF000008004058074B876
:1003200057A876B80580F97C4694AAA8F97C068877
:1003300074A8578C75740698F03CCE4CBC34B81435
:10034000188010804230607860F844C08004B8841F
:10035000CFCCF03CE01CC00C8FC49FE49FE49FE432
:1003600000000300030003000780078003008004EF
:10037000F87CE01CC00CCFCCCFCCCFCCCFCCCFCC3A
:10038000CFCCCFCCC84CCFCCC00CE01CFCFCF87C54
:10039000E01CC00CC00CC00CC00CC00CC00C800415
:1003A0008004FFFCF87CFCFC8004000020001000AE
:1003B00008001000270000000000000000000000FE
:1003C00000008004C3FC18001800C3FCFFFCFF0CF5
:1003D00000600060FF0CFFFCF0FC06000600F0FC73
:1003E0008FC4102020104CC89FE43DF03DF01DE06C
:1003F0003EF03F709FE48CC400003030F87CF33C4A
:10040000F4BCF6BCF4BCF6BCF4BCE49CC84CD02CE8
:10041000D02CC84CE79CF03C882408203830383079
:10042000383038303830383039303BB03FF03FF07A
:1004300000008004F21415F0CADFB8CCF0D699E8B9
:10044000AEA4DFEEE8F21D1E08F21C08F21A1B082B
:10045000F0714601F046464A01F219F051F218F0E7
:100460005A8DF0C0DAEEAEF0C8B8A5F1302924F00C
:10047000B599E1A4BDF21415F0CBEEAEBDF218F0C3
:100480005A8DF21617F21415F0CBEEAEBDF2161718
:10049000F0BCCA9EE0BDF21415F21213F21011F274
:1004A0000C0DF094F20E0FF0A2D8DFCBE1EEACDC35
:1004B000E8F20AF08CF20BF04A8DF209F08DF09719
:1004C000C59BBDF20708F21F20F2040506F097DE77
:1004D000EED5F0CBABEEF0AEA4DFEEE8F0A8E8BDD1
:1004E000E2EEE0F0B499D3EEF200010203F0CCDFCB
:1004F000B0B8BD5361766500466C6970004D6169A6
:100500006E2053637265656E004A5000454E00438D
:100510004E00594553004E4F004F4E004F46460087
:10052000496E666F73004269670050494400446930
:1005300072656374005361766500426F6F73740077
:100540004F666600536C65657000536176650042C6
:100550006F6F737400536C656570004465666175F8
:100560006C740053617665004164640044656C6599
:1005700074650052656E616D650043616C696272FD
:10058000617465004368616E6765005265747572D9
:100590006E0041626F7574004C616E67004C6F6352
:1005A0006B004C4F5720566F6C0042757A7A65721B
:1005B0000053637265656E00436F6E74726F6C00FA
:1005C00054696D65720054656D7000546970000067
:1005D000000000000F1DC20800054442080003840B
:1005E0005FBF000FE44410000115451000054CC921
:1005F0007F8009244F900007C4C11000054D413F82
:1006000000055443810007C44D0200054441140015
:10061000055541080007C8810400000000000000E3
:100620000000000001083FFE001FFF8100000040A5
:1006300002000007FE0FF800040208080004020888
:10064000880007FE08880004020888000402088861
:100650000007FE0888000402094800040202300076
:1006600007FE040C00040218040000000000000053
:100670000000000007FE13FE000402084000040210
:10068000084000040201FC0004023884000402084F
:10069000840007FE0FFF000402080000040209FEA8
:1006A00000040209020004020B020004020D020011
:1006B00007FE09FE00040201020000000000000025
:1006C0000000000001100080001FFF80800001106A
:1006D0003FFF00004004080007FC04080004440435
:1006E0001000044402100004440220001FFF812077
:1006F00000004000C00000A001300001100208000E
:10070000060C0C07001803B00200000000000000F7
:1007100000000000004000800000400080000FFF4B
:100720003FFF000841040800084104080008410494
:10073000100008410210000FFF02200008410120B4
:1007400000004000C00000400130000040020800EE
:1007500000400C07000040300200000000000000D4
:10076000000000001FDF10200002120C20000224F5
:10077000042000047F8020000424B820000FA488F7
:10078000500014BF88500004A488500004A4884876
:100790000004BF88880004A48A880007A48C840011
:1007A0000444890700008186020000000000000068
:1007B000000000000FF00491000440025200047F8A
:1007C000905400045088FF0007D084810004510039
:1007D0008100044901FF0007CA028100044404812A
:1007E00000044A1CFF0007EA0481000C5104810048
:1007F0000061C4850000408082000000000000000D
:100800000000000007FF802000008407FF00008434
:10081000040100008404010000840401000FFFC7EC
:10082000FF0000840400000084040000008405FF31
:100830000000840501000104090100010409010010
:10084000020411FF00040401010000000000000088
:1008500000000000008204FF00004402010007FFC6
:100860009021000010102100001017FD0000101052
:1008700021000FFFD06100001010A10000281121FD
:100880000000281221000044142100008210A10061
:100890000301D045000C00900200000000000000A1
:1008A00000000000084410FE00042810920005FF1C
:1008B00022920000103C920000100892001CFE10D2
:1008C0009200041020FE0004103E920005FF80926A
:1008D00000041000920005100E92000610309200E5
:1008E000041000FE00001000820000000000000064
:1008F0000000000007DF8840000A24104000114279
:1009000010FE00040022820002FF3D020008010ADE
:10091000420009F9103200090920120009F93E02CB
:1009200000090900020009090E020009F93022003D
:100930000805001400080200080000000000000084
:10094000000000000FC3F1E0000FE3F1F8000C70AD
:10095000C19E000C30C186000C30C183000C30C138
:1009600083000C60C183000C60C183000FC0C18391
:10097000000FC0C186000C00C186000C00C19800A9
:100980000C03F1F8000C03F1E0000000000000008F
:100990000000000000200820000FFF09FC000020DC
:1009A00008000000203E880003FE08500002020BF1
:1009B000FE0003FE0C4000020218400003FE2BFE66
:1009C00000020208480003FE0888000202085000E6
:1009D00002022830001FFF91CC000000000000013F
:1009E00004047C0000880444000FFF3F4400002002
:1009F00004440000200C440000200E44001FFF951A
:100A000044000020144400005024440000500444DA
:100A100000008804450001040485000603850300E6
:100A200018010400000000000000000000000000A9
:100A300000000000047E21FC0004421104001F7E1F
:100A4000090400044221FC000542110400067E1145
:100A500004000C0005FC0015FF880000040813FECC
:100A6000000448325200044F12520004481252004F
:100A700014A8125200091F97FF0000000000000098
:100A80000000000002103DFC0002102504000410CC
:100A900025040005FFBDFC000C102520000C3825A6
:100AA0002000143825FE0004543D20000454251075
:100AB0000004922510000511A5090006113D45000E
:100AC0000410258300041001010000000000000054
:100AD000000000001FC8102000124A0C20001AC994
:100AE00004200017480020001FFFB820000208085B
:100AF00050001FC8085000020808500003C80848EA
:100B0000001E1408880001540A880015220C840075
:100B10001443890700008106020000000000000263
:100B2000FE01000002823FFF00048202000004FE7A
:100B30000200000C1004FC00141004080005FF8CD7
:100B400010000410141000043825FF0004340410B1
:100B50000004520410000491841000051004500099
:100B6000041004200000000000000000000000004D
:100B70000000000002030010001FDC3EFE00089091
:100B8000021200051004FF001FDF84120002120C85
:100B9000FE001FD2021000021222FE000A92141060
:100BA000000A5214100012220DFF00022208100049
:100BB0000A42141000040223FF000000000000009D
:100BC000000000000F78BC20000948A45000094A2A
:100BD000A85000094AA88800094AB104001FFEAACB
:100BE000FB00094AA42000094AA42000094AA7FEE4
:100BF00000094AB420000948A924000B48A2220099
:100C0000088AA4A200111920400000000000000082
:100C1000000000000020008000005001FC0000885F
:100C2000010400010403080006FB0490000800C052
:100C3000600007DF018000045106000004511BFE24
:100C400000045102020007D9020200045602020009
:100C5000001003FE0000100202000000000000006F
:100C6000000000000208209000027F9890001F8082
:100C700009FF00022201100006218B100007628D7F
:100C8000FE000AA20910000A14111000121431FE0D
:100C900000020811100002141110000222111000AD
:100CA000024391FF000281110000000000000000DB
:100CB00000000000100700000008F83FFE0004805C
:100CC000200200008020020000BE23E2001C8222DD
:100CD000220004A42222000494222200048822225A
:100CE00000049423E20005222002000542200200B5
:100CF0000A003FFE0011FFA00200000000000000FB
:100D00000000000000820FFE00004400400007FFCA
:100D10008040000010004000001000400000101F44
:100D2000FF800FFFC040000010004000002800407E
:100D30000000280040000044004000008200400005
:100D40000301C140000C0080800000000000000989
:100D5000FF00400004203FFF00042000000000FED0
:100D60000000001C420FFC00044200000007FF804E
:100D7000000004000FFC0004FF00000004810000DC
:100D80000005810FFC00068108040004FF08040030
:100D900000810FFC000000000000000000000000C7
:100DA0000000000000401F7E001FFF840200108032
:100DB0008442000A4A0442000A3108420012C50F68
:100DC00042000304197F001DF829010000400901B9
:100DD00000084209FD00084209010008420F010015
:100DE0000FFE0905000002000200000000000000E4
:100DF0000000000001000FFE00010008200003FFBA
:100E00000820000201082000042208200008200B0E
:100E1000FE00102008200000500828000050082480
:100E20000000880822000088102000010410200023
:100E30000203A7FF000C01000000000000000000FA
:100E40000000000000400080001FFF9FFC000040E9
:100E50000410000FFF02200000003FFF000FFE0003
:100E6000000008420FF80008420808000FFE0808BA
:100E70000008020FF8000800080800080008080031
:100E800008000FF800100008080000000000000033
:100E90000000000007FE0FF800040200000004023A
:100EA00000000007FE00000004023FFE00040200F4
:100EB000800007FE008000009004900008910C88DC
:100EC00000069310860002942082000090008000AB
:100ED00000900280001FFF81000000000000000061
:100EE00000000000041012020005FF9FD200050060
:100EF0009212001E28A2120004443FF20004820253
:100F0000120006000212000CFE1FD2001410125232
:100F10000004101242000410134200041012820058
:100F200015FF820A00080002040000000000000013
:100F300000000000002000000000203E04001FFF11
:100F4000A204001000A2FF0000012204000FFE22F4
:100F5000040000403E4400004022240004402224BB
:100F600000047C22040004402204000A403E0400E5
:100F7000094022240010FF80140000000008000037
:100F80000000000010FE08200008820BFF00048211
:100F90000A010010FE3C51000882088800088209FE
:100FA000040002FE0C0000040019FC0009FF2820C8
:100FB0000019290820000929082000092908200013
:100FC00009292BFF000BFF9000000000000000002B
:100FD000000000001F7F90F80001080888000A1038
:100FE000088800047F0107001FC13A000005490975
:100FF000FC000449088400044908880004490848A2
:1010000000044908500004490A200004160C580046
:10101000142189870008C086020000000000001F1C
:10102000E03FF07038601860186018FFFCFCFCFCB2
:10103000FCFCFCF87CF87CFCFC7FF81E1033382D9F
:101040007C25382D3825382D386D80DEC0BF40BF57
:1010500040DEC061803F007FF0FFE0C008C01CC0E0
:1010600038C870DCE4CFCCC78CC30CC00CC00CFFFC
:10107000FC7FF8000006000C0018F838F0303070E3
:1010800060707878F878003C023F0C1FF80FF0038E
:10109000C000007FF8FFFCC00CC30CCB4CDB6CDB4A
:1010A0006CD86CDCECCFCCC78CC00CFFFC7FF80399
:1010B0000007800FC00CC01CE01CE03CF03CF07F3F
:1010C000F87FF8FCFCFCFCFFFC7FF811408200215B
:1010D000208FE023FC82004A23E200FE209FF013D1
:1010E000F880802220C0804221BFF0FBFA88800275
:1010F000208480022084801A208080E3FE82800287
:101100000101000F421FC078411040084090400884
:10111000421FC008411040FFFD104008405FC0085A
:1011200040800008413FE008432520104125201061
:101130004125202041252040417FF07FF848800252
:101140000049000201FFF00201001002027F20228C
:1011500000410023F07F00220008002200FF8022CF
:101160000088802200888022008A8022008900FF77
:10117000FC080023F21FC022111040FBF090402217
:10118000121FC02A11104033F1104060005FC0AF41
:10119000FC800020413FE0224325202279252022A7
:1011A000412520A541252048FD7FF01083DFC01098
:1011B000825040208250402FFFDFC0608252006189
:1011C000C25200A1C25FE022A3D20022A251002499
:1011D000925100288E5090308BD45020825830206D
:1011E000801010104047C017FC44402003F44023F7
:1011F000F844406208C440A3F8E440200154402F62
:10120000FD44402806444023F844402040445020F8
:10121000404850214050302080400020921FC03D67
:10122000F990402090904040901FC07BFF0000A0AC
:10123000013FE021F90200FD09020021097FF021B0
:10124000F90500210945002909888031F91070212C
:1012500008202025004300202070F8754077557540
:101260007740403E4A5E2B5E4A6B627F352F357F6A
:101270007C5B5E247B0E3A047E017E4A5E69063A00
:101280002F3F6B7E46403F41497F494102626B6B75
:101290006B62026A6B147D577D10413F55553D5777
:1012A00051213F2D7F2A122E0A775A505A770A2051
:1012B00024137D5553707A2A7B021A437A4A525E70
:1012C0002B5E424A415F353F555F417D14577D0E8D
:1012D000407F7F1B54167D1654493A407E57567600
:1012E000423F427E7E427E047E51377D3750127AE5
:1012F0001752761E127F557F145D7F557F557F7F75
:10130000553D577F55377817457F7F2B7B287B2BA3
:101310007F1E12127F12121E7F416B7F6B517F5214
:101320005A573A575A52007F494949497F22122A4F
:101330007F2A1222166A5E735662160937315F15CC
:101340005F7500000000002F000300033F123F16EE
:101350003F1A120824323D2A020100003E41413E5C
:10136000000A070A083E084020000808080020007C
:101370001008041C2A1C243E20322A24222A141875
:10138000143E2E2A121C2A12023A06142A14242A67
:101390001C002400402400081422141414221408F1
:1013A00002290612291E3E093E3F251A1E21213F11
:1013B000211E3F25213F05011E21393F083F213FC6
:1013C0002110201F3F043B3F20203F063F3F013EAE
:1013D0001E211E3F09061E215E3F093622251901E6
:1013E0003F013F203F3F100F3F183F330C33033C7A
:1013F00003312D23007F41153E15417F000201027C
:1014000040404000010218243C3F241818242418AE
:10141000243F182C2C043F0548543C3F0438003D21
:1014200000403D003F0834013F003C1C383C04387C
:101430001824187C241818247C3C0804283C140424
:101440003E243C203C3C100C3C303C2418244C50A6
:101450003C24342C083641007F004136080101014C
:101460001028101F010120203E1020000008002538
:10147000150F241C0C103804180C3828382828188C
:101480003C083C18283820242C3C2C2C1C04080830
:10149000211D07083C0306231E223E22120A3F326A
:1014A0000F3E0A3F0A24130E271E0222223E271255
:1014B0000F2525102119273F222E21160F241B0E40
:1014C000251F0526261E251D053F0408241F042070
:1014D0002222251927123B1620100F3C013E1F2403
:1014E0002421110F0C031C1A3F1A091927222A2A3A
:1014F000382730320C13053F25023F0E213F2025AF
:10150000253F25251D07201F3C3F203F20103E2260
:101510003E23110F212118010001020502000000E5
:1015200000000000002040000000000000205020CB
:10153000000000000050300000000000006060006B
:101540000000000000000018180000000000003635
:1015500036000000000000563600000000000201C6
:1015600051090906000000005F00000000000000B3
:10157000007F41410041417F000000000000000069
:101580003F010101004040407E0000000000003F9C
:10159000213D05070070505E427E00000000000003
:1015A000007F63410041637F0000000000080808DD
:1015B0007F08080800080808080808080044444490
:1015C0005F444444004122140814224100080808E2
:1015D0002A080808001414141414141400143414E1
:1015E0001C141614000808141414222200222214B9
:1015F00014140808000205023C42422400002B2C6F
:10160000782C2B000000242A7A2F2A1200001C625A
:10161000322E23140020545E254142200042251220
:10162000082452210020623E633E230200205649D6
:1016300055225840000022147F142200001C225919
:10164000554D120C0000004A555529000004643C19
:10165000173C64040004643C1F3C6404001C2241E9
:101660004141221C001C3E7F7F7F3E1C001C225DEE
:10167000555D221C000814224122140800081C3E5B
:101680007F3E1C08007F41414141417F007F7F7FB9
:101690007F7F7F7F0040704C434C70400040707CE7
:1016A0007F7C704000010719611907010001071FC5
:1016B0007F1F07010049221449142249000505052E
:1016C0007D05050500080808082A1C0800081C2AD2
:1016D00008080808000004027F020400000010202F
:1016E0007F20100000003E414141413E0000004289
:1016F0007F400000000062515149494600002241EC
:10170000494949360000302824227F2000002F4517
:101710004545453900003E4949494932000001012B
:101720006119050300003649494949360000264938
:101730004949493E000020547E3414600020527F05
:101740002A1A4A3000003C4020041800001E2040A5
:10175000200204180000104A4A2A10000000084520
:10176000454525180000482A3A4A40000000442513
:10177000153D45400000247E145024000022527F75
:101780000A484A340044344F443804180044344F63
:101790004439041900002A5A4B4E5A0800002A5AAC
:1017A0004B4E5B080000081414224100000008148E
:1017B00014224504003F0004443F0404003F000499
:1017C000443F0405000020524242424000002052A3
:1017D000424342410000245444475C040000245426
:1017E00044475C050000003F404040200000003FAF
:1017F000404140210002020A563F02020002020A52
:10180000563F02030004043F44545F440004043F75
:1018100044545F45000008093D4B49080000080991
:101820003D4B490A00423A072254444400423A07D9
:1018300022554445000002124E4B4A32000002126B
:101840004E4B4A3300001010484830000004040298
:101850002222221C000404022223221D0000020274
:101860001A254341000002021A2543450000205773
:1018700048484444000020574849444500120A277C
:1018800052503A24007F00205242424000304E38ED
:10189000540F64780024147F0422523C0018241250
:1018A0004E422418007F002454543F44007F0024FB
:1018B00054543F45007F002454563D4600023A47A9
:1018C00040413E0400023A4740413E0500023A478B
:1018D00040433D06004030404D32106000403040F3
:1018E0004D321161004030404D3215620008040253
:1018F0000408101000080402040910110008040272
:10190000040A1512007F006A6A7E2A4A007F006A74
:101910006A7F2A4B007F006A6A7E2D4A00006A6A4D
:101920006A7F2A4A0030291D4B483C1000122A7F4A
:101930004240422400304E38540F443800000A3EE2
:101940004B4A4A300000080E384614080004071CB1
:1019500062030A0400001C483E241800001E0452C2
:101960003F12120C00002050503E48000000205052
:10197000503F244400001C51494A483000000F42A7
:1019800041211E00000010696D4B49300024147F76
:1019900004023E40000010494D4B49300000281819
:1019A0007E0844380024147F0442423C003049251C
:1019B0001F245438004028255735284000100A2E8F
:1019C0005B724A480040300C334040200000044421
:1019D0003C140C00000001413D09050300002020DB
:1019E0001078040000001010087C02010000184864
:1019F0004C281800000006424322120E0000404806
:101A000078484000002022223E2222200000282880
:101A1000587C0800002222124A7F02020000422263
:101A20001F02427E000042221F02427F000012126B
:101A30001F721210000012121F72131000000844CF
:101A40004322120E000008444322120F00080742EE
:101A5000221E020200080742221F02030000424227
:101A60004242427E000042424243427F0002024F15
:101A700042221F020002024F42231E030000454A79
:101A80004020100C0000454A4021100D0040422229
:101A9000221A264000404222221B26410004043F15
:101AA0004444544C0004043F4445544D0000014656
:101AB0004020100F000001464020110F0000084494
:101AC0004B2A120E000008444B2A120F00080A4A43
:101AD0003E09090800080A4A3E09080900001840A2
:101AE0005820180000020C424C20100E00020C423C
:101AF0004C21100D000405453D0505040004054575
:101B00003D0504050000007F080810000000007F6C
:101B100008091001000444241F04040400202222A8
:101B200022222220004041251519270000202212E0
:101B30007B06122000404020100807000040300EB5
:101B400000020C700040300E00020D710040300E9B
:101B500000020D7200003F484848444400003F48DE
:101B60004849444500003F48484A45460000024273
:101B70004222120E000002424223120F00000242D3
:101B80004222150E00080402040810200008040276
:101B90000409102100080402040A15220024144438
:101BA0007F041424002414447F05142500241444C5
:101BB0007F0615220002021222520A060000212589
:101BC000294A42000040704C4350204000404424C9
:101BD00014083700000008093F4949480000101C5C
:101BE000680818000004040F74020A060000404848
:101BF0004878400000202222223E2020000000449D
:101C000054547C000000424A4A4A4A7E000004457F
:101C10004525150C00000F4040201F000040201EED
:101C2000007F20100000007F4020100800007E424E
:101C30004242427E00000C4444241C000000064244
:101C40004222120E0010121E12127F1200202222B7
:101C50003A262220000001454525150F000041428B
:101C60004020100C000006424322120F00004828BA
:101C70001C4878000000100C4838080000080404D4
:101C800008101008000800000800000800040808F8
:101C900008080808000808080808080808060505D4
:101CA0000706040903030504090A080303030603DE
:101CB00005030305050306040405050405040403E0
:101CC00004090503CB05C605C005B805B105AA057D
:101CD000A2059D05980592058B0584057A05730577
:101CE0006C05680563055B0555054F054A05440508
:101CF00040053A0535052E052A05260520051C0553
:101D00001905160512050F050C050905FD04F80453
:101D1000F3043E0053656C656374205469700000E1
:101D2000000000003E5B4F5B3E3E6B4F6B3E1C3E37
:101D30007C3E1C183C7E3C181C577D571C1C5E7F4B
:101D40005E1C00183C1800FFE7C3E7FF00182418CA
:101D500000FFE7DBE7FF30483A060E2629792926FF
:101D6000407F050507407F05253F5A3CE73C5A7FE9
:101D70003E1C1C08081C1C3E7F14227F22145F5F3F
:101D8000005F5F06097F017F006689956A60606079
:101D9000606094A2FFA29408047E040810207E20B4
:101DA0001008082A1C08081C2A08081E1010101009
:101DB0000C1E0C1E0C30383E3830060E3E0E06004F
:101DC0000000000000005F00000007000700147F13
:101DD000147F14242A7F2A1223130864623649567A
:101DE00020500008070300001C2241000041221C73
:101DF000002A1C7F1C2A08083E080800807030005A
:101E00000808080808000060600020100804023E6E
:101E10005149453E00427F400072494949462141AF
:101E2000494D331814127F1027454545393C4A491E
:101E3000493141211109073649494936464949295D
:101E40001E0000140000004034000000081422416D
:101E50001414141414004122140802015909063EF6
:101E6000415D594E7C1211127C7F494949363E41F1
:101E70004141227F4141413E7F494949417F090912
:101E800009013E414151737F0808087F00417F41AD
:101E9000002040413F017F081422417F40404040E4
:101EA0007F021C027F7F0408107F3E4141413E7F3C
:101EB000090909063E4151215E7F09192946264933
:101EC00049493203017F01033F4040403F1F20400A
:101ED000201F3F4038403F63140814630304780414
:101EE000036159494D43007F4141410204081020DC
:101EF000004141417F040201020440404040400053
:101F00000307080020545478407F2844443838445C
:101F1000444428384444287F385454541800087ED8
:101F2000090218A4A49C787F0804047800447D402A
:101F3000002040403D007F1028440000417F4000C9
:101F40007C047804787C080404783844444438FCE1
:101F50001824241818242418FC7C08040408485465
:101F600054542404043F44243C4040207C1C204022
:101F7000201C3C4030403C44281028444C90909019
:101F80007C4464544C440008364100000077000053
:101F9000004136080002010204023C2623263C1EB2
:101FA000A1A161123A4040207A3854545559215524
:101FB0005579412154547841215554784020545545
:101FC00079400C1E52721239555555593954545492
:101FD0005939555454580000457C410002457D4212
:101FE0000001457C40F0292429F0F0282528F07CC8
:101FF000545545002054547C547C0A097F49324989
:102000004949323248484832324A4848303A4141D8
:10201000217A3A42402078009DA0A07D3944444472
:10202000393D4040403D3C24FF2424487E494366DE
:102030002B2FFC2F2BFF0929F620C0887E090320B7
:10204000545479410000447D413048484A32384078
:1020500040227A007A0A0A727D0D19317D262929DB
:102060002F28262929292630484D402038080808DD
:102070000808080808382F10C8ACBA2F102834FAFE
:1020800000007B000008142A142222142A14089548
:1020900000220095AA005500AAAA55AA55AA000038
:1020A00000FF00101010FF00141414FF001010FFA8
:1020B00000FF1010F010F0141414FC001414F700BA
:1020C000FF0000FF00FF1414F404FC141417101F89
:1020D00010101F101F1414141F00101010F0000017
:1020E00000001F101010101F10101010F010000032
:1020F00000FF101010101010101010FF1000000042
:10210000FF140000FF00FF00001F10170000FC0478
:10211000F414141710171414F404F40000FF00F75B
:1021200014141414141414F700F7141414171410BE
:10213000101F101F141414F4141010F010F00000ED
:102140001F101F0000001F14000000FC140000F00E
:1021500010F01010FF10FF141414FF141010101FB3
:1021600000000000F010FFFFFFFFFFF0F0F0F0F0C4
:10217000FFFFFF0000000000FFFF0F0F0F0F0F38E1
:10218000444438447C2A2A3E147E02020606027E1B
:10219000027E0263554941633844443C04407E203A
:1021A0001E2006027E020299A5E7A5991C2A492A4B
:1021B0001C4C7201724C304A4D4D303048784830DA
:1021C000BC625A463D3E494949007E0101017E2AD2
:1021D0002A2A2A2A44445F444440514A4440404405
:1021E0004A51400000FF0103E080FF000008086B37
:1021F0006B083612362436060F090F060000181831
:102200000000001010003040FF0101001F01011EFE
:1022100000191D1712003C3C3C3C0000000000006F
:10222000000000240027002A0000000000250028EC
:10223000002B0000000000230026002900040404F5
:10224000040404040402020202020203030303035F
:10225000030102040810204080010204081020013C
:10226000020408102000000008000201000003041E
:10227000070000000000000000AED5F0A83FD3002A
:10228000408D14A1C8DA1281CFD9F1DB40A4A6AFEA
:10229000200021007F220007506C65617365207764
:1022A000616974004144433A200074656D703A20BE
:1022B00000536574206D65617375726564005374B5
:1022C00065703A2000FFFFFFFFFFFF8003867080EC
:1022D000038003867080039FF3E1309FF39FF3E157
:1022E000309FF3983301CC9833983301CC983398CE
:1022F0003387C098339833E1C098339833E1C0985E
:10230000339FF398C09FF39FF398C09FF3800366B9
:10231000CC8003800366CC8003FFFF010CFFFFFF2E
:10232000FF01001FFF810061301F3F873CE6FC87F3
:1023300033873CE6FC87F3F8039E0F1F03F8039EE8
:102340000F1F03E13CFE0C07CFE13CFE0C07CF99C9
:10235000033E3086C3E6CF380F9EF3E6CF380F9E9C
:10236000F39E0327CC81039E0327CC8103E0FFE18A
:102370000CE6CFE0FFE10CE6CF9803060000FF98E3
:1023800003060000FFFFFF1EF0F80380036630998C
:10239000C38003663099C39FF3010CF8FF9FF301DC
:1023A0000CF8FF9833393C01CF9833393C01CF9872
:1023B00033FF0C793F98333ECCE0F398333ECCE0CA
:1023C000F39FF33E0098CF9FF33E0098CF80033EEB
:1023D00030E7C380033E30E7C3FFFFFFFFFFFFFF8F
:1023E000FFFFFFFFFF3030300076312E372B0056D5
:1023F00000560043000FE01FC01FC03F803FF87F22
:10240000F07FE007C007800F000E001C00180010CE
:102410000014A03FF07FF8E01C6E18EC1C681860F8
:1024200018E01C6058E01C7FF83FF014A0455252A1
:102430004F5200484F4C44004845415400574F52BA
:102440004B5900424F4F535400534C454550004F99
:1024500046460000003BEC7BEE63E663E663E66322
:10246000E663E663E663666226600660067FFE3F1B
:10247000FC000001020408102040800017291124EC
:102480001FBECFEFD8E0DEBFCDBF12E0A0E0B1E0CD
:10249000E6E8F4E702C005900D92A23CB107D9F737
:1024A00028E0A2ECB2E001C01D92A131B207E1F731
:1024B00012E1CFE3D2E104C02197FE010E94223A4B
:1024C000CE33D107C9F70E94CC290C94413A0C9421
:1024D00000004F925F926F927F928F929F92AF9285
:1024E000BF92CF92DF92EF92FF920F931F93CF9301
:1024F000DF9300D000D0CDB7DEB74B015C012901DE
:102500003A016701780120E030E0A9010E946235BC
:1025100087FDA6C020E030E0A901C301B2010E94FE
:10252000623587FD9DC020E030E0A901C801B601F9
:102530000E94623587FD94C081E02091DB073091D5
:10254000DC072130310509F080E08093FC078092A0
:10255000C1079092C207A092C307B092C4074092ED
:10256000C5075092C6076092C7077092C807C0920D
:10257000C907D092CA07E092CB07F092CC076091CE
:10258000EF077091F0078091F1079091F2070E9498
:10259000673520E030E04AE754E40E946C376983F5
:1025A0007A838B839C838092CD079092CE07A092F2
:1025B000CF07B092D0079B01AC01C301B2010E94CA
:1025C000C8352B013C014092D1075092D20760924E
:1025D000D3077092D40729813A814B815C81C7016E
:1025E000B6010E946C376B017C01C092D507D09276
:1025F000D607E092D707F092D8078091D90790913B
:10260000DA07019769F5A501940160E070E0CB015C
:102610000E94FF366093CD077093CE078093CF075B
:102620009093D007A301920160E070E0CB010E947B
:10263000FF366093D1077093D2078093D3079093AE
:10264000D407A701960160E070E0CB010E94FF363D
:102650006093D5077093D6078093D7079093D807D8
:102660000F900F900F900F90DF91CF911F910F91CE
:10267000FF90EF90DF90CF90BF90AF909F908F90A2
:102680007F906F905F904F90089580389105B0F4DF
:102690006034710598F4E3E7F4E290E1969FD0018D
:1026A000A0781124A80F6770E60FF11D9491A85E21
:1026B000BC4F442321F08C91982B9C9308959095C6
:1026C0008C919823FACFDF92EF92FF920F931F9392
:1026D000CF93DF937C01D22E8B01040F111DEB01F0
:1026E00077FF02C0D0E0C0E0C8010134110514F04A
:1026F00080E490E0C817D9073CF44D2DBE01C70116
:102700000E9445132196F0CFDF91CF911F910F9139
:10271000FF90EF90DF900895CF92DF92EF92FF92BB
:102720000F931F93CF93DF936B01122FEC017C016A
:10273000E40EF11CCE15DF0544F4202F412FB60125
:10274000CE010E9463132196F5CFDF91CF911F91A7
:102750000F91FF90EF90DF90CF9008952F923F92CE
:102760004F925F926F927F928F929F92AF92BF92A1
:10277000CF92DF92EF92FF920F931F93CF93DF934D
:1027800000D01F92CDB7DEB7C22ED12C9601280FF4
:10279000391F37FD4FC0803891050CF04BC0E982DE
:1027A0004A017B013C01402E512C160127E0220EEC
:1027B000311C93E0359427949A95E1F78B01B12C65
:1027C000A12C1B821A82EA81FB8183E0F595E795B3
:1027D0008A95E1F7EA0DFB1DE80DF91DE4918A8168
:1027E0009B818770992720E830E002C035952795B6
:1027F0008A95E2F7C901F0E0E223F923EF2B41F0DB
:102800004981B8018A819B81860D971D0E944513DD
:102810008A819B8101969B838A838C159D059CF2FE
:10282000A20CB31C0F5F1F4FC8018E199F0984159E
:1028300095053CF20F900F900F90DF91CF911F9173
:102840000F91FF90EF90DF90CF90BF90AF909F904F
:102850008F907F906F905F904F903F902F90089552
:102860000F931F93CF93DF93EC018B0140E0019610
:102870000E94451340E0B801CE0101970E94451324
:10288000B8016F5F7F4F40E0CE010E944513B80151
:102890006150710940E0CE010E94451340E0B8014B
:1028A000CE01DF91CF911F910F910C94451380E0E1
:1028B000E8E1F3E081118FEF00248193819381930C
:1028C00081930394D1F7EDEFF7E01786168615860E
:1028D000148608956F927F928F929F92AF92BF92CB
:1028E000CF92DF92EF92FF920F931F93CF93DF93DC
:1028F000803891050CF057C0603471050CF053C05E
:102900007B0137E0E322FF2433E0759567953A9524
:10291000E1F7DB01B695BA2FAA27B795A7955D0118
:10292000C0E8AC0EB11CA80EB91EA80FB91FA85E56
:10293000BC4F00E810E0081B190B90E080E0E8E0D5
:10294000F0E04F018E189F0830E0FA01E80FF91F00
:10295000C4917D906D01D1E0CD1AD1080E2C01C03B
:10296000CC0F0A94EAF77C2AE6017882E114F1049C
:1029700099F06730710581F0E491EC01CA0DDB1D1F
:10298000C85EDC4FF0E0082C02C0F595E7950A948C
:10299000E2F7F881EF2BE8830196821793071CF486
:1029A0000817190791F6DF91CF911F910F91FF90B2
:1029B000EF90DF90CF90BF90AF909F908F907F90DF
:1029C0006F900895AF92BF92CF92DF92EF92FF92F5
:1029D0000F931F93CF93DF936C017B018B01040F47
:1029E000151FEB015E01AE18BF08C017D10759F0E3
:1029F0006991D601ED91FC910190F081E02DC60125
:102A00000995892B79F7C501DF91CF911F910F911E
:102A1000FF90EF90DF90CF90BF90AF900895FC01B2
:102A2000538D448D252F30E0842F90E0821B930B33
:102A3000541710F0CF96089501970895FC01918DD9
:102A4000828D981761F0A28DAE0FBF2FB11D5D96DC
:102A50008C91928D9F5F9F73928F90E008958FEF7E
:102A60009FEF0895FC01918D828D981731F0828D32
:102A7000E80FF11D858D90E008958FEF9FEF089589
:102A8000FC01918D228D892F90E0805C9F4F821BED
:102A900091098F739927089588E197E00E94401566
:102AA00021E0892B09F420E0822F089580E090E056
:102AB000892B29F00E944C1581110C940000089577
:102AC000FC01A48DA80FB92FB11DA35ABF4F2C91A3
:102AD000848D90E001968F739927848FA689B7899A
:102AE0002C93A089B1898C91837080648C93938D91
:102AF000848D981306C00288F389E02D80818F7D34
:102B000080830895EF92FF920F931F93CF93DF93EB
:102B1000EC0181E0888F9B8D8C8D98131AC0E88919
:102B2000F989808185FF15C09FB7F894EE89FF89E8
:102B30006083E889F98980818370806480839FBF86
:102B400081E090E0DF91CF911F910F91FF90EF9086
:102B50000895F62E0B8D10E00F5F1F4F0F73112796
:102B6000E02E8C8D8E110CC00FB607FCFACFE889D1
:102B7000F989808185FFF5CFCE010E946015F1CFE4
:102B8000EB8DEC0FFD2FF11DE35AFF4FF0829FB745
:102B9000F8940B8FEA89FB8980818062CFCFCF9335
:102BA000DF93EC01888D8823B9F0AA89BB89E88975
:102BB000F9898C9185FD03C0808186FD0DC00FB61B
:102BC00007FCF7CF8C9185FFF2CF808185FFEDCF99
:102BD000CE010E946015E9CFDF91CF910895833037
:102BE00081F028F4813099F08230A9F0089587307F
:102BF000A9F08830C9F08430B1F4809180008F7DD5
:102C000003C0809180008F7780938000089584B501
:102C10008F7784BD089584B58F7DFBCF8091B00000
:102C20008F778093B00008958091B0008F7DF9CFA9
:102C3000CF93DF93282F30E0F901EB59FD4D8491BC
:102C4000F901EF5AFD4DD491F901E35CFD4DC491BA
:102C5000CC23A1F081110E94EF15EC2FF0E0EE0FD4
:102C6000FF1FED5CFD4DA591B491EC91ED2381E04A
:102C700090E009F480E0DF91CF91089580E090E04A
:102C8000FACF1F93CF93DF93282F30E0F901EB5950
:102C9000FD4D8491F901EF5AFD4DD491F901E35CAA
:102CA000FD4DC491CC23A9F0162F81110E94EF1580
:102CB000EC2FF0E0EE0FFF1FE75DFD4DA591B49105
:102CC0008FB7F894EC91111108C0D095DE23DC93F6
:102CD0008FBFDF91CF911F910895DE2BF8CFCF9357
:102CE000DF9390E0FC01EF5AFD4D2491835C9D4DF4
:102CF000FC0184918823C9F090E0880F991FFC01A2
:102D0000E15EFD4DA591B491FC01E75DFD4DC591DE
:102D1000D49161110DC09FB7F8948C9120958223B6
:102D20008C938881282328839FBFDF91CF910895BA
:102D3000623051F49FB7F8943C91822F80958323A1
:102D40008C93E8812E2BEFCF8FB7F894EC912E2B3C
:102D50002C938FBFEACF1F93CF93DF93182FEB01F4
:102D600061E00E946F16209739F460E0812FDF91B7
:102D7000CF911F910C944116CF3FD10511F461E022
:102D8000F5CFE12FF0E0EB59FD4DE491E33031F167
:102D900040F4E130B1F0E230E1F0C038D1057CF729
:102DA000E4CFE73029F1E83059F1E430B1F7809110
:102DB0008000806280938000D0938B00C0938A0053
:102DC00004C084B5806884BDC7BDDF91CF911F91D9
:102DD000089584B5806284BDC8BDF7CF809180001E
:102DE000806880938000D0938900C0938800EDCFE5
:102DF0008091B00080688093B000C093B300E5CFAD
:102E00008091B00080628093B000C093B400DDCFA9
:102E10003FB7F8948091DC029091DD02A091DE0230
:102E2000B091DF0226B5A89B05C02F3F19F001968F
:102E3000A11DB11D3FBFBA2FA92F982F8827BC0114
:102E4000CD01620F711D811D911D42E0660F771F3C
:102E5000881F991F4A95D1F708958F929F92AF923C
:102E6000BF92CF92DF92EF92FF924B015C010E94E2
:102E700008176B017C010E9408176C197D098E09E7
:102E80009F09683E734081059105A8F321E0821AED
:102E90009108A108B10888EEC80E83E0D81EE11C95
:102EA000F11C81149104A104B10429F7FF90EF9063
:102EB000DF90CF90BF90AF909F908F9008952FB7E5
:102EC000F8946091D8027091D9028091DA029091C1
:102ED000DB022FBF089584E98093BC008091BC0081
:102EE00084FDFCCF08958093BB0084E88093BC00F0
:102EF0008091BC0087FFFCCF089584EA8093BC00DA
:102F00008091BC0087FFFCCF88E70C9473170E9468
:102F10007D1780E48093BB0084E88093BC00E8E1E7
:102F2000F3E09091BC0097FFFCCF91919093BB0090
:102F30008093BC0097E0E831F90799F78091BC00D5
:102F400087FFFCCF0C946B17CF93C82F0E947D177F
:102F500080E00E9473178C2F0E947317CF910C94FE
:102F60006B17480F592F511D4138510514F040E897
:102F700050E0481BFB0177FD379633E0F595E79568
:102F80003A95E1F7F695FE2FEE27F795E795E80FCE
:102F9000F91FE85EFC4F6770772781E090E001C081
:102FA000880F6A95EAF7382F213041F4415078F0C4
:102FB0008191DF011197832B8C93F8CF809541503D
:102FC00030F09191DF01119798239C93F8CF0895E9
:102FD000CF92DF92EF92FF920F93CF93DF936C012A
:102FE0007B01C42FD22F202F0E94B117B7016D0F84
:102FF000711D61507109603471052CF4202F4C2F24
:10300000C6010E94B117202F4D2FB701C6010E94A3
:103010006313C6018C0F911D202F4D2FB70101970F
:10302000DF91CF910F91FF90EF90DF90CF900C94B4
:1030300063132F923F924F925F926F927F928F9283
:103040009F92AF92BF92CF92DF92EF92FF920F9337
:103050001F93CF93DF93CDB7DEB72A970FB6F894BF
:10306000DEBF0FBECDBF9A8389836A3061F5DC0174
:1030700052968C91B8E08B9F90011124E981FA81DE
:1030800086859785820F931F978786871586148676
:1030900081E090E02A960FB6F894DEBF0FBECDBF58
:1030A000DF91CF911F910F91FF90EF90DF90CF9024
:1030B000BF90AF909F908F907F906F905F904F9058
:1030C0003F902F9008956D3019F329813A813A8706
:1030D0002987D9011C96AD90BC90B0E8AB16B1041D
:1030E0000CF07BC0F901C684D784F0E4CF16D1047C
:1030F0000CF073C0D90152966C90529745E095013F
:10310000649E200D311D1124121613060CF065C0AB
:10311000262C312C910153E0220F331F5A95E1F7F1
:103120002C0D3D1D121613060CF057C05196BC9184
:10313000BB83E985FA85F089FC83649FB001112483
:103140009B01215E324E3A832983712CE981FA81F9
:103150008491F5E07F1201C080E0460138E0532EF3
:10316000282F30E03E832D834C8080FF4B80411020
:1031700004C03B818C813817E1F010E000E00615B7
:10318000C0F4D501A00FB11FB887AF83F12CE12C9B
:10319000E61460F4B701680D791D442D8F81988580
:1031A0000E944513BFEFEB1AFB0AF2CF0F5F1F4FD0
:1031B000E6CF8D819E81959587955A94820C931CBC
:1031C0005110CECF7394E981FA813196FA83E98365
:1031D000A20CB31CF6E07F12B9CFA985BA8552962E
:1031E0002C915297422F50E01C968D919C91B6E005
:1031F0002B9F800D911D1124E985FA859587848781
:103200002389222309F444CF6AEF64039001659F68
:10321000300D112420583F4F281739070CF038CFB4
:10322000DF010190F081E02D0190F081E02D6AE056
:10323000CD0109952DCF0F931F93CF93DF938C0171
:10324000D0E0C0E0F801EC0FFD1F6491662341F06F
:103250008DEF97E00E941918892B11F02196F2CF7B
:10326000CE01DF91CF911F910F910895682F8DEFBF
:1032700097E00C941918089590E080E008958091EB
:103280007A00806980937A008EE480937C0061E00C
:1032900070E080E090E00E942D1783B7817F82600C
:1032A00083BF80E130E020E093B7916093BF8895C1
:1032B00093B79E7F93BF90917A0096FDFCCF40918B
:1032C000780050917900240F351F815069F7809163
:1032D0007A008F7780937A0084E0369527958A95D7
:1032E000E1F750E040E064EB7BE281E190E00E9496
:1032F0009C36C901089580917A00806980937A0094
:1033000088EC80937C006AE070E080E090E00E94AE
:103310002D1783B7817F826083BF80E270E060E019
:1033200093B7916093BF889593B79E7F93BF909119
:103330007A0096FDFCCF2091780030917900620FE1
:10334000731F815069F780917A008F7780937A009C
:10335000769567957695679562527A4090E080E021
:103360000E94673526EF38E24CE151E40E946C3749
:10337000089590917A00906990937A008E508064BD
:1033800080937C0083B7817F826083BF20E290E0DE
:1033900080E033B7316033BF889533B73E7F33BFAA
:1033A00030917A0036FDFCCF409178005091790041
:1033B000840F951F215069F720917A002F77209371
:1033C0007A0025E0969587952A95E1F708958FE094
:1033D0000E94B919A091E302B091E4029C010E94FD
:1033E000F0360E94693528E539E743E353E40E944B
:1033F0006C370E94E537CB0108958091EC02882359
:1034000069F086E00E941816892B41F06AE070E0AE
:1034100080E090E00E942D171092EC0208956F92C8
:103420007F928F929F92AF92BF92CF92DF92EF9254
:10343000FF920F93CF93DF937C01C62F01E020E32F
:1034400040E370E060E00E948C13570123E0A20E7D
:10345000B11C00E02AE24AE263E070E0C5010E948C
:103460008C1370E060E0C7010E94301467013FE2F6
:10347000C30ED11C70E060E0C6010E9430146FE200
:1034800070E0C7010E9430146FE270E0C6010E9434
:103490003014EC2FF0E0EE0FFF1FE157FE4F80805D
:1034A000918053E0E52EF12CD12CC12C60E8662EE2
:1034B000712CD0E0C0E0FE0133E0F595E7953A9538
:1034C000E1F7EC0DFD1DE80DF91DE491CE018770CB
:1034D0009927930102C0359527958A95E2F7C9018E
:1034E000F0E0E223F923EF2B69F0CE01880F991F5A
:1034F0008C0F9D1F01E023E043E0B7018A0D9B1D67
:103500000E948C132196CE30D105A9F632E0C30E6D
:10351000D11C83E0E80EF11C2DE2E216F10449F61D
:10352000DF91CF910F91FF90EF90DF90CF90BF9000
:10353000AF909F908F907F906F9008950F931F93FF
:10354000CF9380914D01882399F0CFEF0FEE11E0DA
:1035500061E085E00E944116C8010197F1F760E043
:1035600085E00E944116C8010197F1F7C15081F72B
:10357000CF911F910F9108952F923F924F925F929A
:103580006F927F928F929F92AF92BF92CF92DF9273
:10359000EF92FF920F931F93CF93DF9310E000E021
:1035A000D0E0C0E03EE3E32EF12C40ECC42ED12C61
:1035B000AA24A394B12C60E2662E712C70E4272E0D
:1035C000312C4C2E86E00E94181621E0892B09F040
:1035D00020E02093EC02F0921703E0921603D092C1
:1035E0001503C0921403B0921303A092120382E851
:1035F00090E09093110380931003809110039091B9
:10360000110395958795582E9FE1591243C0F0926A
:103610001703E0921603D0921503C0921403B092E0
:103620001303A0921203EEEBF0E0F0931103E0938A
:1036300010039FE5592E0E94571482E080930F08D3
:1036400010930A0800930908E0E3F0E0F0930C08F7
:10365000E0930B088EE50E94361910920A0810922A
:10366000090870920C0860920B08912C812C84142C
:1036700038F580910A03F40196E0989FE00DF11D62
:103680001124E15BFE4F80810E943619EFEF8E1A04
:103690009E0AEDCFF0E65F12CECFF0921703E092D4
:1036A0001603D0921503C0921403B0921303A09294
:1036B0001203309211032092100380E2582EBBCFE8
:1036C00010930A080093090870920C0860920B0886
:1036D000852D0E9436190E94FD190E94871786E0E9
:1036E0000E941816892B09F088CF8091EC02811175
:1036F00084CF80900A03F6E08F9E40011124C4011C
:10370000815B9E4F4C01FC01EC0FFD1F50820E941B
:103710009E1A6AE070E080E090E00E942D172196EA
:10372000005F1F4FC530D10509F04BCFF401158262
:10373000DF91CF911F910F91FF90EF90DF90CF908D
:10374000BF90AF909F908F907F906F905F904F90C1
:103750003F902F9008953F924F925F926F927F9289
:103760008F929F92AF92BF92CF92DF92EF92FF9291
:103770000F931F93CF93DF93CDB7DEB72E970FB67E
:10378000F894DEBF0FBECDBF80910D03882309F4EE
:10379000A5C11092B5071092B6071092B707109204
:1037A000B8078090B5079090B607A090B707B09083
:1037B000B807C090FE02D090FF02E0900003F090A6
:1037C0000103A7019601C501B4010E94FF362B0138
:1037D0003C0120E030E0A9010E94143818160CF0DA
:1037E000A0C1C301B2010E94E5378091480188233E
:1037F00009F4B8C1C092BD07D092BE07E092BF07DE
:10380000F092C007E12CF12C00EA10E420E030E057
:1038100040E450E46E31710540F0E12CF12C00E8F9
:103820001FE320E030E040E05FE360E070E080E331
:1038300091E40E9469128091FB07882309F42AC150
:103840000E945F176D837E838F8398878091E30743
:103850009091E407A091E507B091E6074D815E8164
:103860006F817885481B590B6A0B7B0B8091EF07A2
:103870009091F007A091F107B091F207481759070E
:103880006A077B0708F406C1E091DD07F091DE07C7
:1038900080819181A281B38189839A83AB83BC8328
:1038A000E091E107F091E2079C01AD016081718137
:1038B000828193810E94FF364B015C012091EB07CE
:1038C0003091EC074091ED075091EE0769817A81C4
:1038D0008B819C810E94FF366B017C012091D10776
:1038E0003091D2074091D3075091D407C501B4015C
:1038F0000E94C8352091E7073091E8074091E90719
:103900005091EA070E9400372B013C014092E707E3
:103910005092E8076092E9077092EA073090FC073E
:1039200031101AC02091CD073091CE074091CF07BA
:103930005091D007C701B6010E94C8359B01AC0168
:10394000C301B2010E94FF366093E7077093E80756
:103950008093E9079093EA074090E7075090E807C3
:103960006090E9077090EA071091F7079091F807C7
:103970009E87A091F907AD870091FA07212F392F73
:103980004A2F502FC301B2010E94143818160CF0B0
:10399000CCC0812F9E85AD85B02F8093E707909393
:1039A000E807A093E907B093EA07332009F4D6C0EB
:1039B0002091CD073091CE074091CF075091D0078D
:1039C000C501B4010E94C8354B015C012091D507A7
:1039D0003091D6074091D7075091D807C701B6015B
:1039E0000E94C8359B01AC016091E7077091E80720
:1039F0008091E9079091EA070E94FF36A5019401A2
:103A00000E9400376B017C019B01AC01612F7E8518
:103A10008D85902F0E94623587FD18C01091F307A5
:103A20009091F4079E87A091F507AD870091F60766
:103A3000212F392F4A2F502FB601C7010E9462351E
:103A400087FD04C01C2DDE86ED860F2DE091DF077B
:103A5000F091E007812F9E85AD85B02F8083918303
:103A6000A283B38389819A81AB81BC818093EB0768
:103A70009093EC07A093ED07B093EE078D819E81A4
:103A8000AF81B8858093E3079093E407A093E5079F
:103A9000B093E6076091B9077091BA078091BB07B0
:103AA0009091BC070E94DE3789E02E960FB6F894FD
:103AB000DEBF0FBECDBFDF91CF911F910F91FF9061
:103AC000EF90DF90CF90BF90AF909F908F907F90BE
:103AD0006F905F904F903F900C94AB1680910C03C9
:103AE000609144017091450181110EC08091FC02EA
:103AF0009091FD0220910B03BC01222329F06091DB
:103B00004301680F792F711D90E080E00E946735B6
:103B10006093B5077093B6078093B7079093B80783
:103B200040CEC301B20190585ECE8091F3079091D0
:103B3000F407A091F507B091F60789879A87AB87BC
:103B4000BC879C01AD01C301B2010E94623587FFB1
:103B50002CCF89859A85AB85BC851FCF812C912C74
:103B6000540134CF20E030E040E05FE3C701B6010C
:103B70000E9400379B01AC01C501B4010E941438BA
:103B800018164CF41092B9071092BA071092BB079E
:103B90001092BC077FCF80E090E0AFE7B3E4809362
:103BA000B9079093BA07A093BB07B093BC0772CF35
:103BB0004F925F926F927F928F929F92AF92BF923D
:103BC000CF92DF92EF92FF92CF93DF938090E50246
:103BD0009090E602A090E702B090E802C0910A033C
:103BE000D0E0C501B4010E94DE376B017C0120E00A
:103BF00030E048E453E4C501B4010E94623593E02B
:103C0000CC0FDD1F9A95E1F7CE5FDE4F87FF31C005
:103C10002881398150E040E025513109410951099D
:103C2000C701B6010E94FE3928EC30E040E050E0C8
:103C30000E949C36CA01B9016B5E7F4F8F4F9F4F28
:103C40000E9469356093FE027093FF028093000327
:103C500090930103DF91CF91FF90EF90DF90CF9091
:103C6000BF90AF909F908F907F906F905F904F909C
:103C700008954A805B80712C612C20E030E04CE894
:103C800053E4C501B4010E94623587FF1FC08880DC
:103C90009980B12CA12CA7019601285C310941091A
:103CA0005109C301B201681979098A099B090E9467
:103CB000FE3920E530E040E050E00E949C36CA0129
:103CC000B901680D791D8A1D9B1DBACF2C813D81DC
:103CD00050E040E02419350946095709C701B601EB
:103CE00068517140810991090E94FE3920E530E058
:103CF00040E050E00E949C36CA01B901640D751D78
:103D0000861D971D9DCFFC0101900020E9F731979A
:103D1000AF01481B590BBC018DEF97E00C94E214E6
:103D20008F929F92AF92BF920F931F93CF93DF9387
:103D3000CDB7DEB7A1970FB6F894DEBF0FBECDBFEB
:103D400019A2423008F44AE08E010F5D1F4F842E05
:103D5000912CB12CA12CA50194010E94CE36E62F06
:103D6000B901CA01EA30F4F4E05DD801EE938D01A7
:103D7000232B242B252B79F790E080E0109719F066
:103D8000CD010E94831EA1960FB6F894DEBF0FBE30
:103D9000CDBFDF91CF911F910F91BF90AF909F90BA
:103DA0008F900895E95CE1CFCF92DF92EF92FF927E
:103DB000CF93DF9397FF19C06B017C018DE20E94C6
:103DC0003619EC0166277727CB016C197D098E091E
:103DD0009F094AE00E94901E8C0F9D1FDF91CF919A
:103DE000FF90EF90DF90CF9008954AE0DF91CF9160
:103DF000FF90EF90DF90CF900C94901E4F925F92C7
:103E00006F927F928F929F92AF92BF92CF92DF92EA
:103E1000EF92FF920F931F93CF936B017C01742E4F
:103E2000AC019B010E947138882399F083EB92E0EA
:103E3000CF911F910F91FF90EF90DF90CF90BF90A7
:103E4000AF909F908F907F906F905F904F900C9469
:103E5000831E46015701E894B7F82FEF3FEF4FE775
:103E60005FE7C501B4010E94713881110DC02FEFC9
:103E70003FEF4FE75FE7C501B4010E9462351816B6
:103E80001CF487EB92E0D4CF2FEF3FEF4FE75FE4D6
:103E9000C701B6010E94143818161CF48BEB92E08F
:103EA000C7CF2FEF3FEF4FE75FECC701B6010E948E
:103EB000623587FDF3CF20E030E0A901C701B601EC
:103EC0000E94623510E000E087FF08C08DE20E948A
:103ED00036198C01F7FAF094F7F8F094C0E060E03E
:103EE00070E080E09FE37C1641F020E030E040E2AB
:103EF00051E40E946C37CF5FF6CFA70196010E9474
:103F000000372B013C010E94E5374B015C014AE080
:103F10000E94901E7C01E00EF11ECC23B1F1C50180
:103F2000B4010E9467359B01AC01C301B2010E943C
:103F3000FF364B015C018EE20E943619E80EF91E35
:103F4000C15018F120E030E040E251E4C501B40175
:103F50000E94C8352B013C010E94E5374B01B12C72
:103F6000A12C4AE0C501B4010E94901EE80EF91E82
:103F7000C501B4010E9467359B01AC01C301B201C8
:103F80000E94FF364B015C01DBCFC701CF911F912F
:103F90000F91FF90EF90DF90CF90BF90AF909F90E8
:103FA0008F907F906F905F904F900895CF92DF92A7
:103FB000EF92FF920F931F93CF93DF93C82F81E06F
:103FC000DC2FD827D0930E08C0930D0880930F08DC
:103FD0000C2F2EE046E661E370E081E090E00E9465
:103FE000E81720910E0330910F03253F81E0380739
:103FF000B8F4A4E6B0E00E94F03624EF31E040E0EF
:1040000050E00E949C36BA01A9014E5F5F4F6F4F8E
:104010007F4F2EE061E370E081E090E00E948C131E
:104020006091B5077091B6078091B7079091B80776
:104030000E94DE379B01AC01A4E6B0E00E94BB36D3
:1040400034EFC32EDD24D394E12CF12CA70196018B
:104050000E949C36DA01C9010296A11DB11D02978A
:104060000C2F2DE043E062E370E00E948C1360911E
:10407000B5077091B6078091B7079091B8070E9475
:10408000DE379B01AC01A4E6B0E00E94BB36A7017D
:1040900096010E949C36DA01C9010296A11DB11D4C
:1040A000039724E045E06CE370E00E948C1360917C
:1040B000B5077091B6078091B7079091B8070E9435
:1040C000DE379B01AC01A4E6B0E00E94BB36A7013D
:1040D00096010E949C3689019A010E5F1F4F2F4F57
:1040E0003F4F0150110941E3E42EF12C4D2FB70150
:1040F000C8010E9445138FEFE81AF80A8DE3E8160D
:10410000F104A1F76091B5077091B6078091B707E8
:104110009091B8070E94DE379B01AC01A4E6B0E0A5
:104120000E94BB3624EF31E040E050E00E949C3614
:10413000DA01C9010296A11DB11D0397ED2E04E01D
:1041400025E047E552E16BE370E00E94AE130C2FCF
:104150002EE047E161E370E088E690E00E94E81716
:104160006091B9077091BA078091BB079091BC0725
:104170000E94DE379B01AC012F5F310941095109D3
:10418000A7E1B0E00E94BB36CC24C394DD24DA94CE
:10419000ED2CFD2CA70196010E949C36422F2EE0AB
:1041A00061E370E088E690E00E948C13C0930E08F3
:1041B000D0930D0882E090E090930A08809309085C
:1041C00007E310E010930C0800930B086091B5070B
:1041D0007091B6078091B7079091B80740E00E94B0
:1041E000FE1E88EF0E94361985E592E10E941B1998
:1041F00089E690E090930A088093090810930C08D0
:1042000000930B086091B9077091BA078091BB07C2
:104210009091BC070E94DE379B01AC012F5F3109F2
:1042200041095109A4E6B0E00E94BB36A7019601FE
:104230000E949C36CA01B9010E94D41E83E592E116
:104240000E941B19D0930E08C0930D08DF91CF91E7
:104250001F910F91FF90EF90DF90CF9008956F9294
:104260007F928F929F92AF92BF92CF92DF92EF9206
:10427000FF920F931F93CF93DF93B0900A0377249D
:104280007394B11001C0712C809142018150990B3F
:104290001092170310921603880F991F909315031D
:1042A0008093140381E090E09093130380931203B2
:1042B0008B2D90E0880F991F90931103809310032A
:1042C00086E00E94181621E0892B09F020E0209357
:1042D000EC02FF24F39472E0972EE6E08E2EFCE0D1
:1042E000CF2ED12C0E945714C0911003D0911103EE
:1042F000D595C795EC2E8E011127C801870D911D0C
:1043000077FC9A958B199109712C97FD06C0833023
:10431000910514F082E090E0782EF0920E08109251
:104320000D0890920F0810920A0810920908109236
:104330000C0810920B0884E19DE10E941B19109259
:104340000E08F0920D0810920A0810920908A72C86
:10435000072C000CBB08C501019654E0880F991F7B
:104360005A95E1F790930C0880930B0882E19DE148
:104370000E941B196C2E671890E080E098012A19A2
:104380003B095901209142018C010F5F1F4F6216BA
:10439000D0F4D0920A08C0920908980144E0220F94
:1043A000331F4A95E1F730930C0820930B088A0DD0
:1043B0009B1D889E9001899E300D1124C901815B4F
:1043C0009E4F0E94831EC801639403301105D1F6ED
:1043D0000E94FD190E94871786E00E941816892BFB
:1043E000B9F48091EC02811113C00E949E1AE092F0
:1043F0000A03DF91CF911F910F91FF90EF90DF9013
:10440000CF90BF90AF909F908F907F906F900895C6
:10441000BC2E68CF0E943C3A1F93CF93DF93EC01F0
:10442000162F0E948636181739F0612FCE01DF91C2
:10443000CF911F910C948E36DF91CF911F910895EB
:10444000AF92BF92CF92DF92EF92FF920F931F93A2
:10445000CF93DF936091470182E090E00E940C22AD
:104460006091460183E090E00E940C22609145013A
:1044700084E090E00E940C226091440185E090E08D
:104480000E940C226091430186E090E00E940C2281
:1044900060914B0187E090E00E940C2260914A01FC
:1044A00088E090E00E940C226091490189E090E050
:1044B0000E940C2260917F018AE090E00E940C2211
:1044C000609148018BE090E00E940C2260914D01C8
:1044D0008CE090E00E940C2260910A038DE090E055
:1044E0000E940C22609142018EE090E00E940C221A
:1044F00060914E018FE090E00E940C226091E902F1
:1045000080E190E00E940C226091070381E190E03D
:104510000E940C226091EB0282E190E00E940C224A
:104520006091EA0283E190E00E940C2284E1E82E8F
:10453000F12C10E006E0809142011817B8F5109FA9
:1045400060011124D0E0C0E0FE01EC0DFD1DE15B37
:10455000FE4F6081C7018C0F9D1F0E940C22219687
:10456000C630D10589F7670186E0C80ED11C88E006
:10457000189FE0011124CE5FDE4F8EE0E80EF11CA3
:1045800069812296C6010E940C22560182E0A80E83
:10459000B11CFE0132976081C60101960E940C2277
:1045A0006501AE14BF0461F71F5FC5CFDF91CF91E6
:1045B0001F910F91FF90EF90DF90CF90BF90AF9041
:1045C00008958F929F92AF92BF92CF92DF92EF9217
:1045D000FF92CF936FEF70E089E00E94AB168BEAF9
:1045E00094E00197F1F78EE00E94B9197C018AE00E
:1045F0000E9418169091C202981729F091E09093AA
:1046000002038093C202809101019FEF980F909363
:104610000101811106C00E94E7199093090380935C
:1046200008036091B9077091BA078091BB07909118
:10463000BC070E94DE3789E00E94AB168090E5023D
:104640009090E602A090E702B090E802B70190E0F7
:1046500080E00E946735A50194010E94FF362DEC91
:104660003CEC4CE45DE30E94C835A50194010E9436
:1046700000376093E5027093E6028093E70290931F
:10468000E8020E94D81D60910E0370910F0390E024
:1046900080E00E9467356B017C012091B507309165
:1046A000B6074091B7075091B8070E946235811153
:1046B000B6C02091FE023091FF024091000350915C
:1046C0000103C701B6010E94FF366B017C0120E0A7
:1046D00030E0A9010E94143818160CF096C020E0B2
:1046E00030E040EA50E4C701B6010E9414381816C1
:1046F0000CF495C06091FC027091FD0290E080E0A6
:104700000E9467352091FE023091FF024091000324
:10471000509101030E94FF366B017C0120E030E0E4
:10472000A9010E94143818160CF088C0C701B60100
:104730000E94E5376530710508F084C080918001E2
:10474000811105C080914C0181110E949E1A81E067
:104750008093800110924C0180910E0390910F0381
:10476000853F21E0920710F0109200012091000196
:10477000211141C0843F9140F0F56FEF70E089E076
:104780000E94AB160E949E1AC1E0C09300010E94D5
:104790002F210E942022C09302038EE00E94B919AB
:1047A000BC0190E080E00E9467356093E502709361
:1047B000E6028093E7029093E8021092F60280915D
:1047C000FC029091FD022CE231E03093170320931C
:1047D000160320E233E030931503209314032AE0FC
:1047E00030E03093130320931203880F991F9093A6
:1047F000110380931003CF91FF90EF90DF90CF9043
:10480000BF90AF909F908F90089520E030E040EAF5
:1048100050ECC701B6010E94623587FF6BCF6091F3
:10482000FE027091FF0280910003909101030E94AB
:10483000E53770930F0360930E035CCFC701B60199
:10484000905876CF1092800187CF0C9486362F92A5
:104850003F924F925F926F927F928F929F92AF9210
:10486000BF92CF92DF92EF92FF920F931F93CF935D
:10487000DF938C0186E080930F0881E080930E081F
:1048800010920D086091D5027091D602072E000C8F
:10489000880B990B0E9469352B013C014FECC42E0B
:1048A00042E0D42E7601C2E0D0E05AE0A52EB12C31
:1048B000BE010D2E000C880B990B0E9469359B01DF
:1048C000AC0160E070E080E291E40E9419389B0145
:1048D000AC01C301B2010E946C370E94DE37CB01EC
:1048E000B5010E940E3AF701819391937F012197C0
:1048F000F8F61093D6020093D502C3ECD2E094E010
:10490000E92EF12C22E0822E912C3AE0232E312C3C
:10491000B401092C000C880B990B0E9469359B018E
:10492000AC0160E070E080E291E40E9419382B0154
:104930003C016091D5027091D602072E000C880BC5
:10494000990B0E946935A30192010E946C370E9465
:10495000DE37CB01B1010E940E3AF6012081318190
:10496000821B930BF2E3F89FB001F99F700D1124A5
:10497000072E000C880B990B0E946935288139811C
:104980004A815B810E9400372B013C0120E030E02E
:10499000A9010E94623581117CC0488259826A82D5
:1049A0007B8201E022E346E270E060E0C701049709
:1049B0000E948C138EECA82EBB24BA940FEF1FEF2D
:1049C000288139814A815B8160E070E080E890E471
:1049D0000E94FF362B013C01B5010B2C000C880B0B
:1049E000990B0E9469359B01AC01C301B2010E9481
:1049F00000370E94DE37F0920A08E09209087093AF
:104A00000C0860930B08F60160817181600F711FC3
:104A1000072E000C880B990B0E94D41E0F5F1F4FAE
:104A2000F2E3AF0EB11C0230110551F6249621E0DD
:104A3000821A910882E0C80ED11CECE2EE0EF11C45
:104A4000F8E8EF16F10409F063CF00E022E040E857
:104A500070E060E090E080E00E948C1320E140E88C
:104A600060E370E090E080E00E948C13DF91CF91D2
:104A70001F910F91FF90EF90DF90CF90BF90AF907C
:104A80009F908F907F906F905F904F903F902F906E
:104A90000895C301B20190582DEC3CEC4CE45FE367
:104AA0000E94C835A30192010E9400376883798370
:104AB0008A839B8376CF4F925F926F927F928F9281
:104AC0009F92AF92BF92CF92DF92EF92FF920F939D
:104AD0001F93CF93DF93CDB7DEB72B970FB6F89424
:104AE000DEBF0FBECDBF90914E01E82FF0E09F01D9
:104AF000220F331F911126C0F901E55DFD4F408162
:104B00005181EE24E39400E124E260E370E080E36D
:104B100090E00E94AE132B960FB6F894DEBF0FBE46
:104B2000CDBFDF91CF911F910F91FF90EF90DF905C
:104B3000CF90BF90AF909F908F907F906F905F903D
:104B40004F900895923009F079C0E356F34E4490A7
:104B5000F901E352FE4FA080B180F12CE12C04E377
:104B600010E393E0592E27E0622EE414A0F6F5013D
:104B7000EE0DFF1D449180E1840F833008F45CC08A
:104B800081EF7816D1F082EF7816C1F1403F90F4B2
:104B9000193710F0085F10E088E0489FA001112449
:104BA000435E5A4E602F70E028E0812F90E00E9413
:104BB0006A14185F80EF782E1DC04E39D8F41D3767
:104BC00010F0085F10E0C02ED12C812E912C459D55
:104BD000A00111244D5B5C4E23E0B601C4010E948C
:104BE0006A1421E042E453E1B601C40103960E9435
:104BF0006A141C5F8FEFE81AF80AB7CF4132D0F77A
:104C0000193710F0085F10E0C02ED12C812E912CA6
:104C1000469DA0011124455A5D4E27E0B601C4010E
:104C20000E946A1421E042E453E1B601C4010796F0
:104C30000E946A14185FDECF742EDCCF80E390E010
:104C400090930A088093090884E390E090930C08FD
:104C500080930B0881E080930F08F901EC53F34E29
:104C600065917491CE0101960E945B35CE0101964B
:104C70000E94831E50CFCF93C82F86E00E94181643
:104C800021E0892B09F020E02093EC020E945714C8
:104C90008091100390911103959587950E94272488
:104CA0008C2F0E945B250E9487170E94FD1986E0C9
:104CB0000E941816892B51F78091EC028111E6CFE2
:104CC0000E949E1A8091D5029091D602CF910895AC
:104CD000109217031092160328E037E03093150363
:104CE0002093140324E630E030931303209312033F
:104CF000880F991F909311038093100387E00E94FF
:104D00003B269C01220F331F309317032093160379
:104D1000865A9F4F880F991F909315038093140311
:104D20008AE090E090931303809312033093110371
:104D30002093100387E00E943B269C01220F331F23
:104D400030931703209316030996880F991F9093A9
:104D500015038093140381E090E0909313038093F4
:104D60001203309311032093100387E00C943B2629
:104D70002F923F924F925F926F927F928F929F926B
:104D8000AF92BF92CF92DF92EF92FF920F931F9359
:104D9000CF93DF93182FE091ED02F0E0EB57FE4F39
:104DA00080818150990B1092170310921603880F7F
:104DB000991F909315038093140381E090E09093E2
:104DC000130380931203812F90E0880F991F909313
:104DD00011038093100386E00E94181621E0892BAE
:104DE00009F020E02093EC0210920E0881E08093FD
:104DF0000D0838E3632EE0901003F0901103F59452
:104E0000E794AE2C6701DD249601211B3109629ED7
:104E1000C001639E900D1124C80FD91F209709F17E
:104E2000662777276C1B7D0B072E000C880B990BD0
:104E30000E9469352AE939E949E15FE30E94C835F2
:104E40001B012C01BE01DD0F880B990B0E946935F7
:104E50009B01AC01C201B1010E9400370E94DE3704
:104E6000EB010E9457148601025011094E0185E0A2
:104E7000B82E93E0792E7A0CC090ED02D12C17FD5C
:104E800020C0F601EB57FE4F808180171106C9F054
:104E9000C4F0E5E8F1E070E060E0CF0185589140B2
:104EA0008C159D0534F48191680F711DF6CF1E2D70
:104EB000A2CF872D8B19680FC401885491090E94D5
:104EC0000F1ABA940F5F1F4F88E3880E911CB11020
:104ED000D3CFE5E8F1E090E080E09F012558314034
:104EE0002C153D0524F42191820F911DF6CF8E0DD6
:104EF0000E945B250E9487170E94FD1986E00E9490
:104F00001816892BA1F68091EC028111D0CF0E9456
:104F10009E1A8A2DDF91CF911F910F91FF90EF90F4
:104F2000DF90CF90BF90AF909F908F907F906F90C9
:104F30005F904F903F902F9008951F920F920FB661
:104F40000F9211242F933F934F935F936F937F930F
:104F50008F939F93AF93BF93EF93FF9388E197E075
:104F60000E946015FF91EF91BF91AF919F918F913A
:104F70007F916F915F914F913F912F910F900FBE55
:104F80000F901F9018951F920F920FB60F92112439
:104F90002F938F939F93EF93FF93E0912807F091C6
:104FA00029078081E0912E07F0912F0782FD1BC019
:104FB0009081809131078F5F8F7320913207821724
:104FC00041F0E0913107F0E0E85EF84F958F809373
:104FD0003107FF91EF919F918F912F910F900FBE0D
:104FE0000F901F9018958081F4CF1F920F920FB6EB
:104FF0000F9211242F933F938F939F93AF93BF935F
:105000008091D8029091D902A091DA02B091DB028E
:105010003091D70223E0230F2D3758F50196A11DBB
:10502000B11D2093D7028093D8029093D902A09308
:10503000DA02B093DB028091DC029091DD02A09154
:10504000DE02B091DF020196A11DB11D8093DC024A
:105050009093DD02A093DE02B093DF02BF91AF9187
:105060009F918F913F912F910F900FBE0F901F90A6
:10507000189526E8230F0296A11DB11DD2CF1F92CD
:105080000F920FB60F9211242F933F934F935F937C
:105090006F937F938F939F93EF93FF9383B181706F
:1050A00029B19091E202981709F49DC030E0220FD7
:1050B000232F221F330B922F8093E2024091E102B3
:1050C000241709F490C02093E1022091120330913B
:1050D0001303981719F03195219531094091100368
:1050E000509111036091160370911703240F351F1F
:1050F000261737070CF48BC020911203309113034D
:10510000981719F03195219531094091100350916C
:1051100011036091140370911503240F351F62175A
:1051200073070CF46FC0409112035091130398174A
:1051300019F05195419551092091100330911103B7
:10514000240F351F309311032093100341E098136F
:1051500040E02091E002421709F440C02091120380
:1051600030911303981719F0319521953109609109
:10517000100370911103E0911603F0911703260FAD
:10518000371F2E173F070CF44CC0209112033091AB
:105190001303981719F03195219531096091100387
:1051A00070911103E0911403F0911503260F371F3E
:1051B000E217F3078CF12091120330911303981733
:1051C00019F03195219531098091100390911103C7
:1051D000820F931F90931103809310034093E0027A
:1051E00081E080930203FF91EF919F918F917F91D6
:1051F0006F915F914F913F912F910F900FBE0F9044
:105200001F90189520911403309115039BCF209186
:1052100016033091170396CF8091140390911503D4
:10522000D9CF8091160390911703D4CF18950F937F
:105230001F93CF93DF93E8E1F7E01382128288EEA9
:1052400093E0A0E0B0E084839583A683B78389E9E7
:1052500092E09183808385EC90E09587848784EC4D
:1052600090E09787868780EC90E0918B808B81EC33
:1052700090E0938B828B82EC90E0958B848B86EC14
:1052800090E0978B868B118E128E138E148EEDEF1D
:10529000F7E0138212821682178280E180871582DE
:1052A000148212868BEA92E091838083158614869D
:1052B0001786168681E0808B118A828B138AC1EC57
:1052C000D7E029EB37E03F8F2E8F2DEB37E03D8F76
:1052D0002C8F25EB37E039A328A31AAE1AAA1BAAF4
:1052E0001CAA1DAA40E050E06FE773E44EAB5FAB31
:1052F00068AF79AF44E650E060E070E04EA75FA78A
:1053000068AB79AB21E030E0398F288F3B8F2A8F53
:105310008BAF80E090E0A0E3B1E488839983AA8317
:10532000BB8380E090E0A0E0BFE38C839D83AE83ED
:10533000BF8380E090E0A0E8BFE388879987AA87D1
:10534000BB8780E090E0A0E3B1EC8C879D87AE87BF
:10535000BF878DEC9CECACE4BDEB888B998BAA8B62
:10536000BB8B80E090E0A0E2B1EC8C8B9D8BAE8B90
:10537000BF8B0E945F170EA51FA528A939A9601B26
:10538000710B820B930B6AA37BA38CA39DA3DF916C
:10539000CF911F910F910895CF93DF93CDB7DEB7D3
:1053A0002C970FB6F894DEBF0FBECDBF789484B5AE
:1053B000826084BD84B5816084BD85B5826085BD11
:1053C00085B5816085BD80916E00816080936E009F
:1053D0001092810080918100826080938100809191
:1053E0008100816080938100809180008160809342
:1053F00080008091B10084608093B1008091B00002
:1054000081608093B00080917A00846080937A00FC
:1054100080917A00826080937A0080917A00816026
:1054200080937A0080917A00806880937A0010924D
:10543000C1001092B90088E48093B8000E947D17E3
:1054400080E00E94731709E712E2F80184910E943C
:1054500073170F5F1F4FF2E208391F07B1F70E9461
:105460006B1711E01093B8000E94871781E28093B8
:10547000050860E08EE00E946F1660E08FE00E94F9
:105480006F1661E085E00E946F1661E089E00E947E
:105490006F1662E087E00E946F1662E088E00E946B
:1054A0006F1662E086E00E946F1662E08AE00E945A
:1054B0006F166FEF70E089E00E94AB1660E085E048
:1054C0000E94411680917A00876080937A008091D3
:1054D0007A00886080937A00789410936B00109320
:1054E00068001BBB90E080E00E942524182F81E01B
:1054F00090E00E942524912F8F31984009F0C9C077
:1055000082E090E00E942524182F83E090E00E9422
:105510002524912F909347018093460184E090E0E9
:105520000E942524182F85E090E00E942524912FC9
:10553000909345018093440186E090E00E942524E9
:105540008093430187E090E00E94252480934B01E3
:1055500088E090E00E94252480934A0189E090E051
:105560000E942524809349018AE090E00E9425242E
:1055700080937F018BE090E00E94252491E08111CF
:1055800001C090E0909348018CE090E00E942524B7
:1055900091E0811101C090E090934D018DE090E089
:1055A0000E94252480930A038EE090E00E94252427
:1055B000282E809342018FE090E00E942524809362
:1055C0004E0180E190E00E94252491E0811101C00C
:1055D00090E09093E90281E190E00E94252480937D
:1055E000070382E190E00E942524182F83E190E0D8
:1055F0000E942524912F9093EB028093EA0252E0BF
:10560000852E51E0952E6FE4A62E61E0B62E74E152
:10561000E72EF12C312C231409F447C010E000E0F0
:10562000C701800F911F0E942524F501E00FF11F93
:1056300080830F5F1F4F0630110591F7670136E039
:10564000C30ED11C4EE0E40EF11C3401C6010E94D1
:105650002524082F10E0102F0027D3010D931C9351
:105660002601B2E04B0E511CC60101960E94252472
:10567000082BF301019311933F0162014E145F0463
:1056800029F73394F8E08F0E911C26E0A20EB11C8E
:10569000C2CF68E090E080E00E940C226FE181E0E0
:1056A00090E00E940C220E9420221091E90280ECDE
:1056B000111101C088EC0E94A41780EA111101C0E9
:1056C00081EA0E94A4171092030380E280930403EE
:1056D00080E48093050380E6809306038091EA02CC
:1056E0009091EB02892B19F10E94571467E088E230
:1056F00090E00E940F1A87E00E945B250E948717A6
:1057000068EE73E080E090E00E942D170E949E1AE0
:105710000E949E1A0E949E1A90E080E00E946826D5
:105720002091EA023091EB0282179307E9F60E947A
:105730003F199093E4028093E3020E94E71990934B
:1057400009038093080300914601109147011093CB
:10575000FD020093FC028EE00E94B919BC0190E0AA
:1057600080E00E9467356093E5027093E6028093C3
:10577000E7029093E8020E947B190E94D81D20E066
:1057800030E040EA51E46091FE027091FF028091A6
:105790000003909101030E9400376B017C01B80166
:1057A00090E080E00E9467359B01AC01C701B60123
:1057B0000E94623587FF05C070E060E089E00E94CA
:1057C000AB161092F3071092F4071092F50710929F
:1057D000F607412C512C3FE7632E33E4732E4092A1
:1057E000F7075092F8076092F9077092FA07A090B5
:1057F000DF07B090E0078091FB07D501CD90DD90E9
:10580000ED90FC90882311F40C948A34A30192014A
:10581000C701B6010E941438181634F5F50140820C
:105820005182628273828090E7079090E807A0908F
:10583000E907B090EA07C090F707D090F807E0902A
:10584000F907F090FA07A7019601C501B4010E947B
:1058500014381816CCF4C092E707D092E807E0920B
:10586000E907F092EA0720C020E030E0A901C70173
:10587000B6010E94623587FFD6CFD5011D921D92D9
:105880001D921C921397CFCFC090F307D090F407CE
:10589000E090F507F090F607A7019601C501B40165
:1058A0000E94623587FDD7CF81E08093FB0783B1EB
:1058B00081708093E20289B190E0880F892F881F60
:1058C000990B8093E1022091E2029091E10281E044
:1058D000291380E08093E0028CE291E0909317031B
:1058E0008093160380E293E0909315038093140352
:1058F0008AE090E09093130380931203000F111F2E
:1059000010931103009310030E945F176093F80235
:105910007093F9028093FA029093FB020E949E1A00
:105920000E949E1A2090100330901103F101F5950A
:10593000E795FA87E987F093FD02E093FC0286E0A1
:105940000E941816482E8111A0C08091F60288236B
:1059500009F49BC00E949E1A0E945F176B017C0194
:10596000C092F202D092F302E092F402F092F502B9
:1059700086E00E941816892B59F40E945F176C1953
:105980007D098E099F09643F71408105910580F36F
:105990000E945F176C197D098E099F09643F714051
:1059A0008105910508F46DC46FEF70E089E00E94F5
:1059B000AB160E949E1A512CAAE06A2E712C1092EE
:1059C000ED02852D0E94B826582E39E0381708F4CC
:1059D00039C0E82FF0E0E151F34D0C94223A0B2D41
:1059E000B82F32309E30AC30DD30EB300C31173117
:1059F000213120E030E0A901C701B6010E946235E3
:105A000087FF52CF1092E7071092E8071092E9073C
:105A10001092EA0749CFF6E0FF2E81E08093ED0275
:105A2000852D0E94B826582E42E0841709F439C209
:105A3000481708F4E9C0882309F413C151E0851719
:105A400009F412C10E94202281E080930203E985BB
:105A5000FA85F093FD02E093FC028CE291E09093D2
:105A600017038093160380E293E0909315038093CD
:105A700014038AE090E09093130380931203C10112
:105A80008E7F90931103809310034092F6028091D1
:105A90000B03882309F1109149011123E9F00E94B9
:105AA0005F17C090EE02D090EF02E090F002F0900D
:105AB000F1026C197D098E099F0928EE33E040E060
:105AC00050E00E94CE36211738F010920B030E944E
:105AD0009E1A81E080934C01809102038823F1F1AA
