:100000000C948A120C94B2120C94B2120C946529BE
:100010000C94B2120C94B2120C943D2A0C94B212AD
:100020000C94B2120C94B2120C94B2120C94B21240
:100030000C94B2120C94B2120C94B2120C94B21230
:100040000C941B290C94B2120C94E9280C94C3282C
:100050000C94B2120C943C2A0C94B2120C94B2126E
:100060000C94B2120C94B21205A84CCDB2D44EB975
:100070003836A9020C50B9918688083CA6AAAA2A4B
:10008000BE000000803F07634236B79BD8A71A39ED
:10009000685618AEBAAB558C1D3CB7CC5763BD6DD6
:1000A000EDFD753EF6177231BF000000803F08007D
:1000B0000000BE922449123EABAAAA2ABECDCCCCE7
:1000C0004C3E00000080BEABAAAAAA3E0000000081
:1000D000BF000000803F0000000000084178D3BB53
:1000E0004387D1133D190E3CC3BD4282AD2B3E6800
:1000F000EC8276BED98FE1A93E4C80EFFFBE01C4F1
:10010000FF7F3F0000000000800400003FF0383017
:1001100033103F90381033902790261030903FF0E6
:1001200000008004800400003FF03DF020103BF010
:100130003B7030302B502AD031B03FF000008004AB
:10014000800400003FF038703030231027902010DA
:100150002010279027903FF00000800480040000CA
:100160003FF03CF03CF020102490249020103CF014
:100170003CF03FF000008004800400003FF037B006
:1001800023103030387038703030231037B03FF0E3
:1001900000008004FCF4F860E044C08CC11CC22C58
:1001A000C44CC88CD10CA204C4048FFC187CBCFCC9
:1001B0008000BFF81FF8B0281FF8B4081FF8B10876
:1001C0001FF8B048BFF8B288BFF880008000BFF8C1
:1001D0001FF8B0081808B9E819B8B8381838B9B80D
:1001E000B9F8B0F8BFF8800015543FF815503FF04B
:1001F0001550387010203104138C22A817FC2AA83F
:100200000000000015543FFC15543FFC15543C04FD
:1002100014043CFC14543CFC005400A800000000F2
:10022000800400003FF03CF034B0249024902790EC
:100230002310303038703FF000008004FF7CFE7CDB
:10024000FCECE8DCC84C984C882408200000000036
:10025000000000008004E01CF3FCE7FCCE0C8E1CC8
:100260009F9C1F3C1F0C0E0C0FFC87F881E4C00CF8
:10027000E01CF87C000458085808580840087FF82B
:1002800060185FE85B685FE85B681CE85FE8000097
:10029000800400003FF03CF03CF03CF020102010C7
:1002A0003CF03CF03CF03FF000008004F87CF7BCF0
:1002B00000007FF80000BFF4AB54AB54AB54AB5418
:1002C000AB54AB54BFF4C00CF03CCE0CBF04B30431
:1002D00073007F007E007C007C007C60BC64BE04F8
:1002E000CF0CF03C81DC559C29045500299055D059
:1002F00003FCFF002E00267002508270E600EE0420
:10030000800C001C3FF43FE03FC4378C2318303092
:1003100038703CF03FF03FF000008004058074B876
:1003200057A876B80580F97C4694AAA8F97C068877
:1003300074A8578C75740698F03CCE4CBC34B81435
:10034000188010804230607860F844C08004B8841F
:10035000CFCCF03CE01CC00C8FC49FE49FE49FE432
:1003600000000300030003000780078003008004EF
:10037000F87CE01CC00CCFCCCFCCCFCCCFCCCFCC3A
:10038000CFCCCFCCC84CCFCCC00CE01CF87C8004C8
:10039000BCF43FF03870B7B4B6B4B5B4B7B4387085
:1003A0003FF0BCF48004F87CFCFCF87CE01CC00C42
:1003B000C00CC00CC00CC00CC00C80048004FFFC3E
:1003C000F87CFCFC800400002000100008001000F5
:1003D0002700000000000000000000000000800472
:1003E000C3FC18001800C3FCFFFCFF0C0060006099
:1003F000FF0CFFFCF0FC06000600F0FC8FC4102090
:1004000020104CC89FE43DF03DF01DE03EF03F70F1
:100410009FE48CC400003030F87CF33CF4BCF6BCA4
:10042000F4BCF6BCF4BCE49CC84CD02CD02CC84C1A
:10043000E79CF03C88240820383038303830383099
:100440003830383039303BB03FF03FF000008004A6
:10045000F21415F0CADFB8CCF0D699E8AEA4DFEEFE
:10046000E8F21D1E08F21C08F21A1B08F071460182
:10047000F046464A01F219F051F218F05A8DF0C0D8
:10048000DAEEAEF0C8B8A5F1302924F0B599E1A4B0
:10049000BDF21415F0CBEEAEBDF218F05A8DF21687
:1004A00017F21415F0CBEEAEBDF21617F0BCCA9ED3
:1004B000E0BDF21415F21213F21011F20C0DF094CB
:1004C000F20E0FF0A2D8DFCBE1EEACDCE8F20AF0DE
:1004D0008CF20BF04A8DF209F08DF097C59BBDF2BE
:1004E0000708F21F20F2040506F097DEEED5F0664D
:1004F0008081F22122F0CBABEEF0AEA4DFEEE8F08B
:10050000A8E8BDE2EEE0F0B499D3EEF200010203F8
:10051000F0CCDFB0B8BD5361766500466C69700001
:100520004D61696E2053637265656E004A500045E7
:100530004E00434E00594553004E4F004F4E004F62
:10054000464600496E666F73004269670050494431
:1005500000446972656374005361766500426F6F91
:100560007374004F666600536C6565700053617666
:100570006500426F6F737400536C6565700044656D
:100580006661756C74005361766500416464004473
:10059000656C6574650052656E616D650043616CE4
:1005A000696272617465004368616E6765005265D7
:1005B0007475726E0041626F7574004C616E6700F5
:1005C0004C6F636B004C4F5720566F6C00526F742A
:1005D0006172790042757A7A65720053637265655B
:1005E0006E00436F6E74726F6C0054696D657200BB
:1005F00054656D70005469700000000000000F1D0C
:10060000C20800054442080003845FBF000FE444B1
:1006100010000115451000054CC97F8009244F903A
:100620000007C4C11000054D413F0005544381003F
:1006300007C44D0200054441140005554108000758
:10064000C881040000000000000000000000010854
:100650003FFE001FFF810000004002000007FE0F68
:10066000F8000402080800040208880007FE088851
:10067000000402088800040208880007FE088800B9
:100680000402094800040202300007FE040C0004C2
:10069000021804000000000000000000000007FE37
:1006A00013FE000402084000040208400004020196
:1006B000FC000402388400040208840007FE0FFFD7
:1006C000000402080000040209FE000402090200FE
:1006D00004020B020004020D020007FE09FE0004E2
:1006E00002010200000000000000000000000110F4
:1006F0000080001FFF80800001103FFF00004004C9
:10070000080007FC0408000444041000044402101C
:100710000004440220001FFF812000004000C000B0
:1007200000A00130000110020800060C0C070018A0
:1007300003B00200000000000000000000000040C4
:1007400000800000400080000FFF3FFF00084104D0
:100750000800084104080008410410000841021084
:10076000000FFF0220000841012000004000C000EF
:100770000040013000004002080000400C0700006B
:1007800040300200000000000000000000001FDFF9
:1007900010200002120C20000224042000047F809C
:1007A00020000424B820000FA488500014BF8850F3
:1007B0000004A488500004A488480004BF8888006E
:1007C00004A48A880007A48C8400044489070000DC
:1007D00081860200000000000000000000000FF011
:1007E0000491000440025200047F90540004508899
:1007F000FF0007D08481000451008100044901FFFB
:100800000007CA0281000444048100044A1CFF005E
:1008100007EA0481000C510481000061C4850000D6
:10082000408082000000000000000000000007FF80
:10083000802000008407FF0000840401000084047D
:10084000010000840401000FFFC7FF0000840400C2
:10085000000084040000008405FF000084050100FE
:1008600001040901000104090100020411FF000450
:1008700004010100000000000000000000000082F0
:1008800004FF00004402010007FF90210000101047
:100890002100001017FD0000101021000FFFD06193
:1008A00000001010A10000281121000028122100D2
:1008B0000044142100008210A1000301D045000C67
:1008C000009002000000000000000000000008444A
:1008D00010FE00042810920005FF22920000103C38
:1008E000920000100892001CFE109200041020FEDE
:1008F0000004103E920005FF809200041000920058
:1009000005100E92000610309200041000FE000048
:10091000100082000000000000000000000007DF5F
:100920008840000A24104000114210FE00040022FA
:10093000820002FF3D020008010A420009F910325C
:1009400000090920120009F93E020009090002000D
:1009500009090E020009F9302200080500140008F8
:1009600002000800000000000000000000000FC3AB
:10097000F1E0000FE3F1F8000C70C19E000C30C1F3
:1009800086000C30C183000C30C183000C60C18331
:10099000000C60C183000FC0C183000FC0C186007E
:1009A0000C00C186000C00C198000C03F1F8000C8B
:1009B00003F1E00000000000000000000000002043
:1009C0000820000FFF09FC00002008000000203E66
:1009D000880003FE08500002020BFE0003FE0C40DC
:1009E00000020218400003FE2BFE0002020848002D
:1009F00003FE088800020208500002022830001F8F
:100A0000FF91CC0000000000000104047C0000887D
:100A10000444000FFF3F4400002004440000200C69
:100A2000440000200E44001FFF95440000201444A1
:100A30000000502444000050044400008804450095
:100A4000010404850006038503001801040000006A
:100A50000000000000000000000000000000047E14
:100A600021FC0004421104001F7E090400044221FD
:100A7000FC000542110400067E1104000C0005FC78
:100A80000015FF880000040813FE000448325200DD
:100A9000044F125200044812520014A812520009C6
:100AA0001F97FF000000000000000000000002107F
:100AB0003DFC000210250400041025040005FFBDC4
:100AC000FC000C102520000C38252000143825FED1
:100AD0000004543D20000454251000049225100009
:100AE0000511A5090006113D4500041025830004E9
:100AF00010010100000000000000000000001FC8FD
:100B0000102000124A0C20001AC9042000174800C7
:100B100020001FFFB8200002080850001FC808501E
:100B200000020808500003C80848001E1408880086
:100B300001540A880015220C840014438907000020
:100B400081060200000000000002FE010000028297
:100B50003FFF00048202000004FE0200000C1004AB
:100B6000FC00141004080005FF8C10000410141081
:100B700000043825FF00043404100004520410005F
:100B8000049184100005100450000410042000009B
:100B90000000000000000000000000000000020350
:100BA0000010001FDC3EFE00089002120005100439
:100BB000FF001FDF84120002120CFE001FD2021081
:100BC00000021222FE000A921410000A52141000B1
:100BD00012220DFF0002220810000A421410000425
:100BE0000223FF00000000000000000000000F785A
:100BF000BC20000948A45000094AA85000094AA88E
:100C00008800094AB104001FFEAAFB00094AA4207B
:100C100000094AA42000094AA7FE00094AB420009E
:100C20000948A924000B48A22200088AA4A20011A6
:100C3000192040000000000000000000000000201B
:100C4000008000005001FC00008801040001040342
:100C5000080006FB0490000800C0600007DF018068
:100C600000045106000004511BFE00045102020062
:100C700007D90202000456020200001003FE000021
:100C80001002020000000000000000000000020846
:100C9000209000027F9890001F8009FF000222012F
:100CA000100006218B100007628DFE000AA20910B9
:100CB000000A14111000121431FE00020811100075
:100CC00002141110000222111000024391FF0002D1
:100CD000811100000000000000000000000010076B
:100CE00000000008F83FFE00048020020000802081
:100CF000020000BE23E2001C8222220004A4222261
:100D00000004942222000488222200049423E2009A
:100D1000052220020005422002000A003FFE0011C9
:100D2000FFA00200000000000000000000000082A0
:100D30000FFE00004400400007FF8040000010004C
:100D40004000001000400000101FFF800FFFC04057
:100D50000000100040000028004000002800400073
:100D6000004400400000820040000301C140000C2C
:100D700000808000000000000009FF004000042007
:100D80003FFF00042000000000FE0000001C420F96
:100D9000FC00044200000007FF80000004000FFC7C
:100DA0000004FF000000048100000005810FFC002A
:100DB000068108040004FF08040000810FFC000005
:100DC00000000000000000000000000000000040E3
:100DD0001F7E001FFF84020010808442000A4A0424
:100DE00042000A3108420012C50F42000304197F75
:100DF000001DF82901000040090100084209FD001A
:100E0000084209010008420F01000FFE0905000019
:100E100002000200000000000000000000000100CD
:100E20000FFE00010008200003FF08200002010857
:100E30002000042208200008200BFE0010200820BB
:100E400000005008280000500824000088082200F4
:100E5000008810200001041020000203A7FF000CEE
:100E60000100000000000000000008000000021F58
:100E700088FE001FD00E22000420302200045F8074
:100E8000220007849E220004850822000494082280
:100E900000049428FE0004971E42000494084200B7
:100EA00008940842000AAC0A420011440C420000B7
:100EB0008389FF00000000000000000000000040E7
:100EC0000080001FFF9FFC0000400410000FFF0285
:100ED000200000003FFF000FFE00000008420FF856
:100EE0000008420808000FFE08080008020FF8007A
:100EF0000800080800080008080008000FF80010A3
:100F0000000808000000000000000000000007FECC
:100F10000FF8000402000000040200000007FE00B9
:100F2000000004023FFE00040200800007FE008073
:100F300000009004900008910C8800069310860031
:100F40000294208200009000800000900280001F28
:100F5000FF810000000000000000000000000410FD
:100F600012020005FF9FD20005009212001E28A267
:100F7000120004443FF20004820212000600021232
:100F8000000CFE1FD2001410125200041012420076
:100F90000410134200041012820015FF820A000898
:100FA000000204000000000000000000000000201B
:100FB00000000000203E04001FFFA204001000A259
:100FC000FF0000012204000FFE22040000403E4406
:100FD0000000402224000440222400047C2204005B
:100FE00004402204000A403E04000940222400106C
:100FF000FF8014000000000800000000000010FE48
:1010000008200008820BFF0004820A010010FE3C49
:1010100051000882088800088209040002FE0C00C2
:1010200000040019FC0009FF2820001929082000ED
:101030000929082000092908200009292BFF000B95
:10104000FF900000000000000000000000001F7F73
:1010500090F80001080888000A10088800047F0141
:1010600007001FC13A0000054909FC000449088433
:101070000004490888000449084800044908500051
:1010800004490A200004160C58001421898700081E
:10109000C086020000000000001FE03FF0703860D2
:1010A0001860186018FFFCFCFCFCFCFCFCF87CF8E9
:1010B0007CFCFC7FF81E1033382D7C25382D38251C
:1010C000382D386D80DEC0BF40BF40DEC061803F3C
:1010D000007FF0FFE0C008C01CC038C870DCE4CF5F
:1010E000CCC78CC30CC00CC00CFFFC7FF800000602
:1010F000000C0018F838F030307060707878F878AC
:10110000003C023F0C1FF80FF003C000007FF8FF07
:10111000FCC00CC30CCB4CDB6CDB6CD86CDCECCFB8
:10112000CCC78CC00CFFFC7FF8030007800FC00CFD
:10113000C01CE01CE03CF03CF07FF87FF8FCFCFCBD
:10114000FCFFFC7FF81140820021208FE023FC820D
:10115000004A23E200FE209FF013F880802220C086
:10116000804221BFF0FBFA88800220848002208424
:10117000801A208080E3FE8280020101000F421F5E
:10118000C0784110400840904008421FC0084110FC
:1011900040FFFD104008405FC00840800008413F0C
:1011A000E00843252010412520104125202041251D
:1011B0002040417FF07FF84880020049000201FF93
:1011C000F00201001002027F202200410023F07F84
:1011D00000220008002200FF802200888022008870
:1011E0008022008A8022008900FFFC080023F21F71
:1011F000C022111040FBF0904022121FC02A111093
:101200004033F1104060005FC0AFFC800020413FE0
:10121000E0224325202279252022412520A54125B1
:101220002048FD7FF01083DFC010825040208250A4
:10123000402FFFDFC06082520061C25200A1C25F36
:10124000E022A3D20022A2510024925100288E5005
:1012500090308BD45020825830208010101040479E
:10126000C017FC44402003F44023F844406208C403
:1012700040A3F8E440200154402FFD444028064498
:101280004023F844402040445020404850214050E2
:10129000302080400020921FC03DF9904020909067
:1012A0004040901FC07BFF0000A0013FE021F902F9
:1012B00000FD09020021097FF021F90500210945FF
:1012C000002909888031F910702108202030303041
:1012D0000075407755757740403E4A5E2B5E4A6BFD
:1012E000627F352F357F7C5B5E247B0E3A047E0166
:1012F0007E4A5E69063A2F3F6B7E46403F41497FFA
:10130000494102626B6B6B62026A6B147D577D1000
:10131000413F55553D5751213F2D7F2A122E0A77C7
:101320005A505A770A2024137D5553707A2A7B022B
:101330001A437A4A525E2B5E424A415F353F555FFF
:10134000417D14577D0E407F7F1B54167D165449F6
:101350003A407E575676423F427E7E427E047E5120
:10136000377D3750127A1752761E127F557F145DE3
:101370007F557F557F7F553D577F55377817457F80
:101380007F2B7B287B2B7F1E12127F12121E7F4128
:101390006B7F6B517F525A573A575A52007F4949D7
:1013A00049497F22122A7F2A1222166A5E735662E8
:1013B000160937315F155F7542221E0B4A7A027E8D
:1013C000023A2B3A427E00000000002F0003000387
:1013D0003F123F163F1A120824323D2A0201000034
:1013E0003E41413E000A070A083E08402000080826
:1013F000080020001008041C2A1C243E20322A2445
:10140000222A1418143E2E2A121C2A12023A0614FA
:101410002A14242A1C002400402400081422141436
:101420001422140802290612291E3E093E3F251ADD
:101430001E21213F211E3F25213F05011E21393F4D
:10144000083F213F2110201F3F043B3F20203F0643
:101450003F3F013E1E211E3F09061E215E3F093609
:10146000222519013F013F203F3F100F3F183F3316
:101470000C33033C03312D23007F41153E15417F82
:101480000002010240404000010218243C3F2418A1
:1014900018242418243F182C2C043F0548543C3FA2
:1014A0000438003D00403D003F0834013F003C1C33
:1014B000383C04381824187C241818247C3C080470
:1014C000283C14043E243C203C3C100C3C303C2482
:1014D00018244C503C24342C083641007F004136FF
:1014E000080101011028101F010120203E102000DA
:1014F00000080025150F241C0C103804180C38287F
:10150000382828183C083C18283820242C3C2C2C3F
:101510001C040808211D07083C0306231E223E2246
:10152000120A3F320F3E0A3F0A24130E271E0222E0
:10153000223E27120F2525102119273F222E211682
:101540000F241B0E251F0526261E251D053F0408FA
:10155000241F04202222251927123B1620100F3C9D
:10156000013E1F242421110F0C031C1A3F1A0919D4
:1015700027222A2A382730320C13053F25023F0E36
:10158000213F2025253F25251D07201F3C3F203FCB
:1015900020103E223E23110F2121180100010205D7
:1015A00002000000000000000020400000000000D9
:1015B000002050200000000000503000000000001B
:1015C000006060000000000000000018180000002B
:1015D0000000003636000000000000563600000013
:1015E0000000020151090906000000005F00000030
:1015F00000000000007F41410041417F00000000E9
:10160000000000003F010101004040407E0000005A
:101610000000003F213D05070070505E427E000043
:1016200000000000007F63410041637F0000000074
:10163000000808087F0808080008080808080808C3
:10164000004444445F4444440041221408142241AD
:10165000000808082A0808080014141414141414A4
:10166000001434141C141614000808141414222234
:101670000022221414140808000205023C424224ED
:1016800000002B2C782C2B000000242A7A2F2A1201
:1016900000001C62322E23140020545E254142209B
:1016A00000422512082452210020623E633E23029C
:1016B0000020564955225840000022147F14220071
:1016C000001C2259554D120C0000004A55552900A6
:1016D0000004643C173C64040004643C1F3C640444
:1016E000001C22414141221C001C3E7F7F7F3E1C8A
:1016F000001C225D555D221C0008142241221408A2
:1017000000081C3E7F3E1C08007F41414141417F53
:10171000007F7F7F7F7F7F7F0040704C434C704015
:101720000040707C7F7C704000010719611907013F
:101730000001071F7F1F0701004922144914224995
:10174000000505057D05050500080808082A1C0890
:1017500000081C2A08080808000004027F02040090
:10176000000010207F20100000003E414141413E1A
:10177000000000427F40000000006251514949468C
:1017800000002241494949360000302824227F20A8
:1017900000002F454545453900003E494949493239
:1017A0000000010161190503000036494949493625
:1017B000000026494949493E000020547E34146007
:1017C0000020527F2A1A4A3000003C4020041800B2
:1017D000001E2040200204180000104A4A2A10006F
:1017E00000000845454525180000482A3A4A4000AF
:1017F00000004425153D45400000247E145024007F
:101800000022527F0A484A340044344F44380418B6
:101810000044344F4439041900002A5A4B4E5A08E8
:1018200000002A5A4B4E5B080000081414224100A5
:101830000000081414224504003F0004443F04043F
:10184000003F0004443F0405000020524242424051
:1018500000002052424342410000245444475C04AB
:101860000000245444475C050000003F40404020F5
:101870000000003F404140210002020A563F0202A0
:101880000002020A563F02030004043F44545F442E
:101890000004043F44545F45000008093D4B4908DB
:1018A000000008093D4B490A00423A0722544444CB
:1018B00000423A0722554445000002124E4B4A327C
:1018C000000002124E4B4A3300001010484830000E
:1018D000000404022222221C000404022223221DEE
:1018E000000002021A254341000002021A25434566
:1018F00000002057484844440000205748494445C8
:1019000000120A2752503A24007F002052424240DF
:1019100000304E38540F64780024147F0422523C67
:10192000001824124E422418007F002454543F44CF
:10193000007F002454543F45007F002454563D4608
:1019400000023A4740413E0400023A4740413E050A
:1019500000023A4740433D06004030404D3210609F
:10196000004030404D321161004030404D32156230
:1019700000080402040810100008040204091011F1
:1019800000080402040A1512007F006A6A7E2A4ACF
:10199000007F006A6A7F2A4B007F006A6A7E2D4AB8
:1019A00000006A6A6A7F2A4A0030291D4B483C10B1
:1019B00000122A7F4240422400304E38540F4438EF
:1019C00000000A3E4B4A4A300000080E3846140810
:1019D0000004071C62030A0400001C483E2418008F
:1019E000001E04523F12120C00002050503E4800CE
:1019F00000002050503F244400001C51494A483008
:101A000000000F4241211E00000010696D4B49305B
:101A10000024147F04023E40000010494D4B493021
:101A2000000028187E0844380024147F0442423CF9
:101A3000003049251F2454380040282557352840B8
:101A400000100A2E5B724A480040300C33404020A0
:101A5000000004443C140C00000001413D09050352
:101A6000000020201078040000001010087C020103
:101A7000000018484C281800000006424322120EAD
:101A80000000404878484000002022223E222220C8
:101A900000002828587C0800002222124A7F0202F7
:101AA000000042221F02427E000042221F02427FAB
:101AB000000012121F721210000012121F72131077
:101AC000000008444322120E000008444322120F73
:101AD00000080742221E020200080742221F0203DA
:101AE000000042424242427E000042424243427F64
:101AF0000002024F42221F020002024F42231E0335
:101B00000000454A4020100C0000454A4021100DBD
:101B100000404222221A264000404222221B264137
:101B20000004043F4444544C0004043F4445544DD5
:101B3000000001464020100F000001464020110F18
:101B4000000008444B2A120E000008444B2A120FD2
:101B500000080A4A3E09090800080A4A3E0908091D
:101B6000000018405820180000020C424C20100EB3
:101B700000020C424C21100D000405453D050504F2
:101B8000000405453D0504050000007F080810001D
:101B90000000007F08091001000444241F0404040D
:101BA0000020222222222220004041251519270050
:101BB000002022127B06122000404020100807005F
:101BC0000040300E00020C700040300E00020D711B
:101BD0000040300E00020D7200003F484848444467
:101BE00000003F484849444500003F48484A4546B0
:101BF000000002424222120E000002424223120F53
:101C0000000002424222150E0008040204081020BF
:101C1000000804020409102100080402040A152225
:101C2000002414447F041424002414447F05142544
:101C3000002414447F0615220002021222520A06D2
:101C400000002125294A42000040704C43502040AA
:101C50000040442414083700000008093F4949485F
:101C60000000101C680818000004040F74020A0623
:101C7000000040484878400000202222223E2020D8
:101C80000000004454547C000000424A4A4A4A7E04
:101C9000000004454525150C00000F4040201F00A2
:101CA0000040201E007F20100000007F4020100810
:101CB00000007E424242427E00000C4444241C004C
:101CC000000006424222120E0010121E12127F1253
:101CD000002022223A262220000001454525150F2A
:101CE000000041424020100C000006424322120F27
:101CF000000048281C4878000000100C48380800F4
:101D0000000804040810100800080000080000087B
:101D10000004080808080808000808080808080857
:101D200008060505070604070903030504090A0850
:101D30000303030603050303050503060404050561
:101D4000040504040304090503F505F005EA05E2AA
:101D500005DB05D405CD05C505C005BB05B505AE3C
:101D600005A7059D0596058F058B0586057E0578DB
:101D70000572056D05670563055D05580551054D3F
:101D800005490543053F053C053905350532052F55
:101D9000052C0520051B0516053E0053656C656383
:101DA00074205469700000000000003E5B4F5B3EF1
:101DB0003E6B4F6B3E1C3E7C3E1C183C7E3C181C10
:101DC000577D571C1C5E7F5E1C00183C1800FFE707
:101DD000C3E7FF0018241800FFE7DBE7FF30483AAD
:101DE000060E2629792926407F050507407F05250F
:101DF0003F5A3CE73C5A7F3E1C1C08081C1C3E7F97
:101E000014227F22145F5F005F5F06097F017F005D
:101E10006689956A606060606094A2FFA29408047D
:101E20007E040810207E201008082A1C08081C2A9E
:101E300008081E101010100C1E0C1E0C30383E38F6
:101E400030060E3E0E06000000000000005F00009D
:101E50000007000700147F147F14242A7F2A12230E
:101E60001308646236495620500008070300001C1E
:101E70002241000041221C002A1C7F1C2A08083E27
:101E8000080800807030000808080808000060603A
:101E90000020100804023E5149453E00427F4000A8
:101EA00072494949462141494D331814127F102780
:101EB000454545393C4A49493141211109073649CF
:101EC000494936464949291E0000140000004034A3
:101ED00000000008142241141414141400412214A8
:101EE0000802015909063E415D594E7C1211127CCF
:101EF0007F494949363E414141227F4141413E7F30
:101F0000494949417F090909013E414151737F080F
:101F100008087F00417F41002040413F017F0814B5
:101F200022417F404040407F021C027F7F04081016
:101F30007F3E4141413E7F090909063E4151215EF4
:101F40007F09192946264949493203017F01033F88
:101F50004040403F1F2040201F3F4038403F631417
:101F600008146303047804036159494D43007F4119
:101F700041410204081020004141417F0402010256
:101F8000044040404040000307080020545478407B
:101F90007F284444383844444428384444287F380F
:101FA0005454541800087E090218A4A49C787F0891
:101FB00004047800447D40002040403D007F10280C
:101FC000440000417F40007C047804787C080404CD
:101FD000783844444438FC1824241818242418FC65
:101FE0007C08040408485454542404043F44243C0A
:101FF0004040207C1C2040201C3C4030403C442879
:102000001028444C9090907C4464544C4400083612
:102010004100000077000000413608000201020480
:10202000023C2623263C1EA1A161123A4040207AA0
:1020300038545455592155557941215454784121EA
:102040005554784020545579400C1E52721239551F
:10205000555559395454545939555454580000451C
:102060007C410002457D420001457C40F029242945
:10207000F0F0282528F07C545545002054547C5419
:102080007C0A097F4932494949323248484832324C
:102090004A4848303A4141217A3A42402078009DEE
:1020A000A0A07D39444444393D4040403D3C24FF9C
:1020B0002424487E4943662B2FFC2F2BFF0929F649
:1020C00020C0887E090320545479410000447D419A
:1020D0003048484A32384040227A007A0A0A727DF3
:1020E0000D19317D2629292F28262929292630480E
:1020F0004D4020380808080808080808382F10C87C
:10210000ACBA2F102834FA00007B000008142A14FF
:102110002222142A14089500220095AA005500AA2C
:10212000AA55AA55AA000000FF00101010FF0014C5
:102130001414FF001010FF00FF1010F010F0141422
:1021400014FC001414F700FF0000FF00FF1414F447
:1021500004FC141417101F10101F101F1414141F48
:1021600000101010F0000000001F101010101F10C1
:10217000101010F010000000FF10101010101010C0
:102180001010FF10000000FF140000FF00FF00000F
:102190001F10170000FC04F414141710171414F483
:1021A00004F40000FF00F714141414141414F700BE
:1021B000F7141414171410101F101F141414F4140F
:1021C0001010F010F000001F101F0000001F14007E
:1021D0000000FC140000F010F01010FF10FF1414A9
:1021E00014FF141010101F00000000F010FFFFFF7C
:1021F000FFFFF0F0F0F0F0FFFFFF0000000000FF35
:10220000FF0F0F0F0F0F38444438447C2A2A3E1426
:102210007E02020606027E027E0263554941633851
:1022200044443C04407E201E2006027E020299A502
:10223000E7A5991C2A492A1C4C7201724C304A4D60
:102240004D303048784830BC625A463D3E49494995
:10225000007E0101017E2A2A2A2A2A44445F44443E
:1022600040514A444040444A51400000FF0103E0CD
:1022700080FF000008086B6B083612362436060F04
:10228000090F06000018180000001010003040FF71
:102290000101001F01011E00191D1712003C3C3CEA
:1022A0003C000000000000000000240027002A007D
:1022B00000000000250028002B0000000000230083
:1022C0002600290004040404040404040202020297
:1022D00002020303030303030102040810204080E9
:1022E0000102040810200102040810200000000868
:1022F00000020100000304070000000000000000CD
:10230000AED5F0A83FD300408D14A1C8DA1281CF1A
:10231000D9F1DB40A4A6AF200021007F22000750A6
:102320006C656173652077616974004144433A20AC
:102330000074656D703A2000536574206D6561739B
:102340007572656400537465703A20002B002D008F
:102350004D4F44452000FFFFFFFFFFFF80038670C5
:1023600080038003867080039FF3E1309FF39FF327
:10237000E1309FF3983301CC9833983301CC9833F4
:10238000983387C098339833E1C098339833E1C0CD
:1023900098339FF398C09FF39FF398C09FF38003F7
:1023A00066CC8003800366CC8003FFFF010CFFFF37
:1023B000FFFF01001FFF810061301F3F873CE6FCEB
:1023C0008733873CE6FC87F3F8039E0F1F03F8036F
:1023D0009E0F1F03E13CFE0C07CFE13CFE0C07CF34
:1023E00099033E3086C3E6CF380F9EF3E6CF380F11
:1023F0009EF39E0327CC81039E0327CC8103E0FF3D
:10240000E10CE6CFE0FFE10CE6CF9803060000FF09
:102410009803060000FFFFFF1EF0F80380036630FC
:1024200099C38003663099C39FF3010CF8FF9FF3B3
:10243000010CF8FF9833393C01CF9833393C01CF78
:102440009833FF0C793F98333ECCE0F398333ECC81
:10245000E0F39FF33E0098CF9FF33E0098CF8003B8
:102460003E30E7C380033E30E7C3FFFFFFFFFFFFBF
:10247000FFFFFFFFFFFF76312E3874340056000F48
:10248000E01FC01FC03F803FF87FF07FE007C0071C
:10249000800F000E001C0018001000560014A03F12
:1024A000F07FF8E01C6E18EC1C68186018E01C60E7
:1024B00058E01C7FF83FF014A043004552524F52A1
:1024C00000484F4C44004845415400574F524B5927
:1024D00000424F4F535400534C454550004F464621
:1024E0000000003BEC7BEE63E663E663E663E663D5
:1024F000E663E663666226600660067FFE3FFC00D8
:102500000025004300202070F8010204081020403C
:102510008000522A11241FBECFEFD8E0DEBFCDBF0E
:1025200012E0A0E0B1E0E8E6FBE702C005900D9202
:10253000A83CB107D9F728E0A8ECB2E001C01D9291
:10254000A931B207E1F712E1CAE8D2E104C021974C
:10255000FE010E94933DC938D107C9F70E94072B9D
:102560000C94B23D0C9400004F925F926F927F9258
:102570008F929F92AF92BF92CF92DF92EF92FF9293
:102580000F931F93CF93DF9300D000D0CDB7DEB76A
:102590004B015C0129013A016701780120E030E03C
:1025A000A9010E94CE3887FDA6C020E030E0A90135
:1025B000C301B2010E94CE3887FD9DC020E030E00B
:1025C000A901C801B6010E94CE3887FD94C081E000
:1025D0002091E3073091E4072130310509F080E0D4
:1025E000809304088092C9079092CA07A092CB07F3
:1025F000B092CC074092CD075092CE076092CF07A1
:102600007092D007C092D107D092D207E092D30740
:10261000F092D4076091F7077091F8078091F9075D
:102620009091FA070E94D33820E030E04AE754E462
:102630000E94DD3A69837A838B839C838092D507DD
:102640009092D607A092D707B092D8079B01AC0111
:10265000C301B2010E9434392B013C014092D907D9
:102660005092DA076092DB077092DC0729813A8189
:102670004B815C81C701B6010E94DD3A6B017C0190
:10268000C092DD07D092DE07E092DF07F092E0070C
:102690008091E1079091E207019769F5A501940106
:1026A00060E070E0CB010E946B3A6093D5077093B5
:1026B000D6078093D7079093D807A301920160E0D3
:1026C00070E0CB010E946B3A6093D9077093DA07F0
:1026D0008093DB079093DC07A701960160E070E030
:1026E000CB010E946B3A6093DD077093DE07809305
:1026F000DF079093E0070F900F900F900F90DF91FE
:10270000CF911F910F91FF90EF90DF90CF90BF90EE
:10271000AF909F908F907F906F905F904F900895B3
:1027200080389105B0F46034710598F4E9E0F5E281
:1027300090E1969FD001A0781124A80F6770E60F52
:10274000F11D9491A05EBC4F442321F08C91982BF5
:102750009C93089590958C919823FACFDF92EF92F5
:10276000FF920F931F93CF93DF937C01D22E8B01A7
:10277000040F111DEB0177FF02C0D0E0C0E0C801DB
:102780000134110514F080E490E0C817D9073CF437
:102790004D2DBE01C7010E9490132196F0CFDF910D
:1027A000CF911F910F91FF90EF90DF900895CF92FE
:1027B000DF92EF92FF920F931F93CF93DF936B0102
:1027C000122FEC017C01E40EF11CCE15DF0544F460
:1027D000202F412FB601CE010E94AE132196F5CFD6
:1027E000DF91CF911F910F91FF90EF90DF90CF90ED
:1027F00008952F923F924F925F926F927F928F92A5
:102800009F92AF92BF92CF92DF92EF92FF920F937F
:102810001F93CF93DF9300D01F92CDB7DEB7C22EA8
:10282000D12C9601280F391F37FD4FC080389105F4
:102830000CF04BC0E9824A017B013C01402E512C37
:10284000160127E0220E311C93E0359427949A95C7
:10285000E1F78B01B12CA12C1B821A82EA81FB814A
:1028600083E0F595E7958A95E1F7EA0DFB1DE80D04
:10287000F91DE4918A819B818770992720E830E0D7
:1028800002C0359527958A95E2F7C901F0E0E22369
:10289000F923EF2B41F04981B8018A819B81860D94
:1028A000971D0E9490138A819B8101969B838A8346
:1028B0008C159D059CF2A20CB31C0F5F1F4FC80125
:1028C0008E199F09841595053CF20F900F900F907B
:1028D000DF91CF911F910F91FF90EF90DF90CF90FC
:1028E000BF90AF909F908F907F906F905F904F9030
:1028F0003F902F9008950F931F93CF93DF93EC0198
:102900008B0140E001960E94901340E0B801CE0197
:1029100001970E949013B8016F5F7F4F40E0CE0196
:102920000E949013B8016150710940E0CE010E94ED
:10293000901340E0B801CE01DF91CF911F910F912C
:102940000C9490132F923F924F925F926F927F92CE
:102950008F929F92AF92BF92CF92DF92EF92FF92AF
:102960000F931F93CF93DF93C82FD0E081E090E0C7
:102970004C018C1A9D0A442455244C1A5D0A440CBF
:10298000551C7E0188E1E80EF11C40E0B70188E1AA
:1029900090E00E94901308E110E00C1B1D0B40E03A
:1029A000B80188E190E00E94901340E068E170E097
:1029B000C7010E94901340E068E170E0C8010E94E6
:1029C000901322242394312C712C612C97FC06C087
:1029D000219782E0480E511C840C951C8FEF681AD9
:1029E000780A82E0280E311C820C931C530188E186
:1029F000A80EB11C40E07E0188E1E80EF11CB70191
:102A0000C5010E94901388E1C82ED12CC618D708A2
:102A100040E0B701C6010E94901340E008E110E0D9
:102A20000C1B1D0BB801C5010E94901340E0B801BA
:102A3000C6010E94901340E0B501C7010E949013A7
:102A400040E0B501C8010E94901340E0B601C70103
:102A50000E94901340E0B601C8010E9490136C16CA
:102A60007D060CF4B3CFDF91CF911F910F91FF90B2
:102A7000EF90DF90CF90BF90AF909F908F907F901E
:102A80006F905F904F903F902F90089580E0E0E22C
:102A9000F3E081118FEF00248193819381938193DF
:102AA0000394D1F7E5E0F8E01786168615861486BC
:102AB00008956F927F928F929F92AF92BF92CF9222
:102AC000DF92EF92FF920F931F93CF93DF938038A3
:102AD00091050CF057C0603471050CF053C07B01B8
:102AE00037E0E322FF2433E0759567953A95E1F7E7
:102AF000DB01B695BA2FAA27B795A7955D01C0E867
:102B0000AC0EB11CA80EB91EA80FB91FA05EBC4F19
:102B100000E810E0081B190B90E080E0E8E0F0E02E
:102B20004F018E189F0830E0FA01E80FF91FC49199
:102B30007D906D01D1E0CD1AD1080E2C01C0CC0FD3
:102B40000A94EAF77C2AE6017882E114F10499F00C
:102B50006730710581F0E491EC01CA0DDB1DC05EA8
:102B6000DC4FF0E0082C02C0F595E7950A94E2F7F7
:102B7000F881EF2BE8830196821793071CF408175E
:102B8000190791F6DF91CF911F910F91FF90EF9070
:102B9000DF90CF90BF90AF909F908F907F906F907D
:102BA0000895AF92BF92CF92DF92EF92FF920F9370
:102BB0001F93CF93DF936C017B018B01040F151FD3
:102BC000EB015E01AE18BF08C017D10759F069913B
:102BD000D601ED91FC910190F081E02DC60109959F
:102BE000892B79F7C501DF91CF911F910F91FF904C
:102BF000EF90DF90CF90BF90AF900895FC01538D80
:102C0000448D252F30E0842F90E0821B930B5417C6
:102C100010F0CF96089501970895FC01918D828D53
:102C2000981761F0A28DAE0FBF2FB11D5D968C91EC
:102C3000928D9F5F9F73928F90E008958FEF9FEF2B
:102C40000895FC01918D828D981731F0828DE80FE7
:102C5000F11D858D90E008958FEF9FEF0895FC01A1
:102C6000918D228D892F90E0805C9F4F821B91096E
:102C70008F739927089580E297E00E942F1621E034
:102C8000892B09F420E0822F089580E090E0892BC1
:102C900029F00E943B1681110C9400000895FC015C
:102CA000A48DA80FB92FB11DA35ABF4F2C91848DAD
:102CB00090E001968F739927848FA689B7892C930A
:102CC000A089B1898C91837080648C93938D848D5D
:102CD000981306C00288F389E02D80818F7D808360
:102CE0000895EF92FF920F931F93CF93DF93EC0120
:102CF00081E0888F9B8D8C8D98131AC0E889F989A3
:102D0000808185FF15C09FB7F894EE89FF896083A5
:102D1000E889F98980818370806480839FBF81E026
:102D200090E0DF91CF911F910F91FF90EF90089568
:102D3000F62E0B8D10E00F5F1F4F0F731127E02E43
:102D40008C8D8E110CC00FB607FCFACFE889F9897B
:102D5000808185FFF5CFCE010E944F16F1CFEB8D1C
:102D6000EC0FFD2FF11DE35AFF4FF0829FB7F8944F
:102D70000B8FEA89FB8980818062CFCFCF93DF936D
:102D8000EC01888D8823B9F0AA89BB89E889F98983
:102D90008C9185FD03C0808186FD0DC00FB607FCB8
:102DA000F7CF8C9185FFF2CF808185FFEDCFCE01EB
:102DB0000E944F16E9CFDF91CF910895833081F0C3
:102DC00028F4813099F08230A9F008958730A9F075
:102DD0008830C9F08430B1F4809180008F7D03C0C9
:102DE000809180008F7780938000089584B58F77DD
:102DF00084BD089584B58F7DFBCF8091B0008F771F
:102E00008093B00008958091B0008F7DF9CFCF936B
:102E1000DF93282F30E0F901E451FD4D8491F90151
:102E2000E852FD4DD491F901EC53FD4DC491CC23F2
:102E3000A1F081110E94DE16EC2FF0E0EE0FFF1FD3
:102E4000E654FD4DA591B491EC91ED2381E090E025
:102E500009F480E0DF91CF91089580E090E0FACF0F
:102E60001F93CF93DF93282F30E0F901E451FD4DFC
:102E70008491F901E852FD4DD491F901EC53FD4DD7
:102E8000C491CC23A9F0162F81110E94DE16EC2FDD
:102E9000F0E0EE0FFF1FE055FD4DA591B4918FB707
:102EA000F894EC91111108C0D095DE23DC938FBF0C
:102EB000DF91CF911F910895DE2BF8CFCF93DF9351
:102EC00090E0FC01E852FD4D24918C539D4DFC0196
:102ED00084918823C9F090E0880F991FFC01EA557E
:102EE000FD4DA591B491FC01E055FD4DC591D491E6
:102EF00061110DC09FB7F8948C91209582238C931B
:102F00008881282328839FBFDF91CF910895623065
:102F100051F49FB7F8943C91822F809583238C9332
:102F2000E8812E2BEFCF8FB7F894EC912E2B2C93BA
:102F30008FBFEACF1F93CF93DF93182FEB0161E090
:102F40000E945E17209739F460E0812FDF91CF91C6
:102F50001F910C943017CF3FD10511F461E0F5CFEC
:102F6000E12FF0E0E451FD4DE491E33031F140F424
:102F7000E130B1F0E230E1F0C038D1057CF7E4CFC8
:102F8000E73029F1E83059F1E430B1F78091800061
:102F9000806280938000D0938B00C0938A0004C02D
:102FA00084B5806884BDC7BDDF91CF911F9108951E
:102FB00084B5806284BDC8BDF7CF809180008068F1
:102FC00080938000D0938900C0938800EDCF8091DA
:102FD000B00080688093B000C093B300E5CF8091CB
:102FE000B00080628093B000C093B400DDCF3FB7E3
:102FF000F8948091E8029091E902A091EA02B091E0
:10300000EB0226B5A89B05C02F3F19F00196A11D24
:10301000B11D3FBFBA2FA92F982F8827BC01CD0122
:10302000620F711D811D911D42E0660F771F881F81
:10303000991F4A95D1F708958F929F92AF92BF92B0
:10304000CF92DF92EF92FF924B015C010E94F71743
:103050006B017C010E94F7176C197D098E099F098D
:10306000683E734081059105A8F321E0821A91081A
:10307000A108B10888EEC80E83E0D81EE11CF11C3F
:1030800081149104A104B10429F7FF90EF90DF901F
:10309000CF90BF90AF909F908F9008952FB7F894E6
:1030A0006091E4027091E5028091E6029091E7025E
:1030B0002FBF089584E98093BC008091BC0084FDFB
:1030C000FCCF08958093BB0084E88093BC0080917E
:1030D000BC0087FFFCCF089584EA8093BC008091F8
:1030E000BC0087FFFCCF88E70C9462180E946C1824
:1030F00080E48093BB0084E88093BC00E0E2F3E0CE
:103100009091BC0097FFFCCF91919093BB0080936E
:10311000BC0097E0E032F90799F78091BC0087FF87
:10312000FCCF0C945A18CF93C82F0E946C1880E0E3
:103130000E9462188C2F0E946218CF910C945A182A
:10314000480F592F511D14161506D4F580389105D6
:10315000BCF597FF02C090E080E04138510514F0C3
:1031600040E850E0481BFB0177FD379633E0F595CA
:10317000E7953A95E1F7F695FE2FEE27F795E79557
:10318000E80FF91FE05EFC4F6770772781E090E061
:1031900001C0880F6A95EAF7382F213041F4415079
:1031A00078F08191DF011197832B8C93F8CF809574
:1031B000415030F09191DF01119798239C93F8CF03
:1031C0000895CF92DF92EF92FF920F93CF93DF9308
:1031D0006C017B01C42FD22F202F0E94A018B701B1
:1031E0006D0F711D61507109603471052CF4202F31
:1031F0004C2FC6010E94A018202F4D2FB701C601E9
:103200000E94AE13C6018C0F911D202F4D2FB701C8
:103210000197DF91CF910F91FF90EF90DF90CF90CA
:103220000C94AE132F923F924F925F926F927F92C7
:103230008F929F92AF92BF92CF92DF92EF92FF92C6
:103240000F931F93CF93DF93CDB7DEB72A970FB6B7
:10325000F894DEBF0FBECDBF9A8389836A3061F5D3
:10326000DC0152968C91B8E08B9F90011124E9818A
:10327000FA8186859785820F931F978786871586A3
:10328000148681E090E02A960FB6F894DEBF0FBE58
:10329000CDBFDF91CF911F910F91FF90EF90DF9005
:1032A000CF90BF90AF909F908F907F906F905F90E6
:1032B0004F903F902F9008956D3019F329813A81F6
:1032C0003A872987D9011C96AD90BC90B0E8AB161F
:1032D000B1040CF07BC0F901C684D784F0E4CF16AA
:1032E000D1040CF073C0D90152966C90529745E00E
:1032F0009501649E200D311D1124121613060CF049
:1033000065C0262C312C910153E0220F331F5A95B2
:10331000E1F72C0D3D1D121613060CF057C0519607
:10332000BC91BB83E985FA85F089FC83649FB00179
:1033300011249B012A55324E3A832983712CE9814D
:10334000FA818491F5E07F1201C080E0460138E007
:10335000532E282F30E03E832D834C8080FF4B80FE
:10336000411004C03B818C813817E1F010E000E08F
:103370000615C0F4D501A00FB11FB887AF83F12C9B
:10338000E12CE61460F4B701680D791D442D8F819E
:1033900098850E949013BFEFEB1AFB0AF2CF0F5FE4
:1033A0001F4FE6CF8D819E81959587955A94820C0B
:1033B000931C5110CECF7394E981FA813196FA8330
:1033C000E983A20CB31CF6E07F12B9CFA985BA85B8
:1033D00052962C915297422F50E01C968D919C91C1
:1033E000B6E02B9F800D911D1124E985FA85958704
:1033F00084872389222309F444CF6AEF6403900170
:10340000659F300D112420583F4F281739070CF0C5
:1034100038CFDF010190F081E02D0190F081E02DA7
:103420006AE0CD0109952DCF682F85E098E00C94D6
:1034300012190F931F93CF93DF938C01D0E0C0E05C
:10344000F801EC0FFD1F6491662341F085E098E0E0
:103450000E941219892B11F02196F2CFCE01DF9133
:10346000CF911F910F910895089590E080E0089505
:1034700080917A00806980937A008EE480937C004A
:1034800061E070E080E090E00E941C1883B7817FCB
:10349000826083BF80E130E020E093B7916093BF0A
:1034A000889593B79E7F93BF90917A0096FDFCCF4D
:1034B0004091780050917900240F351F815069F7B1
:1034C00080917A008F7780937A0084E036952795F3
:1034D0008A95E1F750E040E064EB7BE281E190E027
:1034E0000E94083AC901089580917A00806980930A
:1034F0007A0088EC80937C006AE070E080E090E0E5
:103500000E941C1883B7817F826083BF80E270E0D5
:1035100060E093B7916093BF889593B79E7F93BF08
:1035200090917A0096FDFCCF20917800309179003F
:10353000620F731F815069F780917A008F778093B3
:103540007A00769567957695679562527A4090E015
:1035500080E00E94D33826EF38E24CE151E40E942B
:10356000DD3A089590917A00906990937A008E5098
:10357000806480937C0083B7817F826083BF20E278
:1035800090E080E033B7316033BF889533B73E7F3A
:1035900033BF30917A0036FDFCCF409178005091D6
:1035A0007900840F951F215069F720917A002F77B9
:1035B00020937A0025E0969587952A95E1F708955E
:1035C0008FE00E94B21AA091EF02B091F0029C012C
:1035D0000E945C3A0E94D53828E539E743E353E47A
:1035E0000E94DD3A0E94563BCB0108958091F9027A
:1035F000882369F086E00E940717892B41F06AE072
:1036000070E080E090E00E941C181092F90208958A
:103610006F927F928F929F92AF92BF92CF92DF92E2
:10362000EF92FF920F93CF93DF937C01C62F01E0BF
:1036300020E340E370E060E00E94D713570123E0ED
:10364000A20EB11C00E02AE24AE263E070E0C5018C
:103650000E94D71370E060E0C7010E947B146701ED
:103660003FE2C30ED11C70E060E0C6010E947B14F3
:103670006FE270E0C7010E947B146FE270E0C60148
:103680000E947B14EC2FF0E0EE0FFF1FE257FE4F7D
:103690008080918053E0E52EF12CD12CC12C60E884
:1036A000662E712CD0E0C0E0FE0133E0F595E79581
:1036B0003A95E1F7EC0DFD1DE80DF91DE491CE0101
:1036C00087709927930102C0359527958A95E2F76F
:1036D000C901F0E0E223F923EF2B69F0CE01880F56
:1036E000991F8C0F9D1F01E023E043E0B7018A0D75
:1036F0009B1D0E94D7132196CE30D105A9F632E04A
:10370000C30ED11C83E0E80EF11C2DE2E216F10499
:1037100049F6DF91CF910F91FF90EF90DF90CF901E
:10372000BF90AF909F908F907F906F900895880F7B
:10373000991F9093E0028093DF02660F771F7093CA
:10374000DE026093DD028091F602882359F05093E7
:10375000E2024093E102220F331F309305032093CE
:1037600004030895519541955109F1CF0F931F938B
:10377000CF9380914D01882399F0CFEF0FEE11E0A8
:1037800061E085E00E943017C8010197F1F760E021
:1037900085E00E943017C8010197F1F7C15081F709
:1037A000CF911F910F9108958F929F92AF92BF92E8
:1037B000CF92DF92EF92FF920F931F93CF93DF93FD
:1037C000D12CC12CF12CE12CD6E032E0932E40E339
:1037D000A42EB12C8E2C86E00E94071721E0892BA5
:1037E00009F020E02093F90221E430E041E050E0CC
:1037F00060E670E08FE190E00E94971B80910403E7
:103800009091050395958795C82F8F31B9F52FE5D0
:1038100030E041E050E060E670E08FE190E00E942F
:10382000971BCFE50E94461590921708D092120878
:10383000C0921108B0921408A09213088EE50E945D
:10384000141A109212081092110880E290E09093DE
:1038500014088093130810E000E00815E8F4809144
:103860001A03F801D89FE00DF11D1124E25BFE4F11
:1038700080810E94141A0F5F1F4FEFCF803691F6A0
:1038800020E230E041E050E060E670E08FE190E05F
:103890000E94971BC0E2C6CFD0921208C0921108B6
:1038A00080E290E090931408809313088C2F0E947C
:1038B000141A0E94F61A0E94761886E00E940717D2
:1038C000892B09F09BCF8091F902811197CF00914C
:1038D0001A03D09F80011124025B1E4FF801EE0DE8
:1038E000FF1DC0830E94B61B6AE070E080E090E09C
:1038F0000E941C188FEFE81AF80AE0E1CE0ED11CE6
:10390000F5E0EF16F10409F065CFF8011582DF91BB
:10391000CF911F910F91FF90EF90DF90CF90BF90CC
:10392000AF909F908F9008953F924F925F926F92C9
:103930007F928F929F92AF92BF92CF92DF92EF923F
:10394000FF920F931F93CF93DF93CDB7DEB72E97E0
:103950000FB6F894DEBF0FBECDBF80911D03882344
:1039600009F4ABC11092BD071092BE071092BF07B9
:103970001092C0078090BD079090BE07A090BF072F
:10398000B090C007C0900D03D0900E03E0900F03DD
:10399000F0901003A7019601C501B4010E946B3A93
:1039A0002B013C0120E030E0A9010E94C43B181625
:1039B0000CF0A6C1C301B2010E94563B80914801A0
:1039C000882309F4BEC1C092C507D092C607E09211
:1039D000C707F092C807E12CF12C00EA10E420E0C0
:1039E00030E040E450E46E31710540F0E12CF12C00
:1039F00000E81FE320E030E040E05FE360E070E0DB
:103A000080E391E40E94B41280910308882309F4B2
:103A10002AC10E944E186D837E838F839887809180
:103A2000EB079091EC07A091ED07B091EE074D8167
:103A30005E816F817885481B590B6A0B7B0B8091E7
:103A4000F7079091F807A091F907B091FA07481786
:103A500059076A077B0708F406C1E091E507F09172
:103A6000E60780819181A281B38189839A83AB83A8
:103A7000BC83E091E907F091EA079C01AD01608108
:103A80007181828193810E946B3A4B015C0120918C
:103A9000F3073091F4074091F5075091F6076981DB
:103AA0007A818B819C810E946B3A6B017C01209111
:103AB000D9073091DA074091DB075091DC07C50147
:103AC000B4010E9434392091EF073091F007409102
:103AD000F1075091F2070E946C3A2B013C01409291
:103AE000EF075092F0076092F1077092F207309062
:103AF000040831101AC02091D5073091D6074091A3
:103B0000D7075091D807C701B6010E9434399B01ED
:103B1000AC01C301B2010E946B3A6093EF0770934E
:103B2000F0078093F1079093F2074090EF075090D1
:103B3000F0076090F1077090F2071091FF079091E5
:103B400000089E87A0910108AD8700910208212FEF
:103B5000392F4A2F502FC301B2010E94C43B1816BF
:103B60000CF0D2C0812F9E85AD85B02F8093EF07DA
:103B70009093F007A093F107B093F207332009F474
:103B8000DCC02091D5073091D6074091D7075091DE
:103B9000D807C501B4010E9434394B015C01209162
:103BA000DD073091DE074091DF075091E007C70144
:103BB000B6010E9434399B01AC016091EF0770910E
:103BC000F0078091F1079091F2070E946B3AA501EE
:103BD00094010E946C3A6B017C019B01AC01612F46
:103BE0007E858D85902F0E94CE3887FD18C010915C
:103BF000FB079091FC079E87A091FD07AD87009180
:103C0000FE07212F392F4A2F502FB601C7010E94DE
:103C1000CE3887FD04C01C2DDE86ED860F2DE09189
:103C2000E707F091E807812F9E85AD85B02F80834F
:103C30009183A283B38389819A81AB81BC81809374
:103C4000F3079093F407A093F507B093F6078D81DF
:103C50009E81AF81B8858093EB079093EC07A0938A
:103C6000ED07B093EE072091C1073091C207409154
:103C7000C3075091C40760E070E08FE793E40E94AF
:103C80006B3A0E944F3B89E02E960FB6F894DEBF48
:103C90000FBECDBFDF91CF911F910F91FF90EF909D
:103CA000DF90CF90BF90AF909F908F907F906F905C
:103CB0005F904F903F900C949A1780911C036091F5
:103CC00044017091450181110EC080910B039091C8
:103CD0000C0320911B03BC01222329F060914301B6
:103CE000680F792F711D90E080E00E94D3386093B7
:103CF000BD077093BE078093BF079093C0073ACE6D
:103D0000C301B201905858CE8091FB079091FC07F7
:103D1000A091FD07B091FE0789879A87AB87BC8782
:103D20009C01AD01C301B2010E94CE3887FF26CFAE
:103D300089859A85AB85BC8519CF812C912C54013E
:103D40002ECF20E030E040E05FE3C701B6010E94E3
:103D50006C3A9B01AC01C501B4010E94C43B18162A
:103D60004CF41092C1071092C2071092C307109230
:103D7000C40779CF80E090E0AFE7B3E48093C10758
:103D80009093C207A093C307B093C4076CCF4F9220
:103D90005F926F927F928F929F92AF92BF92CF92DB
:103DA000DF92EF92FF92CF93DF938090F102909099
:103DB000F202A090F302B090F402C0911A03D0E096
:103DC000C501B4010E944F3B6B017C0120E030E053
:103DD00048E453E4C501B4010E94CE3893E0CC0F0F
:103DE000DD1F9A95E1F7CE5FDE4F87FF31C0288156
:103DF000398150E040E02551310941095109C7019D
:103E0000B6010E946F3D28EC30E040E050E00E9497
:103E1000083ACA01B9016B5E7F4F8F4F9F4F0E94D6
:103E2000D53860930D0370930E0380930F03909326
:103E30001003DF91CF91FF90EF90DF90CF90BF9074
:103E4000AF909F908F907F906F905F904F9008956C
:103E50004A805B80712C612C20E030E04CE853E418
:103E6000C501B4010E94CE3887FF1FC088809980A9
:103E7000B12CA12CA7019601285C310941095109F7
:103E8000C301B201681979098A099B090E946F3D33
:103E900020E530E040E050E00E94083ACA01B90154
:103EA000680D791D8A1D9B1DBACF2C813D8150E084
:103EB00040E02419350946095709C701B601685180
:103EC0007140810991090E946F3D20E530E040E09A
:103ED00050E00E94083ACA01B901640D751D861DA3
:103EE000971D9DCFFC0101900020E9F73197AF01AC
:103EF000481B590BBC0185E098E00C94D1158F92BA
:103F00009F92AF92BF920F931F93CF93DF93CDB742
:103F1000DEB7A1970FB6F894DEBF0FBECDBF19A2D2
:103F2000423008F44AE08E010F5D1F4F842E912C21
:103F3000B12CA12CA50194010E943A3AE62FB901B7
:103F4000CA01EA30F4F4E05DD801EE938D01232B31
:103F5000242B252B79F790E080E0109719F0CD0104
:103F60000E94721FA1960FB6F894DEBF0FBECDBFA0
:103F7000DF91CF911F910F91BF90AF909F908F9045
:103F80000895E95CE1CFCF92DF92EF92FF92CF9359
:103F9000DF936C01990FEE08FF08F7FE17C08DE262
:103FA0000E94141AEC0166277727CB016C197D0952
:103FB0008E099F094AE00E947F1F8C0F9D1FDF9191
:103FC000CF91FF90EF90DF90CF9008954AE0C70126
:103FD000B601DF91CF91FF90EF90DF90CF900C94DE
:103FE0007F1F0F9329E330E03093120820931108CC
:103FF00022E130E0309314082093130824E020934A
:10400000170820911E0330911F03253F314078F09F
:104010008DEC92E10E94191A00E020E248E460E190
:1040200070E087E390E00E94E1180F9108950E94EC
:10403000C31FF2CF4F925F926F927F928F929F92A7
:10404000AF92BF92CF92DF92EF92FF920F931F93A6
:10405000CF936B017C01742EAC019B010E94213C2B
:10406000882399F088EB92E0CF911F910F91FF90F8
:10407000EF90DF90CF90BF90AF909F908F907F9008
:104080006F905F904F900C94721F46015701E89417
:10409000B7F82FEF3FEF4FE75FE7C501B4010E948C
:1040A000213C81110DC02FEF3FEF4FE75FE7C501C6
:1040B000B4010E94CE3818161CF48CEB92E0D4CFD9
:1040C0002FEF3FEF4FE75FE4C701B6010E94C43B0B
:1040D00018161CF480EC92E0C7CF2FEF3FEF4FE7AC
:1040E0005FECC701B6010E94CE3887FDF3CF20E018
:1040F00030E0A901C701B6010E94CE3810E000E00F
:1041000087FF08C08DE20E94141A8C01F7FAF09420
:10411000F7F8F094C0E060E070E080E09FE37C1688
:1041200041F020E030E040E251E40E94DD3ACF5F10
:10413000F6CFA70196010E946C3A2B013C010E9428
:10414000563B4B015C014AE00E947F1F7C01E00E60
:10415000F11ECC23B1F1C501B4010E94D3389B01FB
:10416000AC01C301B2010E946B3A4B015C018EE2CB
:104170000E94141AE80EF91EC15018F120E030E038
:1041800040E251E4C501B4010E9434392B013C01E5
:104190000E94563B4B01B12CA12C4AE0C501B40151
:1041A0000E947F1FE80EF91EC501B4010E94D3389A
:1041B0009B01AC01C301B2010E946B3A4B015C014F
:1041C000DBCFC701CF911F910F91FF90EF90DF9050
:1041D000CF90BF90AF909F908F907F906F905F90A7
:1041E0004F900895CF92DF92EF92FF920F93CF936B
:1041F000DF9381E0809316081092150880931708CA
:1042000000E02EE046E661E370E081E090E00E948D
:10421000E11820911E0330911F03253F81E03807EC
:10422000B8F4A4E6B0E00E945C3A24EF31E040E04C
:1042300050E00E94083ABA01A9014E5F5F4F6F4FEC
:104240007F4F2EE061E370E081E090E00E94D713A1
:104250006091BD077091BE078091BF079091C00724
:104260000E944F3B9B01AC01A4E6B0E00E94273ABC
:1042700034EFC32EDD24D394E12CF12CA701960159
:104280000E94083ADA01C9010296A11DB11D0297E8
:1042900000E02DE043E062E370E00E94D7136091FC
:1042A000BD077091BE078091BF079091C0070E9423
:1042B0004F3B9B01AC01A4E6B0E00E94273AA70166
:1042C00096010E94083ADA01C9010296A11DB11DAA
:1042D000039724E045E06CE370E00E94D7136091FF
:1042E000BD077091BE078091BF079091C0070E94E3
:1042F0004F3B9B01AC01A4E6B0E00E94273AA70126
:1043000096010E94083A2E5F3F4F4F4F5F4F790151
:1043100081E0E81AF108C1E3D0E041E0BE01C70145
:104320000E9490132196CD33D105B9F76091BD0756
:104330007091BE078091BF079091C0070E944F3BCC
:104340009B01AC01A4E6B0E00E94273A24EF31E0E3
:1043500040E050E00E94083ADA01C9010296A11D2E
:10436000B11D0397EE24E39404E025E045E055E217
:104370006BE370E00E94F91300E02EE047E161E397
:1043800070E088E690E00E94E1186091C1077091AA
:10439000C2078091C3079091C4070E944F3B9B01C5
:1043A000AC012F5F310941095109A7E1B0E00E943A
:1043B000273ACC24C394DD24DA94ED2CFD2CA701FC
:1043C00096010E94083A422F2EE061E370E088E6F1
:1043D00090E00E94D7131092160881E08093150890
:1043E00082E090E09093120880931108C7E3D0E038
:1043F000D0931408C09313086091BD077091BE0755
:104400008091BF079091C00740E00E941A2088EF7A
:104410000E94141A83E095E20E94191A89E690E03E
:104420009093120880931108D0931408C093130836
:104430006091C1077091C2078091C3079091C40732
:104440000E944F3B9B01AC012F5F3109410951098B
:10445000A4E6B0E00E94273AA70196010E94083A1C
:1044600069017A014AE0C701B601F7FE0BC08DE28F
:104470000E94141A66277727CB016C197D098E09D3
:104480009F094AE00E947F1F81E095E20E94191A6D
:1044900081E08093160810921508DF91CF910F915B
:1044A000FF90EF90DF90CF9008956F927F928F9260
:1044B0009F92AF92BF92CF92DF92EF92FF920F93B3
:1044C0001F93CF93DF93B0901A0377247394B110A6
:1044D00001C0712C2B2D30E0609142016150770BAF
:1044E00041E050E090E080E00E94971B86E00E944F
:1044F000071721E0892B09F020E02093F902FF241F
:10450000F39472E0972EE6E08E2EFCE0CF2ED12CB5
:104510000E944615C0910403D0910503D595C79517
:10452000EC2E8E011127C801870D911D77FC9A95FD
:104530008B199109712C97FD06C08330910514F0F9
:1045400082E090E0782EF092160810921508909272
:104550001708109212081092110810921408109265
:1045600013088BE99DE10E94191A10921608F09227
:1045700015081092120810921108A72C072C000C95
:10458000BB08C501019654E0880F991F5A95E1F7C1
:10459000909314088093130889E99DE10E94191AE9
:1045A0006C2E671890E080E098012A193B095901A8
:1045B000209142018C010F5F1F4F6216D0F4D09200
:1045C0001208C0921108980144E0220F331F4A9547
:1045D000E1F730931408209313088A0D9B1D889EE1
:1045E0009001899E300D1124C901825B9E4F0E946B
:1045F000721FC801639403301105D1F60E94F61AA8
:104600000E94761886E00E940717892BB9F48091E2
:10461000F902811113C00E94B61BE0921A03DF91C8
:10462000CF911F910F91FF90EF90DF90CF90BF90AF
:10463000AF909F908F907F906F900895BC2E68CF21
:104640000E94AD3D1F93CF93DF93EC01162F0E9484
:10465000F239181739F0612FCE01DF91CF911F91F8
:104660000C94FA39DF91CF911F910895AF92BF92C8
:10467000CF92DF92EF92FF920F931F93CF93DF932E
:104680006091470182E090E00E9422236091460100
:1046900083E090E00E9422236091450184E090E055
:1046A0000E9422236091440185E090E00E94222331
:1046B0006091430186E090E00E94222360914B01CB
:1046C00087E090E00E94222360914A0188E090E018
:1046D0000E9422236091490189E090E00E942223F8
:1046E00060917E018AE090E00E942223609148015F
:1046F0008BE090E00E94222360914D018CE090E0DD
:104700000E94222360911A038DE090E00E942223F0
:10471000609142018EE090E00E9422236091190393
:104720008FE090E00E9422236091F50280E190E00A
:104730000E9422236091160381E190E00E942223CF
:104740006091F80282E190E00E9422236091F702DA
:1047500083E190E00E9422236091F60284E190E0E0
:104760000E94222385E1E82EF12C10E006E08091E2
:1047700042011817B8F5109F60011124D0E0C0E085
:10478000FE01EC0DFD1DE25BFE4F6081C7018C0F49
:104790009D1F0E9422232196C630D10589F767010B
:1047A00086E0C80ED11C88E0189FE0011124CE5F7E
:1047B000DE4F8EE0E80EF11C69812296C6010E9450
:1047C0002223560182E0A80EB11CFE0132976081BF
:1047D000C60101960E9422236501AE14BF0461F751
:1047E0001F5FC5CFDF91CF911F910F91FF90EF9089
:1047F000DF90CF90BF90AF9008958F929F92AF922D
:10480000BF92CF92DF92EF92FF92CF9370E060E081
:1048100089E00E949A178BEA94E00197F1F78EE005
:104820000E94B21A7C018AE00E9407179091C80288
:10483000981729F091E0909311038093C80280911A
:1048400001019FEF980F90930101811106C00E9412
:10485000E01A90931803809317032091C1073091B9
:10486000C2074091C3075091C40760E070E08FE732
:1048700093E40E946B3A0E944F3B89E00E949A1792
:104880008090F1029090F202A090F302B090F402B6
:10489000B70190E080E00E94D338A50194010E9406
:1048A0006B3A2DEC3CEC4CE45DE30E943439A501FD
:1048B00094010E946C3A6093F1027093F20280932B
:1048C000F3029093F4020E94C71E60911E03709140
:1048D0001F0390E080E00E94D3384B015C01C09040
:1048E000BD07D090BE07E090BF07F090C007A701BA
:1048F00096010E94CE38811151C020910D03309154
:104900000E0340910F0350911003C501B4010E94A2
:104910006B3A4B015C0120E030E0A9010E94C43BEE
:10492000181694F520E030E040EA50E4C501B401E7
:104930000E94C43B181694F160911E0370911F03EE
:1049400090E080E00E94D338A70196010E946B3A64
:104950004B015C0120E030E0A9010E94C43B181625
:1049600064F520E030E040E85FE3C501B4010E9457
:10497000CE38181664F1C701B6010E94563B7093F9
:104980001F0360931E0323C020E030E040EA50EC98
:10499000C501B4010E94CE3887FFCECF60910D03D0
:1049A00070910E0380910F03909110030E94563B6B
:1049B00070931F0360931E03BFCF20E030E040E8F8
:1049C0005FEBC501B4010E94C43B87FFD4CF609167
:1049D0000B0370910C0390E080E00E94D33820918B
:1049E0000D0330910E0340910F03509110030E946C
:1049F0006B3A6B017C0120E030E0A9010E94C43BCE
:104A000018160CF05FC0C701B6010E94563B653016
:104A1000710508F05BC080917F01811105C0809114
:104A20004C0181110E94B61B81E080937F0110929E
:104A30004C0180911E0390911F03853F21E0920756
:104A400010F01092000120910001211145C0843F17
:104A5000914008F041C070E060E089E00E949A1740
:104A60000E94B61BC1E0C09300010E9455220E9423
:104A70003623C09311038EE00E94B21ABC0190E06D
:104A800080E00E94D3386093F1027093F202809329
:104A9000F3029093F4021092030320910B033091E0
:104AA0000C034AE050E060E971E086E990E0CF91C4
:104AB000FF90EF90DF90CF90BF90AF909F908F903E
:104AC0000C94971BC701B60190589FCF10927F019D
:104AD00081E080934C01ADCFCF91FF90EF90DF90BC
:104AE000CF90BF90AF909F908F9008950C94F23923
:104AF0004F925F926F927F928F929F92AF92BF92EE
:104B0000CF92DF92EF92FF920F931F93CF93DF9399
:104B1000CDB7DEB72B970FB6F894DEBF0FBECDBF73
:104B200090911903E82FF0E09F01220F331F91119C
:104B300026C0F901E25DFD4F40815181EE24E394EE
:104B400000E124E260E370E080E390E00E94F9136A
:104B50002B960FB6F894DEBF0FBECDBFDF91CF917D
:104B60001F910F91FF90EF90DF90CF90BF90AF908B
:104B70009F908F907F906F905F904F9008959230AC
:104B800009F079C0EF5DF24E4490F901E252FE4F18
:104B9000A080B180F12CE12C04E310E393E0592EC6
:104BA00027E0622EE414A0F6F501EE0DFF1D4491FE
:104BB00080E1840F833008F45CC081EF7816D1F077
:104BC00082EF7816C1F1403F90F4193710F0085F7A
:104BD00010E088E0489FA00111244F555A4E602FE5
:104BE00070E028E0812F90E00E945915185F80EF57
:104BF000782E1DC04E39D8F41D3710F0085F10E034
:104C0000C02ED12C812E912C459DA00111244953F9
:104C10005C4E23E0B601C4010E94591521E046EC28
:104C200053E1B601C40103960E9459151C5F8FEF32
:104C3000E81AF80AB7CF4332D0F7193710F0085FF7
:104C400010E0C02ED12C812E912C469DA001112464
:104C50004F525D4E27E0B601C4010E94591521E074
:104C600046EC53E1B601C40107960E945915185F3E
:104C7000DECF742EDCCF80E390E090931208809317
:104C8000110884E390E0909314088093130881E066
:104C900080931708F901E75BF24E65917491CE019C
:104CA00001960E94C738CE0101960E94721F50CF14
:104CB0002F923F924F925F926F927F928F929F922C
:104CC000AF92BF92CF92DF92EF92FF920F931F931A
:104CD000CF93DF9300D01F92CDB7DEB7898386E0F4
:104CE0000E94071721E0892B09F020E02093F902A8
:104CF0005AE0252E312C0E94461500910403109194
:104D000005031595079526E02093170831E03093A9
:104D10001608109215086091DB027091DC02072ED4
:104D2000000C880B990B0E94D5384B015C0145EDB6
:104D3000C42E42E0D42E760182E090E09B838A83E9
:104D4000EA81FB81BF01FF0F880B990B0E94D538C8
:104D50009B01AC0160E070E080E291E40E94C93BFD
:104D60009B01AC01C501B4010E94DD3A0E944F3B9A
:104D7000CB01B1010E947F3DF701819391937F01A7
:104D80002A813B81215031093B832A832F3F3F4FAA
:104D9000B9F61093DC020093DB02E9ECF2E0FB834E
:104DA000EA8394E0E92EF12C22E0822E912CB401CA
:104DB000092C000C880B990B0E94D5389B01AC0183
:104DC00060E070E080E291E40E94C93B2B013C016D
:104DD0006091DB027091DC02072E000C880B990BAE
:104DE0000E94D538A30192010E94DD3A0E944F3BF8
:104DF000CB01B1010E947F3DF60120813181821BF0
:104E0000930BF2E3F89FB001F99F700D1124072E68
:104E1000000C880B990B0E94D538EA81FB81208118
:104E20003181428153810E946C3A2B013C0120E088
:104E300030E0A9010E94CE3881119BC0EA81FB813C
:104E4000408251826282738201E022E346E270E096
:104E500060E0C70104970E94D7138EECA82EBB24F4
:104E6000BA940FEF1FEFEA81FB81208131814281EB
:104E7000538160E070E080E890E40E946B3A2B017F
:104E80003C01B5010B2C000C880B990B0E94D53806
:104E90009B01AC01C301B2010E946C3A0E944F3BDE
:104EA000F0921208E09211087093140860931308AE
:104EB000F60180819181800F911F0E94C31F0F5FB7
:104EC0001F4FF2E3AF0EB11C0230110561F62A81CB
:104ED0003B812C5F3F4F3B832A8331E0831A91084B
:104EE00082E0C80ED11C9CE2E90EF11CE8E8EE1647
:104EF000F10409F05CCF00E022E040E870E060E0FF
:104F000090E080E00E94D71320E140E860E370E089
:104F100090E080E00E94D71389810E9478250E944A
:104F200076180E94F61A86E00E940717892B09F06E
:104F3000E2CE8091F9028111DECE0E94B61B8091F3
:104F4000DB029091DC020F900F900F90DF91CF91D8
:104F50001F910F91FF90EF90DF90CF90BF90AF9097
:104F60009F908F907F906F905F904F903F902F9089
:104F70000895C301B20190582DEC3CEC4CE45FE382
:104F80000E943439A30192010E946C3AEA81FB81AC
:104F9000608371838283938357CF9C0144E650E002
:104FA00064E873E090E080E00E94971B88E00E9434
:104FB0005826BC01665A7F4F9C014AE050E00E948F
:104FC000971B88E00E945826BC01675F7F4F9C01B9
:104FD00041E050E00E94971B88E00C9458262F92E5
:104FE0003F924F925F926F927F928F929F92AF9279
:104FF000BF92CF92DF92EF92FF920F931F93CF93C6
:10500000DF93D82E282F30E0E091FA02F0E0EC5741
:10501000FE4F60816150770B41E050E090E080E00E
:105020000E94971B86E00E94071721E0892B09F058
:1050300020E02093F9021092160881E08093150871
:1050400038E3632EE0900403F0900503F594E794B1
:10505000AE2C8701112798012D193109629EC001DC
:10506000639E900D1124C80FD91F209709F1662760
:1050700077276C1B7D0B072E000C880B990B0E9469
:10508000D5382AE939E949E15FE30E9434391B0147
:105090002C01BE01DD0F880B990B0E94D5389B01B6
:1050A000AC01C201B1010E946C3A0E944F3BEB017E
:1050B0000E944615025011094E0185E0B82E93E07A
:1050C000792E7A0CC090FA02D12C17FD20C0F6017F
:1050D000EC57FE4F808180171106C9F0C4F0E4E858
:1050E000F1E070E060E0CF01845891408C159D059F
:1050F00034F48191680F711DF6CFDE2CA3CF872D7C
:105100008B19680FC401885491090E94081BBA9436
:105110000F5F1F4F88E3880E911CB110D3CFE4E8D6
:10512000F1E090E080E09F01245831402C153D05CE
:1051300024F42191820F911DF6CF8E0D0E947825C7
:105140000E9476180E94F61A86E00E940717892BA3
:10515000A1F68091F9028111D0CF0E94B61B8A2D51
:10516000DF91CF911F910F91FF90EF90DF90CF9043
:10517000BF90AF909F908F907F906F905F904F9077
:105180003F902F9008951F920F920FB60F92112407
:105190002F933F934F935F936F937F938F939F933F
:1051A000AF93BF93EF93FF9380E297E00E944F1677
:1051B000FF91EF91BF91AF919F918F917F916F91EF
:1051C0005F914F913F912F910F900FBE0F901F90C5
:1051D00018951F920F920FB60F9211242F938F9351
:1051E0009F93EF93FF93E0913007F0913107808117
:1051F000E0913607F091370782FD1BC090818091C6
:1052000039078F5F8F7320913A07821741F0E09141
:105210003907F0E0E05EF84F958F80933907FF91F2
:10522000EF919F918F912F910F900FBE0F901F9034
:1052300018958081F4CF1F920F920FB60F92112410
:105240002F933F938F939F93AF93BF938091E402EB
:105250009091E502A091E602B091E7023091E3025D
:1052600023E0230F2D3758F50196A11DB11D209382
:10527000E3028093E4029093E502A093E602B093E8
:10528000E7028091E8029091E902A091EA02B091D0
:10529000EB020196A11DB11D8093E8029093E902F3
:1052A000A093EA02B093EB02BF91AF919F918F91CF
:1052B0003F912F910F900FBE0F901F90189526E8E9
:1052C000230F0296A11DB11DD2CF1F920F920FB6D0
:1052D0000F9211242F933F934F935F936F937F937C
:1052E0008F939F93EF93FF9383B1817029B1909136
:1052F000EE02981709F49DC030E0220F232F221FE1
:10530000330B922F8093EE024091ED02241709F4A3
:1053100090C02093ED022091E1023091E2029817B3
:1053200019F03195219531094091040350910503FD
:105330006091DF027091E002240F351F26173707B6
:105340000CF48BC02091E1023091E202981719F021
:1053500031952195310940910403509105036091E5
:10536000DD027091DE02240F351F621773070CF403
:105370006FC04091E1025091E202981719F05195E7
:10538000419551092091040330910503240F351FE5
:10539000309305032093040341E0981340E02091EB
:1053A000EC02421709F440C02091E1023091E20280
:1053B000981719F031952195310960910403709186
:1053C0000503E091DF02F091E002260F371F2E1750
:1053D0003F070CF44CC02091E1023091E202981793
:1053E00019F03195219531096091040370910503FD
:1053F000E091DD02F091DE02260F371FE217F3077E
:105400008CF12091E1023091E202981719F0319568
:10541000219531098091040390910503820F931F18
:1054200090930503809304034093EC0281E0809302
:105430001103FF91EF919F918F917F916F915F91F8
:105440004F913F912F910F900FBE0F901F90189585
:105450002091DD023091DE029BCF2091DF0230915E
:10546000E00296CF8091DD029091DE02D9CF80914B
:10547000DF029091E002D4CF18951F920F920FB6E1
:105480000F9211248F93EF93FF93E0E6F0E0808179
:1054900080648083FF91EF918F910F900FBE0F90EA
:1054A0001F9018950F931F93CF93DF93E0E2F7E0DF
:1054B0001382128288EE93E0A0E0B0E084839583AB
:1054C000A683B7838EE992E09183808385EC90E098
:1054D0009587848784EC90E09787868780EC90E0BE
:1054E000918B808B81EC90E0938B828B82EC90E0AF
:1054F000958B848B86EC90E0978B868B118E128E29
:10550000138E148EE5E0F8E0138212821682178261
:1055100080E1808715821482128680EB92E091836D
:105520008083158614861786168681E0808B118A03
:10553000828B138AC9ECD7E021EC37E03F8F2E8FA6
:1055400025EC37E03D8F2C8F2DEB37E039A328A3D6
:105550001AAE1AAA1BAA1CAA1DAA40E050E06FE7C7
:1055600073E44EAB5FAB68AF79AF44E650E060E008
:1055700070E04EA75FA768AB79AB21E030E0398FD0
:10558000288F3B8F2A8F8BAF80E090E0A0E3B1E4BF
:1055900088839983AA83BB8380E090E0A0E0BFE387
:1055A0008C839D83AE83BF8380E090E0A0E8BFE35F
:1055B00088879987AA87BB8780E090E0A0E3B1EC59
:1055C0008C879D87AE87BF878DEC9CECACE4BDEBF0
:1055D000888B998BAA8BBB8B80E090E0A0E2B1EC2A
:1055E0008C8B9D8BAE8BBF8B0E944E180EA51FA57A
:1055F00028A939A9601B710B820B930B6AA37BA3AB
:105600008CA39DA3DF91CF911F910F910895CF930C
:10561000DF93CDB7DEB7A5970FB6F894DEBF0FBE08
:10562000CDBF789484B5826084BD84B5816084BD2B
:1056300085B5826085BD85B5816085BD80916E0030
:10564000816080936E001092810080918100826061
:10565000809381008091810081608093810080919E
:1056600080008160809380008091B100846080938D
:10567000B1008091B00081608093B00080917A0089
:10568000846080937A0080917A00826080937A00AF
:1056900080917A00816080937A0080917A0080689E
:1056A00080937A001092C100A89584B7877F84BF49
:1056B0008091600088618093600087E18093600042
:1056C00080916000806480936000809160008860B9
:1056D000809360001092B90088E48093B8000E9423
:1056E0006C1880E00E94621800E013E2EFE1EE2EF9
:1056F000E3E2FE2EF80184910E9462180F5F1F4FB3
:10570000E016F106B9F70E945A1811E01093B8009C
:105710000E94761881E280930D0860E08EE00E947E
:105720005E1760E08FE00E945E1761E085E00E94F6
:105730005E1761E089E00E945E1762E087E00E94E8
:105740005E1762E088E00E945E1762E086E00E94D9
:105750005E1762E08AE00E945E1770E060E089E018
:105760000E949A1760E085E00E94301780917A00CD
:10577000876080937A0080917A00886080937A00B5
:10578000789410936B00109368001BBB90E080E04E
:105790000E947625182F81E090E00E947625912FB7
:1057A0008A30944109F0D3C082E090E00E947625CF
:1057B000182F83E090E00E947625912F9093470167
:1057C0008093460184E090E00E947625182F85E0C2
:1057D00090E00E947625912F90934501809344019B
:1057E00086E090E00E9476258093430187E090E078
:1057F0000E94762580934B0188E090E00E947625F8
:1058000080934A0189E090E00E94762580934901C7
:105810008AE090E00E94762580937E018BE090E004
:105820000E94762591E0811101C090E0909348019B
:105830008CE090E00E94762591E0811101C090E01B
:1058400090934D018DE090E00E94762580931A039D
:105850008EE090E00E947625282E809342018FE012
:1058600090E00E9476258093190380E190E00E94E9
:10587000762591E0811101C090E09093F50281E1DD
:1058800090E00E9476258093160382E190E00E94CA
:105890007625182F83E190E00E947625912F909332
:1058A000F8028093F70284E190E00E94762591E06F
:1058B000811101C090E09093F60252E0852E51E0F4
:1058C000952E6EE4A62E61E0B62E75E1E72EF12C42
:1058D000312C231409F447C010E000E0C701800F09
:1058E000911F0E947625F501E00FF11F80830F5F65
:1058F0001F4F0630110591F7670126E0C20ED11C3B
:105900003EE0E30EF11C3401C6010E947625082F0B
:1059100010E0102F0027F301118300832601F2E02D
:105920004F0E511CC60101960E947625082BF301EB
:10593000019311933F0162014E145F0429F73394E0
:10594000F8E08F0E911C26E0A20EB11CC2CF64E1DC
:1059500090E080E00E9422236AE081E090E00E94D3
:1059600022230E9436231091F50280EC111101C010
:1059700088EC0E94931880EA111101C081EA0E940C
:1059800093181092120380E28093130380E48093B3
:10599000140380E6809315038091F7029091F8023A
:1059A000892B19F10E94461568E088E290E00E9478
:1059B000081B88E00E9478250E94761868EE73E044
:1059C00080E090E00E941C180E94B61B0E94B61B4B
:1059D0000E94B61B90E080E00E94CD272091F70244
:1059E0003091F80282179307E9F60E94381A9093D3
:1059F000F0028093EF020E94E01A909318038093C4
:105A00001703009146011091470110930C03009376
:105A10000B038EE00E94B21ABC0190E080E00E946D
:105A2000D3386093F1027093F2028093F302909363
:105A3000F4020E94741A0E94C71E20E030E040EA7F
:105A400051E460910D0370910E0380910F039091CA
:105A500010030E946C3A6B017C01B80190E080E079
:105A60000E94D3389B01AC01C701B6010E94CE3819
:105A700087FF05C06FEF70E089E00E949A171092CF
:105A8000FB071092FC071092FD071092FE07412CB5
:105A9000512C3FE7632E33E4732E4092FF07509260
:105AA00000086092010870920208A090E707B09089
:105AB000E80780910308F501C080D180E280F3807F
:105AC000882311F40C94CD37A3019201C701B601CC
:105AD0000E94C43B181634F5F5014082518262825F
