:100000000C94EF0C0C94170D0C94170D0C94AF225C
:100010000C94170D0C94170D0C949A220C94170D38
:100020000C94170D0C94170D0C94170D0C94170DC0
:100030000C94170D0C94170D0C94170D0C94170DB0
:100040000C9450220C94170D0C94170D0C94170D52
:100050000C94170D0C9486230C94170D0C94170D0B
:100060000C94170D0C94170D05A84CCDB2D44EB9B5
:100070003836A9020C50B9918688083CA6AAAA2A4B
:10008000BE000000803F07634236B79BD8A71A39ED
:10009000685618AEBAAB558C1D3CB7CC5763BD6DD6
:1000A000EDFD753EF6177231BF000000803F08007D
:1000B0000000BE922449123EABAAAA2ABECDCCCCE7
:1000C0004C3E00000080BEABAAAAAA3E0000000081
:1000D000BF000000803F0000000000084178D3BB53
:1000E0004387D1133D190E3CC3BD4282AD2B3E6800
:1000F000EC8276BED98FE1A93E4C80EFFFBE01C4F1
:10010000FF7F3F0000000000800400003FF0383017
:1001100033103F90381033902790261030903FF0E6
:1001200000008004800400003FF03870303023105D
:10013000279020102010279027903FF00000800487
:10014000800400003FF03CF03CF02010249024900C
:1001500020103CF03CF03FF00000800480040000E0
:100160003FF037B023103030387038703030231003
:1001700037B03FF000008004FCF4F860E044C08C2D
:10018000C11CC22CC44CC88CD10CA204C4048FFC6A
:10019000187CBCFC8000BFF81FF8B0281FF8B4081A
:1001A0001FF8B1081FF8B048BFF8B288BFF8800048
:1001B0008000BFF81FF8B0081808B9E819B8B838B7
:1001C0001838B9B8B9F8B0F8BFF8800015543FF83E
:1001D00015503FF01550387010203104138C22A8B0
:1001E00017FC2AA80000000015543FFC15543FFCE2
:1001F00015543C0414043CFC14543CFC005400A86A
:1002000000000000800400003FF03CF034B0249077
:10021000249027902310303038703FF00000800485
:10022000FF7CFE7CFCECE8DCC84C984C8824082061
:1002300000000000000000008004E01CF3FCE7FC6C
:10024000CE0C8E1C9F9C1F3C1F0C0E0C0FFC87F8C5
:1002500081E4C00CE01CF87C0004580858085808D9
:1002600040087FF860185FE85B685FE85B681CE83F
:100270005FE80000800400003FF03CF03CF03CF000
:10028000201020103CF03CF03CF03FF000008004D7
:10029000F87CF7BC00007FF80000BFF4AB54AB540F
:1002A000AB54AB54AB54AB54BFF4C00CF03CCE0CCD
:1002B000BF04B30473007F007E007C007C007C6080
:1002C000BC64BE04CF0CF03C81DC559C2904550075
:1002D000299055D003FCFF002E002670025082703A
:1002E000E600EE04800C001C3FF43FE03FC4378C76
:1002F0002318303038703CF03FF03FF000008004AD
:10030000058074B857A876B80580F97C4694AAA8E9
:10031000F97C068874A8578C75740698F03CCE4C0E
:10032000BC34B814188010804230607860F844C043
:100330008004B884CFCCF03CE01CC00C8FC49FE498
:100340009FE49FE400000300030003000780078090
:1003500003008004F87CC00CC00CCFCCCFCCCFCC39
:10036000CFCCCFCCCFCCC84CC84CCFCCC00CC00C61
:10037000F87C8004BCF43FF03870B7B4B6B4B5B4C0
:10038000B7B438703FF0BCF48004F87CFCFCF87C17
:10039000E01CC00CC00CC00CC00CC00CC00C800415
:1003A0008004FFFCF87CFCFC8004000020001000AE
:1003B00008001000270000000000000000000000FE
:1003C00000008004C3FC18001800C3FCFFFCFF0CF5
:1003D00000600060FF0CFFFCF0FC06000600F0FC73
:1003E0008FC4102020104CC89FE43DF03DF01DE06C
:1003F0003EF03F709FE48CC400003030F87CF33C4A
:10040000F4BCF6BCF4BCF6BCF4BCE49CC84CD02CE8
:10041000D02CC84CE79CF03C882408203830383079
:10042000383038303830383039303BB03FF03FF07A
:100430000000800400000000000F1DC208000544F9
:1004400042080003845FBF000FE44410000115451B
:100450001000054CC97F8009244F900007C4C110CB
:1004600000054D413F00055443810007C44D020083
:100470000544411400055541080007C881040000E7
:1004800000000000000000000001083FFE001FFF08
:10049000810000004002000007FE0FF8000402087F
:1004A0000800040208880007FE0888000402088883
:1004B00000040208880007FE0888000402094800BA
:1004C000040202300007FE040C00040218040000BD
:1004D00000000000000000000007FE13FE00040200
:1004E0000840000402084000040201FC0004023835
:1004F0008400040208840007FE0FFF0004020800C5
:1005000000040209FE00040209020004020B0200BA
:1005100004020D020007FE09FE00040201020000B1
:1005200000000000000000000001100080001FFF1C
:1005300080800001103FFF00004004080007FC0419
:100540000800044404100004440210000444022083
:10055000001FFF812000004000C00000A00130000B
:100560000110020800060C0C07001803B00200007E
:10057000000000000000000000004000800000407B
:100580000080000FFF3FFF000841040800084104FD
:100590000800084104100008410210000FFF02206B
:1005A000000841012000004000C000004001300070
:1005B000004002080000400C07000040300200002C
:1005C0000000000000000000001FDF1020000212E9
:1005D0000C20000224042000047F8020000424B8A2
:1005E00020000FA488500014BF88500004A4885035
:1005F0000004A488480004BF88880004A48A8800F6
:1006000007A48C840004448907000081860200004E
:100610000000000000000000000FF0049100044002
:10062000025200047F905400045088FF0007D084D9
:1006300081000451008100044901FF0007CA0281C2
:10064000000444048100044A1CFF0007EA048100FE
:100650000C510481000061C48500004080820000CC
:1006600000000000000000000007FF802000008460
:1006700007FF0000840401000084040100008404DA
:1006800001000FFFC7FF0000840400000084040085
:1006900000008405FF000084050100010409010039
:1006A0000104090100020411FF000404010100001B
:1006B000000000000000000000008204FF00004471
:1006C00002010007FF902100001010210000101708
:1006D000FD0000101021000FFFD06100001010A1DC
:1006E00000002811210000281221000044142100DC
:1006F000008210A1000301D045000C009002000010
:10070000000000000000000000084410FE00042863
:1007100010920005FF22920000103C920000100889
:1007200092001CFE109200041020FE0004103E9265
:100730000005FF809200041000920005100E920048
:100740000610309200041000FE000010008200002D
:1007500000000000000000000007DF8840000A24BD
:10076000104000114210FE00040022820002FF3DF2
:10077000020008010A420009F9103200090920129A
:100780000009F93E0200090900020009090E0200F1
:1007900009F93022000805001400080200080000D2
:1007A0000000000000000000000FC3F1E0000FE3B4
:1007B000F1F8000C70C19E000C30C186000C30C1F5
:1007C00083000C30C183000C60C183000C60C183C6
:1007D000000FC0C183000FC0C186000C00C186009D
:1007E0000C00C198000C03F1F8000C03F1E00000CC
:1007F00000000000000000000000200820000FFFA3
:1008000009FC00002008000000203E880003FE08CC
:10081000500002020BFE0003FE0C400002021840D2
:100820000003FE2BFE00020208480003FE088800B9
:10083000020208500002022830001FFF91CC000085
:10084000000000000104047C0000880444000FFF45
:100850003F4400002004440000200C440000200E0F
:1008600044001FFF9544000020144400005024441D
:100870000000500444000088044500010404850081
:1008800006038503001801040000000000000000BA
:100890000000000002FE01000002823FFF0004820F
:1008A00002000004FE0200000C1004FC00141004FE
:1008B000080005FF8C10000410141000043825FFF8
:1008C0000004340410000452041000049184100049
:1008D0000510045000041004200000000000000077
:1008E000000000000000000000047E21FC00044223
:1008F0001104001F7E090400044221FC000542117E
:100900000400067E1104000C0005FC0015FF8800A1
:1009100000040813FE000448325200044F12520033
:10092000044812520014A8125200091F97FF000039
:1009300000000000000000000002103DFC0002105A
:10094000250400041025040005FFBDFC000C102543
:1009500020000C38252000143825FE0004543D20CA
:1009600000045425100004922510000511A509006B
:1009700006113D450004102583000410010100000C
:100980000000000000000000001FC8102000124AF4
:100990000C20001AC904200017480020001FFFB8CF
:1009A000200002080850001FC80850000208085024
:1009B0000003C80848001E1408880001540A880073
:1009C00015220C84001443890700008106020000F0
:1009D00000000000000000000002030010001FDC07
:1009E0003EFE000890021200051004FF001FDF8485
:1009F000120002120CFE001FD2021000021222FE90
:100A0000000A921410000A5214100012220DFF0066
:100A100002220810000A42141000040223FF000002
:100A20000000000000000000000F78BC2000094812
:100A3000A45000094AA85000094AA88800094AB1F0
:100A400004001FFEAAFB00094AA42000094AA420B2
:100A500000094AA7FE00094AB420000948A9240059
:100A60000B48A22200088AA4A2001119204000000D
:100A70000000000000000000000020008000005086
:100A800001FC000088010400010403080006FB04C7
:100A900090000800C0600007DF01800004510600DC
:100AA0000004511BFE00045102020007D90202009B
:100AB0000456020200001003FE00001002020000B3
:100AC0000000000000000000000208209000027FEB
:100AD0009890001F8009FF00022201100006218B60
:100AE000100007628DFE000AA20910000A141110FE
:100AF00000121431FE00020811100002141110003F
:100B00000222111000024391FF0002811100000037
:100B1000000000000000000000100700000008F8BE
:100B20003FFE000480200200008020020000BE235F
:100B3000E2001C8222220004A42222000494222229
:100B4000000488222200049423E2000522200200EF
:100B500005422002000A003FFE0011FFA002000033
:100B600000000000000000000000820FFE000044B2
:100B700000400007FF80400000100040000010000F
:100B8000400000101FFF800FFFC040000010004019
:100B90000000280040000028004000004400400001
:100BA00000820040000301C140000C008080000072
:100BB0000000000009FF00400004203FFF00042067
:100BC00000000000FE0000001C420FFC0004420078
:100BD000000007FF80000004000FFC0004FF00007D
:100BE00000048100000005810FFC0006810804005C
:100BF00004FF08040000810FFC000000000000005A
:100C000000000000000000000000401F7E001FFFE9
:100C100084020010808442000A4A0442000A31081B
:100C2000420012C50F42000304197F001DF829017C
:100C3000000040090100084209FD000842090100C6
:100C400008420F01000FFE0905000002000200002B
:100C500000000000000000000001000FFE00010085
:100C600008200003FF0820000201082000042208D9
:100C7000200008200BFE001020082000005008284B
:100C8000000050082400008808220000881020007E
:100C900001041020000203A7FF000C010000000067
:100CA000000000000008000000021F88FE001FD0A6
:100CB0000E22000420302200045F80220007849E60
:100CC000220004850822000494082200049428FECF
:100CD0000004971E42000494084200089408420051
:100CE0000AAC0A420011440C4200008389FF000054
:100CF00000000000000000000000400080001FFF16
:100D00009FFC0000400410000FFF02200000003F85
:100D1000FF000FFE00000008420FF800084208081C
:100D2000000FFE08080008020FF80008000808007D
:100D3000080008080008000FF8001000080800006C
:100D400000000000000000000007FE0FF800040291
:100D5000000000040200000007FE00000004023F43
:100D6000FE00040200800007FE0080000090049056
:100D70000008910C880006931086000294208200DF
:100D8000009000800000900280001FFF81000000A2
:100D9000000000000000000000041012020005FF27
:100DA0009FD20005009212001E28A2120004443FA8
:100DB000F200048202120006000212000CFE1FD292
:100DC00000141012520004101242000410134200CA
:100DD000041012820015FF820A00080002040000BD
:100DE00000000000000000000000200000000020C3
:100DF0003E04001FFFA204001000A2FF0000012219
:100E000004000FFE22040000403E44000040222463
:100E1000000440222400047C220400044022040038
:100E20000A403E0400094022240010FF8014000004
:100E300000000800000000000010FE0820000882EA
:100E40000BFF0004820A010010FE3C5100088208DA
:100E50008800088209040002FE0C0000040019FC4E
:100E60000009FF282000192908200009290820006E
:100E7000092908200009292BFF000BFF9000000022
:100E80000000000000000000001F7F90F800010833
:100E90000888000A10088800047F0107001FC13A73
:100EA0000000054909FC0004490884000449088839
:100EB000000449084800044908500004490A200079
:100EC00004160C5800142189870008C0860200000F
:100ED000000000005361766500466C6970004D614A
:100EE000696E2053637265656E004A5000454E007E
:100EF000434E00594553004E4F004F4E004F46465B
:100F000000496E666F7300426967005049440044AF
:100F10006972656374005361766500426F6F737424
:100F2000004F666600536C6565700053617665001E
:100F3000426F6F737400536C656570004465666141
:100F4000756C74004164640044656C65746500529E
:100F5000656E616D650043616C6962726174650004
:100F60004368616E67650052657475726E00416218
:100F70006F7574004C616E67004C6F636B004C4F73
:100F80005720566F6C00526F746172790042757A07
:100F90007A65720053637265656E00436F6E74729A
:100FA0006F6C0054696D65720054656D7000546912
:100FB00070001FE03FF07038601860186018FFFC88
:100FC000FCFCFCFCFCFCF87CF87CFCFC7FF81E10B4
:100FD00033382D7C25382D3825382D386D80DEC0EE
:100FE000BF40BF40DEC061803F007FF0FFE0C0082F
:100FF000C01CC038C870DCE4CFCCC78CC30CC00C9C
:10100000C00CFFFC7FF8000006000C0018F838F058
:1010100030307060707878F878003C023F0C1FF830
:101020000FF003C000007FF8FFFCC00CC30CCB4CDA
:10103000DB6CDB6CD86CDCECCFCCC78CC00CFFFC61
:101040007FF8030007800FC00CC01CE01CE03CF0E0
:101050003CF07FF87FF8FCFCFCFCFFFC7FF81140C3
:10106000820021208FE023FC82004A23E200FE2040
:101070009FF013F880802220C0804221BFF0FBFA4D
:10108000888002208480022084801A208080E3FEF1
:101090008280020101000F421FC0784110400840C9
:1010A000904008421FC008411040FFFD104008401A
:1010B0005FC00840800008413FE008432520104100
:1010C0002520104125202041252040417FF07FF838
:1010D0004880020049000201FFF0020100100202F4
:1010E0007F202200410023F07F0022000800220020
:1010F000FF80220088802200888022008A802200CF
:101100008900FFFC080023F21FC022111040FBF0F1
:10111000904022121FC02A11104033F1104060008D
:101120005FC0AFFC800020413FE0224325202279B0
:10113000252022412520A541252048FD7FF0108350
:10114000DFC010825040208250402FFFDFC06082FD
:10115000520061C25200A1C25FE022A3D20022A2CB
:10116000510024925100288E5090308BD450208210
:10117000583020801010104047C017FC4440200316
:10118000F44023F844406208C440A3F8E44020013E
:1011900054402FFD44402806444023F8444020405A
:1011A0004450204048502140503020804000209240
:1011B0001FC03DF990402090904040901FC07BFFA1
:1011C0000000A0013FE021F90200FD090200210911
:1011D0007FF021F90500210945002909888031F9AE
:1011E0001070210820202500202070F8AE0FA90FD4
:1011F000A30F9B0F940F8D0F860F7E0F790F740F27
:101200006E0F670F600F560F4F0F480F440F670F99
:101210003C0F360F300F2B0F250F210F1B0F160F12
:101220000F0F0B0F070F010FFD0EFA0EF70EF30E47
:10123000F00EED0EEA0EDE0ED90ED40E2D3E003E5F
:101240000053656C65637420546970005D203D2017
:1012500000505B0000000000003E5B4F5B3E3E6BB9
:101260004F6B3E1C3E7C3E1C183C7E3C181C577D40
:10127000571C1C5E7F5E1C00183C1800FFE7C3E78C
:10128000FF0018241800FFE7DBE7FF30483A060E9E
:101290002629792926407F050507407F05253F5AE5
:1012A0003CE73C5A7F3E1C1C08081C1C3E7F142255
:1012B0007F22145F5F005F5F06097F017F00668900
:1012C000956A606060606094A2FFA29408047E0446
:1012D0000810207E201008082A1C08081C2A08086C
:1012E0001E101010100C1E0C1E0C30383E3830062C
:1012F0000E3E0E06000000000000005F0000000728
:10130000000700147F147F14242A7F2A1223130855
:10131000646236495620500008070300001C224131
:10132000000041221C002A1C7F1C2A08083E0808D5
:101330000080703000080808080800006060002085
:10134000100804023E5149453E00427F4000724968
:101350004949462141494D331814127F102745450C
:1013600045393C4A49493141211109073649494922
:1013700036464949291E0000140000004034000090
:1013800000081422411414141414004122140802F9
:10139000015909063E415D594E7C1211127C7F496C
:1013A0004949363E414141227F4141413E7F4949C1
:1013B00049417F090909013E414151737F080808ED
:1013C0007F00417F41002040413F017F08142241BE
:1013D0007F404040407F021C027F7F0408107F3E18
:1013E0004141413E7F090909063E4151215E7F0985
:1013F000192946264949493203017F01033F4040EC
:10140000403F1F2040201F3F4038403F63140814D6
:101410006303047804036159494D43007F4141410E
:101420000204081020004141417F040201020440EF
:1014300040404040000307080020545478407F2873
:101440004444383844444428384444287F38545469
:10145000541800087E090218A4A49C787F0804048C
:101460007800447D40002040403D007F102844002B
:1014700000417F40007C047804787C0804047838BC
:1014800044444438FC1824241818242418FC7C08EC
:10149000040408485454542404043F44243C404069
:1014A000207C1C2040201C3C4030403C442810281C
:1014B000444C9090907C4464544C44000836410065
:1014C0000000770000004136080002010204023CDF
:1014D0002623263C1EA1A161123A4040207A3854AE
:1014E0005455592155557941215454784121555429
:1014F000784020545579400C1E527212395555557A
:1015000059395454545939555454580000457C4164
:101510000002457D420001457C40F0292429F0F07D
:10152000282528F07C545545002054547C547C0ACE
:10153000097F4932494949323248484832324A489B
:1015400048303A4141217A3A42402078009DA0A09B
:101550007D39444444393D4040403D3C24FF2424EF
:10156000487E4943662B2FFC2F2BFF0929F620C00C
:10157000887E090320545479410000447D4130485D
:10158000484A32384040227A007A0A0A727D0D19A0
:10159000317D2629292F28262929292630484D4002
:1015A00020380808080808080808382F10C8ACBAFE
:1015B0002F102834FA00007B000008142A1422227D
:1015C000142A14089500220095AA005500AAAA55CD
:1015D000AA55AA000000FF00101010FF00141414F8
:1015E000FF001010FF00FF1010F010F0141414FC96
:1015F000001414F700FF0000FF00FF1414F404FCB3
:10160000141417101F10101F101F1414141F001093
:101610001010F0000000001F101010101F1010100C
:1016200010F010000000FF1010101010101010101B
:10163000FF10000000FF140000FF00FF00001F105B
:10164000170000FC04F414141710171414F404F415
:101650000000FF00F714141414141414F700F71406
:101660001414171410101F101F141414F414101055
:10167000F010F000001F101F0000001F14000000F9
:10168000FC140000F010F01010FF10FF141414FFF1
:10169000141010101F00000000F010FFFFFFFFFFEC
:1016A000F0F0F0F0F0FFFFFF0000000000FFFF0F80
:1016B0000F0F0F0F38444438447C2A2A3E147E0210
:1016C000020606027E027E026355494163384444A5
:1016D0003C04407E201E2006027E020299A5E7A55A
:1016E000991C2A492A1C4C7201724C304A4D4D30CB
:1016F0003048784830BC625A463D3E494949007EF0
:101700000101017E2A2A2A2A2A44445F4444405186
:101710004A444040444A51400000FF0103E080FF3A
:10172000000008086B6B083612362436060F090FC6
:1017300006000018180000001010003040FF0101E2
:10174000001F01011E00191D1712003C3C3C3C000B
:101750000000000000000000240027002A00000014
:101760000000250028002B000000000023002600B8
:101770002900040404040404040402020202020214
:101780000303030303030102040810204080010245
:1017900004081020010204081020000000080002C4
:1017A0000100000304070000000000000000AED5A7
:1017B000F0A83FD300408D14A1C8DA1281CFD9F12F
:1017C000DB40A4A6AF200021007F220007424F4F3C
:1017D00054204641494C45440044414D414745440D
:1017E0000052202D3E200057202D3E20004641492A
:1017F0004C2D00504153532D002F00204D454D20BE
:10180000434845434B200076312E387437007631FB
:101810002E387437005265626F6F74004572726FB4
:1018200072002D20004144432D3E20004F6E6C7904
:10183000206F6E65004F7574206F66204D656D00DA
:101840002B002D004D4F44452000FFFFFFFFFFFF01
:101850008003867080038003867080039FF3E130ED
:101860009FF39FF3E1309FF3983301CC9833983383
:1018700001CC9833983387C098339833E1C09833BC
:101880009833E1C098339FF398C09FF39FF398C0BB
:101890009FF3800366CC8003800366CC8003FFFF48
:1018A000010CFFFFFFFF01001FFF810061301F3FA0
:1018B000873CE6FC8733873CE6FC87F3F8039E0F02
:1018C0001F03F8039E0F1F03E13CFE0C07CFE13C12
:1018D000FE0C07CF99033E3086C3E6CF380F9EF348
:1018E000E6CF380F9EF39E0327CC81039E0327CCBF
:1018F0008103E0FFE10CE6CFE0FFE10CE6CF9803C7
:10190000060000FF9803060000FFFFFF1EF0F8032B
:101910008003663099C38003663099C39FF3010C3E
:10192000F8FF9FF3010CF8FF9833393C01CF98334F
:10193000393C01CF9833FF0C793F98333ECCE0F32C
:1019400098333ECCE0F39FF33E0098CF9FF33E00E8
:1019500098CF80033E30E7C380033E30E7C3FFFFEC
:10196000FFFFFFFFFFFFFFFFFFFF3030300056009B
:101970000FE01FC01FC03F803FF87FF07FE007C02F
:1019800007800F000E001C0018001000560014A065
:101990003FF07FF8E01C6E18EC1C68186018E01C23
:1019A0006058E01C7FF83FF014A043004552524FAE
:1019B0005200484F4C44004845415400574F524B49
:1019C0005900424F4F535400534C454550004F4629
:1019D000460025000102040810204080CC34112468
:1019E0001FBECFEFD8E0DEBFCDBF12E0A0E0B1E078
:1019F000E4E6FAE702C005900D92A233B107D9F7E9
:101A000026E0A2E3B2E001C01D92A33EB207E1F7D7
:101A10001CE0CFEEDCE004C02197FE010E94EC3A0E
:101A2000CE3ED107C9F70E9487230C94303D0C9419
:101A3000000080389105B0F46034710598F4E4ED4D
:101A4000F9E190E1969FD001A0781124A80F67706A
:101A5000E60FF11D9491A152BD4F442321F08C91CA
:101A6000982B9C93089590958C919823FACF2F9260
:101A70003F924F925F926F927F928F929F92AF921E
:101A8000BF92CF92DF92EF92FF920F931F93CF936B
:101A9000DF9300D01F92CDB7DEB7C22ED12C9601B6
:101AA000280F391F37FD4FC0803891050CF04BC00F
:101AB000E9824A017B013C01402E512C160127E0AE
:101AC000220E311C93E0359427949A95E1F78B010F
:101AD000B12CA12C1B821A82EA81FB8183E0F5954F
:101AE000E7958A95E1F7EA0DFB1DE80DF91DE491F4
:101AF0008A819B818770992720E830E002C0359564
:101B000027958A95E2F7C901F0E0E223F923EF2B4C
:101B100041F04981B8018A819B81860D971D0E9401
:101B2000190D8A819B8101969B838A838C159D0563
:101B30009CF2A20CB31C0F5F1F4FC8018E199F09A6
:101B4000841595053CF20F900F900F90DF91CF9187
:101B50001F910F91FF90EF90DF90CF90BF90AF90CB
:101B60009F908F907F906F905F904F903F902F90BD
:101B700008954F925F926F927F928F929F92AF9251
:101B8000BF92CF92DF92EF92FF92CF93DF93C090FC
:101B9000C702D090C802E090C902F090CA02A70123
:101BA0009601C701B6010E9466364B015C01C8E18F
:101BB000D1E02C813D814E815F81C701B6010E9439
:101BC0006636288139814A815B810E94D5372B0195
:101BD0003C01288539854A855B85C501B4010E9491
:101BE00066369B01AC01C301B2010E94D5372B01BF
:101BF0003C01A5019401C701B6010E9466362C85FF
:101C00003D854E855F850E9466369B01AC01C30110
:101C1000B2010E94D537DF91CF91FF90EF90DF9016
:101C2000CF90BF90AF909F908F907F906F905F907C
:101C30004F9008954F925F926F927F928F929F92F2
:101C4000AF92BF92CF92DF92EF92FF920F931F93CA
:101C5000CF93DF9300D000D0CDB7DEB74B015C014E
:101C600029013A016701780120E030E0A9010E94D2
:101C7000003687FDA6C020E030E0A901C301B20113
:101C80000E94003687FD9DC020E030E0A901C80118
:101C9000B6010E94003687FD94C081E02091A50224
:101CA0003091A6022130310509F080E08093C60210
:101CB00080928B0290928C02A0928D02B0928E0242
:101CC00040928F0250929002609291027092920222
:101CD000C0929302D0929402E0929502F092960202
:101CE0006091B9027091BA028091BB029091BC02DE
:101CF0000E94053620E030E04AE754E40E9446386E
:101D000069837A838B839C83809297029092980256
:101D1000A0929902B0929A029B01AC01C301B20158
:101D20000E9466362B013C0140929B0250929C021D
:101D300060929D0270929E0229813A814B815C8162
:101D4000C701B6010E9446386B017C01C0929F0218
:101D5000D092A002E092A102F092A2028091A3028E
:101D60009091A402019769F5A501940160E070E0EB
:101D7000CB010E94D43760939702709398028093AE
:101D8000990290939A02A301920160E070E0CB0166
:101D90000E94D43760939B0270939C0280939D02B3
:101DA00090939E02A701960160E070E0CB010E9433
:101DB000D43760939F027093A0028093A102909306
:101DC000A2020F900F900F900F90DF91CF911F9173
:101DD0000F91FF90EF90DF90CF90BF90AF909F90CA
:101DE0008F907F906F905F904F90089580E0EFED1F
:101DF000F2E081118FEF002481938193819381938D
:101E00000394D1F7EBECF2E017861686158614865C
:101E10000895DF92EF92FF920F931F93CF93DF937A
:101E20007C01D22E8B01040F111DEB0177FF02C044
:101E3000D0E0C0E0C8010134110514F080E490E066
:101E4000C817D9073CF44D2DBE01C7010E94190DDA
:101E50002196F0CFDF91CF911F910F91FF90EF90DE
:101E6000DF900895CF92DF92EF92FF920F931F932E
:101E7000CF93DF936B01122FEC017C01E40EF11C78
:101E8000CE15DF0544F4202F412FB601CE010E946C
:101E9000090F2196F5CFDF91CF911F910F91FF9000
:101EA000EF90DF90CF9008950F931F93CF93DF9320
:101EB000EC018B0140E001960E94190D40E0B80151
:101EC000CE0101970E94190DB8016F5F7F4F40E06E
:101ED000CE010E94190DB8016150710940E0CE0198
:101EE0000E94190D40E0B801CE01DF91CF911F9102
:101EF0000F910C94190DAF92BF92CF92DF92EF9297
:101F0000FF920F931F93CF93DF936C017B018B01A3
:101F1000040F151FEB015E01AE18BF08C017D107F3
:101F200059F06991D601ED91FC910190F081E02D7D
:101F3000C6010995892B79F7C501DF91CF911F91D2
:101F40000F91FF90EF90DF90CF90BF90AF900895EA
:101F5000833081F028F4813099F08230A9F008951F
:101F60008730A9F08830C9F08430B1F480918000C6
:101F70008F7D03C0809180008F77809380000895CB
:101F800084B58F7784BD089584B58F7DFBCF809114
:101F9000B0008F778093B00008958091B0008F7D5E
:101FA000F9CFCF93DF93282F30E0F901E656F84EB2
:101FB0008491F901EA57F84ED491F901EE58F84EA0
:101FC000C491CC23A1F081110E94A80FEC2FF0E066
:101FD000EE0FFF1FE859F84EA591B491EC91ED2357
:101FE00081E090E009F480E0DF91CF91089580E0F6
:101FF00090E0FACF1F93CF93DF93282F30E0F901C1
:10200000E656F84E8491F901EA57F84ED491F90159
:10201000EE58F84EC491CC23A9F0162F81110E94DE
:10202000A80FEC2FF0E0EE0FFF1FE25AF84EA5913B
:10203000B4918FB7F894EC91111108C0D095DE23BC
:10204000DC938FBFDF91CF911F910895DE2BF8CFE6
:10205000CF93DF9390E0FC01EA57F84E24918E581D
:10206000984EFC0184918823C9F090E0880F991F55
:10207000FC01EC5AF84EA591B491FC01E25AF84EDD
:10208000C591D49161110DC09FB7F8948C912095A2
:1020900082238C938881282328839FBFDF91CF914F
:1020A0000895623051F49FB7F8943C91822F809547
:1020B00083238C93E8812E2BEFCF8FB7F894EC918C
:1020C0002E2B2C938FBFEACF1F93CF93DF93182F24
:1020D000EB0161E00E942810209739F460E0812F25
:1020E000DF91CF911F910C94FA0FCF3FD10511F4DE
:1020F00061E0F5CFE12FF0E0E656F84EE491E330F1
:1021000031F140F4E130B1F0E230E1F0C038D10516
:102110007CF7E4CFE73029F1E83059F1E430B1F74A
:1021200080918000806280938000D0938B00C09368
:102130008A0004C084B5806884BDC7BDDF91CF919B
:102140001F91089584B5806284BDC8BDF7CF80918A
:102150008000806880938000D0938900C0938800BD
:10216000EDCF8091B00080688093B000C093B30041
:10217000E5CF8091B00080628093B000C093B4003E
:10218000DDCF3FB7F8948091500290915102A09119
:102190005202B091530226B5A89B05C02F3F19F0FB
:1021A0000196A11DB11D3FBFBA2FA92F982F8827D7
:1021B000BC01CD01620F711D811D911D42E0660FB2
:1021C000771F881F991F4A95D1F708958F929F9284
:1021D000AF92BF92CF92DF92EF92FF924B015C01E0
:1021E0000E94C1106B017C010E94C1106C197D0915
:1021F0008E099F09683E734081059105A8F321E08F
:10220000821A9108A108B10888EEC80E83E0D81E92
:10221000E11CF11C81149104A104B10429F7FF9081
:10222000EF90DF90CF90BF90AF909F908F900895E8
:102230002FB7F89460914C0270914D0280914E023C
:1022400090914F022FBF08950E9418118091D402DF
:10225000962F981B8091D502882331F09093D60257
:102260001092D50280E008952091D302921740F495
:102270009F5F9217A0F491E093BF889513BE0895D5
:1022800081E08093D5026093D4028091CF02909137
:10229000D00201969093D0028093CF0281E00895FE
:1022A00084E98093BC008091BC0084FDFCCF08953C
:1022B0008093BB0084E88093BC008091BC0087FFC2
:1022C000FCCF089584EA8093BC008091BC0087FF16
:1022D000FCCF88E70C9458110E94621180E480932F
:1022E000BB0084E88093BC00EFEDF2E09091BC006D
:1022F00097FFFCCF91919093BB008093BC0096E038
:10230000EF3DF90799F78091BC0087FFFCCF0C9453
:102310005011CF93C82F0E94621180E00E94581183
:102320008C2F0E945811CF910C9450118038910538
:10233000B4F5480F592F511D4138510514F040E8AC
:1023400050E0481BFB0177FD379633E0F595E795A4
:102350003A95E1F7F695FE2FEE27F795E795E80F0A
:10236000F91FE152FD4F6770772781E090E001C0CF
:10237000880F6A95EAF7382F213041F4415078F000
:102380008191DF011197832B8C93F8CF8095415079
:1023900030F09191DF01119798239C93F8CF089525
:1023A000CF92DF92EF92FF920F93CF93DF936C0166
:1023B0007B01C42FD22F6034710524F4202FC60175
:1023C0000E949611B7016D0F711D61507109603443
:1023D00071052CF4202F4C2FC6010E949611202F3E
:1023E0004D2FB701C6010E94090FC6018C0F911D28
:1023F000202F4D2FB7010197DF91CF910F91FF90C3
:10240000EF90DF90CF900C94090F2F923F924F9254
:102410005F926F927F928F929F92AF92BF92CF9274
:10242000DF92EF92FF920F931F93CF93DF93CDB77D
:10243000DEB72A970FB6F894DEBF0FBECDBF9A83E2
:1024400089836A3061F5DC0152968C91B8E08B9FEC
:1024500090011124E981FA8186859785820F931F67
:10246000978786871586148681E090E02A960FB6B6
:10247000F894DEBF0FBECDBFDF91CF911F910F91BA
:10248000FF90EF90DF90CF90BF90AF909F908F9094
:102490007F906F905F904F903F902F9008956D3098
:1024A00019F329813A813A872987D9011C96AD9081
:1024B000BC90B0E8AB16B1040CF07BC0F901C68447
:1024C000D784F0E4CF16D1040CF073C0D901529632
:1024D0006C90529745E09501649E200D311D1124AA
:1024E000121613060CF065C0262C312C910153E016
:1024F000220F331F5A95E1F72C0D3D1D12161306BE
:102500000CF057C05196BC91BB83E985FA85F089E0
:10251000FC83649FB00111249B012C5A3D4E3A83E9
:102520002983712CE981FA818491F5E07F1201C041
:1025300080E0460138E0532E282F30E03E832D8383
:102540004C8080FF4B80411004C03B818C81381748
:10255000E1F010E000E00615C0F4D501A00FB11FB6
:10256000B887AF83F12CE12CE61460F4B701680D55
:10257000791D442D8F8198850E94190DBFEFEB1AAC
:10258000FB0AF2CF0F5F1F4FE6CF8D819E8195959D
:1025900087955A94820C931C5110CECF7394E98185
:1025A000FA813196FA83E983A20CB31CF6E07F121C
:1025B000B9CFA985BA8552962C915297422F50E0F7
:1025C0001C968D919C91B6E02B9F800D911D11243E
:1025D000E985FA85958784872389222309F444CFE6
:1025E0006AEF64039001659F300D112420583F4F1E
:1025F000281739070CF038CFDF010190F081E02D6A
:102600000190F081E02D6AE0CD0109952DCF682F72
:102610008BEC92E00C9405120F931F93CF93DF93F2
:102620008C01D0E0C0E0F801EC0FFD1F649166233F
:1026300041F08BEC92E00E940512892B11F021965B
:10264000F2CFCE01DF91CF911F910F9108950895A0
:1026500090E080E008956F927F928F929F92AF9268
:10266000BF92CF92DF92EF92FF920F93CF93DF93BF
:102670007C01C62F01E020E340E370E060E00E94AF
:10268000320F570123E0A20EB11C00E02AE24AE219
:1026900063E070E0C5010E94320F70E060E0C701A6
:1026A0000E94540F67013FE2C30ED11C70E060E04E
:1026B000C6010E94540F6FE270E0C7010E94540FE0
:1026C0006FE270E0C6010E94540FEC2FF0E0EE0FB5
:1026D000FF1FE45BFE4F8080918053E0E52EF12CDC
:1026E000D12CC12C60E8662E712CD0E0C0E0FE0138
:1026F00033E0F595E7953A95E1F7EC0DFD1DE80D12
:10270000F91DE491CE0187709927930102C0359598
:1027100027958A95E2F7C901F0E0E223F923EF2B30
:1027200069F0CE01880F991F8C0F9D1F01E023E0F7
:1027300043E0B7018A0D9B1D0E94320F2196CE30D7
:10274000D105A9F632E0C30ED11C83E0E80EF11CDE
:102750002DE2E216F10449F6DF91CF910F91FF903F
:10276000EF90DF90CF90BF90AF909F908F907F9031
:102770006F900895880F991F9093370280933602C7
:10278000660F771F709335026093340280915B026D
:10279000882359F05093330240933202220F331FA3
:1027A00030936E0220936D02089551954195510921
:1027B000F1CF0F931F93CF9380910D01882399F050
:1027C000CFEF0FEE11E061E085E00E94FA0FC80143
:1027D0000197F1F760E085E00E94FA0FC8010197C8
:1027E000F1F7C15081F7CF911F910F9108953F925A
:1027F0004F925F926F927F928F929F92AF92BF9211
:10280000CF92DF92EF92FF920F931F93CF93DF93BC
:10281000CDB7DEB72E970FB6F894DEBF0FBECDBF93
:10282000898380918802882309F4A8C110925C02F0
:1028300010925D0210925E0210925F02C0905C02E4
:10284000D0905D02E0905E02F0905F02898181117C
:10285000FDC18090760290907702A0907802B090AF
:102860007902A5019401C701B6010E94D4372B015A
:102870003C0120E030E0A9010E942D3918160CF02F
:10288000A0C1C301B2010E94BF3880910801882312
:1028900009F4B8C18092470290924802A09249027E
:1028A000B0924A02E12CF12C00EA10E420E030E082
:1028B00040E450E46E31710540F0E12CF12C00E869
:1028C0001FE320E030E040E05FE360E070E080E3A1
:1028D00091E40E941A0E8091C502882309F42AC14E
:1028E0000E9418116D837E838F8398878091AD023B
:1028F0009091AE02A091AF02B091B0024D815E8185
:102900006F817885481B590B6A0B7B0B8091B9024C
:102910009091BA02A091BB02B091BC02481759072E
:102920006A077B0708F406C1E091A702F091A802AC
:1029300080819181A281B38189839A83AB83BC8397
:10294000E091AB02F091AC029C01AD01608171811C
:10295000828193810E94D4374B015C012091B502A2
:102960003091B6024091B7025091B80269817A81E4
:102970008B819C810E94D4376B017C0120919B024A
:1029800030919C0240919D0250919E02C501B4017C
:102990000E9466362091B1023091B2024091B3029A
:1029A0005091B4020E94D5372B013C014092B102F4
:1029B0005092B2026092B3027092B4023090C6029A
:1029C00031101AC0209197023091980240919902DB
:1029D00050919A02C701B6010E9466369B01AC0174
:1029E000C301B2010E94D4376093B1027093B20266
:1029F0008093B3029093B4024090B1025090B2021F
:102A00006090B3027090B4021091C1029091C20222
:102A10009E87A091C302AD870091C402212F392F58
:102A20004A2F502FC301B2010E942D3918160CF005
:102A3000CCC0812F9E85AD85B02F8093B10290933D
:102A4000B202A093B302B093B402332009F4D6C00B
:102A500020919702309198024091990250919A02E8
:102A6000C501B4010E9466364B015C0120919F02B2
:102A70003091A0024091A1025091A202C701B6017B
:102A80000E9466369B01AC016091B1027091B20266
:102A90008091B3029091B4020E94D437A5019401B1
:102AA0000E94D5376B017C019B01AC01612F7E85B3
:102AB0008D85902F0E94003687FD18C01091BD02B1
:102AC0009091BE029E87A091BF02AD870091C00287
:102AD000212F392F4A2F502FB601C7010E940036EF
:102AE00087FD04C01C2DDE86ED860F2DE091A90226
:102AF000F091AA02812F9E85AD85B02F80839183AE
:102B0000A283B38389819A81AB81BC818093B50212
:102B10009093B602A093B702B093B8028D819E81C4
:102B2000AF81B8858093AD029093AE02A093AF02BF
:102B3000B093B0026091820270918302809184020E
:102B4000909185020E94B83889E02E960FB6F894CD
:102B5000DEBF0FBECDBFDF91CF911F910F91FF90D0
:102B6000EF90DF90CF90BF90AF909F908F907F902D
:102B70006F905F904F903F900C946410809187020B
:102B8000609104017091050181110EC08091740261
:102B90009091750220918602BC01222329F0609158
:102BA0000301680F792F711D90E080E00E940536C7
:102BB00060935C0270935D0280935E0290935F026B
:102BC0003DCEC301B20190585ECE8091BD0290917E
:102BD000BE02A091BF02B091C00289879A87AB87DD
:102BE000BC879C01AD01C301B2010E94003687FF82
:102BF0002CCF89859A85AB85BC851FCF812C912CE4
:102C0000540134CF20E030E040E05FE3C501B4017F
:102C10000E94D537A70196010E94003687FF09C0A0
:102C20001092820210928302109284021092850206
:102C300081CF80E090E0AFE7B3E48093820290938D
:102C40008302A0938402B093850274CF20E030E029
:102C500040E05FE36091C7027091C8028091C902B1
:102C60009091CA02D5CF80917A00806980937A00D2
:102C70008EE480937C0061E070E080E090E00E9450
:102C8000E61083B7817F826083BF80E130E020E07F
:102C900093B7916093BF889593B79E7F93BF9091B0
:102CA0007A0096FDFCCF4091780050917900240F76
:102CB000351F815069F780917A008F7780937A0071
:102CC00084E0369527958A95E1F750E040E064EB83
:102CD0007BE281E190E00E943A37C901089580913A
:102CE0007A00806980937A0088EC80937C006AE0A7
:102CF00070E080E090E00E94E61083B7817F826000
:102D000083BF80E270E060E093B7916093BF8895E5
:102D100093B79E7F93BF90917A0096FDFCCF209150
:102D2000780030917900620F731F815069F78091AC
:102D30007A008F7780937A00769567957695679578
:102D400062527A4090E080E00E94053626EF38E239
:102D50004CE151E40E944638089590917A009069C0
:102D600090937A008E50806480937C0083B7817F3B
:102D7000826083BF20E290E080E033B7316033BFF0
:102D8000889533B73E7F33BF30917A0036FDFCCF54
:102D90004091780050917900840F951F215069F778
:102DA00020917A002F7720937A0025E096958795D9
:102DB0002A95E1F708958FE00E94AD16A091570281
:102DC000B09158029C010E94C5370E94073628E541
:102DD00039E743E353E40E9446380E94BF38CB01F1
:102DE000089580916202882369F086E00E94D10FE5
:102DF000892B41F06AE070E080E090E00E94E610EC
:102E0000109262020895FC0101900020E9F73197C9
:102E1000AF01481B590BBC018BEC92E00C947B0F6B
:102E20008F929F92AF92BF920F931F93CF93DF9396
:102E3000CDB7DEB7A1970FB6F894DEBF0FBECDBFFA
:102E400019A2423008F44AE08E010F5D1F4F842E14
:102E5000912CB12CA12CA50194010E94A337E62F3F
:102E6000B901CA01EA30F4F4E05DD801EE938D01B6
:102E7000232B242B252B79F790E080E0109719F075
:102E8000CD010E940317A1960FB6F894DEBF0FBEC6
:102E9000CDBFDF91CF911F910F91BF90AF909F90C9
:102EA0008F900895E95CE1CFCF92DF92EF92FF928D
:102EB000CF93DF936C01990FEE08FF086A3071051C
:102EC000D1F44AE0F7FE18C08DE20E940713EC012E
:102ED00066277727CB016C197D098E099F094AE087
:102EE0000E9410178C0F9D1FDF91CF91FF90EF90E4
:102EF000DF90CF900895462FC701B601DF91CF91A3
:102F0000FF90EF90DF90CF900C9410174F925F924C
:102F10006F927F928F929F92AF92BF92CF92DF92E9
:102F2000EF92FF920F931F93CF936B017C01742E4E
:102F3000AC019B010E948A39882399F086E292E0D5
:102F4000CF911F910F91FF90EF90DF90CF90BF90A6
:102F5000AF909F908F907F906F905F904F900C9468
:102F6000031746015701E894B7F82FEF3FEF4FE7FB
:102F70005FE7C501B4010E948A3981110DC02FEFAE
:102F80003FEF4FE75FE7C501B4010E940036181616
:102F90001CF48AE292E0D4CF2FEF3FEF4FE75FE4DB
:102FA000C701B6010E942D3918161CF48EE292E07A
:102FB000C7CF2FEF3FEF4FE75FECC701B6010E948D
:102FC000003687FDF3CF20E030E0A901C701B6014C
:102FD0000E94003610E000E087FF08C08DE20E94EA
:102FE00007138C01F7FAF094F7F8F094C0E060E072
:102FF00070E080E09FE37C1641F020E030E040E2AA
:1030000051E40E944638CF5FF6CFA70196010E9497
:10301000D5372B013C010E94BF384B015C014AE0CF
:103020000E9410177C01E00EF11ECC23B1F1C50106
:10303000B4010E9405369B01AC01C301B2010E949C
:10304000D4374B015C018EE20E940713E80EF91E93
:10305000C15018F120E030E040E251E4C501B40174
:103060000E9466362B013C010E94BF384B01B12CF7
:10307000A12C4AE0C501B4010E941017E80EF91E08
:10308000C501B4010E9405369B01AC01C301B20128
:103090000E94D4374B015C01DBCFC701CF911F9158
:1030A0000F91FF90EF90DF90CF90BF90AF909F90E7
:1030B0008F907F906F905F904F9008954F925F92A6
:1030C0006F927F928F929F92AF92BF92CF92DF9238
:1030D000EF92FF920F93CF93DF936C01CBECD2E092
:1030E000198A81E0888B8A8B4B01770FAA08BB086D
:1030F0002CE530E0D6010E94F23AA50194010E942D
:103100003A373D872C8784E390E09F878E870D2C8C
:10311000000CEE08FF08C701B6010E9407362B011C
:103120003C01C501B4010E9407369B01AC01C301FB
:10313000B2010E94463820E030E048EC52E40E94A0
:10314000663642E00E94861782ED99E10E940C13D8
:10315000C701B60127E0660F771F881F991F2A95C0
:10316000D1F7A50194010E943A37422F01E024E0F3
:103170006CE370E090E080E00E94320FDF91CF912D
:103180000F91FF90EF90DF90CF90BF90AF909F9006
:103190008F907F906F905F904F900895CF92DF92C5
:1031A000EF92FF920F931F93CF93DF937C010E94C6
:1031B000F60E81E08093DD0200E110E0D0E0C0E097
:1031C0008CE0C82ED12CD092D802C092D702109396
:1031D000DA020093D90281E592E10E940C1367E0C4
:1031E00070E0CE010E9454178CE492E10E940C130F
:1031F000F70161917191819191917F0147E00E9466
:1032000086172196085F1F4FC430D105E1F60E9452
:103210006C1186E00E94D10F21E0892B09F020E09B
:103220002093620286E00E94D10F892B21F48091C5
:103230006202882319F00E94F116F4CFDF91CF913A
:103240001F910F91FF90EF90DF90CF900895CF9254
:10325000DF92EF92FF920F931F93CF93DF93C82FCC
:1032600081E0DC2FD827D093DC02C093DB0280936F
:10327000DD020C2F29E046E666E370E081E090E095
:103280000E94D0112091890230918A02253F81E06D
:103290003807B8F4A4E6B0E00E94C53724EF31E067
:1032A00040E050E00E943A37BA01A9014E5F5F4FFB
:1032B0006F4F7F4F29E066E370E081E090E00E946D
:1032C000320F60915C0270915D0280915E0290917C
:1032D0005F020E94B8389B01AC01A4E6B0E00E94F6
:1032E000593734EFC32EDD24D394E12CF12CA70100
:1032F00096010E943A37DA01C9010296A11DB11D5B
:1033000002970C2F27E043E067E370E00E94320F42
:1033100060915C0270915D0280915E0290915F020B
:103320000E94B8389B01AC01A4E6B0E00E94593776
:10333000A70196010E943A37DA01C9010296A11D40
:10334000B11D039721E045E06FE370E00E94320F6A
:1033500060915C0270915D0280915E0290915F02CB
:103360000E94B8389B01AC01A4E6B0E00E94593736
:10337000A70196010E943A372E5F3F4F4F4F5F4F94
:10338000790181E0E81AF10806E310E04D2FB80159
:10339000C7010E94190D0F5F1F4F00341105B1F7CF
:1033A00060915C0270915D0280915E0290915F027B
:1033B0000E94B8389B01AC01A4E6B0E00E945937E6
:1033C00024EF31E040E050E00E943A37DA01C901D1
:1033D0000296A11DB11D0397ED2E04E025E048EEF5
:1033E00051E16CE370E00E94370D0C2F29E047E1BA
:1033F00066E370E088E690E00E94D011609182025E
:103400007091830280918402909185020E94B83865
:103410009B01AC012F5F310941095109A7E1B0E0DF
:103420000E945937CC24C394DD24DA94ED2CFD2C72
:10343000A70196010E943A37422F29E066E370E027
:1034400088E690E00E94320FC093DC02D093DB024A
:1034500082E090E09093D8028093D70207E310E0D7
:103460001093DA020093D90260915C0270915D02C0
:1034700080915E0290915F0240E00E94861789E68B
:1034800090E09093D8028093D7021093DA020093D1
:10349000D90260918202709183028091840290919E
:1034A00085020E94B8389B01AC012F5F31094109A8
:1034B0005109A4E6B0E00E945937A70196010E9485
:1034C0003A3769017A014AE0C701B601F7FE0BC03D
:1034D0008DE20E94071366277727CB016C197D09BF
:1034E0008E099F094AE00E94101786EE91E10E9422
:1034F0000C13D093DC02C093DB02DF91CF911F91BC
:103500000F91FF90EF90DF90CF9008951F93CF938E
:10351000DF93EC01162F0E942437181739F0612F22
:10352000CE01DF91CF911F910C942C37DF91CF9179
:103530001F9108950C9424378F929F92AF92BF925F
:10354000CF92DF92EF92FF920F931F93CF93DF936F
:103550009CE1899F80011124E80165969FE0E92E96
:1035600091E0F92E6801EDE1CE0ED11CCE010E9452
:103570009A1AF70181937F012196CC15DD05B1F7E9
:1035800088E1C82E81E0D82E7801FDE2EF0EF11C13
:103590005E0184E0A80EB11C289646018501C80191
:1035A0000E942437F40181934F010F5F1F4FC01712
:1035B000D107A9F7F4E0CF0ED11CE501EA14FB0412
:1035C00039F7DF91CF911F910F91FF90EF90DF902E
:1035D000CF90BF90AF909F908F9008957F928F92E1
:1035E0009F92AF92BF92CF92DF92EF92FF920F9392
:1035F0001F93CF93DF936091070182E090E00E94D8
:10360000861A6091060183E090E00E94861A60911C
:10361000050184E090E00E94861A6091040185E033
:1036200090E00E94861A6091030186E090E00E947B
:10363000861A60910B0187E090E00E94861A6091E3
:103640000A0188E090E00E94861A6091090189E0F1
:1036500090E00E94861A609116018AE090E00E9434
:10366000861A609108018BE090E00E94861A6091B2
:103670000D018CE090E00E94861A609159028DE065
:1036800090E00E94861A609102018EE090E00E9414
:10369000861A60910E018FE090E00E94861A609178
:1036A0005A0280E190E00E94861A60917F0281E1D7
:1036B00090E00E94861A6091610282E190E00E948F
:1036C000861A6091600283E190E00E94861A609100
:1036D0005B0284E190E00E94861A009159020F314A
:1036E000F0F58CE1089F80011124E80165969FE0C8
:1036F000E92E91E0F92E6801EDE1CE0ED11CF70123
:1037000061917F01CE010E94861A2196CC15DD05BC
:10371000B1F788E1E82E81E0F82E035D1F4F6E01BE
:10372000F4E0CF0ED11C289657014601F5017190A7
:103730005F01C4010E942437781621F0672DC4016F
:103740000E942C37FFEF8F1A9F0AC815D90571F711
:1037500084E0E80EF11CE6010C151D0501F7DF9170
:10376000CF911F910F91FF90EF90DF90CF90BF907E
:10377000AF909F908F907F9008958F929F92AF927D
:10378000BF92CF92DF92EF92FF920F931F93CF934E
:10379000DF933FE0E32E31E0F32E10E000E0B12CA8
:1037A00042E0A42E50E3C52ED12C86E00E94D10F1A
:1037B00021E0892B09F020E02093620221E430E02F
:1037C00041E050E060E670E08FE190E00E94BA13C3
:1037D00080916D0290916E0295958795C82F8F31DB
:1037E00091F52FE530E041E050E060E670E08FE1D8
:1037F00090E00E94BA13CFE50E94F60EA092DD027F
:103800001093D8020093D702D092DA02C092D90264
:103810008EE50E9407131092D8021092D70280E220
:1038200090E09093DA028093D9028FE0882E81E0B5
:10383000982ED0E0DB15A9F0F40181914F010E9490
:103840000713DF5FF7CF8036B9F620E230E041E0C2
:1038500050E060E670E08FE190E00E94BA13C0E2B1
:10386000CBCF1093D8020093D70280E290E09093E0
:10387000DA028093D9028C2F0E9407130E94F1165E
:103880000E946C1186E00E94D10F892B09F0A0CF15
:103890008091620281119CCFF701C1937F010E9448
:1038A000EE1A0E94D9136AE070E080E090E00E9476
:1038B000E610BB24B394BD0E005F1F4FF6E0BF12AD
:1038C00074CF10921501DF91CF911F910F91FF904E
:1038D000EF90DF90CF90BF90AF909F908F90089522
:1038E0000E940B3DEF920F93CF93DF93CDB7DEB7DE
:1038F0002B970FB6F894DEBF0FBECDBFE82FF0E0D8
:1039000080910E01EE0FFF1F811119C0E456FE4F8A
:1039100040815181EE24E39400E124E260E370E011
:1039200080E390E00E94370D2B960FB6F894DEBF2F
:103930000FBECDBFDF91CF910F91EF90089580E33F
:1039400090E09093D8028093D70284E390E0909324
:10395000DA028093D90281E08093DD02E451FE4EC9
:1039600065917491CE0101960E94F93580E0282F6F
:1039700030E0E1E0F0E0EC0FFD1FE20FF31F90817B
:10398000992311F08F5FF3CF4AEF4203C001439FA9
:10399000900D112480589F4F97FD0196959587951E
:1039A0009093D8028093D70284E390E09093DA0258
:1039B0008093D902CE0101960E940317B5CF2F92B2
:1039C0003F924F925F926F927F928F929F92AF92AF
:1039D000BF92CF92DF92EF92FF920F931F93CF93FC
:1039E000DF9300D01F92CDB7DEB7898386E00E94B7
:1039F000D10F21E0892B09F020E0209362025AE0E8
:103A0000252E312C0E94F60E00916D0210916E024F
:103A10001595079526E02093DD0231E03093DC0216
:103A20001092DB026091450270914602072E000C55
:103A3000880B990B0E9407362B013C014FE3A42E03
:103A400042E0B42E750182E090E09B838A83EA8194
:103A5000FB81BF01FF0F880B990B0E9407369B016A
:103A6000AC0160E070E080E291E40E9432399B0199
:103A7000AC01C301B2010E9446380E94B838CB01A4
:103A8000B1010E94D83AF701819391937F012A8175
:103A90003B81215031093B832A832F3F3F4FB9F6A9
:103AA000109346020093450289E3E82E82E0F82E47
:103AB00094E0C92ED12C22E0822E912CB401092C45
:103AC000000C880B990B0E9407369B01AC0160E04B
:103AD00070E080E291E40E9432392B013C01609158
:103AE000450270914602072E000C880B990B0E942C
:103AF0000736A30192010E9446380E94B838CB01D4
:103B0000B1010E94D83AF50120813181821B930BCB
:103B100042E3489F9001499F300D1124F7016081D5
:103B20007181260F371F3B832A83232B09F086C020
:103B30001182108201E022E346E270E060E0C601FB
:103B400004970E94320F0EEC1FEF2FEF3FEF3B83E5
:103B50002A83F7018081918124E030E0281B390B12
:103B6000C901800F911FD092D802C092D7029093C2
:103B7000DA028093D902F501808191816AE070E0D8
:103B80002A813B81820F931F0E9454178A819B8157
:103B900001969B838A830E5C1F4F0297D1F692E0B9
:103BA000E90EF11CE1E08E1A9108F2E0AF0EB11CB3
:103BB0002CE2C20ED11C38E8C316D10409F07ECF26
:103BC00000E022E040E870E060E090E080E00E94E9
:103BD000320F20E140E860E370E090E080E00E9476
:103BE000320F89810E94721C0E946C110E94F11692
:103BF00086E00E94D10F892B09F004CF80916202E8
:103C0000811100CF0E94D913809145029091460204
:103C10000F900F900F90DF91CF911F910F91FF9018
:103C2000EF90DF90CF90BF90AF909F908F907F905C
:103C30006F905F904F903F902F9008956A817B81A5
:103C4000719561957109072E000C880B990B0E94E4
:103C500007362DEC3CEC4CE45FE30E9466362B010A
:103C60003C012A813B81B901330F880B990B0E94DB
:103C700007369B01AC01C301B2010E94D5370E94F7
:103C8000B838F7017183608355CF9C0144E650E05A
:103C900064E873E090E080E00E94BA1388E00E943C
:103CA000DF1CBC01665A7F4F9C014AE050E00E9435
:103CB000BA1388E00E94DF1CBC01675F7F4F9C0144
:103CC00041E050E00E94BA1388E00C94DF1C2F9270
:103CD0003F924F925F926F927F928F929F92AF929C
:103CE000BF92CF92DF92EF92FF920F931F93CF93E9
:103CF000DF93D82E282F30E0E0916302F0E0EE5BF6
:103D0000FE4F60816150770B41E050E090E080E031
:103D10000E94BA1386E00E94D10F21E0892B09F09E
:103D200020E0209362021092DC0281E08093DB02AB
:103D300038E3632EE0906D02F0906E02F594E79404
:103D4000AE2C8701112798012D193109629EC001FF
:103D5000639E900D1124C80FD91F209709F1662783
:103D600077276C1B7D0B072E000C880B990B0E948C
:103D700007362DEC3CEC4CE05FE30E9466361B01FD
:103D80002C01BE01DD0F880B990B0E9407369B01A9
:103D9000AC01C201B1010E94D5370E94B838EB01D5
:103DA0000E94F60E025011094E0185E0B82E93E0F4
:103DB000792E7A0CC0906302D12C17FD20C0F60139
:103DC000EE5BFE4F808180171106C9F0C4F0E2E47B
:103DD000F1E070E060E0CF01825491408C159D05C8
:103DE00034F48191680F711DF6CFDE2CA3CF872D9F
:103DF0008B19680FC401885491090E942B13BA943F
:103E00000F5F1F4F88E3880E911CB110D3CFE2E4FF
:103E1000F1E090E080E09F01225431402C153D05F7
:103E200024F42191820F911DF6CF8E0D0E94721CF9
:103E30000E946C110E94F11686E00E94D10F892B1E
:103E4000A1F6809162028111D0CF0E94D9138A2DF0
:103E5000DF91CF911F910F91FF90EF90DF90CF9066
:103E6000BF90AF909F908F907F906F905F904F909A
:103E70003F902F9008959F92AF92BF92CF92DF9282
:103E8000EF92FF920F931F93CF93DF93D09059023D
:103E9000FF24F394D11001C0F12C2D2D30E060915E
:103EA00002016150770B41E050E090E080E00E9419
:103EB000BA1386E00E94D10F21E0892B09F020E09F
:103EC00020936202BB24B394F2E0AF2E0CE010E02A
:103ED0000E94F60EC0916D02D0916E02D595C795E5
:103EE000EC2E8F2DFF0C990B8C0F911D8D199109C4
:103EF000F12C97FD06C08330910514F082E090E02C
:103F0000F82EB092DC021092DB02A092DD02109239
:103F1000D8021092D7021092DA021092D90281E4EC
:103F200092E10E940C131092DC02B092DB0210921C
:103F3000D8021092D7028F2D0F2C000C990B0196EE
:103F400064E0880F991F6A95E1F79093DA028093F5
:103F5000D9028FE392E10E940C139C2E9F1870E10E
:103F6000C72ED12C80910201981690F41093D8029C
:103F70000093D702D092DA02C092D9028EE189155D
:103F800018F0892D0E949C1A8FE091E00E9403177F
:103F90009394E0E1CE0ED11CF0E4CF16D10411F7DA
:103FA0000E94F1160E946C1186E00E94D10F892BAD
:103FB00091F58091620281112EC00E94D913E09286
:103FC00059022EE12E1518F08E2D0E949C1A0E9487
:103FD000D9130FE011E0F80101900020E9F78F01FB
:103FE00000511140B8016F5F7F4F90E080E00E9468
:103FF0004E3CEC01009789F488E191E0DF91CF918C
:104000001F910F91FF90EF90DF90CF90BF90AF90F6
:104010009F900C94CE18DC2E5BCF18826FE071E07D
:104020000E94293D012B09F4B2C062E371E0CE0188
:104030000E94203D892B09F08DC030E020E044E053
:1040400050E06FEF73E090E080E00E94BA1386E0EA
:104050000E94D10F21E0892B09F020E02093620219
:1040600081E08093DD020E94F60ED12CC12CB12C90
:10407000A12C8501F12CE12C80916D0290916E02B2
:1040800095958795800F911F813094400CF049C021
:10409000F092D802E092D702D092DA02C092D9020E
:1040A00080916D0290916E02959587956AE070E01F
:1040B000800F911F0E9454178CE392E10E940C1311
:1040C00080916D0290916E0295958795800F911F5A
:1040D0000E942437682F70E090E080E04AE00E9460
:1040E0001017C701C6969093D8028093D702D0923A
:1040F000DA02C092D90280916D0290916E0295957C
:104100008795800F911F0E9424370E9407130F5F2D
:104110001F4F20E4E20EF11C80E8E816F10409F0DC
:10412000ABCFE2E0AE0EB11CF8E0CF0ED11C20E127
:10413000A216B10409F09DCF0E94F1160E946C11E5
:1041400086E00E94D10F892B09F08DCF8091620209
:10415000811189CF6AE371E0CE010E94203D8C017C
:10416000892BA9F487E08093630280E00E94671E98
:10417000882369F06FEFC8010E942C370F5F1F4F33
:10418000011584E01807B1F7F0E0E0E0099588E157
:1041900091E00E94CE18CE01DF91CF911F910F9137
:1041A000FF90EF90DF90CF90BF90AF909F900C94D6
:1041B000C53B4F925F926F927F928F929F92AF9288
:1041C000BF92CF92DF92EF92FF92CF936FEF70E0AA
:1041D00089E00E9464108BEA94E00197F1F78EE089
:1041E0000E94AD167C018AE00E94D10F90913802A6
:1041F000981729F091E090937A0280933802809189
:1042000001019FEF980F90930101811106C00E9458
:10421000DB169093810280938002609182027091FC
:10422000830280918402909185020E94B83889E0CF
:104230000E9464108090C7029090C802A090C902AA
:10424000B090CA02B70190E080E00E940536A50157
:1042500094010E94D4372DEC3CEC4CE45DE30E94C9
:104260006636A50194010E94D5376093C70270930A
:10427000C8028093C9029093CA020E94B90D6B01D3
:104280007C01C0927602D0927702E0927802F0929E
:1042900079026091890270918A0290E080E00E9428
:1042A00005362B013C0180905C0290905D02A0904D
:1042B0005E02B0905F02A50194010E940036811158
:1042C0004BC0A7019601C301B2010E94D4372B0154
:1042D0003C0120E030E0A9010E942D39181694F528
:1042E00020E030E040EA50E4C301B2010E942D39E1
:1042F000181694F16091890270918A0290E080E032
:104300000E940536A50194010E94D4372B013C017F
:1043100020E030E0A9010E942D39181634F520E084
:1043200030E040E85FE3C301B2010E940036181696
:1043300034F1C501B4010E94BF3870938A026093C2
:1043400089021DC020E030E040EA50ECC301B20118
:104350000E94003687FFCECFC701B6010E94BF384A
:1043600070938A0260938902C5CF20E030E040E874
:104370005FEBC301B2010E942D3987FFDACF609154
:1043800074027091750290E080E00E940536A701EA
:1043900096010E94D4376B017C0120E030E0A90136
:1043A0000E942D3918160CF063C0C701B6010E9497
:1043B000BF386A30710508F05FC080911701811124
:1043C00005C080910C0181110E94D91381E0809376
:1043D000170110920C018091890290918A02853F09
:1043E00021E0920710F010920001209100012111AC
:1043F00049C0843F914008F045C06FEF70E089E00C
:104400000E9464100E94D913C1E0C09300010E9471
:104410003B1F0E94EE1AC0937A028EE00E94AD16F6
:10442000BC0190E080E00E9405366093C702709363
:10443000C8028093C9029093CA0210926C02209124
:1044400074023091750245E050E060E971E084E665
:1044500090E0CF91FF90EF90DF90CF90BF90AF9022
:104460009F908F907F906F905F904F900C94BA13B5
:10447000C701B60190589BCF1092170181E080933D
:104480000C01A9CFCF91FF90EF90DF90CF90BF901C
:10449000AF909F908F907F906F905F904F90089516
:1044A0001F920F920FB60F9211242F933F938F9369
:1044B0009F93AF93BF9380914C0290914D02A09136
:1044C0004E02B0914F0230914B0223E0230F2D3763
:1044D00058F50196A11DB11D20934B0280934C020B
:1044E00090934D02A0934E02B0934F0280915002E0
:1044F00090915102A0915202B09153020196A11DD8
:10450000B11D8093500290935102A0935202B09338
:104510005302BF91AF919F918F913F912F910F9037
:104520000FBE0F901F90189526E8230F0296A11D2D
:10453000B11DD2CF1F920F920FB60F9211248F93FD
:10454000EF93FF93E0E6F0E0808180648083FF9149
:10455000EF918F910F900FBE0F901F9018951F92A3
:104560000F920FB60F9211242F933F934F935F93A7
:104570006F937F938F939F93EF93FF9383B181709A
:1045800029B190915602981709F49DC030E0220F8E
:10459000232F221F330B922F8093560240915502F6
:1045A000241709F490C020935502209132023091D3
:1045B0003302981719F031952195310940916D0218
:1045C00050916E026091360270913702240F351FB0
:1045D000261737070CF48BC020913202309133023A
:1045E000981719F031952195310940916D0250913C
:1045F0006E026091340270913502240F351F6217EC
:1046000073070CF46FC04091320250913302981737
:1046100019F051954195510920916D0230916E022A
:10462000240F351F30936E0220936D0241E09813E2
:1046300040E020915402421709F440C02091320218
:1046400030913302981719F0319521953109609115
:104650006D0270916E02E0913602F0913702260FE2
:10466000371F2E173F070CF44CC0209132023091B7
:104670003302981719F031952195310960916D0237
:1046800070916E02E0913402F0913502260F371FCF
:10469000E217F3078CF12091320230913302981720
:1046A00019F031952195310980916D0290916E023A
:1046B000820F931F90936E0280936D024093540279
:1046C00081E080937A02FF91EF919F918F917F918A
:1046D0006F915F914F913F912F910F900FBE0F906F
:1046E0001F90189520913402309135029BCF209174
:1046F00036023091370296CF809134029091350284
:10470000D9CF8091360290913702D4CF1895CF93AC
:10471000DF93CDB7DEB7C554D1090FB6F894DEBF2D
:104720000FBECDBF789484B5826084BD84B58160AE
:1047300084BD85B5826085BD85B5816085BD80916C
:104740006E00816080936E001092810080918100E4
:1047500082608093810080918100816080938100DC
:10476000809180008160809380008091B10084609E
:104770008093B1008091B00081608093B0008091FF
:104780007A00846080937A0080917A0082608093BE
:104790007A0080917A00816080937A0080917A001B
:1047A000806880937A001092C100A89584B7877FB3
:1047B00084BF8091600088618093600087E180936E
:1047C0006000809160008064809360008091600050
:1047D0008860809360001092B90088E48093B800EC
:1047E0000E94621180E00E9458110EEA17E1BDECB0
:1047F000EB2EB7E1FB2EF80184910E9458110F5F58
:104800001F4FE016F106B9F70E94501111E0109306
:10481000B8000E946C1182E48093D30260E08EE0C5
:104820000E94281060E08FE00E94281061E085E07F
:104830000E94281061E089E00E94281062E087E071
:104840000E94281062E088E00E94281062E086E062
:104850000E94281062E08AE00E9428106FEF70E04A
:1048600089E00E94641060E085E00E94FA0F809168
:104870007A00876080937A0080917A0088608093C4
:104880007A00789410936B00109368001BBB90E043
:1048900080E00E949A1A182F81E090E00E949A1AF4
:1048A000912F8C30944109F075C182E090E00E9414
:1048B0009A1A182F83E090E00E949A1A912F9093F1
:1048C00007018093060184E090E00E949A1A182F55
:1048D00085E090E00E949A1A912F909305018093B1
:1048E000040186E090E00E949A1A8093030187E019
:1048F00090E00E949A1A80930B0188E090E00E9459
:104900009A1A80930A0189E090E00E949A1A809393
:1049100009018AE090E00E949A1A809316018BE0C8
:1049200090E00E949A1A91E0811101C090E090936A
:1049300008018CE090E00E949A1A91E0811101C078
:1049400090E090930D018DE090E00E949A1A809380
:1049500059028EE090E00E949A1A809302018FE043
:1049600090E00E949A1A80930E0180E190E00E94EC
:104970009A1A91E0811101C090E090935A0281E16E
:1049800090E00E949A1A80937F0282E190E00E9458
:104990009A1A182F83E190E00E949A1A912F90930F
:1049A00061028093600284E190E00E949A1A91E093
:1049B000811101C090E090935B02809159028F3188
:1049C00010F40E949C1A10915A0280EC111101C03F
:1049D00088EC0E94891180EA111101C081EA0E94CD
:1049E000891181E80E94891180E20E948911109248
:1049F0007B0280E280937C0280E480937D0280E6EB
:104A000080937E028091600290916102892B19F15E
:104A10000E94F60E68E088E290E00E942B1388E086
:104A20000E94721C0E946C1168EE73E080E090E0BE
:104A30000E94E6100E94D9130E94D9130E94D91334
:104A400090E080E00E94451E20916002309161025A
:104A500082179307E9F60E943316909358028093C9
:104A600057020E94DB16909381028093800200918E
:104A700006011091070110937502009374028EE0F5
:104A80000E94AD16BC0190E080E00E940536609364
:104A9000C7027093C8028093C9029093CA020E9411
:104AA0006F160E94B90D609376027093770280931F
:104AB00078029093790220E030E040EA51E40E94CD
:104AC000D5376B017C01B80190E080E00E9405368B
:104AD0009B01AC01C701B6010E94003687FF05C0EB
:104AE00070E060E089E00E9464101092BD021092B4
:104AF000BE021092BF021092C002412C512C3FE71F
:104B0000632E33E4732E4092C1025092C20260922F
:104B1000C3027092C402A090A902B090AA02809130
:104B2000C502D501CD90DD90ED90FC90882311F465
:104B30000C949E34A3019201C701B6010E942D3945
:104B400018160CF03FC1F5014082518262827382D7
:104B50008090B1029090B202A090B302B090B402E3
:104B6000C090C102D090C202E090C302F090C40293
:104B7000A7019601C501B4010E942D3918160CF049
:104B800031C1C092B102D092B202E092B302F0926F
:104B9000B40238C1B12CA12C312C212C10E000E042
:104BA00066246394F8E08F2E912CA8E14A2E512CB4
:104BB0000E94A1352FEF30E040E050E00E943A37EC
:104BC0006B017C0169A7C8010E942C37C8010E94B3
:104BD0002437782E29A52813E4C03FEF231A330A7F
:104BE0000E942411882309F48DC00E94F60E52E021
:104BF0005093DD026092DC021092DB021092D80228
:104C00001092D7021092DA021092D9028BEF97E13C
:104C10000E940C136092DD029092D8028092D7021B
:104C200088E290E09093DA028093D9026AE070E023
:104C3000C8010E94541789EF97E10E940C134AE0C3
:104C400060E074E080E090E00E9410171092DC02B7
:104C50006092DB029092D8028092D7025092DA02E0
:104C60004092D90283EF97E10E940C136AE070E052
:104C7000C1010E945417A8E4B0E0B093D802A093F9
:104C8000D7025092DA024092D9028DEE97E10E944B
:104C90000C136AE070E0C5010E9454179092D8028C
:104CA0008092D702E0E2F0E0F093DA02E093D902DA
:104CB00087EE97E10E940C13C701B601772788277A
:104CC00099274AE00E94101728E430E03093D80278
:104CD0002093D70240E250E05093DA024093D90289
:104CE00081EE97E10E940C13672D70E090E080E068
:104CF0004AE00E94101760E074E0C8010E945E184C
:104D00000E946C110F5F1F4F011554E0150709F049
:104D10004FCF02E011E046E1E42EF12C50E1C52E28
:104D2000D12C6FE1862E912C7CE2672E712CE8EE5F
:104D30002E2EE3E03E2E412C512CA114B104A9F1FA
:104D40000E94F60E0093DD021092DC021093DB024B
:104D5000F092D802E092D702D092DA02C092D90241
:104D600089ED97E10E940C131093DD029092D80216
:104D70008092D7027092DA026092D9021093DC021C
:104D80001092DB020E941811A20191010E94A33728
:104D900020FD04C08DEC97E10E940C130E946C1161
:104DA000CCCF4FEFA41AB40A1BCF64E190E080E0AF
:104DB0000E94861A6CE081E090E00E94861A0E94B0
:104DC000EE1AFBCD20E030E0A901C701B6010E9438
:104DD000003687FFBDCED5011D921D921D921C92FB
:104DE0001397B6CEC090BD02D090BE02E090BF0235
:104DF000F090C002A7019601C501B4010E940036DF
:104E000087FDBFCE81E08093C50283B1817080931E
:104E1000560289B190E0880F892F881F990B8093E3
:104E20005502209156029091550281E0291380E0AD
:104E300080935402980145E050E060E971E084E617
:104E400090E00E94BA130E94181160937002709350
:104E5000710280937202909373020E94D9130E9490
:104E6000D9130E94F60E82E08093DD02BCE1EB2EA6
:104E7000F12CF092D802E092D70208E110E01093F2
:104E8000DA020093D9028EE098E10E940C130E948E
:104E90006C116CEB72E080E090E00E94E6100E94E2
:104EA000F60E81E08093DC021092DB02F092D802D1
:104EB000E092D7021093DA020093D90287E098E1DA
:104EC0000E940C130E946C116CE271E080E090E093
:104ED0000E94E61080916D0290916E02FC01F595A2
:104EE000E795FEAFEDAFF0937502E093740286E0B4
:104EF0000E94D10F24968FAF2497811195C0809185
:104F00006C02882309F490C00E94D9130E941811E2
:104F10006B017C01C0926802D0926902E0926A0241
:104F2000F0926B0286E00E94D10F892B59F40E9407
:104F300018116C197D098E099F09643F7140810524
:104F4000910580F30E9418116C197D098E099F0943
:104F5000643F71408105910510F40C948A3186EA12
:104F60000E9489116FEF70E089E00E9464100E9436
:104F7000D91319A61092630289A50E94671E89A7FA
:104F80008B3008F03EC0E82FF0E0E753F84D0C946A
:104F9000EC3AE6274D2E962ED72EE52E152F232FF1
:104FA000403151315C316A3120E030E0A901C70164
:104FB000B6010E94003687FF25CF1092B1021092F1
:104FC000B2021092B3021092B4021CCFAE014F5E37
:104FD0005F4F5CA34BA3CE0183969EA38DA311E0EC
:104FE0001093630289A50E94671E89A7823009F485
:104FF000CCC508F051C1882309F495C1813009F46A
:1050000095C10E94EE1A81E080937A022DAD3EADEB
:10501000309375022093740245E050E060E971E03E
:1050200084E690E00E94BA1324963FAD2497309313
:105030006C0280918602882309F1109109011123E5
:10504000E9F00E941811C0906402D0906502E090CF
:105050006602F09067026C197D098E099F0928EE9F
:1050600033E040E050E00E94A337211738F010925F
:1050700086020E94D91381E080930C0180917A020C
:105080008823F1F180918702882351F120E030E0FC
:1050900040EA51E460917602709177028091780243
:1050A000909179020E94D5376B017C016091740266
:1050B0007091750290E080E00E9405369B01AC0182
:1050C000C701B6010E94003687FF05C070E060E0AE
:1050D00089E00E9464100E94D91381E080930C0142
:1050E00010927A0210928702109288020E94181180
:1050F00060937002709371028093720290937302B6
:105100000E94181100917002109171022091720298
:1051100030917302601B710B820B930B20E63AEE09
:1051200040E050E00E94A337122F20936F0280913D
:10513000870281110BC080910B01882339F0281759
:1051400028F081E0809387020E94D9138091880221
:1051500081110BC080910A01882339F0181728F0BB
:1051600081E0809388020E94D9130E94D92080E0B8
:105170000E94F7130E942411882311F40C941B340D
:10518000A0908902B0908A0245EFA41641E0B406CF
:1051900010F00C944F3280918802882311F40C9403
:1051A0002D326FEF70E089E00E9464100E94F60ECD
:1051B0000BE712E0BFE72B2EB2E03B2E82E0882EF9
:1051C000912CA12CB12C93E0492E512C612C712CE7
:1051D0000E94A135A50194010E943A37AB01BC01A0
:1051E0004150510961097109D8018C91682F640FF0
:1051F000613810F00C94A1316C9319A60E94A1356E
:10520000F9A5CF2ED12CF12CE12CA30192010E9403
:105210003A376D5F7F4F8F4F9F4FA701960126173B
:1052200037074807590714F00C94A631D801EC90C1
:10523000F12C0E94A13524E130E040E050E00E94D2
:105240003A376A507109810991096E0D7F1D6034EA
:10525000710530F421E040E890E080E00E94961172
:10526000F801E080F12C0E94A13524E130E040E01B
:1052700050E00E943A37DC01CB010A97A109B1093D
:105280008E0D9F1D21E040E470E060E00E94090F58
:10529000F9A5FF5FF9A7B2CF99A5933009F478C4B7
:1052A000943009F0AECE809102018E3108F0E0C456
:1052B00091E0980F90930201809359020E94BD1BC8
:1052C0008EE098E4A4E2B1E4809318019093190170
:1052D000A0931A01B0931B0122EA3CEB4DED5FE372
:1052E00020931C0130931D0140931E0150931F0118
:1052F0008DE091EEA9E5BBEB809320019093210115
:10530000A0932201B09323012CE031E248E956E357
:1053100020932401309325014093260150932701C7
:105320000E94EE1A5CCE0E943B1F59CEDE01119600
:105330002D01712C612C30E020E06114710421F00A
:10534000F20132972081318141E050E06FEF73E04C
:1053500090E080E00E94BA13B1E0B0930C0186E0C7
:105360000E94D10F21E0892B09F020E020936202F6
:105370001301EFEF2E1A3E0A0E94F60EF1E0F093B1
:10538000DD020E94D92080916D0290916E02959568
:105390008795909375028093740281E00E94F713C1
:1053A00029E130E03093D8022093D7021092DA023C
:1053B0001092D90231E03093DC021092DB0285E2D8
:1053C00098E10E940C136091C7027091C80280910D
:1053D000C9029091CA0242E00E9486171092DC0234
:1053E00041E04093DB02E0E18E2E912C10E000E0E2
:1053F0006801CC0CDD1C580164E0E62EF12C6A1427
:105400007B04A4F1F092D802E092D7029092DA02E3
:105410008092D902F601E850FE4F6081718190E0E0
:1054200080E04AE00E94101788EF0E94071382E292
:1054300098E10E940C136A147B0409F0C4C18091A6
:105440006D0290916E026AE070E0959587950E94DA
:1054500054175FEFA51AB50A80E4E80EF11C92E03C
:10546000C90ED11CA4E8EA16F10449F60E5F1F4FDD
:10547000B8E08B0E911C0A30110509F0B9CF69E034
:1054800070E0C1010E945E180E94F1160E946C112A
:1054900086E00E94D10F892B09F06ECF80916202C5
:1054A00081116ACF80916D0290916E0295958795DA
:1054B000F201819391932F010E94D9136AE070E069
:1054C00080E090E00E94E6103101F9E02F163104EF
:1054D00009F031CF6FEF70E089E00E9464108BEA31
:1054E00094E00197F1F7FE01319621E081919191CD
:1054F000059640815181841795070CF020E04BA15F
:105500005CA1E417F50791F7222309F418C387E09B
:105510008093630264E070E089E090E00E940D3BBC
:1055200098AF8FAB64E070E087E090E00E940D3BA5
:105530009AAF89AF64E070E089E090E00E940D3B93
:105540009CAF8BAF64E070E084E090E00E940D3B84
:1055500098AB8FA764E070E080E190E00E940D3B83
:105560009EA78DA728EFE22E21E0F22ECFA8D8AC7F
:1055700054E2C50ED11C0BAD1CAD2FA838ACF10107
:1055800080E090E0A0E8BFE381939193A193B19371
:105590001F01D7016D917D917D01072E000C880BB5
:1055A000990B0E940736F80161937193819391934F
:1055B0008F01C214D30419F729AD3AAD38A72FA330
:1055C00069013CE1C30ED11C09AD1AADD8011D9291
:1055D0001D921D921D928D01FE013196FAABE9AB31
:1055E000EFA8F8AC812C912C5401D7014D905D901F
:1055F0006D907D907D01A3019201C501B4010E94CF
:10560000D5374B015C01E9A9FAA961917191FAAB17
:10561000E9AB9701245031093EAB2DAB072E000CAE
:10562000880B990B0E940736A30192010E946636EF
:10563000ADA9BEA96D937D938D939C931397E214AE
:10564000F30499F6F801349780829182A282B382A2
:105650000C151D0509F0BACFEFA5F8A9FEABEDAB0F
:105660006F01F0E1CF0ED11C0FA518A92BAC3CACFB
:1056700024E2220E311CD8011D921D921D921D9212
:105680008D01FE013196FAABE9ABEBACFCAC812CA1
:10569000912C5401D7014D905D906D907D907D01CE
:1056A000A3019201C501B4010E94D5374B015C01F1
:1056B000E9A9FAA961917191FAABE9AB970124507C
:1056C00031093CAB2BAB072E000C880B990B0E94C9
:1056D0000736A30192010E946636ABA9BCA96D935F
:1056E0007D938D939C9313972E143F0499F6F801A4
:1056F000349780829182A282B382C016D10609F0CB
:10570000BACF4DA55EA5405C5F4F2DA53EA590E0AC
:1057100080E0F901E80FF91FAFA1B8A5A80FB91FE4
:10572000CD90DD90ED90FC90C082D182E282F38238
:1057300004968031910569F7EFA1F8A53496F8A792
:10574000EFA3205F3F4F4217530709F7ADA5BEA552
:10575000B8A7AFA3B12CA12C1AAA19AAEFA1F8A53A
:10576000C080D180E280F380E894F7F81501FFEF64
:105770002F1A3F0A2FA138A53CAB2BAB8501410165
:1057800033E08316910461F1ABA9BCA954964D9006
:105790005D906D907C905797E89477F8A7019601FB
:1057A000C301B2010E942D391816C4F02601370139
:1057B000BFEF8B1A9B0AEBA9FCA97496FCABEBAB71
:1057C00073016201DDCF6AE070E0E1E0F0E0EC0F30
:1057D000FD1FEC0DFD1D8081918139CE8401E8CF44
:1057E000A016B10609F44AC0ADA4BEA429A93AA9DD
:1057F000A20EB31E000F111F000F111FF801EE0FB4
:10580000FF1FEE0FFF1F4DA55EA5E40FF51F90E0F3
:1058100080E0D5014D915D916D917D915D01C080DC
:10582000D180E280F3809D0124503109D901CD92CD
:10583000DD92ED92FC921397419351936193719392
:1058400001968430910529F7EDA9FEA98081918107
:10585000A281B3812FA538A9020F131FF80140813F
:10586000518162817381EDA9FEA9408351836283D6
:105870007383F80180839183A283B3832DA93EA90A
:105880002C5F3F4F26963FAF2EAF269710EFA12EED
:10589000BB24BA9449A95AA9A41AB50A0FA118A5FC
:1058A0003CAB2BAB6101780154E1E50EF11C4101E9
:1058B000F501EE0DFF1D89A99AA9E80FF91FD8017E
:1058C00050962D913D914D915C91539760817181DE
:1058D000828193810E946636EFA1F8A520813181F3
:1058E000428153810E9446389B01AC01D7016D91E2
:1058F0007D918D919C910E94D437F70161937193B2
:10590000819391937F01FFEF8F1A9F0A24E0821603
:10591000910471F6ABA9BCA94D905D906D907D90FE
:10592000BCABABAB7D01B4E0EB1AF108EDA9FEA96D
:105930002081318142815381D80150966D917D91B2
:105940008D919C9153970E946636EFA1F8A5208116
:105950003181428153810E9446389B01AC01C301D1
:10596000B2010E94D437D7016D937D938D939C93A0
:105970001397BFEFCB1ADB0A005F1F4FE0E1AE1AAF
:10598000B108F4E0CF16D10409F08DCF2FA138A5CE
:105990002C5E3F4F38A72FA349A95AA9405F5F4FFC
:1059A0005AAB49AB510126968EAD9FAD26979EAB63
:1059B0008DAB93E02916310409F0D0CE8FA498A8BE
:1059C00020E1820E911C8E01015E1F4FEDA4FEA40A
:1059D0003CE3E30EF11CF401B291A2919291829109
:1059E0004F01F80180839183A283B3835101D12CAD
:1059F000C12CD8014D905D906D907C90BFEFAB1A9B
:105A0000BB0AE4E0CE0ED11CF4E0AF16B104E9F01D
:105A1000F801EC0DFD1D2081318142815381F70198
:105A2000EC0DFD1D60817181828193810E9466363B
:105A30009B01AC01C301B2010E94D437D8016D9320
:105A40007D938D939C931397D4CFF701208131815F
:105A500042815381C301B2010E944638D8016D933F
:105A60007D938D939C931397B1E02B1A31080450CA
:105A70001109E4E1EE1AF108FFEF2F163F0609F0D5
:105A8000AACF8FA998AD0E94C53B89AD9AAD0E945F
:105A9000C53B8BAD9CAD0E94C53B8FA598A90E94CC
:105AA000C53B8DA59EA50E94C53BCE0101960E94D7
:105AB000C53BCE0143960E94CE1880E00E94671E2F
:105AC0008823B9F0FE017396A8E1B1E041915191AC
:105AD000619171914D935D936D937D932DA13EA145
