:100000000C94F00C0C94180D0C94180D0C943521D4
:100010000C94180D0C94180D0C9420210C94180DB0
:100020000C94180D0C94180D0C94180D0C94180DBC
:100030000C94180D0C94180D0C94180D0C94180DAC
:100040000C94D6200C94180D0C94180D0C94180DCB
:100050000C94180D0C940C220C94180D0C94180D83
:100060000C94180D0C94180D05A84CCDB2D44EB9B3
:100070003836A9020C50B9918688083CA6AAAA2A4B
:10008000BE000000803F07634236B79BD8A71A39ED
:10009000685618AEBAAB558C1D3CB7CC5763BD6DD6
:1000A000EDFD753EF6177231BF000000803F08007D
:1000B0000000BE922449123EABAAAA2ABECDCCCCE7
:1000C0004C3E00000080BEABAAAAAA3E0000000081
:1000D000BF000000803F0000000000084178D3BB53
:1000E0004387D1133D190E3CC3BD4282AD2B3E6800
:1000F000EC8276BED98FE1A93E4C80EFFFBE01C4F1
:10010000FF7F3F0000000000800400003FF0383017
:1001100033103F90381033902790261030903FF0E6
:1001200000008004800400003FF03870303023105D
:10013000279020102010279027903FF00000800487
:10014000800400003FF03CF03CF02010249024900C
:1001500020103CF03CF03FF00000800480040000E0
:100160003FF037B023103030387038703030231003
:1001700037B03FF000008004FCF4F860E044C08C2D
:10018000C11CC22CC44CC88CD10CA204C4048FFC6A
:10019000187CBCFC8000BFF81FF8B0281FF8B4081A
:1001A0001FF8B1081FF8B048BFF8B288BFF8800048
:1001B0008000BFF81FF8B0081808B9E819B8B838B7
:1001C0001838B9B8B9F8B0F8BFF8800015543FF83E
:1001D00015503FF01550387010203104138C22A8B0
:1001E00017FC2AA80000000015543FFC15543FFCE2
:1001F00015543C0414043CFC14543CFC005400A86A
:1002000000000000800400003FF03CF034B0249077
:10021000249027902310303038703FF00000800485
:10022000FF7CFE7CFCECE8DCC84C984C8824082061
:1002300000000000000000008004E01CF3FCE7FC6C
:10024000CE0C8E1C9F9C1F3C1F0C0E0C0FFC87F8C5
:1002500081E4C00CE01CF87C0004580858085808D9
:1002600040087FF860185FE85B685FE85B681CE83F
:100270005FE80000800400003FF03CF03CF03CF000
:10028000201020103CF03CF03CF03FF000008004D7
:10029000F87CF7BC00007FF80000BFF4AB54AB540F
:1002A000AB54AB54AB54AB54BFF4C00CF03CCE0CCD
:1002B000BF04B30473007F007E007C007C007C6080
:1002C000BC64BE04CF0CF03C81DC559C2904550075
:1002D000299055D003FCFF002E002670025082703A
:1002E000E600EE04800C001C3FF43FE03FC4378C76
:1002F0002318303038703CF03FF03FF000008004AD
:10030000058074B857A876B80580F97C4694AAA8E9
:10031000F97C068874A8578C75740698F03CCE4C0E
:10032000BC34B814188010804230607860F844C043
:100330008004B884CFCCF03CE01CC00C8FC49FE498
:100340009FE49FE400000300030003000780078090
:1003500003008004F87CC00CC00CCFCCCFCCCFCC39
:10036000CFCCCFCCCFCCC84CC84CCFCCC00CC00C61
:10037000F87C8004BCF43FF03870B7B4B6B4B5B4C0
:10038000B7B438703FF0BCF48004F87CFCFCF87C17
:10039000E01CC00CC00CC00CC00CC00CC00C800415
:1003A0008004FFFCF87CFCFC8004000020001000AE
:1003B00008001000270000000000000000000000FE
:1003C00000008004C3FC18001800C3FCFFFCFF0CF5
:1003D00000600060FF0CFFFCF0FC06000600F0FC73
:1003E0008FC4102020104CC89FE43DF03DF01DE06C
:1003F0003EF03F709FE48CC400003030F87CF33C4A
:10040000F4BCF6BCF4BCF6BCF4BCE49CC84CD02CE8
:10041000D02CC84CE79CF03C882408203830383079
:10042000383038303830383039303BB03FF03FF07A
:100430000000800400000000000F1DC208000544F9
:1004400042080003845FBF000FE44410000115451B
:100450001000054CC97F8009244F900007C4C110CB
:1004600000054D413F00055443810007C44D020083
:100470000544411400055541080007C881040000E7
:1004800000000000000000000001083FFE001FFF08
:10049000810000004002000007FE0FF8000402087F
:1004A0000800040208880007FE0888000402088883
:1004B00000040208880007FE0888000402094800BA
:1004C000040202300007FE040C00040218040000BD
:1004D00000000000000000000007FE13FE00040200
:1004E0000840000402084000040201FC0004023835
:1004F0008400040208840007FE0FFF0004020800C5
:1005000000040209FE00040209020004020B0200BA
:1005100004020D020007FE09FE00040201020000B1
:1005200000000000000000000001100080001FFF1C
:1005300080800001103FFF00004004080007FC0419
:100540000800044404100004440210000444022083
:10055000001FFF812000004000C00000A00130000B
:100560000110020800060C0C07001803B00200007E
:10057000000000000000000000004000800000407B
:100580000080000FFF3FFF000841040800084104FD
:100590000800084104100008410210000FFF02206B
:1005A000000841012000004000C000004001300070
:1005B000004002080000400C07000040300200002C
:1005C0000000000000000000001FDF1020000212E9
:1005D0000C20000224042000047F8020000424B8A2
:1005E00020000FA488500014BF88500004A4885035
:1005F0000004A488480004BF88880004A48A8800F6
:1006000007A48C840004448907000081860200004E
:100610000000000000000000000FF0049100044002
:10062000025200047F905400045088FF0007D084D9
:1006300081000451008100044901FF0007CA0281C2
:10064000000444048100044A1CFF0007EA048100FE
:100650000C510481000061C48500004080820000CC
:1006600000000000000000000007FF802000008460
:1006700007FF0000840401000084040100008404DA
:1006800001000FFFC7FF0000840400000084040085
:1006900000008405FF000084050100010409010039
:1006A0000104090100020411FF000404010100001B
:1006B000000000000000000000008204FF00004471
:1006C00002010007FF902100001010210000101708
:1006D000FD0000101021000FFFD06100001010A1DC
:1006E00000002811210000281221000044142100DC
:1006F000008210A1000301D045000C009002000010
:10070000000000000000000000084410FE00042863
:1007100010920005FF22920000103C920000100889
:1007200092001CFE109200041020FE0004103E9265
:100730000005FF809200041000920005100E920048
:100740000610309200041000FE000010008200002D
:1007500000000000000000000007DF8840000A24BD
:10076000104000114210FE00040022820002FF3DF2
:10077000020008010A420009F9103200090920129A
:100780000009F93E0200090900020009090E0200F1
:1007900009F93022000805001400080200080000D2
:1007A0000000000000000000000FC3F1E0000FE3B4
:1007B000F1F8000C70C19E000C30C186000C30C1F5
:1007C00083000C30C183000C60C183000C60C183C6
:1007D000000FC0C183000FC0C186000C00C186009D
:1007E0000C00C198000C03F1F8000C03F1E00000CC
:1007F00000000000000000000000200820000FFFA3
:1008000009FC00002008000000203E880003FE08CC
:10081000500002020BFE0003FE0C400002021840D2
:100820000003FE2BFE00020208480003FE088800B9
:10083000020208500002022830001FFF91CC000085
:10084000000000000104047C0000880444000FFF45
:100850003F4400002004440000200C440000200E0F
:1008600044001FFF9544000020144400005024441D
:100870000000500444000088044500010404850081
:1008800006038503001801040000000000000000BA
:100890000000000002FE01000002823FFF0004820F
:1008A00002000004FE0200000C1004FC00141004FE
:1008B000080005FF8C10000410141000043825FFF8
:1008C0000004340410000452041000049184100049
:1008D0000510045000041004200000000000000077
:1008E000000000000000000000047E21FC00044223
:1008F0001104001F7E090400044221FC000542117E
:100900000400067E1104000C0005FC0015FF8800A1
:1009100000040813FE000448325200044F12520033
:10092000044812520014A8125200091F97FF000039
:1009300000000000000000000002103DFC0002105A
:10094000250400041025040005FFBDFC000C102543
:1009500020000C38252000143825FE0004543D20CA
:1009600000045425100004922510000511A509006B
:1009700006113D450004102583000410010100000C
:100980000000000000000000001FC8102000124AF4
:100990000C20001AC904200017480020001FFFB8CF
:1009A000200002080850001FC80850000208085024
:1009B0000003C80848001E1408880001540A880073
:1009C00015220C84001443890700008106020000F0
:1009D00000000000000000000002030010001FDC07
:1009E0003EFE000890021200051004FF001FDF8485
:1009F000120002120CFE001FD2021000021222FE90
:100A0000000A921410000A5214100012220DFF0066
:100A100002220810000A42141000040223FF000002
:100A20000000000000000000000F78BC2000094812
:100A3000A45000094AA85000094AA88800094AB1F0
:100A400004001FFEAAFB00094AA42000094AA420B2
:100A500000094AA7FE00094AB420000948A9240059
:100A60000B48A22200088AA4A2001119204000000D
:100A70000000000000000000000020008000005086
:100A800001FC000088010400010403080006FB04C7
:100A900090000800C0600007DF01800004510600DC
:100AA0000004511BFE00045102020007D90202009B
:100AB0000456020200001003FE00001002020000B3
:100AC0000000000000000000000208209000027FEB
:100AD0009890001F8009FF00022201100006218B60
:100AE000100007628DFE000AA20910000A141110FE
:100AF00000121431FE00020811100002141110003F
:100B00000222111000024391FF0002811100000037
:100B1000000000000000000000100700000008F8BE
:100B20003FFE000480200200008020020000BE235F
:100B3000E2001C8222220004A42222000494222229
:100B4000000488222200049423E2000522200200EF
:100B500005422002000A003FFE0011FFA002000033
:100B600000000000000000000000820FFE000044B2
:100B700000400007FF80400000100040000010000F
:100B8000400000101FFF800FFFC040000010004019
:100B90000000280040000028004000004400400001
:100BA00000820040000301C140000C008080000072
:100BB0000000000009FF00400004203FFF00042067
:100BC00000000000FE0000001C420FFC0004420078
:100BD000000007FF80000004000FFC0004FF00007D
:100BE00000048100000005810FFC0006810804005C
:100BF00004FF08040000810FFC000000000000005A
:100C000000000000000000000000401F7E001FFFE9
:100C100084020010808442000A4A0442000A31081B
:100C2000420012C50F42000304197F001DF829017C
:100C3000000040090100084209FD000842090100C6
:100C400008420F01000FFE0905000002000200002B
:100C500000000000000000000001000FFE00010085
:100C600008200003FF0820000201082000042208D9
:100C7000200008200BFE001020082000005008284B
:100C8000000050082400008808220000881020007E
:100C900001041020000203A7FF000C010000000067
:100CA000000000000008000000021F88FE001FD0A6
:100CB0000E22000420302200045F80220007849E60
:100CC000220004850822000494082200049428FECF
:100CD0000004971E42000494084200089408420051
:100CE0000AAC0A420011440C4200008389FF000054
:100CF00000000000000000000000400080001FFF16
:100D00009FFC0000400410000FFF02200000003F85
:100D1000FF000FFE00000008420FF800084208081C
:100D2000000FFE08080008020FF80008000808007D
:100D3000080008080008000FF8001000080800006C
:100D400000000000000000000007FE0FF800040291
:100D5000000000040200000007FE00000004023F43
:100D6000FE00040200800007FE0080000090049056
:100D70000008910C880006931086000294208200DF
:100D8000009000800000900280001FFF81000000A2
:100D9000000000000000000000041012020005FF27
:100DA0009FD20005009212001E28A2120004443FA8
:100DB000F200048202120006000212000CFE1FD292
:100DC00000141012520004101242000410134200CA
:100DD000041012820015FF820A00080002040000BD
:100DE00000000000000000000000200000000020C3
:100DF0003E04001FFFA204001000A2FF0000012219
:100E000004000FFE22040000403E44000040222463
:100E1000000440222400047C220400044022040038
:100E20000A403E0400094022240010FF8014000004
:100E300000000800000000000010FE0820000882EA
:100E40000BFF0004820A010010FE3C5100088208DA
:100E50008800088209040002FE0C0000040019FC4E
:100E60000009FF282000192908200009290820006E
:100E7000092908200009292BFF000BFF9000000022
:100E80000000000000000000001F7F90F800010833
:100E90000888000A10088800047F0107001FC13A73
:100EA0000000054909FC0004490884000449088839
:100EB000000449084800044908500004490A200079
:100EC00004160C5800142189870008C0860200000F
:100ED000000000005361766500466C6970004D614A
:100EE000696E2053637265656E004A5000454E007E
:100EF000434E00594553004E4F004F4E004F46465B
:100F000000496E666F7300426967005049440044AF
:100F10006972656374005361766500426F6F737424
:100F2000004F666600536C6565700053617665001E
:100F3000426F6F737400536C656570004465666141
:100F4000756C74004164640044656C65746500529E
:100F5000656E616D650043616C6962726174650004
:100F60004368616E67650052657475726E00416218
:100F70006F7574004C616E67004C6F636B004C4F73
:100F80005720566F6C00526F746172790042757A07
:100F90007A65720053637265656E00436F6E74729A
:100FA0006F6C0054696D65720054656D7000546912
:100FB00070001FE03FF07038601860186018FFFC88
:100FC000FCFCFCFCFCFCF87CF87CFCFC7FF81E10B4
:100FD00033382D7C25382D3825382D386D80DEC0EE
:100FE000BF40BF40DEC061803F007FF0FFE0C0082F
:100FF000C01CC038C870DCE4CFCCC78CC30CC00C9C
:10100000C00CFFFC7FF8000006000C0018F838F058
:1010100030307060707878F878003C023F0C1FF830
:101020000FF003C000007FF8FFFCC00CC30CCB4CDA
:10103000DB6CDB6CD86CDCECCFCCC78CC00CFFFC61
:101040007FF8030007800FC00CC01CE01CE03CF0E0
:101050003CF07FF87FF8FCFCFCFCFFFC7FF81140C3
:10106000820021208FE023FC82004A23E200FE2040
:101070009FF013F880802220C0804221BFF0FBFA4D
:10108000888002208480022084801A208080E3FEF1
:101090008280020101000F421FC0784110400840C9
:1010A000904008421FC008411040FFFD104008401A
:1010B0005FC00840800008413FE008432520104100
:1010C0002520104125202041252040417FF07FF838
:1010D0004880020049000201FFF0020100100202F4
:1010E0007F202200410023F07F0022000800220020
:1010F000FF80220088802200888022008A802200CF
:101100008900FFFC080023F21FC022111040FBF0F1
:10111000904022121FC02A11104033F1104060008D
:101120005FC0AFFC800020413FE0224325202279B0
:10113000252022412520A541252048FD7FF0108350
:10114000DFC010825040208250402FFFDFC06082FD
:10115000520061C25200A1C25FE022A3D20022A2CB
:10116000510024925100288E5090308BD450208210
:10117000583020801010104047C017FC4440200316
:10118000F44023F844406208C440A3F8E44020013E
:1011900054402FFD44402806444023F8444020405A
:1011A0004450204048502140503020804000209240
:1011B0001FC03DF990402090904040901FC07BFFA1
:1011C0000000A0013FE021F90200FD090200210911
:1011D0007FF021F90500210945002909888031F9AE
:1011E0001070210820202500202070F8AE0FA90FD4
:1011F000A30F9B0F940F8D0F860F7E0F790F740F27
:101200006E0F670F600F560F4F0F480F440F670F99
:101210003C0F360F300F2B0F250F210F1B0F160F12
:101220000F0F0B0F070F010FFD0EFA0EF70EF30E47
:10123000F00EED0EEA0EDE0ED90ED40E3E00536512
:101240006C65637420546970005D203D2000505B24
:101250000000000000003E5B4F5B3E3E6B4F6B3E6C
:101260001C3E7C3E1C183C7E3C181C577D571C1CA9
:101270005E7F5E1C00183C1800FFE7C3E7FF001804
:10128000241800FFE7DBE7FF30483A060E262979ED
:101290002926407F050507407F05253F5A3CE73C4E
:1012A0005A7F3E1C1C08081C1C3E7F14227F2214FF
:1012B0005F5F005F5F06097F017F006689956A6056
:1012C0006060606094A2FFA29408047E040810206D
:1012D0007E201008082A1C08081C2A08081E101066
:1012E00010100C1E0C1E0C30383E3830060E3E0E10
:1012F00006000000000000005F000000070007007B
:10130000147F147F14242A7F2A1223130864623660
:10131000495620500008070300001C2241000041EC
:10132000221C002A1C7F1C2A08083E080800807026
:101330003000080808080800006060002010080459
:10134000023E5149453E00427F40007249494946AC
:101350002141494D331814127F1027454545393C2A
:101360004A49493141211109073649494936464917
:1013700049291E0000140000004034000000081439
:1013800022411414141414004122140802015909B2
:10139000063E415D594E7C1211127C7F4949493607
:1013A0003E414141227F4141413E7F494949417F80
:1013B000090909013E414151737F0808087F004136
:1013C0007F41002040413F017F081422417F40407F
:1013D00040407F021C027F7F0408107F3E41414154
:1013E0003E7F090909063E4151215E7F09192946C0
:1013F000264949493203017F01033F4040403F1FD6
:101400002040201F3F4038403F631408146303040A
:101410007804036159494D43007F4141410204086A
:101420001020004141417F0402010204404040403D
:1014300040000307080020545478407F2844443873
:101440003844444428384444287F385454541800BD
:10145000087E090218A4A49C787F0804047800443C
:101460007D40002040403D007F1028440000417F27
:1014700040007C047804787C0804047838444444B0
:1014800038FC1824241818242418FC7C08040408A8
:10149000485454542404043F44243C4040207C1CC1
:1014A0002040201C3C4030403C44281028444C90B4
:1014B00090907C4464544C4400083641000000770E
:1014C0000000004136080002010204023C262326E7
:1014D0003C1EA1A161123A4040207A38545455591B
:1014E0002155557941215454784121555478402053
:1014F000545579400C1E527212395555555939546C
:1015000054545939555454580000457C4100024503
:101510007D420001457C40F0292429F0F02825284F
:10152000F07C545545002054547C547C0A097F4972
:1015300032494949323248484832324A4848303ABA
:101540004141217A3A42402078009DA0A07D394453
:101550004444393D4040403D3C24FF2424487E49DA
:1015600043662B2FFC2F2BFF0929F620C0887E090C
:101570000320545479410000447D413048484A32A8
:10158000384040227A007A0A0A727D0D19317D2690
:1015900029292F28262929292630484D4020380876
:1015A00008080808080808382F10C8ACBA2F1028F7
:1015B00034FA00007B000008142A142222142A1492
:1015C000089500220095AA005500AAAA55AA55AA76
:1015D000000000FF00101010FF00141414FF001092
:1015E00010FF00FF1010F010F0141414FC0014147D
:1015F000F700FF0000FF00FF1414F404FC1414179C
:10160000101F10101F101F1414141F00101010F0C2
:10161000000000001F101010101F10101010F0100C
:10162000000000FF101010101010101010FF10001C
:101630000000FF140000FF00FF00001F1017000053
:10164000FC04F414141710171414F404F40000FF2D
:1016500000F714141414141414F700F714141417C6
:101660001410101F101F141414F4141010F010F0A4
:1016700000001F101F0000001F14000000FC1400D9
:1016800000F010F01010FF10FF141414FF141010CD
:10169000101F00000000F010FFFFFFFFFFF0F0F050
:1016A000F0F0FFFFFF0000000000FFFF0F0F0F0F23
:1016B0000F38444438447C2A2A3E147E020206062F
:1016C000027E027E0263554941633844443C044033
:1016D0007E201E2006027E020299A5E7A5991C2AFB
:1016E000492A1C4C7201724C304A4D4D30304878BA
:1016F0004830BC625A463D3E494949007E010101DD
:101700007E2A2A2A2A2A44445F444440514A4440BB
:1017100040444A51400000FF0103E080FF00000800
:10172000086B6B083612362436060F090F060000C8
:1017300018180000001010003040FF0101001F01C8
:10174000011E00191D1712003C3C3C3C000000002B
:101750000000000000240027002A000000000025EF
:101760000028002B000000000023002600290004B0
:101770000404040404040402020202020203030338
:101780000303030102040810204080010204081032
:1017900020010204081020000000080002010000DF
:1017A0000304070000000000000000AED5F0A83FD1
:1017B000D300408D14A1C8DA1281CFD9F1DB40A447
:1017C000A6AF200021007F220007424F4F54204641
:1017D00041494C45440044414D41474544002500A2
:1017E00052202D3E200057202D3E20004641494CDE
:1017F0002D00504153532D002F00204D454D2043C7
:101800004845434B200076312E3874370076312E10
:10181000387437002D3E005265626F6F7400457258
:10182000726F7200202D20004144432D3E20004F56
:101830006E6C79206F6E65004F7574206F66204D59
:10184000656D002B002D004D4F44452000FFFFFF2C
:10185000FFFFFF8003867080038003867080039FF4
:10186000F3E1309FF39FF3E1309FF3983301CC987D
:1018700033983301CC9833983387C098339833E149
:10188000C098339833E1C098339FF398C09FF39F7B
:10189000F398C09FF3800366CC8003800366CC80FE
:1018A00003FFFF010CFFFFFFFF01001FFF8100612D
:1018B000301F3F873CE6FC8733873CE6FC87F3F824
:1018C000039E0F1F03F8039E0F1F03E13CFE0C074E
:1018D000CFE13CFE0C07CF99033E3086C3E6CF38FC
:1018E0000F9EF3E6CF380F9EF39E0327CC81039E15
:1018F0000327CC8103E0FFE10CE6CFE0FFE10CE63B
:10190000CF9803060000FF9803060000FFFFFF1EAC
:10191000F0F8038003663099C38003663099C39F53
:10192000F3010CF8FF9FF3010CF8FF9833393C01E9
:10193000CF9833393C01CF9833FF0C793F98333E31
:10194000CCE0F398333ECCE0F39FF33E0098CF9F7A
:10195000F33E0098CF80033E30E7C380033E30E77C
:10196000C3FFFFFFFFFFFFFFFFFFFFFFFF30303030
:101970000056000FE01FC01FC03F803FF87FF07F80
:10198000E007C007800F000E001C00180010005672
:101990000014A03FF07FF8E01C6E18EC1C68186083
:1019A00018E01C6058E01C7FF83FF014A04300458D
:1019B00052524F5200484F4C440048454154005742
:1019C0004F524B5900424F4F535400534C454550D2
:1019D000004F4646000102040810204080004134B8
:1019E00011241FBECFEFD8E0DEBFCDBF12E0A0E0D4
:1019F000B1E0E6E2F7E702C005900D92A032B10730
:101A0000D9F726E0A0E2B2E001C01D92A33DB207E3
:101A1000E1F71CE0C0EFDCE004C02197FE010E946A
:101A20002A3ACF3ED107C9F70E940D220C94913B70
:101A30000C94000080389105B0F46034710598F47E
:101A4000E5EDF9E190E1969FD001A0781124A80F6F
:101A50006770E60FF11D9491A153BD4F442321F00F
:101A60008C91982B9C93089590958C919823FACF04
:101A70002F923F924F925F926F927F928F929F929E
:101A8000AF92BF92CF92DF92EF92FF920F931F938C
:101A9000CF93DF9300D01F92CDB7DEB7C22ED12CEB
:101AA0009601280F391F37FD4FC0803891050CF083
:101AB0004BC0E9824A017B013C01402E512C1601AA
:101AC00027E0220E311C93E0359427949A95E1F794
:101AD0008B01B12CA12C1B821A82EA81FB8183E04D
:101AE000F595E7958A95E1F7EA0DFB1DE80DF91DDF
:101AF000E4918A819B818770992720E830E002C0B9
:101B0000359527958A95E2F7C901F0E0E223F9239C
:101B1000EF2B41F04981B8018A819B81860D971D89
:101B20000E941A0D8A819B8101969B838A838C1562
:101B30009D059CF2A20CB31C0F5F1F4FC8018E19AC
:101B40009F09841595053CF20F900F900F90DF913F
:101B5000CF911F910F91FF90EF90DF90CF90BF90AA
:101B6000AF909F908F907F906F905F904F903F903D
:101B70002F9008954F925F926F927F928F929F92D3
:101B8000AF92BF92CF92DF92EF92FF92CF93DF930B
:101B9000C090B702D090B802E090B902F090BA02BB
:101BA000A7019601C701B6010E9403384B015C01F1
:101BB000C5E1D1E02C813D814E815F81C701B60135
:101BC0000E940338288139814A815B810E94EF3568
:101BD0002B013C01288539854A855B85C501B40107
:101BE0000E9403389B01AC01C301B2010E94EF3592
:101BF0002B013C01A5019401C701B6010E940338E5
:101C00002C853D854E855F850E9403389B01AC0184
:101C1000C301B2010E94EF35DF91CF91FF90EF90A9
:101C2000DF90CF90BF90AF909F908F907F906F90FC
:101C30005F904F9008954F925F926F927F928F9234
:101C40009F92AF92BF92CF92DF92EF92FF920F934B
:101C50001F93CF93DF9300D000D0CDB7DEB74B01F9
:101C60005C0129013A016701780120E030E0A90117
:101C70000E945B3687FDA6C020E030E0A901C301C9
:101C8000B2010E945B3687FD9DC020E030E0A901D3
:101C9000C801B6010E945B3687FD94C081E02091A7
:101CA0009502309196022130310509F080E0809351
:101CB000B60280927B0290927C02A0927D02B0924A
:101CC0007E0240927F025092800260928102709266
:101CD0008202C0928302D0928402E0928502F09246
:101CE00086026091A9027091AA028091AB02909144
:101CF000AC020E940D3720E030E04AE754E40E9435
:101D0000653669837A838B839C8380928702909265
:101D10008802A0928902B0928A029B01AC01C301A1
:101D2000B2010E9403382B013C0140928B02509279
:101D30008C0260928D0270928E0229813A814B81D1
:101D40005C81C701B6010E9465366B017C01C092BF
:101D50008F02D0929002E0929102F09292028091D2
:101D6000930290919402019769F5A501940160E0B6
:101D700070E0CB010E94EE35609387027093880279
:101D80008093890290938A02A301920160E070E03F
:101D9000CB010E94EE3560938B0270938C0280938E
:101DA0008D0290938E02A701960160E070E0CB0156
:101DB0000E94EE3560938F0270939002809391029F
:101DC000909392020F900F900F900F90DF91CF9110
:101DD0001F910F91FF90EF90DF90CF90BF90AF9049
:101DE0009F908F907F906F905F904F90089580E0CC
:101DF000EFECF2E081118FEF0024819381938193C6
:101E000081930394D1F7EBEBF2E0178616861586E3
:101E100014860895DF92EF92FF920F931F93CF9352
:101E2000DF937C01D22E8B01040F111DEB0177FF94
:101E300002C0D0E0C0E0C8010134110514F080E414
:101E400090E0C817D9073CF44D2DBE01C7010E9490
:101E50001A0D2196F0CFDF91CF911F910F91FF9036
:101E6000EF90DF900895CF92DF92EF92FF920F9361
:101E70001F93CF93DF936B01122FEC017C01E40ED3
:101E8000F11CCE15DF0544F4202F412FB601CE0101
:101E90000E940A0F2196F5CFDF91CF911F910F91EC
:101EA000FF90EF90DF90CF9008950F931F93CF9303
:101EB000DF93EC018B0140E001960E941A0D40E097
:101EC000B801CE0101970E941A0DB8016F5F7F4FD4
:101ED00040E0CE010E941A0DB8016150710940E046
:101EE000CE010E941A0D40E0B801CE01DF91CF91E2
:101EF0001F910F910C941A0DAF92BF92CF92DF9267
:101F0000EF92FF920F931F93CF93DF936C017B01AE
:101F10008B01040F151FEB015E01AE18BF08C0173F
:101F2000D10759F06991D601ED91FC910190F081B2
:101F3000E02DC6010995892B79F7C501DF91CF9175
:101F40001F910F91FF90EF90DF90CF90BF90AF90D7
:101F50000895833081F028F4813099F08230A9F01F
:101F600008958730A9F08830C9F08430B1F48091A9
:101F700080008F7D03C0809180008F7780938000E8
:101F8000089584B58F7784BD089584B58F7DFBCF88
:101F90008091B0008F778093B00008958091B00059
:101FA0008F7DF9CFCF93DF93282F30E0F901E956E9
:101FB000F84E8491F901ED57F84ED491F901E159A9
:101FC000F84EC491CC23A1F081110E94A90FEC2FEF
:101FD000F0E0EE0FFF1FEB59F84EA591B491EC9194
:101FE000ED2381E090E009F480E0DF91CF91089546
:101FF00080E090E0FACF1F93CF93DF93282F30E05B
:10200000F901E956F84E8491F901ED57F84ED49153
:10201000F901E159F84EC491CC23A9F0162F811192
:102020000E94A90FEC2FF0E0EE0FFF1FE55AF84ECB
:10203000A591B4918FB7F894EC91111108C0D09587
:10204000DE23DC938FBFDF91CF911F910895DE2BAC
:10205000F8CFCF93DF9390E0FC01ED57F84E249139
:102060008159984EFC0184918823C9F090E0880F33
:10207000991FFC01EF5AF84EA591B491FC01E55A65
:10208000F84EC591D49161110DC09FB7F8948C9111
:10209000209582238C938881282328839FBFDF91FA
:1020A000CF910895623051F49FB7F8943C91822FFC
:1020B000809583238C93E8812E2BEFCF8FB7F894F4
:1020C000EC912E2B2C938FBFEACF1F93CF93DF93EE
:1020D000182FEB0161E00E942910209739F460E08D
:1020E000812FDF91CF911F910C94FB0FCF3FD10532
:1020F00011F461E0F5CFE12FF0E0E956F84EE491FC
:10210000E33031F140F4E130B1F0E230E1F0C038D9
:10211000D1057CF7E4CFE73029F1E83059F1E4301C
:10212000B1F780918000806280938000D0938B0013
:10213000C0938A0004C084B5806884BDC7BDDF91A8
:10214000CF911F91089584B5806284BDC8BDF7CF3B
:1021500080918000806880938000D0938900C09334
:102160008800EDCF8091B00080688093B000C0936C
:10217000B300E5CF8091B00080628093B000C0933F
:10218000B400DDCF3FB7F89480913E0290913F02BA
:10219000A0914002B091410226B5A89B05C02F3FF7
:1021A00019F00196A11DB11D3FBFBA2FA92F982F7D
:1021B0008827BC01CD01620F711D811D911D42E078
:1021C000660F771F881F991F4A95D1F708958F9240
:1021D0009F92AF92BF92CF92DF92EF92FF924B010C
:1021E0005C010E94C2106B017C010E94C2106C193C
:1021F0007D098E099F09683E734081059105A8F30A
:1022000021E0821A9108A108B10888EEC80E83E087
:10221000D81EE11CF11C81149104A104B10429F71A
:10222000FF90EF90DF90CF90BF90AF909F908F90F6
:1022300008952FB7F89460913A0270913B02809113
:102240003C0290913D022FBF089584E98093BC0029
:102250008091BC0084FDFCCF08958093BB0084E88E
:102260008093BC008091BC0087FFFCCF089584EA76
:102270008093BC008091BC0087FFFCCF88E70C9462
:102280002D110E94371180E48093BB0084E8809375
:10229000BC00EFECF2E09091BC0097FFFCCF919175
:1022A0009093BB008093BC0096E0EF3CF90799F750
:1022B0008091BC0087FFFCCF0C942511CF93C82FD1
:1022C0000E94371180E00E942D118C2F0E942D1149
:1022D000CF910C94251180389105B4F5480F592FF2
:1022E000511D4138510514F040E850E0481BFB01F6
:1022F00077FD379633E0F595E7953A95E1F7F69552
:10230000FE2FEE27F795E795E80FF91FE153FD4FF4
:102310006770772781E090E001C0880F6A95EAF73F
:10232000382F213041F4415078F08191DF0111972D
:10233000832B8C93F8CF8095415030F09191DF0141
:10234000119798239C93F8CF0895CF92DF92EF9244
:10235000FF920F93CF93DF936C017B01C42FD22F99
:102360006034710524F4202FC6010E946B11B7015F
:102370006D0F711D61507109603471052CF4202FAF
:102380004C2FC6010E946B11202F4D2FB701C601A3
:102390000E940A0FC6018C0F911D202F4D2FB701EF
:1023A0000197DF91CF910F91FF90EF90DF90CF9049
:1023B0000C940A0F2F923F924F925F926F927F92EE
:1023C0008F929F92AF92BF92CF92DF92EF92FF9245
:1023D0000F931F93CF93DF93CDB7DEB72A970FB636
:1023E000F894DEBF0FBECDBF9A8389836A3061F552
:1023F000DC0152968C91B8E08B9F90011124E98109
:10240000FA8186859785820F931F97878687158621
:10241000148681E090E02A960FB6F894DEBF0FBED6
:10242000CDBFDF91CF911F910F91FF90EF90DF9083
:10243000CF90BF90AF909F908F907F906F905F9064
:102440004F903F902F9008956D3019F329813A8174
:102450003A872987D9011C96AD90BC90B0E8AB169D
:10246000B1040CF07BC0F901C684D784F0E4CF1628
:10247000D1040CF073C0D90152966C90529745E08C
:102480009501649E200D311D1124121613060CF0C7
:1024900065C0262C312C910153E0220F331F5A9531
:1024A000E1F72C0D3D1D121613060CF057C0519686
:1024B000BC91BB83E985FA85F089FC83649FB001F8
:1024C00011249B012F5A3D4E3A832983712CE981B7
:1024D000FA818491F5E07F1201C080E0460138E086
:1024E000532E282F30E03E832D834C8080FF4B807D
:1024F000411004C03B818C813817E1F010E000E00E
:102500000615C0F4D501A00FB11FB887AF83F12C19
:10251000E12CE61460F4B701680D791D442D8F811C
:1025200098850E941A0DBFEFEB1AFB0AF2CF0F5FDE
:102530001F4FE6CF8D819E81959587955A94820C89
:10254000931C5110CECF7394E981FA813196FA83AE
:10255000E983A20CB31CF6E07F12B9CFA985BA8536
:1025600052962C915297422F50E01C968D919C913F
:10257000B6E02B9F800D911D1124E985FA85958782
:1025800084872389222309F444CF6AEF64039001EE
:10259000659F300D112420583F4F281739070CF044
:1025A00038CFDF010190F081E02D0190F081E02D26
:1025B0006AE0CD0109952DCF682F8BEB92E00C944A
:1025C000DA110F931F93CF93DF938C01D0E0C0E01B
:1025D000F801EC0FFD1F6491662341F08BEB92E054
:1025E0000E94DA11892B11F02196F2CFCE01DF91F2
:1025F000CF911F910F910895089590E080E0089584
:102600006F927F928F929F92AF92BF92CF92DF9202
:10261000EF92FF920F93CF93DF937C01C62F01E0DF
:1026200020E340E370E060E00E94330F570123E0B5
:10263000A20EB11C00E02AE24AE263E070E0C501AC
:102640000E94330F70E060E0C7010E94550F6701E0
:102650003FE2C30ED11C70E060E0C6010E94550F3E
:102660006FE270E0C7010E94550F6FE270E0C60193
:102670000E94550FEC2FF0E0EE0FFF1FE75CFE4FBE
:102680008080918053E0E52EF12CD12CC12C60E8A4
:10269000662E712CD0E0C0E0FE0133E0F595E795A1
:1026A0003A95E1F7EC0DFD1DE80DF91DE491CE0121
:1026B00087709927930102C0359527958A95E2F78F
:1026C000C901F0E0E223F923EF2B69F0CE01880F76
:1026D000991F8C0F9D1F01E023E043E0B7018A0D95
:1026E0009B1D0E94330F2196CE30D105A9F632E012
:1026F000C30ED11C83E0E80EF11C2DE2E216F104BA
:1027000049F6DF91CF910F91FF90EF90DF90CF903E
:10271000BF90AF909F908F907F906F900895880F9B
:10272000991F9093250280932402660F771F709360
:1027300023026093220280914902882359F050932A
:10274000210240932002220F331F30935C0220931A
:102750005B020895519541955109F1CF0F931F9355
:10276000CF9380916D02882399F0CFEF0FEE11E0A7
:1027700061E085E00E94FB0FC8010197F1F760E07E
:1027800085E00E94FB0FC8010197F1F7C15081F766
:10279000CF911F910F9108953F924F925F926F9248
:1027A0007F928F929F92AF92BF92CF92DF92EF92E1
:1027B000FF920F931F93CF93DF93CDB7DEB72E9782
:1027C0000FB6F894DEBF0FBECDBF8983809178022B
:1027D000882309F4A8C110924A0210924B02109269
:1027E0004C0210924D02C0904A02D0904B02E090F1
:1027F0004C02F0904D0289818111FDC180906402EC
:1028000090906502A0906602B0906702A5019401C5
:10281000C701B6010E94EE352B013C0120E030E0FB
:10282000A9010E94FE3718160CF0A0C1C301B20125
:102830000E94DE3680910801882309F4B8C1809295
:10284000350290923602A0923702B0923802E12C03
:10285000F12C00EA10E420E030E040E450E46E3176
:10286000710540F0E12CF12C00E81FE320E030E09E
:1028700040E05FE360E070E080E391E40E941B0EC3
:102880008091B502882309F42AC10E9419116D8331
:102890007E838F83988780919D0290919E02A09164
:1028A0009F02B091A0024D815E816F817885481BA7
:1028B000590B6A0B7B0B8091A9029091AA02A091FF
:1028C000AB02B091AC02481759076A077B0708F4BE
:1028D00006C1E0919702F091980280819181A281D6
:1028E000B38189839A83AB83BC83E0919B02F0918F
:1028F0009C029C01AD0160817181828193810E9463
:10290000EE354B015C012091A5023091A602409169
:10291000A7025091A80269817A818B819C810E94D3
:10292000EE356B017C0120918B0230918C0240913D
:102930008D0250918E02C501B4010E94033820918E
:10294000A1023091A2024091A3025091A4020E94E0
:10295000EF352B013C014092A1025092A2026092FD
:10296000A3027092A4023090B60231101AC02091D6
:102970008702309188024091890250918A02C701F2
:10298000B6010E9403389B01AC01C301B2010E9451
:10299000EE356093A1027093A2028093A3029093FC
:1029A000A4024090A1025090A2026090A3027090F5
:1029B000A4021091B1029091B2029E87A091B3023D
:1029C000AD870091B402212F392F4A2F502FC30118
:1029D000B2010E94FE3718160CF0CCC0812F9E85E4
:1029E000AD85B02F8093A1029093A202A093A30281
:1029F000B093A402332009F4D6C02091870230910D
:102A000088024091890250918A02C501B4010E9456
:102A100003384B015C0120918F023091900240916C
:102A2000910250919202C701B6010E9403389B01A6
:102A3000AC016091A1027091A2028091A3029091D9
:102A4000A4020E94EE35A50194010E94EF356B01AE
:102A50007C019B01AC01612F7E858D85902F0E94AA
:102A60005B3687FD18C01091AD029091AE029E8733
:102A7000A091AF02AD870091B002212F392F4A2FCC
:102A8000502FB601C7010E945B3687FD04C01C2D84
:102A9000DE86ED860F2DE0919902F0919A02812F4A
:102AA0009E85AD85B02F80839183A283B383898176
:102AB0009A81AB81BC818093A5029093A602A093DA
:102AC000A702B093A8028D819E81AF81B8858093C3
:102AD0009D0290939E02A0939F02B093A0026091EA
:102AE00072027091730280917402909175020E943B
:102AF000D73689E02E960FB6F894DEBF0FBECDBF55
:102B0000DF91CF911F910F91FF90EF90DF90CF90C9
:102B1000BF90AF909F908F907F906F905F904F90FD
:102B20003F900C9465108091770260910401709140
:102B3000050181110EC08091620290916302209183
:102B40007602BC01222329F060910301680F792FDE
:102B5000711D90E080E00E940D3760934A027093EF
:102B60004B0280934C0290934D023DCEC301B201C3
:102B700090585ECE8091AD029091AE02A091AF02CE
:102B8000B091B00289879A87AB87BC879C01AD0161
:102B9000C301B2010E945B3687FF2CCF89859A85DD
:102BA000AB85BC851FCF812C912C540134CF20E004
:102BB00030E040E05FE3C501B4010E94EF35A701BA
:102BC00096010E945B3687FF09C010927202109234
:102BD0007302109274021092750281CF80E090E02F
:102BE000AFE7B3E48093720290937302A0937402F0
:102BF000B093750274CF20E030E040E05FE3609175
:102C0000B7027091B8028091B9029091BA02D5CF03
:102C100080917A00806980937A008EE480937C00B2
:102C200061E070E080E090E00E94E71083B7817F70
:102C3000826083BF80E130E020E093B7916093BF72
:102C4000889593B79E7F93BF90917A0096FDFCCFB5
:102C50004091780050917900240F351F815069F719
:102C600080917A008F7780937A0084E0369527955B
:102C70008A95E1F750E040E064EB7BE281E190E08F
:102C80000E948B35C901089580917A0080698093F4
:102C90007A0088EC80937C006AE070E080E090E04D
:102CA0000E94E71083B7817F826083BF80E270E07B
:102CB00060E093B7916093BF889593B79E7F93BF71
:102CC00090917A0096FDFCCF2091780030917900A8
:102CD000620F731F815069F780917A008F7780931C
:102CE0007A00769567957695679562527A4090E07E
:102CF00080E00E940D3726EF38E24CE151E40E945B
:102D00006536089590917A00906990937A008E507C
:102D1000806480937C0083B7817F826083BF20E2E0
:102D200090E080E033B7316033BF889533B73E7FA2
:102D300033BF30917A0036FDFCCF4091780050913E
:102D40007900840F951F215069F720917A002F7721
:102D500020937A0025E0969587952A95E1F70895C6
:102D60008FE00E948216A0914502B09146029C011C
:102D70000E94DF350E940F3728E539E743E353E42B
:102D80000E9465360E94DE36CB0108958091500284
:102D9000882369F086E00E94D20F892B41F06AE017
:102DA00070E080E090E00E94E710109250020895D9
:102DB000FC0101900020E9F73197AF01481B590B46
:102DC000BC018BEB92E00C947C0F8F929F92AF92A0
:102DD000BF920F931F93CF93DF93CDB7DEB7A19729
:102DE0000FB6F894DEBF0FBECDBF19A2423008F473
:102DF0004AE08E010F5D1F4F842E912CB12CA12C27
:102E0000A50194010E94BD35E62FB901CA01EA303F
:102E1000F4F4E05DD801EE938D01232B242B252BB8
:102E200079F790E080E0109719F0CD010E94D81654
:102E3000A1960FB6F894DEBF0FBECDBFDF91CF9144
:102E40001F910F91BF90AF909F908F900895E95C74
:102E5000E1CFCF92DF92EF92FF92CF93DF936C019D
:102E6000990FEE08FF086A307105D1F44AE0F7FEC9
:102E700018C08DE20E94DC12EC0166277727CB0197
:102E80006C197D098E099F094AE00E94E5168C0F96
:102E90009D1FDF91CF91FF90EF90DF90CF9008952D
:102EA000462FC701B601DF91CF91FF90EF90DF90E1
:102EB000CF900C94E5164F925F926F927F928F9213
:102EC0009F92AF92BF92CF92DF92EF92FF920F93B9
:102ED0001F93CF936B017C01742EAC019B010E9468
:102EE000C838882399F083E192E0CF911F910F9128
:102EF000FF90EF90DF90CF90BF90AF909F908F901A
:102F00007F906F905F904F900C94D81646015701B8
:102F1000E894B7F82FEF3FEF4FE75FE7C501B40143
:102F20000E94C83881110DC02FEF3FEF4FE75FE7D8
:102F3000C501B4010E945B3618161CF487E192E0CB
:102F4000D4CF2FEF3FEF4FE75FE4C701B6010E94F8
:102F5000FE3718161CF48BE192E0C7CF2FEF3FEF3E
:102F60004FE75FECC701B6010E945B3687FDF3CFE8
:102F700020E030E0A901C701B6010E945B3610E0F5
:102F800000E087FF08C08DE20E94DC128C01F7FA96
:102F9000F094F7F8F094C0E060E070E080E09FE328
:102FA0007C1641F020E030E040E251E40E946536BA
:102FB000CF5FF6CFA70196010E94EF352B013C01B0
:102FC0000E94DE364B015C014AE00E94E5167C015E
:102FD000E00EF11ECC23B1F1C501B4010E940D3702
:102FE0009B01AC01C301B2010E94EE354B015C01B3
:102FF0008EE20E94DC12E80EF91EC15018F120E0AA
:1030000030E040E251E4C501B4010E9403382B01D5
:103010003C010E94DE364B01B12CA12C4AE0C501D7
:10302000B4010E94E516E80EF91EC501B4010E9424
:103030000D379B01AC01C301B2010E94EE354B017B
:103040005C01DBCFC701CF911F910F91FF90EF90F3
:10305000DF90CF90BF90AF909F908F907F906F90B8
:103060005F904F900895CF92DF92EF92FF920F936F
:103070001F93CF93DF937C010E94F70E81E0809332
:10308000CD0200E110E0D0E0C0E08CE0C82ED12CF1
:10309000D092C802C092C7021093CA020093C9021C
:1030A0008EE492E10E94E11267E070E0CE010E949E
:1030B000291789E492E10E94E112F701619171916F
:1030C000819191917F0147E00E945B172196085FF3
:1030D0001F4FC430D105E1F60E94411186E00E94E5
:1030E000D20F21E0892B09F020E02093500286E0E6
:1030F0000E94D20F892B21F480915002882319F06D
:103100000E94C616F4CFDF91CF911F910F91FF90CF
:10311000EF90DF90CF900895CF92DF92EF92FF92E1
:103120000F931F93CF93DF93C82F81E0DC2FD82715
:10313000D093CC02C093CB028093CD020C2F29E018
:1031400046E666E370E081E090E00E94A5112091E0
:10315000790230917A02253F81E03807B8F4A4E67D
:10316000B0E00E94DF3524EF31E040E050E00E9403
:103170008B35BA01A9014E5F5F4F6F4F7F4F29E03A
:1031800066E370E081E090E00E94330F60914A02B4
:1031900070914B0280914C0290914D020E94D73663
:1031A0009B01AC01A4E6B0E00E94AA3534EFC32E27
:1031B000DD24D394E12CF12CA70196010E948B35DC
:1031C000DA01C9010296A11DB11D02970C2F27E05B
:1031D00043E067E370E00E94330F60914A02709110
:1031E0004B0280914C0290914D020E94D7369B0178
:1031F000AC01A4E6B0E00E94AA35A70196010E94A6
:103200008B35DA01C9010296A11DB11D039721E09A
:1032100045E06FE370E00E94330F60914A027091C5
:103220004B0280914C0290914D020E94D7369B0137
:10323000AC01A4E6B0E00E94AA35A70196010E9465
:103240008B352E5F3F4F4F4F5F4F790181E0E81A7A
:10325000F10806E310E04D2FB801C7010E941A0DD6
:103260000F5F1F4F00341105B1F760914A02709152
:103270004B0280914C0290914D020E94D7369B01E7
:10328000AC01A4E6B0E00E94AA3524EF31E040E0B2
:1032900050E00E948B35DA01C9010296A11DB11DD3
:1032A0000397ED2E04E025E048EE51E16BE370E07A
:1032B0000E94380D0C2F29E047E166E370E088E6B4
:1032C00090E00E94A511609172027091730280914A
:1032D0007402909175020E94D7369B01AC012F5F5A
:1032E000310941095109A7E1B0E00E94AA35CC2477
:1032F000C394DD24DA94ED2CFD2CA70196010E94E5
:103300008B35422F29E066E370E088E690E00E946A
:10331000330FC093CC02D093CB0282E090E0909325
:10332000C8028093C70207E310E01093CA0200931B
:10333000C90260914A0270914B0280914C029091B7
:103340004D0240E00E945B1789E690E09093C8022E
:103350008093C7021093CA020093C902609172025F
:103360007091730280917402909175020E94D73619
:103370009B01AC012F5F310941095109A4E6B0E07E
:103380000E94AA35A70196010E948B3569017A0136
:103390004AE0C701B601F7FE0BC08DE20E94DC12C5
:1033A00066277727CB016C197D098E099F094AE0B2
:1033B0000E94E51686EE91E10E94E112D093CC02C4
:1033C000C093CB02DF91CF911F910F91FF90EF90AF
:1033D000DF90CF9008951F93CF93DF93EC01162FCA
:1033E0000E947535181739F0612FCE01DF91CF910A
:1033F0001F910C947D35DF91CF911F9108950C940E
:1034000075358F929F92AF92BF92CF92DF92EF92DB
:10341000FF920F931F93CF93DF939BE1899F8001CE
:103420001124E80165969DE0E92E91E0F92E6801EE
:10343000ECE1CE0ED11CCE010E94FF19F701819361
:103440007F012196CC15DD05B1F785E1C82E81E01D
:10345000D82E7801FCE2EF0EF11C5E0184E0A80E8C
:10346000B11C289646018501C8010E947535F401FA
:1034700081934F010F5F1F4FC017D107A9F7F4E0E9
:10348000CF0ED11CE501EA14FB0439F7DF91CF918F
:103490001F910F91FF90EF90DF90CF90BF90AF9072
:1034A0009F908F9008959F92AF92BF92CF92DF929C
:1034B000EF92FF920F931F93CF93DF93D090470229
:1034C000FF24F394D11001C0F12C2D2D30E0609138
:1034D00002016150770B41E050E090E080E00E94F3
:1034E0008F1386E00E94D20F21E0892B09F020E0A3
:1034F00020935002BB24B39452E0A52E0CE010E0C0
:103500000E94F70EC0915B02D0915C02D595C795E1
:10351000EC2E8F2DFF0C990B8C0F911D8D1991099D
:10352000F12C97FD06C08330910514F082E090E005
:10353000F82EB092CC021092CB02A092CD02109243
:10354000C8021092C7021092CA021092C9028EE3FA
:1035500092E10E94E1121092CC02B092CB02109242
:10356000C8021092C7028F2D0F2C000C990B0196E8
:1035700024E0880F991F2A95E1F79093CA0280935F
:10358000C9028CE392E10E94E1129C2E9F1830E167
:10359000C32ED12C80910201981690F41093C8028A
:1035A0000093C702D092CA02C092C9028EE1891567
:1035B00018F0892D0E94011A8DE091E00E94D81622
:1035C000939420E1C20ED11C80E4C816D10411F7F7
:1035D0000E94C6160E94411186E00E94D20F892BDC
:1035E000F9F48091500281111BC00E94AE13E09249
:1035F00047022EE12E1518F08E2D0E94011A0E940E
:10360000AE1385E191E0DF91CF911F910F91FF9073
:10361000EF90DF90CF90BF90AF909F900C943318B5
:10362000DC2E6ECF7F928F929F92AF92BF92CF92FD
:10363000DF92EF92FF920F931F93CF93DF936091EE
:10364000070182E090E00E94EB196091060183E09F
:1036500090E00E94EB196091050184E090E00E94E7
:10366000EB196091040185E090E00E94EB196091F4
:10367000030186E090E00E94EB1960910B0187E066
:1036800090E00E94EB1960910A0188E090E00E94AE
:10369000EB196091090189E090E00E94EB196091BB
:1036A00013018AE090E00E94EB19609108018BE021
:1036B00090E00E94EB1960916D028CE090E00E9416
:1036C000EB19609147028DE090E00E94EB19609148
:1036D00002018EE090E00E94EB19609171028FE090
:1036E00090E00E94EB196091480280E190E00E9416
:1036F000EB1960916E0281E190E00E94EB196091FC
:103700004F0282E190E00E94EB1960914E0283E14A
:1037100090E00E94EB196091490284E190E00E94E0
:10372000EB19009147020F31F0F58BE1089F800102
:103730001124E80165969DE0E92E91E0F92E6801DB
:10374000ECE1CE0ED11CF70161917F01CE010E9408
:10375000EB192196CC15DD05B1F785E1E82E81E066
:10376000F82E045D1F4F6E01F4E0CF0ED11C289699
:1037700057014601F50171905F01C4010E94753542
:10378000781621F0672DC4010E947D35FFEF8F1A56
:103790009F0AC815D90571F784E0E80EF11CE6010F
:1037A0000C151D0501F7DF91CF911F910F91FF902F
:1037B000EF90DF90CF90BF90AF909F908F907F90D1
:1037C00008958F929F92AF92BF92CF92DF92EF9225
:1037D000FF920F931F93CF93DF933DE0E32E31E0F1
:1037E000F32E10E000E0B12C42E0A42E50E3C52EF1
:1037F000D12C86E00E94D20F21E0892B09F020E035
:103800002093500221E430E041E050E060E670E0B7
:103810008FE190E00E948F1380915B0290915C0297
:1038200095958795C82F8F3191F52FE530E041E0D0
:1038300050E060E670E08FE190E00E948F13CFE5EA
:103840000E94F70EA092CD021093C8020093C70207
:10385000D092CA02C092C9028EE50E94DC12109278
:10386000C8021092C70280E290E09093CA0280934F
:10387000C9028DE0882E81E0982ED0E0DB15A9F0FA
:10388000F40181914F010E94DC12DF5FF7CF803697
:10389000B9F620E230E041E050E060E670E08FE110
:1038A00090E00E948F13C0E2CBCF1093C802009328
:1038B000C70280E290E09093CA028093C9028C2FE5
:1038C0000E94DC120E94C6160E94411186E00E94EE
:1038D000D20F892B09F0A0CF8091500281119CCF8B
:1038E000F701C1937F010E94121B0E94AE136AE090
:1038F00070E080E090E00E94E710BB24B394BD0E1E
:10390000005F1F4FF5E0BF1274CF10921201DF91DC
:10391000CF911F910F91FF90EF90DF90CF90BF90CC
:10392000AF909F908F9008954F925F926F927F9289
:103930008F929F92AF92BF92CF92DF92EF92FF92BF
:10394000CF936FEF70E089E00E9465108BEA94E0FE
:103950000197F1F78EE00E9482167C018AE00E94B6
:10396000D20F90912602981729F091E09093680267
:1039700080932602809101019FEF980F909301019F
:10398000811106C00E94B0169093700280936F025E
:10399000609172027091730280917402909175022D
:1039A0000E94D73689E00E9465108090B7029090FF
:1039B000B802A090B902B090BA02B70190E080E0DE
:1039C0000E940D37A50194010E94EE352DEC3CECD0
:1039D0004CE45DE30E940338A50194010E94EF3599
:1039E0006093B7027093B8028093B9029093BA02C1
:1039F0000E94BA0D6B017C01C0926402D0926502F4
:103A0000E0926602F09267026091790270917A0208
:103A100090E080E00E940D372B013C0180904A022B
:103A200090904B02A0904C02B0904D02A5019401E1
:103A30000E945B3681114BC0A7019601C301B20100
:103A40000E94EE352B013C0120E030E0A9010E94EC
:103A5000FE37181694F520E030E040EA50E4C30148
:103A6000B2010E94FE37181694F1609179027091AC
:103A70007A0290E080E00E940D37A50194010E9437
:103A8000EE352B013C0120E030E0A9010E94FE3719
:103A9000181634F520E030E040E85FE3C301B201DE
:103AA0000E945B36181634F1C501B4010E94DE365F
:103AB00070937A02609379021DC020E030E040EA02
:103AC00050ECC301B2010E945B3687FFCECFC70125
:103AD000B6010E94DE3670937A0260937902C5CFF8
:103AE00020E030E040E85FEBC301B2010E94FE3706
:103AF00087FFDACF609162027091630290E080E00C
:103B00000E940D37A70196010E94EE356B017C01E2
:103B100020E030E0A9010E94FE3718160CF063C0C7
:103B2000C701B6010E94DE366A30710508F05FC039
:103B300080911401811105C080910C0181110E94B6
:103B4000AE1381E08093140110920C0180917902F0
:103B500090917A02853F21E0920710F010920001C7
:103B600020910001211149C0843F914008F045C0D7
:103B70006FEF70E089E00E9465100E94AE13C1E013
:103B8000C09300010E94531A0E94121BC093680246
:103B90008EE00E948216BC0190E080E00E940D370A
:103BA0006093B7027093B8028093B9029093BA02FF
:103BB00010925A0220916202309163024AE050E072
:103BC00060E971E084E690E0CF91FF90EF90DF90A4
:103BD000CF90BF90AF909F908F907F906F905F90AD
:103BE0004F900C948F13C701B60190589BCF109241
:103BF000140181E080930C01A9CFCF91FF90EF9049
:103C0000DF90CF90BF90AF909F908F907F906F90FC
:103C10005F904F9008950E94853BEF920F93CF9352
:103C2000DF93CDB7DEB72B970FB6F894DEBF0FBE8C
:103C3000CDBFE82FF0E080917102EE0FFF1F8111E0
:103C400019C0E757FE4F40815181EE24E39400E113
:103C500024E260E370E080E390E00E94380D2B9650
:103C60000FB6F894DEBF0FBECDBFDF91CF910F919D
:103C7000EF90089580E390E09093C8028093C7028C
:103C800084E390E09093CA028093C90281E080931C
:103C9000CD02E451FE4E65917491CE0101960E94D1
:103CA0006E3580E0282F30E0E1E0F0E0EC0FFD1F02
:103CB000E20FF31F9081992311F08F5FF3CF4AEF4A
:103CC0004203C001439F900D112480589F4F97FDE0
:103CD0000196959587959093C8028093C70284E3D7
:103CE00090E09093CA028093C902CE0101960E948F
:103CF000D816B5CF2F923F924F925F926F927F92DC
:103D00008F929F92AF92BF92CF92DF92EF92FF92EB
:103D10000F931F93CF93DF9300D01F92CDB7DEB7E1
:103D2000898386E00E94D20F21E0892B09F020E0F0
:103D3000209350025AE0252E312C0E94F70E00915C
:103D40005B0210915C021595079526E02093CD0249
:103D500031E03093CC021092CB026091330270912B
:103D60003402072E000C880B990B0E940F372B0191
:103D70003C014DE2A42E42E0B42E750182E090E0B9
:103D80009B838A83EA81FB81BF01FF0F880B990B1C
:103D90000E940F379B01AC0160E070E080E291E48B
:103DA0000E9470389B01AC01C301B2010E946536CC
:103DB0000E94D736CB01B1010E94163AF7018193D8
:103DC00091937F012A813B81215031093B832A83D2
:103DD0002F3F3F4FB9F6109334020093330287E22E
:103DE000E82E82E0F82E94E0C92ED12C22E0822E1B
:103DF000912CB401092C000C880B990B0E940F37F1
:103E00009B01AC0160E070E080E291E40E947038B8
:103E10002B013C016091330270913402072E000C9B
:103E2000880B990B0E940F37A30192010E946536FF
:103E30000E94D736CB01B1010E94163AF5012081CC
:103E40003181821B930B42E3489F9001499F300DC3
:103E50001124F70160817181260F371F3B832A836C
:103E6000232B09F086C01182108201E022E346E292
:103E700070E060E0C60104970E94330F0EEC1FEF64
:103E80002FEF3FEF3B832A83F7018081918124E06C
:103E900030E0281B390BC901800F911FD092C80256
:103EA000C092C7029093CA028093C902F501808133
:103EB00091816AE070E02A813B81820F931F0E940A
:103EC00029178A819B8101969B838A830E5C1F4FF1
:103ED0000297D1F692E0E90EF11CE1E08E1A91080A
:103EE000F2E0AF0EB11C2CE2C20ED11C38E8C316B2
:103EF000D10409F07ECF00E022E040E870E060E00D
:103F000090E080E00E94330F20E140E860E370E041
:103F100090E080E00E94330F89810E940D1E0E9474
:103F200041110E94C61686E00E94D20F892B09F02B
:103F300004CF80915002811100CF0E94AE13809176
:103F40003302909134020F900F900F90DF91CF9138
:103F50001F910F91FF90EF90DF90CF90BF90AF90A7
:103F60009F908F907F906F905F904F903F902F9099
:103F700008956A817B81719561957109072E000C06
:103F8000880B990B0E940F372DEC3CEC4CE45FE35F
:103F90000E9403382B013C012A813B81B901330F78
:103FA000880B990B0E940F379B01AC01C301B20132
:103FB0000E94EF350E94D736F7017183608355CF99
:103FC0009C0144E650E064E873E090E080E00E94E9
:103FD0008F1388E00E947A1EBC01665A7F4F9C01B5
:103FE0004AE050E00E948F1388E00E947A1EBC01D4
:103FF000675F7F4F9C0141E050E00E948F1388E093
:104000000C947A1E2F923F924F925F926F927F9202
:104010008F929F92AF92BF92CF92DF92EF92FF92D8
:104020000F931F93CF93DF93D82E282F30E0E0918A
:104030005102F0E0E15DFE4F60816150770B41E09D
:1040400050E090E080E00E948F1386E00E94D20F43
:1040500021E0892B09F020E0209350021092CC023D
:1040600081E08093CB0238E3632EE0905B02F09016
:104070005C02F594E794AE2C8701112798012D1965
:104080003109629EC001639E900D1124C80FD91F93
:10409000209709F1662777276C1B7D0B072E000CF4
:1040A000880B990B0E940F372DEC3CEC4CE05FE342
:1040B0000E9403381B012C01BE01DD0F880B990BF8
:1040C0000E940F379B01AC01C201B1010E94EF3584
:1040D0000E94D736EB010E94F70E025011094E01E3
:1040E00085E0B82E93E0792E7A0CC0905102D12C45
:1040F00017FD20C0F601E15DFE4F8081801711069B
:10410000C9F0C4F0EFE2F1E070E060E0CF018F525F
:1041100091408C159D0534F48191680F711DF6CF87
:10412000DE2CA3CF872D8B19680FC4018854910909
:104130000E940013BA940F5F1F4F88E3880E911CF2
:10414000B110D3CFEFE2F1E090E080E09F012F5279
:1041500031402C153D0524F42191820F911DF6CF9D
:104160008E0D0E940D1E0E9441110E94C61686E00F
:104170000E94D20F892BA1F6809150028111D0CFDD
:104180000E94AE138A2DDF91CF911F910F91FF9066
:10419000EF90DF90CF90BF90AF909F908F907F90E7
:1041A0006F905F904F903F902F9008951F920F92C5
:1041B0000FB60F9211242F933F938F939F93AF933A
:1041C000BF9380913A0290913B02A0913C02B09142
:1041D0003D023091390223E0230F2D3758F5019627
:1041E000A11DB11D2093390280933A0290933B02A6
:1041F000A0933C02B0933D0280913E0290913F0219
:10420000A0914002B09141020196A11DB11D809381
:104210003E0290933F02A0934002B0934102BF91AF
:10422000AF919F918F913F912F910F900FBE0F9063
:104230001F90189526E8230F0296A11DB11DD2CF1D
:104240001F920F920FB60F9211248F93EF93FF934B
:10425000E0E6F0E0808180648083FF91EF918F91B0
:104260000F900FBE0F901F9018951F920F920FB6D0
:104270000F9211242F933F934F935F936F937F93EC
:104280008F939F93EF93FF9383B1817029B19091A6
:104290004402981709F49DC030E0220F232F221FFB
:1042A000330B922F8093440240914302241709F468
:1042B00090C0209343022091200230912102981750
:1042C00019F031952195310940915B0250915C02C2
:1042D0006091240270912502240F351F261737079D
:1042E0000CF48BC02091200230912102981719F014
:1042F00031952195310940915B0250915C026091AA
:10430000220270912302240F351F621773070CF4E9
:104310006FC04091200250912102981719F05195D9
:104320004195510920915B0230915C02240F351FA9
:1043300030935C0220935B0241E0981340E02091AF
:104340004202421709F440C020912002309121021C
:10435000981719F031952195310960915B027091A0
:104360005C02E0912402F0912502260F371F2E17E0
:104370003F070CF44CC02091200230912102981785
:1043800019F031952195310960915B0270915C02C1
:10439000E0912202F0912302260F371FE217F30764
:1043A0008CF12091200230912102981719F031955B
:1043B0002195310980915B0290915C02820F931FDD
:1043C00090935C0280935B024093420281E0809371
:1043D0006802FF91EF919F918F917F916F915F9113
:1043E0004F913F912F910F900FBE0F901F901895F6
:1043F00020912202309123029BCF20912402309100
:10440000250296CF8091220290912302D9CF8091EC
:10441000240290912502D4CF1895CF93DF93CDB786
:10442000DEB7C554D1090FB6F894DEBF0FBECDBFBD
:10443000789484B5826084BD84B5816084BD85B57F
:10444000826085BD85B5816085BD80916E0081608B
:1044500080936E0010928100809181008260809331
:104460008100809181008160809381008091800033
:104470008160809380008091B10084608093B1005E
:104480008091B00081608093B00080917A00846058
:1044900080937A0080917A00826080937A00809184
:1044A0007A00816080937A0080917A00806880939E
:1044B0007A001092C100A89584B7877F84BF80914D
:1044C000600088618093600087E180936000809144
:1044D00060008064809360008091600088608093B9
:1044E00060001092B90088E48093B8000E943711F0
:1044F00080E00E942D110BEA17E19AECE92E97E17A
:10450000F92EF80184910E942D110F5F1F4FE016C4
:10451000F106B9F70E94251111E01093B8000E942E
:10452000411181E28093C30260E08EE00E94291075
:1045300060E08FE00E94291061E085E00E94291070
:1045400061E089E00E94291062E087E00E94291062
:1045500062E088E00E94291062E086E00E94291053
:1045600062E08AE00E9429106FEF70E089E00E940B
:10457000651060E085E00E94FB0F80917A00876003
:1045800080937A0080917A00886080937A00789492
:1045900010936B00109368001BBB90E080E00E94BA
:1045A000FF19182F81E090E00E94FF19912F8B30A6
:1045B000944109F075C182E090E00E94FF19182F24
:1045C00083E090E00E94FF19912F90930701809360
:1045D000060184E090E00E94FF19182F85E090E02A
:1045E0000E94FF19912F909305018093040186E0AA
:1045F00090E00E94FF198093030187E090E00E9401
:10460000FF1980930B0188E090E00E94FF198093CE
:104610000A0189E090E00E94FF19809309018AE075
:1046200090E00E94FF19809313018BE090E00E94BC
:10463000FF1991E0811101C090E0909308018CE096
:1046400090E00E94FF1991E0811101C090E09093E9
:104650006D028DE090E00E94FF19809347028EE08A
:1046600090E00E94FF19809302018FE090E00E9489
:10467000FF198093710280E190E00E94FF1991E0A0
:10468000811101C090E09093480281E190E00E9486
:10469000FF1980936E0282E190E00E94FF19182FAB
:1046A00083E190E00E94FF19912F90934F02809335
:1046B0004E0284E190E00E94FF1991E0811101C057
:1046C00090E090934902809147028F3110F40E944C
:1046D000011A1091480280EC111101C088EC0E946F
:1046E0005E1180EA111101C081EA0E945E1181E829
:1046F0000E945E1180E20E945E111092690280E2C7
:1047000080936A0280E480936B0280E680936C025F
:1047100080914E0290914F02892B19F10E94F70E61
:1047200068E088E290E00E94001388E00E940D1E7D
:104730000E94411168EE73E080E090E00E94E71073
:104740000E94AE130E94AE130E94AE1390E080E070
:104750000E94E01F20914E0230914F028217930772
:10476000E9F60E94081690934602809345020E9443
:10477000B0169093700280936F0200910601109121
:10478000070110936302009362028EE00E9482167A
:10479000BC0190E080E00E940D376093B7027093F7
:1047A000B8028093B9029093BA020E9444160E9404
:1047B000BA0D6093640270936502809366029093D1
:1047C000670220E030E040EA51E40E94EF356B01DF
:1047D0007C01B80190E080E00E940D379B01AC01A4
:1047E000C701B6010E945B3687FF05C070E060E03C
:1047F00089E00E9465101092AD021092AE021092F4
:10480000AF021092B002412C512C6FE7662E63E488
:10481000762E4092B1025092B2026092B302709230
:10482000B402A0909902B0909A028091B502D5018D
:10483000CD90DD90ED90FC90882311F40C9413340E
:10484000A3019201C701B6010E94FE3718160CF0B1
:104850008FC1F50140825182628273828090A102F1
:104860009090A202A090A302B090A402C090B102C6
:10487000D090B202E090B302F090B402A70196018A
:10488000C501B4010E94FE3718160CF081C1C09218
:10489000A102D092A202E092A302F092A40288C1E7
:1048A000812C912C5401412C512C3201312C212C82
:1048B000D12CC12CF12CE12C11E00E9416352FEFE8
:1048C00030E040E050E00E948B3569A77AA78BA7C3
:1048D0009CA709A5602FC7010E947D35C7010E94D2
:1048E00075358FA3081333C12FEFC21AD20A0E9465
:1048F000F70E42E04093CD021093CC021092CB020F
:104900001092C8021092C7021092CA021092C902F5
:104910008AEF97E10E94E1121093CD0288E090E0C7
:104920009093C8028093C702A8E2B0E0B093CA0295
:10493000A093C9026AE070E0C7010E94291788EFBE
:1049400097E10E94E1124AE060E074E080E090E0CC
:104950000E94E5161092CC021093CB02E8E0F0E042
:10496000F093C802E093C70228E130E03093CA0216
:104970002093C90282EF97E10E94E1126AE070E0A1
:10498000C6010E94291748E450E05093C8024093A2
:10499000C70288E190E09093CA028093C9028CEE2E
:1049A00097E10E94E1126AE070E0C1010E942917BC
:1049B000A8E0B0E0B093C802A093C702E0E2F0E044
:1049C000F093CA02E093C90286EE97E10E94E112D9
:1049D00069A57AA58BA59CA57727882799274AE002
:1049E0000E94E51628E430E03093C8022093C70205
:1049F00040E250E05093CA024093C90280EE97E132
:104A00000E94E1125FA1652F70E090E080E04AE033
:104A10000E94E516D301C2010AE0B595A7959795C6
:104A200087950A95D1F79093C8028093C70284E3D3
:104A300090E09093CA028093C902B7010F2C000C3A
:104A4000880B990B0E940F3720E030E040E85AE3D2
:104A50000E94033820E030E048EC52E40E94033822
:104A600042E00E945B178EED97E10E94E112B501D2
:104A7000A4018AE075956795579547958A95D1F772
:104A800001E024E06CE370E090E080E00E94330FEE
:104A90000E9441119FEFE91AF90AACE54A0E511C38
:104AA000611C711CBFE78B0E911CA11CB11C8114F1
:104AB000ECEF9E06E1E0AE06B10409F0FECE02E0A6
:104AC00011E076E1E72EF12CE0E1CE2ED12CFFE1D2
:104AD000AF2EB12CACE28A2E912CB8EE4B2EB3E067
:104AE0005B2E612C712C21143104A9F10E94F70E68
:104AF0000093CD021092CC021093CB02F092C80228
:104B0000E092C702D092CA02C092C90286ED97E134
:104B10000E94E1121093CD02B092C802A092C70287
:104B20009092CA028092C9021093CC021092CB02DA
:104B30000E941911A30192010E94BD3520FD04C0FD
:104B40008AEC97E10E94E1120E944111CCCF3FEF25
:104B5000231A330ACCCE64E190E080E00E94EB1986
:104B60006BE081E090E00E94EB190E94121BABCD3C
:104B700020E030E0A901C701B6010E945B3687FF43
:104B80006DCED5011D921D921D921C92139766CE7B
:104B9000C090AD02D090AE02E090AF02F090B002B3
:104BA000A7019601C501B4010E945B3687FD6FCE57
:104BB00081E08093B50283B181708093440289B112
:104BC00090E0880F892F881F990B809343022091D2
:104BD00044029091430281E0291380E080934202D5
:104BE00098014AE050E060E971E084E690E00E94BC
:104BF0008F130E94191160935E0270935F0280937D
:104C00006002909361020E94AE130E94AE130E9454
:104C1000F70E82E08093CD024CE1E42EF12CF0926D
:104C2000C802E092C70208E110E01093CA020093A4
:104C3000C9028DE098E10E94E1120E9441116CEBE3
:104C400072E080E090E00E94E7100E94F70E81E0A1
:104C50008093CC021092CB02F092C802E092C7027D
:104C60001093CA020093C90286E098E10E94E11203
:104C70000E9441116CE271E080E090E00E94E71038
:104C800080915B0290915C02FC01F595E795FEAF87
:104C9000EDAFF0936302E093620286E00E94D20FD0
:104CA00026968FAF269781111FC180915A028823C3
:104CB00009F41AC10E94AE130E9419116B017C0104
:104CC000C0925602D0925702E0925802F0925902D6
:104CD00086E00E94D20F892B59F40E9419116C1999
:104CE0007D098E099F09643F71408105910580F31C
:104CF0000E9419116C197D098E099F09643F71404A
:104D00008105910510F40C9464306FEF70E089E038
:104D10000E9465100E94AE1319A61092510289A537
:104D20000E94022089A78B3008F0CBC0E82FF0E06A
:104D3000E456F94D0C942A3AB926272D702DB12D41
:104D4000BF2DEF2DFD2D1A302B303630443020E0B2
:104D500030E0A901C701B6010E945B3687FF28CF6A
:104D60001092A1021092A2021092A3021092A40229
:104D70001FCFAE014F5E5F4F5CA34BA3CE01839666
:104D80009EA38DA311E01093510289A50E940220D9
:104D900089A7823009F4D5C508F065C1882309F4D4
:104DA000A9C1813009F4A9C130E020E040E150E020
:104DB0006FEF73E090E080E00E948F1386E00E9426
:104DC000D20F21E0892B09F020E02093500281E0EE
:104DD0008093CD020E94F70EB12CA12CD12CC12CB6
:104DE0008601F12CE12C80915B0290915C029595FB
:104DF0008795800F911F813094400CF049C0F0924C
:104E0000C802E092C702B092CA02A092C902809181
:104E10005B0290915C02959587956AE070E0800F47
:104E2000911F0E94291784E198E10E94E11280916C
:104E30005B0290915C0295958795800F911F0E946F
:104E40007535682F70E090E080E04AE00E94E5163A
:104E5000C701C6969093C8028093C702B092CA0257
:104E6000A092C90280915B0290915C029595879512
:104E7000800F911F0E9475350E94DC120F5F1F4F3B
:104E8000B0E4EB0EF11CE0E8EE16F10409F0ABCF54
:104E9000F2E0CF0ED11C28E0A20EB11C30E1C31607
:104EA000D10409F09DCF0E94C6160E94411186E0F0
:104EB0000E94D20F892B09F08DCF80915002811171
:104EC00089CF0E94121B81E0809368022DAD3EAD18
:104ED00030936302209362024AE050E060E971E09F
:104EE00084E690E00E948F1326963FAD269730937C
:104EF0005A0280917602882309F110910901112349
:104F0000E9F00E941911C0905202D0905302E09033
:104F10005402F09055026C197D098E099F0928EE04
:104F200033E040E050E00E94BD35211738F0109288
:104F300076020E94AE1381E080930C01809168029A
:104F40008823F1F180917702882351F120E030E04D
:104F500040EA51E4609164027091650280916602BA
:104F6000909167020E94EF356B017C0160916202B3
:104F70007091630290E080E00E940D379B01AC01CC
:104F8000C701B6010E945B3687FF05C070E060E094
:104F900089E00E9465100E94AE1381E080930C01AD
:104FA0001092680210927702109278020E941911F2
:104FB00060935E0270935F0280936002909361023F
:104FC0000E94191100915E0210915F02209160020F
:104FD00030916102601B710B820B930B20E63AEE5D
:104FE00040E050E00E94BD35122F20935D02809179
:104FF000770281110BC080910B01882339F02817AB
:1050000028F081E0809377020E94AE1380917802AD
:1050100081110BC080910A01882339F0181728F0FC
:1050200081E0809378020E94AE130E94941C80E07D
:105030000E94CC130E9419118091C402462F481B74
:10504000842F9091C502992311F40C947B304093E6
:10505000C6021092C50280E090E0892B09F410CEC0
:105060000E9400000DCE99A5933009F46DC49430D0
:1050700009F09ACE809102018E3108F0D3C491E0FC
:10508000980F90930201809347020E94E11B8EE0EB
:1050900098E4A4E2B1E48093150190931601A093E3
:1050A0001701B093180122EA3CEB4DED5FE320932A
:1050B000190130931A0140931B0150931C018DE09C
:1050C00091EEA9E5BBEB80931D0190931E01A09387
:1050D0001F01B09320012CE031E248E956E3209310
:1050E00021013093220140932301509324010E9417
:1050F000121B48CE0E94531A45CEAE014F5F5F4F40
:105100001A01712C612C5524539430E020E0611475
:10511000710421F0F10132972081318141E050E0AA
:105120006FEF73E090E080E00E948F1350920C01CB
:1051300086E00E94D20F21E0892B09F020E0209325
:1051400050020E94F70E5092CD020E94941C809152
:105150005B0290915C029595879590936302809392
:10516000620281E00E94CC1389E190E09093C80232
:105170008093C7021092CA021092C9025092CC02C8
:105180001092CB0288E298E10E94E1126091B7028E
:105190007091B8028091B9029091BA0242E00E94E7
:1051A0005B171092CC025092CB02E0E18E2E912C34
:1051B00010E000E06801CC0CDD1C58016AE0E62E2E
:1051C000F12C6A147B048CF1F092C802E092C702C1
:1051D0009092CA028092C902F601EB51FE4F6081A3
:1051E000718190E080E04AE00E94E51684E298E157
:1051F0000E94E1126A147B0409F0C1C180915B0234
:1052000090915C026AE070E0959587950E9429175D
:105210009FEFA91AB90AA0E4EA0EF11CB2E0CB0E86
:10522000D11CEAE8EE16F10461F60E5F1F4FF8E0BC
:105230008F0E911C0A30110509F0BCCF0E94C616D2
:105240000E94411186E00E94D20F892B09F079CF8C
:1052500080915002811175CF80915B0290915C0228
:1052600095958795D1018D939D931D010E94AE1355
:105270006AE070E080E090E00E94E710BFEF6B1AF8
:105280007B0AE9E06E16710409F03FCF6FEF70E022
:1052900089E00E9465108BEA94E00197F1F7FE0126
:1052A000319621E081919191059640815181841739
:1052B00095070CF020E04BA15CA1E417F50791F7EE
:1052C000222309F418C387E08093510264E070E060
:1052D00089E090E00E94443A98AF8FAB64E070E0C0
:1052E00087E090E00E94443A9AAF89AF64E070E0B2
:1052F00089E090E00E94443A9CAF8BAF64E070E09C
:1053000084E090E00E94443A98AB8FA764E070E09C
:1053100080E190E00E94443A9EA78DA725EEE22E00
:1053200021E0F22ECFA8D8AC54E2C50ED11C0BADB3
:105330001CAD2FA838ACF10180E090E0A0E8BFE3FD
:1053400081939193A193B1931F01D7016D917D91A9
:105350007D01072E000C880B990B0E940F37F80176
:1053600061937193819391938F012C143D0419F7EC
:1053700029AD3AAD38A72FA369013CE1C30ED11C7A
:1053800009AD1AADD8011D921D921D921D928D017D
:10539000FE013196FAABE9ABEFA8F8AC812C912C69
:1053A0005401D7014D905D906D907D907D01A301DA
:1053B0009201C501B4010E94EF354B015C01E9A9DE
:1053C000FAA961917191FAABE9AB970124503109C7
:1053D0003EAB2DAB072E000C880B990B0E940F37AC
:1053E000A30192010E940338ADA9BEA96D937D93DC
:1053F0008D939C931397E214F30499F6F801349774
:1054000080829182A282B382C016D10609F0BACFFF
:10541000EFA5F8A9FEABEDAB6F01F0E1CF0ED11C0B
:105420000FA518A92BAC3CAC24E2220E311CD801EC
:105430001D921D921D921D928D01FE013196FAABB7
:10544000E9ABEBACFCAC812C912C5401D7014D9015
:105450005D906D907D907D01A3019201C501B40125
:105460000E94EF354B015C01E9A9FAA961917191A4
:10547000FAABE9AB9701245031093CAB2BAB072EBB
:10548000000C880B990B0E940F37A30192010E9418
:105490000338ABA9BCA96D937D938D939C9313970F
:1054A0002E143F0499F6F801349780829182A282EB
:1054B000B382C016D10609F0BACF4DA55EA5405CF7
:1054C0005F4F2DA53EA590E080E0F901E80FF91FA0
:1054D000AFA1B8A5A80FB91FCD90DD90ED90FC90BD
:1054E000C082D182E282F38204968031910569F70D
:1054F000EFA1F8A53496F8A7EFA3205F3F4F42171E
:10550000530709F7ADA5BEA5B8A7AFA3B12CA12C31
:105510001AAA19AAEFA1F8A5C080D180E280F38071
:10552000E894F7F81501FFEF2F1A3F0A2FA138A5CD
:105530003CAB2BAB8501410133E08316910461F153
:10554000ABA9BCA954964D905D906D907C905797F7
:10555000E89477F8A7019601C301B2010E94FE37D3
:105560001816C4F026013701BFEF8B1A9B0AEBA96E
:10557000FCA97496FCABEBAB73016201DDCF6AE072
:1055800070E0E1E0F0E0EC0FFD1FEC0DFD1D80810F
:1055900091813CCE8401E8CFA016B10609F44AC03F
:1055A000ADA4BEA429A93AA9A20EB31E000F111FD3
:1055B000000F111FF801EE0FFF1FEE0FFF1F4DA58B
:1055C0005EA5E40FF51F90E080E0D5014D915D915F
:1055D0006D917D915D01C080D180E280F3809D015D
:1055E00024503109D901CD92DD92ED92FC921397AE
:1055F000419351936193719301968430910529F7FA
:10560000EDA9FEA980819181A281B3812FA538A93E
:10561000020F131FF8014081518162817381EDA94E
:10562000FEA94083518362837383F8018083918351
:10563000A283B3832DA93EA92C5F3F4F25963FAF90
:105640002EAF2597B0EFAB2EBB24BA9449A95AA927
:10565000A41AB50A0FA118A53CAB2BAB61017801C8
:1056600054E1E50EF11C4101F501EE0DFF1D89A984
:105670009AA9E80FF91FD80150962D913D914D91AF
:105680005C91539760817181828193810E9403387C
:10569000EFA1F8A520813181428153810E946536B6
:1056A0009B01AC01D7016D917D918D919C910E94E0
:1056B000EE35F70161937193819391937F01FFEF31
:1056C0008F1A9F0A24E08216910471F6ABA9BCA937
:1056D0004D905D906D907D90BCABABAB7D01B4E027
:1056E000EB1AF108EDA9FEA9208131814281538195
:1056F000D80150966D917D918D919C9153970E9408
:105700000338EFA1F8A520813181428153810E94A5
:1057100065369B01AC01C301B2010E94EE35D70191
:105720006D937D938D939C931397BFEFCB1ADB0AF8
:10573000005F1F4FE0E1AE1AB108F4E0CF16D104CC
:1057400009F08DCF2FA138A52C5E3F4F38A72FA38E
:1057500049A95AA9405F5F4F5AAB49AB5101259601
:105760008EAD9FAD25979EAB8DAB93E0291631048E
:1057700009F0D0CE8FA498A820E1820E911C8E0152
:10578000015E1F4FEDA4FEA43CE3E30EF11CF40107
:10579000B291A291929182914F01F80180839183FD
:1057A000A283B3835101D12CC12CD8014D905D90BF
:1057B0006D907C90BFEFAB1ABB0AE4E0CE0ED11C1B
:1057C000F4E0AF16B104E9F0F801EC0DFD1D208105
:1057D000318142815381F701EC0DFD1D60817181A2
:1057E000828193810E9403389B01AC01C301B20105
:1057F0000E94EE35D8016D937D938D939C93139702
:10580000D4CFF7012081318142815381C301B2019C
:105810000E946536D8016D937D938D939C93139769
:10582000B1E02B1A310804501109E4E1EE1AF10835
:10583000FFEF2F163F0609F0AACF8FA998AD0E945F
:10584000FC3A89AD9AAD0E94FC3A8BAD9CAD0E94AA
:10585000FC3A8FA598A90E94FC3A8DA59EA50E94AE
:10586000FC3ACE0101960E94FC3ACE0143960E947A
:10587000331880E00E9402208823B9F0FE0173965D
:10588000A5E1B1E041915191619171914D935D9389
:105890006D937D932DA13EA12E173F0799F7CE0161
:1058A00043960E94FC3A0E94121B0E94F70E82E06F
:1058B0008093CD0281E08093CC021092CB028CE1E8
:1058C00090E09093C8028093C70228E130E03093C3
:1058D000CA022093C90287E198E10E94E1120E9466
:1058E000411168E873E180E090E00E94E710F0E089
:1058F000E0E0099547CA0E94F70E82E08093CD024E
:1059000081E08093CC021092CB0280E290E09093F1
:10591000C8028093C70248E150E05093CA02409306
:10592000C9028EE198E10E94E1120E94411168E8EB
:1059300073E180E090E00E94E710F0E0E0E009957C
:10594000B4CF0E94E11B1ECA17E0109351020091D0
:105950000201013011F50E94F70E82E08093CD0222
:105960000093CC021092CB0220E130E03093C802C9
:105970002093C70248E150E05093CA024093C90205
:105980008FE298E10E94E1120E94411168EE73E0FB
:1059900080E090E00E94E710F5C980E00E940220BC
:1059A000882309F4EFC98091470290910201A92F41
:1059B000A150BB0B8A171B0649F481508093470204
:1059C00080910201815080930201DCC98F31C0F7C0
:1059D000DD24DA94D90ED81AB4E18B9F90011124FA
:1059E000F901819FE00DF11D11248F01005D1F4F12
:1059F000DA94FFEFDF1621F378012BE1E21AF108C8
:105A0000E016F10618F0055E1F4FF2CFC7014B9666
:105A10000E947535682FC7010E947D353FEFE31A5C
:105A2000F30AEECF0E94F70E1093CC021092CB0235
:105A300085E090E09093C8028093C70248E150E06F
:105A40005093CA024093C90288E398E19BCF82E059
:105A50008093510210E0812F0E940220182F813084
:105A6000D1F028F0823059F10E94121B56C92091C2
:105A70000601309107014AE050E060E971E084E6F8
:105A800090E00E948F1382E10E947A1E909307019A
:105A900080930601E0CF20910401309105014AE096
:105AA00050E068EC70E084E190E00E948F1383E1A5
:105AB0000E947A1E9093050180930401CCCF20911F
:105AC000030130E04AE050E064E670E08AE090E0F4
:105AD0000E948F1384E10E947A1E80930301BBCF42
