:020000040000FA
:100000000C9462190C948A190C948A190C94422E3F
:100010000C948A190C948A190C948A190C948A19D4
:100020000C948A190C948A190C948A190C948A19C4
:100030000C948A190C948A190C948A190C948A19B4
:100040000C94F82D0C948A190C94C62D0C94A02DA8
:100050000C948A190C94192F0C948A190C948A19EF
:100060000C948A190C948A1900000000000F1DC21C
:100070000800054442080003845FBF000FE44410F9
:10008000000115451000054CC97F8009244F9000E0
:1000900007C4C11000054D413F00055443810007CE
:1000A000C44D02000544411400055541080007C82D
:1000B0008104000000000000000000000001083F73
:1000C000FE001FFF810000004002000007FE0FF845
:1000D000000402080800040208880007FE088800DF
:1000E0000402088800040208880007FE088800044B
:1000F00002094800040202300007FE040C0004025A
:1001000018040000000000000000000000011000C2
:1001100080001FFF80800001103FFF0000400408A6
:100120000007FC040800044404100004440210000A
:1001300004440220001FFF812000004000C0000096
:10014000A00130000110020800060C0C0700180383
:10015000B0020000000000000000000000004000AD
:10016000800000400080000FFF3FFF0008410408AE
:100170000008410408000841041000084102100072
:100180000FFF0220000841012000004000C00000D5
:1001900040013000004002080000400C0700004011
:1001A000300200000000000000000000001FDF100F
:1001B000200002120C20000224042000047F802072
:1001C000000424B820000FA488500014BF885000F9
:1001D00004A488500004A488480004BF8888000450
:1001E000A48A880007A48C84000444890700008145
:1001F000860200000000000000000000000FF00474
:1002000091000440025200047F905400045088FF83
:100210000007D08481000451008100044901FF00DF
:1002200007CA0281000444048100044A1CFF00073D
:10023000EA0481000C510481000061C48500004083
:100240008082000000000000000000000007FF8026
:100250002000008407FF00008404010000840401E2
:100260000000840401000FFFC7FF000084040000A9
:100270000084040000008405FF00008405010001E3
:10028000040901000104090100020411FF00040433
:1002900001010000000000000000000000008204D6
:1002A000FF00004402010007FF9021000010102110
:1002B00000001017FD0000101021000FFFD061009A
:1002C000001010A1000028112100002812210000B8
:1002D00044142100008210A1000301D045000C004D
:1002E0009002000000000000000000000008441020
:1002F000FE00042810920005FF22920000103C929C
:100300000000100892001CFE109200041020FE0055
:1003100004103E920005FF80920004100092000538
:10032000100E92000610309200041000FE00001023
:100330000082000000000000000000000007DF88CD
:1003400040000A24104000114210FE0004002282E6
:100350000002FF3D020008010A420009F9103200C4
:10036000090920120009F93E0200090900020009EA
:10037000090E020009F930220008050014000802E5
:10038000000800000000000000000000000FC3F1A2
:10039000E0000FE3F1F8000C70C19E000C30C18644
:1003A000000C30C183000C30C183000C60C183009D
:1003B0000C60C183000FC0C183000FC0C186000C58
:1003C00000C186000C00C198000C03F1F8000C037A
:1003D000F1E0000000000000000000000000200824
:1003E00020000FFF09FC00002008000000203E88CC
:1003F0000003FE08500002020BFE0003FE0C40004A
:10040000020218400003FE2BFE000202084800030F
:10041000FE088800020208500002022830001FFF78
:1004200091CC0000000000000104047C000088045E
:1004300044000FFF3F4400002004440000200C440F
:100440000000200E44001FFF9544000020144400CB
:10045000005024440000500444000088044500017A
:100460000404850006038503001801040000000051
:1004700000000000000000000000000000047E21D9
:10048000FC0004421104001F7E090400044221FC08
:10049000000542110400067E1104000C0005FC005A
:1004A00015FF880000040813FE00044832520004BF
:1004B0004F125200044812520014A8125200091F91
:1004C00097FF000000000000000000000002103D47
:1004D000FC000210250400041025040005FFBDFCEB
:1004E000000C102520000C38252000143825FE00B3
:1004F00004543D20000454251000049225100005EA
:1005000011A5090006113D450004102583000410C3
:10051000010100000000000000000000001FC810E2
:100520002000124A0C20001AC9042000174800209D
:10053000001FFFB8200002080850001FC808500024
:10054000020808500003C80848001E14088800016B
:10055000540A880015220C84001443890700008186
:10056000060200000000000002FE01000002823FBF
:10057000FF00048202000004FE0200000C1004FCD4
:1005800000141004080005FF8C1000041014100063
:10059000043825FF00043404100004520410000441
:1005A0009184100005100450000410042000000085
:1005B0000000000000000000000000000002030036
:1005C00010001FDC3EFE000890021200051004FF20
:1005D000001FDF84120002120CFE001FD202100066
:1005E000021222FE000A921410000A521410001285
:1005F000220DFF0002220810000A4214100004021B
:1006000023FF00000000000000000000000F78BC85
:1006100020000948A45000094AA85000094AA888A7
:1006200000094AB104001FFEAAFB00094AA42000E9
:10063000094AA42000094AA7FE00094AB42000097B
:1006400048A924000B48A22200088AA4A20011197C
:10065000204000000000000000000000000020001A
:100660008000005001FC0000880104000104030820
:100670000006FB0490000800C0600007DF01800056
:10068000045106000004511BFE0004510202000741
:10069000D90202000456020200001003FE000010FE
:1006A000020200000000000000000000000208201C
:1006B0009000027F9890001F8009FF000222011025
:1006C0000006218B100007628DFE000AA2091000AF
:1006D0000A14111000121431FE0002081110000259
:1006E000141110000222111000024391FF00028138
:1006F00011000000000000000000000000100700D2
:10070000000008F83FFE0004802002000080200264
:100710000000BE23E2001C8222220004A422220048
:1007200004942222000488222200049423E200057B
:100730002220020005422002000A003FFE0011FFB5
:10074000A002000000000000000000000001041FE3
:10075000FC0000880080000FFF0080000020008067
:1007600000002000800000203FFF001FFF8080006D
:100770000020008000005000800000500080000039
:1007800088008000010400800006038280001801B8
:10079000010000000000000009FF00400004203FAD
:1007A000FF00042000000000FE0000001C420FFCBF
:1007B00000044200000007FF80000004000FFC005E
:1007C00004FF000000048100000005810FFC00060A
:1007D0008108040004FF08040000810FFC000000F1
:1007E00000000000000000000000000000004000C9
:1007F00080001FFF9FFC0000400410000FFF02203C
:100800000000003FFF000FFE00000008420FF8004C
:1008100008420808000FFE08080008020FF8000848
:1008200000080800080008080008000FF800100081
:100830000808000000000000000000000007FE0F94
:10084000F8000402000000040200000007FE00009F
:100850000004023FFE00040200800007FE0080004A
:10086000009004900008910C880006931086000206
:1008700094208200009000800000900280001FFF02
:1008800081000000000000000000000000041012C1
:10089000020005FF9FD20005009212001E28A2123E
:1008A0000004443FF200048202120006000212001B
:1008B0000CFE1FD200141012520004101242000449
:1008C00010134200041012820015FF820A00080073
:1008D00002040000000000000000000000002000F2
:1008E000000000203E04001FFFA204001000A2FF31
:1008F0000000012204000FFE22040000403E4400DC
:1009000000402224000440222400047C220400042D
:10091000402204000A403E0400094022240010FF47
:100920008014000000000800000000000010FE0815
:10093000200008820BFF0004820A010010FE3C51D7
:10094000000882088800088209040002FE0C0000EA
:10095000040019FC0009FF282000192908200009BB
:1009600029082000092908200009292BFF000BFF76
:10097000900000000000000000000000001F7F90B9
:10098000F80001080888000A10088800047F0107A1
:10099000001FC13A0000054909FC00044908840011
:1009A0000449088800044908480004490850000424
:1009B000490A200004160C5800142189870008C039
:1009C00086020000000000000FFFFFFFFFF03FFF66
:1009D000FFFFFFFC7FFFFFFFFFFE7FFFFFFFFFFE2C
:1009E000F0000000000FF0000000000FF000000019
:1009F000000FF1FFFFFFFF8FF1FFFFFFFF8FF1FF00
:100A0000FFFFFF8FF1FFFFFFFF8FF1FFFFFFFF8F62
:100A1000F1FFFFFFFF8FF1FFFFFFFF8FF1FFFFFFF0
:100A2000FF8FF1FFFFFFFF8FF1FFFFFFFF8FF1FF50
:100A3000FFFFFF8FF1FFFFFFFF8FF1FFFF03FF8F2E
:100A4000F1FFFF03FF8FF1FFFF03FF8FF1FFFFFFB8
:100A5000F18FF1FFFFFFE18FF1FFFFFFC78FF1FF84
:100A6000FFFF8F8FF1FFFFFF0F8FF1FFFFFF8F8FD2
:100A7000F1FFFFFFC78FF1FFFFFFE18FF1FFFFFFE6
:100A8000F18FF1FFFFFFFF8FF1FFFFFFFF8FF000FE
:100A90000000000FF0000000000FF0000000000F49
:100AA000F1FFFFFFFF8FF1111FFFFF8FF1111FFFFC
:100AB000FF8FF1111FFFFF8FF1FFFFFFFF8FF0008E
:100AC0000000000FF0000000000FF0000000000F19
:100AD0007FFFFFFFFFFE7FFFFFFFFFFE3FFFFFFFE8
:100AE000FFFC0FFFFFFFFFF00FFFFFFFFFF03FFFD7
:100AF000FFFFFFFC7FFFFFFFFFFE7FFFFFFFFFFE0B
:100B0000FFFFFFFFFFFFFFFFFFFFFFFFFFFFFFFFF5
:100B1000FFFFFFFFFFFFFFFFFFFFFFFFFFFFFFFFE5
:100B2000FFFFFFFFFFFFFFFFFFFFFFFFFFFFFFFFD5
:100B3000FFFFFFFFFFFFFFFFFFFFFFFFFFFFFFC7FD
:100B4000001FC00FFFC7001FC00C1FC7001FC00C35
:100B50001FC71FFFC7FC0FC71FFFC7FC4FC71FFFE3
:100B6000C7FC4FC71FFFC7FC47C71FFFC7FC67C7AE
:100B70001C01C01C63C71C01C01C73C71C01C01C26
:100B800071C71F8FC7FC79C71F8FC7FC78C71F8F1E
:100B9000C7FC7C071F8FC7FC7C07000FC00C7E07BB
:100BA000000FC00FFFFF000FC00FFFFFFFFFFFFF91
:100BB000FFFFFFFFFFFFFFFFFFFFFFFFFFFFFFFF45
:100BC000FFFFFFFFFFFFFFFFFFFFFFFFFFFFFFFF35
:100BD000FFFFFFFFFFFFFFFFFFFFFFFFFFFFFFFF25
:100BE000FFFFFFFFFFFFFFFFFFFFFFFFFFFFFFFF15
:100BF0007FFFFFFFFFFE7FFFFFFFFFFE3FFFFFFFC7
:100C0000FFFC0FFFFFFFFFF00FFFFFFFFFF03FFFB5
:100C1000FFFFFFFC7FFFFFFFFFFE7FFFFFFFFFFEE9
:100C2000FFFFFFFFFFFFFFFFFFFFFFFFFFFFFFFFD4
:100C3000FFFFFFFFFC7FFFFFFFFFFC7FFFFFFFFFCA
:100C4000FC7FFFFFFFFFFC7FFFFFFFFFFC7FFFFF3D
:100C5000FFFFFC7FFFFFFFFFFC7FFFFFFFFFFC7F2D
:100C6000FFFFFE00000001FFFE00000001FFFE008C
:100C7000000001FFFE3FFC7FF1FFFE3FFC7FF1FF24
:100C8000FE3FFC7FF1FFFE3FFC7FF1FFFE3FFC7F5C
:100C9000F1FFFE3FFC7FF1FFFE3FFC7FF1FFFE3FD7
:100CA000FC7FF1FFFE3FFC7FF1FFFE000000007FB4
:100CB000FE000000007FFE000000007FFE3FFC7F82
:100CC000FFFFFFFFFC7FFFFFFFFFFC7FFFFFFFFF3A
:100CD000FC7FFFFFFFFFFC7FFFFFFFFFFC7FFFFFAD
:100CE000FFFFFC7FFFFFFFFFFC7FFFFFFFFFFC7F9D
:100CF000FFFFFFFFFC7FFFFFFFFFFC7FFFFFFFFF0A
:100D0000FCFFFFFFFFFFFFFFFFFFFFFFFFFFFFFFF6
:100D10007FFFFFFFFFFE7FFFFFFFFFFE3FFFFFFFA5
:100D2000FFFC0FFFFFFFFFF00FFFFFFFFFF03FFF94
:100D3000FFFFFFFC7FFFFFFFFFFE7FFFC003FFFE03
:100D4000FFFF0000FFFFFFFC00003FFFFFF000007F
:100D50000FFFFFC0000003FFFFC0000001FFFF0006
:100D6000000000FFFF000000007FFE000000007F89
:100D7000FC000000003FFC000000203FF8000000E5
:100D8000701FF8000000F81FF0000001F80FF000DD
:100D90000003F00FF0000007E00FF000000FC00F9D
:100DA000E000001F8007E001803F0007E003C07EF5
:100DB0000007E007E0FC0007E003F1F80007E001AE
:100DC000FFF00007E000FFE00007E0007FC0000741
:100DD000F0003F80000FF0001F00000FF0000E0039
:100DE000000FF0000400000FF8000000001FF800E2
:100DF0000000001FFC000000003FFC000000003F5E
:100E0000FF000000007FFF00000000FFFF800000E7
:100E100001FFFFC0000003FFFFF0000007FFFFF02D
:100E200000000FFFFFFC00003FFFFFFF0000FFFF7F
:100E30007FFFF00FFFFE7FFFFFFFFFFE3FFFFFFF83
:100E4000FFFC0FFFFFFFFFF00FFFFFFFFFF03FFF73
:100E5000FFFFFFFC7FFFFFFFFFFE7FFFC001FFFEE4
:100E6000FFFF0000FFFFFFFC00001FFFFFF000007E
:100E70000FFFFFE0000003FFFFC0000001FFFF8045
:100E8000000000FFFF000000007FFE000000007F68
:100E9000FE000000003FFC008000801FF801C0033E
:100EA000C01FF803E003E01FF803F00FE00FF001AC
:100EB000F80FC007F000FC1F8007F0007E7F0007DE
:100EC000E0003FFE0007E0001FFC0007E0000FF815
:100ED0000007E00007F00007E00007F00007E0006F
:100EE0001FF80007E0001FFC0007E0007FFE00077E
:100EF000F0007E3F0007F001FC1F8007F001F80FB3
:100F0000C00FF803F007E00FF803E003E01FF8015B
:100F1000C001801FFE008000803FFE000000003FF7
:100F2000FF000000007FFF000000007FFF80000046
:100F300000FFFFC0000001FFFFF0000007FFFFF807
:100F400000000FFFFFFC00003FFFFFFF8000FFFFDE
:100F50007FFFF007FFFE7FFFFFFFFFFE3FFFFFFF6A
:100F6000FFFC0FFFFFFFFFF00FFFFFFFFFF03FFF52
:100F7000FFFFFFFC7FFFFFFFFFFE7FFFF00FFFFE85
:100F8000FFFFF00FFFFFFFFFE007FFBFFFFFC3C33F
:100F9000FF1FFFFF87E1FE0FFFFF0FF0FC1FFFFEAB
:100FA0001FF8783FFFFC3FFCF07FFFF87FFFE0FF7A
:100FB000FFF0FFFFC1FFFFE1FFFF83FFFFE3FFFF44
:100FC00007FFFFE3FFFE07FFFFE3FFFC07FFFFE371
:100FD000FFF807FFFFE3FFF047FFFFE3FFE0C7FF76
:100FE000FFE3FFC1C7FFFFE3FF83C7FFFFE3FF0787
:100FF000C7FFFFE3FE0FC7FFFFE3FC1FC7FFFFE3D1
:10100000F83FC7FFFFE3F07FC7FFFFE3E0FFC7FF45
:10101000FFE3C1FFC7FFFFE783FFC7FFFFEF07FF46
:10102000C7FFFFFE0FFFC1FFFFFC1FFFE0FFFFF840
:101030003FFFF87FFFF07FFFFC3FFFE00000003F35
:10104000FFC00000003FFF800000003FFF07FFFFE0
:10105000FFFFFE0FC003FFFFFC1FC003FFFFFE3FAB
:10106000E007FFFFFF7FE007FFFFFFFFF81FFFFF25
:101070007FFFF81FFFFE7FFFFFFFFFFE3FFFFFFF29
:10108000FFFC0FFFFFFFFFF00FFFFFFFFFF03FFF31
:10109000FFFFFFFC7FFFFFFFFFFE7FFFFFFFFFFE65
:1010A000F0000000000FF0000000000FF000000052
:1010B000000FF1FFFFFFFF8FF1FFFFF8888FF1FFB7
:1010C000FFF8888FF1FFFFF8888FF1FFFFFFFF8F98
:1010D000F0000000000FF0000000000FF000000022
:1010E000000FF1FFFFFFFF8FF10DDDFE4A8FF10AC8
:1010F000AAFFCD8FF10888FE5F8FF11AAAFFFF8F3C
:10110000F1FFFFFFFF8FF1FFFFFFFF8FF1FFFF00F8
:10111000008FF10C017FFF8FF16FFF46318FF16C73
:101120003F56B78FF11FFF56B78FF1FFFF46318F44
:10113000F1FFFF77B58FF1FFFF77B58FF10C0177E6
:10114000B58FF16FFF46318FF16C3F7FFF8FF11F3D
:10115000FF00008FF1FFFFFFFF8FF1FFFFFFFF8F09
:10116000F1FFFFFFFF8FF100002AA48FF10000556F
:10117000228FF1E0002AA48FF1FFFFFFFF8FF00024
:101180000000000FF0000000000FF0000000000F52
:101190007FFFFFFFFFFE7FFFFFFFFFFE3FFFFFFF21
:1011A000FFFC0FFFFFFFFFF00FFFFFFFFFF03FFF10
:1011B000FFFFFFFC7FFFFFFFFFFE7FFFFFFFFFFE44
:1011C000F0000000000FF0000000000FF000000031
:1011D000000FF1FFFFFFFF8FF1FFFFF8888FF1FF96
:1011E000FFF8888FF1FFFFF8888FF1FFFFFFFF8F77
:1011F000F0000000000FF0000000000FF000000001
:10120000000FF1FFFFFFFF8FF1FFFFFFFF8FF1FFE7
:10121000FFFFFF8FF1FFFFFFFF8FF1FFFFFFFF8F4A
:10122000F180F01F018FF180F01F018FF19CF39F7F
:10123000F98FF19CF39FF98FF19CF39FF98FF19C4B
:10124000F39FF98FF180F01C018FF180F01C018F6A
:10125000F1FCFF9CF98FF1FCFF9CF98FF1FCFF9CE6
:10126000F98FF1FCFF9CF98FF100E01C018FF10078
:10127000E01C018FF1FFFFFFFF8FF1FFFFFFFF8FEA
:10128000F1FFFFFFFF8FF1FFFFFFFF8FF1FFFFFF78
:10129000FF8FF1FFFFFFFF8FF1FFFFFFFF8FF000D8
:1012A0000000000FF0000000000FF0000000000F31
:1012B0007FFFFFFFFFFE7FFFFFFFFFFE3FFFFFFF00
:1012C000FFFC0FFFFFFFFFF00FFFFFFFFFF03FFFEF
:1012D000FFFFFFFC7FFFFFFFFFFE7FFFFFFFFFFE23
:1012E000FFFFFFFFFFFFFDFFFFFFFFFFF8FFFFFF17
:1012F000FFFFF07FFFFFFFFFE03FFFFFFFFFF8FF73
:10130000FFFFFFFFF8FFFFFFFFFFF8FFFFFFFFFFFB
:10131000F8E7FFFFFFFFF8E7FFE1FFFFF8E3FF005B
:101320007FFFF8F3FE0C1FFFF8F3F87F0FFFF8F1D3
:10133000F0FFC7FFF8F9E3FFE3FFF8F8E7FFF1FF7D
:10134000F8FC47FFF8FFF8FE0FFFFCFFF8FF1FFF58
:10135000FFFFF8FF1FFFFFFFF8FE0FFFFFFFF8FE84
:1013600047FFFFFFF8FC63FFFFFFF8FCF0FFFFFF04
:10137000F8F8F87FFFFFF8F9FE1FFFFFF8F1FF070D
:10138000FFFFF8E3FFC1FFFFF8C7FFF01FFFF8C73B
:10139000FFFC07FFF8CFFFFFC7FFF8FFFFFFFFFFCE
:1013A000F8FFFFFFFFFFF8FFFFFFFFBFF8FFFFFFA2
:1013B000FF9FF8000000000FF80000000007F80091
:1013C0000000000FFFFFFFFFFF9FFFFFFFFFFFBFBA
:1013D0007FFFFFFFFFFE7FFFFFFFFFFE3FFFFFFFDF
:1013E000FFFC0FFFFFFFFFF00FFFFFFFFFF03FFFCE
:1013F000FFFFFFFC7FFFFFFFFFFE7FFFFFFFFFFE02
:10140000FFFFFFFFFFFFFDFFFFFFFFFFF8FFFFFFF5
:10141000FFFFF07FFFFFFFFFE03FFFFFFFFFF8FF51
:10142000FFFFFFFFF8FFFFFFFFFFF8FFFFFFFFFFDA
:10143000F8E7FFFFFFFFF8E7C00003FFF8E3C00095
:1014400003FFF8F3CFFFFFFFF8F3CFFFFFFFF8F143
:10145000CFFFFFFFF8F9CFFFFFFFF8F8CFFFFFFF47
:10146000F8FC4FFFFFFFF8FE0FFFFFFFF8FF0FFF35
:10147000FFFFF8FF0FFFFFFFF8FF8FFFFFFFF8FFF1
:10148000C7FFFFFFF8FFC3FFFFFFF8FFC0FFFFFF2D
:10149000F8FFC87FFFFFF8800E1FFFFFF8800F07DF
:1014A000FFFFF8FFFFC1FFFFF8FFFFF01FFFF8FF8E
:1014B000FFFC07FFF8FFFFFFC7FFF8FFFFFFFFFF7D
:1014C000F8FFFFFFFFFFF8FFFFFFFFBFF8FFFFFF81
:1014D000FF9FF8000000000FF80000000007F80070
:1014E0000000000FFFFFFFFFFF9FFFFFFFFFFFBF99
:1014F0007FFFFFFFFFFE7FFFFFFFFFFE3FFFFFFFBE
:10150000FFFC0FFFFFFFFFF00FFFFFFFFFF03FFFAC
:10151000FFFFFFFC7FFFFFFFFFFE7FFFFE3FFFFEA1
:10152000FFFFFE3FFFFFFFFFFE3FFFFFFFFFFE3F0E
:10153000FFFFFFFFFE3FFFFFFFFFBE3DFFFFFFFE80
:101540003E3C7FFFFFFC3E3C3FFFFFF83E3C1FFF61
:10155000FFF0FE3F0FFFFFE1FE3F87FFFFC3FE3FAF
:10156000C3FFFF87FE3FE1FFFF8FFE3FF1FFFF0F4D
:10157000FE3FF0FFFF1FFE3FF8FFFF1FFE3FF8FF9B
:10158000FE1FFE3FFC7FFE3FFE3FFC7FFE3FFE3F17
:10159000FC7FFE3FFE3FFC7FFE3FFE3FFC7FFE3FA9
:1015A000FFFFFC7FFE3FFFFFFC7FFE1FFFFFFC7F76
:1015B000FF1FFFFFF8FFFF1FFFFFF8FFFF0FFFFFF9
:1015C000F0FFFF8FFFFFF1FFFF87FFFFE1FFFFC38A
:1015D000FFFFC3FFFFE1FFFF87FFFFF0FFFF07FFF4
:1015E000FFF83FFC0FFFFFFC0FF03FFFFFFE000086
:1015F0007FFFFFFF8001FFFFFFFFF00FFFFFFFFFF7
:10160000FFFFFFFFFFFFFFFFFFFFFFFFFFFFFFFFEA
:101610007FFFFFFFFFFE7FFFFFFFFFFE3FFFFFFF9C
:10162000FFFC0FFFFFFFFFF00FFFFFFFFFF03FFF8B
:10163000FFFFFFFC7FFEFFFFFFFE7FFE7FFFFFFE41
:10164000FFFE3FFFFFFFFFFE1FFFFFFFFFFE0FFF3D
:10165000FFFFFFFE07FFFFFFFFFE03FFFFFFFFFE91
:1016600001FFFFFFFFFE01FFFFFFFFFC00FFFFFF89
:10167000FFF800FFFFFFFFF000FFFFFFFFE0007F2C
:10168000FFFFFFE0007FFFFFFFC0007FFFFFFF8045
:10169000007FFFFFFF00007EFFFFFF00007E7FFF57
:1016A000FE0000FE3FFFFC0000FF1FFFFC0000FEED
:1016B0000FFFF80001FE07FFF80001FE03FFF00036
:1016C00003FC01FFF00007FC01FFF0000FF801FF31
:1016D000F0001FF000FFF0001FF000FFF0003FE0FF
:1016E000007FF8007FC0007FF800FF80007FFC00D3
:1016F000FF00007FFC01FF00007FFE01FE00007F75
:10170000FE03FC00007FFF03F80000FFFF83F800EA
:1017100000FFFFC7F80000FFFFE3F00001FFFFF349
:10172000F00003FFFFFFF00007FFFFFFFFFFFFFFD9
:101730007FFFFFFFFFFE7FFFFFFFFFFE3FFFFFFF7B
:10174000FFFC0FFFFFFFFFF00FFFFFFFFFF03FFF6A
:10175000FFFFFFFC7FFFFFFFFFFE7FFFFFC1FFFEDC
:10176000FFFFFF01FFFFFFFFFC01FFFFFFFFF00195
:10177000FFFFFFFFC001FFFFFFFF0007FFFFFFFCB0
:10178000001FFFFFFFF0007F9FFFFFE001FE0FFF44
:10179000FFC007F807FFFFC01FE007FFFFC07F8003
:1017A00007FFFFE1FE001FFFFFFFF8003FFFFFFF05
:1017B000E001FFFFFFFF8003FFFFFFFE000FFFFFC1
:1017C000FFF8003FFFFFFFE000FE0FFFFFC003FC3C
:1017D00007FFFFC00FE007FFFFC03FC007FFFFC0CC
:1017E000FE000FFFFFFFFC003FFFFFFFE0007FFF59
:1017F000FFFFC003FFFFFFFF0001FFFFFFFE00012F
:10180000FFFFFFFE0000FFFFFFFE0001FFFFFFFFE5
:101810000001FFFFFFFFFFFFFFFFFFFFFFFFFFFFD5
:10182000FFFFFFFFFFFFFFFFFFFFFFFFFFFFFFFFC8
:10183000FFFFFFFFE00FFFFFFFFFC007FFFFFFFFFE
:101840008007FFFFFFFF8007FFFFFFFFC00FFFFFC5
:101850007FFFE01FFFFE7FFFFFFFFFFE3FFFFFFF59
:10186000FFFC0FFFFFFFFFF00FFFFFFFFFF03FFF49
:10187000FFFFFFFC7FFFFFFFFFFE7FFFFFFFFFFE7D
:10188000F00000001FFFF00000000FFFF00000005C
:1018900007FFF1C00FF8C3FFF1C00FF8E1FFF1C07F
:1018A0000FF8F0FFF1C00FF8F87FF1C00FF8FC3F20
:1018B000F1C00FF8FE1FF1C00000FF0FF1C00000E3
:1018C000FF8FF1C00000FF8FF1FFFFFFFF8FF1FFDF
:1018D000FFFFFF8FF1FFFFFFFF8FF1FFFFFFFF8F84
:1018E000F1FFFFFFFF8FF1FFFFFFFF8FF1FFFFFF12
:1018F000FF8FF1FFFFFFFF8FF1FFFFFFFF8FF1C0B1
:101900000000038FF1C00000038FF1C00000038FBF
:10191000F1C7FFFFE38FF1C7FFFFE38FF1C60000C0
:10192000E38FF1C60000E38FF1C60000E38FF1C73B
:10193000FFFFE38FF1C7FFFFE38FF1C60000E38FE6
:10194000F1C60000E38FF1C60000E38FF1C7FFFF8F
:10195000E38FF1C7FFFFE38FF1C7FFFFE38FF000D5
:101960000000000FF0000000000FF0000000000F6A
:101970007FFFFFFFFFFE7FFFFFFFFFFE3FFFFFFF39
:10198000FFFC0FFFFFFFFFF00FFFFFFFFFF03FFF28
:10199000FFFFFFFC7FFFFFFFFFFE7FFFFFFFFFFE5C
:1019A000FFFFFFFFFFFFFFFFFFFFFFFFFFFFFFFF47
:1019B000FFFFFFFFFFFFFFFFFFFFFFFFFFFFFFFF37
:1019C000FFFFFFFFFFFFFFFFFFFFFFFFFE3FFFFFE8
:1019D000FFFFFE3FFFFFFFFFFE3FFFFFFFFFFE3F5A
:1019E000FFFFFFFFFE3FFFFFFFFFFE3FFFFFFFFF89
:1019F000FE3FFFFFFFFFFE3FFFFFFFFFFE3FFFFF3A
:101A0000FFFFFE3FFFFFFFFFFE3FFFFFFFF0000075
:101A10000FFFFFF000000FFFFFF000000FFFFFFFC0
:101A2000FFFFFFFFFFFFFE3FFFFFFFFFFE3FFFFF48
:101A3000FFFFFE3FFFFFFFFFFE3FFFFFFFFFFE3FF9
:101A4000FFFFFFFFFE3FFFFFFFFFFE3FFFFFFFFF28
:101A5000FE3FFFFFFFFFFE3FFFFFFFFFFFFFFFFF18
:101A6000FFFFFFFFFFFFFFFFFFFFFFFFFFFFFFFF86
:101A7000FFFFFFFFFFFFFFFFFFFFFFFFFFFFFFFF76
:101A8000FFFFFFFFFFFFFFFFFFFFFFFFFFFFFFFF66
:101A90007FFFFFFFFFFE7FFFFFFFFFFE3FFFFFFF18
:101AA000FFFC0FFFFFFFFFF00FFFFFFFFFF03FFE08
:101AB00000007FFC7FFE00007FFE7FFC00003FFEF9
:101AC000FFFC7FFE3FFFFFFC7FFE3FFFFFFC7FFE32
:101AD0003FFFFC000000001FF8000000000FF000B6
:101AE00000000007F1FFFFFFFFC7F1FFFFFFFFC787
:101AF000F1FFFFFFFFC7F00000000007F800000043
:101B0000000FFC000000001FFFFFFFFFFFFFFC7F36
:101B1000FFFFFE3FFC7FFFFFFE3FFC7FFFFFFE3F1E
:101B2000FC7F8FF8FE3FFC7F8FF8FE3FFC7F8FF835
:101B3000FE3FFC7F8FF8FE3FFC7F8FF8FE3FFC7F6F
:101B40008FF8FE3FFC7F8FF8FE3FFC7F8FF8FE3F53
:101B5000FC7F8FF8FE3FFC7F8FF8FE3FFC7F8FF805
:101B6000FE3FFC7F8FF8FE3FFC7F8FF8FE3FFC7F3F
:101B70008FF8FE3FFC7F8FF8FE3FFC7F8FF8FE3F23
:101B8000FC7F8FF8FE3FFC7FFFFFFE3FFC7FFFFFE7
:101B9000FE3FFC7FFFFFFE3FFC7FFFFFFE3FFC7F21
:101BA000FFFFFE3FFC3FFFFFFC3FFC000000003F4B
:101BB0007E000000007E7F00000000FE3FFFFFFF70
:101BC000FFFC0FFFFFFFFFF00FFFFFFFFFF03FFFE6
:101BD000FFFFFFFC7FFFFFFFFFFE7FFFFFFFFFFE1A
:101BE000FFFFFFFFFFFFFFFFFFFFFFFFFFFFFFFF05
:101BF000FFFFFFFFF007FFFFFFFF8000FFFFFFFE7B
:101C000000003FFFFFF807F00FFFFFF03FFE07FF68
:101C1000FFE0FFFF83FFFFC1FFFFE1FFFF87FFFF43
:101C2000F0FFFF0FFFFFF87FFF0FFFFFFC7FFE1F9E
:101C3000FFFFFC3FFE3FFFFFFE3FFC3FF3FBFE1FAD
:101C4000FC7FE1F0FF1FFC7FC0E07F1FF87F80403A
:101C50007F0FF8FF00003F8FF8FF00003F8FF8FF75
:101C600000001F8FF8FE00001F8FFFFE00001FFF07
:101C7000FFFE00001FFFFFFE00001FFFFFFF000030
:101C80001FFFFFFF00003FFFFFFF00003FFFFFFFC0
:101C900080007FFFFFFF80007FFFFFFFC000FFFF8E
:101CA000FFFFF003FFFFFFFFFC0FFFFFFFFFFFFF42
:101CB000FFFFFFFFFFFFFFFFFFFFFFFFFFFFFFFF34
:101CC000FFFFFFFFFFFFFFFFFFFFFFFFFFFFFFFF24
:101CD0007FFFFFFFFFFE7FFFFFFFFFFE3FFFFFFFD6
:101CE000FFFC0FFFFFFFFFF00FFFFFFFFFF03FFFC5
:101CF000FFFFFFFC7FFFFFFFFFFE600000001FFEF5
:101D0000E00000001FFFE00000001FFFE3FFFFFFF7
:101D10001FFFE3FFFFFF1FFFE3FFFFFF10FFE3FFD6
:101D2000FFFF10FFE3FFFFFF10FFE3FFFFFF18FFC0
:101D3000E3FFFFFF18FFE3FFFFFF1887E3FFFFFF4D
:101D40001887E3FFFFFF1887E3FFFFFF18C7E3FFD4
:101D5000FFFF18C7E3FFFFFF18C7E3FFFFFF18C728
:101D6000E3FFFFFF18C7E3FFFFFF18C7E3FFFFFF15
:101D700018C7E3FFFFFF18C7E3FFFFFF18C7E3FF24
:101D8000FFFF18C7E3FFFFFF18C7E3FFFFFF18C7F8
:101D9000E3FFFFFF18C7E3FFFFFF18C7E3FFFFFFE5
:101DA00018C7E3FFFFFF18C7E000000018C7E000F6
:101DB000000018C7E000000018C7FFFFFFFFF8C7CA
:101DC000FF1FFFFFF8C7FF00000000C7FF00000073
:101DD00000C7FF00000000C7FFFFFFFFFFC7FFF8BD
:101DE000FFFFFFC7FFF800000007FFF80000000733
:101DF0007FF8000000067FFFFFFFFFFE3FFFFFFFB1
:101E0000FFFC0FFFFFFFFFF00FFFFFFFFFF03FFFA3
:101E1000FFFFFFFC7FFFFFFFFFFE7FFFFFFFFFFED7
:101E2000FFFFFFFFFFFFF000007FFFFFF000007FDC
:101E3000FFFFF000007FFFFFF1FFFFFFFF0FF1FF4B
:101E4000FFFFFE0FF1FFFFFFFC0FF1FFFFFFF81F89
:101E5000F1FFFFFFF03FF1FFFFFFE07FF1FFFFFF2A
:101E6000C0FFF1FFFFFF81FFF1FFFFFF03FFF1FF65
:101E7000FFFE07FFF1FFFFFC0FFFF1FE1FF81FFF42
:101E8000F1FE0FF03FFFF1FE07E07FFFF1FE03C020
:101E9000FFFFF1FF0181FFFFF1FF8003FFFFF1FF73
:101EA000C007FC7FF1FFE00FFC7FF1FFF01FFC7F1C
:101EB000F1FFF83FFC7FF1FFFC7FFC7FF1FFFFFFAC
:101EC000FC7FF1FFFFFFFC7FF1FFFFFFFC7FF1FFD5
:101ED000FFFFFC7FF1FFFFFFFC7FF1FFFFFFFC7FB7
:101EE000F1FFFFFFFC7FF1FFFFFFFC7FF1FFFFFF32
:101EF000FC7FF0000000007FF0000000007FF00099
:101F00000000007FFFFFFFFFFFFFFFFFFFFFFFFF5E
:101F10007FFFFFFFFFFE7FFFFFFFFFFE3FFFFFFF93
:101F2000FFFC0FFFFFFFFFF00FFFFFFFFFF03FFF82
:101F3000FFFFFFFC7FFFFFFFFFFE7FFFFFFFFFFEB6
:101F4000FFFFFFFFFFFFFFFFFF1FFFFFFFFFFE0F72
:101F5000FFFFFFFFFE0FFFFFFFFFFE0FFFFFFFFF73
:101F6000FF1FFFFFFFFFFFFFFFFFFFFFFFFFFFFF61
:101F7000FFFFFFFFFFFFFFFFFFFFFFFFFFFFFFFF71
:101F8000FFFFFFFFC00FFFFFFFFF8007FFFFFFFF07
:101F90000007FFFFFFFE0F87FFFFFFFE1FC7FFFFCA
:101FA000FFFE3FC7FFFFFFFE3FC7FFFFFFFFFFC76B
:101FB000FFFFFFFFFFC7FFFFFFFFFFC7FFFFFFFFA1
:101FC000FF87FFFFFFFFFF0FFFFFFFFFFE1FFFFF6A
:101FD000FFFFFC3FFFFFFFFFF87FFFFFFFFFF0FF6A
:101FE000FFFFFFFFF1FFFFFFFFFFF1FFFFFFFFFF1D
:101FF000F1FFFFFFFFFFF1FFFFFFFFFFF1FFFFFF1B
:10200000FFFFF1FE3FFFFFFFF0FE3FFFFFFFF87C09
:102010003FFFFFFFFC003FFFFFFFFE007FFFFFFFD2
:10202000FF00FFFFFFFFFFFFFFFFFFFFFFFFFFFFBF
:102030007FFFFFFFFFFE7FFFFFFFFFFE3FFFFFFF72
:10204000FFFC0FFFFFFFFFF00FFFFFFFFFF03FFF61
:10205000FFFFFFFC7FFFC001FFFE7FFE00007FFE51
:10206000FFF800001FFFFFE0000007FFFFC0400275
:1020700003FFFF81800181FFFF078420E0FFFE0F47
:102080000C30F07FFC1E0C38783FF83E1C387C1F6B
:10209000F87C1C3C3E1FF07C3C3C3F0FF0FC3C3E7F
:1020A0001F0FE1F87C3E1F87E1F87C3E1F87E1F8B7
:1020B0007C3F1FC7C3F8FC3F0FC3C3F0FC3F0FC3F7
:1020C000C3F0FC3F0FC3C00000000003C0000000CD
:1020D0000003C00000000003C00000000003C7F0C0
:1020E000FC3F0FE3C3F0FC3F0FE3C3F0FC3F0FC323
:1020F000C3F0FC3F0FC3C3F0FC3F0FC3E1F8FC3F4C
:102100001FC7E1F87C3E1F87E1F87C3E1F87F0FC8B
:102110007C3E3F0FF07C3C3C3E0FF87C3C3C3E1F3D
:10212000FC3E1C387C3FFC1E0C30783FFE0F0C3010
:10213000F07FFF030420C0FFFF81800181FFFFC00B
:10214000000003FFFFF000000FFFFFF800001FFF7B
:102150007FFE00007FFE7FFFC003FFFE3FFFFFFF0B
:10216000FFFC0FFFFFFFFFF00FFFFFFFFFF03FFF40
:10217000FFFFFFFC7FFFFFFFFFFE7FFFF00FFFFE73
:10218000FFFFF00FFFFFFFFFE007FFFFFFFFC3C3ED
:10219000FFFFFFFF87E1FFFFFFFF0FF0FFFFFFFEE5
:1021A0001FF87FFFFFFC3FFC3FFFFFF87FFE1FFF94
:1021B000FFF0FFFF0FFFFFE1FFFF87FFFFE3FFFFE0
:1021C000C7FFFFE3FFFFC7FFFFE3FFFFC7FFFFE31B
:1021D000FFFFC7FFFFE3FFFFC7FFFFE3FFFFC7FFEF
:1021E000FFE3FFFFC7FFFFE3FFFFC7FFFFE3FFFFC3
:1021F000C7FFFFE3FFFFC7FFFFE3FFFFC7FFFFE3EB
:10220000FFFFC7FFFFE3FFFFC7FFFFE3FFFFC7FFBE
:10221000FFE3FFFFC7FFFFE3FFFFC7FFFFE3FFFF92
:10222000C7FFFF83FFFFC1FFFF07FFFFE0FFFE1FA8
:10223000FFFFF87FFC3FFFFFFC3FFC000000003F7A
:10224000FC000000003FFC000000003FFFFFFFFF1C
:10225000FFFFFFFFC003FFFFFFFFC003FFFFFFFF04
:10226000E007FFFFFFFFE007FFFFFFFFF81FFFFF93
:102270007FFFF81FFFFE7FFFFFFFFFFE3FFFFFFF17
:10228000FFFC0FFFFFFFFFF00FFFFFFFFFF03FFF1F
:10229000FFFFFFFC7FFFFFFFFFFE7FFFFFFFFFFE53
:1022A000F0000000000FF0000000000FF000000040
:1022B000000FF1FFFFFFFF8FF1FFFFF8888FF1FFA5
:1022C000FFF8888FF1FFFFF8888FF1FFFFFFFF8F86
:1022D000F0000000000FF0000000000FF000000010
:1022E000000FF1FFFFFFFF8FF1FFFFFFFF8FF18F67
:1022F000FFFFFF8FF187FFFFFF8FF1E3FFFFFF8FEE
:10230000F1F1FFFFFF8FF1F0FFFFFF8FF1F1FFFF12
:10231000FF8FF1E3FFFFFF8FF187FFFFFF8FF18F4B
:10232000FFFFFF8FF1FFC0FFFF8FF1FFC0FFFF8FA7
:10233000F1FFC0FFFF8FF1FFFFFFFF8FF1FFFFFFF6
:10234000FF8FF1FFFFFFFF8FF1FFFFFFFF8FF1FF17
:10235000FFFFFF8FF1FFFFFFFF8FF1FFFFFFFF8FF9
:10236000F1FFFFFFFF8FF1FFFFFFFF8FF1FFFFFF87
:10237000FF8FF1FFFFFFFF8FF1FFFFFFFF8FF000E7
:102380000000000FF0000000000FF0000000000F40
:102390007FFFFFFFFFFE7FFFFFFFFFFE3FFFFFFF0F
:1023A000FFFC0FFFFFFFFFF00FFFFFFFFFF03FFFFE
:1023B000FFFFFFFC7FFFFF803FFE7FFFFF003FFE30
:1023C000FFFFFE007FFFFFFFFC00FFFFFFFFF801A4
:1023D000FFFFFFFFF003FFFFFFFFE007FFFFFFFF2F
:1023E000C007FFFFFFFFC007FFFFFFFFC007FFFFA2
:1023F000FFFFC007FFFFFFFFC007FFFFFFFFC00792
:10240000FFE7FFFFC007FFC7FFFFC007FF87FFFF12
:10241000C007FF07FFFFC007FE07FFFFC000000760
:10242000FFFFC0000007FFFFC000000FFFFF80009C
:10243000000FFFFF0000001FFFFE0000003FFFFC39
:102440000000007FFFF8000000FFFFF0000001FF28
:10245000FFE0000003FFFFC0000007FFFF80007FD8
:10246000FFFFFF0000FFFFFFFE0001FFFFFFFC007A
:1024700003FFFFFFF80007FFFFFFF0000FFFFFFF64
:10248000E0001FFFFFFFC3803FFFFFFF87C07FFF0C
:10249000FFFF87C0FFFFFFFF87C1FFFFFFFF8383B1
:1024A000FFFFFFFFC007FFFFFFFFC00FFFFFFFFFA2
:1024B000601FFFFFFFFE783FFFFFFFFE3FFFFFFFB4
:1024C000FFFC0FFFFFFFFFF00FFFFFFFFFF03FFFDD
:1024D000FFFFFFFC7FFFFFFFFFFE7FC7FFFFF1FE57
:1024E000FF03FFFFE07FFE03FFFFE03FFC03FFFF72
:1024F000E01FF807F007F00FF00F8000F807E01E6C
:1025000000003C03E03C00001E03E07000000703F5
:10251000E0E000000383F1C001C001C7FF8003E0D9
:1025200000FFFF8003E000FFFF0003E0007FFF00EB
:1025300003E0007FFE0003E0003FFE0003E0003FF9
:10254000FC0003E0001FFC0003E0001FFC0003E0B0
:10255000001FFC0003E0001FFC0003E0001FFC0064
:1025600003F0001FFC0001F8001FFC0000FC001F2E
:10257000FC00003E001FFE00001F003FFE00000F99
:10258000803FFF000007803FFF000003007FFF80C7
:10259000000000FFFF80000000FFFF80000000FF40
:1025A000FF000000007FFE000000003FFC00000074
:1025B000001FFC060000301FFC0F8000F81FFE1FEC
:1025C000F007FC3FFFFFFFFFFFFFFFFFFFFFFFFFE5
:1025D0007FFFFFFFFFFE7FFFFFFFFFFE3FFFFFFFCD
:1025E000FFFC0FFFFFFFFFF00FFFFFFFFFF03FFFBC
:1025F000FFFFFFFC7FFFF83FFFFE7FFFF01FFFFEA6
:10260000FFFFE38FFFFFFFFFE7CFFFFFFFFFE7CFF6
:10261000FFFFFFFFE7CFFFFFFFFFE1CFFFFFFFFF60
:10262000E1CFFFFFFFFFE7CFFFFFFFFFE7CFFFFF98
:10263000FFFFE7CFFFFFFFFFE7CFFFFFFFFFE1CF88
:10264000FFFFFFFFE1CFFFFFFFFFE7CFFFFFFFFF30
:10265000E7CFFFFFFFFFE7CFFFFFFFFFE7CFFFFF62
:10266000FFFFE1CFFFFFFFFFE1CFFFFFFFFFE7CF5E
:10267000FFFFFFFFE7CFFFFFFFFFE3CFFFFFFFFFFE
:10268000E0CFFFFFFFFFE00FFFFFFFFFE00FFFFFC7
:10269000FFFFE00FFFFFFFFFE00FFFFFFFFFE00F77
:1026A000FFFFFFFFE00FFFFFFFFFE00FFFFFFFFF58
:1026B000E00FFFFFFFFFC007FFFFFFFF8003FFFFEB
:1026C000FFFF8003FFFFFFFF8003FFFFFFFF80038B
:1026D000FFFFFFFF8003FFFFFFFF8003FFFFFFFF00
:1026E000C007FFFFFFFFC007FFFFFFFFE00FFFFF77
:1026F0007FFFF01FFFFE7FFFFFFFFFFE3FFFFFFF9B
:10270000FFFC0FFFFFFFFFF00FFFFFFFFFF03FFF9A
:10271000FFFFFFFC7FFFFFFFFFFE70003FFFFFFE9C
:10272000F0001FFFFFFFF0000FFFFFFFF00007FFAB
:10273000FFFFF00003FFFFFFF00001FFFFFFF00FBE
:1027400080FFFFFFF01FC07FFFFFF03FE03FFFFF74
:10275000F07FF01FFFFFF07FF00FFFFFF07FF0072B
:10276000FFFFF07FF003FFFFF03FE001FFFFF03FCE
:10277000E000FFFFF01FC0007FFFF00F80003FFF71
:10278000F80000001FFFFC0000000FFFFE0000002B
:1027900007FFFF00000003FFFF80000001FFFFC0F4
:1027A000000000FFFFE00000007FFFF00000003F9E
:1027B000FFF80000001FFFFC0000000FFFFE0000FC
:1027C0000007FFFF00000003FFFF80000007FFFF7E
:1027D000C000000FFFFFE000001FFFFFF000003F00
:1027E000FFFFF800007FFFFFFC0000FFFFFFFE007F
:1027F00001FFFFFFFF0003FFFFFFFF8007FFFFFF59
:10280000FFC00FFFFFFFFFE01FFFFFFFFFF03FFFD5
:102810007FFFFFF87FFE7FFFFFFCFFFE3FFFFFFF14
:10282000FFFC0FFFFFFFFFF0000007E01FF8181884
:102830001818181800003FFC3C3C3C3C3C3C3E7CDB
:102840003E7C3FFC3FFC00000400060007000F0038
:102850000F801F803F907F187F1C7E3C7C3E787EDF
:1028600078FE31FE11FC09F80FE01FF83FFC7FFEF7
:10287000FFE6FFCEFF9FF33FF07FF8FFFDFE7FFEF8
:102880007FFC3FF81FF003C000E003C00F001C38BE
:1028900010F003C00F001C3810F003E007E007E061
:1028A0000000000003C003800180018001801990B6
:1028B00039B8318C618C618660066006600E700CE0
:1028C000301C1C780FF003C00380038003C007C0D6
:1028D00007E00FE00E701E701E701E783FF83FFC80
:1028E0007E7C7E7E7FFE7FFE1140820021208FE075
:1028F00023FC82004A23E200FE209FF013F8808030
:102900002220C0804221BFF0FBFA88800220848010
:10291000022084801A208080E3FE82800201010070
:102920000F421FC0784110400840904008421FC02D
:1029300008411040FFFD104008405FC00840800083
:1029400008413FE008432520104125201041252063
:102950002041252040417FF07FF848800200490057
:102960000201FFF00201001002027F20220041005C
:1029700023F07F00220008002200FF8022008880D0
:102980002200888022008A8022008900FFFC080043
:1029900023F21FC022111040FBF0904022121FC0F2
:1029A0002A11104033F1104060005FC0AFFC80007E
:1029B00020413FE022432520227925202241252065
:1029C000A541252048FD7FF01083DFC010825040D4
:1029D000208250402FFFDFC06082520061C252004F
:1029E000A1C25FE022A3D20022A251002492510092
:1029F000288E5090308BD450208258302080101078
:102A0000104047C017FC44402003F44023F84440E2
:102A10006208C440A3F8E440200154402FFD444024
:102A20002806444023F84440204044502040485069
:102A3000214050302080400020921FC03DF990403E
:102A40002090904040901FC07BFF0000A0013FE01D
:102A500021F90200FD09020021097FF021F905009A
:102A6000210945002909888031F9107021082020AA
:102A700025004300202070F83F3F3F0053617665FA
:102A800000466C6970004D61696E20536372656524
:102A90006E004F4B004E4F00454E00434E005945CF
:102AA00053004E4F004F4E004F464600496E666F32
:102AB0007300426967005049440044697265637459
:102AC000005361766500426F6F7374004F66660055
:102AD000536C656570005361766500426F6F737467
:102AE00000536C6565700044656661756C740053D5
:102AF000617665004164640044656C6574650052EC
:102B0000656E616D650043616C6962726174650038
:102B10004368616E67650052657475726E0041624C
:102B20006F7574004C616E670042757A7A65720049
:102B300053637265656E00436F6E74726F6C005400
:102B4000696D65720054656D7000546970003E00D7
:102B500053656C65637420546970000000000000C8
:102B60003E5B4F5B3E3E6B4F6B3E1C3E7C3E1C18FB
:102B70003C7E3C181C577D571C1C5E7F5E1C001859
:102B80003C1800FFE7C3E7FF0018241800FFE7DB4D
:102B9000E7FF30483A060E2629792926407F0505A9
:102BA00007407F05253F5A3CE73C5A7F3E1C1C08E6
:102BB000081C1C3E7F14227F22145F5F005F5F06AB
:102BC000097F017F006689956A606060606094A2F9
:102BD000FFA29408047E040810207E201008082A12
:102BE0001C08081C2A08081E101010100C1E0C1EB1
:102BF0000C30383E3830060E3E0E06000000000055
:102C000000005F00000007000700147F147F1424F9
:102C10002A7F2A122313086462364956205000087E
:102C2000070300001C2241000041221C002A1C7FD7
:102C30001C2A08083E0808008070300008080808B0
:102C400008000060600020100804023E5149453E23
:102C500000427F400072494949462141494D33189D
:102C600014127F1027454545393C4A4949314121D5
:102C70001109073649494936464949291E000014B9
:102C80000000004034000000081422411414141401
:102C900014004122140802015909063E415D594EB3
:102CA0007C1211127C7F494949363E414141227FC5
:102CB0004141413E7F494949417F090909013E415E
:102CC0004151737F0808087F00417F410020404147
:102CD0003F017F081422417F404040407F021C0298
:102CE0007F7F0408107F3E4141413E7F090909066C
:102CF0003E4151215E7F091929462649494932033F
:102D0000017F01033F4040403F1F2040201F3F40C4
:102D100038403F631408146303047804036159497D
:102D20004D43007F414141020408102000414141D0
:102D30007F040201020440404040400003070800B5
:102D400020545478407F2844443838444444283838
:102D50004444287F385454541800087E090218A4AB
:102D6000A49C787F0804047800447D400020404003
:102D70003D007F1028440000417F40007C0478041F
:102D8000787C080404783844444438FC1824241817
:102D900018242418FC7C08040408485454542404BF
:102DA000043F44243C4040207C1C2040201C3C40EC
:102DB00030403C44281028444C9090907C4464540B
:102DC0004C440008364100000077000000413608FE
:102DD0000002010204023C2623263C1EA1A161122E
:102DE0003A4040207A38545455592155557941215B
:102DF00054547841215554784020545579400C1E44
:102E000052721239555555593954545459395554EB
:102E100054580000457C410002457D420001457C3C
:102E200040F0292429F0F0282528F07C545545004D
:102E30002054547C547C0A097F4932494949323232
:102E400048484832324A4848303A4141217A3A4269
:102E5000402078009DA0A07D39444444393D404045
:102E6000403D3C24FF2424487E4943662B2FFC2F01
:102E70002BFF0929F620C0887E090320545479418C
:102E80000000447D413048484A32384040227A00B0
:102E90007A0A0A727D0D19317D2629292F282629C3
:102EA00029292630484D4020380808080808080815
:102EB00008382F10C8ACBA2F102834FA00007B0055
:102EC0000008142A142222142A14089500220095BE
:102ED000AA005500AAAA55AA55AA000000FF001092
:102EE0001010FF00141414FF001010FF00FF10104A
:102EF000F010F0141414FC001414F700FF0000FF8D
:102F000000FF1414F404FC141417101F10101F10E9
:102F10001F1414141F00101010F0000000001F10E8
:102F20001010101F10101010F010000000FF1010F3
:102F300010101010101010FF10000000FF140000FF
:102F4000FF00FF00001F10170000FC04F41414170A
:102F500010171414F404F40000FF00F714141414F0
:102F6000141414F700F7141414171410101F101F62
:102F7000141414F4141010F010F000001F101F00AF
:102F800000001F14000000FC140000F010F01010EE
:102F9000FF10FF141414FF141010101F0000000085
:102FA000F010FFFFFFFFFFF0F0F0F0F0FFFFFF0079
:102FB00000000000FFFF0F0F0F0F0F38444438448C
:102FC0007C2A2A3E147E02020606027E027E0263EC
:102FD000554941633844443C04407E201E2006028B
:102FE0007E020299A5E7A5991C2A492A1C4C720168
:102FF000724C304A4D4D303048784830BC625A46A9
:103000003D3E494949007E0101017E2A2A2A2A2A99
:1030100044445F444440514A444040444A51400083
:1030200000FF0103E080FF000008086B6B08361208
:10303000362436060F090F0600001818000000108D
:1030400010003040FF0101001F01011E00191D1773
:1030500012003C3C3C3C000000000000000000244A
:103060000027002A0000000000250028002B000097
:1030700000000023002600290004040404040404C2
:103080000402020202020203030303030301020417
:1030900008102040800102040810200102040810DA
:1030A00020AED5F0A83FD300408D14A1C8DA12811C
:1030B000CFD9F1DB40A4A6AF200021007F2200077A
:1030C000506C656173652077616974004144433ACF
:1030D000200074656D703A2000536574206D656141
:1030E000737572656400537465703A2000FFFFFFCA
:1030F000FFFFFF8003867080038003867080039F3C
:10310000F3E1309FF39FF3E1309FF3983301CC98C4
:1031100033983301CC9833983387C098339833E190
:10312000C098339833E1C098339FF398C09FF39FC2
:10313000F398C09FF3800366CC8003800366CC8045
:1031400003FFFF010CFFFFFFFF01001FFF81006174
:10315000301F3F873CE6FC8733873CE6FC87F3F86B
:10316000039E0F1F03F8039E0F1F03E13CFE0C0795
:10317000CFE13CFE0C07CF99033E3086C3E6CF3843
:103180000F9EF3E6CF380F9EF39E0327CC81039E5C
:103190000327CC8103E0FFE10CE6CFE0FFE10CE682
:1031A000CF9803060000FF9803060000FFFFFF1EF4
:1031B000F0F8038003663099C38003663099C39F9B
:1031C000F3010CF8FF9FF3010CF8FF9833393C0131
:1031D000CF9833393C01CF9833FF0C793F98333E79
:1031E000CCE0F398333ECCE0F39FF33E0098CF9FC2
:1031F000F33E0098CF80033E30E7C380033E30E7C4
:10320000C3FFFFFFFFFFFFFFFFFFFFFFFF30303077
:103210000076312E364C31005600560043000080B7
:103220000080018001800380078007F00FF00FE02D
:103230001FC001C00180018001800100010012480F
:1032400012481FF8E0072E142C04E807200420047D
:10325000E00720042814E0071FF8124812484552DE
:10326000524F5200484F4C44004845415400574F7C
:10327000524B5900424F4F535400534C4545500058
:103280004F46460000007E007F00738061C061E011
:1032900073F03FF81FFC0FFE07FF03FF01FE00FC69
:1032A000007800300102040810204080000000086F
:1032B00000020100000304070000000000000000FD
:1032C0001A2FBD3811241FBECFEFD8E0DEBFCDBF0F
:1032D00012E0A0E0B1E0E8E7FCE702C005900D9243
:1032E000A237B107D9F727E0A2E7B2E001C01D92EB
:1032F000A53CB207E1F719E1C1E6D9E104C0219785
:10330000FE010E94323CC036D107C9F70E94DE2F71
:103310000C942F3E0C9400004F925F926F927F921C
:103320008F929F92AF92BF92CF92DF92EF92FF92D5
:103330000F931F93CF93DF9300D000D0CDB7DEB7AC
:103340004B015C0129013A016701780120E030E07E
:10335000A9010E94373987FDA6C020E030E0A9010D
:10336000C301B2010E94373987FD9DC020E030E0E3
:10337000A901C801B6010E94373987FD94C081E0D8
:1033800020918507309186072130310509F080E0D2
:103390008093A60780926B0790926C07A0926D07AE
:1033A000B0926E0740926F0750927007609271075B
:1033B00070927207C0927307D0927407E0927507FB
:1033C000F09276076091990770919A0780919B0718
:1033D00090919C070E943C3920E030E04AE754E499
:1033E0000E94703B69837A838B839C8380927707EA
:1033F00090927807A0927907B0927A079B01AC016E
:10340000C301B2010E949D392B013C0140927B0710
:1034100050927C0760927D0770927E0729813A81E5
:103420004B815C81C701B6010E94703B6B017C013E
:10343000C0927F07D0928007E0928107F0928207C6
:103440008091830790918407019769F5A501940104
:1034500060E070E0CB010E94033B609377077093BC
:1034600078078093790790937A07A301920160E02F
:1034700070E0CB010E94033B60937B0770937C0755
:1034800080937D0790937E07A701960160E070E02E
:10349000CB010E94033B60937F077093800780936A
:1034A0008107909382070F900F900F900F90DF91FC
:1034B000CF911F910F91FF90EF90DF90CF90BF9031
:1034C000AF909F908F907F906F905F904F900895F6
:1034D00080389105B0F46034710598F4E4EAF2E3C1
:1034E00090E1969FD001A0781124A80F6770E60F95
:1034F000F11D9491AE53BD4F442321F08C91982B34
:103500009C93089590958C919823FACFDF92EF9237
:10351000FF920F931F93CF93DF937C01EB01D22E89
:103520008B01040F111DC8010134110514F080E452
:1035300090E0C817D9073CF44D2DBE01C7010E9489
:10354000681A2196F0CFDF91CF911F910F91FF90D4
:10355000EF90DF900895CF92DF92EF92FF920F935A
:103560001F93CF93DF936B01122FEC017C01E40ECC
:10357000F11CCE15DF0544F4202F412FB601CE01FA
:103580000E94861A2196F5CFDF91CF911F910F915E
:10359000FF90EF90DF90CF9008952F923F924F923F
:1035A0005F926F927F928F929F92AF92BF92CF92D3
:1035B000DF92EF92FF920F931F93CF93DF9300D090
:1035C0001F92CDB7DEB7C22ED12C9601280F391F1E
:1035D00037FD4FC0803891050CF04BC0E9824A019D
:1035E0007B013C01402E512C160127E0220E311C9C
:1035F00093E0359427949A95E1F78B01B12CA12C97
:103600001B821A82EA81FB8183E0F595E7958A9512
:10361000E1F7EA0DFB1DE80DF91DE4918A819B811C
:103620008770992720E830E002C0359527958A9564
:10363000E2F7C901F0E0E223F923EF2B41F04981E1
:10364000B8018A819B81860D971D0E94681A8A8124
:103650009B8101969B838A838C159D059CF2A20C0D
:10366000B31C0F5F1F4FC8018E199F098415950564
:103670003CF20F900F900F90DF91CF911F910F911F
:10368000FF90EF90DF90CF90BF90AF909F908F9082
:103690007F906F905F904F903F902F90089580E0C3
:1036A000E2ECF2E081118FEF00248193819381930A
:1036B00081930394D1F7EDEAF7E017861686158615
:1036C000148608950895AF92BF92CF92DF92EF9241
:1036D000FF920F931F93CF93DF936C017B018B01BC
:1036E000040F151FEB015E01AE18BF08C017D1070C
:1036F00059F06991D601ED91FC910190F081E02D96
:10370000C6010995892B79F7C501DF91CF911F91EA
:103710000F91FF90EF90DF90CF90BF90AF90089502
:10372000FC01538D448D252F30E0842F90E0821BC7
:10373000930B541710F0CF96089501970895FC014C
:10374000918D828D981761F0A28DAE0FBF2FB11DA4
:103750005D968C91928D9F5F9F73928F90E00895FC
:103760008FEF9FEF0895FC01918D828D981731F0B6
:10377000828DE80FF11D858D90E008958FEF9FEF0A
:103780000895FC01918D228D892F90E0805C9F4FE0
:10379000821B91098F739927089582EC96E00E940D
:1037A000C11B21E0892B09F420E0822F089580E0DD
:1037B00090E0892B29F00E94CD1B81110C94000010
:1037C0000895FC01A48DA80FB92FB11DA35ABF4FB6
:1037D0002C91848D90E001968F739927848FA68910
:1037E000B7892C93A089B1898C91837080648C9364
:1037F000938D848D981306C00288F389E02D808113
:103800008F7D80830895EF92FF920F931F93CF9344
:10381000DF93EC0181E0888F9B8D8C8D98131AC00B
:10382000E889F989808185FF15C09FB7F894EE89F2
:10383000FF896083E889F98980818370806480834F
:103840009FBF81E090E0DF91CF911F910F91FF909A
:10385000EF900895F62E0B8D10E00F5F1F4F0F7342
:103860001127E02E8C8D8E110CC00FB607FCFACFFD
:10387000E889F989808185FFF5CFCE010E94E11B9F
:10388000F1CFEB8DEC0FFD2FF11DE35AFF4FF082CE
:103890009FB7F8940B8FEA89FB8980818062CFCF34
:1038A000CF93DF93EC01888D8823B9F0AA89BB8977
:1038B000E889F9898C9185FD03C0808186FD0DC062
:1038C0000FB607FCF7CF8C9185FFF2CF808185FF83
:1038D000EDCFCE010E94E11BE9CFDF91CF9108959A
:1038E000833081F028F4813099F08230A9F0089576
:1038F0008730A9F08830C9F08430B1F4809180001D
:103900008F7D03C0809180008F7780938000089521
:1039100084B58F7784BD089584B58F7DFBCF80916A
:10392000B0008F778093B00008958091B0008F7DB4
:10393000F9CFCF93DF93282F30E0F901E455FD4C08
:103940008491F901E357FF4CD491F901E758FF4CFA
:10395000C491CC23A1F081110E94701CEC2FF0E0E7
:10396000EE0FFF1FE159FF4CA591B491EC91ED23AF
:1039700081E090E009F480E0DF91CF91089580E04C
:1039800090E0FACF1F93CF93DF93282F30E0F90117
:10399000E455FD4C8491F901E357FF4CD491F901B2
:1039A000E758FF4CC491CC23A9F0162F81110E9437
:1039B000701CEC2FF0E0EE0FFF1FEB59FF4CA591B0
:1039C000B4918FB7F894EC91111108C0D095DE2313
:1039D000DC938FBFDF91CF911F910895DE2BF8CF3D
:1039E000CF93DF9390E0FC01E357FF4C249187587D
:1039F0009F4CFC0184918823C9F090E0880F991FA7
:103A0000FC01E55AFF4CA591B491FC01EB59FF4C28
:103A1000C591D49161110DC09FB7F8948C912095F8
:103A200082238C938881282328839FBFDF91CF91A5
:103A30000895623051F49FB7F8943C91822F80959D
:103A400083238C93E8812E2BEFCF8FB7F894EC91E2
:103A50002E2B2C938FBFEACFCF93DF93EC0161E045
:103A600089E00E94F01C209731F460E089E0DF914A
:103A7000CF910C94C21CCF3FD10511F461E0F6CF79
:103A8000E5EBF2E3E491E33029F140F4E130B1F009
:103A9000E230D9F0C038D1058CF7E7CFE73021F11B
:103AA000E83051F1E430B1F780918000806280937A
:103AB0008000D0938B00C0938A0004C084B58068D6
:103AC00084BDC7BDDF91CF91089584B5806284BD68
:103AD000C8BDF8CF80918000806880938000D0932B
:103AE0008900C0938800EECF8091B00080688093F9
:103AF000B000C093B300E6CF8091B00080628093A5
:103B0000B000C093B400DECF3FB7F89480918B0231
:103B100090918C02A0918D02B0918E0226B5A89B47
:103B200005C02F3F19F00196A11DB11D3FBFBA2F4F
:103B3000A92F982F8827BC01CD01620F711D811D0F
:103B4000911D42E0660F771F881F991F4A95D1F794
:103B500008958F929F92AF92BF92CF92DF92EF9291
:103B6000FF924B015C010E94841D6B017C010E944D
:103B7000841D6C197D098E099F09683E734081057B
:103B80009105A8F321E0821A9108A108B10888EEF6
:103B9000C80E83E0D81EE11CF11C81149104A1041D
:103BA000B10429F7FF90EF90DF90CF90BF90AF90D6
:103BB0009F908F9008952FB7F8946091870270912D
:103BC00088028091890290918A022FBF089584E92A
:103BD0008093BC008091BC0084FDFCCF089580934D
:103BE000BB0084E88093BC008091BC0087FFFCCFC1
:103BF000089584EA8093BC008091BC0087FFFCCFCD
:103C000088E70C94EF1D0E94F91D80E48093BB00AF
:103C100084E88093BC00E2ECF2E09091BC0097FF56
:103C2000FCCF91919093BB008093BC0096E0E23C66
:103C3000F90799F78091BC0087FFFCCF0C94E71D32
:103C4000CF93C82F0E94F91D80E00E94EF1D8C2F9A
:103C50000E94EF1DCF910C94E71D480F592F511D65
:103C60004138510514F040E850E0481BFB0177FD56
:103C7000379633E0F595E7953A95E1F7F695FE2FFF
:103C8000EE27F795E795E80FF91FEE53FD4F6770A4
:103C9000772781E090E001C0880F6A95EAF7382F16
:103CA000213041F4415078F08191DF011197832B4D
:103CB0008C93F8CF8095415030F09191DF011197AE
:103CC00098239C93F8CF0895CF92DF92EF92FF92C2
:103CD0000F93CF93DF936C017B01C42FD22F202F42
:103CE0000E942D1EB7016D0F711D61507109603466
:103CF00071052CF4202F4C2FC6010E942D1E202F61
:103D00004D2FB701C6010E94861AC6018C0F911D66
:103D1000202F4D2FB7010197DF91CF910F91FF9089
:103D2000EF90DF90CF900C94861A2F923F924F9293
:103D30005F926F927F928F929F92AF92BF92CF923B
:103D4000DF92EF92FF920F931F93CF93DF93CDB744
:103D5000DEB72A970FB6F894DEBF0FBECDBF9A83A9
:103D600089836A3061F5DC0152968C91B8E08B9FB3
:103D700090011124E981FA8186859785820F931F2E
:103D8000978786871586148681E090E02A960FB67D
:103D9000F894DEBF0FBECDBFDF91CF911F910F9181
:103DA000FF90EF90DF90CF90BF90AF909F908F905B
:103DB0007F906F905F904F903F902F9008956D305F
:103DC00019F329813A813A872987D9011C96AD9048
:103DD000BC90B0E8AB16B1040CF07BC0F901C6840E
:103DE000D784F0E4CF16D1040CF073C0D9015296F9
:103DF0006C90529745E09501649E200D311D112471
:103E0000121613060CF065C0262C312C910153E0DC
:103E1000220F331F5A95E1F72C0D3D1D1216130684
:103E20000CF057C05196BC91BB83E985FA85F089A7
:103E3000FC83649FB00111249B01255A344D3A83C1
:103E40002983712CE981FA818491F5E07F1201C008
:103E500080E0460138E0532E282F30E03E832D834A
:103E60004C8080FF4B80411004C03B818C8138170F
:103E7000E1F010E000E00615C0F4D501A00FB11F7D
:103E8000B887AF83F12CE12CE61460F4B701680D1C
:103E9000791D442D8F8198850E94681ABFEFEB1A17
:103EA000FB0AF2CF0F5F1F4FE6CF8D819E81959564
:103EB00087955A94820C931C5110CECF7394E9814C
:103EC000FA813196FA83E983A20CB31CF6E07F12E3
:103ED000B9CFA985BA8552962C915297422F50E0BE
:103EE0001C968D919C91B6E02B9F800D911D112405
:103EF000E985FA85958784872389222309F444CFAD
:103F00006AEF64039001659F300D112420583F4FE4
:103F1000281739070CF038CFDF010190F081E02D30
:103F20000190F081E02D6AE0CD0109952DCF0F932E
:103F30001F93CF93DF938C01D0E0C0E0F801EC0F2A
:103F4000FD1F6491662341F08DEA97E00E94951E63
:103F5000892B11F02196F2CFCE01DF91CF911F91E5
:103F60000F910895682F8DEA97E00C94951E90E0CC
:103F700080E0089580917A00806980937A008EE4D1
:103F800080937C0061E070E080E090E00E94A91DD9
:103F900083B7817F826083BF80E130E020E093B708
:103FA000916093BF889593B79E7F93BF90917A005D
:103FB00096FDFCCF4091780050917900240F351F79
:103FC000815069F780917A008F7780937A0084E03E
:103FD000369527958A95E1F750E040E064EB7BE267
:103FE00081E190E00E94713AC901089580917A00C0
:103FF000806980937A0088EC80937C0064E170E0B3
:1040000080E090E00E94A91D83B7817F826083BF1A
:1040100080E270E060E093B7916093BF889593B7BA
:104020009E7F93BF90917A0096FDFCCF20917800FF
:1040300030917900620F731F815069F780917A0087
:104040008F7780937A00769567957695679562521B
:104050007A4090E080E00E943C3926EF38E24CE163
:1040600051E40E94703B089590917A00906990937A
:104070007A008E50806480937C0083B7817F826059
:1040800083BF20E290E080E033B7316033BF889592
:1040900033B73E7F33BF30917A0036FDFCCF40917D
:1040A000780050917900840F951F215069F7209175
:1040B0007A002F7720937A0025E0969587952A95A8
:1040C000E1F708958FE00E943420A0919202B09110
:1040D00093029C010E94F43A0E943E3928E539E798
:1040E00043E353E40E94703B0E94E93BCB010895F7
:1040F0002091A00230E0EDE1F2E090E080E0AF013D
:104100004D5152404217530724F44191840F911DA1
:10411000F6CF089580919902882369F086E00E9485
:10412000991C892B41F06AE070E080E090E00E94E9
:10413000A91D1092990208950F931F93CF93809118
:104140004801882399F0CFEF0FEE11E061E085E0A0
:104150000E94C21CC8010197F1F760E085E00E944F
:10416000C21CC8010197F1F7C15081F7CF911F918F
:104170000F9108952F923F924F925F926F927F928C
:104180008F929F92AF92BF92CF92DF92EF92FF9267
:104190000F931F93CF93DF9310E000E0D0E0C0E0D7
:1041A0003EE3E32EF12C40ECC42ED12CAA24A394A0
:1041B000B12C60E2662E712C70E4272E312C4C2E2F
:1041C00086E00E94991C21E0892B09F020E02093D1
:1041D0009902F0929F02E0929E02D0929D02C092BC
:1041E0009C02B0929B02A0929A0282E890E0909387
:1041F000AB028093AA028091AA029091AB0295959E
:104200008795582E9FE1591243C0F0929F02E09289
:104210009E02D0929D02C0929C02B0929B02A092FC
:104220009A02EEEBF0E0F093AB02E093AA029FE576
:10423000592E0E944F1B82E08093BF071093BA074C
:104240000093B907E0E3F0E0F093BC07E093BB070D
:104250008EE50E94B21F1092BA071092B9077092B1
:10426000BC076092BB07912C812C841438F5809197
:10427000BE02F40196E0989FE00DF11D1124E15B70
:10428000FE4F80810E94B21FEFEF8E1A9E0AEDCF83
:10429000F0E65F12CECFF0929F02E0929E02D092A3
:1042A0009D02C0929C02B0929B02A0929A02309210
:1042B000AB022092AA0280E2582EBBCF1093BA071D
:1042C0000093B9077092BC076092BB07852D0E94CE
:1042D000B21F0E948A200E94031E86E00E94991C41
:1042E000892B09F088CF80919902811184CF809029
:1042F000BE02F6E08F9E40011124C401815B9E4FF7
:104300004C01FC01EC0FFD1F50820E949C206AE0D2
:1043100070E080E090E00E94A91D2196005F1F4F91
:10432000C530D10509F04BCFF4011582DF91CF9153
:104330001F910F91FF90EF90DF90CF90BF90AF90C3
:104340009F908F907F906F905F904F903F902F90B5
:1043500008952F923F924F925F926F927F928F9229
:104360009F92AF92BF92CF92DF92EF92FF920F9304
:104370001F93CF93DF93982EE091A002F0E0E35ECD
:10438000FD4F80818150990B10929F0210929E02E6
:10439000880F991F90939D0280939C0281E090E08A
:1043A00090939B0280939A02892D90E0880F991F29
:1043B0009093AB028093AA0286E00E94991C21E0B0
:1043C000892B09F020E0209399021092BE0781E02A
:1043D0008093BD0738E3F32E41E3242E312CA090C7
:1043E000AA02B090AB02B594A7941A2D6501DD2402
:1043F000960129193109F29EC001F39E900D1124F6
:10440000C80FD91F209709F1662777276C1B7D0BF2
:10441000072E000C880B990B0E943E3920E030E0FB
:1044200040E05FE30E949D392B013C01BE01DD0F9E
:10443000880B990B0E943E399B01AC01C301B2016C
:104440000E94043B0E94E23BEB010E944F1B46018D
:1044500082E0881A91083E01260193E0490E511C22
:1044600097FC20C0E091A002F0E0E35EFD4F808168
:1044700088151904B9F0B4F00E947820F401E80F0F
:10448000F11DEE0FFF1FEF52FE4F40815181EE24D0
:10449000E39400E320E370E060E0C30188549109F5
:1044A0000E94CD1A8FEF881A980A98E3690E711C42
:1044B00084149504A9F68091BA0281113AC00E9431
:1044C0007820F601E80FF11DEE0FFF1FEB57FE4FAE
:1044D00040815181EE24E39400E124E260E370E046
:1044E00080E390E00E94CD1A0E94031E0E948A2061
:1044F00086E00E94991C892BD1F480919902811148
:1045000016C00E949C20812FDF91CF911F910F91A7
:10451000FF90EF90DF90CF90BF90AF909F908F90E3
:104520007F906F905F904F903F902F9008959A2CBE
:1045300056CF80E390E09093BA078093B90730920A
:10454000BC072092BB070E9478208A0D863208F0B3
:10455000A0C0E82FF0E0E155FD4D0C94323CD5228F
:10456000DA22DD22E022E322E622E922EC22EF2217
:10457000F222F522F822FB22FE2201230423072344
:104580000A230D2310231323162319231C231F236F
:104590002223252328232B232E233123342337239F
:1045A0003A233D234023432346238AE49BE20E948F
:1045B000971F9ACF85E49BE2FACF8FE39BE2F7CF78
:1045C00087E39BE2F4CF80E39BE2F1CF89E29BE2B9
:1045D000EECF84E29BE2EBCF8EE19BE2E8CF87E176
:1045E0009BE2E5CF80E19BE2E2CF86E09BE2DFCF7A
:1045F0008FEF9AE2DCCF88EF9AE2D9CF84EF9AE28C
:10460000D6CF8FEE9AE2D3CF87EE9AE2D0CF81EE6B
:104610009AE2CDCF8BED9AE2CACF86ED9AE2C7CF70
:1046200080ED9AE2C4CF8CEC9AE2C1CF86EC9AE29C
:10463000BECF81EC9AE2BBCF8AEB9AE2B8CF86EB91
:104640009AE2B5CF82EB9AE2B2CF8CEA9AE2AFCF90
:1046500088EA9AE2ACCF85EA9AE2A9CF82EA9AE2A6
:10466000A6CF8EE99AE2A3CF8BE99AE2A0CF88E9A0
:104670009AE29DCF85E99AE29ACF82E99AE297CFB2
:1046800086E89AE294CF81E89AE291CF8CE79AE2A9
:104690008ECF88E79AE28BCF3F924F925F926F92D4
:1046A0007F928F929F92AF92BF92CF92DF92EF92C2
:1046B000FF920F931F93CF93DF93CDB7DEB72E9763
:1046C0000FB6F894DEBF0FBECDBF8091BD02882328
:1046D00009F4A5C110925F0710926007109261075C
:1046E0001092620780905F0790906007A09061072A
:1046F000B0906207C090B302D090B402E090B502CF
:10470000F090B602A7019601C501B4010E94033BD7
:104710002B013C0120E030E0A9010E94183C181652
:104720000CF0A0C1C301B2010E94E93B8091490194
:10473000882309F4B8C1C0926707D0926807E09255
:104740006907F0926A07E12CF12C00EA10E420E0FE
:1047500030E040E450E46E31710540F0E12CF12C82
:1047600000E81FE320E030E040E05FE360E070E05D
:1047700080E391E40E948C198091A507882309F4B5
:104780002AC10E94DB1D6D837E838F839887809171
:104790008D0790918E07A0918F07B09190074D8162
:1047A0005E816F817885481B590B6A0B7B0B80916A
:1047B000990790919A07A0919B07B0919C07481781
:1047C00059076A077B0708F406C1E0918707F09153
:1047D000880780819181A281B38189839A83AB8389
:1047E000BC83E0918B07F0918C079C01AD01608147
:1047F0007181828193810E94033B4B015C01209176
:1048000095073091960740919707509198076981D5
:104810007A818B819C810E94033B6B017C012091FA
:104820007B0730917C0740917D0750917E07C50141
:10483000B4010E949D3920919107309192074091D7
:104840009307509194070E94043B2B013C01409236
:10485000910750929207609293077092940730905C
:10486000A60731101AC02091770730917807409140
:10487000790750917A07C701B6010E949D399B01C3
:10488000AC01C301B2010E94033B60939107709396
:1048900092078093930790939407409091075090CC
:1048A000920760909307709094071091A1079091E0
:1048B000A2079E87A091A307AD870091A407212F8F
:1048C000392F4A2F502FC301B2010E94183C1816ED
:1048D0000CF0CCC0812F9E85AD85B02F80939107C1
:1048E00090939207A0939307B0939407332009F411
:1048F000D6C0209177073091780740917907509181
:104900007A07C501B4010E949D394B015C012091D9
:104910007F07309180074091810750918207C7013E
:10492000B6010E949D399B01AC0160919107709185
:10493000920780919307909194070E94033BA501F1
:1049400094010E94043B6B017C019B01AC01612F2F
:104950007E858D85902F0E94373987FD18C0109174
:104960009D0790919E079E87A0919F07AD8700911C
:10497000A007212F392F4A2F502FB601C7010E94BF
:10498000373987FD04C01C2DDE86ED860F2DE091A2
:104990008907F0918A07812F9E85AD85B02F80838E
:1049A0009183A283B38389819A81AB81BC818093F7
:1049B000950790939607A0939707B09398078D81DA
:1049C0009E81AF81B88580938D0790938E07A093C9
:1049D0008F07B0939007609163077091640780918F
:1049E0006507909166070E94E23BCB012E960FB6B9
:1049F000F894DEBF0FBECDBFDF91CF911F910F9115
:104A0000FF90EF90DF90CF90BF90AF909F908F90EE
:104A10007F906F905F904F903F900C942C1D8091F1
:104A2000BC02609144017091450181110EC08091DA
:104A3000B1029091B2022091BB02BC01222329F065
:104A400060914301680F792F711D90E080E00E9412
:104A50003C3960935F077093600780936107909380
:104A6000620740CEC301B20190585ECE80919D078F
:104A700090919E07A0919F07B091A00789879A8780
:104A8000AB87BC879C01AD01C301B2010E943739DD
:104A900087FF2CCF89859A85AB85BC851FCF812C5C
:104AA000912C540134CF20E030E040E05FE3C701B7
:104AB000B6010E94043B9B01AC01C501B4010E94F8
:104AC000183C18164CF41092630710926407109269
:104AD0006507109266077FCF80E090E0AFE7B3E410
:104AE0008093630790936407A0936507B09366076C
:104AF00072CF4F925F926F927F928F929F92AF92FE
:104B0000BF92CF92DF92EF92FF92CF93DF9380908C
:104B1000940290909502A0909602B0909702C09156
:104B2000BE02D0E0C501B4010E94E23B6B017C01F2
:104B300020E030E048E453E4C501B4010E94373975
:104B400093E0CC0FDD1F9A95E1F7CE5FDE4F87FF34
:104B500031C02881398150E040E0255131094109B7
:104B60005109C701B6010E94223C28EC30E040E028
:104B700050E00E94713ACA01B9016B5E7F4F8F4FBE
:104B80009F4F0E943E396093B3027093B4028093AA
:104B9000B5029093B602DF91CF91FF90EF90DF9036
:104BA000CF90BF90AF909F908F907F906F905F90CD
:104BB0004F9008954A805B80712C612C20E030E09A
:104BC0004CE853E4C501B4010E94373987FF1FC088
:104BD00088809980B12CA12CA7019601285C31090D
:104BE00041095109C301B201681979098A099B0970
:104BF0000E94223C20E530E040E050E00E94713A03
:104C0000CA01B901680D791D8A1D9B1DBACF2C817F
:104C10003D8150E040E02419350946095709C70194
:104C2000B60168517140810991090E94223C20E53A
:104C300030E040E050E00E94713ACA01B901640DD1
:104C4000751D861D971D9DCFFC0101900020E9F781
:104C50003197AF01481B590BBC018DEA97E00C94CA
:104C6000631B8F929F92AF92BF920F931F93CF932C
:104C7000DF93CDB7DEB7A1970FB6F894DEBF0FBEB6
:104C8000CDBF19A2423008F44AE08E010F5D1F4FDC
:104C9000842E912CB12CA12CA50194010E94D23A12
:104CA000E62FB901CA01EA30F4F4E05DD801EE93D1
:104CB0008D01232B242B252B79F790E080E0109792
:104CC00019F0CD010E942426A1960FB6F894DEBFFC
:104CD0000FBECDBFDF91CF911F910F91BF90AF90CD
:104CE0009F908F900895E95CE1CFCF92DF92EF9291
:104CF000FF92CF93DF9397FF19C06B017C018DE288
:104D00000E94B21FEC0166277727CB016C197D0941
:104D10008E099F094AE00E9431268C0F9D1FDF916A
:104D2000CF91FF90EF90DF90CF9008954AE0DF9110
:104D3000CF91FF90EF90DF90CF900C9431264F925F
:104D40005F926F927F928F929F92AF92BF92CF921B
:104D5000DF92EF92FF920F931F93CF936B017C0131
:104D6000742EAC019B010E941D3C882399F082E6C1
:104D700092E0CF911F910F91FF90EF90DF90CF9035
:104D8000BF90AF909F908F907F906F905F904F906B
:104D90000C94242646015701E894B7F82FEF3FEF13
:104DA0004FE75FE7C501B4010E941D3C81110DC0B2
:104DB0002FEF3FEF4FE75FE7C501B4010E9437399E
:104DC00018161CF486E692E0D4CF2FEF3FEF4FE7A2
:104DD0005FE4C701B6010E94183C18161CF48AE66D
:104DE00092E0C7CF2FEF3FEF4FE75FECC701B6016F
:104DF0000E94373987FDF3CF20E030E0A901C701D9
:104E0000B6010E94373910E000E087FF08C08DE24C
:104E10000E94B21F8C01F7FAF094F7F8F094C0E00A
:104E200060E070E080E09FE37C1641F020E030E03D
:104E300040E251E40E94703BCF5FF6CFA70196019C
:104E40000E94043B2B013C010E94E93B4B015C01A9
:104E50004AE00E9431267C01E00EF11ECC23B1F124
:104E6000C501B4010E943C399B01AC01C301B201F0
:104E70000E94033B4B015C018EE20E94B21FE80ED0
:104E8000F91EC15018F120E030E040E251E4C501C4
:104E9000B4010E949D392B013C010E94E93B4B016A
:104EA000B12CA12C4AE0C501B4010E943126E80EC4
:104EB000F91EC501B4010E943C399B01AC01C3013C
:104EC000B2010E94033B4B015C01DBCFC701CF91D4
:104ED0001F910F91FF90EF90DF90CF90BF90AF9018
:104EE0009F908F907F906F905F904F900895CF929A
:104EF000DF92EF92FF920F931F93CF93DF93C82F10
:104F000081E0DC2FD827D093BE07C093BD078093E4
:104F1000BF070C2F2EE046E661E370E081E090E0F1
:104F20000E94641E2091BF023091C002253F81E0A3
:104F30003807B8F4A4E6B0E00E94F43A24EF31E078
:104F400040E050E00E94713ABA01A9014E5F5F4F04
:104F50006F4F7F4F2EE061E370E081E090E00E94B0
:104F6000AB1A60915F077091600780916107909123
:104F700062070E94E23B9B01AC01A4E6B0E00E9404
:104F8000903A34EFC32EDD24D394E12CF12CA70109
:104F900096010E94713ADA01C9010296A11DB11D64
:104FA00002970C2F2DE043E062E370E00E94AB1A01
:104FB00060915F077091600780916107909162072F
:104FC0000E94E23B9B01AC01A4E6B0E00E94903A53
:104FD000A70196010E94713ADA01C9010296A11D4A
:104FE000B11D039724E045E06CE370E00E94AB1A2A
:104FF00060915F07709160078091610790916207EF
:105000000E94E23B9B01AC01A4E6B0E00E94903A12
:10501000A70196010E94713A89019A010E5F1F4F04
:105020002F4F3F4F0150110941E3E42EF12C4D2F3A
:10503000B701C8010E94681A8FEFE81AF80A8DE3D9
:10504000E816F104A1F760915F0770916007809105
:105050006107909162070E94E23B9B01AC01A4E6CC
:10506000B0E00E94903A24EF31E040E050E00E942E
:10507000713ADA01C9010296A11DB11D0397ED2E07
:1050800004E025E044E75AE26BE370E00E94CD1AA9
:105090000C2F2EE047E161E370E088E690E00E948B
:1050A000641E609163077091640780916507909119
:1050B00066070E94E23B9B01AC012F5F3109410969
:1050C0005109A7E1B0E00E94903ACC24C394DD24BA
:1050D000DA94ED2CFD2CA70196010E94713A422F23
:1050E0002EE061E370E088E690E00E94AB1AC09386
:1050F000BE07D093BD0782E090E09093BA078093FB
:10510000B90707E310E01093BC070093BB07609159
:105110005F0770916007809161079091620740E09E
:105120000E949F2688EF0E94B21F82E79AE20E94A7
:10513000971F89E690E09093BA078093B907109380
:10514000BC070093BB07609163077091640780916F
:105150006507909166070E94E23B9B01AC012F5FBF
:10516000310941095109A4E6B0E00E94903AA70133
:1051700096010E94713ACA01B9010E94752680E722
:105180009AE20E94971FD093BE07C093BD07DF919C
:10519000CF911F910F91FF90EF90DF90CF900895E6
:1051A0006F927F928F929F92AF92BF92CF92DF9237
:1051B000EF92FF920F931F93CF93DF93B090BE02B5
:1051C00077247394B11001C0712C809142018150F9
:1051D000990B10929F0210929E02880F991F909334
:1051E0009D0280939C0281E090E090939B028093CB
:1051F0009A028B2D90E0880F991F9093AB028093B9
:10520000AA0286E00E94991C21E0892B09F020E087
:1052100020939902FF24F39472E0972EE6E08E2EFD
:10522000FCE0CF2ED12C0E944F1BC091AA02D0913E
:10523000AB02D595C795EC2E8E011127C801870DBD
:10524000911D77FC9A958B199109712C97FD06C0D9
:105250008330910514F082E090E0782EF092BE0742
:105260001092BD079092BF071092BA071092B9072B
:105270001092BC071092BB0780E59BE20E94971F2B
:105280001092BE07F092BD071092BA071092B907AC
:10529000A72C072C000CBB08C501019654E0880F11
:1052A000991F5A95E1F79093BC078093BB078EE452
:1052B0009BE20E94971F6C2E671890E080E0980197
:1052C0002A193B095901209142018C010F5F1F4FA0
:1052D0006216D0F4D092BA07C092B907980144E0A0
:1052E000220F331F4A95E1F73093BC072093BB0789
:1052F0008A0D9B1D889E9001899E300D1124C90145
:10530000815B9E4F0E942426C801639403301105DF
:10531000D1F60E948A200E94031E86E00E94991CFA
:10532000892BB9F480919902811113C00E949C20AD
:10533000E092BE02DF91CF911F910F91FF90EF900D
:10534000DF90CF90BF90AF909F908F907F906F90A5
:105350000895BC2E68CF0E941A3EEF92FF920F93E1
:105360001F93CF93DF93EC017B018A0188819981A0
:10537000009729F02A813B812417350788F4B8016A
:105380006F5F7F4F0E945D3D009791F09983888306
:105390001B830A832C813D81232B11F4FC01108295
:1053A0001D830C83B701888199810E94283E0CC01F
:1053B00088819981009711F00E94D43C198218824B
:1053C0001D821C821B821A82CE01DF91CF911F9118
:1053D0000F91FF90EF9008951F93CF93DF93EC010F
:1053E000162F0E945B3A181739F0612FCE01DF911A
:1053F000CF911F910C94633ADF91CF911F91089543
:10540000AF92BF92CF92DF92EF92FF920F931F93D2
:10541000CF93DF936091470182E090E00E94EC29F6
:105420006091460183E090E00E94EC296091450183
:1054300084E090E00E94EC296091440185E090E0D6
:105440000E94EC296091430186E090E00E94EC29E3
:1054500060914C0187E090E00E94EC2960914B0143
:1054600088E090E00E94EC2960914A0189E090E098
:105470000E94EC296091C1028AE090E00E94EC2930
:10548000609149018BE090E00E94EC296091480115
:105490008CE090E00E94EC296091BE028DE090E0EB
:1054A0000E94EC29609142018EE090E00E94EC297C
:1054B0006091BA028FE090E00E94EC29609198021E
:1054C00080E190E00E94EC2981E1E82EF12C10E0CF
:1054D00006E0809142011817B8F5109F6001112471
:1054E000D0E0C0E0FE01EC0DFD1DE15BFE4F6081F0
:1054F000C7018C0F9D1F0E94EC292196C630D10553
:1055000089F7670186E0C80ED11C88E0189FE0018A
:105510001124CE5FDE4F8EE0E80EF11C69812296E9
:10552000C6010E94EC29560182E0A80EB11CFE01C2
:1055300032976081C60101960E94EC296501AE1484
:10554000BF0461F71F5FC5CFDF91CF911F910F910E
:10555000FF90EF90DF90CF90BF90AF9008958F9223
:105560009F92AF92BF92CF92DF92EF92FF92CF9332
:105570008FEF90E00E942C1D8BEA94E00197F1F7E9
:105580008EE00E9434207C018AE00E94991C909158
:105590007202981729F091E09093B70280937202FB
:1055A000809101019FEF980F90930101811106C036
:1055B0000E9462209093B9028093B80260916307C1
:1055C0007091640780916507909166070E94E23BA5
:1055D000CB010E942C1D8090940290909502A09087
:1055E0009602B0909702B70190E080E00E943C39AB
:1055F000A50194010E94033B2DEC3CEC4CE45DE3DF
:105600000E949D39A50194010E94043B609394027D
:105610007093950280939602909397020E94792549
:105620006091BF027091C00290E080E00E943C391E
:105630006B017C0120915F07309160074091610709
:10564000509162070E9437398111B5C02091B30291
:105650003091B4024091B5025091B602C701B60133
:105660000E94033B6B017C0120E030E0A9010E9415
:10567000183C18160CF095C020E030E040EA50E4E9
:10568000C701B6010E94183C18160CF494C0609132
:10569000B1027091B20290E080E00E943C3920910A
:1056A000B3023091B4024091B5025091B6020E940B
:1056B000033B6B017C0120E030E0A9010E94183C13
:1056C00018160CF087C0C701B6010E94E93B65308F
:1056D000710508F083C080914E01811105C0809151
:1056E0004D0181110E949C2081E080934E01109217
:1056F0004D018091BF029091C002853F21E0920749
:1057000010F01092000120910001211140C0843F4F
:105710009140E8F58FEF90E00E942C1D0E949C20A4
:10572000C1E0C09300010E94D0280E94002AC093CB
:10573000B7028EE00E943420BC0190E080E00E941D
:105740003C396093940270939502809396029093F3
:1057500097021092A9028091B1029091B20224E6C0
:1057600030E030939F0220939E0220E233E030939A
:105770009D0220939C022AE030E030939B0220930C
:105780009A02880F991F9093AB028093AA02CF913F
:10579000FF90EF90DF90CF90BF90AF909F908F9051
:1057A000089520E030E040EA50ECC701B6010E94C5
:1057B000373987FF6CCF6091B3027091B40280914A
:1057C000B5029091B6020E94E93B7093C0026093CB
:1057D000BF025DCFC701B601905877CF10924E013E
:1057E00088CF0C945B3A2F923F924F925F926F92C8
:1057F0007F928F929F92AF92BF92CF92DF92EF9261
:10580000FF920F931F93CF93DF93CDB7DEB76897C7
:105810000FB6F894DEBF0FBECDBF26E02093BF07C2
:1058200021E02093BE071092BD070091AB071091B5
:10583000AC076091A7077091A80730E8232E32E0EB
:10584000332EF10130E020E02017310730F4DB0186
:10585000A20FB31F6115710521F410927302A3E723
:10586000B2E04C9150E0419351932F5F3F4F233072
:10587000310551F71C8A1B8A1E8A1D8A188E1F8AC1
:105880004AE08E010F5F1F4FB8010E94ED38F8010A
:1058900001900020E9F73197AF01401B510BB8018F
:1058A000CE0143960E94AD298091A7079091A80749
:1058B000009709F4E8C06B897C896115710509F4CA
:1058C000E0C04091A9075091AA072F89388D42174F
:1058D000530708F4D6C00E94283E8F89988D909374
:1058E000AC078093AB07188E1F8A8B899C89009721
:1058F00011F00E94D43C94E7E92E92E0F92E24E0C6
:10590000A22EB12CD12CC12C8091AB079091AC0769
:10591000C816D90638F4E091A707F091A807309788
:1059200009F0C8C010927302E3E7F2E0808190E0D2
:10593000F10120813181821B930BF2E3F89FB001CA
:10594000F99F700D1124072E000C880B990B0E94F3
:105950003E39F70120813181428153810E94043B0D
:105960002B013C0120E030E0A9010E943739811170
:10597000A4C0F701408251826282738201E022E377
:1059800046E270E060E0C50104970E94AB1A8EEC1D
:10599000882E99249A940FEF1FEFF701208131810F
:1059A0004281538160E070E080E890E40E94033B14
:1059B0002B013C01B401092C000C880B990B0E94AF
:1059C0003E399B01AC01C301B2010E94043B0E941D
:1059D000E23BB092BA07A092B9077093BC076093FC
:1059E000BB07F10160817181600F711F6053710904
:1059F000072E000C880B990B0E9475260F5F1F4F16
:105A0000F2E38F0E911C0230110539F62FEFC21A06
:105A1000D20A84E0E80EF11CECE2AE0EB11CF2E01A
:105A20002F0E311C23E0C216D10409F06DCF00E027
:105A300022E040E870E060E090E080E00E94AB1A75
:105A40002DE040E863E370E090E080E00E94AB1A54
:105A500068960FB6F894DEBF0FBECDBFDF91CF9131
:105A60001F910F91FF90EF90DF90CF90BF90AF907C
:105A70009F908F907F906F905F904F903F902F906E
:105A800008950E94D43C8B899C899093A8078093A9
:105A9000A7078D899E899093AA078093A9078F896C
:105AA000988D9093AC078093AB071C8A1B8A1E8A43
:105AB0001D8A19CFEC0DFD1D39CFC301B2019058DD
:105AC0002DEC3CEC4CE45FE30E949D39A301920174
:105AD0000E94043BF70160837183828393834ECFDE
