:020000040000FA
:100000000C947F120C94A7120C94A7120C944A29FA
:100010000C94A7120C94A7120C94A7120C94A7127C
:100020000C94A7120C94A7120C94A7120C94A7126C
:100030000C94A7120C94A7120C94A7120C94A7125C
:100040000C9400290C94A7120C94CE280C94A82888
:100050000C94A7120C94212A0C94A7120C94A712AA
:100060000C94A7120C94A71205A84CCDB2D44EB98B
:100070003836A9020C50B9918688083CA6AAAA2A4B
:10008000BE000000803F07634236B79BD8A71A39ED
:10009000685618AEBAAB558C1D3CB7CC5763BD6DD6
:1000A000EDFD753EF6177231BF000000803F08007D
:1000B0000000BE922449123EABAAAA2ABECDCCCCE7
:1000C0004C3E00000080BEABAAAAAA3E0000000081
:1000D000BF000000803F0000000000084178D3BB53
:1000E0004387D1133D190E3CC3BD4282AD2B3E6800
:1000F000EC8276BED98FE1A93E4C80EFFFBE01C4F1
:10010000FF7F3F0000000000800400003FF0383017
:1001100033103F90381033902790261030903FF0E6
:1001200000008004800400003FF03DF020103BF010
:100130003B7030302B502AD031B03FF000008004AB
:10014000800400003FF038703030231027902010DA
:100150002010279027903FF00000800480040000CA
:100160003FF03CF03CF020102490249020103CF014
:100170003CF03FF000008004800400003FF037B006
:1001800023103030387038703030231037B03FF0E3
:1001900000008004FCF4F860E044C08CC11CC22C58
:1001A000C44CC88CD10CA204C4048FFC187CBCFCC9
:1001B0008000BFF81FF8B0281FF8B4081FF8B10876
:1001C0001FF8B048BFF8B288BFF880008000BFF8C1
:1001D0001FF8B0081808B9E819B8B8381838B9B80D
:1001E000B9F8B0F8BFF8800015543FF815503FF04B
:1001F0001550387010203104138C22A817FC2AA83F
:100200000000000015543FFC15543FFC15543C04FD
:1002100014043CFC14543CFC005400A800000000F2
:10022000800400003FF03CF034B0249024902790EC
:100230002310303038703FF000008004FF7CFE7CDB
:10024000FCECE8DCC84C984C882408200000000036
:10025000000000008004E01CF3FCE7FCCE0C8E1CC8
:100260009F9C1F3C1F0C0E0C0FFC87F881E4C00CF8
:10027000E01CF87C000458085808580840087FF82B
:1002800060185FE85B685FE85B681CE85FE8000097
:10029000800400003FF03CF03CF03CF020102010C7
:1002A0003CF03CF03CF03FF000008004F87CF7BCF0
:1002B00000007FF80000BFF4AB54AB54AB54AB5418
:1002C000AB54AB54BFF4C00CF03CCE0CBF04B30431
:1002D00073007F007E007C007C007C60BC64BE04F8
:1002E000CF0CF03C81DC559C29045500299055D059
:1002F00003FCFF002E00267002508270E600EE0420
:10030000800C001C3FF43FE03FC4378C2318303092
:1003100038703CF03FF03FF000008004058074B876
:1003200057A876B80580F97C4694AAA8F97C068877
:1003300074A8578C75740698F03CCE4CBC34B81435
:10034000188010804230607860F844C08004B8841F
:10035000CFCCF03CE01CC00C8FC49FE49FE49FE432
:1003600000000300030003000780078003008004EF
:10037000F87CE01CC00CCFCCCFCCCFCCCFCCCFCC3A
:10038000CFCCCFCCC84CCFCCC00CE01CF87C8004C8
:10039000BCF43FF03870B7B4B6B4B5B4B7B4387085
:1003A0003FF0BCF48004F87CFCFCF87CE01CC00C42
:1003B000C00CC00CC00CC00CC00C80048004FFFC3E
:1003C000F87CFCFC800400002000100008001000F5
:1003D0002700000000000000000000000000800472
:1003E000C3FC18001800C3FCFFFCFF0C0060006099
:1003F000FF0CFFFCF0FC06000600F0FC8FC4102090
:1004000020104CC89FE43DF03DF01DE03EF03F70F1
:100410009FE48CC400003030F87CF33CF4BCF6BCA4
:10042000F4BCF6BCF4BCE49CC84CD02CD02CC84C1A
:10043000E79CF03C88240820383038303830383099
:100440003830383039303BB03FF03FF000008004A6
:10045000F21415F0CADFB8CCF0D699E8AEA4DFEEFE
:10046000E8F21D1E08F21C08F21A1B08F071460182
:10047000F046464A01F219F051F218F05A8DF0C0D8
:10048000DAEEAEF0C8B8A5F1302924F0B599E1A4B0
:10049000BDF21415F0CBEEAEBDF218F05A8DF21687
:1004A00017F21415F0CBEEAEBDF21617F0BCCA9ED3
:1004B000E0BDF21415F21213F21011F20C0DF094CB
:1004C000F20E0FF0A2D8DFCBE1EEACDCE8F20AF0DE
:1004D0008CF20BF04A8DF209F08DF097C59BBDF2BE
:1004E0000708F21F20F2040506F097DEEED5F0CBE8
:1004F000ABEEF0AEA4DFEEE8F0A8E8BDE2EEE0F08F
:10050000B499D3EEF200010203F0CCDFB0B8BD53D2
:1005100061766500466C6970004D61696E205363B9
:100520007265656E004A5000454E00434E005945C5
:1005300053004E4F004F4E004F464600496E666FC7
:1005400073004269670050494400446972656374EE
:10055000005361766500426F6F7374004F666600EA
:10056000536C656570005361766500426F6F7374FC
:1005700000536C6565700044656661756C7400536A
:10058000617665004164640044656C657465005281
:10059000656E616D650043616C69627261746500CE
:1005A0004368616E67650052657475726E004162E2
:1005B0006F7574004C616E67004C6F636B004C4F3D
:1005C0005720566F6C00526F746172790042757AD1
:1005D0007A65720053637265656E00436F6E747264
:1005E0006F6C0054696D65720054656D70005469DC
:1005F000700000000000000F1DC208000544420802
:100600000003845FBF000FE4441000011545100093
:10061000054CC97F8009244F900007C4C110000514
:100620004D413F00055443810007C44D020005447D
:10063000411400055541080007C88104000000006E
:100640000000000000000001083FFE001FFF8100C5
:1006500000004002000007FE0FF800040208080036
:10066000040208880007FE088800040208880004C5
:100670000208880007FE08880004020948000402F6
:1006800002300007FE040C00040218040000000001
:100690000000000000000007FE13FE0004020840F6
:1006A000000402084000040201FC00040238840037
:1006B000040208840007FE0FFF0004020800000483
:1006C0000209FE00040209020004020B02000402F7
:1006D0000D020007FE09FE000402010200000000F6
:1006E0000000000000000001100080001FFF80805B
:1006F0000001103FFF00004004080007FC04080050
:100700000444041000044402100004440220001FAA
:10071000FF812000004000C00000A0013000011057
:10072000020800060C0C07001803B00200000000CD
:100730000000000000000000400080000040008039
:10074000000FFF3FFF0008410408000841040800B3
:10075000084104100008410210000FFF02200008A9
:1007600041012000004000C0000040013000004076
:1007700002080000400C07000040300200000000AA
:10078000000000000000001FDF10200002120C20FB
:10079000000224042000047F8020000424B82000EC
:1007A0000FA488500014BF88500004A4885000048F
:1007B000A488480004BF88880004A48A880007A48D
:1007C0008C84000444890700008186020000000038
:1007D000000000000000000FF004910004400252ED
:1007E00000047F905400045088FF0007D0848100EB
:1007F0000451008100044901FF0007CA028100047E
:1008000044048100044A1CFF0007EA0481000C51E3
:100810000481000061C48500004080820000000067
:100820000000000000000007FF802000008407FF98
:10083000000084040100008404010000840401001D
:100840000FFFC7FF000084040000008404000000C4
:100850008405FF0000840501000104090100010472
:10086000090100020411FF0004040101000000005E
:1008700000000000000000008204FF0000440201AC
:100880000007FF9021000010102100001017FD004C
:1008900000101021000FFFD06100001010A1000017
:1008A0002811210000281221000044142100008298
:1008B00010A1000301D045000C00900200000000D0
:1008C00000000000000000084410FE000428109200
:1008D0000005FF22920000103C92000010089200D8
:1008E0001CFE109200041020FE0004103E92000531
:1008F000FF809200041000920005100E9200061076
:10090000309200041000FE00001000820000000081
:100910000000000000000007DF8840000A241040AB
:1009200000114210FE00040022820002FF3D02007E
:1009300008010A420009F9103200090920120009D1
:10094000F93E0200090900020009090E020009F936
:100950003022000805001400080200080000000012
:10096000000000000000000FC3F1E0000FE3F1F809
:10097000000C70C19E000C30C186000C30C1830099
:100980000C30C183000C60C183000C60C183000F78
:10099000C0C183000FC0C186000C00C186000C00DE
:1009A000C198000C03F1F8000C03F1E00000000016
:1009B0000000000000000000200820000FFF09FCDC
:1009C00000002008000000203E880003FE085000C0
:1009D00002020BFE0003FE0C40000202184000035E
:1009E000FE2BFE00020208480003FE0888000202F7
:1009F00008500002022830001FFF91CC00000000C8
:100A000000000104047C0000880444000FFF3F4400
:100A100000002004440000200C440000200E44008C
:100A20001FFF95440000201444000050244400009F
:100A300050044400008804450001040485000603B6
:100A40008503001801040000000000000000000001
:100A500000000000000000047E21FC00044211049C
:100A6000001F7E090400044221FC0005421104001D
:100A7000067E1104000C0005FC0015FF8800000430
:100A80000813FE000448325200044F12520004487A
:100A900012520014A8125200091F97FF0000000014
:100AA0000000000000000002103DFC0002102504C0
:100AB00000041025040005FFBDFC000C10252000DB
:100AC0000C38252000143825FE0004543D20000475
:100AD0005425100004922510000511A509000611E7
:100AE0003D450004102583000410010100000000B2
:100AF000000000000000001FC8102000124A0C2057
:100B0000001AC904200017480020001FFFB8200069
:100B100002080850001FC8085000020808500003CF
:100B2000C80848001E1408880001540A88001522CD
:100B30000C840014438907000081060200000000B5
:100B4000000002FE01000002823FFF00048202005A
:100B50000004FE0200000C1004FC00141004080045
:100B600005FF8C10000410141000043825FF000449
:100B70003404100004520410000491841000051085
:100B800004500004100420000000000000000000D9
:100B90000000000000000002030010001FDC3EFE09
:100BA000000890021200051004FF001FDF841200ED
:100BB00002120CFE001FD2021000021222FE000AD6
:100BC000921410000A5214100012220DFF0002228B
:100BD0000810000A42141000040223FF0000000065
:100BE000000000000000000F78BC20000948A4505D
:100BF00000094AA85000094AA88800094AB104001F
:100C00001FFEAAFB00094AA42000094AA4200009EB
:100C10004AA7FE00094AB420000948A924000B484D
:100C2000A22200088AA4A20011192040000000009E
:100C3000000000000000000020008000005001FCC7
:100C4000000088010400010403080006FB04900072
:100C50000800C0600007DF018000045106000004A6
:100C6000511BFE00045102020007D9020200045683
:100C7000020200001003FE0000100202000000004B
:100C8000000000000000000208209000027F989001
:100C9000001F8009FF00022201100006218B1000B6
:100CA00007628DFE000AA20910000A14111000123A
:100CB0001431FE000208111000021411100002226B
:100CC000111000024391FF0002811100000000009A
:100CD00000000000000000100700000008F83FFEC0
:100CE000000480200200008020020000BE23E200F9
:100CF0001C8222220004A422220004942222000446
:100D000088222200049423E20005222002000542EA
:100D10002002000A003FFE0011FFA00200000000B8
:100D20000000000000000000820FFE0000440040B0
:100D30000007FF804000001000400000100040004D
:100D400000101FFF800FFFC0400000100040000097
:100D500028004000002800400000440040000082BD
:100D60000040000301C140000C0080800000000032
:100D7000000009FF00400004203FFF0004200000A5
:100D80000000FE0000001C420FFC000442000000B6
:100D900007FF80000004000FFC0004FF00000004B7
:100DA0008100000005810FFC00068108040004FF9B
:100DB00008040000810FFC0000000000000000009B
:100DC0000000000000000000401F7E001FFF8402A2
:100DD0000010808442000A4A0442000A310842009E
:100DE00012C50F42000304197F001DF829010000FD
:100DF00040090100084209FD0008420901000842BB
:100E00000F01000FFE0905000002000200000000B3
:100E10000000000000000001000FFE00010008209B
:100E20000003FF082000020108200004220820001F
:100E300008200BFE001020082000005008280000A9
:100E400050082400008808220000881020000104B7
:100E50001020000203A7FF000C01000000000000AA
:100E600000000008000000021F88FE001FD00E22B4
:100E7000000420302200045F80220007849E2200AC
:100E800004850822000494082200049428FE00042B
:100E9000971E4200049408420008940842000AACDD
:100EA0000A420011440C4200008389FF0000000048
:100EB0000000000000000000400080001FFF9FFCB9
:100EC0000000400410000FFF02200000003FFF0060
:100ED0000FFE00000008420FF80008420808000F4B
:100EE000FE08080008020FF80008000808000800C3
:100EF00008080008000FF8001000080800000000B3
:100F00000000000000000007FE0FF80004020000CF
:100F100000040200000007FE00000004023FFE0083
:100F2000040200800007FE0080000090049000088A
:100F3000910C880006931086000294208200009095
:100F400000800000900280001FFF81000000000070
:100F500000000000000000041012020005FF9FD2F4
:100F60000005009212001E28A2120004443FF20065
:100F7000048202120006000212000CFE1FD20014AE
:100F80001012520004101242000410134200041008
:100F900012820015FF820A0008000204000000000F
:100FA00000000000000000002000000000203E04BF
:100FB000001FFFA204001000A2FF00000122040095
:100FC0000FFE22040000403E4400004022240004A2
:100FD00040222400047C22040004402204000A4031
:100FE0003E0400094022240010FF8014000000008D
:100FF0000800000000000010FE08200008820BFF1F
:101000000004820A010010FE3C510008820888009A
:10101000088209040002FE0C0000040019FC00090B
:10102000FF28200019290820000929082000092983
:1010300008200009292BFF000BFF90000000000092
:10104000000000000000001F7F90F80001080888E1
:10105000000A10088800047F0107001FC13A000041
:10106000054909FC00044908840004490888000473
:1010700049084800044908500004490A20000416A1
:101080000C5800142189870008C086020000000067
:1010900000001FE03FF07038601860186018FFFC17
:1010A000FCFCFCFCFCFCF87CF87CFCFC7FF81E10D3
:1010B00033382D7C25382D3825382D386D80DEC00D
:1010C000BF40BF40DEC061803F007FF0FFE0C0084E
:1010D000C01CC038C870DCE4CFCCC78CC30CC00CBB
:1010E000C00CFFFC7FF8000006000C0018F838F078
:1010F00030307060707878F878003C023F0C1FF850
:101100000FF003C000007FF8FFFCC00CC30CCB4CF9
:10111000DB6CDB6CD86CDCECCFCCC78CC00CFFFC80
:101120007FF8030007800FC00CC01CE01CE03CF0FF
:101130003CF07FF87FF8FCFCFCFCFFFC7FF81140E2
:10114000820021208FE023FC82004A23E200FE205F
:101150009FF013F880802220C0804221BFF0FBFA6C
:10116000888002208480022084801A208080E3FE10
:101170008280020101000F421FC0784110400840E8
:10118000904008421FC008411040FFFD1040084039
:101190005FC00840800008413FE00843252010411F
:1011A0002520104125202041252040417FF07FF857
:1011B0004880020049000201FFF002010010020213
:1011C0007F202200410023F07F002200080022003F
:1011D000FF80220088802200888022008A802200EE
:1011E0008900FFFC080023F21FC022111040FBF011
:1011F000904022121FC02A11104033F110406000AD
:101200005FC0AFFC800020413FE0224325202279CF
:10121000252022412520A541252048FD7FF010836F
:10122000DFC010825040208250402FFFDFC060821C
:10123000520061C25200A1C25FE022A3D20022A2EA
:10124000510024925100288E5090308BD45020822F
:10125000583020801010104047C017FC4440200335
:10126000F44023F844406208C440A3F8E44020015D
:1012700054402FFD44402806444023F84440204079
:10128000445020404850214050302080400020925F
:101290001FC03DF990402090904040901FC07BFFC0
:1012A0000000A0013FE021F90200FD090200210930
:1012B0007FF021F90500210945002909888031F9CD
:1012C0001070210820203030300075407755757738
:1012D00040403E4A5E2B5E4A6B627F352F357F7CF5
:1012E0005B5E247B0E3A047E017E4A5E69063A2FDD
:1012F0003F6B7E46403F41497F494102626B6B6BC9
:1013000062026A6B147D577D10413F55553D575120
:10131000213F2D7F2A122E0A775A505A770A20240D
:10132000137D5553707A2A7B021A437A4A525E2BF8
:101330005E424A415F353F555F417D14577D0E4007
:101340007F7F1B54167D1654493A407E575676428D
:101350003F427E7E427E047E51377D3750127A179F
:1013600052761E127F557F145D7F557F557F7F55C6
:101370003D577F55377817457F7F2B7B287B2B7F09
:101380001E12127F12121E7F416B7F6B517F525AC9
:10139000573A575A52007F494949497F22122A7FBA
:1013A0002A1222166A5E735662160937315F155F7C
:1013B0007500000000002F000300033F123F163F9E
:1013C0001A120824323D2A020100003E41413E002B
:1013D0000A070A083E0840200008080800200010FC
:1013E00008041C2A1C243E20322A24222A14181401
:1013F0003E2E2A121C2A12023A06142A14242A1CEF
:10140000002400402400081422141414221408029A
:10141000290612291E3E093E3F251A1E21213F2181
:101420001E3F25213F05011E21393F083F213F2155
:1014300010201F3F043B3F20203F063F3F013E1E40
:10144000211E3F09061E215E3F0936222519013F54
:10145000013F203F3F100F3F183F330C33033C0345
:10146000312D23007F41153E15417F0002010240CE
:10147000404000010218243C3F241818242418245A
:101480003F182C2C043F0548543C3F0438003D00D5
:10149000403D003F0834013F003C1C383C043818F4
:1014A00024187C241818247C3C0804283C14043E8E
:1014B000243C203C3C100C3C303C2418244C503C38
:1014C00024342C083641007F004136080101011008
:1014D00028101F010120203E1020000008002515C3
:1014E0000F241C0C103804180C3828382828183CF5
:1014F000083C18283820242C3C2C2C1C04080821DB
:101500001D07083C0306231E223E22120A3F320F0B
:101510003E0A3F0A24130E271E0222223E27120FE4
:101520002525102119273F222E21160F241B0E25B9
:101530001F0526261E251D053F0408241F04202202
:1015400022251927123B1620100F3C013E1F242490
:1015500021110F0C031C1A3F1A091927222A2A38B5
:101560002730320C13053F25023F0E213F20252551
:101570003F25251D07201F3C3F203F20103E223ED7
:1015800023110F21211801000102050200000000B3
:10159000000000002040000000000000205020005B
:1015A00000000000503000000000000060600000FB
:1015B000000000000000181800000000000036368F
:1015C000000000000000563600000000000201513B
:1015D000090906000000005F000000000000000094
:1015E0007F41410041417F00000000000000003FBA
:1015F000010101004040407E0000000000003F214A
:101600003D05070070505E427E00000000000000B3
:101610007F63410041637F00000000000808087FED
:101620000808080008080808080808004444445F3F
:101630004444440041221408142241000808082AA6
:101640000808080014141414141414001434141C7E
:101650001416140008081414142222002222141450
:10166000140808000205023C42422400002B2C789A
:101670002C2B000000242A7A2F2A1200001C623230
:101680002E23140020545E254142200042251208DA
:101690002452210020623E633E2302002056495519
:1016A000225840000022147F142200001C225955A9
:1016B0004D120C0000004A555529000004643C17E7
:1016C0003C64040004643C1F3C6404001C2241414F
:1016D00041221C001C3E7F7F7F3E1C001C225D556A
:1016E0005D221C000814224122140800081C3E7FC1
:1016F0003E1C08007F41414141417F007F7F7F7F49
:101700007F7F7F0040704C434C70400040707C7F76
:101710007C704000010719611907010001071F7F54
:101720001F07010049221449142249000505057DBF
:1017300005050500080808082A1C0800081C2A08D6
:10174000080808000004027F020400000010207F47
:1017500020100000003E414141413E000000427F18
:1017600040000000006251514949460000224149B1
:101770004949360000302824227F2000002F4545AB
:1017800045453900003E494949493200000101619F
:1017900019050300003649494949360000264949E0
:1017A00049493E000020547E3414600020527F2AB4
:1017B0001A4A3000003C4020041800001E2040203F
:1017C0000204180000104A4A2A100000000845458B
:1017D0004525180000482A3A4A40000000442515D3
:1017E0003D45400000247E145024000022527F0A10
:1017F000484A340044344F443804180044344F44B9
:1018000039041900002A5A4B4E5A0800002A5A4B34
:101810004E5B080000081414224100000008141454
:10182000224504003F0004443F0404003F000444F8
:101830003F04050000205242424240000020524234
:101840004342410000245444475C040000245444B3
:10185000475C050000003F404040200000003F4042
:101860004140210002020A563F02020002020A56CB
:101870003F02030004043F44545F440004043F4417
:10188000545F45000008093D4B4908000008093D28
:101890004B490A00423A072254444400423A072284
:1018A000554445000002124E4B4A32000002124ECF
:1018B0004B4A330000101048483000000404022254
:1018C00022221C000404022223221D000002021A0C
:1018D000254341000002021A2543450000205748D5
:1018E000484444000020574849444500120A275202
:1018F000503A24007F00205242424000304E38547B
:101900000F64780024147F0422523C001824124EE5
:10191000422418007F002454543F44007F00245484
:10192000543F45007F002454563D4600023A47404C
:10193000413E0400023A4740413E0500023A47401A
:10194000433D06004030404D321060004030404D75
:10195000321161004030404D32156200080402042B
:101960000810100008040204091011000804020401
:101970000A1512007F006A6A7E2A4A007F006A6A9E
:101980007F2A4B007F006A6A7E2D4A00006A6A6ADD
:101990007F2A4A0030291D4B483C1000122A7F4202
:1019A00040422400304E38540F443800000A3E4B69
:1019B0004A4A300000080E384614080004071C622A
:1019C000030A0400001C483E241800001E04523F75
:1019D00012120C00002050503E48000000205050D1
:1019E0003F244400001C51494A483000000F424146
:1019F000211E00000010696D4B49300024147F0443
:101A0000023E40000010494D4B4930000028187E2E
:101A10000844380024147F0442423C003049251F0A
:101A2000245438004028255735284000100A2E5BE2
:101A3000724A480040300C33404020000004443CCF
:101A4000140C00000001413D090503000020201096
:101A500078040000001010087C0201000018484CB7
:101A6000281800000006424322120E000040487869
:101A7000484000002022223E222220000028285830
:101A80007C0800002222124A7F0202000042221F2C
:101A900002427E000042221F02427F000012121FFB
:101AA000721210000012121F72131000000844433B
:101AB00022120E000008444322120F00080742229F
:101AC0001E020200080742221F0203000042424297
:101AD00042427E000042424243427F0002024F42A5
:101AE000221F020002024F42231E030000454A400B
:101AF00020100C0000454A4021100D0040422222D7
:101B00001A264000404222221B26410004043F4482
:101B100044544C0004043F4445544D0000014640E9
:101B200020100F000001464020110F000008444B18
:101B30002A120E000008444B2A120F00080A4A3EDF
:101B400009090800080A4A3E090809000018405817
:101B500020180000020C424C20100E00020C424CD7
:101B600021100D000405453D050504000405453D13
:101B70000504050000007F080810000000007F0831
:101B8000091001000444241F04040400202222221E
:101B90002222200040412515192700002022127B17
:101BA00006122000404020100807000040300E00C0
:101BB000020C700040300E00020D710040300E002B
:101BC000020D7200003F484848444400003F484826
:101BD00049444500003F48484A4546000002424209
:101BE00022120E000002424223120F000002424263
:101BF00022150E0008040204081020000804020444
:101C000009102100080402040A1522002414447F4C
:101C1000041424002414447F051425002414447F54
:101C20000615220002021222520A0600002125296E
:101C30004A42000040704C4350204000404424146D
:101C4000083700000008093F4949480000101C6897
:101C50000818000004040F74020A060000404848F7
:101C600078400000202222223E2020000000445420
:101C7000547C000000424A4A4A4A7E00000445451E
:101C800025150C00000F4040201F000040201E00C2
:101C90007F20100000007F4020100800007E42429C
:101CA00042427E00000C4444241C000000064242D4
:101CB00022120E0010121E12127F12002022223A4F
:101CC000262220000001454525150F000041424015
:101CD00020100C000006424322120F000048281C6E
:101CE0004878000000100C48380800000804040878
:101CF0001010080008000008000008000408080888
:101D00000808080008080808080808080605050764
:101D100006040903030504090A080303030603056F
:101D20000303050503060404050504050404030470
:101D3000090503EE05E905E305DB05D405CD05C678
:101D400005BE05B905B405AE05A705A00596058F26
:101D500005880584057F05770571056B05660560B7
:101D6000055C05560551054A05460542053C053802
:101D700005350532052E052B052805250519051401
:101D8000050F053E0053656C65637420546970004F
:101D900000000000003E5B4F5B3E3E6B4F6B3E1C05
:101DA0003E7C3E1C183C7E3C181C577D571C1C5E1C
:101DB0007F5E1C00183C1800FFE7C3E7FF001824F3
:101DC0001800FFE7DBE7FF30483A060E262979299D
:101DD00026407F050507407F05253F5A3CE73C5AD2
:101DE0007F3E1C1C08081C1C3E7F14227F22145FAF
:101DF0005F005F5F06097F017F006689956A60600A
:101E000060606094A2FFA29408047E040810207E03
:101E1000201008082A1C08081C2A08081E10101088
:101E2000100C1E0C1E0C30383E3830060E3E0E06CE
:101E3000000000000000005F000000070007001421
:101E40007F147F14242A7F2A1223130864623649E0
:101E50005620500008070300001C224100004122C8
:101E60001C002A1C7F1C2A08083E080800807030CD
:101E7000000808080808000060600020100804023C
:101E80003E5149453E00427F400072494949462142
:101E900041494D331814127F1027454545393C4AB6
:101EA00049493141211109073649494936464949CD
:101EB000291E000014000000403400000008142215
:101EC0004114141414140041221408020159090683
:101ED0003E415D594E7C1211127C7F494949363E84
:101EE000414141227F4141413E7F494949417F096A
:101EF0000909013E414151737F0808087F00417F75
:101F000041002040413F017F081422417F40404072
:101F1000407F021C027F7F0408107F3E4141413E0A
:101F20007F090909063E4151215E7F09192946268C
:101F30004949493203017F01033F4040403F1F2090
:101F400040201F3F4038403F631408146303047867
:101F500004036159494D43007F4141410204081087
:101F600020004141417F04020102044040404040C2
:101F7000000307080020545478407F284444383830
:101F800044444428384444287F38545454180008A2
:101F90007E090218A4A49C787F0804047800447D7C
:101FA00040002040403D007F1028440000417F4019
:101FB000007C047804787C0804047838444444386D
:101FC000FC1824241818242418FC7C08040408484D
:101FD0005454542404043F44243C4040207C1C209E
:101FE00040201C3C4030403C44281028444C9090F9
:101FF000907C4464544C4400083641000000770053
:1020000000004136080002010204023C2623263C5F
:102010001EA1A161123A4040207A385454555921EA
:1020200055557941215454784121555478402054D4
:102030005579400C1E527212395555555939545420
:10204000545939555454580000457C410002457D8F
:10205000420001457C40F0292429F0F0282528F091
:102060007C545545002054547C547C0A097F4932E5
:10207000494949323248484832324A4848303A4160
:1020800041217A3A42402078009DA0A07D39444405
:1020900044393D4040403D3C24FF2424487E494390
:1020A000662B2FFC2F2BFF0929F620C0887E090301
:1020B00020545479410000447D413048484A323828
:1020C0004040227A007A0A0A727D0D19317D262954
:1020D000292F28262929292630484D40203808084C
:1020E000080808080808382F10C8ACBA2F10283480
:1020F000FA00007B000008142A142222142A140873
:102100009500220095AA005500AAAA55AA55AA0032
:102110000000FF00101010FF00141414FF00101036
:10212000FF00FF1010F010F0141414FC001414F74A
:1021300000FF0000FF00FF1414F404FC1414171037
:102140001F10101F101F1414141F00101010F00087
:102150000000001F101010101F10101010F01000C1
:102160000000FF101010101010101010FF100000D1
:1021700000FF140000FF00FF00001F10170000FC0C
:1021800004F414141710171414F404F40000FF00DE
:10219000F714141414141414F700F7141414171467
:1021A00010101F101F141414F4141010F010F0006D
:1021B000001F101F0000001F14000000FC1400008E
:1021C000F010F01010FF10FF141414FF1410101072
:1021D0001F00000000F010FFFFFFFFFFF0F0F0F025
:1021E000F0FFFFFF0000000000FFFF0F0F0F0F0FB9
:1021F00038444438447C2A2A3E147E0202060602F1
:102200007E027E0263554941633844443C04407E6B
:10221000201E2006027E020299A5E7A5991C2A49E4
:102220002A1C4C7201724C304A4D4D30304878486F
:1022300030BC625A463D3E494949007E0101017E5B
:102240002A2A2A2A2A44445F444440514A444040AE
:10225000444A51400000FF0103E080FF00000808ED
:102260006B6B083612362436060F090F060000186D
:10227000180000001010003040FF0101001F010194
:102280001E00191D1712003C3C3C3C0000000000E1
:1022900000000000240027002A00000000002500A4
:1022A00028002B0000000000230026002900040461
:1022B00004040404040402020202020203030303EE
:1022C00003030102040810204080010204081020CA
:1022D00001020408102000000008000201000003B1
:1022E00004070000000000000000AED5F0A83FD3B6
:1022F00000408D14A1C8DA1281CFD9F1DB40A4A629
:10230000AF200021007F220007506C6561736520BB
:1023100077616974004144433A200074656D703AF6
:102320002000536574206D65617375726564005398
:102330007465703A20002B002D004D4F444520005D
:10234000FFFFFFFFFFFF800386708003800386701E
:1023500080039FF3E1309FF39FF3E1309FF39833C5
:1023600001CC9833983301CC9833983387C0983395
:102370009833E1C098339833E1C098339FF398C005
:102380009FF39FF398C09FF3800366CC8003800384
:1023900066CC8003FFFF010CFFFFFFFF01001FFF62
:1023A000810061301F3F873CE6FC8733873CE6FCB9
:1023B00087F3F8039E0F1F03F8039E0F1F03E13CF2
:1023C000FE0C07CFE13CFE0C07CF99033E3086C3DD
:1023D000E6CF380F9EF3E6CF380F9EF39E0327CC4F
:1023E00081039E0327CC8103E0FFE10CE6CFE0FFF1
:1023F000E10CE6CF9803060000FF9803060000FFFB
:10240000FFFF1EF0F8038003663099C38003663037
:1024100099C39FF3010CF8FF9FF3010CF8FF983369
:10242000393C01CF9833393C01CF9833FF0C793FC9
:1024300098333ECCE0F398333ECCE0F39FF33E007C
:1024400098CF9FF33E0098CF80033E30E7C38003D0
:102450003E30E7C3FFFFFFFFFFFFFFFFFFFFFFFF70
:1024600076312E387431005600560043000FE01FBD
:10247000C01FC03F803FF87FF07FE007C007800F9C
:10248000000E001C001800100014A03FF07FF8E0C0
:102490001C6E18EC1C68186018E01C6058E01C7F6B
:1024A000F83FF014A04552524F5200484F4C4400A0
:1024B0004845415400574F524B5900424F4F5354D7
:1024C00000534C454550004F46460000003BEC7B16
:1024D000EE63E663E663E663E663E663E66366622D
:1024E00026600660067FFE3FFC00002500430020BA
:1024F0002070F8010204081020408000222A1124D4
:102500001FBECFEFD8E0DEBFCDBF12E0A0E0B1E04C
:10251000E4E3FAE702C005900D92A63CB107D9F7B3
:1025200028E0A6ECB2E001C01D92A731B207E1F7A6
:1025300012E1CFE7D2E104C02197FE010E94F93CED
:10254000CE37D107C9F70E94D72A0C94183D0C94B6
:1025500000004F925F926F927F928F929F92AF9204
:10256000BF92CF92DF92EF92FF920F931F93CF9380
:10257000DF9300D000D0CDB7DEB74B015C0129015D
:102580003A016701780120E030E0A9010E94343867
:1025900087FDA6C020E030E0A901C301B2010E947E
:1025A000343887FD9DC020E030E0A901C801B601A4
:1025B0000E94343887FD94C081E02091E10730917A
:1025C000E2072130310509F080E080930208809213
:1025D000C7079092C807A092C907B092CA07409255
:1025E000CB075092CC076092CD077092CE07C09275
:1025F000CF07D092D007E092D107F092D207609136
:10260000F5077091F6078091F7079091F8070E94FF
:10261000393820E030E04AE754E40E94433A6983C5
:102620007A838B839C838092D3079092D407A09265
:10263000D507B092D6079B01AC01C301B2010E943D
:102640009A382B013C014092D7075092D8076092EC
:10265000D9077092DA0729813A814B815C81C701E1
:10266000B6010E94433A6B017C01C092DB07D09215
:10267000DC07E092DD07F092DE078091DF079091A2
:10268000E007019769F5A501940160E070E0CB01D6
:102690000E94D1396093D3077093D4078093D507F4
:1026A0009093D607A301920160E070E0CB010E94F5
:1026B000D1396093D7077093D8078093D907909347
:1026C000DA07A701960160E070E0CB010E94D139E2
:1026D0006093DB077093DC078093DD079093DE0740
:1026E0000F900F900F900F90DF91CF911F910F914E
:1026F000FF90EF90DF90CF90BF90AF909F908F9022
:102700007F906F905F904F90089580389105B0F45E
:102710006034710598F4E3EFF4E290E1969FD00104
:10272000A0781124A80F6770E60FF11D9491A25EA6
:10273000BC4F442321F08C91982B9C930895909545
:102740008C919823FACFDF92EF92FF920F931F9311
:10275000CF93DF937C01D22E8B01040F111DEB016F
:1027600077FF02C0D0E0C0E0C8010134110514F0C9
:1027700080E490E0C817D9073CF44D2DBE01C70195
:102780000E9485132196F0CFDF91CF911F910F9179
:10279000FF90EF90DF900895CF92DF92EF92FF923B
:1027A0000F931F93CF93DF936B01122FEC017C01EA
:1027B000E40EF11CCE15DF0544F4202F412FB601A5
:1027C000CE010E94A3132196F5CFDF91CF911F91E7
:1027D0000F91FF90EF90DF90CF9008952F923F924E
:1027E0004F925F926F927F928F929F92AF92BF9221
:1027F000CF92DF92EF92FF920F931F93CF93DF93CD
:1028000000D01F92CDB7DEB7C22ED12C9601280F73
:10281000391F37FD4FC0803891050CF04BC0E9825D
:102820004A017B013C01402E512C160127E0220E6B
:10283000311C93E0359427949A95E1F78B01B12CE4
:10284000A12C1B821A82EA81FB8183E0F595E79532
:102850008A95E1F7EA0DFB1DE80DF91DE4918A81E7
:102860009B818770992720E830E002C03595279535
:102870008A95E2F7C901F0E0E223F923EF2B41F05A
:102880004981B8018A819B81860D971D0E9485131D
:102890008A819B8101969B838A838C159D059CF27E
:1028A000A20CB31C0F5F1F4FC8018E199F0984151E
:1028B00095053CF20F900F900F90DF91CF911F91F3
:1028C0000F91FF90EF90DF90CF90BF90AF909F90CF
:1028D0008F907F906F905F904F903F902F900895D2
:1028E0000F931F93CF93DF93EC018B0140E0019690
:1028F0000E94851340E0B801CE0101970E94851324
:10290000B8016F5F7F4F40E0CE010E948513B80190
:102910006150710940E0CE010E94851340E0B8018A
:10292000CE01DF91CF911F910F910C9485132F92BF
:102930003F924F925F926F927F928F929F92AF924F
:10294000BF92CF92DF92EF92FF920F931F93CF939C
:10295000DF93C82FD0E081E090E04C018C1A9D0AF3
:10296000442455244C1A5D0A440C551C7E0188E110
:10297000E80EF11C40E0B70188E190E00E94851369
:1029800008E110E00C1B1D0B40E0B80188E190E06D
:102990000E94851340E068E170E0C7010E94851342
:1029A00040E068E170E0C8010E948513222423946E
:1029B000312C712C612C97FC06C0219782E0480EC7
:1029C000511C840C951C8FEF681A780A82E0280E3F
:1029D000311C820C931C530188E1A80EB11C40E00D
:1029E0007E0188E1E80EF11CB701C5010E94851344
:1029F00088E1C82ED12CC618D70840E0B701C6011F
:102A00000E94851340E008E110E00C1B1D0BB8018B
:102A1000C5010E94851340E0B801C6010E948513DC
:102A200040E0B501C7010E94851340E0B501C8012F
:102A30000E94851340E0B601C7010E94851340E063
:102A4000B601C8010E9485136C167D060CF4B3CF45
:102A5000DF91CF911F910F91FF90EF90DF90CF907A
:102A6000BF90AF909F908F907F906F905F904F90AE
:102A70003F902F90089580E0EEE1F3E081118FEF19
:102A8000002481938193819381930394D1F7E3E0B0
:102A9000F8E0178616861586148608956F927F9241
:102AA0008F929F92AF92BF92CF92DF92EF92FF925E
:102AB0000F931F93CF93DF93803891050CF057C08D
:102AC000603471050CF053C07B0137E0E322FF2432
:102AD00033E0759567953A95E1F7DB01B695BA2F26
:102AE000AA27B795A7955D01C0E8AC0EB11CA80E4A
:102AF000B91EA80FB91FA25EBC4F00E810E0081B6A
:102B0000190B90E080E0E8E0F0E04F018E189F089C
:102B100030E0FA01E80FF91FC4917D906D01D1E01A
:102B2000CD1AD1080E2C01C0CC0F0A94EAF77C2AEA
:102B3000E6017882E114F10499F06730710581F0C3
:102B4000E491EC01CA0DDB1DC25EDC4FF0E0082C05
:102B500002C0F595E7950A94E2F7F881EF2BE88338
:102B60000196821793071CF40817190791F6DF9155
:102B7000CF911F910F91FF90EF90DF90CF90BF907A
:102B8000AF909F908F907F906F900895AF92BF927B
:102B9000CF92DF92EF92FF920F931F93CF93DF9329
:102BA0006C017B018B01040F151FEB015E01AE1858
:102BB000BF08C017D10759F06991D601ED91FC917A
:102BC0000190F081E02DC6010995892B79F7C501A7
:102BD000DF91CF911F910F91FF90EF90DF90CF90F9
:102BE000BF90AF900895FC01538D448D252F30E0A8
:102BF000842F90E0821B930B541710F0CF9608950A
:102C000001970895FC01918D828D981761F0A28D36
:102C1000AE0FBF2FB11D5D968C91928D9F5F9F73FC
:102C2000928F90E008958FEF9FEF0895FC01918DB2
:102C3000828D981731F0828DE80FF11D858D90E01F
:102C400008958FEF9FEF0895FC01918D228D892FBC
:102C500090E0805C9F4F821B91098F7399270895A4
:102C60008EE197E00E94241621E0892B09F420E0F0
:102C7000822F089580E090E0892B29F00E94301681
:102C800081110C9400000895FC01A48DA80FB92FA8
:102C9000B11DA35ABF4F2C91848D90E001968F7384
:102CA0009927848FA689B7892C93A089B1898C91A3
:102CB000837080648C93938D848D981306C00288F2
:102CC000F389E02D80818F7D80830895EF92FF92BC
:102CD0000F931F93CF93DF93EC0181E0888F9B8D3F
:102CE0008C8D98131AC0E889F989808185FF15C0F9
:102CF0009FB7F894EE89FF896083E889F98980811C
:102D00008370806480839FBF81E090E0DF91CF91EA
:102D10001F910F91FF90EF900895F62E0B8D10E00C
:102D20000F5F1F4F0F731127E02E8C8D8E110CC07B
:102D30000FB607FCFACFE889F989808185FFF5CFC6
:102D4000CE010E944416F1CFEB8DEC0FFD2FF11D4B
:102D5000E35AFF4FF0829FB7F8940B8FEA89FB8903
:102D600080818062CFCFCF93DF93EC01888D882361
:102D7000B9F0AA89BB89E889F9898C9185FD03C0DE
:102D8000808186FD0DC00FB607FCF7CF8C9185FFC3
:102D9000F2CF808185FFEDCFCE010E944416E9CFAE
:102DA000DF91CF910895833081F028F4813099F03C
:102DB0008230A9F008958730A9F08830C9F08430B6
:102DC000B1F4809180008F7D03C0809180008F7767
:102DD00080938000089584B58F7784BD089584B56D
:102DE0008F7DFBCF8091B0008F778093B0000895E6
:102DF0008091B0008F7DF9CFCF93DF93282F30E003
:102E0000F901EA52FD4D8491F901EE53FD4DD49143
:102E1000F901E255FD4DC491CC23A1F081110E942E
:102E2000D316EC2FF0E0EE0FFF1FEC55FD4DA591F2
:102E3000B491EC91ED2381E090E009F480E0DF9122
:102E4000CF91089580E090E0FACF1F93CF93DF9366
:102E5000282F30E0F901EA52FD4D8491F901EE533B
:102E6000FD4DD491F901E255FD4DC491CC23A9F05B
:102E7000162F81110E94D316EC2FF0E0EE0FFF1FEA
:102E8000E656FD4DA591B4918FB7F894EC911111D0
:102E900008C0D095DE23DC938FBFDF91CF911F91C7
:102EA0000895DE2BF8CFCF93DF9390E0FC01EE5333
:102EB000FD4D249182559D4DFC0184918823C9F0DC
:102EC00090E0880F991FFC01E057FD4DA591B4914A
:102ED000FC01E656FD4DC591D49161110DC09FB71F
:102EE000F8948C91209582238C93888128232883C1
:102EF0009FBFDF91CF910895623051F49FB7F8944E
:102F00003C91822F809583238C93E8812E2BEFCFE9
:102F10008FB7F894EC912E2B2C938FBFEACF1F9391
:102F2000CF93DF93182FEB0161E00E945317209796
:102F300039F460E0812FDF91CF911F910C94251718
:102F4000CF3FD10511F461E0F5CFE12FF0E0EA5277
:102F5000FD4DE491E33031F140F4E130B1F0E23085
:102F6000E1F0C038D1057CF7E4CFE73029F1E83053
:102F700059F1E430B1F78091800080628093800045
:102F8000D0938B00C0938A0004C084B5806884BD50
:102F9000C7BDDF91CF911F91089584B5806284BD34
:102FA000C8BDF7CF80918000806880938000D09367
:102FB0008900C0938800EDCF8091B0008068809335
:102FC000B000C093B300E5CF8091B00080628093E1
:102FD000B000C093B400DDCF3FB7F8948091E60213
:102FE0009091E702A091E802B091E90226B5A89B72
:102FF00005C02F3F19F00196A11DB11D3FBFBA2F8B
:10300000A92F982F8827BC01CD01620F711D811D4A
:10301000911D42E0660F771F881F991F4A95D1F7CF
:1030200008958F929F92AF92BF92CF92DF92EF92CC
:10303000FF924B015C010E94EC176B017C010E9426
:10304000EC176C197D098E099F09683E7340810554
:103050009105A8F321E0821A9108A108B10888EE31
:10306000C80E83E0D81EE11CF11C81149104A10458
:10307000B10429F7FF90EF90DF90CF90BF90AF9011
:103080009F908F9008952FB7F8946091E20270910D
:10309000E3028091E4029091E5022FBF089584E954
:1030A0008093BC008091BC0084FDFCCF0895809388
:1030B000BB0084E88093BC008091BC0087FFFCCFFC
:1030C000089584EA8093BC008091BC0087FFFCCF08
:1030D00088E70C9457180E94611880E48093BB0025
:1030E00084E88093BC00EEE1F3E09091BC0097FF90
:1030F000FCCF91919093BB008093BC0097E0EE31A0
:10310000F90799F78091BC0087FFFCCF0C944F180A
:10311000CF93C82F0E94611880E00E9457188C2F0F
:103120000E945718CF910C944F18480F592F511DDA
:1031300014161506D4F580389105BCF597FF02C02A
:1031400090E080E04138510514F040E850E0481B21
:10315000FB0177FD379633E0F595E7953A95E1F772
:10316000F695FE2FEE27F795E795E80FF91FE25E3B
:10317000FC4F6770772781E090E001C0880F6A9567
:10318000EAF7382F213041F4415078F08191DF0186
:103190001197832B8C93F8CF8095415030F091910B
:1031A000DF01119798239C93F8CF0895CF92DF9277
:1031B000EF92FF920F93CF93DF936C017B01C42FAB
:1031C000D22F202F0E949518B7016D0F711D6150ED
:1031D0007109603471052CF4202F4C2FC6010E9418
:1031E0009518202F4D2FB701C6010E94A313C601C9
:1031F0008C0F911D202F4D2FB7010197DF91CF919B
:103200000F91FF90EF90DF90CF900C94A3132F922B
:103210003F924F925F926F927F928F929F92AF9266
:10322000BF92CF92DF92EF92FF920F931F93CF93B3
:10323000DF93CDB7DEB72A970FB6F894DEBF0FBE87
:10324000CDBF9A8389836A3061F5DC0152968C91F7
:10325000B8E08B9F90011124E981FA8186859785DA
:10326000820F931F978786871586148681E090E0EA
:103270002A960FB6F894DEBF0FBECDBFDF91CF9177
:103280001F910F91FF90EF90DF90CF90BF90AF9084
:103290009F908F907F906F905F904F903F902F9076
:1032A00008956D3019F329813A813A872987D90128
:1032B0001C96AD90BC90B0E8AB16B1040CF07BC08E
:1032C000F901C684D784F0E4CF16D1040CF073C0A2
:1032D000D90152966C90529745E09501649E200D5D
:1032E000311D1124121613060CF065C0262C312C4A
:1032F000910153E0220F331F5A95E1F72C0D3D1D2C
:10330000121613060CF057C05196BC91BB83E98589
:10331000FA85F089FC83649FB00111249B0120573A
:10332000324E3A832983712CE981FA818491F5E048
:103330007F1201C080E0460138E0532E282F30E094
:103340003E832D834C8080FF4B80411004C03B8125
:103350008C813817E1F010E000E00615C0F4D501CB
:10336000A00FB11FB887AF83F12CE12CE61460F4F5
:10337000B701680D791D442D8F8198850E948513B2
:10338000BFEFEB1AFB0AF2CF0F5F1F4FE6CF8D8125
:103390009E81959587955A94820C931C5110CECF9F
:1033A0007394E981FA813196FA83E983A20CB31C04
:1033B000F6E07F12B9CFA985BA8552962C91529723
:1033C000422F50E01C968D919C91B6E02B9F800D72
:1033D000911D1124E985FA85958784872389222305
:1033E00009F444CF6AEF64039001659F300D112406
:1033F00020583F4F281739070CF038CFDF010190D4
:10340000F081E02D0190F081E02D6AE0CD01099579
:103410002DCF682F83E098E00C9407190F931F932A
:10342000CF93DF938C01D0E0C0E0F801EC0FFD1FDB
:103430006491662341F083E098E00E940719892B8C
:1034400011F02196F2CFCE01DF91CF911F910F9114
:103450000895089590E080E0089580917A00806951
:1034600080937A008EE480937C0061E070E080E0DD
:1034700090E00E94111883B7817F826083BF80E152
:1034800030E020E093B7916093BF889593B79E7F1B
:1034900093BF90917A0096FDFCCF409178005091B7
:1034A0007900240F351F815069F780917A008F775A
:1034B00080937A0084E0369527958A95E1F750E06D
:1034C00040E064EB7BE281E190E00E946E39C9014B
:1034D000089580917A00806980937A0088EC8093C7
:1034E0007C006AE070E080E090E00E94111883B7F1
:1034F000817F826083BF80E270E060E093B791607B
:1035000093BF889593B79E7F93BF90917A0096FD65
:10351000FCCF2091780030917900620F731F8150A9
:1035200069F780917A008F7780937A007695679516
:103530007695679562527A4090E080E00E94393833
:1035400026EF38E24CE151E40E94433A089590910D
:103550007A00906990937A008E50806480937C000A
:1035600083B7817F826083BF20E290E080E033B741
:10357000316033BF889533B73E7F33BF30917A00D7
:1035800036FDFCCF4091780050917900840F951F53
:10359000215069F720917A002F7720937A0025E057
:1035A000969587952A95E1F708958FE00E94A71ACE
:1035B000A091ED02B091EE029C010E94C2390E94DE
:1035C0003B3828E539E743E353E40E94433A0E943D
:1035D000BC3ACB0108958091F702882369F086E018
:1035E0000E94FC16892B41F06AE070E080E090E0D8
:1035F0000E9411181092F70208956F927F928F9295
:103600009F92AF92BF92CF92DF92EF92FF920F9371
:10361000CF93DF937C01C62F01E020E340E370E00D
:1036200060E00E94CC13570123E0A20EB11C00E021
:103630002AE24AE263E070E0C5010E94CC1370E028
:1036400060E0C7010E94701467013FE2C30ED11C05
:1036500070E060E0C6010E9470146FE270E0C70184
:103660000E9470146FE270E0C6010E947014EC2F8B
:10367000F0E0EE0FFF1FE257FE4F8080918053E095
:10368000E52EF12CD12CC12C60E8662E712CD0E0F7
:10369000C0E0FE0133E0F595E7953A95E1F7EC0DD2
:1036A000FD1DE80DF91DE491CE0187709927930166
:1036B00002C0359527958A95E2F7C901F0E0E2232B
:1036C000F923EF2B69F0CE01880F991F8C0F9D1FF6
:1036D00001E023E043E0B7018A0D9B1D0E94CC135B
:1036E0002196CE30D105A9F632E0C30ED11C83E07D
:1036F000E80EF11C2DE2E216F10449F6DF91CF91BC
:103700000F91FF90EF90DF90CF90BF90AF909F9080
:103710008F907F906F900895880F991F9093DE028D
:103720008093DD02660F771F7093DC026093DB02EB
:103730008091F402882359F05093E0024093DF0215
:10374000220F331F309303032093020308955195F2
:1037500041955109F1CF0F931F93CF9380914D0164
:10376000882399F0CFEF0FEE11E061E085E00E9431
:103770002517C8010197F1F760E085E00E94251741
:10378000C8010197F1F7C15081F7CF911F910F91B7
:1037900008958F929F92AF92BF92CF92DF92EF9255
:1037A000FF920F931F93CF93DF93D12CC12CF12C59
:1037B000E12CD6E032E0932E40E3A42EB12C8E2CE7
:1037C00086E00E94FC1621E0892B09F020E020937E
:1037D000F70221E430E041E050E060E670E08FE184
:1037E00090E00E948C1B80910203909103039595B9
:1037F0008795C82F8F31B9F52FE530E041E050E0D3
:1038000060E670E08FE190E00E948C1BCFE50E94A3
:103810003B1590921508D0921008C0920F08B092F4
:103820001208A09211088EE50E94091A1092100841
:1038300010920F0880E290E0909312088093110894
:1038400010E000E00815E8F480911803F801D89F13
:10385000E00DF11D1124E25BFE4F80810E94091AE8
:103860000F5F1F4FEFCF803691F620E230E041E04E
:1038700050E060E670E08FE190E00E948C1BC0E2B7
:10388000C6CFD0921008C0920F0880E290E09093CB
:103890001208809311088C2F0E94091A0E94EB1ABB
:1038A0000E946B1886E00E94FC16892B09F09BCFC2
:1038B0008091F702811197CF00911803D09F80016A
:1038C0001124025B1E4FF801EE0DFF1DC0830E9404
:1038D000AB1B6AE070E080E090E00E9411188FEF6F
:1038E000E81AF80AE0E1CE0ED11CF5E0EF16F1047B
:1038F00009F065CFF8011582DF91CF911F910F91EB
:10390000FF90EF90DF90CF90BF90AF909F908F90FF
:1039100008953F924F925F926F927F928F929F9203
:10392000AF92BF92CF92DF92EF92FF920F931F93CD
:10393000CF93DF93CDB7DEB72E970FB6F894DEBFE7
:103940000FBECDBF80911B03882309F4A5C110923F
:10395000BB071092BC071092BD071092BE07809063
:10396000BB079090BC07A090BD07B090BE07C09069
:103970000B03D0900C03E0900D03F0900E03A70111
:103980009601C501B4010E94D1392B013C0120E010
:1039900030E0A9010E942A3B18160CF0A0C1C30117
:1039A000B2010E94BC3A80914801882309F4B8C151
:1039B000C092C307D092C407E092C507F092C60731
:1039C000E12CF12C00EA10E420E030E040E450E487
:1039D0006E31710540F0E12CF12C00E81FE320E08E
:1039E00030E040E05FE360E070E080E391E40E945B
:1039F000A91280910108882309F42AC10E94431862
:103A00006D837E838F8398878091E9079091EA0781
:103A1000A091EB07B091EC074D815E816F817885B5
:103A2000481B590B6A0B7B0B8091F5079091F607A9
:103A3000A091F707B091F807481759076A077B0765
:103A400008F406C1E091E307F091E40780819181D9
:103A5000A281B38189839A83AB83BC83E091E7071A
:103A6000F091E8079C01AD016081718182819381B1
:103A70000E94D1394B015C012091F1073091F2078E
:103A80004091F3075091F40769817A818B819C8181
:103A90000E94D1396B017C012091D7073091D80762
:103AA0004091D9075091DA07C501B4010E949A38B4
:103AB0002091ED073091EE074091EF075091F0070C
:103AC0000E94D2392B013C014092ED075092EE0743
:103AD0006092EF077092F0073090020831101AC020
:103AE0002091D3073091D4074091D5075091D60744
:103AF000C701B6010E949A389B01AC01C301B20113
:103B00000E94D1396093ED077093EE078093EF0721
:103B10009093F0074090ED075090EE076090EF070C
:103B20007090F0071091FD079091FE079E87A0917D
:103B3000FF07AD8700910008212F392F4A2F502F02
:103B4000C301B2010E942A3B18160CF0CCC0812F91
:103B50009E85AD85B02F8093ED079093EE07A093DF
:103B6000EF07B093F007332009F4D6C02091D307B4
:103B70003091D4074091D5075091D607C501B401C3
:103B80000E949A384B015C012091DB073091DC07E1
:103B90004091DD075091DE07C701B6010E949A38B7
:103BA0009B01AC016091ED077091EE078091EF07EA
:103BB0009091F0070E94D139A50194010E94D23959
:103BC0006B017C019B01AC01612F7E858D85902F5F
:103BD0000E94343887FD18C01091F9079091FA07B8
:103BE0009E87A091FB07AD870091FC07212F392FFD
:103BF0004A2F502FB601C7010E94343887FD04C0F8
:103C00001C2DDE86ED860F2DE091E507F091E6078D
:103C1000812F9E85AD85B02F80839183A283B3834E
:103C200089819A81AB81BC818093F1079093F207DF
:103C3000A093F307B093F4078D819E81AF81B8857F
:103C40008093E9079093EA07A093EB07B093EC0702
:103C50006091BF077091C0078091C1079091C20722
:103C60000E94B53A89E02E960FB6F894DEBF0FBEDB
:103C7000CDBFDF91CF911F910F91FF90EF90DF901B
:103C8000CF90BF90AF909F908F907F906F905F90FC
:103C90004F903F900C948F1780911A0360914401CC
:103CA0007091450181110EC08091090390910A0322
:103CB00020911903BC01222329F060914301680F70
:103CC000792F711D90E080E00E9439386093BB0726
:103CD0007093BC078093BD079093BE0740CEC3018D
:103CE000B20190585ECE8091F9079091FA07A091A9
:103CF000FB07B091FC0789879A87AB87BC879C013B
:103D0000AD01C301B2010E94343887FF2CCF8985F1
:103D10009A85AB85BC851FCF812C912C540134CF63
:103D200020E030E040E05FE3C701B6010E94D239F5
:103D30009B01AC01C501B4010E942A3B18164CF44A
:103D40001092BF071092C0071092C1071092C207CD
:103D50007FCF80E090E0AFE7B3E48093BF0790931C
:103D6000C007A093C107B093C20772CF4F925F9272
:103D70006F927F928F929F92AF92BF92CF92DF927B
:103D8000EF92FF92CF93DF938090EF029090F0023A
:103D9000A090F102B090F202C0911803D0E0C501EA
:103DA000B4010E94B53A6B017C0120E030E048E4A8
:103DB00053E4C501B4010E94343893E0CC0FDD1FF9
:103DC0009A95E1F7CE5FDE4F87FF31C028813981B8
:103DD00050E040E02551310941095109C701B601C0
:103DE0000E94D53C28EC30E040E050E00E946E3963
:103DF000CA01B9016B5E7F4F8F4F9F4F0E943B38C6
:103E000060930B0370930C0380930D0390930E0348
:103E1000DF91CF91FF90EF90DF90CF90BF90AF9068
:103E20009F908F907F906F905F904F9008954A8001
:103E30005B80712C612C20E030E04CE853E4C5013C
:103E4000B4010E94343887FF1FC088809980B12C4C
:103E5000A12CA7019601285C310941095109C30130
:103E6000B201681979098A099B090E94D53C20E5AD
:103E700030E040E050E00E946E39CA01B901680D9F
:103E8000791D8A1D9B1DBACF2C813D8150E040E0F9
:103E90002419350946095709C701B601685171400F
:103EA000810991090E94D53C20E530E040E050E0D6
:103EB0000E946E39CA01B901640D751D861D971DDA
:103EC0009DCFFC0101900020E9F73197AF01481B1D
:103ED000590BBC0183E098E00C94C6158F929F9219
:103EE000AF92BF920F931F93CF93DF93CDB7DEB7FF
:103EF000A1970FB6F894DEBF0FBECDBF19A2423016
:103F000008F44AE08E010F5D1F4F842E912CB12CD6
:103F1000A12CA50194010E94A039E62FB901CA0184
:103F2000EA30F4F4E05DD801EE938D01232B242BCD
:103F3000252B79F790E080E0109719F0CD010E94D1
:103F4000611FA1960FB6F894DEBF0FBECDBFDF9103
:103F5000CF911F910F91BF90AF909F908F90089538
:103F6000E95CE1CFCF92DF92EF92FF92CF93DF93A4
:103F70006C01990FEE08FF08F7FE17C08DE20E9452
:103F8000091AEC0166277727CB016C197D098E0988
:103F90009F094AE00E946E1F8C0F9D1FDF91CF91F9
:103FA000FF90EF90DF90CF9008954AE0C701B601EF
:103FB000DF91CF91FF90EF90DF90CF900C946E1F28
:103FC0000F9329E330E03093100820930F0822E18B
:103FD00030E0309312082093110824E02093150854
:103FE00020911C0330911D03253F314078F086EC71
:103FF00092E10E940E1A00E020E248E460E170E0E5
:1040000087E390E00E94D6180F9108950E94B21F96
:10401000F2CF4F925F926F927F928F929F92AF9268
:10402000BF92CF92DF92EF92FF920F931F93CF93A5
:104030006B017C01742EAC019B010E94873B88239D
:1040400099F086EB92E0CF911F910F91FF90EF9046
:10405000DF90CF90BF90AF909F908F907F906F90A8
:104060005F904F900C94611F46015701E894B7F898
:104070002FEF3FEF4FE75FE7C501B4010E94873B99
:1040800081110DC02FEF3FEF4FE75FE7C501B4018E
:104090000E94343818161CF48AEB92E0D4CF2FEF2C
:1040A0003FEF4FE75FE4C701B6010E942A3B1816B5
:1040B0001CF48EEB92E0C7CF2FEF3FEF4FE75FECA2
:1040C000C701B6010E94343887FDF3CF20E030E00D
:1040D000A901C701B6010E94343810E000E087FF53
:1040E00008C08DE20E94091A8C01F7FAF094F7F8E3
:1040F000F094C0E060E070E080E09FE37C1641F067
:1041000020E030E040E251E40E94433ACF5FF6CF36
:10411000A70196010E94D2392B013C010E94BC3AB2
:104120004B015C014AE00E946E1F7C01E00EF11E13
:10413000CC23B1F1C501B4010E9439389B01AC0117
:10414000C301B2010E94D1394B015C018EE20E9491
:10415000091AE80EF91EC15018F120E030E040E2E3
:1041600051E4C501B4010E949A382B013C010E9420
:10417000BC3A4B01B12CA12C4AE0C501B4010E940C
:104180006E1FE80EF91EC501B4010E9439389B016B
:10419000AC01C301B2010E94D1394B015C01DBCFFC
:1041A000C701CF911F910F91FF90EF90DF90CF90BB
:1041B000BF90AF909F908F907F906F905F904F9047
:1041C0000895CF92DF92EF92FF920F93CF93DF93F8
:1041D00081E080931408109213088093150800E082
:1041E0002EE046E661E370E081E090E00E94D618A0
:1041F00020911C0330911D03253F81E03807B8F45E
:10420000A4E6B0E00E94C23924EF31E040E050E083
:104210000E946E39BA01A9014E5F5F4F6F4F7F4F09
:104220002EE061E370E081E090E00E94CC136091A9
:10423000BB077091BC078091BD079091BE070E949B
:10424000B53A9B01AC01A4E6B0E00E948D3934EF91
:10425000C32EDD24D394E12CF12CA70196010E94FA
:104260006E39DA01C9010296A11DB11D029700E065
:104270002DE043E062E370E00E94CC136091BB0745
:104280007091BC078091BD079091BE070E94B53A1E
:104290009B01AC01A4E6B0E00E948D39A701960114
:1042A0000E946E39DA01C9010296A11DB11D039762
:1042B00024E045E06CE370E00E94CC136091BB0702
:1042C0007091BC078091BD079091BE070E94B53ADE
:1042D0009B01AC01A4E6B0E00E948D39A7019601D4
:1042E0000E946E392E5F3F4F4F4F5F4F790181E043
:1042F000E81AF108C1E3D0E041E0BE01C7010E9425
:1043000085132196CD33D105B9F76091BB07709124
:10431000BC078091BD079091BE070E94B53A9B01F2
:10432000AC01A4E6B0E00E948D3924EF31E040E01A
:1043300050E00E946E39DA01C9010296A11DB11D3B
:104340000397EE24E39404E025E04FEE54E26BE3A0
:1043500070E00E94EE1300E02EE047E161E370E0C0
:1043600088E690E00E94D6186091BF077091C00760
:104370008091C1079091C2070E94B53A9B01AC01A0
:104380002F5F310941095109A7E1B0E00E948D3941
:10439000CC24C394DD24DA94ED2CFD2CA7019601E6
:1043A0000E946E39422F2EE061E370E088E690E0D3
:1043B0000E94CC131092140881E08093130882E0CD
:1043C00090E09093100880930F08C7E3D0E0D0935B
:1043D0001208C09311086091BB077091BC078091CF
:1043E000BD079091BE0740E00E94092088EF0E941F
:1043F000091A8DEE94E20E940E1A89E690E09093DD
:10440000100880930F08D0931208C0931108609190
:10441000BF077091C0078091C1079091C2070E94A9
:10442000B53A9B01AC012F5F310941095109A4E65E
:10443000B0E00E948D39A70196010E946E39690192
:104440007A014AE0C701B601F7FE0BC08DE20E9477
:10445000091A66277727CB016C197D098E099F09F8
:104460004AE00E946E1F8BEE94E20E940E1A81E0D9
:104470008093140810921308DF91CF910F91FF9051
:10448000EF90DF90CF9008956F927F928F929F92DE
:10449000AF92BF92CF92DF92EF92FF920F931F9352
:1044A000CF93DF93B090180377247394B11001C0B9
:1044B000712C2B2D30E0609142016150770B41E06F
:1044C00050E090E080E00E948C1B86E00E94FC1689
:1044D00021E0892B09F020E02093F702FF24F394D8
:1044E00072E0972EE6E08E2EFCE0CF2ED12C0E94BB
:1044F0003B15C0910203D0910303D595C795EC2ECF
:104500008E011127C801870D911D77FC9A958B1993
:104510009109712C97FD06C08330910514F082E05B
:1045200090E0782EF09214081092130890921508DB
:104530001092100810920F08109212081092110891
:1045400085E89DE10E940E1A10921408F09213085B
:104550001092100810920F08A72C072C000CBB0813
:10456000C501019654E0880F991F5A95E1F7909381
:1045700012088093110883E89DE10E940E1A6C2EA8
:10458000671890E080E098012A193B0959012091B1
:1045900042018C010F5F1F4F6216D0F4D0921008B9
:1045A000C0920F08980144E0220F331F4A95E1F7AB
:1045B00030931208209311088A0D9B1D889E90014C
:1045C000899E300D1124C901825B9E4F0E94611F9C
:1045D000C801639403301105D1F60E94EB1A0E94C2
:1045E0006B1886E00E94FC16892BB9F48091F702C3
:1045F000811113C00E94AB1BE0921803DF91CF9191
:104600001F910F91FF90EF90DF90CF90BF90AF90F0
:104610009F908F907F906F900895BC2E68CF0E94DE
:10462000133D1F93CF93DF93EC01162F0E9458394F
:10463000181739F0612FCE01DF91CF911F910C94A3
:104640006039DF91CF911F910895AF92BF92CF92C1
:10465000DF92EF92FF920F931F93CF93DF936091BE
:10466000470182E090E00E9411236091460183E0BF
:1046700090E00E9411236091450184E090E00E9447
:1046800011236091440185E090E00E941123609124
:10469000430186E090E00E94112360914B0187E086
:1046A00090E00E94112360914A0188E090E00E940E
:1046B00011236091490189E090E00E9411236091EB
:1046C0007E018AE090E00E941123609148018BE016
:1046D00090E00E94112360914D018CE090E00E94D7
:1046E0001123609118038DE090E00E9411236091E6
:1046F00042018EE090E00E941123609117038FE049
:1047000090E00E9411236091F30280E190E00E940A
:1047100011236091140381E190E00E9411236091C4
:10472000F60282E190E00E9411236091F50283E19C
:1047300090E00E9411236091F40284E190E00E94D5
:10474000112385E1E82EF12C10E006E08091420172
:104750001817B8F5109F60011124D0E0C0E0FE01E9
:10476000EC0DFD1DE25BFE4F6081C7018C0F9D1FAC
:104770000E9411232196C630D10589F7670186E092
:10478000C80ED11C88E0189FE0011124CE5FDE4FD7
:104790008EE0E80EF11C69812296C6010E94112369
:1047A000560182E0A80EB11CFE0132976081C6015D
:1047B00001960E9411236501AE14BF0461F71F5FCB
:1047C000C5CFDF91CF911F910F91FF90EF90DF90B8
:1047D000CF90BF90AF9008958F929F92AF92BF926B
:1047E000CF92DF92EF92FF92CF936FEF70E089E06C
:1047F0000E948F178BEA94E00197F1F78EE00E94F8
:10480000A71A7C018AE00E94FC169091C6029817B4
:1048100029F091E090930F038093C60280910101EB
:104820009FEF980F90930101811106C00E94D51A45
:1048300090931603809315036091BF077091C00792
:104840008091C1079091C2070E94B53A89E00E9409
:104850008F178090EF029090F002A090F102B0903C
:10486000F202B70190E080E00E943938A50194017E
:104870000E94D1392DEC3CEC4CE45DE30E949A3867
:10488000A50194010E94D2396093EF027093F00267
:104890008093F1029093F2020E94B61E60911C0375
:1048A00070911D0390E080E00E9439384B015C015B
:1048B000C090BB07D090BC07E090BD07F090BE074A
:1048C000A70196010E943438811151C020910B0339
:1048D00030910C0340910D0350910E03C501B401BA
:1048E0000E94D1394B015C0120E030E0A9010E9417
:1048F0002A3B181694F520E030E040EA50E4C50168
:10490000B4010E942A3B181694F160911C03709127
:104910001D0390E080E00E943938A70196010E94B3
:10492000D1394B015C0120E030E0A9010E942A3B13
:10493000181664F520E030E040E85FE3C501B401FB
:104940000E943438181664F1C701B6010E94BC3ABF
:1049500070931D0360931C0323C020E030E040EA05
:1049600050ECC501B4010E94343887FFCECF60916E
:104970000B0370910C0380910D0390910E030E9424
:10498000BC3A70931D0360931C03BFCF20E030E05E
:1049900040E85FEBC501B4010E942A3B87FFD4CFFA
:1049A0006091090370910A0390E080E00E94393819
:1049B00020910B0330910C0340910D0350910E0395
:1049C0000E94D1396B017C0120E030E0A9010E94F6
:1049D0002A3B18160CF05EC0C701B6010E94BC3A13
:1049E0006530710508F05AC080917F01811105C0C2
:1049F00080914C0181110E94AB1B81E080937F016B
:104A000010924C0180911C0390911D03853F21E081
:104A1000920710F01092000120910001211141C075
:104A2000843F9140F0F56FEF70E089E00E948F17AE
:104A30000E94AB1BC1E0C09300010E9444220E946F
:104A40002523C0930F038EE00E94A71ABC0190E0BB
:104A500080E00E9439386093EF027093F0028093F7
:104A6000F1029093F2021092010320910903309118
:104A70000A034AE050E060E971E086E990E0CF91F6
:104A8000FF90EF90DF90CF90BF90AF909F908F906E
:104A90000C948C1BC701B6019058A0CF10927F01D7
:104AA000B1CFCF91FF90EF90DF90CF90BF90AF90BC
:104AB0009F908F9008950C9458394F925F926F9207
:104AC0007F928F929F92AF92BF92CF92DF92EF929E
:104AD000FF920F931F93CF93DF93CDB7DEB72B9742
:104AE0000FB6F894DEBF0FBECDBF90911703E82F2D
:104AF000F0E09F01220F331F911126C0F901E45D00
:104B0000FD4F40815181EE24E39400E124E260E313
:104B100070E080E390E00E94EE132B960FB6F894BD
:104B2000DEBF0FBECDBFDF91CF911F910F91FF90E0
:104B3000EF90DF90CF90BF90AF909F908F907F903D
:104B40006F905F904F900895923009F079C0E45FC4
:104B5000F24E4490F901E252FE4FA080B180F12C58
:104B6000E12C04E310E393E0592E27E0622EE414D5
:104B7000A0F6F501EE0DFF1D449180E1840F833016
:104B800008F45CC081EF7816D1F082EF7816C1F19D
:104B9000403F90F4193710F0085F10E088E0489F1C
:104BA000A001112444575A4E602F70E028E0812F55
:104BB00090E00E944E15185F80EF782E1DC04E3990
:104BC000D8F41D3710F0085F10E0C02ED12C812ED4
:104BD000912C459DA00111244E545C4E23E0B6015A
:104BE000C4010E944E1521E041EB53E1B601C4011E
:104BF00003960E944E151C5F8FEFE81AF80AB7CF94
:104C00004132D0F7193710F0085F10E0C02ED12CD8
:104C1000812E912C469DA001112446535D4E27E024
:104C2000B601C4010E944E1521E041EB53E1B601EB
:104C3000C40107960E944E15185FDECF742EDCCF9C
:104C400080E390E09093100880930F0884E390E055
:104C5000909312088093110881E080931508F90160
:104C6000ED5CF24E65917491CE0101960E942D3853
:104C7000CE0101960E94611F50CF2F923F924F921A
:104C80005F926F927F928F929F92AF92BF92CF92DC
:104C9000DF92EF92FF920F931F93CF93DF9300D099
:104CA0001F92CDB7DEB7898386E00E94FC1621E013
:104CB000892B09F020E02093F7025AE0252E312CB1
:104CC0000E943B150091020310910303159507956F
:104CD00026E02093150831E0309314081092130851
:104CE0006091D9027091DA02072E000C880B990BA3
:104CF0000E943B384B015C0143EDC42E42E0D42EB0
:104D0000760182E090E09B838A83EA81FB81BF0188
:104D1000FF0F880B990B0E943B389B01AC0160E0B0
:104D200070E080E291E40E942F3B9B01AC01C50141
:104D3000B4010E94433A0E94B53ACB01B1010E94EE
:104D4000E53CF701819391937F012A813B812150BA
:104D500031093B832A832F3F3F4FB9F61093DA0284
:104D60000093D902E7ECF2E0FB83EA8394E0E92EBA
:104D7000F12C22E0822E912CB401092C000C880B1E
:104D8000990B0E943B389B01AC0160E070E080E22F
:104D900091E40E942F3B2B013C016091D90270915C
:104DA000DA02072E000C880B990B0E943B38A301F6
:104DB00092010E94433A0E94B53ACB01B1010E9490
:104DC000E53CF60120813181821B930BF2E3F89FD1
:104DD000B001F99F700D1124072E000C880B990B60
:104DE0000E943B38EA81FB812081318142815381DD
:104DF0000E94D2392B013C0120E030E0A9010E9441
:104E0000343881119BC0EA81FB81408251826282E9
:104E1000738201E022E346E270E060E0C70104979C
:104E20000E94CC138EECA82EBB24BA940FEF1FEF78
:104E3000EA81FB81208131814281538160E070E011
:104E400080E890E40E94D1392B013C01B5010B2C84
:104E5000000C880B990B0E943B389B01AC01C301ED
:104E6000B2010E94D2390E94B53AF0921008E09245
:104E70000F087093120860931108F60180819181E8
:104E8000800F911F0E94B21F0F5F1F4FF2E3AF0E02
:104E9000B11C0230110561F62A813B812C5F3F4F26
:104EA0003B832A8331E0831A910882E0C80ED11C2B
:104EB0009CE2E90EF11CE8E8EE16F10409F05CCF83
:104EC00000E022E040E870E060E090E080E00E94D6
:104ED000CC1320E140E860E370E090E080E00E94C5
:104EE000CC1389810E945D250E946B180E94EB1AE9
:104EF00086E00E94FC16892B09F0E2CE8091F70231
:104F00008111DECE0E94AB1B8091D9029091DA0212
:104F10000F900F900F90DF91CF911F910F91FF9005
:104F2000EF90DF90CF90BF90AF909F908F907F9049
:104F30006F905F904F903F902F900895C301B20102
:104F400090582DEC3CEC4CE45FE30E949A38A301AE
:104F500092010E94D239EA81FB816083718382834E
:104F6000938357CF9C0144E650E064E873E090E0FF
:104F700080E00E948C1B88E00E943D26BC01665A9E
:104F80007F4F9C014AE050E00E948C1B88E00E9409
:104F90003D26BC01675F7F4F9C0141E050E00E94CD
:104FA0008C1B88E00C943D262F923F924F925F928B
:104FB0006F927F928F929F92AF92BF92CF92DF9229
:104FC000EF92FF920F931F93CF93DF93D82E282F4A
:104FD00030E0E091F802F0E0EC57FE4F6081615064
:104FE000770B41E050E090E080E00E948C1B86E06F
:104FF0000E94FC1621E0892B09F020E02093F702A3
:105000001092140881E08093130838E3632EE09037
:105010000203F0900303F594E794AE2C8701112767
:1050200098012D193109629EC001639E900D1124D3
:10503000C80FD91F209709F1662777276C1B7D0BB6
:10504000072E000C880B990B0E943B382AE939E99E
:1050500049E15FE30E949A381B012C01BE01DD0F7C
:10506000880B990B0E943B389B01AC01C201B10136
:105070000E94D2390E94B53AEB010E943B150250C2
:1050800011094E0185E0B82E93E0792E7A0CC0907C
:10509000F802D12C17FD20C0F601EC57FE4F80819D
:1050A00080171106C9F0C4F0E4E8F1E070E060E0B8
:1050B000CF01845891408C159D0534F48191680F7F
:1050C000711DF6CFDE2CA3CF872D8B19680FC4017D
:1050D000885491090E94FD1ABA940F5F1F4F88E30C
:1050E000880E911CB110D3CFE4E8F1E090E080E0AD
:1050F0009F01245831402C153D0524F42191820F45
:10510000911DF6CF8E0D0E945D250E946B180E94A6
:10511000EB1A86E00E94FC16892BA1F68091F7021B
:105120008111D0CF0E94AB1B8A2DDF91CF911F91AF
:105130000F91FF90EF90DF90CF90BF90AF909F9036
:105140008F907F906F905F904F903F902F90089539
:105150001F920F920FB60F9211242F933F934F93EC
:105160005F936F937F938F939F93AF93BF93EF93CF
:10517000FF938EE197E00E944416FF91EF91BF915B
:10518000AF919F918F917F916F915F914F913F91DF
:105190002F910F900FBE0F901F9018951F920F9296
:1051A0000FB60F9211242F938F939F93EF93FF933A
:1051B000E0912E07F0912F078081E0913407F09164
:1051C000350782FD1BC09081809137078F5F8F73F9
:1051D00020913807821741F0E0913707F0E0E25E56
:1051E000F84F958F80933707FF91EF919F918F91A3
:1051F0002F910F900FBE0F901F9018958081F4CFC4
:105200001F920F920FB60F9211242F933F938F93FB
:105210009F93AF93BF938091E2029091E302A0919C
:10522000E402B091E5023091E10223E0230F2D3733
:1052300058F50196A11DB11D2093E1028093E20271
:105240009093E302A093E402B093E5028091E6021A
:105250009091E702A091E802B091E9020196A11DA8
:10526000B11D8093E6029093E702A093E802B09309
:10527000E902BF91AF919F918F913F912F910F9034
:105280000FBE0F901F90189526E8230F0296A11DC0
:10529000B11DD2CF1F920F920FB60F9211242F93F0
:1052A0003F934F935F936F937F938F939F93EF936E
:1052B000FF9383B1817029B19091EC02981709F4A2
:1052C0009DC030E0220F232F221F330B922F80939B
:1052D000EC024091EB02241709F490C02093EB02FA
:1052E0002091DF023091E002981719F03195219555
:1052F000310940910203509103036091DD027091E6
:10530000DE02240F351F261737070CF48BC02091BF
:10531000DF023091E002981719F03195219531099B
:1053200040910203509103036091DB027091DC0213
:10533000240F351F621773070CF46FC04091DF0212
:105340005091E002981719F051954195510920911B
:10535000020330910303240F351F3093030320937E
:10536000020341E0981340E02091EA02421709F459
:1053700040C02091DF023091E002981719F031957A
:10538000219531096091020370910303E091DD02E0
:10539000F091DE02260F371F2E173F070CF44CC08A
:1053A0002091DF023091E002981719F03195219594
:1053B00031096091020370910303E091DB02F091E7
:1053C000DC02260F371FE217F3078CF12091DF0272
:1053D0003091E002981719F03195219531098091AB
:1053E000020390910303820F931F90930303809312
:1053F00002034093EA0281E080930F03FF91EF9153
:105400009F918F917F916F915F914F913F912F91DC
:105410000F900FBE0F901F9018952091DB023091D6
:10542000DC029BCF2091DD023091DE0296CF80918D
:10543000DB029091DC02D9CF8091DD029091DE02F7
:10544000D4CF18950F931F93CF93DF93EEE1F7E03E
:105450001382128288EE93E0A0E0B0E0848395830B
:10546000A683B7838CE992E09183808385EC90E0FA
:105470009587848784EC90E09787868780EC90E01E
:10548000918B808B81EC90E0938B828B82EC90E00F
:10549000958B848B86EC90E0978B868B118E128E89
:1054A000138E148EE3E0F8E01382128216821782C4
:1054B00080E180871582148212868EEA92E09183C1
:1054C0008083158614861786168681E0808B118A64
:1054D000828B138AC7ECD7E02FEB37E03F8F2E8FFC
:1054E00023EC37E03D8F2C8F2BEB37E039A328A33B
:1054F0001AAE1AAA1BAA1CAA1DAA40E050E06FE728
:1055000073E44EAB5FAB68AF79AF44E650E060E068
:1055100070E04EA75FA768AB79AB21E030E0398F30
:10552000288F3B8F2A8F8BAF80E090E0A0E3B1E41F
:1055300088839983AA83BB8380E090E0A0E0BFE3E7
:105540008C839D83AE83BF8380E090E0A0E8BFE3BF
:1055500088879987AA87BB8780E090E0A0E3B1ECB9
:105560008C879D87AE87BF878DEC9CECACE4BDEB50
:10557000888B998BAA8BBB8B80E090E0A0E2B1EC8A
:105580008C8B9D8BAE8BBF8B0E9443180EA51FA5E5
:1055900028A939A9601B710B820B930B6AA37BA30B
:1055A0008CA39DA3DF91CF911F910F910895CF936D
:1055B000DF93CDB7DEB7A5970FB6F894DEBF0FBE69
:1055C000CDBF789484B5826084BD84B5816084BD8C
:1055D00085B5826085BD85B5816085BD80916E0091
:1055E000816080936E0010928100809181008260C2
:1055F00080938100809181008160809381008091FF
:1056000080008160809380008091B10084608093ED
:10561000B1008091B00081608093B00080917A00E9
:10562000846080937A0080917A00826080937A000F
:1056300080917A00816080937A0080917A008068FE
:1056400080937A001092C1001092B90088E4809390
:10565000B8000E94611880E00E9457180AEE12E21A
:10566000F80184910E9457180F5F1F4FF3E2093031
:105670001F07B1F70E944F1811E01093B8000E9465
:105680006B1881E280930B0860E08EE00E94531754
:1056900060E08FE00E94531761E085E00E9453179D
:1056A00061E089E00E94531762E087E00E9453178F
:1056B00062E088E00E94531762E086E00E94531780
:1056C00062E08AE00E9453176FEF70E089E00E9469
:1056D0008F1760E085E00E94251780917A0087602F
:1056E00080937A0080917A00886080937A00789421
:1056F00010936B00109368001BBB90E080E00E9449
:105700005B25182F81E090E00E945B25912F8F315F
:10571000984009F0D3C082E090E00E945B25182FEA
:1057200083E090E00E945B25912F90934701809346
:10573000460184E090E00E945B25182F85E090E010
:105740000E945B25912F909345018093440186E050
:1057500090E00E945B258093430187E090E00E94E7
:105760005B2580934B0188E090E00E945B2580934D
:105770004A0189E090E00E945B25809349018AE01C
:1057800090E00E945B2580937E018BE090E00E9478
:105790005B2591E0811101C090E0909348018CE07D
:1057A00090E00E945B2591E0811101C090E0909310
:1057B0004D018DE090E00E945B25809318038EE000
:1057C00090E00E945B25282E809342018FE090E0BC
:1057D0000E945B258093170380E190E00E945B2587
:1057E00091E0811101C090E09093F30281E190E09B
:1057F0000E945B258093140382E190E00E945B2568
:10580000182F83E190E00E945B25912F9093F60280
:105810008093F50284E190E00E945B2591E0811184
:1058200001C090E09093F40252E0852E51E0952E55
:105830006EE4A62E61E0B62E75E1E72EF12C312C38
:10584000231409F447C010E000E0C701800F911F46
:105850000E945B25F501E00FF11F80830F5F1F4F52
:105860000630110591F7670136E0C30ED11C4EE0FA
:10587000E40EF11C3401C6010E945B25082F10E0E4
:10588000102F0027F301118300832601F2E04F0E51
:10589000511CC60101960E945B25082BF301019360
:1058A00011933F0162014E145F0429F73394F8E02D
:1058B0008F0E911C26E0A20EB11CC2CF68E090E0D2
:1058C00080E00E9411236FE181E090E00E941123AB
:1058D0000E9425231091F30280EC111101C088EC85
:1058E0000E94881880EA111101C081EA0E9488187C
:1058F0001092100380E28093110380E480931203DE
:1059000080E6809313038091F5029091F602892B33
:1059100019F10E943B1568E088E290E00E94FD1AB0
:1059200088E00E945D250E946B1868EE73E080E0BD
:1059300090E00E9411180E94AB1B0E94AB1B0E94BA
:10594000AB1B90E080E00E94B2272091F5023091DD
:10595000F60282179307E9F60E942D1A9093EE0241
:105960008093ED020E94D51A90931603809315033D
:10597000009146011091470110930A030093090317
:105980008EE00E94A71ABC0190E080E00E943938A6
:105990006093EF027093F0028093F1029093F20211
:1059A0000E94691A0E94B61E20E030E040EA51E4ED
:1059B00060910B0370910C0380910D0390910E0385
:1059C0000E94D2396B017C01B80190E080E00E9416
:1059D00039389B01AC01C701B6010E94343887FFFA
:1059E00005C070E060E089E00E948F171092F9070F
:1059F0001092FA071092FB071092FC07412C512CD1
:105A00003FE7632E33E4732E4092FD075092FE076A
:105A10006092FF0770920008A090E507B090E6073B
:105A200080910108F501C080D180E280F380882355
:105A300011F40C943337A3019201C701B6010E94FF
:105A40002A3B181634F5F501408251826282738236
:105A50008090ED079090EE07A090EF07B090F007D0
:105A6000C090FD07D090FE07E090FF07F09000087F
:105A7000A7019601C501B4010E942A3B1816C4F47F
:105A8000C092ED07D092EE07E092EF07F092F00798
:105A90001FC020E030E0A901C701B6010E943438E0
:105AA00087FFD6CFF5011082118212821382D0CFE8
:105AB000C090F907D090FA07E090FB07F090FC0740
:105AC000A7019601C501B4010E94343887FDD8CFE3
:105AD00081E08093010883B181708093EC0289B1E9
