:100000000C94EE110C9416120C9416120C944727B3
:100010000C9416120C9416120C9416120C941612C0
:100020000C9416120C9416120C9416120C941612B0
:100030000C9416120C9416120C9416120C941612A0
:100040000C94FD260C9416120C94CB260C94A52629
:100050000C9416120C941E280C9416120C94161262
:100060000C9416120C94161207634236B79BD8A74D
:100070001A39685618AEBAAB558C1D3CB7CC5763CD
:10008000BD6DEDFD753EF6177231BF000000803F7B
:1000900008000000BE922449123EABAAAA2ABECD97
:1000A000CCCC4C3E00000080BEABAAAAAA3E000009
:1000B0000000BF000000803F000000000008417801
:1000C000D3BB4387D1133D190E3CC3BD4282AD2B38
:1000D0003E68EC8276BED98FE1A93E4C80EFFFBE30
:1000E00001C4FF7F3F0000000000536176650046B9
:1000F0006C6970004D61696E2053637265656E00B6
:100100004A5000454E00434E00594553004E4F00A3
:100110004F4E004F464600496E666F730042696756
:100120000050494400446972656374005361766508
:1001300000426F6F7374004F666600536C656570A4
:10014000005361766500426F6F737400536C656590
:10015000700044656661756C74005361766500419A
:1001600064640044656C6574650052656E616D651C
:100170000043616C696272617465004368616E6717
:10018000650052657475726E0041626F7574004C43
:10019000616E67004C4F5720566F6C0042757A7A3B
:1001A00065720053637265656E00436F6E74726FA3
:1001B0006C0054696D65720054656D70005469700F
:1001C00000F21415F0CADFB8CCF0D699E8AEA4DF7F
:1001D000EEE8F21D1E08F21C08F21A1B08F0714628
:1001E00001F046464A01F219F051F218F05A8DF02A
:1001F000C0DAEEAEF0C8B8A5F1302924F0B599E127
:10020000A4BDF21415F0CBEEAEBDF218F05A8DF28B
:100210001617F21415F0CBEEAEBDF21617F0BCCAED
:100220009EE0BDF21415F21213F21011F20C0DF053
:1002300094F20E0FF0A2D8DFCBE1EEACDCE8F20ACC
:10024000F08CF20BF04A8DF209F08DF097C59BBD52
:10025000F20708F2040506F097DEEED5F0CBABEE20
:10026000F0AEA4DFEEE8F0A8E8BDE2EEE0F0B4996D
:10027000D3EEF200010203F0CCDFB0B8BD00000005
:1002800000000F1DC20800054442080003845FBF40
:10029000000FE44410000115451000054CC97F8093
:1002A00009244F900007C4C11000054D413F0005CF
:1002B0005443810007C44D02000544411400055514
:1002C00041080007C8810400000000000000000091
:1002D000000001083FFE001FFF81000000400200F7
:1002E0000007FE0FF8000402080800040208880056
:1002F00007FE088800040208880004020888000736
:10030000FE0888000402094800040202300007FECB
:10031000040C0004021804000000000000000000AB
:10032000000007FE13FE000402084000040208401B
:1003300000040201FC000402388400040208840066
:1003400007FE0FFF000402080000040209FE00047B
:100350000209020004020B020004020D020007FE63
:1003600009FE00040201020000000000000000007D
:10037000000001100080001FFF80800001103FFF7F
:1003800000004004080007FC0408000444041000B6
:10039000044402100004440220001FFF81200000DA
:1003A0004000C00000A00130000110020800060C4F
:1003B0000C07001803B0020000000000000000005D
:1003C0000000004000800000400080000FFF3FFF61
:1003D0000008410408000841040800084104100016
:1003E00008410210000FFF02200008410120000018
:1003F0004000C00000400130000040020800004002
:100400000C07000040300200000000000000000067
:1004100000001FDF10200002120C20000224042024
:1004200000047F8020000424B820000FA48850001E
:1004300014BF88500004A488500004A48848000415
:10044000BF88880004A48A880007A48C8400044420
:100450008907000081860200000000000000000003
:1004600000000FF00491000440025200047F9054F9
:1004700000045088FF0007D08481000451008100EF
:10048000044901FF0007CA028100044404810004FA
:100490004A1CFF0007EA0481000C5104810000613E
:1004A000C4850000408082000000000000000000C1
:1004B000000007FF802000008407FF000084040183
:1004C00000008404010000840401000FFFC7FF0046
:1004D00000840400000084040000008405FF000084
:1004E000840501000104090100010409010002045E
:1004F00011FF0004040101000000000000000000E2
:100500000000008204FF00004402010007FF902168
:10051000000010102100001017FD00001010210035
:100520000FFFD06100001010A10000281121000071
:10053000281221000044142100008210A1000301B0
:10054000D045000C009002000000000000000000F8
:100550000000084410FE00042810920005FF2292BB
:100560000000103C920000100892001CFE10920047
:10057000041020FE0004103E920005FF809200044B
:100580001000920005100E92000610309200041028
:1005900000FE0000100082000000000000000000CB
:1005A000000007DF8840000A24104000114210FEBE
:1005B00000040022820002FF3D020008010A4200FE
:1005C00009F9103200090920120009F93E02000958
:1005D0000900020009090E020009F930220008058D
:1005E00000140008020008000000000000000000E5
:1005F00000000FC3F1E0000FE3F1F8000C70C19EA2
:10060000000C30C186000C30C183000C30C1830067
:100610000C60C183000C60C183000FC0C183000F58
:10062000C0C186000C00C186000C00C198000C03FC
:10063000F1F8000C03F1E0000000000000000000F1
:10064000000000200820000FFF09FC000020080027
:100650000000203E880003FE08500002020BFE004E
:1006600003FE0C4000020218400003FE2BFE0002B5
:100670000208480003FE0888000202085000020237
:100680002830001FFF91CC0000000000000104048E
:100690007C0000880444000FFF3F44000020044415
:1006A0000000200C440000200E44001FFF95440071
:1006B0000020144400005024440000500444000072
:1006C0008804450001040485000603850300180121
:1006D0000400000000000000000000000000000016
:1006E0000000047E21FC0004421104001F7E090466
:1006F00000044221FC000542110400067E110400A2
:100700000C0005FC0015FF880000040813FE00041F
:1007100048325200044F125200044812520014A8EA
:10072000125200091F97FF000000000000000000A7
:10073000000002103DFC00021025040004102504F6
:100740000005FFBDFC000C102520000C3825200002
:10075000143825FE0004543D2000045425100004E4
:10076000922510000511A5090006113D4500041051
:1007700025830004100101000000000000000000BB
:1007800000001FC8102000124A0C20001AC90420C3
:100790000017480020001FFFB82000020808500082
:1007A0001FC8085000020808500003C80848001E6F
:1007B0001408880001540A880015220C8400144390
:1007C0008907000081060200000000000002FE010F
:1007D000000002823FFF00048202000004FE0200CB
:1007E000000C1004FC00141004080005FF8C10001D
:1007F0000410141000043825FF0004340410000411
:1008000052041000049184100005100450000410DC
:1008100004200000000000000000000000000000B4
:10082000000002030010001FDC3EFE0008900212D0
:1008300000051004FF001FDF84120002120CFE00EE
:100840001FD2021000021222FE000A921410000AA7
:100850005214100012220DFF0002220810000A425A
:10086000141000040223FF0000000000000000003C
:1008700000000F78BC20000948A45000094AA85085
:1008800000094AA88800094AB104001FFEAAFB001B
:10089000094AA42000094AA42000094AA7FE000929
:1008A0004AB420000948A924000B48A22200088A63
:1008B000A4A2001119204000000000000000000068
:1008C00000000020008000005001FC0000880104AE
:1008D00000010403080006FB0490000800C060004B
:1008E00007DF018000045106000004511BFE0004D4
:1008F0005102020007D90202000456020200001051
:1009000003FE0000100202000000000000000000D2
:1009100000000208209000027F9890001F8009FFCD
:1009200000022201100006218B100007628DFE00DC
:100930000AA20910000A14111000121431FE00025C
:1009400008111000021411100002221110000243BD
:1009500091FF000281110000000000000000000073
:100960000000100700000008F83FFE00048020028D
:1009700000008020020000BE23E2001C8222220030
:1009800004A42222000494222200048822220004CB
:100990009423E200052220020005422002000A0002
:1009A0003FFE0011FFA00200000000000000000058
:1009B000000000820FFE00004400400007FF80405E
:1009C000000010004000001000400000101FFF80D9
:1009D0000FFFC04000001000400000280040000051
:1009E0002800400000440040000082004000030155
:1009F000C140000C00808000000000000009FF00E2
:100A0000400004203FFF00042000000000FE000022
:100A1000001C420FFC00044200000007FF800000A1
:100A200004000FFC0004FF0000000481000000052A
:100A3000810FFC00068108040004FF080400008107
:100A40000FFC00000000000000000000000000009B
:100A5000000001000FFE00010008200003FF082035
:100A6000000201082000042208200008200BFE00DC
:100A70001020082000005008280000500824000022
:100A800088082200008810200001041020000203C2
:100A9000A7FF000C010000000000000000000000A3
:100AA000000000400080001FFF9FFC000040041079
:100AB000000FFF02200000003FFF000FFE000000BB
:100AC00008420FF80008420808000FFE0808000856
:100AD000020FF800080008080008000808000800D5
:100AE0000FF80010000808000000000000000000DF
:100AF000000007FE0FF800040200000004020000DE
:100B00000007FE00000004023FFE00040200800017
:100B100007FE008000009004900008910C880006F9
:100B200093108600029420820000900080000090C4
:100B30000280001FFF810000000000000000000094
:100B40000000041012020005FF9FD200050092125F
:100B5000001E28A2120004443FF200048202120088
:100B600006000212000CFE1FD200141012520004E4
:100B7000101242000410134200041012820015FFEC
:100B8000820A0008000204000000000000000000CB
:100B90000000002000000000203E04001FFFA2040F
:100BA000001000A2FF0000012204000FFE2204003A
:100BB00000403E440000402224000440222400045F
:100BC0007C22040004402204000A403E0400094044
:100BD00022240010FF801400000000080000000024
:100BE000000010FE08200008820BFF0004820A01AA
:100BF0000010FE3C510008820888000882090400A9
:100C000002FE0C0000040019FC0009FF2820001956
:100C1000290820000929082000092908200009299D
:100C20002BFF000BFF900000000000000000000000
:100C300000001F7F90F80001080888000A1008884B
:100C400000047F0107001FC13A0000054909FC00AC
:100C5000044908840004490888000449084800043D
:100C60004908500004490A200004160C58001421B9
:100C700089870008C0860200000000000080040090
:100C8000003FF0383033103F9038103390279026D3
:100C90001030903FF000008004800400003FF03DE1
:100CA000F020103BF03B7030302B502AD031B03F59
:100CB000F000008004800400003FF03870303023E2
:100CC00010279020102010279027903FF0000080E0
:100CD00004800400003FF03CF03CF02010249024FD
:100CE0009020103CF03CF03FF000008004800400B5
:100CF000003FF037B0231030303870387030302378
:100D00001037B03FF000008004FCF4F860E044C00D
:100D10008CC11CC22CC44CC88CD10CA204C4048F3E
:100D2000FC187CBCFC8000BFF81FF8B0281FF8B48A
:100D3000081FF8B1081FF8B048BFF8B288BFF880A4
:100D4000008000BFF81FF8B0081808B9E819B8B853
:100D5000381838B9B8B9F8B0F8BFF8800015543F62
:100D6000F815503FF01550387010203104138C22C4
:100D7000A817FC2AA80000000015543FFC15543F9A
:100D8000FC15543C0414043CFC14543CFC0054007A
:100D9000A800000000800400003FF03CF034B024C4
:100DA00090249027902310303038703FF00000805E
:100DB00004FF7CFE7CFCECE8DCC84C984C882408E2
:100DC0002000000000000000008004E01CF3FCE7AD
:100DD000FCCE0C8E1C9F9C1F3C1F0C0E0C0FFC8726
:100DE000F881E4C00CE01CF87C000458085808584E
:100DF0000840087FF860185FE85B685FE85B681C84
:100E0000E85FE80000800400003FF03CF03CF03C6C
:100E1000F0201020103CF03CF03CF03FF00000804F
:100E200004F87CF7BC00007FF80000BFF4AB54ABC3
:100E300054AB54AB54AB54AB54BFF4C00CF03CCEE9
:100E40000CBF04B30473007F007E007C007C007C38
:100E500060BC64BE04CF0CF03C81DC559C29045579
:100E600000299055D003FCFF002E0026700250820E
:100E700070E600EE04800C001C3FF43FE03FC437F6
:100E80008C2318303038703CF03FF03FF000008089
:100E900004058074B857A876B80580F97C4694AAF2
:100EA000A8F97C068874A8578C75740698F03CCE17
:100EB0004CBC34B814188010804230607860F8441C
:100EC000C08004B884CFCCF03CF87CE01CC00CCFD0
:100ED000CCCFCCCFCCCFCCCFCCCFCCCFCCC84CCFC1
:100EE000CCC00CE01CFCFCF87CE01CC00CC00CC0AE
:100EF0000CC00CC00CC00C80048004FFFCF87CFC0F
:100F0000FC800400002000100008001000270000F2
:100F100000000000000000000000008004C3FC1876
:100F2000001800C3FCFFFCFF0C00600060FF0CFF1A
:100F3000FCF0FC06000600F0FC8FC4102020104CD2
:100F4000C89FE43DF03DF01DE03EF03F709FE48C13
:100F5000C400003030F87CF33CF4BCF6BCF4BCF6C2
:100F6000BCF4BCE49CC84CD02CD02CC84CE79CF002
:100F70003C88240820383038303830383038303821
:100F80003039303BB03FF03FF0000080041FE03FBD
:100F9000F07038601860186018FFFCFCFCFCFCFC6A
:100FA000FCF87CF87CFCFC7FF81E1033382D7C2587
:100FB000382D3825382D386D80DEC0BF40BF40DE6B
:100FC000C061803F007FF0FFE0C008C01CC038C88F
:100FD00070DCE4CFCCC78CC30CC00CC00CFFFC7F12
:100FE000F8000006000C0018F838F030307060701F
:100FF0007878F878003C023F0C1FF80FF003C0002F
:10100000007FF8FFFCC00CC30CCB4CDB6CDB6CD856
:101010006CDCECCFCCC78CC00CFFFC7FF803000766
:10102000800FC00CC01CE01CE03CF03CF07FF87F5F
:10103000F8FCFCFCFCFFFC7FF81140820021208FB3
:10104000E023FC82004A23E200FE209FF013F88098
:10105000802220C0804221BFF0FBFA8880022084D9
:1010600080022084801A208080E3FE8280020101B9
:10107000000F421FC0784110400840904008421FB6
:10108000C008411040FFFD104008405FC00840808C
:101090000008413FE008432520104125201041254C
:1010A000202041252040417FF07FF8488002004900
:1010B000000201FFF00201001002027F2022004125
:1010C0000023F07F00220008002200FF8022008819
:1010D000802200888022008A8022008900FFFC088C
:1010E0000023F21FC022111040FBF0904022121F7B
:1010F000C02A11104033F1104060005FC0AFFC8087
:101100000020413FE022432520227925202241254D
:1011100020A541252048FD7FF01083DFC0108250BC
:1011200040208250402FFFDFC06082520061C252D7
:1011300000A1C25FE022A3D20022A251002492515A
:1011400000288E5090308BD4502082583020801050
:1011500010104047C017FC44402003F44023F844DB
:10116000406208C440A3F8E440200154402FFD44ED
:10117000402806444023F844402040445020404842
:1011800050214050302080400020921FC03DF990F7
:10119000402090904040901FC07BFF0000A0013F86
:1011A000E021F90200FD09020021097FF021F90583
:1011B00000210945002909888031F9107021082093
:1011C0002025004300202070F87540775575774042
:1011D000403E4A5E2B5E4A6B627F352F357F7C5BDB
:1011E0005E247B0E3A047E017E4A5E69063A2F3FFA
:1011F0006B7E46403F41497F494102626B6B6B62A7
:10120000026A6B147D577D10413F55553D57512162
:101210003F2D7F2A122E0A775A505A770A2024131C
:101220007D5553707A2A7B021A437A4A525E2B5EAE
:10123000424A415F353F555F417D14577D0E407FE7
:101240007F1B54167D1654493A407E575676423FCE
:10125000427E7E427E047E51377D3750127A17528D
:10126000761E127F557F145D7F557F557F7F553DDC
:10127000577F55377817457F7F2B7B287B2B7F1E29
:1012800012127F12121E7F416B7F6B517F525A5791
:101290003A575A52007F494949497F22122A7F2AE8
:1012A000122200000000002F000300033F123F162F
:1012B0003F1A120824323D2A020100003E41413EFD
:1012C000000A070A083E084020000808080020001D
:1012D0001008041C2A1C243E20322A24222A141816
:1012E000143E2E2A121C2A12023A06142A14242A08
:1012F0001C00240040240008142214141422140892
:1013000002290612291E3E093E3F251A1E21213FB1
:10131000211E3F25213F05011E21393F083F213F66
:101320002110201F3F043B3F20203F063F3F013E4E
:101330001E211E3F09061E215E3F09362225190186
:101340003F013F203F3F100F3F183F330C33033C1A
:1013500003312D23007F41153E15417F000201021C
:1013600040404000010218243C3F2418182424184F
:10137000243F182C2C043F0548543C3F0438003DC2
:1013800000403D003F0834013F003C1C383C04381D
:101390001824187C241818247C3C0804283C1404C5
:1013A0003E243C203C3C100C3C303C2418244C5047
:1013B0003C24342C083641007F00413608010101ED
:1013C0001028101F010120203E10200000080025D9
:1013D000150F241C0C103804180C3828382828182D
:1013E0003C083C18283820242C3C2C2C1C040808D1
:1013F000211D07083C0306231E223E22120A3F320B
:101400000F3E0A3F0A24130E271E0222223E2712F5
:101410000F2525102119273F222E21160F241B0EE0
:10142000251F0526261E251D053F0408241F042010
:101430002222251927123B1620100F3C013E1F24A3
:101440002421110F0C031C1A3F1A091927222A2ADA
:10145000382730320C13053F25023F0E213F20254F
:10146000253F25251D07201F3C3F203F20103E2201
:101470003E23110F21211801000102050200000086
:10148000000000000020400000000000002050206C
:10149000000000000050300000000000006060000C
:1014A00000000000000000181800000000000036D6
:1014B0003600000000000056360000000000020167
:1014C00051090906000000005F0000000000000054
:1014D000007F41410041417F00000000000000000A
:1014E0003F010101004040407E0000000000003F3D
:1014F000213D05070070505E427E000000000000A4
:10150000007F63410041637F00000000000808087D
:101510007F08080800080808080808080044444430
:101520005F44444400412214081422410008080882
:101530002A08080800141414141414140014341481
:101540001C14161400080814141422220022221459
:1015500014140808000205023C42422400002B2C0F
:10156000782C2B000000242A7A2F2A1200001C62FB
:10157000322E23140020545E2541422000422512C1
:10158000082452210020623E633E23020020564977
:1015900055225840000022147F142200001C2259BA
:1015A000554D120C0000004A555529000004643CBA
:1015B000173C64040004643C1F3C6404001C22418A
:1015C0004141221C001C3E7F7F7F3E1C001C225D8F
:1015D000555D221C000814224122140800081C3EFC
:1015E0007F3E1C08007F41414141417F007F7F7F5A
:1015F0007F7F7F7F0040704C434C70400040707C88
:101600007F7C704000010719611907010001071F65
:101610007F1F0701004922144914224900050505CE
:101620007D05050500080808082A1C0800081C2A72
:1016300008080808000004027F02040000001020CF
:101640007F20100000003E414141413E0000004229
:101650007F4000000000625151494946000022418C
:10166000494949360000302824227F2000002F45B8
:101670004545453900003E494949493200000101CC
:1016800061190503000036494949493600002649D9
:101690004949493E000020547E3414600020527FA6
:1016A0002A1A4A3000003C4020041800001E204046
:1016B000200204180000104A4A2A100000000845C1
:1016C000454525180000482A3A4A400000004425B4
:1016D000153D45400000247E145024000022527F16
:1016E0000A484A340044344F443804180044344F04
:1016F0004439041900002A5A4B4E5A0800002A5A4D
:101700004B4E5B080000081414224100000008142E
:1017100014224504003F0004443F0404003F000439
:10172000443F040500002052424242400000205243
:10173000424342410000245444475C0400002454C6
:1017400044475C050000003F404040200000003F4F
:10175000404140210002020A563F02020002020AF2
:10176000563F02030004043F44545F440004043F16
:1017700044545F45000008093D4B49080000080932
:101780003D4B490A00423A072254444400423A077A
:1017900022554445000002124E4B4A32000002120C
:1017A0004E4B4A3300001010484830000004040239
:1017B0002222221C000404022223221D0000020215
:1017C0001A254341000002021A2543450000205714
:1017D00048484444000020574849444500120A271D
:1017E00052503A24007F00205242424000304E388E
:1017F000540F64780024147F0422523C00182412F1
:101800004E422418007F002454543F44007F00249B
:1018100054543F45007F002454563D4600023A4749
:1018200040413E0400023A4740413E0500023A472B
:1018300040433D06004030404D3210600040304093
:101840004D321161004030404D32156200080402F3
:101850000408101000080402040910110008040212
:10186000040A1512007F006A6A7E2A4A007F006A15
:101870006A7F2A4B007F006A6A7E2D4A00006A6AEE
:101880006A7F2A4A0030291D4B483C1000122A7FEB
:101890004240422400304E38540F443800000A3E83
:1018A0004B4A4A300000080E384614080004071C52
:1018B00062030A0400001C483E241800001E045263
:1018C0003F12120C00002050503E480000002050F3
:1018D000503F244400001C51494A483000000F4248
:1018E00041211E00000010696D4B49300024147F17
:1018F00004023E40000010494D4B493000002818BA
:101900007E0844380024147F0442423C00304925BC
:101910001F245438004028255735284000100A2E2F
:101920005B724A480040300C3340402000000444C1
:101930003C140C00000001413D090503000020207B
:101940001078040000001010087C02010000184804
:101950004C281800000006424322120E00004048A6
:1019600078484000002022223E2222200000282821
:10197000587C0800002222124A7F02020000422204
:101980001F02427E000042221F02427F000012120C
:101990001F721210000012121F7213100000084470
:1019A0004322120E000008444322120F000807428F
:1019B000221E020200080742221F020300004242C8
:1019C0004242427E000042424243427F0002024FB6
:1019D00042221F020002024F42231E030000454A1A
:1019E0004020100C0000454A4021100D00404222CA
:1019F000221A264000404222221B26410004043FB6
:101A00004444544C0004043F4445544D00000146F6
:101A10004020100F000001464020110F0000084434
:101A20004B2A120E000008444B2A120F00080A4AE3
:101A30003E09090800080A4A3E0908090000184042
:101A40005820180000020C424C20100E00020C42DC
:101A50004C21100D000405453D0505040004054515
:101A60003D0504050000007F080810000000007F0D
:101A700008091001000444241F0404040020222249
:101A80002222222000404125151927000020221281
:101A90007B06122000404020100807000040300E56
:101AA00000020C700040300E00020D710040300E3C
:101AB00000020D7200003F484848444400003F487F
:101AC0004849444500003F48484A45460000024214
:101AD0004222120E000002424223120F0000024274
:101AE0004222150E00080402040810200008040217
:101AF0000409102100080402040A152200241444D9
:101B00007F041424002414447F0514250024144465
:101B10007F0615220002021222520A060000212529
:101B2000294A42000040704C435020400040442469
:101B300014083700000008093F4949480000101CFC
:101B4000680818000004040F74020A0600004048E8
:101B50004878400000202222223E2020000000443D
:101B600054547C000000424A4A4A4A7E0000044520
:101B70004525150C00000F4040201F000040201E8E
:101B8000007F20100000007F4020100800007E42EF
:101B90004242427E00000C4444241C0000000642E5
:101BA0004222120E0010121E12127F120020222258
:101BB0003A262220000001454525150F000041422C
:101BC0004020100C000006424322120F000048285B
:101BD0001C4878000000100C483808000008040475
:101BE0000810100800080000080000080004080899
:101BF00008080808000808080808080808BD01B80F
:101C000001B201AA01A3019C0194018F0189018203
:101C1000017B0171016A0163015F015A0152014CAC
:101C200001460141013B01370131012C0125012110
:101C3000011D011701130110010D01090106010326
:101C4000010001F400EF00EA00060505070604099B
:101C5000030504090A080303030603050303050536
:101C60000306040405050405040403040905033EF2
:101C70000053656C656374205469700000000000B7
:101C8000003E5B4F5B3E3E6B4F6B3E1C3E7C3E1C02
:101C9000183C7E3C181C577D571C1C5E7F5E1C0048
:101CA000183C1800FFE7C3E7FF0018241800FFE7FF
:101CB000DBE7FF30483A060E2629792926407F05C2
:101CC0000507407F05253F5A3CE73C5A7F3E1C1CD8
:101CD00008081C1C3E7F14227F22145F5F005F5F98
:101CE00006097F017F006689956A60606060609484
:101CF000A2FFA29408047E040810207E2010080889
:101D00002A1C08081C2A08081E101010100C1E0C93
:101D10001E0C30383E3830060E3E0E060000000025
:101D20000000005F00000007000700147F147F140C
:101D3000242A7F2A12231308646236495620500051
:101D400008070300001C2241000041221C002A1C3D
:101D50007F1C2A08083E0808008070300008080828
:101D60000808000060600020100804023E51494548
:101D70003E00427F400072494949462141494D3366
:101D80001814127F1027454545393C4A49493141CD
:101D9000211109073649494936464949291E00009B
:101DA00014000000403400000008142241141414F0
:101DB0001414004122140802015909063E415D59DC
:101DC0004E7C1211127C7F494949363E41414122E5
:101DD0007F4141413E7F494949417F090909013E0F
:101DE000414151737F0808087F00417F4100204036
:101DF000413F017F081422417F404040407F021C48
:101E0000027F7F0408107F3E4141413E7F0909095E
:101E1000063E4151215E7F0919294626494949322A
:101E200003017F01033F4040403F1F2040201F3FF0
:101E30004038403F63140814630304780403615975
:101E4000494D43007F4141410204081020004141B7
:101E5000417F040201020440404040400003070863
:101E60000020545478407F2844443838444444285F
:101E7000384444287F385454541800087E09021806
:101E8000A4A49C787F0804047800447D400020408E
:101E9000403D007F1028440000417F40007C0478D2
:101EA00004787C080404783844444438FC1824241A
:101EB0001818242418FC7C0804040848545454249A
:101EC00004043F44243C4040207C1C2040201C3C17
:101ED0004030403C44281028444C9090907C44640E
:101EE000544C4400083641000000770000004136A1
:101EF000080002010204023C2623263C1EA1A16127
:101F0000123A4040207A3854545559215555794158
:101F10002154547841215554784020545579400C2F
:101F20001E52721239555555593954545459395510
:101F30005454580000457C410002457D4200014553
:101F40007C40F0292429F0F0282528F07C545545C0
:101F5000002054547C547C0A097F49324949493253
:101F60003248484832324A4848303A4141217A3A68
:101F700042402078009DA0A07D39444444393D4032
:101F800040403D3C24FF2424487E4943662B2FFCDF
:101F90002F2BFF0929F620C0887E0903205454798D
:101FA000410000447D413048484A32384040227A5E
:101FB000007A0A0A727D0D19317D2629292F2826DB
:101FC0002929292630484D402038080808080808E3
:101FD0000808382F10C8ACBA2F102834FA00007B3C
:101FE000000008142A142222142A14089500220042
:101FF00095AA005500AAAA55AA55AA000000FF00FC
:10200000101010FF00141414FF001010FF00FF1038
:1020100010F010F0141414FC001414F700FF00006A
:10202000FF00FF1414F404FC141417101F10101FE9
:10203000101F1414141F00101010F0000000001FD7
:10204000101010101F10101010F010000000FF10E2
:102050001010101010101010FF10000000FF1400DE
:1020600000FF00FF00001F10170000FC04F4141410
:102070001710171414F404F40000FF00F7141414DC
:1020800014141414F700F7141414171410101F105C
:102090001F141414F4141010F010F000001F101F7F
:1020A0000000001F14000000FC140000F010F010ED
:1020B00010FF10FF141414FF141010101F00000064
:1020C00000F010FFFFFFFFFFF0F0F0F0F0FFFFFF68
:1020D0000000000000FFFF0F0F0F0F0F38444438BF
:1020E000447C2A2A3E147E02020606027E027E02FA
:1020F00063554941633844443C04407E201E200619
:10210000027E020299A5E7A5991C2A492A1C4C7255
:1021100001724C304A4D4D303048784830BC625ADC
:10212000463D3E494949007E0101017E2A2A2A2A6C
:102130002A44445F444440514A444040444A514048
:102140000000FF0103E080FF000008086B6B083609
:1021500012362436060F090F06000018180000007A
:102160001010003040FF0101001F01011E00191D69
:102170001712003C3C3C3C00000000000000000046
:10218000240027002A0000000000250028002B0062
:1021900000000000230026002900040404040404B5
:1021A0000404020202020202030303030303010206
:1021B00004081020408001020408102001020408D5
:1021C0001020AED5F0A83FD300408D14A1C8DA127C
:1021D00081CFD9F1DB40A4A6AF200021007F2200EF
:1021E00007506C65617365207761697400414443F1
:1021F0003A200074656D703A2000536574206D6557
:1022000061737572656400537465703A2000FFFF56
:10221000FFFFFFFF800386708003800386708003CA
:102220009FF3E1309FF39FF3E1309FF3983301CCAC
:102230009833983301CC9833983387C098339833C8
:10224000E1C098339833E1C098339FF398C09FF36F
:102250009FF398C09FF3800366CC8003800366CC15
:102260008003FFFF010CFFFFFFFF01001FFF810044
:1022700061301F3F873CE6FC8733873CE6FC87F3F1
:10228000F8039E0F1F03F8039E0F1F03E13CFE0C93
:1022900007CFE13CFE0C07CF99033E3086C3E6CF63
:1022A000380F9EF3E6CF380F9EF39E0327CC8103B1
:1022B0009E0327CC8103E0FFE10CE6CFE0FFE10CB9
:1022C000E6CF9803060000FF9803060000FFFFFF1B
:1022D0001EF0F8038003663099C38003663099C30B
:1022E0009FF3010CF8FF9FF3010CF8FF9833393C82
:1022F00001CF9833393C01CF9833FF0C793F9833A5
:102300003ECCE0F398333ECCE0F39FF33E0098CF11
:102310009FF33E0098CF80033E30E7C380033E30FA
:10232000E7C3FFFFFFFFFFFFFFFFFFFFFFFF3030AF
:10233000300076312E377434005600560043000FBB
:10234000E01FC01FC03F803FF87FF07FE007C0075D
:10235000800F000E001C001800100014A03FF07F3A
:10236000F8E01C6E18EC1C68186018E01C6058E05F
:102370001C7FF83FF014A04552524F5200484F4C7A
:1023800044004845415400574F524B5900424F4F6B
:10239000535400534C454550004F46460000003B07
:1023A000EC7BEE63E663E663E663E663E663E663BF
:1023B000666226600660067FFE3FFC0000010204A4
:1023C0000810204080000000080002010000030403
:1023D000070000000000000000001F2811241FBE9D
:1023E000CFEFD8E0DEBFCDBF12E0A0E0B1E0EAEE73
:1023F000FDE602C005900D92A83BB107D9F728E091
:10240000A8EBB2E001C01D92A130B207E1F711E1E3
:10241000CEEED1E104C02197FE010E94D436CD3E1C
:10242000D107C9F70E94D4280C94F3360C9400000D
:102430004F925F926F927F928F929F92AF92BF92D4
:10244000CF92DF92EF92FF920F931F93CF93DF9380
:1024500000D000D0CDB7DEB74B015C0129013A01B5
:102460006701780120E030E0A9010E94773287FD02
:10247000A6C020E030E0A901C301B2010E9477327A
:1024800087FD9DC020E030E0A901C801B6010E948F
:10249000773287FD94C081E02091CB073091CC0743
:1024A0002130310509F080E08093EC078092B1077C
:1024B0009092B207A092B307B092B4074092B507CA
:1024C0005092B6076092B7077092B807C092B907EA
:1024D000D092BA07E092BB07F092BC076091DF0789
:1024E0007091E0078091E1079091E2070E947C32B1
:1024F00020E030E04AE754E40E94793469837A832B
:102500008B839C838092BD079092BE07A092BF07E9
:10251000B092C0079B01AC01C301B2010E94DD3241
:102520002B013C014092C1075092C2076092C30741
:102530007092C40729813A814B815C81C701B60141
:102540000E9479346B017C01C092C507D092C60706
:10255000E092C707F092C8078091C9079091CA0717
:10256000019769F5A501940160E070E0CB010E943C
:102570000C346093BD077093BE078093BF079093A0
:10258000C007A301920160E070E0CB010E940C340F
:102590006093C1077093C2078093C3079093C407E9
:1025A000A701960160E070E0CB010E940C346093BB
:1025B000C5077093C6078093C7079093C8070F900D
:1025C0000F900F900F90DF91CF911F910F91FF907F
:1025D000EF90DF90CF90BF90AF909F908F907F90C3
:1025E0006F905F904F90089580389105B0F46034FB
:1025F000710598F4EDEBF3E290E1969FD001A0789D
:102600001124A80F6770E60FF11D9491A85FBC4FCD
:10261000442321F08C91982B9C93089590958C9154
:102620009823FACFDF92EF92FF920F931F93CF93ED
:10263000DF937C01D22E8B01040F111DEB0177FF7C
:1026400002C0D0E0C0E0C8010134110514F080E4FC
:1026500090E0C817D9073CF44D2DBE01C7010E9478
:10266000F4122196F0CFDF91CF911F910F91FF903F
:10267000EF90DF900895CF92DF92EF92FF920F9349
:102680001F93CF93DF936B01122FEC017C01E40EBB
:10269000F11CCE15DF0544F4202F412FB601CE01E9
:1026A0000E9412132196F5CFDF91CF911F910F91C8
:1026B000FF90EF90DF90CF9008952F923F924F922E
:1026C0005F926F927F928F929F92AF92BF92CF92C2
:1026D000DF92EF92FF920F931F93CF93DF9300D07F
:1026E0001F92CDB7DEB7C22ED12C9601280F391F0D
:1026F00037FD4FC0803891050CF04BC0E9824A018C
:102700007B013C01402E512C160127E0220E311C8A
:1027100093E0359427949A95E1F78B01B12CA12C85
:102720001B821A82EA81FB8183E0F595E7958A9501
:10273000E1F7EA0DFB1DE80DF91DE4918A819B810B
:102740008770992720E830E002C0359527958A9553
:10275000E2F7C901F0E0E223F923EF2B41F04981D0
:10276000B8018A819B81860D971D0E94F4128A818F
:102770009B8101969B838A838C159D059CF2A20CFC
:10278000B31C0F5F1F4FC8018E199F098415950553
:102790003CF20F900F900F90DF91CF911F910F910E
:1027A000FF90EF90DF90CF90BF90AF909F908F9071
:1027B0007F906F905F904F903F902F9008950F9370
:1027C0001F93CF93DF93EC018B0140E001960E94B1
:1027D000F41240E0B801CE0101970E94F412B80152
:1027E0006F5F7F4F40E0CE010E94F412B80161504C
:1027F000710940E0CE010E94F41240E0B801CE0120
:10280000DF91CF911F910F910C94F41280E0E8E0DA
:10281000F3E081118FEF0024819381938193819361
:102820000394D1F7EDEEF7E0178616861586148629
:1028300008956F927F928F929F92AF92BF92CF92A4
:10284000DF92EF92FF920F931F93CF93DF93803825
:1028500091050CF057C0603471050CF053C07B013A
:1028600037E0E322FF2433E0759567953A95E1F769
:10287000DB01B695BA2FAA27B795A7955D01C0E8E9
:10288000AC0EB11CA80EB91EA80FB91FA85FBC4F93
:1028900000E810E0081B190B90E080E0E8E0F0E0B1
:1028A0004F018E189F0830E0FA01E80FF91FC4911C
:1028B0007D906D01D1E0CD1AD1080E2C01C0CC0F56
:1028C0000A94EAF77C2AE6017882E114F10499F08F
:1028D0006730710581F0E491EC01CA0DDB1DC85F22
:1028E000DC4FF0E0082C02C0F595E7950A94E2F77A
:1028F000F881EF2BE8830196821793071CF40817E1
:10290000190791F6DF91CF911F910F91FF90EF90F2
:10291000DF90CF90BF90AF909F908F907F906F90FF
:102920000895AF92BF92CF92DF92EF92FF920F93F2
:102930001F93CF93DF936C017B018B01040F151F55
:10294000EB015E01AE18BF08C017D10759F06991BD
:10295000D601ED91FC910190F081E02DC601099521
:10296000892B79F7C501DF91CF911F910F91FF90CE
:10297000EF90DF90CF90BF90AF900895FC01538D02
:10298000448D252F30E0842F90E0821B930B541749
:1029900010F0CF96089501970895FC01918D828DD6
:1029A000981761F0A28DAE0FBF2FB11D5D968C916F
:1029B000928D9F5F9F73928F90E008958FEF9FEFAE
:1029C0000895FC01918D828D981731F0828DE80F6A
:1029D000F11D858D90E008958FEF9FEF0895FC0124
:1029E000918D228D892F90E0805C9F4F821B9109F1
:1029F0008F739927089588E097E00E94EF1421E0F3
:102A0000892B09F420E0822F089580E090E0892B43
:102A100029F00E94FB1481110C9400000895FC0120
:102A2000A48DA80FB92FB11DA35ABF4F2C91848D2F
:102A300090E001968F739927848FA689B7892C938C
:102A4000A089B1898C91837080648C93938D848DDF
:102A5000981306C00288F389E02D80818F7D8083E2
:102A60000895EF92FF920F931F93CF93DF93EC01A2
:102A700081E0888F9B8D8C8D98131AC0E889F98925
:102A8000808185FF15C09FB7F894EE89FF89608328
:102A9000E889F98980818370806480839FBF81E0A9
:102AA00090E0DF91CF911F910F91FF90EF900895EB
:102AB000F62E0B8D10E00F5F1F4F0F731127E02EC6
:102AC0008C8D8E110CC00FB607FCFACFE889F989FE
:102AD000808185FFF5CFCE010E940F15F1CFEB8DE0
:102AE000EC0FFD2FF11DE35AFF4FF0829FB7F894D2
:102AF0000B8FEA89FB8980818062CFCFCF93DF93F0
:102B0000EC01888D8823B9F0AA89BB89E889F98905
:102B10008C9185FD03C0808186FD0DC00FB607FC3A
:102B2000F7CF8C9185FFF2CF808185FFEDCFCE016D
:102B30000E940F15E9CFDF91CF910895833081F086
:102B400028F4813099F08230A9F008958730A9F0F7
:102B50008830C9F08430B1F4809180008F7D03C04B
:102B6000809180008F7780938000089584B58F775F
:102B700084BD089584B58F7DFBCF8091B0008F77A1
:102B80008093B00008958091B0008F7DF9CFCF93EE
:102B9000DF93282F30E0F901EB53FC4D8491F901CC
:102BA000E255FE4DD491F901E656FE4DC491CC2379
:102BB000A1F081110E949E15EC2FF0E0EE0FFF1F97
:102BC000E057FE4DA591B491EC91ED2381E090E0AA
:102BD00009F480E0DF91CF91089580E090E0FACF92
:102BE0001F93CF93DF93282F30E0F901EB53FC4D77
:102BF0008491F901E255FE4DD491F901E656FE4D5E
:102C0000C491CC23A9F0162F81110E949E15EC2FA0
:102C1000F0E0EE0FFF1FEA57FE4DA591B4918FB77C
:102C2000F894EC91111108C0D095DE23DC938FBF8E
:102C3000DF91CF911F910895DE2BF8CFCF93DF93D3
:102C400090E0FC01E255FE4D249186569E4DFC011C
:102C500084918823C9F090E0880F991FFC01E45803
:102C6000FE4DA591B491FC01EA57FE4DC591D4915A
:102C700061110DC09FB7F8948C91209582238C939D
:102C80008881282328839FBFDF91CF9108956230E8
:102C900051F49FB7F8943C91822F809583238C93B5
:102CA000E8812E2BEFCF8FB7F894EC912E2B2C933D
:102CB0008FBFEACFCF93DF93EC0161E089E00E9400
:102CC0001E16209731F460E089E0DF91CF910C94DB
:102CD000F015CF3FD10511F461E0F6CFEEECF3E251
:102CE000E491E33029F140F4E130B1F0E230D9F081
:102CF000C038D1058CF7E7CFE73021F1E83051F14A
:102D0000E430B1F780918000806280938000D0939E
:102D10008B00C0938A0004C084B5806884BDC7BDA1
:102D2000DF91CF91089584B5806284BDC8BDF8CF8E
:102D300080918000806880938000D0938900C09348
:102D40008800EECF8091B00080688093B000C0937F
:102D5000B300E6CF8091B00080628093B000C09352
:102D6000B400DECF3FB7F8948091D2029091D302A5
:102D7000A091D402B091D50226B5A89B05C02F3FE3
:102D800019F00196A11DB11D3FBFBA2FA92F982F91
:102D90008827BC01CD01620F711D811D911D42E08C
:102DA000660F771F881F991F4A95D1F708958F9254
:102DB0009F92AF92BF92CF92DF92EF92FF924B0120
:102DC0005C010E94B2166B017C010E94B2166C1964
:102DD0007D098E099F09683E734081059105A8F31E
:102DE00021E0821A9108A108B10888EEC80E83E09C
:102DF000D81EE11CF11C81149104A104B10429F72F
:102E0000FF90EF90DF90CF90BF90AF909F908F900A
:102E100008952FB7F8946091CE027091CF028091FF
:102E2000D0029091D1022FBF089584E98093BC0015
:102E30008091BC0084FDFCCF08958093BB0084E8A2
:102E40008093BC008091BC0087FFFCCF089584EA8A
:102E50008093BC008091BC0087FFFCCF88E70C9476
:102E60001D170E94271780E48093BB0084E880939D
:102E7000BC00E8E0F3E09091BC0097FFFCCF91919B
:102E80009093BB008093BC0097E0E830F90799F776
:102E90008091BC0087FFFCCF0C941517CF93C82FEF
:102EA0000E94271780E00E941D178C2F0E941D177B
:102EB000CF910C941517480F592F511D41385105CA
:102EC00014F040E850E0481BFB0177FD379633E0F3
:102ED000F595E7953A95E1F7F695FE2FEE27F795EC
:102EE000E795E80FF91FE85FFC4F6770772781E0EF
:102EF00090E001C0880F6A95EAF7382F213041F43D
:102F0000415078F08191DF011197832B8C93F8CF9A
:102F10008095415030F09191DF01119798239C9357
:102F2000F8CF0895CF92DF92EF92FF920F93CF9355
:102F3000DF936C017B01C42FD22F202F0E945B17DF
:102F4000B7016D0F711D61507109603471052CF46A
:102F5000202F4C2FC6010E945B17202F4D2FB70149
:102F6000C6010E941213C6018C0F911D202F4D2FF8
:102F7000B7010197DF91CF910F91FF90EF90DF9014
:102F8000CF900C9412132F923F924F925F926F92B8
:102F90007F928F929F92AF92BF92CF92DF92EF92E9
:102FA000FF920F931F93CF93DF93CDB7DEB72A978E
:102FB0000FB6F894DEBF0FBECDBF9A8389836A3007
:102FC00061F5DC0152968C91B8E08B9F9001112441
:102FD000E981FA8186859785820F931F9787868777
:102FE0001586148681E090E02A960FB6F894DEBF2D
:102FF0000FBECDBFDF91CF911F910F91FF90EF904A
:10300000DF90CF90BF90AF909F908F907F906F9008
:103010005F904F903F902F9008956D3019F3298164
:103020003A813A872987D9011C96AD90BC90B0E8C7
:10303000AB16B1040CF07BC0F901C684D784F0E470
:10304000CF16D1040CF073C0D90152966C905297F0
:1030500045E09501649E200D311D112412161306C2
:103060000CF065C0262C312C910153E0220F331F48
:103070005A95E1F72C0D3D1D121613060CF057C0A2
:103080005196BC91BB83E985FA85F089FC83649FE6
:10309000B00111249B012458334E3A832983712CAB
:1030A000E981FA818491F5E07F1201C080E0460158
:1030B00038E0532E282F30E03E832D834C8080FF54
:1030C0004B80411004C03B818C813817E1F010E047
:1030D00000E00615C0F4D501A00FB11FB887AF837B
:1030E000F12CE12CE61460F4B701680D791D442D34
:1030F0008F8198850E94F412BFEFEB1AFB0AF2CF82
:103100000F5F1F4FE6CF8D819E81959587955A94CD
:10311000820C931C5110CECF7394E981FA813196C1
:10312000FA83E983A20CB31CF6E07F12B9CFA9851C
:10313000BA8552962C915297422F50E01C968D9151
:103140009C91B6E02B9F800D911D1124E985FA8595
:10315000958784872389222309F444CF6AEF640387
:103160009001659F300D112420583F4F28173907D3
:103170000CF038CFDF010190F081E02D0190F0815B
:10318000E02D6AE0CD0109952DCF0F931F93CF93CA
:10319000DF938C01D0E0C0E0F801EC0FFD1F6491DB
:1031A000662341F08DEE97E00E94C317892B11F042
:1031B0002196F2CFCE01DF91CF911F910F9108950B
:1031C000682F8DEE97E00C94C317089590E080E08F
:1031D000089580917A00806980937A008EE48093CC
:1031E0007C0061E070E080E090E00E94D71683B739
:1031F000817F826083BF80E130E020E093B79160FF
:1032000093BF889593B79E7F93BF90917A0096FD68
:10321000FCCF4091780050917900240F351F8150E8
:1032200069F780917A008F7780937A0084E03695F1
:1032300027958A95E1F750E040E064EB7BE281E17D
:1032400090E00E94B133C901089588EC80937C001E
:1032500080917A00806880937A0065E070E080E079
:1032600090E00E94D71680917A00806480937A0063
:1032700080917A0086FDFCCF609178007091790092
:103280006A54714090E080E00E947C3226EF38E280
:103290004CE95FE30E947934089590917A00906937
:1032A00090937A008E50806480937C0083B7817FF6
:1032B000826083BF20E290E080E033B7316033BFAB
:1032C000889533B73E7F33BF30917A0036FDFCCF0F
:1032D0004091780050917900840F951F215069F733
:1032E00020917A002F7720937A0025E09695879594
:1032F0002A95E1F708958FE00E944D19A091D90217
:10330000B091DA029C010E94FD330E947E3228E5D2
:1033100039E743E353E40E9479340E94F234CB014D
:1033200008952091E70230E0E5E6F2E090E080E0E9
:10333000AF01455652404217530724F44191840F80
:10334000911DF6CF08958091E002882369F086E010
:103350000E94C715892B41F06AE070E080E090E0A0
:103360000E94D7161092E00208950F931F93CF93F7
:1033700080914801882399F0CFEF0FEE11E061E0D2
:1033800085E00E94F015C8010197F1F760E085E043
:103390000E94F015C8010197F1F7C15081F7CF9154
:1033A0001F910F9108952F923F924F925F926F92CB
:1033B0007F928F929F92AF92BF92CF92DF92EF92C5
:1033C000FF920F931F93CF93DF9310E000E0D0E0C4
:1033D000C0E03EE3E32EF12C40ECC42ED12CAA2415
:1033E000A394B12C60E2662E712C70E4272E312C50
:1033F0004C2E86E00E94C71521E0892B09F020E0C1
:103400002093E002F092E602E092E502D092E4021C
:10341000C092E302B092E202A092E10282E890E060
:103420009093F2028093F1028091F1029091F20266
:1034300095958795582E9FE1591243C0F092E60268
:10344000E092E502D092E402C092E302B092E2027E
:10345000A092E102EEEBF0E0F093F202E093F102D1
:103460009FE5592E0E94061482E08093FF07109377
:10347000FA070093F907E0E3F0E0F093FC07E0932C
:10348000FB078EE50E94E0181092FA071092F907E8
:103490007092FC076092FB07912C812C841438F504
:1034A00080910703F40196E0989FE00DF11D11242F
:1034B000E05BFE4F80810E94E018EFEF8E1A9E0ABB
:1034C000EDCFF0E65F12CECFF092E602E092E50299
:1034D000D092E402C092E302B092E202A092E10232
:1034E0003092F2022092F10280E2582EBBCF10936C
:1034F000FA070093F9077092FC076092FB07852D8D
:103500000E94E0180E94A3190E94311786E00E94D1
:10351000C715892B09F088CF8091E002811184CFF3
:1035200080900703F6E08F9E40011124C401805B68
:103530009E4F4C01FC01EC0FFD1F50820E94B519FB
:103540006AE070E080E090E00E94D7162196005F6C
:103550001F4FC530D10509F04BCFF4011582DF9123
:10356000CF911F910F91FF90EF90DF90CF90BF9080
:10357000AF909F908F907F906F905F904F903F9013
:103580002F9008953F924F925F926F927F928F9209
:103590009F92AF92BF92CF92DF92EF92FF920F93E2
:1035A0001F93CF93DF93CDB7DEB72E970FB6F89466
:1035B000DEBF0FBECDBF80910403882309F4A5C1EF
:1035C0001092A5071092A6071092A7071092A807BD
:1035D0008090A5079090A607A090A707B090A80795
:1035E000C090FA02D090FB02E090FC02F090FD0245
:1035F000A7019601C501B4010E940C342B013C01C6
:1036000020E030E0A9010E94213518160CF0A0C17D
:10361000C301B2010E94F23480914901882309F468
:10362000B8C1C092AD07D092AE07E092AF07F0925A
:10363000B007E12CF12C00EA10E420E030E040E497
:1036400050E46E31710540F0E12CF12C00E81FE3ED
:1036500020E030E040E05FE360E070E080E391E490
:103660000E9418128091EB07882309F42AC10E9456
:1036700009176D837E838F8398878091D3079091FC
:10368000D407A091D507B091D6074D815E816F8197
:103690007885481B590B6A0B7B0B8091DF07909153
:1036A000E007A091E107B091E207481759076A07C0
:1036B0007B0708F406C1E091CD07F091CE07808129
:1036C0009181A281B38189839A83AB83BC83E0918A
:1036D000D107F091D2079C01AD0160817181828197
:1036E00093810E940C344B015C012091DB073091E7
:1036F000DC074091DD075091DE0769817A818B817B
:103700009C810E940C346B017C012091C107309197
:10371000C2074091C3075091C407C501B4010E947C
:10372000DD322091D7073091D8074091D9075091C9
:10373000DA070E940D342B013C014092D7075092CA
:10374000D8076092D9077092DA073090EC073110F1
:103750001AC02091BD073091BE074091BF0750911C
:10376000C007C701B6010E94DD329B01AC01C30155
:10377000B2010E940C346093D7077093D8078093EE
:10378000D9079093DA074090D7075090D8076090F8
:10379000D9077090DA071091E7079091E8079E87A4
:1037A000A091E907AD870091EA07212F392F4A2F11
:1037B000502FC301B2010E94213518160CF0CCC065
:1037C000812F9E85AD85B02F8093D7079093D80722
:1037D000A093D907B093DA07332009F4D6C020911B
:1037E000BD073091BE074091BF075091C007C5018A
:1037F000B4010E94DD324B015C012091C50730917C
:10380000C6074091C7075091C807C701B6010E947B
:10381000DD329B01AC016091D7077091D807809190
:10382000D9079091DA070E940C34A50194010E94F7
:103830000D346B017C019B01AC01612F7E858D8570
:10384000902F0E94773287FD18C01091E307909166
:10385000E4079E87A091E507AD870091E607212F39
:10386000392F4A2F502FB601C7010E94773287FDAA
:1038700004C01C2DDE86ED860F2DE091CF07F09160
:10388000D007812F9E85AD85B02F80839183A28341
:10389000B38389819A81AB81BC818093DB0790934C
:1038A000DC07A093DD07B093DE078D819E81AF8199
:1038B000B8858093D3079093D407A093D507B0938E
:1038C000D6076091A9077091AA078091AB079091E4
:1038D000AC070E94EB34CB012E960FB6F894DEBFF6
:1038E0000FBECDBFDF91CF911F910F91FF90EF9051
:1038F000DF90CF90BF90AF909F908F907F906F9010
:103900005F904F903F900C945A1680910303609102
:1039100044017091450181110EC08091F80290918F
:10392000F90220910203BC01222329F06091430196
:10393000680F792F711D90E080E00E947C326093C7
:10394000A5077093A6078093A7079093A80740CE7A
:10395000C301B20190585ECE8091E3079091E407D5
:10396000A091E507B091E60789879A87AB87BC8766
:103970009C01AD01C301B2010E94773287FF2CCFB9
:1039800089859A85AB85BC851FCF812C912C5401EC
:1039900034CF20E030E040E05FE3C701B6010E9491
:1039A0000D349B01AC01C501B4010E9421351816EC
:1039B0004CF41092A9071092AA071092AB0710922C
:1039C000AC077FCF80E090E0AFE7B3E48093A90736
:1039D0009093AA07A093AB07B093AC0772CF4F9216
:1039E0005F926F927F928F929F92AF92BF92CF928F
:1039F000DF92EF92FF92CF93DF938090DB02909063
:103A0000DC02A090DD02B090DE02C0910703D0E09E
:103A1000C501B4010E94EB346B017C0120E030E071
:103A200048E453E4C501B4010E94773293E0CC0F1F
:103A3000DD1F9A95E1F7CE5FDE4F87FF31C0288109
:103A4000398150E040E02551310941095109C70150
:103A5000B6010E94B03628EC30E040E050E00E9411
:103A6000B133CA01B9016B5E7F4F8F4F9F4F0E94E8
:103A70007E326093FA027093FB028093FC02909373
:103A8000FD02DF91CF91FF90EF90DF90CF90BF903C
:103A9000AF909F908F907F906F905F904F90089520
:103AA0004A805B80712C612C20E030E04CE853E4CC
:103AB000C501B4010E94773287FF1FC088809980BA
:103AC000B12CA12CA7019601285C310941095109AB
:103AD000C301B201681979098A099B090E94B036AD
:103AE00020E530E040E050E00E94B133CA01B90166
:103AF000680D791D8A1D9B1DBACF2C813D8150E038
:103B000040E02419350946095709C701B601685133
:103B10007140810991090E94B03620E530E040E013
:103B200050E00E94B133CA01B901640D751D861DB4
:103B3000971D9DCFFC0101900020E9F73197AF015F
:103B4000481B590BBC018DEE97E00C9491148F9299
:103B50009F92AF92BF920F931F93CF93DF93CDB7F6
:103B6000DEB7A1970FB6F894DEBF0FBECDBF19A286
:103B7000423008F44AE08E010F5D1F4F842E912CD5
:103B8000B12CA12CA50194010E94DB33E62FB901D1
:103B9000CA01EA30F4F4E05DD801EE938D01232BE5
:103BA000242B252B79F790E080E0109719F0CD01B8
:103BB0000E949A1DA1960FB6F894DEBF0FBECDBF2E
:103BC000DF91CF911F910F91BF90AF909F908F90F9
:103BD0000895E95CE1CFCF92DF92EF92FF92CF930D
:103BE000DF9397FF19C06B017C018DE20E94E01802
:103BF000EC0166277727CB016C197D098E099F0997
:103C00004AE00E94A71D8C0F9D1FDF91CF91FF906E
:103C1000EF90DF90CF9008954AE0DF91CF91FF9031
:103C2000EF90DF90CF900C94A71D4F925F926F9210
:103C30007F928F929F92AF92BF92CF92DF92EF923C
:103C4000FF920F931F93CF936B017C01742EAC01F5
:103C50009B010E947635882399F089EA92E0CF9102
:103C60001F910F91FF90EF90DF90CF90BF90AF909A
:103C70009F908F907F906F905F904F900C949A1DC3
:103C800046015701E894B7F82FEF3FEF4FE75FE7A2
:103C9000C501B4010E94763581110DC02FEF3FEFB1
:103CA0004FE75FE7C501B4010E94773218161CF494
:103CB0008DEA92E0D4CF2FEF3FEF4FE75FE4C701EB
:103CC000B6010E94213518161CF481EB92E0C7CF93
:103CD0002FEF3FEF4FE75FECC701B6010E9477324D
:103CE00087FDF3CF20E030E0A901C701B6010E94B3
:103CF000773210E000E087FF08C08DE20E94E018F4
:103D00008C01F7FAF094F7F8F094C0E060E070E00E
:103D100080E09FE37C1641F020E030E040E251E497
:103D20000E947934CF5FF6CFA70196010E940D342F
:103D30002B013C010E94F2344B015C014AE00E94DD
:103D4000A71D7C01E00EF11ECC23B1F1C501B40129
:103D50000E947C329B01AC01C301B2010E940C3471
:103D60004B015C018EE20E94E018E80EF91EC15082
:103D700018F120E030E040E251E4C501B4010E94B6
:103D8000DD322B013C010E94F2344B01B12CA12CFD
:103D90004AE0C501B4010E94A71DE80EF91EC50145
:103DA000B4010E947C329B01AC01C301B2010E94AC
:103DB0000C344B015C01DBCFC701CF911F910F91F8
:103DC000FF90EF90DF90CF90BF90AF909F908F903B
:103DD0007F906F905F904F900895CF92DF92EF9217
:103DE000FF920F931F93CF93DF93C82F81E0DC2FB7
:103DF000D827D093FE07C093FD078093FF070C2FB1
:103E00002EE046E661E370E081E090E00E949217C8
:103E10002091050330910603253F81E03807B8F46F
:103E2000A4E6B0E00E94FD3324EF31E040E050E032
:103E30000E94B133BA01A9014E5F5F4F6F4F7F4FB0
:103E40002EE061E370E081E090E00E943B1360911E
:103E5000A5077091A6078091A7079091A8070E94D7
:103E6000EB349B01AC01A4E6B0E00E94D03334EF08
:103E7000C32EDD24D394E12CF12CA70196010E94DE
:103E8000B133DA01C9010296A11DB11D02970C2FB1
:103E90002DE043E062E370E00E943B136091A507D0
:103EA0007091A6078091A7079091A8070E94EB3414
:103EB0009B01AC01A4E6B0E00E94D033A7019601BB
:103EC0000E94B133DA01C9010296A11DB11D039709
:103ED00024E045E06CE370E00E943B136091A5078D
:103EE0007091A6078091A7079091A8070E94EB34D4
:103EF0009B01AC01A4E6B0E00E94D033A70196017B
:103F00000E94B13389019A010E5F1F4F2F4F3F4F1F
:103F10000150110941E3E42EF12C4D2FB701C801E6
:103F20000E94F4128FEFE81AF80A8DE3E816F10404
:103F3000A1F76091A5077091A6078091A7079091BE
:103F4000A8070E94EB349B01AC01A4E6B0E00E94FC
:103F5000D03324EF31E040E050E00E94B133DA0189
:103F6000C9010296A11DB11D0397ED2E04E025E0C5
:103F700045EC51E16BE370E00E945D130C2F2EE0E5
:103F800047E161E370E088E690E00E94921760915B
:103F9000A9077091AA078091AB079091AC070E9486
:103FA000EB349B01AC012F5F310941095109A7E1B5
:103FB000B0E00E94D033CC24C394DD24DA94ED2CFD
:103FC000FD2CA70196010E94B133422F2EE061E340
:103FD00070E088E690E00E943B13C093FE07D09308
:103FE000FD0782E090E09093FA078093F90707E3DA
:103FF00010E01093FC070093FB076091A5077091F8
:10400000A6078091A7079091A80740E00E94151E7F
:1040100088EF0E94E01883EC91E10E94C51889E6C0
:1040200090E09093FA078093F9071093FC070093B0
:10403000FB076091A9077091AA078091AB07909147
:10404000AC070E94EB349B01AC012F5F31094109A1
:104050005109A4E6B0E00E94D033A70196010E9466
:10406000B133CA01B9010E94EB1D81EC91E10E94BC
:10407000C518D093FE07C093FD07DF91CF911F9124
:104080000F91FF90EF90DF90CF9008956F927F9205
:104090008F929F92AF92BF92CF92DF92EF92FF9258
:1040A0000F931F93CF93DF93B090070377247394FC
:1040B000B11001C0712C809142018150990B109276
:1040C000E6021092E502880F991F9093E402809314
:1040D000E30281E090E09093E2028093E1028B2D75
:1040E00090E0880F991F9093F2028093F10286E08E
:1040F0000E94C71521E0892B09F020E02093E002FF
:10410000FF24F39472E0972EE6E08E2EFCE0CF2E93
:10411000D12C0E940614C091F102D091F202D595E3
:10412000C795EC2E8E011127C801870D911D77FCD4
:104130009A958B199109712C97FD06C083309105D2
:1041400014F082E090E0782EF092FE071092FD07C6
:104150009092FF071092FA071092F9071092FC074D
:104160001092FB0781E79CE10E94C5181092FE07A0
:10417000F092FD071092FA071092F907A72C072C6E
:10418000000CBB08C501019654E0880F991F5A9591
:10419000E1F79093FC078093FB078FE69CE10E9478
:1041A000C5186C2E671890E080E098012A193B0929
:1041B0005901209142018C010F5F1F4F6216D0F40C
:1041C000D092FA07C092F907980144E0220F331FFA
:1041D0004A95E1F73093FC072093FB078A0D9B1D5E
:1041E000889E9001899E300D1124C901805B9E4FED
:1041F0000E949A1DC801639403301105D1F60E94F4
:10420000A3190E94311786E00E94C715892BB9F4C3
:104210008091E002811113C00E94B519E09207035A
:10422000DF91CF911F910F91FF90EF90DF90CF9092
:10423000BF90AF909F908F907F906F900895BC2E0D
:1042400068CF0E94EE361F93CF93DF93EC01162FB9
:104250000E949B33181739F0612FCE01DF91CF9167
:104260001F910C94A333DF91CF911F910895AF92CA
:10427000BF92CF92DF92EF92FF920F931F93CF9353
:10428000DF936091470182E090E00E9423216091DA
:10429000460183E090E00E9423216091450184E083
:1042A00090E00E9423216091440185E090E00E940B
:1042B00023216091430186E090E00E9423216091D8
:1042C0004C0187E090E00E94232160914B0188E03F
:1042D00090E00E94232160914A0189E090E00E94D1
:1042E0002321609180018AE090E00E942321609167
:1042F00049018BE090E00E942321609148018CE00D
:1043000090E00E942321609107038DE090E00E94DD
:104310002321609142018EE090E00E942321609170
:104320004E018FE090E00E9423216091DF0280E146
:1043300090E00E9423216091FF0281E190E00E94C1
:10434000232182E1E82EF12C10E006E08091420169
:104350001817B8F5109F60011124D0E0C0E0FE01ED
:10436000EC0DFD1DE05BFE4F6081C7018C0F9D1FB2
:104370000E9423212196C630D10589F7670186E086
:10438000C80ED11C88E0189FE0011124CE5FDE4FDB
:104390008EE0E80EF11C69812296C6010E9423215D
:1043A000560182E0A80EB11CFE0132976081C60161
:1043B00001960E9423216501AE14BF0461F71F5FBF
:1043C000C5CFDF91CF911F910F91FF90EF90DF90BC
:1043D000CF90BF90AF9008958F929F92AF92BF926F
:1043E000CF92DF92EF92FF92CF938FEF90E00E94F7
:1043F0005A168BEA94E00197F1F78EE00E944D196E
:104400007C018AE00E94C7159091B802981729F0A4
:1044100091E09093FE028093B802809101019FEF9A
:10442000980F90930101811106C00E947B1990930F
:104430000103809300036091A9077091AA078091FE
:10444000AB079091AC070E94EB34CB010E945A1647
:104450008090DB029090DC02A090DD02B090DE0242
:10446000B70190E080E00E947C32A50194010E9497
:104470000C342DEC3CEC4CE45DE30E94DD32A501F4
:1044800094010E940D346093DB027093DC028093F0
:10449000DD029093DE020E94EF1C60910503709193
:1044A000060390E080E00E947C326B017C01209149
:1044B000A5073091A6074091A7075091A8070E9431
:1044C00077328111B5C02091FA023091FB02409100
:1044D000FC025091FD02C701B6010E940C346B0131
:1044E0007C0120E030E0A9010E94213518160CF073
:1044F00095C020E030E040EA50E4C701B6010E94D8
:10450000213518160CF494C06091F8027091F902EC
:1045100090E080E00E947C322091FA023091FB0210
:104520004091FC025091FD020E940C346B017C0111
:1045300020E030E0A9010E94213518160CF087C058
:10454000C701B6010E94F2346530710508F083C0DE
:1045500080914F01811105C080914D0181110E9410
:10456000B51981E080934F0110924D0180910503B0
:1045700090910603853F21E0920710F01092000110
:1045800020910001211140C0843F9140E8F58FEF58
:1045900090E00E945A160E94B519C1E0C093000134
:1045A0000E9446200E943721C093FE028EE00E94A6
:1045B0004D19BC0190E080E00E947C326093DB02E8
:1045C0007093DC028093DD029093DE021092F00281
:1045D0008091F8029091F9022CE231E03093E602EA
:1045E0002093E50220E233E03093E4022093E302DB
:1045F0002AE030E03093E2022093E102880F991F15
:104600009093F2028093F102CF91FF90EF90DF90B0
:10461000CF90BF90AF909F908F90089520E030E0B2
:1046200040EA50ECC701B6010E94773287FF6CCF99
:104630006091FA027091FB028091FC029091FD0260
:104640000E94F23470930603609305035DCFC701A7
:10465000B601905877CF10924F0188CF0C949B33BE
:104660002F923F924F925F926F927F928F929F9282
:10467000AF92BF92CF92DF92EF92FF920F931F9370
:10468000CF93DF938C0186E08093FF0781E08093D6
:10469000FE071092FD076091CB027091CC02072EAD
:1046A000000C880B990B0E947E322B013C0145ECDB
:1046B000C42E42E0D42E7601C2E0D0E05AE0A52E0E
:1046C000B12CBE010D2E000C880B990B0E947E327E
:1046D0009B01AC0160E070E080E291E40E9426352D
:1046E0009B01AC01C301B2010E9479340E94EB34FA
:1046F000CB01B5010E94C036F701819391937F01F0
:104700002197F8F61093CC020093CB02C9EBD2E0CC
:1047100094E0E92EF12C22E0822E912C3AE0232E17
:10472000312CB401092C000C880B990B0E947E32AD
:104730009B01AC0160E070E080E291E40E942635CC
:104740002B013C016091CB027091CC02072E000C32
:10475000880B990B0E947E32A30192010E9479344A
:104760000E94EB34CB01B1010E94C036F6012081DA
:104770003181821B930BF2E3F89FB001F99F700D1A
:104780001124072E000C880B990B0E947E32288181
:1047900039814A815B810E940D342B013C0120E06C
:1047A00030E0A9010E94773281117CC04882598291
:1047B0006A827B8201E022E346E270E060E0C701AA
:1047C00004970E943B138EECA82EBB24BA940FEFE3
:1047D0001FEF288139814A815B8160E070E080E8C9
:1047E00090E40E940C342B013C01B5010B2C000C11
:1047F000880B990B0E947E329B01AC01C301B20170
:104800000E940D340E94EB34F092FA07E092F9070F
:104810007093FC076093FB07F60160817181600F64
:10482000711F072E000C880B990B0E94EB1D0F5F68
:104830001F4FF2E3AF0EB11C0230110551F6249662
:1048400021E0821A910882E0C80ED11CECE2EE0E43
:10485000F11CF8E8EF16F10409F063CF00E022E064
:1048600040E870E060E090E080E00E943B132DE0C3
:1048700040E863E370E090E080E00E943B13DF914A
:10488000CF911F910F91FF90EF90DF90CF90BF904D
:10489000AF909F908F907F906F905F904F903F90E0
:1048A0002F900895C301B20190582DEC3CEC4CE4DC
:1048B0005FE30E94DD32A30192010E940D34688300
:1048C00079838A839B8376CF86E00E94C71521E097
:1048D000892B09F020E02093E0020E9406148091C9
:1048E000F1029091F202959587950E9430230E94E3
:1048F00031170E94A31986E00E94C715892B69F71A
:104900008091E0028111E9CF0E94B5198091CB021C
:104910009091CC0208952F923F924F925F926F92A6
:104920007F928F929F92AF92BF92CF92DF92EF923F
:10493000FF920F931F93CF93DF93CDB7DEB76597A9
:104940000FB6F894DEBF0FBECDBF182FE091E7027F
:10495000F0E0EB59FD4F80818150990B1092E602F7
:104960001092E502880F991F9093E4028093E3026E
:1049700081E090E09093E2028093E102812F90E049
:10498000880F991F9093F2028093F10286E00E94B3
:10499000C71521E0892B09F020E02093E002109256
:1049A000FE0781E08093FD078091F1029091F20271
:1049B0009C01359527953D872C873C853D8B6C84E4
:1049C0007D8477249301211B310948E3429FC00174
:1049D000439F900D1124280E391E2114310409F132
:1049E0006627772762197309072E000C880B990B2D
:1049F0000E947E322AE939E949E15FE30E94DD3213
:104A00004B015C01B101330C880B990B0E947E3283
:104A10009B01AC01C501B4010E940D340E94EB342E
:104A20001B010E940614430182E0881A910861016B
:104A300098E4C91AD108F3013396FC8BEB8B97FCF1
:104A40008AC0E091E702F0E0EB59FD4F80818815C4
:104A5000190409F00CF47FC001E020E340E370E0AA
:104A600060E0C6010E943B1396012D5F3F4F3A8BD9
:104A7000298B00E02AE24AE263E070E089899A89A2
:104A80000E943B1370E060E0C6010E94DF1370E0FB
:104A900060E08601015D1F4FC8010E94DF136FE2D5
:104AA00070E0C6010E94DF136FE270E0C8010E944F
:104AB000DF130E949119F401E80FF11DEE0FFF1FA3
:104AC000E75EFD4F80819181988B8F8773E0E72EA1
:104AD000F12C512C412CB12CA12CF50153E0F59572
:104AE000E7955A95E1F7E40DF51D2F853889E20F1A
:104AF000F31FE491C5018770992720E830E002C0D8
:104B0000359527958A95E2F7C901F0E0E223F9236C
:104B1000EF2B79F0C501880F991F8A0D9B1D01E0CD
:104B200023E043E0B701E989FA898E0F9F1F0E94B5
:104B30003B13FFEFAF1ABF0A2EE0A216B10469F6CD
:104B400032E0430E511C43E0E40EF11C8DE2E81606
:104B5000F10409F0C0CF9FEF891A990AE8E3CE0E5D
:104B6000D11C2B893C898216930609F068CF80916D
:104B70004E01811140C00E949119F301E80FF11D0F
:104B8000EE0FFF1FE353FE4F40815181EE24E3946B
:104B900000E124E260E370E080E390E00E945D13B6
:104BA0000E9431170E94A31986E00E94C715892B25
:104BB00001F58091E00281111CC00E94B5198D8918
:104BC00065960FB6F894DEBF0FBECDBFDF91CF91D3
:104BD0001F910F91FF90EF90DF90CF90BF90AF901B
:104BE0009F908F907F906F905F904F903F902F900D
:104BF00008951C85D9CE823009F083C00E94911996
:104C0000860D972D911DFC01E75BF34EE490880F14
:104C1000991FFC01EF57FE4F80809180D12CC12C51
:104C200004E310E3CE1408F0BBCFF401EC0DFD1D3E
:104C3000449180E1840F833008F45EC03E85313FAB
:104C4000E9F0323FD1F1403F08F058C0193710F079
:104C5000085F10E088E0489FA001112443585B4E94
:104C6000602F70E028E0812F90E00E941914185FF7
:104C700090EF9E873FEFC31AD30AD4CF4E39D0F7B7
:104C80001D3710F0085F10E0A02EB12C612E712CA2
:104C9000E3E04E9FA00111244D555D4E23E0B50188
:104CA000C3010E94191421E042EA52E1B501C30197
:104CB00003960E9419141C5FDDCF4F31D8F61937C7
:104CC00010F0085F10E0A02EB12C612E712CF7E0DF
:104CD0004F9FA001112447535E4E27E0B501C30149
:104CE0000E94191421E042EA52E1B501C30107967E
:104CF0000E941914185FBECF4E87BCCF20EF2E87BD
:104D0000B9CF80E390E09093FA078093F907E1E34D
:104D1000F0E0F093FC07E093FB0781E08093FF074E
:104D20000E949119FC858F0FE82FF0E0EE0FFF1F16
:104D3000E350F44E65917491CE0101960E94703259
:104D4000CE0101960E949A1D2BCF1F920F920FB693
:104D50000F9211242F933F934F935F936F937F9301
:104D60008F939F93AF93BF93EF93FF9388E097E068
:104D70000E940F15FF91EF91BF91AF919F918F917D
:104D80007F916F915F914F913F912F910F900FBE47
:104D90000F901F9018951F920F920FB60F9211242B
:104DA0002F938F939F93EF93FF93E0911807F091C8
:104DB00019078081E0911E07F0911F0782FD1BC03B
:104DC0009081809121078F5F8F7320912207821736
:104DD00041F0E0912107F0E0E85FF84F958F809374
:104DE0002107FF91EF919F918F912F910F900FBE0F
:104DF0000F901F9018958081F4CF1F920F920FB6DD
:104E00000F9211242F933F938F939F93AF93BF9350
:104E10008091CE029091CF02A091D002B091D102A8
:104E20003091CD0223E0230F2D3758F50196A11DB7
:104E3000B11D2093CD028093CE029093CF02A09318
:104E4000D002B093D1028091D2029091D302A0916E
:104E5000D402B091D5020196A11DB11D8093D2025A
:104E60009093D302A093D402B093D502BF91AF9197
:104E70009F918F913F912F910F900FBE0F901F9098
:104E8000189526E8230F0296A11DB11DD2CF1F92BF
:104E90000F920FB60F9211242F933F934F935F936E
:104EA0006F937F938F939F93EF93FF9383B1817061
:104EB00029B19091D802981709F49DC030E0220FD3
:104EC000232F221F330B922F8093D8024091D702B9
:104ED000241709F490C02093D7022091E102309169
:104EE000E202981719F03195219531094091F102AC
:104EF0005091F2026091E5027091E602240F351F95
:104F0000261737070CF48BC02091E1023091E202A2
:104F1000981719F03195219531094091F10250917E
:104F2000F2026091E3027091E402240F351F6217D0
:104F300073070CF46FC04091E1025091E2029817A0
:104F400019F05195419551092091F1023091F202E9
:104F5000240F351F3093F2022093F10241E09813A1
:104F600040E02091D602421709F440C02091E102AE
:104F70003091E202981719F031952195310960912D
:104F8000F1027091F202E091E502F091E602260F43
:104F9000371F2E173F070CF44CC02091E1023091CF
:104FA000E202981719F03195219531096091F102CB
:104FB0007091F202E091E302F091E402260F371FB4
:104FC000E217F3078CF12091E1023091E202981789
:104FD00019F03195219531098091F1029091F202F9
:104FE000820F931F9093F2028093F1024093D602B6
:104FF00081E08093FE02FF91EF919F918F917F91CD
:105000006F915F914F913F912F910F900FBE0F9035
:105010001F9018952091E3023091E4029BCF2091DC
:10502000E5023091E60296CF8091E3029091E4028E
:10503000D9CF8091E5029091E602D4CF18950F93D5
:105040001F93CF93DF93E8E0F7E01382128288EE9C
:1050500093E0A0E0B0E084839583A683B7838FE8D4
:1050600092E09183808385EC90E09587848784EC3F
:1050700090E09787868780EC90E0918B808B81EC25
:1050800090E0938B828B82EC90E0958B848B86EC06
:1050900090E0978B868B118E128E138E148EEDEE10
:1050A000F7E0138212821682178280E180871582D0
:1050B0001482128681EA92E0918380831586148699
:1050C0001786168681E0808B118A828B138AC1EB4A
:1050D000D7E029EA37E03F8F2E8F2DEA37E03D8F6A
:1050E0002C8F25EA37E039A328A31AAE1AAA1BAAE7
:1050F0001CAA1DAA40E050E06FE773E44EAB5FAB23
:1051000068AF79AF44E650E060E070E04EA75FA77B
:1051100068AB79AB21E030E0398F288F3B8F2A8F45
:105120008BAF80E090E0A0E3B1E488839983AA8309
:10513000BB8380E090E0A0E0BFE38C839D83AE83DF
:10514000BF8380E090E0A0E8BFE388879987AA87C3
:10515000BB8780E090E0A0E3B1EC8C879D87AE87B1
:10516000BF878DEC9CECACE4BDEB888B998BAA8B54
:10517000BB8B80E090E0A0E2B1EC8C8B9D8BAE8B82
:10518000BF8B0E9409170EA51FA528A939A9601B6E
:10519000710B820B930B6AA37BA38CA39DA3DF915E
:1051A000CF911F910F910895CF93DF93CDB7DEB7C5
:1051B0002A970FB6F894DEBF0FBECDBF789484B5A2
:1051C000826084BD84B5816084BD85B5826085BD03
:1051D00085B5816085BD80916E00816080936E0091
:1051E0001092810080918100826080938100809183
:1051F0008100816080938100809180008160809334
:1052000080008091B10084608093B1008091B000F3
:1052100081608093B00080917A00846080937A00EE
:1052200080917A00826080937A0080917A00816018
:1052300080937A0080917A00806880937A0010923F
:10524000C1001092B90088E48093B8000E9427172B
:1052500080E00E941D1702EC11E2E1EEEE2EE1E289
:10526000FE2EF80184910E941D170F5F1F4FE0165C
:10527000F106B9F70E94151711E01093B8000E94CB
:10528000311781E28093F50760E08EE00E941E16E0
:1052900060E08FE00E941E1661E085E00E941E160D
:1052A00061E089E00E941E1662E087E00E941E16FF
:1052B00062E088E00E941E1662E086E00E941E16F0
:1052C00062E08AE00E941E168FEF90E00E945A165C
:1052D00060E085E00E94F01580917A0087608093FD
:1052E0007A0080917A00886080937A007894109395
:1052F0006B00109368001BBB90E080E00E942E239F
:10530000182F81E090E00E942E23912F8F3F98402C
:1053100009F0BBC082E090E00E942E23182F83E0AA
:1053200090E00E942E23912F909347018093460195
:1053300084E090E00E942E23182F85E090E00E94E8
:105340002E23912F909345018093440186E090E0B5
:105350000E942E238093430187E090E00E942E2339
:1053600080934C0188E090E00E942E2380934B01B3
:1053700089E090E00E942E2380934A018AE090E029
:105380000E942E23809380018BE090E00E942E23C8
:1053900091E0811101C090E0909349018CE090E090
:1053A0000E942E2391E0811101C090E0909348016A
:1053B0008DE090E00E942E23809307038EE090E022
:1053C0000E942E23282E809342018FE090E00E94BD
:1053D0002E2380934E0180E190E00E942E2391E0E5
:1053E000811101C090E09093DF0281E190E00E9482
:1053F0002E238093FF0252E0852E51E0952E60E52A
:10540000A62E61E0B62E72E1E72EF12C312C23148A
:1054100009F447C010E000E0C701800F911F0E940F
:105420002E23F501E00FF11F80830F5F1F4F063021
:10543000110591F7670126E0C20ED11C3EE0E30E94
:10544000F11C3401C6010E942E23082F10E0102FFA
:105450000027F301118300832601F2E04F0E511C57
:10546000C60101960E942E23082BF301019311938C
:105470003F0162014E145F0429F73394F8E08F0E68
:10548000911C26E0A20EB11CC2CF68E090E080E043
:105490000E9423216FEF81E090E00E9423210E946F
:1054A00037211091DF0280EC111101C088EC0E94BD
:1054B0004E1780EA111101C081EA0E944E170E9426
:1054C000E9189093DA028093D9020E947B19909395
:1054D000010380930003009146011091470110934E
:1054E000F9020093F8028EE00E944D19BC0190E091
:1054F00080E00E947C326093DB027093DC02809338
:10550000DD029093DE020E9425190E94EF1C20E02C
:1055100030E040EA51E46091FA027091FB02809120
:10552000FC029091FD020E940D346B017C01B801D8
:1055300090E080E00E947C329B01AC01C701B60183
:105540000E94773287FF04C090E080E00E945A16E4
:105550001092E3071092E4071092E5071092E60715
:10556000412C512C3FE7632E33E4732E4092E70722
:105570005092E8076092E9077092EA07A090CF077F
:10558000B090D0078091EB07F501C080D180E28018
:10559000F380882309F478C7A3019201C701B601FB
:1055A0000E942135181634F5F5014082518262823D
:1055B00073828090D7079090D807A090D907B090B9
:1055C000DA07C090E707D090E807E090E907F0908D
:1055D000EA07A7019601C501B4010E9421351816FA
:1055E000C4F4C092D707D092D807E092D907F092BE
:1055F000DA071FC020E030E0A901C701B6010E9410
:10560000773287FFD6CFF501108211821282138282
:10561000D0CFC090E307D090E407E090E507F0908A
:10562000E607A7019601C501B4010E94773287FD04
:10563000D8CF81E08093EB0783B181708093D8024B
:1056400089B190E0880F892F881F990B8093D7022A
:105650002091D8029091D70281E0291380E08093B5
:10566000D6028CE291E09093E6028093E50280E21C
:1056700093E09093E4028093E3028AE090E09093B9
:10568000E2028093E102000F111F1093F2020093D7
:10569000F1020E9409176093F4027093F50280935F
:1056A000F6029093F7020E94B5190E94B519209056
:1056B000F1023090F2029101359527953A872987BA
:1056C0003093F9022093F80286E00E94C715482E15
:1056D00081119FC08091F002882309F49AC00E9432
:1056E000B5190E9409176B017C01C092EC02D0929F
:1056F000ED02E092EE02F092EF0286E00E94C71502
:10570000892B59F40E9409176C197D098E099F098C
:10571000643F71408105910580F30E9409176C195F
:105720007D098E099F09643F71408105910508F448
:1057300053C48FEF90E00E945A160E94B519512C65
:10574000AAE06A2E712C1092E702852D0E948B240C
:10575000582EF8E0F81708F439C0E82FF0E0ED54BF
:10576000F44D0C94D436CE2B762EED2E552F632F80
:10577000942FA22FC22FCC2F20E030E0A901C70127
:10578000B6010E94773287FF54CF1092D70710924C
:10579000D8071092D9071092DA074BCFFEE16F2E8F
:1057A000712C81E08093E702852D0E948B24582E76
:1057B00022E0821709F434C2281708F4E8C08823CD
:1057C00009F410C131E0831709F40FC10E94372199
:1057D00081E08093FE0229853A853093F902209377
:1057E000F8028CE291E09093E6028093E50280E279
:1057F00093E09093E4028093E3028AE090E0909338
:10580000E2028093E102C1018E7F9093F2028093C5
:10581000F1024092F00280910203882309F1109175
:105820004A011123E9F00E940917C090E802D090C4
:10583000E902E090EA02F090EB026C197D098E0912
:105840009F0928EE33E040E050E00E94DB3321174F
:1058500038F0109202030E94B51981E080934D0147
:105860008091FE028823E9F180910303882349F1A6
:1058700020E030E040EA51E46091FA027091FB02CE
:105880008091FC029091FD020E940D346B017C011D
:105890006091F8027091F90290E080E00E947C3201
:1058A0009B01AC01C701B6010E94773287FF04C09B
:1058B00090E080E00E945A160E94B51981E0809322
:1058C0004D011092FE0210920303109204030E94F5
:1058D00009176093F4027093F5028093F602909397
:1058E000F7020E9409170091F4021091F50220912D
:1058F000F6023091F702601B710B820B930B20E6CE
:105900003AEE40E050E00E94DB33122F2093F30286
:105910008091030381110BC080914C01882339F0E1
:10592000281728F081E0809303030E94B519809125
:10593000040381110BC080914B01882339F01817A3
:1059400028F081E0809304030E94B5190E94EC21A5
:105950000E94C21A0E9409178091F607362F381B41
:10596000832F9091F707992309F44CC33093F807DC
:105970001092F70780E090E0892B09F498CE0E94FE
:10598000FB14882309F493CE0E94000090CE83E09C
:10599000581609F448C194E0591218CF8091420179
:1059A000883008F0FECE91E0980F909342018093EA
:1059B00007030E94D319E091070328E0E29FF0015A
:1059C0001124EE5FFE4F88ED90E09183808324E305
:1059D00031E03383228386E891E095838483778264
:1059E0006682DFCE0E944620DCCE8E010F5F1F4F05
:1059F000812C912C5401839478EEE72E73E0F72EDE
:105A0000CC24C394D12CE091070324E0E29FF00161
:105A10001124C4010197E80FF91FEE0FFF1FEE5F7D
:105A2000FE4F808191819093F9028093F802E8EC17
:105A3000F0E0F093E602E093E502F092E402E092F7
:105A4000E302D092E202C092E102880F991F909384
:105A5000F2028093F102F1E0F0934D0186E00E94A2
:105A6000C71521E0892B09F020E02093E0020E9475
:105A7000061422E02093FF070E94EC210E94C21A24
:105A80001092FA071092F9071092FC071092FB0788
:105A900087E092E20E94C518C501B4010E94EB1D87
:105AA00085EB92E00E949A1D80914F011092FA07B7
:105AB0001092F907882309F48BC080E190E090935D
:105AC000FC078093FB078AEF91E20E94C5181092B1
:105AD000FA071092F907E0E2F0E0F093FC07E09398
